{
	"stakingpool.sol": {
		"Staking": {
			"abi": [
				{
					"inputs": [],
					"stateMutability": "nonpayable",
					"type": "constructor"
				},
				{
					"inputs": [],
					"name": "creator",
					"outputs": [
						{
							"internalType": "address",
							"name": "",
							"type": "address"
						}
					],
					"stateMutability": "view",
					"type": "function"
				},
				{
					"inputs": [],
					"name": "stake",
					"outputs": [],
					"stateMutability": "payable",
					"type": "function"
				}
			],
			"devdoc": {
				"kind": "dev",
				"methods": {},
				"version": 1
			},
			"evm": {
				"assembly": "    /* \"stakingpool.sol\":61:214  contract Staking {... */\n  mstore(0x40, 0x80)\n    /* \"stakingpool.sol\":116:169  constructor() {... */\n  callvalue\n  dup1\n  iszero\n  tag_1\n  jumpi\n  0x00\n  dup1\n  revert\ntag_1:\n  pop\n    /* \"stakingpool.sol\":141:148  creator */\n  0x00\n    /* \"stakingpool.sol\":141:161  creator = msg.sender */\n  dup1\n  sload\n  not(sub(shl(0xa0, 0x01), 0x01))\n  and\n    /* \"stakingpool.sol\":151:161  msg.sender */\n  caller\n    /* \"stakingpool.sol\":141:161  creator = msg.sender */\n  or\n  swap1\n  sstore\n    /* \"stakingpool.sol\":61:214  contract Staking {... */\n  dataSize(sub_0)\n  dup1\n  dataOffset(sub_0)\n  0x00\n  codecopy\n  0x00\n  return\nstop\n\nsub_0: assembly {\n        /* \"stakingpool.sol\":61:214  contract Staking {... */\n      mstore(0x40, 0x80)\n      jumpi(tag_1, lt(calldatasize, 0x04))\n      shr(0xe0, calldataload(0x00))\n      dup1\n      0x02d05d3f\n      eq\n      tag_2\n      jumpi\n      dup1\n      0x3a4b66f1\n      eq\n      tag_3\n      jumpi\n    tag_1:\n      0x00\n      dup1\n      revert\n        /* \"stakingpool.sol\":85:107  address public creator */\n    tag_2:\n      callvalue\n      dup1\n      iszero\n      tag_4\n      jumpi\n      0x00\n      dup1\n      revert\n    tag_4:\n      pop\n      sload(0x00)\n      tag_5\n      swap1\n      sub(shl(0xa0, 0x01), 0x01)\n      and\n      dup2\n      jump\n    tag_5:\n      mload(0x40)\n      sub(shl(0xa0, 0x01), 0x01)\n        /* \"#utility.yul\":178:210   */\n      swap1\n      swap2\n      and\n        /* \"#utility.yul\":160:211   */\n      dup2\n      mstore\n        /* \"#utility.yul\":148:150   */\n      0x20\n        /* \"#utility.yul\":133:151   */\n      add\n        /* \"stakingpool.sol\":85:107  address public creator */\n      mload(0x40)\n      dup1\n      swap2\n      sub\n      swap1\n      return\n        /* \"stakingpool.sol\":177:211  function stake() public payable {} */\n    tag_3:\n      stop\n\n    auxdata: 0xa26469706673582212206c447a63102cb75254d7f381015945f5dfcdbb7ee6f0c1cb63f73273fbc3e0af64736f6c634300081a0033\n}\n",
				"bytecode": {
					"linkReferences": {},
					"object": "6080604052348015600e575f80fd5b505f80546001600160a01b03191633179055609980602b5f395ff3fe6080604052600436106025575f3560e01c806302d05d3f1460295780633a4b66f1146061575b5f80fd5b3480156033575f80fd5b505f546045906001600160a01b031681565b6040516001600160a01b03909116815260200160405180910390f35b00fea26469706673582212206c447a63102cb75254d7f381015945f5dfcdbb7ee6f0c1cb63f73273fbc3e0af64736f6c634300081a0033",
					"opcodes": "PUSH1 0x80 PUSH1 0x40 MSTORE CALLVALUE DUP1 ISZERO PUSH1 0xE JUMPI PUSH0 DUP1 REVERT JUMPDEST POP PUSH0 DUP1 SLOAD PUSH1 0x1 PUSH1 0x1 PUSH1 0xA0 SHL SUB NOT AND CALLER OR SWAP1 SSTORE PUSH1 0x99 DUP1 PUSH1 0x2B PUSH0 CODECOPY PUSH0 RETURN INVALID PUSH1 0x80 PUSH1 0x40 MSTORE PUSH1 0x4 CALLDATASIZE LT PUSH1 0x25 JUMPI PUSH0 CALLDATALOAD PUSH1 0xE0 SHR DUP1 PUSH4 0x2D05D3F EQ PUSH1 0x29 JUMPI DUP1 PUSH4 0x3A4B66F1 EQ PUSH1 0x61 JUMPI JUMPDEST PUSH0 DUP1 REVERT JUMPDEST CALLVALUE DUP1 ISZERO PUSH1 0x33 JUMPI PUSH0 DUP1 REVERT JUMPDEST POP PUSH0 SLOAD PUSH1 0x45 SWAP1 PUSH1 0x1 PUSH1 0x1 PUSH1 0xA0 SHL SUB AND DUP2 JUMP JUMPDEST PUSH1 0x40 MLOAD PUSH1 0x1 PUSH1 0x1 PUSH1 0xA0 SHL SUB SWAP1 SWAP2 AND DUP2 MSTORE PUSH1 0x20 ADD PUSH1 0x40 MLOAD DUP1 SWAP2 SUB SWAP1 RETURN JUMPDEST STOP INVALID LOG2 PUSH5 0x6970667358 0x22 SLT KECCAK256 PUSH13 0x447A63102CB75254D7F3810159 GASLIMIT CREATE2 0xDF 0xCD 0xBB PUSH31 0xE6F0C1CB63F73273FBC3E0AF64736F6C634300081A00330000000000000000 "
				},
				"gasEstimates": {
					"creation": {
						"codeDepositCost": "30600",
						"executionCost": "24313",
						"totalCost": "54913"
					},
					"external": {
						"creator()": "2301",
						"stake()": "95"
					}
				},
				"methodIdentifiers": {
					"creator()": "02d05d3f",
					"stake()": "3a4b66f1"
				}
			},
			"storageLayout": {
				"storage": [
					{
						"astId": 3,
						"contract": "stakingpool.sol:Staking",
						"label": "creator",
						"offset": 0,
						"slot": "0",
						"type": "t_address"
					}
				],
				"types": {
					"t_address": {
						"encoding": "inplace",
						"label": "address",
						"numberOfBytes": "20"
					}
				}
			},
			"userdoc": {
				"kind": "user",
				"methods": {},
				"version": 1
			}
		}
	}
}