{
	"dao.sol": {
		"DAO": {
			"abi": [
				{
					"inputs": [
						{
							"internalType": "string",
							"name": "_name",
							"type": "string"
						}
					],
					"stateMutability": "nonpayable",
					"type": "constructor"
				},
				{
					"inputs": [
						{
							"internalType": "address",
							"name": "member",
							"type": "address"
						}
					],
					"name": "addMember",
					"outputs": [],
					"stateMutability": "nonpayable",
					"type": "function"
				},
				{
					"inputs": [
						{
							"internalType": "string",
							"name": "desc",
							"type": "string"
						}
					],
					"name": "createProposal",
					"outputs": [],
					"stateMutability": "nonpayable",
					"type": "function"
				},
				{
					"inputs": [
						{
							"internalType": "uint256",
							"name": "index",
							"type": "uint256"
						}
					],
					"name": "execute",
					"outputs": [],
					"stateMutability": "nonpayable",
					"type": "function"
				},
				{
					"inputs": [
						{
							"internalType": "address",
							"name": "",
							"type": "address"
						}
					],
					"name": "members",
					"outputs": [
						{
							"internalType": "bool",
							"name": "",
							"type": "bool"
						}
					],
					"stateMutability": "view",
					"type": "function"
				},
				{
					"inputs": [],
					"name": "name",
					"outputs": [
						{
							"internalType": "string",
							"name": "",
							"type": "string"
						}
					],
					"stateMutability": "view",
					"type": "function"
				},
				{
					"inputs": [],
					"name": "owner",
					"outputs": [
						{
							"internalType": "address",
							"name": "",
							"type": "address"
						}
					],
					"stateMutability": "view",
					"type": "function"
				},
				{
					"inputs": [
						{
							"internalType": "uint256",
							"name": "",
							"type": "uint256"
						}
					],
					"name": "proposals",
					"outputs": [
						{
							"internalType": "string",
							"name": "description",
							"type": "string"
						},
						{
							"internalType": "uint256",
							"name": "yesVotes",
							"type": "uint256"
						},
						{
							"internalType": "uint256",
							"name": "noVotes",
							"type": "uint256"
						},
						{
							"internalType": "bool",
							"name": "executed",
							"type": "bool"
						}
					],
					"stateMutability": "view",
					"type": "function"
				},
				{
					"inputs": [
						{
							"internalType": "uint256",
							"name": "index",
							"type": "uint256"
						},
						{
							"internalType": "bool",
							"name": "support",
							"type": "bool"
						}
					],
					"name": "vote",
					"outputs": [],
					"stateMutability": "nonpayable",
					"type": "function"
				}
			],
			"devdoc": {
				"kind": "dev",
				"methods": {},
				"version": 1
			},
			"evm": {
				"assembly": "    /* \"dao.sol\":61:1355  contract DAO {... */\n  mstore(0x40, 0x80)\n    /* \"dao.sol\":349:474  constructor(string memory _name) {... */\n  callvalue\n  dup1\n  iszero\n  tag_1\n  jumpi\n  0x00\n  dup1\n  revert\ntag_1:\n  pop\n  mload(0x40)\n  sub(codesize, bytecodeSize)\n  dup1\n  bytecodeSize\n  dup4\n  codecopy\n  dup2\n  add\n  0x40\n  dup2\n  swap1\n  mstore\n  tag_2\n  swap2\n  tag_3\n  jump\t// in\ntag_2:\n    /* \"dao.sol\":393:397  name */\n  0x00\n    /* \"dao.sol\":393:405  name = _name */\n  tag_6\n    /* \"dao.sol\":400:405  _name */\n  dup3\n    /* \"dao.sol\":393:397  name */\n  dup3\n    /* \"dao.sol\":393:405  name = _name */\n  tag_7\n  jump\t// in\ntag_6:\n  pop\n  pop\n    /* \"dao.sol\":416:421  owner */\n  0x01\n    /* \"dao.sol\":416:434  owner = msg.sender */\n  dup1\n  sload\n  not(sub(shl(0xa0, 0x01), 0x01))\n  and\n    /* \"dao.sol\":424:434  msg.sender */\n  caller\n    /* \"dao.sol\":416:434  owner = msg.sender */\n  swap1\n  dup2\n  or\n  dup3\n  sstore\n    /* \"dao.sol\":416:421  owner */\n  0x00\n    /* \"dao.sol\":445:459  members[owner] */\n  swap1\n  dup2\n  mstore\n    /* \"dao.sol\":445:452  members */\n  0x02\n    /* \"dao.sol\":445:459  members[owner] */\n  0x20\n  mstore\n  0x40\n  swap1\n  keccak256\n    /* \"dao.sol\":445:466  members[owner] = true */\n  dup1\n  sload\n  not(0xff)\n  and\n  swap1\n  swap2\n  or\n  swap1\n  sstore\n    /* \"dao.sol\":61:1355  contract DAO {... */\n  jump(tag_14)\n    /* \"#utility.yul\":14:141   */\ntag_9:\n    /* \"#utility.yul\":75:85   */\n  0x4e487b71\n    /* \"#utility.yul\":70:73   */\n  0xe0\n    /* \"#utility.yul\":66:86   */\n  shl\n    /* \"#utility.yul\":63:64   */\n  0x00\n    /* \"#utility.yul\":56:87   */\n  mstore\n    /* \"#utility.yul\":106:110   */\n  0x41\n    /* \"#utility.yul\":103:104   */\n  0x04\n    /* \"#utility.yul\":96:111   */\n  mstore\n    /* \"#utility.yul\":130:134   */\n  0x24\n    /* \"#utility.yul\":127:128   */\n  0x00\n    /* \"#utility.yul\":120:135   */\n  revert\n    /* \"#utility.yul\":146:1081   */\ntag_3:\n    /* \"#utility.yul\":226:232   */\n  0x00\n    /* \"#utility.yul\":279:281   */\n  0x20\n    /* \"#utility.yul\":267:276   */\n  dup3\n    /* \"#utility.yul\":258:265   */\n  dup5\n    /* \"#utility.yul\":254:277   */\n  sub\n    /* \"#utility.yul\":250:282   */\n  slt\n    /* \"#utility.yul\":247:299   */\n  iszero\n  tag_17\n  jumpi\n    /* \"#utility.yul\":295:296   */\n  0x00\n    /* \"#utility.yul\":292:293   */\n  dup1\n    /* \"#utility.yul\":285:297   */\n  revert\n    /* \"#utility.yul\":247:299   */\ntag_17:\n    /* \"#utility.yul\":322:338   */\n  dup2\n  mload\n  sub(shl(0x40, 0x01), 0x01)\n    /* \"#utility.yul\":350:380   */\n  dup2\n  gt\n    /* \"#utility.yul\":347:397   */\n  iszero\n  tag_18\n  jumpi\n    /* \"#utility.yul\":393:394   */\n  0x00\n    /* \"#utility.yul\":390:391   */\n  dup1\n    /* \"#utility.yul\":383:395   */\n  revert\n    /* \"#utility.yul\":347:397   */\ntag_18:\n    /* \"#utility.yul\":416:438   */\n  dup3\n  add\n    /* \"#utility.yul\":469:473   */\n  0x1f\n    /* \"#utility.yul\":461:474   */\n  dup2\n  add\n    /* \"#utility.yul\":457:484   */\n  dup5\n  sgt\n    /* \"#utility.yul\":447:502   */\n  tag_19\n  jumpi\n    /* \"#utility.yul\":498:499   */\n  0x00\n    /* \"#utility.yul\":495:496   */\n  dup1\n    /* \"#utility.yul\":488:500   */\n  revert\n    /* \"#utility.yul\":447:502   */\ntag_19:\n    /* \"#utility.yul\":525:534   */\n  dup1\n  mload\n  sub(shl(0x40, 0x01), 0x01)\n    /* \"#utility.yul\":546:576   */\n  dup2\n  gt\n    /* \"#utility.yul\":543:599   */\n  iszero\n  tag_21\n  jumpi\n    /* \"#utility.yul\":579:597   */\n  tag_21\n  tag_9\n  jump\t// in\ntag_21:\n    /* \"#utility.yul\":628:630   */\n  0x40\n    /* \"#utility.yul\":622:631   */\n  mload\n    /* \"#utility.yul\":720:722   */\n  0x1f\n    /* \"#utility.yul\":682:699   */\n  dup3\n  add\n  not(0x1f)\n    /* \"#utility.yul\":678:709   */\n  swap1\n  dup2\n  and\n    /* \"#utility.yul\":711:713   */\n  0x3f\n    /* \"#utility.yul\":674:714   */\n  add\n    /* \"#utility.yul\":670:724   */\n  and\n    /* \"#utility.yul\":658:725   */\n  dup2\n  add\n  sub(shl(0x40, 0x01), 0x01)\n    /* \"#utility.yul\":740:774   */\n  dup2\n  gt\n    /* \"#utility.yul\":776:798   */\n  dup3\n  dup3\n  lt\n    /* \"#utility.yul\":737:799   */\n  or\n    /* \"#utility.yul\":734:822   */\n  iszero\n  tag_23\n  jumpi\n    /* \"#utility.yul\":802:820   */\n  tag_23\n  tag_9\n  jump\t// in\ntag_23:\n    /* \"#utility.yul\":838:840   */\n  0x40\n    /* \"#utility.yul\":831:853   */\n  mstore\n    /* \"#utility.yul\":862:884   */\n  dup2\n  dup2\n  mstore\n    /* \"#utility.yul\":903:918   */\n  dup3\n  dup3\n  add\n    /* \"#utility.yul\":920:922   */\n  0x20\n    /* \"#utility.yul\":899:923   */\n  add\n    /* \"#utility.yul\":896:933   */\n  dup7\n  lt\n    /* \"#utility.yul\":893:950   */\n  iszero\n  tag_24\n  jumpi\n    /* \"#utility.yul\":946:947   */\n  0x00\n    /* \"#utility.yul\":943:944   */\n  dup1\n    /* \"#utility.yul\":936:948   */\n  revert\n    /* \"#utility.yul\":893:950   */\ntag_24:\n    /* \"#utility.yul\":995:1001   */\n  dup2\n    /* \"#utility.yul\":990:992   */\n  0x20\n    /* \"#utility.yul\":986:988   */\n  dup5\n    /* \"#utility.yul\":982:993   */\n  add\n    /* \"#utility.yul\":977:979   */\n  0x20\n    /* \"#utility.yul\":969:975   */\n  dup4\n    /* \"#utility.yul\":965:980   */\n  add\n    /* \"#utility.yul\":959:1002   */\n  mcopy\n    /* \"#utility.yul\":1048:1049   */\n  0x00\n    /* \"#utility.yul\":1022:1041   */\n  swap2\n  dup2\n  add\n    /* \"#utility.yul\":1043:1045   */\n  0x20\n    /* \"#utility.yul\":1018:1046   */\n  add\n    /* \"#utility.yul\":1011:1050   */\n  swap2\n  swap1\n  swap2\n  mstore\n    /* \"#utility.yul\":1026:1032   */\n  swap5\n    /* \"#utility.yul\":146:1081   */\n  swap4\n  pop\n  pop\n  pop\n  pop\n  jump\t// out\n    /* \"#utility.yul\":1086:1466   */\ntag_10:\n    /* \"#utility.yul\":1165:1166   */\n  0x01\n    /* \"#utility.yul\":1161:1173   */\n  dup2\n  dup2\n  shr\n  swap1\n    /* \"#utility.yul\":1208:1220   */\n  dup3\n  and\n  dup1\n    /* \"#utility.yul\":1229:1290   */\n  tag_26\n  jumpi\n    /* \"#utility.yul\":1283:1287   */\n  0x7f\n    /* \"#utility.yul\":1275:1281   */\n  dup3\n    /* \"#utility.yul\":1271:1288   */\n  and\n    /* \"#utility.yul\":1261:1288   */\n  swap2\n  pop\n    /* \"#utility.yul\":1229:1290   */\ntag_26:\n    /* \"#utility.yul\":1336:1338   */\n  0x20\n    /* \"#utility.yul\":1328:1334   */\n  dup3\n    /* \"#utility.yul\":1325:1339   */\n  lt\n    /* \"#utility.yul\":1305:1323   */\n  dup2\n    /* \"#utility.yul\":1302:1340   */\n  sub\n    /* \"#utility.yul\":1299:1460   */\n  tag_27\n  jumpi\n    /* \"#utility.yul\":1382:1392   */\n  0x4e487b71\n    /* \"#utility.yul\":1377:1380   */\n  0xe0\n    /* \"#utility.yul\":1373:1393   */\n  shl\n    /* \"#utility.yul\":1370:1371   */\n  0x00\n    /* \"#utility.yul\":1363:1394   */\n  mstore\n    /* \"#utility.yul\":1417:1421   */\n  0x22\n    /* \"#utility.yul\":1414:1415   */\n  0x04\n    /* \"#utility.yul\":1407:1422   */\n  mstore\n    /* \"#utility.yul\":1445:1449   */\n  0x24\n    /* \"#utility.yul\":1442:1443   */\n  0x00\n    /* \"#utility.yul\":1435:1450   */\n  revert\n    /* \"#utility.yul\":1299:1460   */\ntag_27:\n  pop\n    /* \"#utility.yul\":1086:1466   */\n  swap2\n  swap1\n  pop\n  jump\t// out\n    /* \"#utility.yul\":1597:2115   */\ntag_12:\n    /* \"#utility.yul\":1699:1701   */\n  0x1f\n    /* \"#utility.yul\":1694:1697   */\n  dup3\n    /* \"#utility.yul\":1691:1702   */\n  gt\n    /* \"#utility.yul\":1688:2109   */\n  iszero\n  tag_30\n  jumpi\n    /* \"#utility.yul\":1735:1740   */\n  dup1\n    /* \"#utility.yul\":1732:1733   */\n  0x00\n    /* \"#utility.yul\":1725:1741   */\n  mstore\n    /* \"#utility.yul\":1779:1783   */\n  0x20\n    /* \"#utility.yul\":1776:1777   */\n  0x00\n    /* \"#utility.yul\":1766:1784   */\n  keccak256\n    /* \"#utility.yul\":1849:1851   */\n  0x1f\n    /* \"#utility.yul\":1837:1847   */\n  dup5\n    /* \"#utility.yul\":1833:1852   */\n  add\n    /* \"#utility.yul\":1830:1831   */\n  0x05\n    /* \"#utility.yul\":1826:1853   */\n  shr\n    /* \"#utility.yul\":1820:1824   */\n  dup2\n    /* \"#utility.yul\":1816:1854   */\n  add\n    /* \"#utility.yul\":1885:1889   */\n  0x20\n    /* \"#utility.yul\":1873:1883   */\n  dup6\n    /* \"#utility.yul\":1870:1890   */\n  lt\n    /* \"#utility.yul\":1867:1914   */\n  iszero\n  tag_31\n  jumpi\n  pop\n    /* \"#utility.yul\":1908:1912   */\n  dup1\n    /* \"#utility.yul\":1867:1914   */\ntag_31:\n    /* \"#utility.yul\":1963:1965   */\n  0x1f\n    /* \"#utility.yul\":1958:1961   */\n  dup5\n    /* \"#utility.yul\":1954:1966   */\n  add\n    /* \"#utility.yul\":1951:1952   */\n  0x05\n    /* \"#utility.yul\":1947:1967   */\n  shr\n    /* \"#utility.yul\":1941:1945   */\n  dup3\n    /* \"#utility.yul\":1937:1968   */\n  add\n    /* \"#utility.yul\":1927:1968   */\n  swap2\n  pop\n    /* \"#utility.yul\":2018:2099   */\ntag_32:\n    /* \"#utility.yul\":2036:2038   */\n  dup2\n    /* \"#utility.yul\":2029:2034   */\n  dup2\n    /* \"#utility.yul\":2026:2039   */\n  lt\n    /* \"#utility.yul\":2018:2099   */\n  iszero\n  tag_34\n  jumpi\n    /* \"#utility.yul\":2095:2096   */\n  0x00\n    /* \"#utility.yul\":2081:2097   */\n  dup2\n  sstore\n    /* \"#utility.yul\":2062:2063   */\n  0x01\n    /* \"#utility.yul\":2051:2064   */\n  add\n    /* \"#utility.yul\":2018:2099   */\n  jump(tag_32)\ntag_34:\n    /* \"#utility.yul\":2022:2025   */\n  pop\n  pop\n    /* \"#utility.yul\":1688:2109   */\ntag_30:\n    /* \"#utility.yul\":1597:2115   */\n  pop\n  pop\n  pop\n  jump\t// out\n    /* \"#utility.yul\":2291:3590   */\ntag_7:\n    /* \"#utility.yul\":2411:2421   */\n  dup2\n  mload\n  sub(shl(0x40, 0x01), 0x01)\n    /* \"#utility.yul\":2433:2463   */\n  dup2\n  gt\n    /* \"#utility.yul\":2430:2486   */\n  iszero\n  tag_38\n  jumpi\n    /* \"#utility.yul\":2466:2484   */\n  tag_38\n  tag_9\n  jump\t// in\ntag_38:\n    /* \"#utility.yul\":2495:2592   */\n  tag_39\n    /* \"#utility.yul\":2585:2591   */\n  dup2\n    /* \"#utility.yul\":2545:2583   */\n  tag_40\n    /* \"#utility.yul\":2577:2581   */\n  dup5\n    /* \"#utility.yul\":2571:2582   */\n  sload\n    /* \"#utility.yul\":2545:2583   */\n  tag_10\n  jump\t// in\ntag_40:\n    /* \"#utility.yul\":2539:2543   */\n  dup5\n    /* \"#utility.yul\":2495:2592   */\n  tag_12\n  jump\t// in\ntag_39:\n    /* \"#utility.yul\":2641:2645   */\n  0x20\n    /* \"#utility.yul\":2672:2674   */\n  0x1f\n    /* \"#utility.yul\":2661:2675   */\n  dup3\n  gt\n    /* \"#utility.yul\":2689:2690   */\n  0x01\n    /* \"#utility.yul\":2684:3333   */\n  dup2\n  eq\n  tag_42\n  jumpi\n    /* \"#utility.yul\":3377:3378   */\n  0x00\n    /* \"#utility.yul\":3394:3400   */\n  dup4\n    /* \"#utility.yul\":3391:3480   */\n  iszero\n  tag_43\n  jumpi\n  pop\n    /* \"#utility.yul\":3446:3465   */\n  dup5\n  dup3\n  add\n    /* \"#utility.yul\":3440:3466   */\n  mload\n    /* \"#utility.yul\":3391:3480   */\ntag_43:\n  not(0x00)\n    /* \"#utility.yul\":2248:2249   */\n  0x03\n    /* \"#utility.yul\":2244:2255   */\n  dup6\n  swap1\n  shl\n    /* \"#utility.yul\":2240:2264   */\n  shr\n    /* \"#utility.yul\":2236:2265   */\n  not\n    /* \"#utility.yul\":2226:2266   */\n  and\n    /* \"#utility.yul\":2272:2273   */\n  0x01\n    /* \"#utility.yul\":2268:2279   */\n  dup5\n  swap1\n  shl\n    /* \"#utility.yul\":2223:2280   */\n  or\n    /* \"#utility.yul\":3493:3574   */\n  dup5\n  sstore\n    /* \"#utility.yul\":2654:3584   */\n  jump(tag_34)\n    /* \"#utility.yul\":2684:3333   */\ntag_42:\n    /* \"#utility.yul\":1544:1545   */\n  0x00\n    /* \"#utility.yul\":1537:1551   */\n  dup5\n  dup2\n  mstore\n    /* \"#utility.yul\":1581:1585   */\n  0x20\n    /* \"#utility.yul\":1568:1586   */\n  dup2\n  keccak256\n  not(0x1f)\n    /* \"#utility.yul\":2720:2740   */\n  dup6\n  and\n  swap2\n    /* \"#utility.yul\":2838:3060   */\ntag_46:\n    /* \"#utility.yul\":2852:2859   */\n  dup3\n    /* \"#utility.yul\":2849:2850   */\n  dup2\n    /* \"#utility.yul\":2846:2860   */\n  lt\n    /* \"#utility.yul\":2838:3060   */\n  iszero\n  tag_48\n  jumpi\n    /* \"#utility.yul\":2934:2953   */\n  dup8\n  dup6\n  add\n    /* \"#utility.yul\":2928:2954   */\n  mload\n    /* \"#utility.yul\":2913:2955   */\n  dup3\n  sstore\n    /* \"#utility.yul\":3041:3045   */\n  0x20\n    /* \"#utility.yul\":3026:3046   */\n  swap5\n  dup6\n  add\n  swap5\n    /* \"#utility.yul\":2994:2995   */\n  0x01\n    /* \"#utility.yul\":2982:2996   */\n  swap1\n  swap3\n  add\n  swap2\n    /* \"#utility.yul\":2868:2880   */\n  add\n    /* \"#utility.yul\":2838:3060   */\n  jump(tag_46)\ntag_48:\n    /* \"#utility.yul\":2842:2845   */\n  pop\n    /* \"#utility.yul\":3088:3094   */\n  dup5\n    /* \"#utility.yul\":3079:3086   */\n  dup3\n    /* \"#utility.yul\":3076:3095   */\n  lt\n    /* \"#utility.yul\":3073:3274   */\n  iszero\n  tag_49\n  jumpi\n    /* \"#utility.yul\":3149:3168   */\n  dup7\n  dup5\n  add\n    /* \"#utility.yul\":3143:3169   */\n  mload\n  not(0x00)\n    /* \"#utility.yul\":3232:3233   */\n  0x03\n    /* \"#utility.yul\":3228:3242   */\n  dup8\n  swap1\n  shl\n    /* \"#utility.yul\":3244:3247   */\n  0xf8\n    /* \"#utility.yul\":3224:3248   */\n  and\n    /* \"#utility.yul\":3220:3257   */\n  shr\n    /* \"#utility.yul\":3216:3258   */\n  not\n    /* \"#utility.yul\":3201:3259   */\n  and\n    /* \"#utility.yul\":3186:3260   */\n  dup2\n  sstore\n    /* \"#utility.yul\":3073:3274   */\ntag_49:\n  pop\n  pop\n  pop\n  pop\n    /* \"#utility.yul\":3320:3321   */\n  0x01\n    /* \"#utility.yul\":3304:3318   */\n  swap1\n  dup2\n  shl\n    /* \"#utility.yul\":3300:3322   */\n  add\n    /* \"#utility.yul\":3287:3323   */\n  swap1\n  sstore\n  pop\n    /* \"#utility.yul\":2291:3590   */\n  jump\t// out\ntag_14:\n    /* \"dao.sol\":61:1355  contract DAO {... */\n  dataSize(sub_0)\n  dup1\n  dataOffset(sub_0)\n  0x00\n  codecopy\n  0x00\n  return\nstop\n\nsub_0: assembly {\n        /* \"dao.sol\":61:1355  contract DAO {... */\n      mstore(0x40, 0x80)\n      callvalue\n      dup1\n      iszero\n      tag_1\n      jumpi\n      0x00\n      dup1\n      revert\n    tag_1:\n      pop\n      jumpi(tag_2, lt(calldatasize, 0x04))\n      shr(0xe0, calldataload(0x00))\n      dup1\n      0x8da5cb5b\n      gt\n      tag_11\n      jumpi\n      dup1\n      0x8da5cb5b\n      eq\n      tag_7\n      jumpi\n      dup1\n      0xc9d27afe\n      eq\n      tag_8\n      jumpi\n      dup1\n      0xca6d56dc\n      eq\n      tag_9\n      jumpi\n      dup1\n      0xfe0d94c1\n      eq\n      tag_10\n      jumpi\n      0x00\n      dup1\n      revert\n    tag_11:\n      dup1\n      0x013cf08b\n      eq\n      tag_3\n      jumpi\n      dup1\n      0x06fdde03\n      eq\n      tag_4\n      jumpi\n      dup1\n      0x08ae4b0c\n      eq\n      tag_5\n      jumpi\n      dup1\n      0x49c2a1a6\n      eq\n      tag_6\n      jumpi\n    tag_2:\n      0x00\n      dup1\n      revert\n        /* \"dao.sol\":313:340  Proposal[] public proposals */\n    tag_3:\n      tag_12\n      tag_13\n      calldatasize\n      0x04\n      tag_14\n      jump\t// in\n    tag_13:\n      tag_15\n      jump\t// in\n    tag_12:\n      mload(0x40)\n      tag_16\n      swap5\n      swap4\n      swap3\n      swap2\n      swap1\n      tag_17\n      jump\t// in\n    tag_16:\n      mload(0x40)\n      dup1\n      swap2\n      sub\n      swap1\n      return\n        /* \"dao.sol\":81:99  string public name */\n    tag_4:\n      tag_18\n      tag_19\n      jump\t// in\n    tag_18:\n      mload(0x40)\n      tag_16\n      swap2\n      swap1\n      tag_21\n      jump\t// in\n        /* \"dao.sol\":133:172  mapping(address => bool) public members */\n    tag_5:\n      tag_22\n      tag_23\n      calldatasize\n      0x04\n      tag_24\n      jump\t// in\n    tag_23:\n      mstore(0x20, 0x02)\n      0x00\n      swap1\n      dup2\n      mstore\n      0x40\n      swap1\n      keccak256\n      sload\n      0xff\n      and\n      dup2\n      jump\n    tag_22:\n      mload(0x40)\n        /* \"#utility.yul\":1670:1684   */\n      swap1\n      iszero\n        /* \"#utility.yul\":1663:1685   */\n      iszero\n        /* \"#utility.yul\":1645:1686   */\n      dup2\n      mstore\n        /* \"#utility.yul\":1633:1635   */\n      0x20\n        /* \"#utility.yul\":1618:1636   */\n      add\n        /* \"dao.sol\":133:172  mapping(address => bool) public members */\n      tag_16\n        /* \"#utility.yul\":1505:1692   */\n      jump\n        /* \"dao.sol\":626:794  function createProposal(string memory desc) public {... */\n    tag_6:\n      tag_28\n      tag_29\n      calldatasize\n      0x04\n      tag_30\n      jump\t// in\n    tag_29:\n      tag_31\n      jump\t// in\n    tag_28:\n      stop\n        /* \"dao.sol\":106:126  address public owner */\n    tag_7:\n      sload(0x01)\n      tag_32\n      swap1\n      sub(shl(0xa0, 0x01), 0x01)\n      and\n      dup2\n      jump\n    tag_32:\n      mload(0x40)\n      sub(shl(0xa0, 0x01), 0x01)\n        /* \"#utility.yul\":2943:2975   */\n      swap1\n      swap2\n      and\n        /* \"#utility.yul\":2925:2976   */\n      dup2\n      mstore\n        /* \"#utility.yul\":2913:2915   */\n      0x20\n        /* \"#utility.yul\":2898:2916   */\n      add\n        /* \"dao.sol\":106:126  address public owner */\n      tag_16\n        /* \"#utility.yul\":2779:2982   */\n      jump\n        /* \"dao.sol\":802:1076  function vote(uint index, bool support) public {... */\n    tag_8:\n      tag_28\n      tag_37\n      calldatasize\n      0x04\n      tag_38\n      jump\t// in\n    tag_37:\n      tag_39\n      jump\t// in\n        /* \"dao.sol\":482:618  function addMember(address member) public {... */\n    tag_9:\n      tag_28\n      tag_41\n      calldatasize\n      0x04\n      tag_24\n      jump\t// in\n    tag_41:\n      tag_42\n      jump\t// in\n        /* \"dao.sol\":1084:1352  function execute(uint index) public {... */\n    tag_10:\n      tag_28\n      tag_44\n      calldatasize\n      0x04\n      tag_14\n      jump\t// in\n    tag_44:\n      tag_45\n      jump\t// in\n        /* \"dao.sol\":313:340  Proposal[] public proposals */\n    tag_15:\n      0x03\n      dup2\n      dup2\n      sload\n      dup2\n      lt\n      tag_46\n      jumpi\n      0x00\n      dup1\n      revert\n    tag_46:\n      swap1\n      0x00\n      mstore\n      keccak256(0x00, 0x20)\n      swap1\n      0x04\n      mul\n      add\n      0x00\n      swap2\n      pop\n      swap1\n      pop\n      dup1\n      0x00\n      add\n      dup1\n      sload\n      tag_48\n      swap1\n      tag_49\n      jump\t// in\n    tag_48:\n      dup1\n      0x1f\n      add\n      0x20\n      dup1\n      swap2\n      div\n      mul\n      0x20\n      add\n      mload(0x40)\n      swap1\n      dup2\n      add\n      0x40\n      mstore\n      dup1\n      swap3\n      swap2\n      swap1\n      dup2\n      dup2\n      mstore\n      0x20\n      add\n      dup3\n      dup1\n      sload\n      tag_50\n      swap1\n      tag_49\n      jump\t// in\n    tag_50:\n      dup1\n      iszero\n      tag_51\n      jumpi\n      dup1\n      0x1f\n      lt\n      tag_52\n      jumpi\n      0x0100\n      dup1\n      dup4\n      sload\n      div\n      mul\n      dup4\n      mstore\n      swap2\n      0x20\n      add\n      swap2\n      jump(tag_51)\n    tag_52:\n      dup3\n      add\n      swap2\n      swap1\n      0x00\n      mstore\n      keccak256(0x00, 0x20)\n      swap1\n    tag_53:\n      dup2\n      sload\n      dup2\n      mstore\n      swap1\n      0x01\n      add\n      swap1\n      0x20\n      add\n      dup1\n      dup4\n      gt\n      tag_53\n      jumpi\n      dup3\n      swap1\n      sub\n      0x1f\n      and\n      dup3\n      add\n      swap2\n    tag_51:\n      pop\n      pop\n      pop\n      pop\n      0x01\n      dup4\n      add\n      sload\n      0x02\n      dup5\n      add\n      sload\n      0x03\n      swap1\n      swap5\n      add\n      sload\n      swap3\n      swap4\n      swap1\n      swap3\n      swap1\n      swap2\n      pop\n      0xff\n      and\n      dup5\n      jump\t// out\n        /* \"dao.sol\":81:99  string public name */\n    tag_19:\n      0x00\n      dup1\n      sload\n      tag_54\n      swap1\n      tag_49\n      jump\t// in\n    tag_54:\n      dup1\n      0x1f\n      add\n      0x20\n      dup1\n      swap2\n      div\n      mul\n      0x20\n      add\n      mload(0x40)\n      swap1\n      dup2\n      add\n      0x40\n      mstore\n      dup1\n      swap3\n      swap2\n      swap1\n      dup2\n      dup2\n      mstore\n      0x20\n      add\n      dup3\n      dup1\n      sload\n      tag_55\n      swap1\n      tag_49\n      jump\t// in\n    tag_55:\n      dup1\n      iszero\n      tag_56\n      jumpi\n      dup1\n      0x1f\n      lt\n      tag_57\n      jumpi\n      0x0100\n      dup1\n      dup4\n      sload\n      div\n      mul\n      dup4\n      mstore\n      swap2\n      0x20\n      add\n      swap2\n      jump(tag_56)\n    tag_57:\n      dup3\n      add\n      swap2\n      swap1\n      0x00\n      mstore\n      keccak256(0x00, 0x20)\n      swap1\n    tag_58:\n      dup2\n      sload\n      dup2\n      mstore\n      swap1\n      0x01\n      add\n      swap1\n      0x20\n      add\n      dup1\n      dup4\n      gt\n      tag_58\n      jumpi\n      dup3\n      swap1\n      sub\n      0x1f\n      and\n      dup3\n      add\n      swap2\n    tag_56:\n      pop\n      pop\n      pop\n      pop\n      pop\n      dup2\n      jump\t// out\n        /* \"dao.sol\":626:794  function createProposal(string memory desc) public {... */\n    tag_31:\n        /* \"dao.sol\":704:714  msg.sender */\n      caller\n        /* \"dao.sol\":696:715  members[msg.sender] */\n      0x00\n      swap1\n      dup2\n      mstore\n        /* \"dao.sol\":696:703  members */\n      0x02\n        /* \"dao.sol\":696:715  members[msg.sender] */\n      0x20\n      mstore\n      0x40\n      swap1\n      keccak256\n      sload\n      0xff\n      and\n        /* \"dao.sol\":688:732  require(members[msg.sender], \"Not a member\") */\n      tag_60\n      jumpi\n      mload(0x40)\n      shl(0xe5, 0x461bcd)\n      dup2\n      mstore\n        /* \"#utility.yul\":3974:3976   */\n      0x20\n        /* \"dao.sol\":688:732  require(members[msg.sender], \"Not a member\") */\n      0x04\n      dup3\n      add\n        /* \"#utility.yul\":3956:3977   */\n      mstore\n        /* \"#utility.yul\":4013:4015   */\n      0x0c\n        /* \"#utility.yul\":3993:4011   */\n      0x24\n      dup3\n      add\n        /* \"#utility.yul\":3986:4016   */\n      mstore\n      shl(0xa1, 0x2737ba10309036b2b6b132b9)\n        /* \"#utility.yul\":4032:4050   */\n      0x44\n      dup3\n      add\n        /* \"#utility.yul\":4025:4067   */\n      mstore\n        /* \"#utility.yul\":4084:4102   */\n      0x64\n      add\n        /* \"dao.sol\":688:732  require(members[msg.sender], \"Not a member\") */\n    tag_61:\n      mload(0x40)\n      dup1\n      swap2\n      sub\n      swap1\n      revert\n    tag_60:\n        /* \"dao.sol\":758:785  Proposal(desc, 0, 0, false) */\n      0x40\n      dup1\n      mload\n      0x80\n      dup2\n      add\n      dup3\n      mstore\n      dup3\n      dup2\n      mstore\n      0x00\n      0x20\n      dup3\n      add\n      dup2\n      swap1\n      mstore\n      swap2\n      dup2\n      add\n      dup3\n      swap1\n      mstore\n      0x60\n      dup2\n      add\n      dup3\n      swap1\n      mstore\n        /* \"dao.sol\":743:752  proposals */\n      0x03\n        /* \"dao.sol\":743:786  proposals.push(Proposal(desc, 0, 0, false)) */\n      dup1\n      sload\n        /* \"dao.sol\":758:785  Proposal(desc, 0, 0, false) */\n      0x01\n        /* \"dao.sol\":743:786  proposals.push(Proposal(desc, 0, 0, false)) */\n      dup2\n      add\n      dup3\n      sstore\n      swap3\n      mstore\n      dup1\n      mload\n        /* \"dao.sol\":758:785  Proposal(desc, 0, 0, false) */\n      swap1\n      swap2\n        /* \"dao.sol\":743:786  proposals.push(Proposal(desc, 0, 0, false)) */\n      0x04\n      mul\n      0xc2575a0e9e593c00f959f8c92f12db2869c3395a3b0502d05e2516446f71f85b\n      add\n      swap1\n      dup2\n      swap1\n      tag_64\n      swap1\n      dup3\n      tag_65\n      jump\t// in\n    tag_64:\n      pop\n      0x20\n      dup3\n      add\n      mload\n      0x01\n      dup3\n      add\n      sstore\n      0x40\n      dup3\n      add\n      mload\n      0x02\n      dup3\n      add\n      sstore\n      0x60\n      swap1\n      swap2\n      add\n      mload\n      0x03\n      swap1\n      swap2\n      add\n      dup1\n      sload\n      not(0xff)\n      and\n      swap2\n      iszero\n      iszero\n      swap2\n      swap1\n      swap2\n      or\n      swap1\n      sstore\n      pop\n        /* \"dao.sol\":626:794  function createProposal(string memory desc) public {... */\n      jump\t// out\n        /* \"dao.sol\":802:1076  function vote(uint index, bool support) public {... */\n    tag_39:\n        /* \"dao.sol\":876:886  msg.sender */\n      caller\n        /* \"dao.sol\":868:887  members[msg.sender] */\n      0x00\n      swap1\n      dup2\n      mstore\n        /* \"dao.sol\":868:875  members */\n      0x02\n        /* \"dao.sol\":868:887  members[msg.sender] */\n      0x20\n      mstore\n      0x40\n      swap1\n      keccak256\n      sload\n      0xff\n      and\n        /* \"dao.sol\":860:904  require(members[msg.sender], \"Not a member\") */\n      tag_67\n      jumpi\n      mload(0x40)\n      shl(0xe5, 0x461bcd)\n      dup2\n      mstore\n        /* \"#utility.yul\":3974:3976   */\n      0x20\n        /* \"dao.sol\":860:904  require(members[msg.sender], \"Not a member\") */\n      0x04\n      dup3\n      add\n        /* \"#utility.yul\":3956:3977   */\n      mstore\n        /* \"#utility.yul\":4013:4015   */\n      0x0c\n        /* \"#utility.yul\":3993:4011   */\n      0x24\n      dup3\n      add\n        /* \"#utility.yul\":3986:4016   */\n      mstore\n      shl(0xa1, 0x2737ba10309036b2b6b132b9)\n        /* \"#utility.yul\":4032:4050   */\n      0x44\n      dup3\n      add\n        /* \"#utility.yul\":4025:4067   */\n      mstore\n        /* \"#utility.yul\":4084:4102   */\n      0x64\n      add\n        /* \"dao.sol\":860:904  require(members[msg.sender], \"Not a member\") */\n      tag_61\n        /* \"#utility.yul\":3772:4108   */\n      jump\n        /* \"dao.sol\":860:904  require(members[msg.sender], \"Not a member\") */\n    tag_67:\n        /* \"dao.sol\":915:933  Proposal storage p */\n      0x00\n        /* \"dao.sol\":936:945  proposals */\n      0x03\n        /* \"dao.sol\":946:951  index */\n      dup4\n        /* \"dao.sol\":936:952  proposals[index] */\n      dup2\n      sload\n      dup2\n      lt\n      tag_70\n      jumpi\n      tag_70\n      tag_71\n      jump\t// in\n    tag_70:\n      0x00\n      swap2\n      dup3\n      mstore\n      0x20\n      swap1\n      swap2\n      keccak256\n      0x04\n      swap1\n      swap2\n      mul\n      add\n        /* \"dao.sol\":972:982  p.executed */\n      0x03\n      dup2\n      add\n      sload\n        /* \"dao.sol\":936:952  proposals[index] */\n      swap1\n      swap2\n      pop\n        /* \"dao.sol\":972:982  p.executed */\n      0xff\n      and\n        /* \"dao.sol\":971:982  !p.executed */\n      iszero\n        /* \"dao.sol\":963:1003  require(!p.executed, \"Already executed\") */\n      tag_73\n      jumpi\n      mload(0x40)\n      shl(0xe5, 0x461bcd)\n      dup2\n      mstore\n        /* \"#utility.yul\":6571:6573   */\n      0x20\n        /* \"dao.sol\":963:1003  require(!p.executed, \"Already executed\") */\n      0x04\n      dup3\n      add\n        /* \"#utility.yul\":6553:6574   */\n      mstore\n        /* \"#utility.yul\":6610:6612   */\n      0x10\n        /* \"#utility.yul\":6590:6608   */\n      0x24\n      dup3\n      add\n        /* \"#utility.yul\":6583:6613   */\n      mstore\n      shl(0x82, 0x105b1c9958591e48195e1958dd5d1959)\n        /* \"#utility.yul\":6629:6647   */\n      0x44\n      dup3\n      add\n        /* \"#utility.yul\":6622:6668   */\n      mstore\n        /* \"#utility.yul\":6685:6703   */\n      0x64\n      add\n        /* \"dao.sol\":963:1003  require(!p.executed, \"Already executed\") */\n      tag_61\n        /* \"#utility.yul\":6369:6709   */\n      jump\n        /* \"dao.sol\":963:1003  require(!p.executed, \"Already executed\") */\n    tag_73:\n        /* \"dao.sol\":1020:1027  support */\n      dup2\n        /* \"dao.sol\":1016:1068  if (support) p.yesVotes++;... */\n      iszero\n      tag_76\n      jumpi\n        /* \"dao.sol\":1029:1039  p.yesVotes */\n      0x01\n      dup2\n      add\n        /* \"dao.sol\":1029:1041  p.yesVotes++ */\n      dup1\n      sload\n      swap1\n        /* \"dao.sol\":1029:1039  p.yesVotes */\n      0x00\n        /* \"dao.sol\":1029:1041  p.yesVotes++ */\n      tag_77\n      dup4\n      tag_78\n      jump\t// in\n    tag_77:\n      swap2\n      swap1\n      pop\n      sstore\n      pop\n        /* \"dao.sol\":849:1076  {... */\n      pop\n        /* \"dao.sol\":802:1076  function vote(uint index, bool support) public {... */\n      pop\n      pop\n      jump\t// out\n        /* \"dao.sol\":1016:1068  if (support) p.yesVotes++;... */\n    tag_76:\n        /* \"dao.sol\":1057:1066  p.noVotes */\n      0x02\n      dup2\n      add\n        /* \"dao.sol\":1057:1068  p.noVotes++ */\n      dup1\n      sload\n      swap1\n        /* \"dao.sol\":1057:1066  p.noVotes */\n      0x00\n        /* \"dao.sol\":1057:1068  p.noVotes++ */\n      tag_77\n      dup4\n      tag_78\n      jump\t// in\n        /* \"dao.sol\":1016:1068  if (support) p.yesVotes++;... */\n    tag_79:\n        /* \"dao.sol\":849:1076  {... */\n      pop\n        /* \"dao.sol\":802:1076  function vote(uint index, bool support) public {... */\n      pop\n      pop\n      jump\t// out\n        /* \"dao.sol\":482:618  function addMember(address member) public {... */\n    tag_42:\n        /* \"dao.sol\":557:562  owner */\n      and(sub(shl(0xa0, 0x01), 0x01), sload(0x01))\n        /* \"dao.sol\":543:553  msg.sender */\n      caller\n        /* \"dao.sol\":543:562  msg.sender == owner */\n      eq\n        /* \"dao.sol\":535:577  require(msg.sender == owner, \"Only owner\") */\n      tag_82\n      jumpi\n      mload(0x40)\n      shl(0xe5, 0x461bcd)\n      dup2\n      mstore\n        /* \"#utility.yul\":7153:7155   */\n      0x20\n        /* \"dao.sol\":535:577  require(msg.sender == owner, \"Only owner\") */\n      0x04\n      dup3\n      add\n        /* \"#utility.yul\":7135:7156   */\n      mstore\n        /* \"#utility.yul\":7192:7194   */\n      0x0a\n        /* \"#utility.yul\":7172:7190   */\n      0x24\n      dup3\n      add\n        /* \"#utility.yul\":7165:7195   */\n      mstore\n      shl(0xb1, 0x27b7363c9037bbb732b9)\n        /* \"#utility.yul\":7211:7229   */\n      0x44\n      dup3\n      add\n        /* \"#utility.yul\":7204:7244   */\n      mstore\n        /* \"#utility.yul\":7261:7279   */\n      0x64\n      add\n        /* \"dao.sol\":535:577  require(msg.sender == owner, \"Only owner\") */\n      tag_61\n        /* \"#utility.yul\":6951:7285   */\n      jump\n        /* \"dao.sol\":535:577  require(msg.sender == owner, \"Only owner\") */\n    tag_82:\n      sub(shl(0xa0, 0x01), 0x01)\n        /* \"dao.sol\":588:603  members[member] */\n      and\n      0x00\n      swap1\n      dup2\n      mstore\n        /* \"dao.sol\":588:595  members */\n      0x02\n        /* \"dao.sol\":588:603  members[member] */\n      0x20\n      mstore\n      0x40\n      swap1\n      keccak256\n        /* \"dao.sol\":588:610  members[member] = true */\n      dup1\n      sload\n      not(0xff)\n      and\n        /* \"dao.sol\":606:610  true */\n      0x01\n        /* \"dao.sol\":588:610  members[member] = true */\n      or\n      swap1\n      sstore\n        /* \"dao.sol\":482:618  function addMember(address member) public {... */\n      jump\t// out\n        /* \"dao.sol\":1084:1352  function execute(uint index) public {... */\n    tag_45:\n        /* \"dao.sol\":1131:1149  Proposal storage p */\n      0x00\n        /* \"dao.sol\":1152:1161  proposals */\n      0x03\n        /* \"dao.sol\":1162:1167  index */\n      dup3\n        /* \"dao.sol\":1152:1168  proposals[index] */\n      dup2\n      sload\n      dup2\n      lt\n      tag_87\n      jumpi\n      tag_87\n      tag_71\n      jump\t// in\n    tag_87:\n      0x00\n      swap2\n      dup3\n      mstore\n      0x20\n      swap1\n      swap2\n      keccak256\n      0x04\n      swap1\n      swap2\n      mul\n      add\n        /* \"dao.sol\":1188:1198  p.executed */\n      0x03\n      dup2\n      add\n      sload\n        /* \"dao.sol\":1152:1168  proposals[index] */\n      swap1\n      swap2\n      pop\n        /* \"dao.sol\":1188:1198  p.executed */\n      0xff\n      and\n        /* \"dao.sol\":1187:1198  !p.executed */\n      iszero\n        /* \"dao.sol\":1179:1215  require(!p.executed, \"Already done\") */\n      tag_89\n      jumpi\n      mload(0x40)\n      shl(0xe5, 0x461bcd)\n      dup2\n      mstore\n        /* \"#utility.yul\":7492:7494   */\n      0x20\n        /* \"dao.sol\":1179:1215  require(!p.executed, \"Already done\") */\n      0x04\n      dup3\n      add\n        /* \"#utility.yul\":7474:7495   */\n      mstore\n        /* \"#utility.yul\":7531:7533   */\n      0x0c\n        /* \"#utility.yul\":7511:7529   */\n      0x24\n      dup3\n      add\n        /* \"#utility.yul\":7504:7534   */\n      mstore\n      shl(0xa0, 0x416c726561647920646f6e65)\n        /* \"#utility.yul\":7550:7568   */\n      0x44\n      dup3\n      add\n        /* \"#utility.yul\":7543:7585   */\n      mstore\n        /* \"#utility.yul\":7602:7620   */\n      0x64\n      add\n        /* \"dao.sol\":1179:1215  require(!p.executed, \"Already done\") */\n      tag_61\n        /* \"#utility.yul\":7290:7626   */\n      jump\n        /* \"dao.sol\":1179:1215  require(!p.executed, \"Already done\") */\n    tag_89:\n        /* \"dao.sol\":1247:1248  p */\n      dup1\n        /* \"dao.sol\":1247:1256  p.noVotes */\n      0x02\n      add\n      sload\n        /* \"dao.sol\":1234:1235  p */\n      dup2\n        /* \"dao.sol\":1234:1244  p.yesVotes */\n      0x01\n      add\n      sload\n        /* \"dao.sol\":1234:1256  p.yesVotes > p.noVotes */\n      gt\n        /* \"dao.sol\":1226:1273  require(p.yesVotes > p.noVotes, \"Did not pass\") */\n      tag_92\n      jumpi\n      mload(0x40)\n      shl(0xe5, 0x461bcd)\n      dup2\n      mstore\n        /* \"#utility.yul\":7833:7835   */\n      0x20\n        /* \"dao.sol\":1226:1273  require(p.yesVotes > p.noVotes, \"Did not pass\") */\n      0x04\n      dup3\n      add\n        /* \"#utility.yul\":7815:7836   */\n      mstore\n        /* \"#utility.yul\":7872:7874   */\n      0x0c\n        /* \"#utility.yul\":7852:7870   */\n      0x24\n      dup3\n      add\n        /* \"#utility.yul\":7845:7875   */\n      mstore\n      shl(0xa0, 0x446964206e6f742070617373)\n        /* \"#utility.yul\":7891:7909   */\n      0x44\n      dup3\n      add\n        /* \"#utility.yul\":7884:7926   */\n      mstore\n        /* \"#utility.yul\":7943:7961   */\n      0x64\n      add\n        /* \"dao.sol\":1226:1273  require(p.yesVotes > p.noVotes, \"Did not pass\") */\n      tag_61\n        /* \"#utility.yul\":7631:7967   */\n      jump\n        /* \"dao.sol\":1226:1273  require(p.yesVotes > p.noVotes, \"Did not pass\") */\n    tag_92:\n        /* \"dao.sol\":1286:1296  p.executed */\n      0x03\n      add\n        /* \"dao.sol\":1286:1303  p.executed = true */\n      dup1\n      sload\n      not(0xff)\n      and\n        /* \"dao.sol\":1299:1303  true */\n      0x01\n        /* \"dao.sol\":1286:1303  p.executed = true */\n      or\n      swap1\n      sstore\n      pop\n        /* \"dao.sol\":1084:1352  function execute(uint index) public {... */\n      jump\t// out\n        /* \"#utility.yul\":14:240   */\n    tag_14:\n        /* \"#utility.yul\":73:79   */\n      0x00\n        /* \"#utility.yul\":126:128   */\n      0x20\n        /* \"#utility.yul\":114:123   */\n      dup3\n        /* \"#utility.yul\":105:112   */\n      dup5\n        /* \"#utility.yul\":101:124   */\n      sub\n        /* \"#utility.yul\":97:129   */\n      slt\n        /* \"#utility.yul\":94:146   */\n      iszero\n      tag_102\n      jumpi\n        /* \"#utility.yul\":142:143   */\n      0x00\n        /* \"#utility.yul\":139:140   */\n      dup1\n        /* \"#utility.yul\":132:144   */\n      revert\n        /* \"#utility.yul\":94:146   */\n    tag_102:\n      pop\n        /* \"#utility.yul\":187:210   */\n      calldataload\n      swap2\n        /* \"#utility.yul\":14:240   */\n      swap1\n      pop\n      jump\t// out\n        /* \"#utility.yul\":245:534   */\n    tag_95:\n        /* \"#utility.yul\":287:290   */\n      0x00\n        /* \"#utility.yul\":325:330   */\n      dup2\n        /* \"#utility.yul\":319:331   */\n      mload\n        /* \"#utility.yul\":352:358   */\n      dup1\n        /* \"#utility.yul\":347:350   */\n      dup5\n        /* \"#utility.yul\":340:359   */\n      mstore\n        /* \"#utility.yul\":408:414   */\n      dup1\n        /* \"#utility.yul\":401:405   */\n      0x20\n        /* \"#utility.yul\":394:399   */\n      dup5\n        /* \"#utility.yul\":390:406   */\n      add\n        /* \"#utility.yul\":383:387   */\n      0x20\n        /* \"#utility.yul\":378:381   */\n      dup7\n        /* \"#utility.yul\":374:388   */\n      add\n        /* \"#utility.yul\":368:415   */\n      mcopy\n        /* \"#utility.yul\":460:461   */\n      0x00\n        /* \"#utility.yul\":453:457   */\n      0x20\n        /* \"#utility.yul\":444:450   */\n      dup3\n        /* \"#utility.yul\":439:442   */\n      dup7\n        /* \"#utility.yul\":435:451   */\n      add\n        /* \"#utility.yul\":431:458   */\n      add\n        /* \"#utility.yul\":424:462   */\n      mstore\n        /* \"#utility.yul\":523:527   */\n      0x20\n        /* \"#utility.yul\":516:518   */\n      0x1f\n        /* \"#utility.yul\":512:519   */\n      not\n        /* \"#utility.yul\":507:509   */\n      0x1f\n        /* \"#utility.yul\":499:505   */\n      dup4\n        /* \"#utility.yul\":495:510   */\n      add\n        /* \"#utility.yul\":491:520   */\n      and\n        /* \"#utility.yul\":486:489   */\n      dup6\n        /* \"#utility.yul\":482:521   */\n      add\n        /* \"#utility.yul\":478:528   */\n      add\n        /* \"#utility.yul\":471:528   */\n      swap2\n      pop\n      pop\n        /* \"#utility.yul\":245:534   */\n      swap3\n      swap2\n      pop\n      pop\n      jump\t// out\n        /* \"#utility.yul\":539:984   */\n    tag_17:\n        /* \"#utility.yul\":766:769   */\n      0x80\n        /* \"#utility.yul\":755:764   */\n      dup2\n        /* \"#utility.yul\":748:770   */\n      mstore\n        /* \"#utility.yul\":729:733   */\n      0x00\n        /* \"#utility.yul\":787:833   */\n      tag_105\n        /* \"#utility.yul\":828:831   */\n      0x80\n        /* \"#utility.yul\":817:826   */\n      dup4\n        /* \"#utility.yul\":813:832   */\n      add\n        /* \"#utility.yul\":805:811   */\n      dup8\n        /* \"#utility.yul\":787:833   */\n      tag_95\n      jump\t// in\n    tag_105:\n        /* \"#utility.yul\":864:866   */\n      0x20\n        /* \"#utility.yul\":849:867   */\n      dup4\n      add\n        /* \"#utility.yul\":842:876   */\n      swap6\n      swap1\n      swap6\n      mstore\n      pop\n        /* \"#utility.yul\":907:909   */\n      0x40\n        /* \"#utility.yul\":892:910   */\n      dup2\n      add\n        /* \"#utility.yul\":885:919   */\n      swap3\n      swap1\n      swap3\n      mstore\n        /* \"#utility.yul\":962:976   */\n      iszero\n        /* \"#utility.yul\":955:977   */\n      iszero\n        /* \"#utility.yul\":950:952   */\n      0x60\n        /* \"#utility.yul\":935:953   */\n      swap1\n      swap2\n      add\n        /* \"#utility.yul\":928:978   */\n      mstore\n        /* \"#utility.yul\":779:833   */\n      swap2\n        /* \"#utility.yul\":539:984   */\n      swap1\n      pop\n      jump\t// out\n        /* \"#utility.yul\":989:1209   */\n    tag_21:\n        /* \"#utility.yul\":1138:1140   */\n      0x20\n        /* \"#utility.yul\":1127:1136   */\n      dup2\n        /* \"#utility.yul\":1120:1141   */\n      mstore\n        /* \"#utility.yul\":1101:1105   */\n      0x00\n        /* \"#utility.yul\":1158:1203   */\n      tag_107\n        /* \"#utility.yul\":1199:1201   */\n      0x20\n        /* \"#utility.yul\":1188:1197   */\n      dup4\n        /* \"#utility.yul\":1184:1202   */\n      add\n        /* \"#utility.yul\":1176:1182   */\n      dup5\n        /* \"#utility.yul\":1158:1203   */\n      tag_95\n      jump\t// in\n    tag_107:\n        /* \"#utility.yul\":1150:1203   */\n      swap4\n        /* \"#utility.yul\":989:1209   */\n      swap3\n      pop\n      pop\n      pop\n      jump\t// out\n        /* \"#utility.yul\":1214:1500   */\n    tag_24:\n        /* \"#utility.yul\":1273:1279   */\n      0x00\n        /* \"#utility.yul\":1326:1328   */\n      0x20\n        /* \"#utility.yul\":1314:1323   */\n      dup3\n        /* \"#utility.yul\":1305:1312   */\n      dup5\n        /* \"#utility.yul\":1301:1324   */\n      sub\n        /* \"#utility.yul\":1297:1329   */\n      slt\n        /* \"#utility.yul\":1294:1346   */\n      iszero\n      tag_109\n      jumpi\n        /* \"#utility.yul\":1342:1343   */\n      0x00\n        /* \"#utility.yul\":1339:1340   */\n      dup1\n        /* \"#utility.yul\":1332:1344   */\n      revert\n        /* \"#utility.yul\":1294:1346   */\n    tag_109:\n        /* \"#utility.yul\":1368:1391   */\n      dup2\n      calldataload\n      sub(shl(0xa0, 0x01), 0x01)\n        /* \"#utility.yul\":1420:1451   */\n      dup2\n      and\n        /* \"#utility.yul\":1410:1452   */\n      dup2\n      eq\n        /* \"#utility.yul\":1400:1470   */\n      tag_107\n      jumpi\n        /* \"#utility.yul\":1466:1467   */\n      0x00\n        /* \"#utility.yul\":1463:1464   */\n      dup1\n        /* \"#utility.yul\":1456:1468   */\n      revert\n        /* \"#utility.yul\":1697:1824   */\n    tag_96:\n        /* \"#utility.yul\":1758:1768   */\n      0x4e487b71\n        /* \"#utility.yul\":1753:1756   */\n      0xe0\n        /* \"#utility.yul\":1749:1769   */\n      shl\n        /* \"#utility.yul\":1746:1747   */\n      0x00\n        /* \"#utility.yul\":1739:1770   */\n      mstore\n        /* \"#utility.yul\":1789:1793   */\n      0x41\n        /* \"#utility.yul\":1786:1787   */\n      0x04\n        /* \"#utility.yul\":1779:1794   */\n      mstore\n        /* \"#utility.yul\":1813:1817   */\n      0x24\n        /* \"#utility.yul\":1810:1811   */\n      0x00\n        /* \"#utility.yul\":1803:1818   */\n      revert\n        /* \"#utility.yul\":1829:2774   */\n    tag_30:\n        /* \"#utility.yul\":1898:1904   */\n      0x00\n        /* \"#utility.yul\":1951:1953   */\n      0x20\n        /* \"#utility.yul\":1939:1948   */\n      dup3\n        /* \"#utility.yul\":1930:1937   */\n      dup5\n        /* \"#utility.yul\":1926:1949   */\n      sub\n        /* \"#utility.yul\":1922:1954   */\n      slt\n        /* \"#utility.yul\":1919:1971   */\n      iszero\n      tag_114\n      jumpi\n        /* \"#utility.yul\":1967:1968   */\n      0x00\n        /* \"#utility.yul\":1964:1965   */\n      dup1\n        /* \"#utility.yul\":1957:1969   */\n      revert\n        /* \"#utility.yul\":1919:1971   */\n    tag_114:\n        /* \"#utility.yul\":2007:2016   */\n      dup2\n        /* \"#utility.yul\":1994:2017   */\n      calldataload\n        /* \"#utility.yul\":2040:2058   */\n      0xffffffffffffffff\n        /* \"#utility.yul\":2032:2038   */\n      dup2\n        /* \"#utility.yul\":2029:2059   */\n      gt\n        /* \"#utility.yul\":2026:2076   */\n      iszero\n      tag_115\n      jumpi\n        /* \"#utility.yul\":2072:2073   */\n      0x00\n        /* \"#utility.yul\":2069:2070   */\n      dup1\n        /* \"#utility.yul\":2062:2074   */\n      revert\n        /* \"#utility.yul\":2026:2076   */\n    tag_115:\n        /* \"#utility.yul\":2095:2117   */\n      dup3\n      add\n        /* \"#utility.yul\":2148:2152   */\n      0x1f\n        /* \"#utility.yul\":2140:2153   */\n      dup2\n      add\n        /* \"#utility.yul\":2136:2163   */\n      dup5\n      sgt\n        /* \"#utility.yul\":2126:2181   */\n      tag_116\n      jumpi\n        /* \"#utility.yul\":2177:2178   */\n      0x00\n        /* \"#utility.yul\":2174:2175   */\n      dup1\n        /* \"#utility.yul\":2167:2179   */\n      revert\n        /* \"#utility.yul\":2126:2181   */\n    tag_116:\n        /* \"#utility.yul\":2217:2219   */\n      dup1\n        /* \"#utility.yul\":2204:2220   */\n      calldataload\n        /* \"#utility.yul\":2243:2261   */\n      0xffffffffffffffff\n        /* \"#utility.yul\":2235:2241   */\n      dup2\n        /* \"#utility.yul\":2232:2262   */\n      gt\n        /* \"#utility.yul\":2229:2285   */\n      iszero\n      tag_118\n      jumpi\n        /* \"#utility.yul\":2265:2283   */\n      tag_118\n      tag_96\n      jump\t// in\n    tag_118:\n        /* \"#utility.yul\":2314:2316   */\n      0x40\n        /* \"#utility.yul\":2308:2317   */\n      mload\n        /* \"#utility.yul\":2406:2408   */\n      0x1f\n        /* \"#utility.yul\":2368:2385   */\n      dup3\n      add\n      not(0x1f)\n        /* \"#utility.yul\":2364:2395   */\n      swap1\n      dup2\n      and\n        /* \"#utility.yul\":2397:2399   */\n      0x3f\n        /* \"#utility.yul\":2360:2400   */\n      add\n        /* \"#utility.yul\":2356:2410   */\n      and\n        /* \"#utility.yul\":2344:2411   */\n      dup2\n      add\n        /* \"#utility.yul\":2441:2459   */\n      0xffffffffffffffff\n        /* \"#utility.yul\":2426:2460   */\n      dup2\n      gt\n        /* \"#utility.yul\":2462:2484   */\n      dup3\n      dup3\n      lt\n        /* \"#utility.yul\":2423:2485   */\n      or\n        /* \"#utility.yul\":2420:2508   */\n      iszero\n      tag_120\n      jumpi\n        /* \"#utility.yul\":2488:2506   */\n      tag_120\n      tag_96\n      jump\t// in\n    tag_120:\n        /* \"#utility.yul\":2524:2526   */\n      0x40\n        /* \"#utility.yul\":2517:2539   */\n      mstore\n        /* \"#utility.yul\":2548:2570   */\n      dup2\n      dup2\n      mstore\n        /* \"#utility.yul\":2589:2604   */\n      dup3\n      dup3\n      add\n        /* \"#utility.yul\":2606:2608   */\n      0x20\n        /* \"#utility.yul\":2585:2609   */\n      add\n        /* \"#utility.yul\":2582:2619   */\n      dup7\n      lt\n        /* \"#utility.yul\":2579:2636   */\n      iszero\n      tag_121\n      jumpi\n        /* \"#utility.yul\":2632:2633   */\n      0x00\n        /* \"#utility.yul\":2629:2630   */\n      dup1\n        /* \"#utility.yul\":2622:2634   */\n      revert\n        /* \"#utility.yul\":2579:2636   */\n    tag_121:\n        /* \"#utility.yul\":2688:2694   */\n      dup2\n        /* \"#utility.yul\":2683:2685   */\n      0x20\n        /* \"#utility.yul\":2679:2681   */\n      dup5\n        /* \"#utility.yul\":2675:2686   */\n      add\n        /* \"#utility.yul\":2670:2672   */\n      0x20\n        /* \"#utility.yul\":2662:2668   */\n      dup4\n        /* \"#utility.yul\":2658:2673   */\n      add\n        /* \"#utility.yul\":2645:2695   */\n      calldatacopy\n        /* \"#utility.yul\":2741:2742   */\n      0x00\n        /* \"#utility.yul\":2715:2734   */\n      swap2\n      dup2\n      add\n        /* \"#utility.yul\":2736:2738   */\n      0x20\n        /* \"#utility.yul\":2711:2739   */\n      add\n        /* \"#utility.yul\":2704:2743   */\n      swap2\n      swap1\n      swap2\n      mstore\n        /* \"#utility.yul\":2719:2725   */\n      swap5\n        /* \"#utility.yul\":1829:2774   */\n      swap4\n      pop\n      pop\n      pop\n      pop\n      jump\t// out\n        /* \"#utility.yul\":2987:3382   */\n    tag_38:\n        /* \"#utility.yul\":3052:3058   */\n      0x00\n        /* \"#utility.yul\":3060:3066   */\n      dup1\n        /* \"#utility.yul\":3113:3115   */\n      0x40\n        /* \"#utility.yul\":3101:3110   */\n      dup4\n        /* \"#utility.yul\":3092:3099   */\n      dup6\n        /* \"#utility.yul\":3088:3111   */\n      sub\n        /* \"#utility.yul\":3084:3116   */\n      slt\n        /* \"#utility.yul\":3081:3133   */\n      iszero\n      tag_124\n      jumpi\n        /* \"#utility.yul\":3129:3130   */\n      0x00\n        /* \"#utility.yul\":3126:3127   */\n      dup1\n        /* \"#utility.yul\":3119:3131   */\n      revert\n        /* \"#utility.yul\":3081:3133   */\n    tag_124:\n        /* \"#utility.yul\":3174:3197   */\n      dup3\n      calldataload\n      swap2\n      pop\n        /* \"#utility.yul\":3273:3275   */\n      0x20\n        /* \"#utility.yul\":3258:3276   */\n      dup4\n      add\n        /* \"#utility.yul\":3245:3277   */\n      calldataload\n        /* \"#utility.yul\":3315:3330   */\n      dup1\n      iszero\n        /* \"#utility.yul\":3308:3331   */\n      iszero\n        /* \"#utility.yul\":3296:3332   */\n      dup2\n      eq\n        /* \"#utility.yul\":3286:3350   */\n      tag_125\n      jumpi\n        /* \"#utility.yul\":3346:3347   */\n      0x00\n        /* \"#utility.yul\":3343:3344   */\n      dup1\n        /* \"#utility.yul\":3336:3348   */\n      revert\n        /* \"#utility.yul\":3286:3350   */\n    tag_125:\n        /* \"#utility.yul\":3369:3376   */\n      dup1\n        /* \"#utility.yul\":3359:3376   */\n      swap2\n      pop\n      pop\n        /* \"#utility.yul\":2987:3382   */\n      swap3\n      pop\n      swap3\n      swap1\n      pop\n      jump\t// out\n        /* \"#utility.yul\":3387:3767   */\n    tag_49:\n        /* \"#utility.yul\":3466:3467   */\n      0x01\n        /* \"#utility.yul\":3462:3474   */\n      dup2\n      dup2\n      shr\n      swap1\n        /* \"#utility.yul\":3509:3521   */\n      dup3\n      and\n      dup1\n        /* \"#utility.yul\":3530:3591   */\n      tag_127\n      jumpi\n        /* \"#utility.yul\":3584:3588   */\n      0x7f\n        /* \"#utility.yul\":3576:3582   */\n      dup3\n        /* \"#utility.yul\":3572:3589   */\n      and\n        /* \"#utility.yul\":3562:3589   */\n      swap2\n      pop\n        /* \"#utility.yul\":3530:3591   */\n    tag_127:\n        /* \"#utility.yul\":3637:3639   */\n      0x20\n        /* \"#utility.yul\":3629:3635   */\n      dup3\n        /* \"#utility.yul\":3626:3640   */\n      lt\n        /* \"#utility.yul\":3606:3624   */\n      dup2\n        /* \"#utility.yul\":3603:3641   */\n      sub\n        /* \"#utility.yul\":3600:3761   */\n      tag_128\n      jumpi\n        /* \"#utility.yul\":3683:3693   */\n      0x4e487b71\n        /* \"#utility.yul\":3678:3681   */\n      0xe0\n        /* \"#utility.yul\":3674:3694   */\n      shl\n        /* \"#utility.yul\":3671:3672   */\n      0x00\n        /* \"#utility.yul\":3664:3695   */\n      mstore\n        /* \"#utility.yul\":3718:3722   */\n      0x22\n        /* \"#utility.yul\":3715:3716   */\n      0x04\n        /* \"#utility.yul\":3708:3723   */\n      mstore\n        /* \"#utility.yul\":3746:3750   */\n      0x24\n        /* \"#utility.yul\":3743:3744   */\n      0x00\n        /* \"#utility.yul\":3736:3751   */\n      revert\n        /* \"#utility.yul\":3600:3761   */\n    tag_128:\n      pop\n        /* \"#utility.yul\":3387:3767   */\n      swap2\n      swap1\n      pop\n      jump\t// out\n        /* \"#utility.yul\":4239:4757   */\n    tag_98:\n        /* \"#utility.yul\":4341:4343   */\n      0x1f\n        /* \"#utility.yul\":4336:4339   */\n      dup3\n        /* \"#utility.yul\":4333:4344   */\n      gt\n        /* \"#utility.yul\":4330:4751   */\n      iszero\n      tag_79\n      jumpi\n        /* \"#utility.yul\":4377:4382   */\n      dup1\n        /* \"#utility.yul\":4374:4375   */\n      0x00\n        /* \"#utility.yul\":4367:4383   */\n      mstore\n        /* \"#utility.yul\":4421:4425   */\n      0x20\n        /* \"#utility.yul\":4418:4419   */\n      0x00\n        /* \"#utility.yul\":4408:4426   */\n      keccak256\n        /* \"#utility.yul\":4491:4493   */\n      0x1f\n        /* \"#utility.yul\":4479:4489   */\n      dup5\n        /* \"#utility.yul\":4475:4494   */\n      add\n        /* \"#utility.yul\":4472:4473   */\n      0x05\n        /* \"#utility.yul\":4468:4495   */\n      shr\n        /* \"#utility.yul\":4462:4466   */\n      dup2\n        /* \"#utility.yul\":4458:4496   */\n      add\n        /* \"#utility.yul\":4527:4531   */\n      0x20\n        /* \"#utility.yul\":4515:4525   */\n      dup6\n        /* \"#utility.yul\":4512:4532   */\n      lt\n        /* \"#utility.yul\":4509:4556   */\n      iszero\n      tag_133\n      jumpi\n      pop\n        /* \"#utility.yul\":4550:4554   */\n      dup1\n        /* \"#utility.yul\":4509:4556   */\n    tag_133:\n        /* \"#utility.yul\":4605:4607   */\n      0x1f\n        /* \"#utility.yul\":4600:4603   */\n      dup5\n        /* \"#utility.yul\":4596:4608   */\n      add\n        /* \"#utility.yul\":4593:4594   */\n      0x05\n        /* \"#utility.yul\":4589:4609   */\n      shr\n        /* \"#utility.yul\":4583:4587   */\n      dup3\n        /* \"#utility.yul\":4579:4610   */\n      add\n        /* \"#utility.yul\":4569:4610   */\n      swap2\n      pop\n        /* \"#utility.yul\":4660:4741   */\n    tag_134:\n        /* \"#utility.yul\":4678:4680   */\n      dup2\n        /* \"#utility.yul\":4671:4676   */\n      dup2\n        /* \"#utility.yul\":4668:4681   */\n      lt\n        /* \"#utility.yul\":4660:4741   */\n      iszero\n      tag_136\n      jumpi\n        /* \"#utility.yul\":4737:4738   */\n      0x00\n        /* \"#utility.yul\":4723:4739   */\n      dup2\n      sstore\n        /* \"#utility.yul\":4704:4705   */\n      0x01\n        /* \"#utility.yul\":4693:4706   */\n      add\n        /* \"#utility.yul\":4660:4741   */\n      jump(tag_134)\n    tag_136:\n        /* \"#utility.yul\":4664:4667   */\n      pop\n      pop\n        /* \"#utility.yul\":4239:4757   */\n      pop\n      pop\n      pop\n      jump\t// out\n        /* \"#utility.yul\":4933:6232   */\n    tag_65:\n        /* \"#utility.yul\":5059:5062   */\n      dup2\n        /* \"#utility.yul\":5053:5063   */\n      mload\n        /* \"#utility.yul\":5086:5104   */\n      0xffffffffffffffff\n        /* \"#utility.yul\":5078:5084   */\n      dup2\n        /* \"#utility.yul\":5075:5105   */\n      gt\n        /* \"#utility.yul\":5072:5128   */\n      iszero\n      tag_140\n      jumpi\n        /* \"#utility.yul\":5108:5126   */\n      tag_140\n      tag_96\n      jump\t// in\n    tag_140:\n        /* \"#utility.yul\":5137:5234   */\n      tag_141\n        /* \"#utility.yul\":5227:5233   */\n      dup2\n        /* \"#utility.yul\":5187:5225   */\n      tag_142\n        /* \"#utility.yul\":5219:5223   */\n      dup5\n        /* \"#utility.yul\":5213:5224   */\n      sload\n        /* \"#utility.yul\":5187:5225   */\n      tag_49\n      jump\t// in\n    tag_142:\n        /* \"#utility.yul\":5181:5185   */\n      dup5\n        /* \"#utility.yul\":5137:5234   */\n      tag_98\n      jump\t// in\n    tag_141:\n        /* \"#utility.yul\":5283:5287   */\n      0x20\n        /* \"#utility.yul\":5314:5316   */\n      0x1f\n        /* \"#utility.yul\":5303:5317   */\n      dup3\n      gt\n        /* \"#utility.yul\":5331:5332   */\n      0x01\n        /* \"#utility.yul\":5326:5975   */\n      dup2\n      eq\n      tag_144\n      jumpi\n        /* \"#utility.yul\":6019:6020   */\n      0x00\n        /* \"#utility.yul\":6036:6042   */\n      dup4\n        /* \"#utility.yul\":6033:6122   */\n      iszero\n      tag_145\n      jumpi\n      pop\n        /* \"#utility.yul\":6088:6107   */\n      dup5\n      dup3\n      add\n        /* \"#utility.yul\":6082:6108   */\n      mload\n        /* \"#utility.yul\":6033:6122   */\n    tag_145:\n      not(0x00)\n        /* \"#utility.yul\":4890:4891   */\n      0x03\n        /* \"#utility.yul\":4886:4897   */\n      dup6\n      swap1\n      shl\n        /* \"#utility.yul\":4882:4906   */\n      shr\n        /* \"#utility.yul\":4878:4907   */\n      not\n        /* \"#utility.yul\":4868:4908   */\n      and\n        /* \"#utility.yul\":4914:4915   */\n      0x01\n        /* \"#utility.yul\":4910:4921   */\n      dup5\n      swap1\n      shl\n        /* \"#utility.yul\":4865:4922   */\n      or\n        /* \"#utility.yul\":6135:6216   */\n      dup5\n      sstore\n        /* \"#utility.yul\":5296:6226   */\n      jump(tag_136)\n        /* \"#utility.yul\":5326:5975   */\n    tag_144:\n        /* \"#utility.yul\":4186:4187   */\n      0x00\n        /* \"#utility.yul\":4179:4193   */\n      dup5\n      dup2\n      mstore\n        /* \"#utility.yul\":4223:4227   */\n      0x20\n        /* \"#utility.yul\":4210:4228   */\n      dup2\n      keccak256\n      not(0x1f)\n        /* \"#utility.yul\":5362:5382   */\n      dup6\n      and\n      swap2\n        /* \"#utility.yul\":5480:5702   */\n    tag_148:\n        /* \"#utility.yul\":5494:5501   */\n      dup3\n        /* \"#utility.yul\":5491:5492   */\n      dup2\n        /* \"#utility.yul\":5488:5502   */\n      lt\n        /* \"#utility.yul\":5480:5702   */\n      iszero\n      tag_150\n      jumpi\n        /* \"#utility.yul\":5576:5595   */\n      dup8\n      dup6\n      add\n        /* \"#utility.yul\":5570:5596   */\n      mload\n        /* \"#utility.yul\":5555:5597   */\n      dup3\n      sstore\n        /* \"#utility.yul\":5683:5687   */\n      0x20\n        /* \"#utility.yul\":5668:5688   */\n      swap5\n      dup6\n      add\n      swap5\n        /* \"#utility.yul\":5636:5637   */\n      0x01\n        /* \"#utility.yul\":5624:5638   */\n      swap1\n      swap3\n      add\n      swap2\n        /* \"#utility.yul\":5510:5522   */\n      add\n        /* \"#utility.yul\":5480:5702   */\n      jump(tag_148)\n    tag_150:\n        /* \"#utility.yul\":5484:5487   */\n      pop\n        /* \"#utility.yul\":5730:5736   */\n      dup5\n        /* \"#utility.yul\":5721:5728   */\n      dup3\n        /* \"#utility.yul\":5718:5737   */\n      lt\n        /* \"#utility.yul\":5715:5916   */\n      iszero\n      tag_151\n      jumpi\n        /* \"#utility.yul\":5791:5810   */\n      dup7\n      dup5\n      add\n        /* \"#utility.yul\":5785:5811   */\n      mload\n      not(0x00)\n        /* \"#utility.yul\":5874:5875   */\n      0x03\n        /* \"#utility.yul\":5870:5884   */\n      dup8\n      swap1\n      shl\n        /* \"#utility.yul\":5886:5889   */\n      0xf8\n        /* \"#utility.yul\":5866:5890   */\n      and\n        /* \"#utility.yul\":5862:5899   */\n      shr\n        /* \"#utility.yul\":5858:5900   */\n      not\n        /* \"#utility.yul\":5843:5901   */\n      and\n        /* \"#utility.yul\":5828:5902   */\n      dup2\n      sstore\n        /* \"#utility.yul\":5715:5916   */\n    tag_151:\n      pop\n      pop\n      pop\n      pop\n        /* \"#utility.yul\":5962:5963   */\n      0x01\n        /* \"#utility.yul\":5946:5960   */\n      swap1\n      dup2\n      shl\n        /* \"#utility.yul\":5942:5964   */\n      add\n        /* \"#utility.yul\":5929:5965   */\n      swap1\n      sstore\n      pop\n        /* \"#utility.yul\":4933:6232   */\n      jump\t// out\n        /* \"#utility.yul\":6237:6364   */\n    tag_71:\n        /* \"#utility.yul\":6298:6308   */\n      0x4e487b71\n        /* \"#utility.yul\":6293:6296   */\n      0xe0\n        /* \"#utility.yul\":6289:6309   */\n      shl\n        /* \"#utility.yul\":6286:6287   */\n      0x00\n        /* \"#utility.yul\":6279:6310   */\n      mstore\n        /* \"#utility.yul\":6329:6333   */\n      0x32\n        /* \"#utility.yul\":6326:6327   */\n      0x04\n        /* \"#utility.yul\":6319:6334   */\n      mstore\n        /* \"#utility.yul\":6353:6357   */\n      0x24\n        /* \"#utility.yul\":6350:6351   */\n      0x00\n        /* \"#utility.yul\":6343:6358   */\n      revert\n        /* \"#utility.yul\":6714:6946   */\n    tag_78:\n        /* \"#utility.yul\":6753:6756   */\n      0x00\n        /* \"#utility.yul\":6774:6791   */\n      0x01\n      dup3\n      add\n        /* \"#utility.yul\":6771:6911   */\n      tag_155\n      jumpi\n        /* \"#utility.yul\":6833:6843   */\n      0x4e487b71\n        /* \"#utility.yul\":6828:6831   */\n      0xe0\n        /* \"#utility.yul\":6824:6844   */\n      shl\n        /* \"#utility.yul\":6821:6822   */\n      0x00\n        /* \"#utility.yul\":6814:6845   */\n      mstore\n        /* \"#utility.yul\":6868:6872   */\n      0x11\n        /* \"#utility.yul\":6865:6866   */\n      0x04\n        /* \"#utility.yul\":6858:6873   */\n      mstore\n        /* \"#utility.yul\":6896:6900   */\n      0x24\n        /* \"#utility.yul\":6893:6894   */\n      0x00\n        /* \"#utility.yul\":6886:6901   */\n      revert\n        /* \"#utility.yul\":6771:6911   */\n    tag_155:\n      pop\n        /* \"#utility.yul\":6938:6939   */\n      0x01\n        /* \"#utility.yul\":6927:6940   */\n      add\n      swap1\n        /* \"#utility.yul\":6714:6946   */\n      jump\t// out\n\n    auxdata: 0xa264697066735822122080e757ed8a546c23ef63534df64e583ccb78b649d67a3fabde2a3b09150cb5a464736f6c634300081a0033\n}\n",
				"bytecode": {
					"linkReferences": {},
					"object": "608060405234801561000f575f80fd5b50604051610b9f380380610b9f83398101604081905261002e91610080565b5f61003982826101b4565b5050600180546001600160a01b0319163390811782555f908152600260205260409020805460ff1916909117905561026e565b634e487b7160e01b5f52604160045260245ffd5b5f60208284031215610090575f80fd5b81516001600160401b038111156100a5575f80fd5b8201601f810184136100b5575f80fd5b80516001600160401b038111156100ce576100ce61006c565b604051601f8201601f19908116603f011681016001600160401b03811182821017156100fc576100fc61006c565b604052818152828201602001861015610113575f80fd5b8160208401602083015e5f91810160200191909152949350505050565b600181811c9082168061014457607f821691505b60208210810361016257634e487b7160e01b5f52602260045260245ffd5b50919050565b601f8211156101af57805f5260205f20601f840160051c8101602085101561018d5750805b601f840160051c820191505b818110156101ac575f8155600101610199565b50505b505050565b81516001600160401b038111156101cd576101cd61006c565b6101e1816101db8454610130565b84610168565b6020601f821160018114610213575f83156101fc5750848201515b5f19600385901b1c1916600184901b1784556101ac565b5f84815260208120601f198516915b828110156102425787850151825560209485019460019092019101610222565b508482101561025f57868401515f19600387901b60f8161c191681555b50505050600190811b01905550565b6109248061027b5f395ff3fe608060405234801561000f575f80fd5b5060043610610085575f3560e01c80638da5cb5b116100585780638da5cb5b14610111578063c9d27afe1461013c578063ca6d56dc1461014f578063fe0d94c114610162575f80fd5b8063013cf08b1461008957806306fdde03146100b557806308ae4b0c146100ca57806349c2a1a6146100fc575b5f80fd5b61009c6100973660046105cb565b610175565b6040516100ac9493929190610610565b60405180910390f35b6100bd61023b565b6040516100ac9190610640565b6100ec6100d8366004610659565b60026020525f908152604090205460ff1681565b60405190151581526020016100ac565b61010f61010a366004610693565b6102c6565b005b600154610124906001600160a01b031681565b6040516001600160a01b0390911681526020016100ac565b61010f61014a366004610746565b6103ae565b61010f61015d366004610659565b6104a0565b61010f6101703660046105cb565b61050a565b60038181548110610184575f80fd5b905f5260205f2090600402015f91509050805f0180546101a390610778565b80601f01602080910402602001604051908101604052809291908181526020018280546101cf90610778565b801561021a5780601f106101f15761010080835404028352916020019161021a565b820191905f5260205f20905b8154815290600101906020018083116101fd57829003601f168201915b50505050600183015460028401546003909401549293909290915060ff1684565b5f805461024790610778565b80601f016020809104026020016040519081016040528092919081815260200182805461027390610778565b80156102be5780601f10610295576101008083540402835291602001916102be565b820191905f5260205f20905b8154815290600101906020018083116102a157829003601f168201915b505050505081565b335f9081526002602052604090205460ff166103185760405162461bcd60e51b815260206004820152600c60248201526b2737ba10309036b2b6b132b960a11b60448201526064015b60405180910390fd5b604080516080810182528281525f6020820181905291810182905260608101829052600380546001810182559252805190916004027fc2575a0e9e593c00f959f8c92f12db2869c3395a3b0502d05e2516446f71f85b0190819061037c90826107fb565b5060208201516001820155604082015160028201556060909101516003909101805460ff191691151591909117905550565b335f9081526002602052604090205460ff166103fb5760405162461bcd60e51b815260206004820152600c60248201526b2737ba10309036b2b6b132b960a11b604482015260640161030f565b5f6003838154811061040f5761040f6108b6565b5f9182526020909120600490910201600381015490915060ff16156104695760405162461bcd60e51b815260206004820152601060248201526f105b1c9958591e48195e1958dd5d195960821b604482015260640161030f565b811561048a57600181018054905f610480836108ca565b9190505550505050565b600281018054905f610480836108ca565b505050565b6001546001600160a01b031633146104e75760405162461bcd60e51b815260206004820152600a60248201526927b7363c9037bbb732b960b11b604482015260640161030f565b6001600160a01b03165f908152600260205260409020805460ff19166001179055565b5f6003828154811061051e5761051e6108b6565b5f9182526020909120600490910201600381015490915060ff16156105745760405162461bcd60e51b815260206004820152600c60248201526b416c726561647920646f6e6560a01b604482015260640161030f565b80600201548160010154116105ba5760405162461bcd60e51b815260206004820152600c60248201526b446964206e6f74207061737360a01b604482015260640161030f565b600301805460ff1916600117905550565b5f602082840312156105db575f80fd5b5035919050565b5f81518084528060208401602086015e5f602082860101526020601f19601f83011685010191505092915050565b608081525f61062260808301876105e2565b60208301959095525060408101929092521515606090910152919050565b602081525f61065260208301846105e2565b9392505050565b5f60208284031215610669575f80fd5b81356001600160a01b0381168114610652575f80fd5b634e487b7160e01b5f52604160045260245ffd5b5f602082840312156106a3575f80fd5b813567ffffffffffffffff8111156106b9575f80fd5b8201601f810184136106c9575f80fd5b803567ffffffffffffffff8111156106e3576106e361067f565b604051601f8201601f19908116603f0116810167ffffffffffffffff811182821017156107125761071261067f565b604052818152828201602001861015610729575f80fd5b816020840160208301375f91810160200191909152949350505050565b5f8060408385031215610757575f80fd5b823591506020830135801515811461076d575f80fd5b809150509250929050565b600181811c9082168061078c57607f821691505b6020821081036107aa57634e487b7160e01b5f52602260045260245ffd5b50919050565b601f82111561049b57805f5260205f20601f840160051c810160208510156107d55750805b601f840160051c820191505b818110156107f4575f81556001016107e1565b5050505050565b815167ffffffffffffffff8111156108155761081561067f565b610829816108238454610778565b846107b0565b6020601f82116001811461085b575f83156108445750848201515b5f19600385901b1c1916600184901b1784556107f4565b5f84815260208120601f198516915b8281101561088a578785015182556020948501946001909201910161086a565b50848210156108a757868401515f19600387901b60f8161c191681555b50505050600190811b01905550565b634e487b7160e01b5f52603260045260245ffd5b5f600182016108e757634e487b7160e01b5f52601160045260245ffd5b506001019056fea264697066735822122080e757ed8a546c23ef63534df64e583ccb78b649d67a3fabde2a3b09150cb5a464736f6c634300081a0033",
					"opcodes": "PUSH1 0x80 PUSH1 0x40 MSTORE CALLVALUE DUP1 ISZERO PUSH2 0xF JUMPI PUSH0 DUP1 REVERT JUMPDEST POP PUSH1 0x40 MLOAD PUSH2 0xB9F CODESIZE SUB DUP1 PUSH2 0xB9F DUP4 CODECOPY DUP2 ADD PUSH1 0x40 DUP2 SWAP1 MSTORE PUSH2 0x2E SWAP2 PUSH2 0x80 JUMP JUMPDEST PUSH0 PUSH2 0x39 DUP3 DUP3 PUSH2 0x1B4 JUMP JUMPDEST POP POP PUSH1 0x1 DUP1 SLOAD PUSH1 0x1 PUSH1 0x1 PUSH1 0xA0 SHL SUB NOT AND CALLER SWAP1 DUP2 OR DUP3 SSTORE PUSH0 SWAP1 DUP2 MSTORE PUSH1 0x2 PUSH1 0x20 MSTORE PUSH1 0x40 SWAP1 KECCAK256 DUP1 SLOAD PUSH1 0xFF NOT AND SWAP1 SWAP2 OR SWAP1 SSTORE PUSH2 0x26E JUMP JUMPDEST PUSH4 0x4E487B71 PUSH1 0xE0 SHL PUSH0 MSTORE PUSH1 0x41 PUSH1 0x4 MSTORE PUSH1 0x24 PUSH0 REVERT JUMPDEST PUSH0 PUSH1 0x20 DUP3 DUP5 SUB SLT ISZERO PUSH2 0x90 JUMPI PUSH0 DUP1 REVERT JUMPDEST DUP2 MLOAD PUSH1 0x1 PUSH1 0x1 PUSH1 0x40 SHL SUB DUP2 GT ISZERO PUSH2 0xA5 JUMPI PUSH0 DUP1 REVERT JUMPDEST DUP3 ADD PUSH1 0x1F DUP2 ADD DUP5 SGT PUSH2 0xB5 JUMPI PUSH0 DUP1 REVERT JUMPDEST DUP1 MLOAD PUSH1 0x1 PUSH1 0x1 PUSH1 0x40 SHL SUB DUP2 GT ISZERO PUSH2 0xCE JUMPI PUSH2 0xCE PUSH2 0x6C JUMP JUMPDEST PUSH1 0x40 MLOAD PUSH1 0x1F DUP3 ADD PUSH1 0x1F NOT SWAP1 DUP2 AND PUSH1 0x3F ADD AND DUP2 ADD PUSH1 0x1 PUSH1 0x1 PUSH1 0x40 SHL SUB DUP2 GT DUP3 DUP3 LT OR ISZERO PUSH2 0xFC JUMPI PUSH2 0xFC PUSH2 0x6C JUMP JUMPDEST PUSH1 0x40 MSTORE DUP2 DUP2 MSTORE DUP3 DUP3 ADD PUSH1 0x20 ADD DUP7 LT ISZERO PUSH2 0x113 JUMPI PUSH0 DUP1 REVERT JUMPDEST DUP2 PUSH1 0x20 DUP5 ADD PUSH1 0x20 DUP4 ADD MCOPY PUSH0 SWAP2 DUP2 ADD PUSH1 0x20 ADD SWAP2 SWAP1 SWAP2 MSTORE SWAP5 SWAP4 POP POP POP POP JUMP JUMPDEST PUSH1 0x1 DUP2 DUP2 SHR SWAP1 DUP3 AND DUP1 PUSH2 0x144 JUMPI PUSH1 0x7F DUP3 AND SWAP2 POP JUMPDEST PUSH1 0x20 DUP3 LT DUP2 SUB PUSH2 0x162 JUMPI PUSH4 0x4E487B71 PUSH1 0xE0 SHL PUSH0 MSTORE PUSH1 0x22 PUSH1 0x4 MSTORE PUSH1 0x24 PUSH0 REVERT JUMPDEST POP SWAP2 SWAP1 POP JUMP JUMPDEST PUSH1 0x1F DUP3 GT ISZERO PUSH2 0x1AF JUMPI DUP1 PUSH0 MSTORE PUSH1 0x20 PUSH0 KECCAK256 PUSH1 0x1F DUP5 ADD PUSH1 0x5 SHR DUP2 ADD PUSH1 0x20 DUP6 LT ISZERO PUSH2 0x18D JUMPI POP DUP1 JUMPDEST PUSH1 0x1F DUP5 ADD PUSH1 0x5 SHR DUP3 ADD SWAP2 POP JUMPDEST DUP2 DUP2 LT ISZERO PUSH2 0x1AC JUMPI PUSH0 DUP2 SSTORE PUSH1 0x1 ADD PUSH2 0x199 JUMP JUMPDEST POP POP JUMPDEST POP POP POP JUMP JUMPDEST DUP2 MLOAD PUSH1 0x1 PUSH1 0x1 PUSH1 0x40 SHL SUB DUP2 GT ISZERO PUSH2 0x1CD JUMPI PUSH2 0x1CD PUSH2 0x6C JUMP JUMPDEST PUSH2 0x1E1 DUP2 PUSH2 0x1DB DUP5 SLOAD PUSH2 0x130 JUMP JUMPDEST DUP5 PUSH2 0x168 JUMP JUMPDEST PUSH1 0x20 PUSH1 0x1F DUP3 GT PUSH1 0x1 DUP2 EQ PUSH2 0x213 JUMPI PUSH0 DUP4 ISZERO PUSH2 0x1FC JUMPI POP DUP5 DUP3 ADD MLOAD JUMPDEST PUSH0 NOT PUSH1 0x3 DUP6 SWAP1 SHL SHR NOT AND PUSH1 0x1 DUP5 SWAP1 SHL OR DUP5 SSTORE PUSH2 0x1AC JUMP JUMPDEST PUSH0 DUP5 DUP2 MSTORE PUSH1 0x20 DUP2 KECCAK256 PUSH1 0x1F NOT DUP6 AND SWAP2 JUMPDEST DUP3 DUP2 LT ISZERO PUSH2 0x242 JUMPI DUP8 DUP6 ADD MLOAD DUP3 SSTORE PUSH1 0x20 SWAP5 DUP6 ADD SWAP5 PUSH1 0x1 SWAP1 SWAP3 ADD SWAP2 ADD PUSH2 0x222 JUMP JUMPDEST POP DUP5 DUP3 LT ISZERO PUSH2 0x25F JUMPI DUP7 DUP5 ADD MLOAD PUSH0 NOT PUSH1 0x3 DUP8 SWAP1 SHL PUSH1 0xF8 AND SHR NOT AND DUP2 SSTORE JUMPDEST POP POP POP POP PUSH1 0x1 SWAP1 DUP2 SHL ADD SWAP1 SSTORE POP JUMP JUMPDEST PUSH2 0x924 DUP1 PUSH2 0x27B PUSH0 CODECOPY PUSH0 RETURN INVALID PUSH1 0x80 PUSH1 0x40 MSTORE CALLVALUE DUP1 ISZERO PUSH2 0xF JUMPI PUSH0 DUP1 REVERT JUMPDEST POP PUSH1 0x4 CALLDATASIZE LT PUSH2 0x85 JUMPI PUSH0 CALLDATALOAD PUSH1 0xE0 SHR DUP1 PUSH4 0x8DA5CB5B GT PUSH2 0x58 JUMPI DUP1 PUSH4 0x8DA5CB5B EQ PUSH2 0x111 JUMPI DUP1 PUSH4 0xC9D27AFE EQ PUSH2 0x13C JUMPI DUP1 PUSH4 0xCA6D56DC EQ PUSH2 0x14F JUMPI DUP1 PUSH4 0xFE0D94C1 EQ PUSH2 0x162 JUMPI PUSH0 DUP1 REVERT JUMPDEST DUP1 PUSH4 0x13CF08B EQ PUSH2 0x89 JUMPI DUP1 PUSH4 0x6FDDE03 EQ PUSH2 0xB5 JUMPI DUP1 PUSH4 0x8AE4B0C EQ PUSH2 0xCA JUMPI DUP1 PUSH4 0x49C2A1A6 EQ PUSH2 0xFC JUMPI JUMPDEST PUSH0 DUP1 REVERT JUMPDEST PUSH2 0x9C PUSH2 0x97 CALLDATASIZE PUSH1 0x4 PUSH2 0x5CB JUMP JUMPDEST PUSH2 0x175 JUMP JUMPDEST PUSH1 0x40 MLOAD PUSH2 0xAC SWAP5 SWAP4 SWAP3 SWAP2 SWAP1 PUSH2 0x610 JUMP JUMPDEST PUSH1 0x40 MLOAD DUP1 SWAP2 SUB SWAP1 RETURN JUMPDEST PUSH2 0xBD PUSH2 0x23B JUMP JUMPDEST PUSH1 0x40 MLOAD PUSH2 0xAC SWAP2 SWAP1 PUSH2 0x640 JUMP JUMPDEST PUSH2 0xEC PUSH2 0xD8 CALLDATASIZE PUSH1 0x4 PUSH2 0x659 JUMP JUMPDEST PUSH1 0x2 PUSH1 0x20 MSTORE PUSH0 SWAP1 DUP2 MSTORE PUSH1 0x40 SWAP1 KECCAK256 SLOAD PUSH1 0xFF AND DUP2 JUMP JUMPDEST PUSH1 0x40 MLOAD SWAP1 ISZERO ISZERO DUP2 MSTORE PUSH1 0x20 ADD PUSH2 0xAC JUMP JUMPDEST PUSH2 0x10F PUSH2 0x10A CALLDATASIZE PUSH1 0x4 PUSH2 0x693 JUMP JUMPDEST PUSH2 0x2C6 JUMP JUMPDEST STOP JUMPDEST PUSH1 0x1 SLOAD PUSH2 0x124 SWAP1 PUSH1 0x1 PUSH1 0x1 PUSH1 0xA0 SHL SUB AND DUP2 JUMP JUMPDEST PUSH1 0x40 MLOAD PUSH1 0x1 PUSH1 0x1 PUSH1 0xA0 SHL SUB SWAP1 SWAP2 AND DUP2 MSTORE PUSH1 0x20 ADD PUSH2 0xAC JUMP JUMPDEST PUSH2 0x10F PUSH2 0x14A CALLDATASIZE PUSH1 0x4 PUSH2 0x746 JUMP JUMPDEST PUSH2 0x3AE JUMP JUMPDEST PUSH2 0x10F PUSH2 0x15D CALLDATASIZE PUSH1 0x4 PUSH2 0x659 JUMP JUMPDEST PUSH2 0x4A0 JUMP JUMPDEST PUSH2 0x10F PUSH2 0x170 CALLDATASIZE PUSH1 0x4 PUSH2 0x5CB JUMP JUMPDEST PUSH2 0x50A JUMP JUMPDEST PUSH1 0x3 DUP2 DUP2 SLOAD DUP2 LT PUSH2 0x184 JUMPI PUSH0 DUP1 REVERT JUMPDEST SWAP1 PUSH0 MSTORE PUSH1 0x20 PUSH0 KECCAK256 SWAP1 PUSH1 0x4 MUL ADD PUSH0 SWAP2 POP SWAP1 POP DUP1 PUSH0 ADD DUP1 SLOAD PUSH2 0x1A3 SWAP1 PUSH2 0x778 JUMP JUMPDEST DUP1 PUSH1 0x1F ADD PUSH1 0x20 DUP1 SWAP2 DIV MUL PUSH1 0x20 ADD PUSH1 0x40 MLOAD SWAP1 DUP2 ADD PUSH1 0x40 MSTORE DUP1 SWAP3 SWAP2 SWAP1 DUP2 DUP2 MSTORE PUSH1 0x20 ADD DUP3 DUP1 SLOAD PUSH2 0x1CF SWAP1 PUSH2 0x778 JUMP JUMPDEST DUP1 ISZERO PUSH2 0x21A JUMPI DUP1 PUSH1 0x1F LT PUSH2 0x1F1 JUMPI PUSH2 0x100 DUP1 DUP4 SLOAD DIV MUL DUP4 MSTORE SWAP2 PUSH1 0x20 ADD SWAP2 PUSH2 0x21A JUMP JUMPDEST DUP3 ADD SWAP2 SWAP1 PUSH0 MSTORE PUSH1 0x20 PUSH0 KECCAK256 SWAP1 JUMPDEST DUP2 SLOAD DUP2 MSTORE SWAP1 PUSH1 0x1 ADD SWAP1 PUSH1 0x20 ADD DUP1 DUP4 GT PUSH2 0x1FD JUMPI DUP3 SWAP1 SUB PUSH1 0x1F AND DUP3 ADD SWAP2 JUMPDEST POP POP POP POP PUSH1 0x1 DUP4 ADD SLOAD PUSH1 0x2 DUP5 ADD SLOAD PUSH1 0x3 SWAP1 SWAP5 ADD SLOAD SWAP3 SWAP4 SWAP1 SWAP3 SWAP1 SWAP2 POP PUSH1 0xFF AND DUP5 JUMP JUMPDEST PUSH0 DUP1 SLOAD PUSH2 0x247 SWAP1 PUSH2 0x778 JUMP JUMPDEST DUP1 PUSH1 0x1F ADD PUSH1 0x20 DUP1 SWAP2 DIV MUL PUSH1 0x20 ADD PUSH1 0x40 MLOAD SWAP1 DUP2 ADD PUSH1 0x40 MSTORE DUP1 SWAP3 SWAP2 SWAP1 DUP2 DUP2 MSTORE PUSH1 0x20 ADD DUP3 DUP1 SLOAD PUSH2 0x273 SWAP1 PUSH2 0x778 JUMP JUMPDEST DUP1 ISZERO PUSH2 0x2BE JUMPI DUP1 PUSH1 0x1F LT PUSH2 0x295 JUMPI PUSH2 0x100 DUP1 DUP4 SLOAD DIV MUL DUP4 MSTORE SWAP2 PUSH1 0x20 ADD SWAP2 PUSH2 0x2BE JUMP JUMPDEST DUP3 ADD SWAP2 SWAP1 PUSH0 MSTORE PUSH1 0x20 PUSH0 KECCAK256 SWAP1 JUMPDEST DUP2 SLOAD DUP2 MSTORE SWAP1 PUSH1 0x1 ADD SWAP1 PUSH1 0x20 ADD DUP1 DUP4 GT PUSH2 0x2A1 JUMPI DUP3 SWAP1 SUB PUSH1 0x1F AND DUP3 ADD SWAP2 JUMPDEST POP POP POP POP POP DUP2 JUMP JUMPDEST CALLER PUSH0 SWAP1 DUP2 MSTORE PUSH1 0x2 PUSH1 0x20 MSTORE PUSH1 0x40 SWAP1 KECCAK256 SLOAD PUSH1 0xFF AND PUSH2 0x318 JUMPI PUSH1 0x40 MLOAD PUSH3 0x461BCD PUSH1 0xE5 SHL DUP2 MSTORE PUSH1 0x20 PUSH1 0x4 DUP3 ADD MSTORE PUSH1 0xC PUSH1 0x24 DUP3 ADD MSTORE PUSH12 0x2737BA10309036B2B6B132B9 PUSH1 0xA1 SHL PUSH1 0x44 DUP3 ADD MSTORE PUSH1 0x64 ADD JUMPDEST PUSH1 0x40 MLOAD DUP1 SWAP2 SUB SWAP1 REVERT JUMPDEST PUSH1 0x40 DUP1 MLOAD PUSH1 0x80 DUP2 ADD DUP3 MSTORE DUP3 DUP2 MSTORE PUSH0 PUSH1 0x20 DUP3 ADD DUP2 SWAP1 MSTORE SWAP2 DUP2 ADD DUP3 SWAP1 MSTORE PUSH1 0x60 DUP2 ADD DUP3 SWAP1 MSTORE PUSH1 0x3 DUP1 SLOAD PUSH1 0x1 DUP2 ADD DUP3 SSTORE SWAP3 MSTORE DUP1 MLOAD SWAP1 SWAP2 PUSH1 0x4 MUL PUSH32 0xC2575A0E9E593C00F959F8C92F12DB2869C3395A3B0502D05E2516446F71F85B ADD SWAP1 DUP2 SWAP1 PUSH2 0x37C SWAP1 DUP3 PUSH2 0x7FB JUMP JUMPDEST POP PUSH1 0x20 DUP3 ADD MLOAD PUSH1 0x1 DUP3 ADD SSTORE PUSH1 0x40 DUP3 ADD MLOAD PUSH1 0x2 DUP3 ADD SSTORE PUSH1 0x60 SWAP1 SWAP2 ADD MLOAD PUSH1 0x3 SWAP1 SWAP2 ADD DUP1 SLOAD PUSH1 0xFF NOT AND SWAP2 ISZERO ISZERO SWAP2 SWAP1 SWAP2 OR SWAP1 SSTORE POP JUMP JUMPDEST CALLER PUSH0 SWAP1 DUP2 MSTORE PUSH1 0x2 PUSH1 0x20 MSTORE PUSH1 0x40 SWAP1 KECCAK256 SLOAD PUSH1 0xFF AND PUSH2 0x3FB JUMPI PUSH1 0x40 MLOAD PUSH3 0x461BCD PUSH1 0xE5 SHL DUP2 MSTORE PUSH1 0x20 PUSH1 0x4 DUP3 ADD MSTORE PUSH1 0xC PUSH1 0x24 DUP3 ADD MSTORE PUSH12 0x2737BA10309036B2B6B132B9 PUSH1 0xA1 SHL PUSH1 0x44 DUP3 ADD MSTORE PUSH1 0x64 ADD PUSH2 0x30F JUMP JUMPDEST PUSH0 PUSH1 0x3 DUP4 DUP2 SLOAD DUP2 LT PUSH2 0x40F JUMPI PUSH2 0x40F PUSH2 0x8B6 JUMP JUMPDEST PUSH0 SWAP2 DUP3 MSTORE PUSH1 0x20 SWAP1 SWAP2 KECCAK256 PUSH1 0x4 SWAP1 SWAP2 MUL ADD PUSH1 0x3 DUP2 ADD SLOAD SWAP1 SWAP2 POP PUSH1 0xFF AND ISZERO PUSH2 0x469 JUMPI PUSH1 0x40 MLOAD PUSH3 0x461BCD PUSH1 0xE5 SHL DUP2 MSTORE PUSH1 0x20 PUSH1 0x4 DUP3 ADD MSTORE PUSH1 0x10 PUSH1 0x24 DUP3 ADD MSTORE PUSH16 0x105B1C9958591E48195E1958DD5D1959 PUSH1 0x82 SHL PUSH1 0x44 DUP3 ADD MSTORE PUSH1 0x64 ADD PUSH2 0x30F JUMP JUMPDEST DUP2 ISZERO PUSH2 0x48A JUMPI PUSH1 0x1 DUP2 ADD DUP1 SLOAD SWAP1 PUSH0 PUSH2 0x480 DUP4 PUSH2 0x8CA JUMP JUMPDEST SWAP2 SWAP1 POP SSTORE POP POP POP POP JUMP JUMPDEST PUSH1 0x2 DUP2 ADD DUP1 SLOAD SWAP1 PUSH0 PUSH2 0x480 DUP4 PUSH2 0x8CA JUMP JUMPDEST POP POP POP JUMP JUMPDEST PUSH1 0x1 SLOAD PUSH1 0x1 PUSH1 0x1 PUSH1 0xA0 SHL SUB AND CALLER EQ PUSH2 0x4E7 JUMPI PUSH1 0x40 MLOAD PUSH3 0x461BCD PUSH1 0xE5 SHL DUP2 MSTORE PUSH1 0x20 PUSH1 0x4 DUP3 ADD MSTORE PUSH1 0xA PUSH1 0x24 DUP3 ADD MSTORE PUSH10 0x27B7363C9037BBB732B9 PUSH1 0xB1 SHL PUSH1 0x44 DUP3 ADD MSTORE PUSH1 0x64 ADD PUSH2 0x30F JUMP JUMPDEST PUSH1 0x1 PUSH1 0x1 PUSH1 0xA0 SHL SUB AND PUSH0 SWAP1 DUP2 MSTORE PUSH1 0x2 PUSH1 0x20 MSTORE PUSH1 0x40 SWAP1 KECCAK256 DUP1 SLOAD PUSH1 0xFF NOT AND PUSH1 0x1 OR SWAP1 SSTORE JUMP JUMPDEST PUSH0 PUSH1 0x3 DUP3 DUP2 SLOAD DUP2 LT PUSH2 0x51E JUMPI PUSH2 0x51E PUSH2 0x8B6 JUMP JUMPDEST PUSH0 SWAP2 DUP3 MSTORE PUSH1 0x20 SWAP1 SWAP2 KECCAK256 PUSH1 0x4 SWAP1 SWAP2 MUL ADD PUSH1 0x3 DUP2 ADD SLOAD SWAP1 SWAP2 POP PUSH1 0xFF AND ISZERO PUSH2 0x574 JUMPI PUSH1 0x40 MLOAD PUSH3 0x461BCD PUSH1 0xE5 SHL DUP2 MSTORE PUSH1 0x20 PUSH1 0x4 DUP3 ADD MSTORE PUSH1 0xC PUSH1 0x24 DUP3 ADD MSTORE PUSH12 0x416C726561647920646F6E65 PUSH1 0xA0 SHL PUSH1 0x44 DUP3 ADD MSTORE PUSH1 0x64 ADD PUSH2 0x30F JUMP JUMPDEST DUP1 PUSH1 0x2 ADD SLOAD DUP2 PUSH1 0x1 ADD SLOAD GT PUSH2 0x5BA JUMPI PUSH1 0x40 MLOAD PUSH3 0x461BCD PUSH1 0xE5 SHL DUP2 MSTORE PUSH1 0x20 PUSH1 0x4 DUP3 ADD MSTORE PUSH1 0xC PUSH1 0x24 DUP3 ADD MSTORE PUSH12 0x446964206E6F742070617373 PUSH1 0xA0 SHL PUSH1 0x44 DUP3 ADD MSTORE PUSH1 0x64 ADD PUSH2 0x30F JUMP JUMPDEST PUSH1 0x3 ADD DUP1 SLOAD PUSH1 0xFF NOT AND PUSH1 0x1 OR SWAP1 SSTORE POP JUMP JUMPDEST PUSH0 PUSH1 0x20 DUP3 DUP5 SUB SLT ISZERO PUSH2 0x5DB JUMPI PUSH0 DUP1 REVERT JUMPDEST POP CALLDATALOAD SWAP2 SWAP1 POP JUMP JUMPDEST PUSH0 DUP2 MLOAD DUP1 DUP5 MSTORE DUP1 PUSH1 0x20 DUP5 ADD PUSH1 0x20 DUP7 ADD MCOPY PUSH0 PUSH1 0x20 DUP3 DUP7 ADD ADD MSTORE PUSH1 0x20 PUSH1 0x1F NOT PUSH1 0x1F DUP4 ADD AND DUP6 ADD ADD SWAP2 POP POP SWAP3 SWAP2 POP POP JUMP JUMPDEST PUSH1 0x80 DUP2 MSTORE PUSH0 PUSH2 0x622 PUSH1 0x80 DUP4 ADD DUP8 PUSH2 0x5E2 JUMP JUMPDEST PUSH1 0x20 DUP4 ADD SWAP6 SWAP1 SWAP6 MSTORE POP PUSH1 0x40 DUP2 ADD SWAP3 SWAP1 SWAP3 MSTORE ISZERO ISZERO PUSH1 0x60 SWAP1 SWAP2 ADD MSTORE SWAP2 SWAP1 POP JUMP JUMPDEST PUSH1 0x20 DUP2 MSTORE PUSH0 PUSH2 0x652 PUSH1 0x20 DUP4 ADD DUP5 PUSH2 0x5E2 JUMP JUMPDEST SWAP4 SWAP3 POP POP POP JUMP JUMPDEST PUSH0 PUSH1 0x20 DUP3 DUP5 SUB SLT ISZERO PUSH2 0x669 JUMPI PUSH0 DUP1 REVERT JUMPDEST DUP2 CALLDATALOAD PUSH1 0x1 PUSH1 0x1 PUSH1 0xA0 SHL SUB DUP2 AND DUP2 EQ PUSH2 0x652 JUMPI PUSH0 DUP1 REVERT JUMPDEST PUSH4 0x4E487B71 PUSH1 0xE0 SHL PUSH0 MSTORE PUSH1 0x41 PUSH1 0x4 MSTORE PUSH1 0x24 PUSH0 REVERT JUMPDEST PUSH0 PUSH1 0x20 DUP3 DUP5 SUB SLT ISZERO PUSH2 0x6A3 JUMPI PUSH0 DUP1 REVERT JUMPDEST DUP2 CALLDATALOAD PUSH8 0xFFFFFFFFFFFFFFFF DUP2 GT ISZERO PUSH2 0x6B9 JUMPI PUSH0 DUP1 REVERT JUMPDEST DUP3 ADD PUSH1 0x1F DUP2 ADD DUP5 SGT PUSH2 0x6C9 JUMPI PUSH0 DUP1 REVERT JUMPDEST DUP1 CALLDATALOAD PUSH8 0xFFFFFFFFFFFFFFFF DUP2 GT ISZERO PUSH2 0x6E3 JUMPI PUSH2 0x6E3 PUSH2 0x67F JUMP JUMPDEST PUSH1 0x40 MLOAD PUSH1 0x1F DUP3 ADD PUSH1 0x1F NOT SWAP1 DUP2 AND PUSH1 0x3F ADD AND DUP2 ADD PUSH8 0xFFFFFFFFFFFFFFFF DUP2 GT DUP3 DUP3 LT OR ISZERO PUSH2 0x712 JUMPI PUSH2 0x712 PUSH2 0x67F JUMP JUMPDEST PUSH1 0x40 MSTORE DUP2 DUP2 MSTORE DUP3 DUP3 ADD PUSH1 0x20 ADD DUP7 LT ISZERO PUSH2 0x729 JUMPI PUSH0 DUP1 REVERT JUMPDEST DUP2 PUSH1 0x20 DUP5 ADD PUSH1 0x20 DUP4 ADD CALLDATACOPY PUSH0 SWAP2 DUP2 ADD PUSH1 0x20 ADD SWAP2 SWAP1 SWAP2 MSTORE SWAP5 SWAP4 POP POP POP POP JUMP JUMPDEST PUSH0 DUP1 PUSH1 0x40 DUP4 DUP6 SUB SLT ISZERO PUSH2 0x757 JUMPI PUSH0 DUP1 REVERT JUMPDEST DUP3 CALLDATALOAD SWAP2 POP PUSH1 0x20 DUP4 ADD CALLDATALOAD DUP1 ISZERO ISZERO DUP2 EQ PUSH2 0x76D JUMPI PUSH0 DUP1 REVERT JUMPDEST DUP1 SWAP2 POP POP SWAP3 POP SWAP3 SWAP1 POP JUMP JUMPDEST PUSH1 0x1 DUP2 DUP2 SHR SWAP1 DUP3 AND DUP1 PUSH2 0x78C JUMPI PUSH1 0x7F DUP3 AND SWAP2 POP JUMPDEST PUSH1 0x20 DUP3 LT DUP2 SUB PUSH2 0x7AA JUMPI PUSH4 0x4E487B71 PUSH1 0xE0 SHL PUSH0 MSTORE PUSH1 0x22 PUSH1 0x4 MSTORE PUSH1 0x24 PUSH0 REVERT JUMPDEST POP SWAP2 SWAP1 POP JUMP JUMPDEST PUSH1 0x1F DUP3 GT ISZERO PUSH2 0x49B JUMPI DUP1 PUSH0 MSTORE PUSH1 0x20 PUSH0 KECCAK256 PUSH1 0x1F DUP5 ADD PUSH1 0x5 SHR DUP2 ADD PUSH1 0x20 DUP6 LT ISZERO PUSH2 0x7D5 JUMPI POP DUP1 JUMPDEST PUSH1 0x1F DUP5 ADD PUSH1 0x5 SHR DUP3 ADD SWAP2 POP JUMPDEST DUP2 DUP2 LT ISZERO PUSH2 0x7F4 JUMPI PUSH0 DUP2 SSTORE PUSH1 0x1 ADD PUSH2 0x7E1 JUMP JUMPDEST POP POP POP POP POP JUMP JUMPDEST DUP2 MLOAD PUSH8 0xFFFFFFFFFFFFFFFF DUP2 GT ISZERO PUSH2 0x815 JUMPI PUSH2 0x815 PUSH2 0x67F JUMP JUMPDEST PUSH2 0x829 DUP2 PUSH2 0x823 DUP5 SLOAD PUSH2 0x778 JUMP JUMPDEST DUP5 PUSH2 0x7B0 JUMP JUMPDEST PUSH1 0x20 PUSH1 0x1F DUP3 GT PUSH1 0x1 DUP2 EQ PUSH2 0x85B JUMPI PUSH0 DUP4 ISZERO PUSH2 0x844 JUMPI POP DUP5 DUP3 ADD MLOAD JUMPDEST PUSH0 NOT PUSH1 0x3 DUP6 SWAP1 SHL SHR NOT AND PUSH1 0x1 DUP5 SWAP1 SHL OR DUP5 SSTORE PUSH2 0x7F4 JUMP JUMPDEST PUSH0 DUP5 DUP2 MSTORE PUSH1 0x20 DUP2 KECCAK256 PUSH1 0x1F NOT DUP6 AND SWAP2 JUMPDEST DUP3 DUP2 LT ISZERO PUSH2 0x88A JUMPI DUP8 DUP6 ADD MLOAD DUP3 SSTORE PUSH1 0x20 SWAP5 DUP6 ADD SWAP5 PUSH1 0x1 SWAP1 SWAP3 ADD SWAP2 ADD PUSH2 0x86A JUMP JUMPDEST POP DUP5 DUP3 LT ISZERO PUSH2 0x8A7 JUMPI DUP7 DUP5 ADD MLOAD PUSH0 NOT PUSH1 0x3 DUP8 SWAP1 SHL PUSH1 0xF8 AND SHR NOT AND DUP2 SSTORE JUMPDEST POP POP POP POP PUSH1 0x1 SWAP1 DUP2 SHL ADD SWAP1 SSTORE POP JUMP JUMPDEST PUSH4 0x4E487B71 PUSH1 0xE0 SHL PUSH0 MSTORE PUSH1 0x32 PUSH1 0x4 MSTORE PUSH1 0x24 PUSH0 REVERT JUMPDEST PUSH0 PUSH1 0x1 DUP3 ADD PUSH2 0x8E7 JUMPI PUSH4 0x4E487B71 PUSH1 0xE0 SHL PUSH0 MSTORE PUSH1 0x11 PUSH1 0x4 MSTORE PUSH1 0x24 PUSH0 REVERT JUMPDEST POP PUSH1 0x1 ADD SWAP1 JUMP INVALID LOG2 PUSH5 0x6970667358 0x22 SLT KECCAK256 DUP1 0xE7 JUMPI 0xED DUP11 SLOAD PUSH13 0x23EF63534DF64E583CCB78B649 0xD6 PUSH27 0x3FABDE2A3B09150CB5A464736F6C634300081A0033000000000000 "
				},
				"gasEstimates": {
					"creation": {
						"codeDepositCost": "468000",
						"executionCost": "infinite",
						"totalCost": "infinite"
					},
					"external": {
						"addMember(address)": "26756",
						"createProposal(string)": "infinite",
						"execute(uint256)": "33093",
						"members(address)": "2538",
						"name()": "infinite",
						"owner()": "2336",
						"proposals(uint256)": "infinite",
						"vote(uint256,bool)": "31156"
					}
				},
				"methodIdentifiers": {
					"addMember(address)": "ca6d56dc",
					"createProposal(string)": "49c2a1a6",
					"execute(uint256)": "fe0d94c1",
					"members(address)": "08ae4b0c",
					"name()": "06fdde03",
					"owner()": "8da5cb5b",
					"proposals(uint256)": "013cf08b",
					"vote(uint256,bool)": "c9d27afe"
				}
			},
			"storageLayout": {
				"storage": [
					{
						"astId": 3,
						"contract": "dao.sol:DAO",
						"label": "name",
						"offset": 0,
						"slot": "0",
						"type": "t_string_storage"
					},
					{
						"astId": 5,
						"contract": "dao.sol:DAO",
						"label": "owner",
						"offset": 0,
						"slot": "1",
						"type": "t_address"
					},
					{
						"astId": 9,
						"contract": "dao.sol:DAO",
						"label": "members",
						"offset": 0,
						"slot": "2",
						"type": "t_mapping(t_address,t_bool)"
					},
					{
						"astId": 22,
						"contract": "dao.sol:DAO",
						"label": "proposals",
						"offset": 0,
						"slot": "3",
						"type": "t_array(t_struct(Proposal)18_storage)dyn_storage"
					}
				],
				"types": {
					"t_address": {
						"encoding": "inplace",
						"label": "address",
						"numberOfBytes": "20"
					},
					"t_array(t_struct(Proposal)18_storage)dyn_storage": {
						"base": "t_struct(Proposal)18_storage",
						"encoding": "dynamic_array",
						"label": "struct DAO.Proposal[]",
						"numberOfBytes": "32"
					},
					"t_bool": {
						"encoding": "inplace",
						"label": "bool",
						"numberOfBytes": "1"
					},
					"t_mapping(t_address,t_bool)": {
						"encoding": "mapping",
						"key": "t_address",
						"label": "mapping(address => bool)",
						"numberOfBytes": "32",
						"value": "t_bool"
					},
					"t_string_storage": {
						"encoding": "bytes",
						"label": "string",
						"numberOfBytes": "32"
					},
					"t_struct(Proposal)18_storage": {
						"encoding": "inplace",
						"label": "struct DAO.Proposal",
						"members": [
							{
								"astId": 11,
								"contract": "dao.sol:DAO",
								"label": "description",
								"offset": 0,
								"slot": "0",
								"type": "t_string_storage"
							},
							{
								"astId": 13,
								"contract": "dao.sol:DAO",
								"label": "yesVotes",
								"offset": 0,
								"slot": "1",
								"type": "t_uint256"
							},
							{
								"astId": 15,
								"contract": "dao.sol:DAO",
								"label": "noVotes",
								"offset": 0,
								"slot": "2",
								"type": "t_uint256"
							},
							{
								"astId": 17,
								"contract": "dao.sol:DAO",
								"label": "executed",
								"offset": 0,
								"slot": "3",
								"type": "t_bool"
							}
						],
						"numberOfBytes": "128"
					},
					"t_uint256": {
						"encoding": "inplace",
						"label": "uint256",
						"numberOfBytes": "32"
					}
				}
			},
			"userdoc": {
				"kind": "user",
				"methods": {},
				"version": 1
			}
		}
	}
}