{
	"newfunbatch.sol": {
		"BatchDeploySubscriptions": {
			"abi": [
				{
					"inputs": [],
					"stateMutability": "nonpayable",
					"type": "constructor"
				},
				{
					"anonymous": false,
					"inputs": [
						{
							"indexed": false,
							"internalType": "uint256",
							"name": "index",
							"type": "uint256"
						},
						{
							"indexed": false,
							"internalType": "uint256",
							"name": "oldPrice",
							"type": "uint256"
						},
						{
							"indexed": false,
							"internalType": "uint256",
							"name": "newPrice",
							"type": "uint256"
						}
					],
					"name": "PriceUpdated",
					"type": "event"
				},
				{
					"anonymous": false,
					"inputs": [
						{
							"indexed": false,
							"internalType": "address",
							"name": "serviceAddress",
							"type": "address"
						},
						{
							"indexed": false,
							"internalType": "uint256",
							"name": "price",
							"type": "uint256"
						}
					],
					"name": "ServiceDeployed",
					"type": "event"
				},
				{
					"inputs": [],
					"name": "deployAll",
					"outputs": [],
					"stateMutability": "nonpayable",
					"type": "function"
				},
				{
					"inputs": [
						{
							"internalType": "uint256",
							"name": "count",
							"type": "uint256"
						},
						{
							"internalType": "uint256",
							"name": "_price",
							"type": "uint256"
						}
					],
					"name": "deployMore",
					"outputs": [],
					"stateMutability": "nonpayable",
					"type": "function"
				},
				{
					"inputs": [
						{
							"internalType": "uint256",
							"name": "index",
							"type": "uint256"
						}
					],
					"name": "get",
					"outputs": [
						{
							"internalType": "address",
							"name": "",
							"type": "address"
						}
					],
					"stateMutability": "view",
					"type": "function"
				},
				{
					"inputs": [
						{
							"internalType": "uint256",
							"name": "start",
							"type": "uint256"
						},
						{
							"internalType": "uint256",
							"name": "end",
							"type": "uint256"
						}
					],
					"name": "getBatch",
					"outputs": [
						{
							"internalType": "address[]",
							"name": "",
							"type": "address[]"
						}
					],
					"stateMutability": "view",
					"type": "function"
				},
				{
					"inputs": [],
					"name": "owner",
					"outputs": [
						{
							"internalType": "address",
							"name": "",
							"type": "address"
						}
					],
					"stateMutability": "view",
					"type": "function"
				},
				{
					"inputs": [
						{
							"internalType": "uint256",
							"name": "",
							"type": "uint256"
						}
					],
					"name": "services",
					"outputs": [
						{
							"internalType": "contract Subscription",
							"name": "",
							"type": "address"
						}
					],
					"stateMutability": "view",
					"type": "function"
				},
				{
					"inputs": [],
					"name": "totalServices",
					"outputs": [
						{
							"internalType": "uint256",
							"name": "",
							"type": "uint256"
						}
					],
					"stateMutability": "view",
					"type": "function"
				},
				{
					"inputs": [
						{
							"internalType": "uint256",
							"name": "index",
							"type": "uint256"
						},
						{
							"internalType": "uint256",
							"name": "_newPrice",
							"type": "uint256"
						}
					],
					"name": "updateSubscriptionPrice",
					"outputs": [],
					"stateMutability": "nonpayable",
					"type": "function"
				}
			],
			"devdoc": {
				"kind": "dev",
				"methods": {},
				"version": 1
			},
			"evm": {
				"assembly": "    /* \"newfunbatch.sol\":523:2720  contract BatchDeploySubscriptions {... */\n  mstore(0x40, 0x80)\n    /* \"newfunbatch.sol\":873:924  constructor() {... */\n  callvalue\n  dup1\n  iszero\n  tag_1\n  jumpi\n  0x00\n  dup1\n  revert\ntag_1:\n  pop\n    /* \"newfunbatch.sol\":898:903  owner */\n  0x01\n    /* \"newfunbatch.sol\":898:916  owner = msg.sender */\n  dup1\n  sload\n  not(sub(shl(0xa0, 0x01), 0x01))\n  and\n    /* \"newfunbatch.sol\":906:916  msg.sender */\n  caller\n    /* \"newfunbatch.sol\":898:916  owner = msg.sender */\n  or\n  swap1\n  sstore\n    /* \"newfunbatch.sol\":523:2720  contract BatchDeploySubscriptions {... */\n  dataSize(sub_0)\n  dup1\n  dataOffset(sub_0)\n  0x00\n  codecopy\n  0x00\n  return\nstop\n\nsub_0: assembly {\n        /* \"newfunbatch.sol\":523:2720  contract BatchDeploySubscriptions {... */\n      mstore(0x40, 0x80)\n      callvalue\n      dup1\n      iszero\n      tag_1\n      jumpi\n      0x00\n      dup1\n      revert\n    tag_1:\n      pop\n      jumpi(tag_2, lt(calldatasize, 0x04))\n      shr(0xe0, calldataload(0x00))\n      dup1\n      0x8da5cb5b\n      gt\n      tag_11\n      jumpi\n      dup1\n      0x8da5cb5b\n      eq\n      tag_7\n      jumpi\n      dup1\n      0x9507d39a\n      eq\n      tag_8\n      jumpi\n      dup1\n      0xc22c4f43\n      eq\n      tag_9\n      jumpi\n      dup1\n      0xfe918e68\n      eq\n      tag_10\n      jumpi\n      0x00\n      dup1\n      revert\n    tag_11:\n      dup1\n      0x2d823335\n      eq\n      tag_3\n      jumpi\n      dup1\n      0x50176d87\n      eq\n      tag_4\n      jumpi\n      dup1\n      0x6301ac8f\n      eq\n      tag_5\n      jumpi\n      dup1\n      0x667e9660\n      eq\n      tag_6\n      jumpi\n    tag_2:\n      0x00\n      dup1\n      revert\n        /* \"newfunbatch.sol\":961:1271  function deployAll() public onlyOwner {... */\n    tag_3:\n      tag_12\n      tag_13\n      jump\t// in\n    tag_12:\n      stop\n        /* \"newfunbatch.sol\":1328:1595  function deployMore(uint count, uint _price) public onlyOwner {... */\n    tag_4:\n      tag_12\n      tag_15\n      calldatasize\n      0x04\n      tag_16\n      jump\t// in\n    tag_15:\n      tag_17\n      jump\t// in\n        /* \"newfunbatch.sol\":2220:2313  function totalServices() public view returns (uint) {... */\n    tag_5:\n        /* \"newfunbatch.sol\":2266:2270  uint */\n      0x00\n        /* \"newfunbatch.sol\":2290:2305  services.length */\n      sload\n        /* \"newfunbatch.sol\":2220:2313  function totalServices() public view returns (uint) {... */\n      mload(0x40)\n        /* \"#utility.yul\":511:536   */\n      swap1\n      dup2\n      mstore\n        /* \"#utility.yul\":499:501   */\n      0x20\n        /* \"#utility.yul\":484:502   */\n      add\n        /* \"newfunbatch.sol\":2220:2313  function totalServices() public view returns (uint) {... */\n    tag_20:\n      mload(0x40)\n      dup1\n      swap2\n      sub\n      swap1\n      return\n        /* \"newfunbatch.sol\":1652:1958  function updateSubscriptionPrice(uint index, uint _newPrice) public onlyOwner {... */\n    tag_6:\n      tag_12\n      tag_23\n      calldatasize\n      0x04\n      tag_16\n      jump\t// in\n    tag_23:\n      tag_24\n      jump\t// in\n        /* \"newfunbatch.sol\":601:621  address public owner */\n    tag_7:\n      sload(0x01)\n      tag_25\n      swap1\n      sub(shl(0xa0, 0x01), 0x01)\n      and\n      dup2\n      jump\n    tag_25:\n      mload(0x40)\n      sub(shl(0xa0, 0x01), 0x01)\n        /* \"#utility.yul\":711:743   */\n      swap1\n      swap2\n      and\n        /* \"#utility.yul\":693:744   */\n      dup2\n      mstore\n        /* \"#utility.yul\":681:683   */\n      0x20\n        /* \"#utility.yul\":666:684   */\n      add\n        /* \"newfunbatch.sol\":601:621  address public owner */\n      tag_20\n        /* \"#utility.yul\":547:750   */\n      jump\n        /* \"newfunbatch.sol\":2011:2176  function get(uint index) public view returns (address) {... */\n    tag_8:\n      tag_25\n      tag_30\n      calldatasize\n      0x04\n      tag_31\n      jump\t// in\n    tag_30:\n      tag_32\n      jump\t// in\n        /* \"newfunbatch.sol\":564:594  Subscription[] public services */\n    tag_9:\n      tag_25\n      tag_35\n      calldatasize\n      0x04\n      tag_31\n      jump\t// in\n    tag_35:\n      tag_36\n      jump\t// in\n        /* \"newfunbatch.sol\":2360:2717  function getBatch(uint start, uint end) public view returns (address[] memory) {... */\n    tag_10:\n      tag_39\n      tag_40\n      calldatasize\n      0x04\n      tag_16\n      jump\t// in\n    tag_40:\n      tag_41\n      jump\t// in\n    tag_39:\n      mload(0x40)\n      tag_20\n      swap2\n      swap1\n      tag_43\n      jump\t// in\n        /* \"newfunbatch.sol\":961:1271  function deployAll() public onlyOwner {... */\n    tag_13:\n        /* \"newfunbatch.sol\":817:822  owner */\n      and(sub(shl(0xa0, 0x01), 0x01), sload(0x01))\n        /* \"newfunbatch.sol\":803:813  msg.sender */\n      caller\n        /* \"newfunbatch.sol\":803:822  msg.sender == owner */\n      eq\n        /* \"newfunbatch.sol\":795:845  require(msg.sender == owner, \"Not contract owner\") */\n      tag_45\n      jumpi\n      mload(0x40)\n      shl(0xe5, 0x461bcd)\n      dup2\n      mstore\n      0x04\n      add\n      tag_46\n      swap1\n      tag_47\n      jump\t// in\n    tag_46:\n      mload(0x40)\n      dup1\n      swap2\n      sub\n      swap1\n      revert\n    tag_45:\n        /* \"newfunbatch.sol\":1018:1026  services */\n      0x00\n        /* \"newfunbatch.sol\":1018:1033  services.length */\n      sload\n        /* \"newfunbatch.sol\":1018:1038  services.length == 0 */\n      iszero\n        /* \"newfunbatch.sol\":1010:1059  require(services.length == 0, \"Already deployed\") */\n      tag_49\n      jumpi\n      mload(0x40)\n      shl(0xe5, 0x461bcd)\n      dup2\n      mstore\n        /* \"#utility.yul\":2404:2406   */\n      0x20\n        /* \"newfunbatch.sol\":1010:1059  require(services.length == 0, \"Already deployed\") */\n      0x04\n      dup3\n      add\n        /* \"#utility.yul\":2386:2407   */\n      mstore\n        /* \"#utility.yul\":2443:2445   */\n      0x10\n        /* \"#utility.yul\":2423:2441   */\n      0x24\n      dup3\n      add\n        /* \"#utility.yul\":2416:2446   */\n      mstore\n      shl(0x82, 0x105b1c9958591e4819195c1b1bde5959)\n        /* \"#utility.yul\":2462:2480   */\n      0x44\n      dup3\n      add\n        /* \"#utility.yul\":2455:2501   */\n      mstore\n        /* \"#utility.yul\":2518:2536   */\n      0x64\n      add\n        /* \"newfunbatch.sol\":1010:1059  require(services.length == 0, \"Already deployed\") */\n      tag_46\n        /* \"#utility.yul\":2202:2542   */\n      jump\n        /* \"newfunbatch.sol\":1010:1059  require(services.length == 0, \"Already deployed\") */\n    tag_49:\n        /* \"newfunbatch.sol\":1084:1085  1 */\n      0x01\n        /* \"newfunbatch.sol\":1070:1264  for (uint i = 1; i <= 120; i++) {... */\n    tag_52:\n        /* \"newfunbatch.sol\":1092:1095  120 */\n      0x78\n        /* \"newfunbatch.sol\":1087:1088  i */\n      dup2\n        /* \"newfunbatch.sol\":1087:1095  i <= 120 */\n      gt\n        /* \"newfunbatch.sol\":1070:1264  for (uint i = 1; i <= 120; i++) {... */\n      tag_53\n      jumpi\n        /* \"newfunbatch.sol\":1117:1131  Subscription s */\n      0x00\n        /* \"newfunbatch.sol\":1151:1161  0.01 ether */\n      0x2386f26fc10000\n        /* \"newfunbatch.sol\":1134:1162  new Subscription(0.01 ether) */\n      mload(0x40)\n      tag_55\n      swap1\n      tag_56\n      jump\t// in\n    tag_55:\n        /* \"#utility.yul\":511:536   */\n      swap1\n      dup2\n      mstore\n        /* \"#utility.yul\":499:501   */\n      0x20\n        /* \"#utility.yul\":484:502   */\n      add\n        /* \"newfunbatch.sol\":1134:1162  new Subscription(0.01 ether) */\n      mload(0x40)\n      dup1\n      swap2\n      sub\n      swap1\n      0x00\n      create\n      dup1\n      iszero\n      dup1\n      iszero\n      tag_59\n      jumpi\n      returndatasize\n      0x00\n      dup1\n      returndatacopy\n      revert(0x00, returndatasize)\n    tag_59:\n      pop\n        /* \"newfunbatch.sol\":1177:1185  services */\n      0x00\n        /* \"newfunbatch.sol\":1177:1193  services.push(s) */\n      dup1\n      sload\n      0x01\n      dup2\n      add\n      dup3\n      sstore\n      swap1\n      dup1\n      mstore\n      0x290decd9548b62a8d60345a988386fc84ba6bc95484008f6362f93160ef3e563\n      add\n      dup1\n      sload\n      not(sub(shl(0xa0, 0x01), 0x01))\n      and\n      sub(shl(0xa0, 0x01), 0x01)\n      dup4\n      and\n      swap1\n      dup2\n      or\n      swap1\n      swap2\n      sstore\n        /* \"newfunbatch.sol\":1213:1252  ServiceDeployed(address(s), 0.01 ether) */\n      0x40\n      dup1\n      mload\n        /* \"#utility.yul\":2951:3002   */\n      swap2\n      dup3\n      mstore\n        /* \"newfunbatch.sol\":1241:1251  0.01 ether */\n      0x2386f26fc10000\n        /* \"#utility.yul\":3033:3035   */\n      0x20\n        /* \"#utility.yul\":3018:3036   */\n      dup4\n      add\n        /* \"#utility.yul\":3011:3045   */\n      mstore\n        /* \"newfunbatch.sol\":1177:1193  services.push(s) */\n      swap2\n      swap3\n      pop\n        /* \"newfunbatch.sol\":1213:1252  ServiceDeployed(address(s), 0.01 ether) */\n      0xdee7f9f5d5947a9c6657741a7b8cd7dd8d9d465ab5771a6a2bc4ef074209c0ff\n      swap2\n        /* \"#utility.yul\":2924:2942   */\n      add\n        /* \"newfunbatch.sol\":1213:1252  ServiceDeployed(address(s), 0.01 ether) */\n      mload(0x40)\n      dup1\n      swap2\n      sub\n      swap1\n      log1\n      pop\n        /* \"newfunbatch.sol\":1097:1100  i++ */\n      dup1\n      tag_63\n      dup2\n      tag_64\n      jump\t// in\n    tag_63:\n      swap2\n      pop\n      pop\n        /* \"newfunbatch.sol\":1070:1264  for (uint i = 1; i <= 120; i++) {... */\n      jump(tag_52)\n    tag_53:\n      pop\n        /* \"newfunbatch.sol\":961:1271  function deployAll() public onlyOwner {... */\n      jump\t// out\n        /* \"newfunbatch.sol\":1328:1595  function deployMore(uint count, uint _price) public onlyOwner {... */\n    tag_17:\n        /* \"newfunbatch.sol\":817:822  owner */\n      and(sub(shl(0xa0, 0x01), 0x01), sload(0x01))\n        /* \"newfunbatch.sol\":803:813  msg.sender */\n      caller\n        /* \"newfunbatch.sol\":803:822  msg.sender == owner */\n      eq\n        /* \"newfunbatch.sol\":795:845  require(msg.sender == owner, \"Not contract owner\") */\n      tag_66\n      jumpi\n      mload(0x40)\n      shl(0xe5, 0x461bcd)\n      dup2\n      mstore\n      0x04\n      add\n      tag_46\n      swap1\n      tag_47\n      jump\t// in\n    tag_66:\n        /* \"newfunbatch.sol\":1406:1412  uint i */\n      0x00\n        /* \"newfunbatch.sol\":1401:1588  for (uint i = 0; i < count; i++) {... */\n    tag_69:\n        /* \"newfunbatch.sol\":1422:1427  count */\n      dup3\n        /* \"newfunbatch.sol\":1418:1419  i */\n      dup2\n        /* \"newfunbatch.sol\":1418:1427  i < count */\n      lt\n        /* \"newfunbatch.sol\":1401:1588  for (uint i = 0; i < count; i++) {... */\n      iszero\n      tag_70\n      jumpi\n        /* \"newfunbatch.sol\":1449:1463  Subscription s */\n      0x00\n        /* \"newfunbatch.sol\":1483:1489  _price */\n      dup3\n        /* \"newfunbatch.sol\":1466:1490  new Subscription(_price) */\n      mload(0x40)\n      tag_72\n      swap1\n      tag_56\n      jump\t// in\n    tag_72:\n        /* \"#utility.yul\":511:536   */\n      swap1\n      dup2\n      mstore\n        /* \"#utility.yul\":499:501   */\n      0x20\n        /* \"#utility.yul\":484:502   */\n      add\n        /* \"newfunbatch.sol\":1466:1490  new Subscription(_price) */\n      mload(0x40)\n      dup1\n      swap2\n      sub\n      swap1\n      0x00\n      create\n      dup1\n      iszero\n      dup1\n      iszero\n      tag_74\n      jumpi\n      returndatasize\n      0x00\n      dup1\n      returndatacopy\n      revert(0x00, returndatasize)\n    tag_74:\n      pop\n        /* \"newfunbatch.sol\":1505:1513  services */\n      0x00\n        /* \"newfunbatch.sol\":1505:1521  services.push(s) */\n      dup1\n      sload\n      0x01\n      dup2\n      add\n      dup3\n      sstore\n      swap1\n      dup1\n      mstore\n      0x290decd9548b62a8d60345a988386fc84ba6bc95484008f6362f93160ef3e563\n      add\n      dup1\n      sload\n      not(sub(shl(0xa0, 0x01), 0x01))\n      and\n      sub(shl(0xa0, 0x01), 0x01)\n      dup4\n      and\n      swap1\n      dup2\n      or\n      swap1\n      swap2\n      sstore\n        /* \"newfunbatch.sol\":1541:1576  ServiceDeployed(address(s), _price) */\n      0x40\n      dup1\n      mload\n        /* \"#utility.yul\":2951:3002   */\n      swap2\n      dup3\n      mstore\n        /* \"#utility.yul\":3033:3035   */\n      0x20\n        /* \"#utility.yul\":3018:3036   */\n      dup3\n      add\n        /* \"#utility.yul\":3011:3045   */\n      dup7\n      swap1\n      mstore\n        /* \"newfunbatch.sol\":1505:1521  services.push(s) */\n      swap2\n      swap3\n      pop\n        /* \"newfunbatch.sol\":1541:1576  ServiceDeployed(address(s), _price) */\n      0xdee7f9f5d5947a9c6657741a7b8cd7dd8d9d465ab5771a6a2bc4ef074209c0ff\n      swap2\n        /* \"#utility.yul\":2924:2942   */\n      add\n        /* \"newfunbatch.sol\":1541:1576  ServiceDeployed(address(s), _price) */\n      mload(0x40)\n      dup1\n      swap2\n      sub\n      swap1\n      log1\n      pop\n        /* \"newfunbatch.sol\":1429:1432  i++ */\n      0x01\n      add\n        /* \"newfunbatch.sol\":1401:1588  for (uint i = 0; i < count; i++) {... */\n      jump(tag_69)\n    tag_70:\n      pop\n        /* \"newfunbatch.sol\":1328:1595  function deployMore(uint count, uint _price) public onlyOwner {... */\n      pop\n      pop\n      jump\t// out\n        /* \"newfunbatch.sol\":1652:1958  function updateSubscriptionPrice(uint index, uint _newPrice) public onlyOwner {... */\n    tag_24:\n        /* \"newfunbatch.sol\":817:822  owner */\n      and(sub(shl(0xa0, 0x01), 0x01), sload(0x01))\n        /* \"newfunbatch.sol\":803:813  msg.sender */\n      caller\n        /* \"newfunbatch.sol\":803:822  msg.sender == owner */\n      eq\n        /* \"newfunbatch.sol\":795:845  require(msg.sender == owner, \"Not contract owner\") */\n      tag_80\n      jumpi\n      mload(0x40)\n      shl(0xe5, 0x461bcd)\n      dup2\n      mstore\n      0x04\n      add\n      tag_46\n      swap1\n      tag_47\n      jump\t// in\n    tag_80:\n        /* \"newfunbatch.sol\":1757:1765  services */\n      0x00\n        /* \"newfunbatch.sol\":1757:1772  services.length */\n      sload\n        /* \"newfunbatch.sol\":1749:1772  index < services.length */\n      dup3\n      lt\n        /* \"newfunbatch.sol\":1741:1790  require(index < services.length, \"Invalid index\") */\n      tag_83\n      jumpi\n      mload(0x40)\n      shl(0xe5, 0x461bcd)\n      dup2\n      mstore\n        /* \"#utility.yul\":3809:3811   */\n      0x20\n        /* \"newfunbatch.sol\":1741:1790  require(index < services.length, \"Invalid index\") */\n      0x04\n      dup3\n      add\n        /* \"#utility.yul\":3791:3812   */\n      mstore\n        /* \"#utility.yul\":3848:3850   */\n      0x0d\n        /* \"#utility.yul\":3828:3846   */\n      0x24\n      dup3\n      add\n        /* \"#utility.yul\":3821:3851   */\n      mstore\n      shl(0x9b, 0x092dcecc2d8d2c840d2dcc8caf)\n        /* \"#utility.yul\":3867:3885   */\n      0x44\n      dup3\n      add\n        /* \"#utility.yul\":3860:3903   */\n      mstore\n        /* \"#utility.yul\":3920:3938   */\n      0x64\n      add\n        /* \"newfunbatch.sol\":1741:1790  require(index < services.length, \"Invalid index\") */\n      tag_46\n        /* \"#utility.yul\":3607:3944   */\n      jump\n        /* \"newfunbatch.sol\":1741:1790  require(index < services.length, \"Invalid index\") */\n    tag_83:\n        /* \"newfunbatch.sol\":1801:1815  Subscription s */\n      0x00\n        /* \"newfunbatch.sol\":1818:1826  services */\n      dup1\n        /* \"newfunbatch.sol\":1827:1832  index */\n      dup4\n        /* \"newfunbatch.sol\":1818:1833  services[index] */\n      dup2\n      sload\n      dup2\n      lt\n      tag_87\n      jumpi\n      tag_87\n      tag_88\n      jump\t// in\n    tag_87:\n      0x00\n      swap2\n      dup3\n      mstore\n      0x20\n      dup1\n      dup4\n      keccak256\n      swap1\n      swap2\n      add\n      sload\n        /* \"newfunbatch.sol\":1855:1864  s.price() */\n      0x40\n      dup1\n      mload\n      shl(0xe1, 0x501ad8ff)\n      dup2\n      mstore\n      swap1\n      mload\n      sub(shl(0xa0, 0x01), 0x01)\n        /* \"newfunbatch.sol\":1818:1833  services[index] */\n      swap1\n      swap3\n      and\n      swap5\n      pop\n      dup5\n      swap3\n        /* \"newfunbatch.sol\":1855:1862  s.price */\n      0xa035b1fe\n      swap3\n        /* \"newfunbatch.sol\":1855:1864  s.price() */\n      0x04\n      dup1\n      dup5\n      add\n      swap4\n      dup3\n      swap1\n      sub\n      add\n      dup2\n        /* \"newfunbatch.sol\":1818:1833  services[index] */\n      dup7\n        /* \"newfunbatch.sol\":1855:1864  s.price() */\n      gas\n      staticcall\n      iszero\n      dup1\n      iszero\n      tag_91\n      jumpi\n      returndatasize\n      0x00\n      dup1\n      returndatacopy\n      revert(0x00, returndatasize)\n    tag_91:\n      pop\n      pop\n      pop\n      pop\n      mload(0x40)\n      returndatasize\n      not(0x1f)\n      0x1f\n      dup3\n      add\n      and\n      dup3\n      add\n      dup1\n      0x40\n      mstore\n      pop\n      dup2\n      add\n      swap1\n      tag_92\n      swap2\n      swap1\n      tag_93\n      jump\t// in\n    tag_92:\n        /* \"newfunbatch.sol\":1875:1899  s.updatePrice(_newPrice) */\n      mload(0x40)\n      shl(0xe0, 0x8d6cc56d)\n      dup2\n      mstore\n      0x04\n      dup2\n      add\n        /* \"#utility.yul\":511:536   */\n      dup6\n      swap1\n      mstore\n        /* \"newfunbatch.sol\":1844:1864  uint old = s.price() */\n      swap1\n      swap2\n      pop\n      sub(shl(0xa0, 0x01), 0x01)\n        /* \"newfunbatch.sol\":1875:1888  s.updatePrice */\n      dup4\n      and\n      swap1\n      0x8d6cc56d\n      swap1\n        /* \"#utility.yul\":484:502   */\n      0x24\n      add\n        /* \"newfunbatch.sol\":1875:1899  s.updatePrice(_newPrice) */\n      0x00\n      mload(0x40)\n      dup1\n      dup4\n      sub\n      dup2\n      0x00\n      dup8\n      dup1\n      extcodesize\n      iszero\n      dup1\n      iszero\n      tag_95\n      jumpi\n      0x00\n      dup1\n      revert\n    tag_95:\n      pop\n      gas\n      call\n      iszero\n      dup1\n      iszero\n      tag_97\n      jumpi\n      returndatasize\n      0x00\n      dup1\n      returndatacopy\n      revert(0x00, returndatasize)\n    tag_97:\n      pop\n      pop\n        /* \"newfunbatch.sol\":1915:1950  PriceUpdated(index, old, _newPrice) */\n      0x40\n      dup1\n      mload\n        /* \"#utility.yul\":4472:4497   */\n      dup8\n      dup2\n      mstore\n        /* \"#utility.yul\":4528:4530   */\n      0x20\n        /* \"#utility.yul\":4513:4531   */\n      dup2\n      add\n        /* \"#utility.yul\":4506:4540   */\n      dup6\n      swap1\n      mstore\n        /* \"#utility.yul\":4556:4574   */\n      swap1\n      dup2\n      add\n        /* \"#utility.yul\":4549:4583   */\n      dup7\n      swap1\n      mstore\n        /* \"newfunbatch.sol\":1915:1950  PriceUpdated(index, old, _newPrice) */\n      0x15819dd2fd9f6418b142e798d08a18d0bf06ea368f4480b7b0d3f75bd966bc48\n      swap3\n      pop\n        /* \"#utility.yul\":4460:4462   */\n      0x60\n        /* \"#utility.yul\":4445:4463   */\n      add\n      swap1\n      pop\n        /* \"newfunbatch.sol\":1915:1950  PriceUpdated(index, old, _newPrice) */\n      mload(0x40)\n      dup1\n      swap2\n      sub\n      swap1\n      log1\n        /* \"newfunbatch.sol\":1730:1958  {... */\n      pop\n      pop\n        /* \"newfunbatch.sol\":1652:1958  function updateSubscriptionPrice(uint index, uint _newPrice) public onlyOwner {... */\n      pop\n      pop\n      jump\t// out\n        /* \"newfunbatch.sol\":2011:2176  function get(uint index) public view returns (address) {... */\n    tag_32:\n        /* \"newfunbatch.sol\":2057:2064  address */\n      0x00\n        /* \"newfunbatch.sol\":2093:2108  services.length */\n      dup1\n      sload\n        /* \"newfunbatch.sol\":2085:2108  index < services.length */\n      dup3\n      lt\n        /* \"newfunbatch.sol\":2077:2126  require(index < services.length, \"Invalid index\") */\n      tag_101\n      jumpi\n      mload(0x40)\n      shl(0xe5, 0x461bcd)\n      dup2\n      mstore\n        /* \"#utility.yul\":3809:3811   */\n      0x20\n        /* \"newfunbatch.sol\":2077:2126  require(index < services.length, \"Invalid index\") */\n      0x04\n      dup3\n      add\n        /* \"#utility.yul\":3791:3812   */\n      mstore\n        /* \"#utility.yul\":3848:3850   */\n      0x0d\n        /* \"#utility.yul\":3828:3846   */\n      0x24\n      dup3\n      add\n        /* \"#utility.yul\":3821:3851   */\n      mstore\n      shl(0x9b, 0x092dcecc2d8d2c840d2dcc8caf)\n        /* \"#utility.yul\":3867:3885   */\n      0x44\n      dup3\n      add\n        /* \"#utility.yul\":3860:3903   */\n      mstore\n        /* \"#utility.yul\":3920:3938   */\n      0x64\n      add\n        /* \"newfunbatch.sol\":2077:2126  require(index < services.length, \"Invalid index\") */\n      tag_46\n        /* \"#utility.yul\":3607:3944   */\n      jump\n        /* \"newfunbatch.sol\":2077:2126  require(index < services.length, \"Invalid index\") */\n    tag_101:\n        /* \"newfunbatch.sol\":2152:2160  services */\n      0x00\n        /* \"newfunbatch.sol\":2161:2166  index */\n      dup3\n        /* \"newfunbatch.sol\":2152:2167  services[index] */\n      dup2\n      sload\n      dup2\n      lt\n      tag_104\n      jumpi\n      tag_104\n      tag_88\n      jump\t// in\n    tag_104:\n      0x00\n      swap2\n      dup3\n      mstore\n      0x20\n      swap1\n      swap2\n      keccak256\n      add\n      sload\n      sub(shl(0xa0, 0x01), 0x01)\n      and\n      swap3\n        /* \"newfunbatch.sol\":2011:2176  function get(uint index) public view returns (address) {... */\n      swap2\n      pop\n      pop\n      jump\t// out\n        /* \"newfunbatch.sol\":564:594  Subscription[] public services */\n    tag_36:\n      0x00\n      dup2\n      dup2\n      sload\n      dup2\n      lt\n      tag_106\n      jumpi\n      0x00\n      dup1\n      revert\n    tag_106:\n      0x00\n      swap2\n      dup3\n      mstore\n      0x20\n      swap1\n      swap2\n      keccak256\n      add\n      sload\n      sub(shl(0xa0, 0x01), 0x01)\n      and\n      swap1\n      pop\n      dup2\n      jump\t// out\n        /* \"newfunbatch.sol\":2360:2717  function getBatch(uint start, uint end) public view returns (address[] memory) {... */\n    tag_41:\n        /* \"newfunbatch.sol\":2421:2437  address[] memory */\n      0x60\n        /* \"newfunbatch.sol\":2466:2469  end */\n      dup2\n        /* \"newfunbatch.sol\":2458:2463  start */\n      dup4\n        /* \"newfunbatch.sol\":2458:2469  start < end */\n      lt\n        /* \"newfunbatch.sol\":2458:2495  start < end && end <= services.length */\n      dup1\n      iszero\n      tag_109\n      jumpi\n      pop\n        /* \"newfunbatch.sol\":2480:2488  services */\n      0x00\n        /* \"newfunbatch.sol\":2480:2495  services.length */\n      sload\n        /* \"newfunbatch.sol\":2473:2495  end <= services.length */\n      dup3\n      gt\n      iszero\n        /* \"newfunbatch.sol\":2458:2495  start < end && end <= services.length */\n    tag_109:\n        /* \"newfunbatch.sol\":2450:2513  require(start < end && end <= services.length, \"Invalid range\") */\n      tag_110\n      jumpi\n      mload(0x40)\n      shl(0xe5, 0x461bcd)\n      dup2\n      mstore\n        /* \"#utility.yul\":4796:4798   */\n      0x20\n        /* \"newfunbatch.sol\":2450:2513  require(start < end && end <= services.length, \"Invalid range\") */\n      0x04\n      dup3\n      add\n        /* \"#utility.yul\":4778:4799   */\n      mstore\n        /* \"#utility.yul\":4835:4837   */\n      0x0d\n        /* \"#utility.yul\":4815:4833   */\n      0x24\n      dup3\n      add\n        /* \"#utility.yul\":4808:4838   */\n      mstore\n      shl(0x98, 0x496e76616c69642072616e6765)\n        /* \"#utility.yul\":4854:4872   */\n      0x44\n      dup3\n      add\n        /* \"#utility.yul\":4847:4890   */\n      mstore\n        /* \"#utility.yul\":4907:4925   */\n      0x64\n      add\n        /* \"newfunbatch.sol\":2450:2513  require(start < end && end <= services.length, \"Invalid range\") */\n      tag_46\n        /* \"#utility.yul\":4594:4931   */\n      jump\n        /* \"newfunbatch.sol\":2450:2513  require(start < end && end <= services.length, \"Invalid range\") */\n    tag_110:\n        /* \"newfunbatch.sol\":2524:2546  address[] memory batch */\n      0x00\n        /* \"newfunbatch.sol\":2563:2574  end - start */\n      tag_113\n        /* \"newfunbatch.sol\":2569:2574  start */\n      dup5\n        /* \"newfunbatch.sol\":2563:2566  end */\n      dup5\n        /* \"newfunbatch.sol\":2563:2574  end - start */\n      tag_114\n      jump\t// in\n    tag_113:\n        /* \"newfunbatch.sol\":2549:2575  new address[](end - start) */\n      0xffffffffffffffff\n      dup2\n      gt\n      iszero\n      tag_116\n      jumpi\n      tag_116\n      tag_117\n      jump\t// in\n    tag_116:\n      mload(0x40)\n      swap1\n      dup1\n      dup3\n      mstore\n      dup1\n      0x20\n      mul\n      0x20\n      add\n      dup3\n      add\n      0x40\n      mstore\n      dup1\n      iszero\n      tag_118\n      jumpi\n      dup2\n      0x20\n      add\n      0x20\n      dup3\n      mul\n      dup1\n      calldatasize\n      dup4\n      calldatacopy\n      add\n      swap1\n      pop\n    tag_118:\n      pop\n        /* \"newfunbatch.sol\":2524:2575  address[] memory batch = new address[](end - start) */\n      swap1\n      pop\n        /* \"newfunbatch.sol\":2600:2605  start */\n      dup4\n        /* \"newfunbatch.sol\":2586:2687  for (uint i = start; i < end; i++) {... */\n    tag_119:\n        /* \"newfunbatch.sol\":2611:2614  end */\n      dup4\n        /* \"newfunbatch.sol\":2607:2608  i */\n      dup2\n        /* \"newfunbatch.sol\":2607:2614  i < end */\n      lt\n        /* \"newfunbatch.sol\":2586:2687  for (uint i = start; i < end; i++) {... */\n      iszero\n      tag_120\n      jumpi\n        /* \"newfunbatch.sol\":2663:2671  services */\n      0x00\n        /* \"newfunbatch.sol\":2672:2673  i */\n      dup2\n        /* \"newfunbatch.sol\":2663:2674  services[i] */\n      dup2\n      sload\n      dup2\n      lt\n      tag_123\n      jumpi\n      tag_123\n      tag_88\n      jump\t// in\n    tag_123:\n      0x00\n      swap2\n      dup3\n      mstore\n      0x20\n      swap1\n      swap2\n      keccak256\n      add\n      sload\n      sub(shl(0xa0, 0x01), 0x01)\n      and\n        /* \"newfunbatch.sol\":2636:2641  batch */\n      dup3\n        /* \"newfunbatch.sol\":2642:2651  i - start */\n      tag_125\n        /* \"newfunbatch.sol\":2646:2651  start */\n      dup8\n        /* \"newfunbatch.sol\":2642:2643  i */\n      dup5\n        /* \"newfunbatch.sol\":2642:2651  i - start */\n      tag_114\n      jump\t// in\n    tag_125:\n        /* \"newfunbatch.sol\":2636:2652  batch[i - start] */\n      dup2\n      mload\n      dup2\n      lt\n      tag_127\n      jumpi\n      tag_127\n      tag_88\n      jump\t// in\n    tag_127:\n      sub(shl(0xa0, 0x01), 0x01)\n        /* \"newfunbatch.sol\":2636:2675  batch[i - start] = address(services[i]) */\n      swap1\n      swap3\n      and\n        /* \"newfunbatch.sol\":2636:2652  batch[i - start] */\n      0x20\n      swap3\n      dup4\n      mul\n      swap2\n      swap1\n      swap2\n      add\n      swap1\n      swap2\n      add\n        /* \"newfunbatch.sol\":2636:2675  batch[i - start] = address(services[i]) */\n      mstore\n        /* \"newfunbatch.sol\":2616:2619  i++ */\n      0x01\n      add\n        /* \"newfunbatch.sol\":2586:2687  for (uint i = start; i < end; i++) {... */\n      jump(tag_119)\n    tag_120:\n      pop\n        /* \"newfunbatch.sol\":2704:2709  batch */\n      swap1\n      pop\n        /* \"newfunbatch.sol\":2360:2717  function getBatch(uint start, uint end) public view returns (address[] memory) {... */\n    tag_108:\n      swap3\n      swap2\n      pop\n      pop\n      jump\t// out\n    tag_56:\n      dataSize(sub_0)\n      dup1\n      dataOffset(sub_0)\n      dup4\n      codecopy\n      add\n      swap1\n      jump\t// out\n        /* \"#utility.yul\":14:360   */\n    tag_16:\n        /* \"#utility.yul\":82:88   */\n      0x00\n        /* \"#utility.yul\":90:96   */\n      dup1\n        /* \"#utility.yul\":143:145   */\n      0x40\n        /* \"#utility.yul\":131:140   */\n      dup4\n        /* \"#utility.yul\":122:129   */\n      dup6\n        /* \"#utility.yul\":118:141   */\n      sub\n        /* \"#utility.yul\":114:146   */\n      slt\n        /* \"#utility.yul\":111:163   */\n      iszero\n      tag_131\n      jumpi\n        /* \"#utility.yul\":159:160   */\n      0x00\n        /* \"#utility.yul\":156:157   */\n      dup1\n        /* \"#utility.yul\":149:161   */\n      revert\n        /* \"#utility.yul\":111:163   */\n    tag_131:\n      pop\n      pop\n        /* \"#utility.yul\":204:227   */\n      dup1\n      calldataload\n      swap3\n        /* \"#utility.yul\":324:326   */\n      0x20\n        /* \"#utility.yul\":309:327   */\n      swap1\n      swap2\n      add\n        /* \"#utility.yul\":296:328   */\n      calldataload\n      swap2\n      pop\n        /* \"#utility.yul\":14:360   */\n      jump\t// out\n        /* \"#utility.yul\":755:981   */\n    tag_31:\n        /* \"#utility.yul\":814:820   */\n      0x00\n        /* \"#utility.yul\":867:869   */\n      0x20\n        /* \"#utility.yul\":855:864   */\n      dup3\n        /* \"#utility.yul\":846:853   */\n      dup5\n        /* \"#utility.yul\":842:865   */\n      sub\n        /* \"#utility.yul\":838:870   */\n      slt\n        /* \"#utility.yul\":835:887   */\n      iszero\n      tag_135\n      jumpi\n        /* \"#utility.yul\":883:884   */\n      0x00\n        /* \"#utility.yul\":880:881   */\n      dup1\n        /* \"#utility.yul\":873:885   */\n      revert\n        /* \"#utility.yul\":835:887   */\n    tag_135:\n      pop\n        /* \"#utility.yul\":928:951   */\n      calldataload\n      swap2\n        /* \"#utility.yul\":755:981   */\n      swap1\n      pop\n      jump\t// out\n        /* \"#utility.yul\":1213:1850   */\n    tag_43:\n        /* \"#utility.yul\":1403:1405   */\n      0x20\n        /* \"#utility.yul\":1415:1436   */\n      dup1\n      dup3\n      mstore\n        /* \"#utility.yul\":1485:1498   */\n      dup3\n      mload\n        /* \"#utility.yul\":1388:1406   */\n      dup3\n      dup3\n      add\n        /* \"#utility.yul\":1507:1529   */\n      dup2\n      swap1\n      mstore\n        /* \"#utility.yul\":1355:1359   */\n      0x00\n      swap2\n        /* \"#utility.yul\":1586:1601   */\n      dup5\n      add\n      swap1\n        /* \"#utility.yul\":1560:1562   */\n      0x40\n        /* \"#utility.yul\":1545:1563   */\n      dup5\n      add\n      swap1\n        /* \"#utility.yul\":1355:1359   */\n      dup4\n        /* \"#utility.yul\":1629:1824   */\n    tag_138:\n        /* \"#utility.yul\":1643:1649   */\n      dup2\n        /* \"#utility.yul\":1640:1641   */\n      dup2\n        /* \"#utility.yul\":1637:1650   */\n      lt\n        /* \"#utility.yul\":1629:1824   */\n      iszero\n      tag_140\n      jumpi\n        /* \"#utility.yul\":1708:1721   */\n      dup4\n      mload\n      sub(shl(0xa0, 0x01), 0x01)\n        /* \"#utility.yul\":1704:1743   */\n      and\n        /* \"#utility.yul\":1692:1744   */\n      dup4\n      mstore\n        /* \"#utility.yul\":1773:1775   */\n      0x20\n        /* \"#utility.yul\":1799:1814   */\n      swap4\n      dup5\n      add\n      swap4\n        /* \"#utility.yul\":1764:1776   */\n      swap1\n      swap3\n      add\n      swap2\n        /* \"#utility.yul\":1740:1741   */\n      0x01\n        /* \"#utility.yul\":1658:1667   */\n      add\n        /* \"#utility.yul\":1629:1824   */\n      jump(tag_138)\n    tag_140:\n      pop\n        /* \"#utility.yul\":1841:1844   */\n      swap1\n      swap6\n        /* \"#utility.yul\":1213:1850   */\n      swap5\n      pop\n      pop\n      pop\n      pop\n      pop\n      jump\t// out\n        /* \"#utility.yul\":1855:2197   */\n    tag_47:\n        /* \"#utility.yul\":2057:2059   */\n      0x20\n        /* \"#utility.yul\":2039:2060   */\n      dup1\n      dup3\n      mstore\n        /* \"#utility.yul\":2096:2098   */\n      0x12\n        /* \"#utility.yul\":2076:2094   */\n      swap1\n      dup3\n      add\n        /* \"#utility.yul\":2069:2099   */\n      mstore\n      shl(0x71, 0x2737ba1031b7b73a3930b1ba1037bbb732b9)\n        /* \"#utility.yul\":2130:2132   */\n      0x40\n        /* \"#utility.yul\":2115:2133   */\n      dup3\n      add\n        /* \"#utility.yul\":2108:2156   */\n      mstore\n        /* \"#utility.yul\":2188:2190   */\n      0x60\n        /* \"#utility.yul\":2173:2191   */\n      add\n      swap1\n        /* \"#utility.yul\":1855:2197   */\n      jump\t// out\n        /* \"#utility.yul\":3056:3183   */\n    tag_128:\n        /* \"#utility.yul\":3117:3127   */\n      0x4e487b71\n        /* \"#utility.yul\":3112:3115   */\n      0xe0\n        /* \"#utility.yul\":3108:3128   */\n      shl\n        /* \"#utility.yul\":3105:3106   */\n      0x00\n        /* \"#utility.yul\":3098:3129   */\n      mstore\n        /* \"#utility.yul\":3148:3152   */\n      0x11\n        /* \"#utility.yul\":3145:3146   */\n      0x04\n        /* \"#utility.yul\":3138:3153   */\n      mstore\n        /* \"#utility.yul\":3172:3176   */\n      0x24\n        /* \"#utility.yul\":3169:3170   */\n      0x00\n        /* \"#utility.yul\":3162:3177   */\n      revert\n        /* \"#utility.yul\":3188:3323   */\n    tag_64:\n        /* \"#utility.yul\":3227:3230   */\n      0x00\n        /* \"#utility.yul\":3248:3265   */\n      0x01\n      dup3\n      add\n        /* \"#utility.yul\":3245:3288   */\n      tag_148\n      jumpi\n        /* \"#utility.yul\":3268:3286   */\n      tag_148\n      tag_128\n      jump\t// in\n    tag_148:\n      pop\n        /* \"#utility.yul\":3315:3316   */\n      0x01\n        /* \"#utility.yul\":3304:3317   */\n      add\n      swap1\n        /* \"#utility.yul\":3188:3323   */\n      jump\t// out\n        /* \"#utility.yul\":3949:4076   */\n    tag_88:\n        /* \"#utility.yul\":4010:4020   */\n      0x4e487b71\n        /* \"#utility.yul\":4005:4008   */\n      0xe0\n        /* \"#utility.yul\":4001:4021   */\n      shl\n        /* \"#utility.yul\":3998:3999   */\n      0x00\n        /* \"#utility.yul\":3991:4022   */\n      mstore\n        /* \"#utility.yul\":4041:4045   */\n      0x32\n        /* \"#utility.yul\":4038:4039   */\n      0x04\n        /* \"#utility.yul\":4031:4046   */\n      mstore\n        /* \"#utility.yul\":4065:4069   */\n      0x24\n        /* \"#utility.yul\":4062:4063   */\n      0x00\n        /* \"#utility.yul\":4055:4070   */\n      revert\n        /* \"#utility.yul\":4081:4265   */\n    tag_93:\n        /* \"#utility.yul\":4151:4157   */\n      0x00\n        /* \"#utility.yul\":4204:4206   */\n      0x20\n        /* \"#utility.yul\":4192:4201   */\n      dup3\n        /* \"#utility.yul\":4183:4190   */\n      dup5\n        /* \"#utility.yul\":4179:4202   */\n      sub\n        /* \"#utility.yul\":4175:4207   */\n      slt\n        /* \"#utility.yul\":4172:4224   */\n      iszero\n      tag_153\n      jumpi\n        /* \"#utility.yul\":4220:4221   */\n      0x00\n        /* \"#utility.yul\":4217:4218   */\n      dup1\n        /* \"#utility.yul\":4210:4222   */\n      revert\n        /* \"#utility.yul\":4172:4224   */\n    tag_153:\n      pop\n        /* \"#utility.yul\":4243:4259   */\n      mload\n      swap2\n        /* \"#utility.yul\":4081:4265   */\n      swap1\n      pop\n      jump\t// out\n        /* \"#utility.yul\":4936:5064   */\n    tag_114:\n        /* \"#utility.yul\":5003:5012   */\n      dup2\n      dup2\n      sub\n        /* \"#utility.yul\":5024:5035   */\n      dup2\n      dup2\n      gt\n        /* \"#utility.yul\":5021:5058   */\n      iszero\n      tag_108\n      jumpi\n        /* \"#utility.yul\":5038:5056   */\n      tag_108\n      tag_128\n      jump\t// in\n        /* \"#utility.yul\":5069:5196   */\n    tag_117:\n        /* \"#utility.yul\":5130:5140   */\n      0x4e487b71\n        /* \"#utility.yul\":5125:5128   */\n      0xe0\n        /* \"#utility.yul\":5121:5141   */\n      shl\n        /* \"#utility.yul\":5118:5119   */\n      0x00\n        /* \"#utility.yul\":5111:5142   */\n      mstore\n        /* \"#utility.yul\":5161:5165   */\n      0x41\n        /* \"#utility.yul\":5158:5159   */\n      0x04\n        /* \"#utility.yul\":5151:5166   */\n      mstore\n        /* \"#utility.yul\":5185:5189   */\n      0x24\n        /* \"#utility.yul\":5182:5183   */\n      0x00\n        /* \"#utility.yul\":5175:5190   */\n      revert\n    stop\n\n    sub_0: assembly {\n            /* \"newfunbatch.sol\":61:519  contract Subscription {... */\n          mstore(0x40, 0x80)\n            /* \"newfunbatch.sol\":200:287  constructor(uint _price) {... */\n          callvalue\n          dup1\n          iszero\n          tag_1\n          jumpi\n          0x00\n          dup1\n          revert\n        tag_1:\n          pop\n          mload(0x40)\n          sub(codesize, bytecodeSize)\n          dup1\n          bytecodeSize\n          dup4\n          codecopy\n          dup2\n          add\n          0x40\n          dup2\n          swap1\n          mstore\n          tag_2\n          swap2\n          tag_3\n          jump\t// in\n        tag_2:\n            /* \"newfunbatch.sol\":236:241  price */\n          0x00\n            /* \"newfunbatch.sol\":236:250  price = _price */\n          sstore\n            /* \"newfunbatch.sol\":261:266  owner */\n          0x01\n            /* \"newfunbatch.sol\":261:279  owner = msg.sender */\n          dup1\n          sload\n          not(sub(shl(0xa0, 0x01), 0x01))\n          and\n            /* \"newfunbatch.sol\":269:279  msg.sender */\n          caller\n            /* \"newfunbatch.sol\":261:279  owner = msg.sender */\n          or\n          swap1\n          sstore\n            /* \"newfunbatch.sol\":61:519  contract Subscription {... */\n          jump(tag_7)\n            /* \"#utility.yul\":14:198   */\n        tag_3:\n            /* \"#utility.yul\":84:90   */\n          0x00\n            /* \"#utility.yul\":137:139   */\n          0x20\n            /* \"#utility.yul\":125:134   */\n          dup3\n            /* \"#utility.yul\":116:123   */\n          dup5\n            /* \"#utility.yul\":112:135   */\n          sub\n            /* \"#utility.yul\":108:140   */\n          slt\n            /* \"#utility.yul\":105:157   */\n          iszero\n          tag_9\n          jumpi\n            /* \"#utility.yul\":153:154   */\n          0x00\n            /* \"#utility.yul\":150:151   */\n          dup1\n            /* \"#utility.yul\":143:155   */\n          revert\n            /* \"#utility.yul\":105:157   */\n        tag_9:\n          pop\n            /* \"#utility.yul\":176:192   */\n          mload\n          swap2\n            /* \"#utility.yul\":14:198   */\n          swap1\n          pop\n          jump\t// out\n        tag_7:\n            /* \"newfunbatch.sol\":61:519  contract Subscription {... */\n          dataSize(sub_0)\n          dup1\n          dataOffset(sub_0)\n          0x00\n          codecopy\n          0x00\n          return\n        stop\n\n        sub_0: assembly {\n                /* \"newfunbatch.sol\":61:519  contract Subscription {... */\n              mstore(0x40, 0x80)\n              callvalue\n              dup1\n              iszero\n              tag_1\n              jumpi\n              0x00\n              dup1\n              revert\n            tag_1:\n              pop\n              jumpi(tag_2, lt(calldatasize, 0x04))\n              shr(0xe0, calldataload(0x00))\n              dup1\n              0x8d6cc56d\n              eq\n              tag_3\n              jumpi\n              dup1\n              0x8da5cb5b\n              eq\n              tag_4\n              jumpi\n              dup1\n              0xa035b1fe\n              eq\n              tag_5\n              jumpi\n            tag_2:\n              0x00\n              dup1\n              revert\n                /* \"newfunbatch.sol\":295:516  function updatePrice(uint _newPrice) public {... */\n            tag_3:\n              tag_6\n              tag_7\n              calldatasize\n              0x04\n              tag_8\n              jump\t// in\n            tag_7:\n              tag_9\n              jump\t// in\n            tag_6:\n              stop\n                /* \"newfunbatch.sol\":114:134  address public owner */\n            tag_4:\n              sload(0x01)\n              tag_10\n              swap1\n              sub(shl(0xa0, 0x01), 0x01)\n              and\n              dup2\n              jump\n            tag_10:\n              mload(0x40)\n              sub(shl(0xa0, 0x01), 0x01)\n                /* \"#utility.yul\":363:395   */\n              swap1\n              swap2\n              and\n                /* \"#utility.yul\":345:396   */\n              dup2\n              mstore\n                /* \"#utility.yul\":333:335   */\n              0x20\n                /* \"#utility.yul\":318:336   */\n              add\n                /* \"newfunbatch.sol\":114:134  address public owner */\n            tag_12:\n              mload(0x40)\n              dup1\n              swap2\n              sub\n              swap1\n              return\n                /* \"newfunbatch.sol\":90:107  uint public price */\n            tag_5:\n              tag_14\n              sload(0x00)\n              dup2\n              jump\n            tag_14:\n              mload(0x40)\n                /* \"#utility.yul\":553:578   */\n              swap1\n              dup2\n              mstore\n                /* \"#utility.yul\":541:543   */\n              0x20\n                /* \"#utility.yul\":526:544   */\n              add\n                /* \"newfunbatch.sol\":90:107  uint public price */\n              tag_12\n                /* \"#utility.yul\":407:584   */\n              jump\n                /* \"newfunbatch.sol\":295:516  function updatePrice(uint _newPrice) public {... */\n            tag_9:\n                /* \"newfunbatch.sol\":372:377  owner */\n              and(sub(shl(0xa0, 0x01), 0x01), sload(0x01))\n                /* \"newfunbatch.sol\":358:368  msg.sender */\n              caller\n                /* \"newfunbatch.sol\":358:377  msg.sender == owner */\n              eq\n                /* \"newfunbatch.sol\":350:409  require(msg.sender == owner, \"Only owner can update price\") */\n              tag_19\n              jumpi\n              mload(0x40)\n              shl(0xe5, 0x461bcd)\n              dup2\n              mstore\n                /* \"#utility.yul\":791:793   */\n              0x20\n                /* \"newfunbatch.sol\":350:409  require(msg.sender == owner, \"Only owner can update price\") */\n              0x04\n              dup3\n              add\n                /* \"#utility.yul\":773:794   */\n              mstore\n                /* \"#utility.yul\":830:832   */\n              0x1b\n                /* \"#utility.yul\":810:828   */\n              0x24\n              dup3\n              add\n                /* \"#utility.yul\":803:833   */\n              mstore\n                /* \"#utility.yul\":869:898   */\n              0x4f6e6c79206f776e65722063616e207570646174652070726963650000000000\n                /* \"#utility.yul\":849:867   */\n              0x44\n              dup3\n              add\n                /* \"#utility.yul\":842:899   */\n              mstore\n                /* \"#utility.yul\":916:934   */\n              0x64\n              add\n                /* \"newfunbatch.sol\":350:409  require(msg.sender == owner, \"Only owner can update price\") */\n              mload(0x40)\n              dup1\n              swap2\n              sub\n              swap1\n              revert\n            tag_19:\n                /* \"newfunbatch.sol\":420:428  uint old */\n              0x00\n                /* \"newfunbatch.sol\":431:436  price */\n              dup1\n              sload\n                /* \"newfunbatch.sol\":447:464  price = _newPrice */\n              swap1\n              dup3\n              swap1\n              sstore\n                /* \"newfunbatch.sol\":480:508  PriceUpdated(old, _newPrice) */\n              0x40\n              dup1\n              mload\n                /* \"#utility.yul\":1119:1144   */\n              dup3\n              dup2\n              mstore\n                /* \"#utility.yul\":1175:1177   */\n              0x20\n                /* \"#utility.yul\":1160:1178   */\n              dup2\n              add\n                /* \"#utility.yul\":1153:1187   */\n              dup5\n              swap1\n              mstore\n                /* \"newfunbatch.sol\":480:508  PriceUpdated(old, _newPrice) */\n              0x945c1c4e99aa89f648fbfe3df471b916f719e16d960fcec0737d4d56bd696838\n              swap2\n                /* \"#utility.yul\":1092:1110   */\n              add\n                /* \"newfunbatch.sol\":480:508  PriceUpdated(old, _newPrice) */\n              mload(0x40)\n              dup1\n              swap2\n              sub\n              swap1\n              log1\n                /* \"newfunbatch.sol\":339:516  {... */\n              pop\n                /* \"newfunbatch.sol\":295:516  function updatePrice(uint _newPrice) public {... */\n              pop\n              jump\t// out\n                /* \"#utility.yul\":14:194   */\n            tag_8:\n                /* \"#utility.yul\":73:79   */\n              0x00\n                /* \"#utility.yul\":126:128   */\n              0x20\n                /* \"#utility.yul\":114:123   */\n              dup3\n                /* \"#utility.yul\":105:112   */\n              dup5\n                /* \"#utility.yul\":101:124   */\n              sub\n                /* \"#utility.yul\":97:129   */\n              slt\n                /* \"#utility.yul\":94:146   */\n              iszero\n              tag_26\n              jumpi\n                /* \"#utility.yul\":142:143   */\n              0x00\n                /* \"#utility.yul\":139:140   */\n              dup1\n                /* \"#utility.yul\":132:144   */\n              revert\n                /* \"#utility.yul\":94:146   */\n            tag_26:\n              pop\n                /* \"#utility.yul\":165:188   */\n              calldataload\n              swap2\n                /* \"#utility.yul\":14:194   */\n              swap1\n              pop\n              jump\t// out\n\n            auxdata: 0xa26469706673582212208f4efdf04fe40a3be32ec5bc807b39f029f58010b1fcfc560db55d401a8b819164736f6c634300081a0033\n        }\n    }\n\n    auxdata: 0xa26469706673582212207cd9ad783052a8e268b8afd439ef2f33af546fd6d0dc7051df7b5d1517fe78a064736f6c634300081a0033\n}\n",
				"bytecode": {
					"linkReferences": {},
					"object": "6080604052348015600e575f80fd5b50600180546001600160a01b03191633179055610a248061002e5f395ff3fe608060405234801561000f575f80fd5b5060043610610085575f3560e01c80638da5cb5b116100585780638da5cb5b146100ce5780639507d39a146100f9578063c22c4f431461010c578063fe918e681461011f575f80fd5b80632d8233351461008957806350176d87146100935780636301ac8f146100a6578063667e9660146100bb575b5f80fd5b61009161013f565b005b6100916100a13660046106cf565b610296565b5f546040519081526020015b60405180910390f35b6100916100c93660046106cf565b61038c565b6001546100e1906001600160a01b031681565b6040516001600160a01b0390911681526020016100b2565b6100e16101073660046106ef565b61051c565b6100e161011a3660046106ef565b610589565b61013261012d3660046106cf565b6105b0565b6040516100b29190610706565b6001546001600160a01b031633146101725760405162461bcd60e51b815260040161016990610751565b60405180910390fd5b5f54156101b45760405162461bcd60e51b815260206004820152601060248201526f105b1c9958591e4819195c1b1bde595960821b6044820152606401610169565b60015b60788111610293575f662386f26fc100006040516101d4906106c2565b908152602001604051809103905ff0801580156101f3573d5f803e3d5ffd5b505f80546001810182559080527f290decd9548b62a8d60345a988386fc84ba6bc95484008f6362f93160ef3e5630180546001600160a01b0319166001600160a01b03831690811790915560408051918252662386f26fc1000060208301529192507fdee7f9f5d5947a9c6657741a7b8cd7dd8d9d465ab5771a6a2bc4ef074209c0ff910160405180910390a1508061028b81610791565b9150506101b7565b50565b6001546001600160a01b031633146102c05760405162461bcd60e51b815260040161016990610751565b5f5b82811015610387575f826040516102d8906106c2565b908152602001604051809103905ff0801580156102f7573d5f803e3d5ffd5b505f80546001810182559080527f290decd9548b62a8d60345a988386fc84ba6bc95484008f6362f93160ef3e5630180546001600160a01b0319166001600160a01b03831690811790915560408051918252602082018690529192507fdee7f9f5d5947a9c6657741a7b8cd7dd8d9d465ab5771a6a2bc4ef074209c0ff910160405180910390a1506001016102c2565b505050565b6001546001600160a01b031633146103b65760405162461bcd60e51b815260040161016990610751565b5f5482106103f65760405162461bcd60e51b815260206004820152600d60248201526c092dcecc2d8d2c840d2dcc8caf609b1b6044820152606401610169565b5f808381548110610409576104096107a9565b5f9182526020808320909101546040805163501ad8ff60e11b815290516001600160a01b039092169450849263a035b1fe926004808401938290030181865afa158015610458573d5f803e3d5ffd5b505050506040513d601f19601f8201168201806040525081019061047c91906107bd565b604051638d6cc56d60e01b8152600481018590529091506001600160a01b03831690638d6cc56d906024015f604051808303815f87803b1580156104be575f80fd5b505af11580156104d0573d5f803e3d5ffd5b505060408051878152602081018590529081018690527f15819dd2fd9f6418b142e798d08a18d0bf06ea368f4480b7b0d3f75bd966bc489250606001905060405180910390a150505050565b5f8054821061055d5760405162461bcd60e51b815260206004820152600d60248201526c092dcecc2d8d2c840d2dcc8caf609b1b6044820152606401610169565b5f828154811061056f5761056f6107a9565b5f918252602090912001546001600160a01b031692915050565b5f8181548110610597575f80fd5b5f918252602090912001546001600160a01b0316905081565b606081831080156105c257505f548211155b6105fe5760405162461bcd60e51b815260206004820152600d60248201526c496e76616c69642072616e676560981b6044820152606401610169565b5f61060984846107d4565b67ffffffffffffffff811115610621576106216107e7565b60405190808252806020026020018201604052801561064a578160200160208202803683370190505b509050835b838110156106b8575f8181548110610669576106696107a9565b5f918252602090912001546001600160a01b03168261068887846107d4565b81518110610698576106986107a9565b6001600160a01b039092166020928302919091019091015260010161064f565b5090505b92915050565b6101f3806107fc83390190565b5f80604083850312156106e0575f80fd5b50508035926020909101359150565b5f602082840312156106ff575f80fd5b5035919050565b602080825282518282018190525f918401906040840190835b818110156107465783516001600160a01b031683526020938401939092019160010161071f565b509095945050505050565b6020808252601290820152712737ba1031b7b73a3930b1ba1037bbb732b960711b604082015260600190565b634e487b7160e01b5f52601160045260245ffd5b5f600182016107a2576107a261077d565b5060010190565b634e487b7160e01b5f52603260045260245ffd5b5f602082840312156107cd575f80fd5b5051919050565b818103818111156106bc576106bc61077d565b634e487b7160e01b5f52604160045260245ffdfe6080604052348015600e575f80fd5b506040516101f33803806101f3833981016040819052602b916043565b5f55600180546001600160a01b031916331790556059565b5f602082840312156052575f80fd5b5051919050565b61018d806100665f395ff3fe608060405234801561000f575f80fd5b506004361061003f575f3560e01c80638d6cc56d146100435780638da5cb5b14610058578063a035b1fe14610088575b5f80fd5b610056610051366004610140565b61009e565b005b60015461006b906001600160a01b031681565b6040516001600160a01b0390911681526020015b60405180910390f35b6100905f5481565b60405190815260200161007f565b6001546001600160a01b031633146100fc5760405162461bcd60e51b815260206004820152601b60248201527f4f6e6c79206f776e65722063616e207570646174652070726963650000000000604482015260640160405180910390fd5b5f80549082905560408051828152602081018490527f945c1c4e99aa89f648fbfe3df471b916f719e16d960fcec0737d4d56bd696838910160405180910390a15050565b5f60208284031215610150575f80fd5b503591905056fea26469706673582212208f4efdf04fe40a3be32ec5bc807b39f029f58010b1fcfc560db55d401a8b819164736f6c634300081a0033a26469706673582212207cd9ad783052a8e268b8afd439ef2f33af546fd6d0dc7051df7b5d1517fe78a064736f6c634300081a0033",
					"opcodes": "PUSH1 0x80 PUSH1 0x40 MSTORE CALLVALUE DUP1 ISZERO PUSH1 0xE JUMPI PUSH0 DUP1 REVERT JUMPDEST POP PUSH1 0x1 DUP1 SLOAD PUSH1 0x1 PUSH1 0x1 PUSH1 0xA0 SHL SUB NOT AND CALLER OR SWAP1 SSTORE PUSH2 0xA24 DUP1 PUSH2 0x2E PUSH0 CODECOPY PUSH0 RETURN INVALID PUSH1 0x80 PUSH1 0x40 MSTORE CALLVALUE DUP1 ISZERO PUSH2 0xF JUMPI PUSH0 DUP1 REVERT JUMPDEST POP PUSH1 0x4 CALLDATASIZE LT PUSH2 0x85 JUMPI PUSH0 CALLDATALOAD PUSH1 0xE0 SHR DUP1 PUSH4 0x8DA5CB5B GT PUSH2 0x58 JUMPI DUP1 PUSH4 0x8DA5CB5B EQ PUSH2 0xCE JUMPI DUP1 PUSH4 0x9507D39A EQ PUSH2 0xF9 JUMPI DUP1 PUSH4 0xC22C4F43 EQ PUSH2 0x10C JUMPI DUP1 PUSH4 0xFE918E68 EQ PUSH2 0x11F JUMPI PUSH0 DUP1 REVERT JUMPDEST DUP1 PUSH4 0x2D823335 EQ PUSH2 0x89 JUMPI DUP1 PUSH4 0x50176D87 EQ PUSH2 0x93 JUMPI DUP1 PUSH4 0x6301AC8F EQ PUSH2 0xA6 JUMPI DUP1 PUSH4 0x667E9660 EQ PUSH2 0xBB JUMPI JUMPDEST PUSH0 DUP1 REVERT JUMPDEST PUSH2 0x91 PUSH2 0x13F JUMP JUMPDEST STOP JUMPDEST PUSH2 0x91 PUSH2 0xA1 CALLDATASIZE PUSH1 0x4 PUSH2 0x6CF JUMP JUMPDEST PUSH2 0x296 JUMP JUMPDEST PUSH0 SLOAD PUSH1 0x40 MLOAD SWAP1 DUP2 MSTORE PUSH1 0x20 ADD JUMPDEST PUSH1 0x40 MLOAD DUP1 SWAP2 SUB SWAP1 RETURN JUMPDEST PUSH2 0x91 PUSH2 0xC9 CALLDATASIZE PUSH1 0x4 PUSH2 0x6CF JUMP JUMPDEST PUSH2 0x38C JUMP JUMPDEST PUSH1 0x1 SLOAD PUSH2 0xE1 SWAP1 PUSH1 0x1 PUSH1 0x1 PUSH1 0xA0 SHL SUB AND DUP2 JUMP JUMPDEST PUSH1 0x40 MLOAD PUSH1 0x1 PUSH1 0x1 PUSH1 0xA0 SHL SUB SWAP1 SWAP2 AND DUP2 MSTORE PUSH1 0x20 ADD PUSH2 0xB2 JUMP JUMPDEST PUSH2 0xE1 PUSH2 0x107 CALLDATASIZE PUSH1 0x4 PUSH2 0x6EF JUMP JUMPDEST PUSH2 0x51C JUMP JUMPDEST PUSH2 0xE1 PUSH2 0x11A CALLDATASIZE PUSH1 0x4 PUSH2 0x6EF JUMP JUMPDEST PUSH2 0x589 JUMP JUMPDEST PUSH2 0x132 PUSH2 0x12D CALLDATASIZE PUSH1 0x4 PUSH2 0x6CF JUMP JUMPDEST PUSH2 0x5B0 JUMP JUMPDEST PUSH1 0x40 MLOAD PUSH2 0xB2 SWAP2 SWAP1 PUSH2 0x706 JUMP JUMPDEST PUSH1 0x1 SLOAD PUSH1 0x1 PUSH1 0x1 PUSH1 0xA0 SHL SUB AND CALLER EQ PUSH2 0x172 JUMPI PUSH1 0x40 MLOAD PUSH3 0x461BCD PUSH1 0xE5 SHL DUP2 MSTORE PUSH1 0x4 ADD PUSH2 0x169 SWAP1 PUSH2 0x751 JUMP JUMPDEST PUSH1 0x40 MLOAD DUP1 SWAP2 SUB SWAP1 REVERT JUMPDEST PUSH0 SLOAD ISZERO PUSH2 0x1B4 JUMPI PUSH1 0x40 MLOAD PUSH3 0x461BCD PUSH1 0xE5 SHL DUP2 MSTORE PUSH1 0x20 PUSH1 0x4 DUP3 ADD MSTORE PUSH1 0x10 PUSH1 0x24 DUP3 ADD MSTORE PUSH16 0x105B1C9958591E4819195C1B1BDE5959 PUSH1 0x82 SHL PUSH1 0x44 DUP3 ADD MSTORE PUSH1 0x64 ADD PUSH2 0x169 JUMP JUMPDEST PUSH1 0x1 JUMPDEST PUSH1 0x78 DUP2 GT PUSH2 0x293 JUMPI PUSH0 PUSH7 0x2386F26FC10000 PUSH1 0x40 MLOAD PUSH2 0x1D4 SWAP1 PUSH2 0x6C2 JUMP JUMPDEST SWAP1 DUP2 MSTORE PUSH1 0x20 ADD PUSH1 0x40 MLOAD DUP1 SWAP2 SUB SWAP1 PUSH0 CREATE DUP1 ISZERO DUP1 ISZERO PUSH2 0x1F3 JUMPI RETURNDATASIZE PUSH0 DUP1 RETURNDATACOPY RETURNDATASIZE PUSH0 REVERT JUMPDEST POP PUSH0 DUP1 SLOAD PUSH1 0x1 DUP2 ADD DUP3 SSTORE SWAP1 DUP1 MSTORE PUSH32 0x290DECD9548B62A8D60345A988386FC84BA6BC95484008F6362F93160EF3E563 ADD DUP1 SLOAD PUSH1 0x1 PUSH1 0x1 PUSH1 0xA0 SHL SUB NOT AND PUSH1 0x1 PUSH1 0x1 PUSH1 0xA0 SHL SUB DUP4 AND SWAP1 DUP2 OR SWAP1 SWAP2 SSTORE PUSH1 0x40 DUP1 MLOAD SWAP2 DUP3 MSTORE PUSH7 0x2386F26FC10000 PUSH1 0x20 DUP4 ADD MSTORE SWAP2 SWAP3 POP PUSH32 0xDEE7F9F5D5947A9C6657741A7B8CD7DD8D9D465AB5771A6A2BC4EF074209C0FF SWAP2 ADD PUSH1 0x40 MLOAD DUP1 SWAP2 SUB SWAP1 LOG1 POP DUP1 PUSH2 0x28B DUP2 PUSH2 0x791 JUMP JUMPDEST SWAP2 POP POP PUSH2 0x1B7 JUMP JUMPDEST POP JUMP JUMPDEST PUSH1 0x1 SLOAD PUSH1 0x1 PUSH1 0x1 PUSH1 0xA0 SHL SUB AND CALLER EQ PUSH2 0x2C0 JUMPI PUSH1 0x40 MLOAD PUSH3 0x461BCD PUSH1 0xE5 SHL DUP2 MSTORE PUSH1 0x4 ADD PUSH2 0x169 SWAP1 PUSH2 0x751 JUMP JUMPDEST PUSH0 JUMPDEST DUP3 DUP2 LT ISZERO PUSH2 0x387 JUMPI PUSH0 DUP3 PUSH1 0x40 MLOAD PUSH2 0x2D8 SWAP1 PUSH2 0x6C2 JUMP JUMPDEST SWAP1 DUP2 MSTORE PUSH1 0x20 ADD PUSH1 0x40 MLOAD DUP1 SWAP2 SUB SWAP1 PUSH0 CREATE DUP1 ISZERO DUP1 ISZERO PUSH2 0x2F7 JUMPI RETURNDATASIZE PUSH0 DUP1 RETURNDATACOPY RETURNDATASIZE PUSH0 REVERT JUMPDEST POP PUSH0 DUP1 SLOAD PUSH1 0x1 DUP2 ADD DUP3 SSTORE SWAP1 DUP1 MSTORE PUSH32 0x290DECD9548B62A8D60345A988386FC84BA6BC95484008F6362F93160EF3E563 ADD DUP1 SLOAD PUSH1 0x1 PUSH1 0x1 PUSH1 0xA0 SHL SUB NOT AND PUSH1 0x1 PUSH1 0x1 PUSH1 0xA0 SHL SUB DUP4 AND SWAP1 DUP2 OR SWAP1 SWAP2 SSTORE PUSH1 0x40 DUP1 MLOAD SWAP2 DUP3 MSTORE PUSH1 0x20 DUP3 ADD DUP7 SWAP1 MSTORE SWAP2 SWAP3 POP PUSH32 0xDEE7F9F5D5947A9C6657741A7B8CD7DD8D9D465AB5771A6A2BC4EF074209C0FF SWAP2 ADD PUSH1 0x40 MLOAD DUP1 SWAP2 SUB SWAP1 LOG1 POP PUSH1 0x1 ADD PUSH2 0x2C2 JUMP JUMPDEST POP POP POP JUMP JUMPDEST PUSH1 0x1 SLOAD PUSH1 0x1 PUSH1 0x1 PUSH1 0xA0 SHL SUB AND CALLER EQ PUSH2 0x3B6 JUMPI PUSH1 0x40 MLOAD PUSH3 0x461BCD PUSH1 0xE5 SHL DUP2 MSTORE PUSH1 0x4 ADD PUSH2 0x169 SWAP1 PUSH2 0x751 JUMP JUMPDEST PUSH0 SLOAD DUP3 LT PUSH2 0x3F6 JUMPI PUSH1 0x40 MLOAD PUSH3 0x461BCD PUSH1 0xE5 SHL DUP2 MSTORE PUSH1 0x20 PUSH1 0x4 DUP3 ADD MSTORE PUSH1 0xD PUSH1 0x24 DUP3 ADD MSTORE PUSH13 0x92DCECC2D8D2C840D2DCC8CAF PUSH1 0x9B SHL PUSH1 0x44 DUP3 ADD MSTORE PUSH1 0x64 ADD PUSH2 0x169 JUMP JUMPDEST PUSH0 DUP1 DUP4 DUP2 SLOAD DUP2 LT PUSH2 0x409 JUMPI PUSH2 0x409 PUSH2 0x7A9 JUMP JUMPDEST PUSH0 SWAP2 DUP3 MSTORE PUSH1 0x20 DUP1 DUP4 KECCAK256 SWAP1 SWAP2 ADD SLOAD PUSH1 0x40 DUP1 MLOAD PUSH4 0x501AD8FF PUSH1 0xE1 SHL DUP2 MSTORE SWAP1 MLOAD PUSH1 0x1 PUSH1 0x1 PUSH1 0xA0 SHL SUB SWAP1 SWAP3 AND SWAP5 POP DUP5 SWAP3 PUSH4 0xA035B1FE SWAP3 PUSH1 0x4 DUP1 DUP5 ADD SWAP4 DUP3 SWAP1 SUB ADD DUP2 DUP7 GAS STATICCALL ISZERO DUP1 ISZERO PUSH2 0x458 JUMPI RETURNDATASIZE PUSH0 DUP1 RETURNDATACOPY RETURNDATASIZE PUSH0 REVERT JUMPDEST POP POP POP POP PUSH1 0x40 MLOAD RETURNDATASIZE PUSH1 0x1F NOT PUSH1 0x1F DUP3 ADD AND DUP3 ADD DUP1 PUSH1 0x40 MSTORE POP DUP2 ADD SWAP1 PUSH2 0x47C SWAP2 SWAP1 PUSH2 0x7BD JUMP JUMPDEST PUSH1 0x40 MLOAD PUSH4 0x8D6CC56D PUSH1 0xE0 SHL DUP2 MSTORE PUSH1 0x4 DUP2 ADD DUP6 SWAP1 MSTORE SWAP1 SWAP2 POP PUSH1 0x1 PUSH1 0x1 PUSH1 0xA0 SHL SUB DUP4 AND SWAP1 PUSH4 0x8D6CC56D SWAP1 PUSH1 0x24 ADD PUSH0 PUSH1 0x40 MLOAD DUP1 DUP4 SUB DUP2 PUSH0 DUP8 DUP1 EXTCODESIZE ISZERO DUP1 ISZERO PUSH2 0x4BE JUMPI PUSH0 DUP1 REVERT JUMPDEST POP GAS CALL ISZERO DUP1 ISZERO PUSH2 0x4D0 JUMPI RETURNDATASIZE PUSH0 DUP1 RETURNDATACOPY RETURNDATASIZE PUSH0 REVERT JUMPDEST POP POP PUSH1 0x40 DUP1 MLOAD DUP8 DUP2 MSTORE PUSH1 0x20 DUP2 ADD DUP6 SWAP1 MSTORE SWAP1 DUP2 ADD DUP7 SWAP1 MSTORE PUSH32 0x15819DD2FD9F6418B142E798D08A18D0BF06EA368F4480B7B0D3F75BD966BC48 SWAP3 POP PUSH1 0x60 ADD SWAP1 POP PUSH1 0x40 MLOAD DUP1 SWAP2 SUB SWAP1 LOG1 POP POP POP POP JUMP JUMPDEST PUSH0 DUP1 SLOAD DUP3 LT PUSH2 0x55D JUMPI PUSH1 0x40 MLOAD PUSH3 0x461BCD PUSH1 0xE5 SHL DUP2 MSTORE PUSH1 0x20 PUSH1 0x4 DUP3 ADD MSTORE PUSH1 0xD PUSH1 0x24 DUP3 ADD MSTORE PUSH13 0x92DCECC2D8D2C840D2DCC8CAF PUSH1 0x9B SHL PUSH1 0x44 DUP3 ADD MSTORE PUSH1 0x64 ADD PUSH2 0x169 JUMP JUMPDEST PUSH0 DUP3 DUP2 SLOAD DUP2 LT PUSH2 0x56F JUMPI PUSH2 0x56F PUSH2 0x7A9 JUMP JUMPDEST PUSH0 SWAP2 DUP3 MSTORE PUSH1 0x20 SWAP1 SWAP2 KECCAK256 ADD SLOAD PUSH1 0x1 PUSH1 0x1 PUSH1 0xA0 SHL SUB AND SWAP3 SWAP2 POP POP JUMP JUMPDEST PUSH0 DUP2 DUP2 SLOAD DUP2 LT PUSH2 0x597 JUMPI PUSH0 DUP1 REVERT JUMPDEST PUSH0 SWAP2 DUP3 MSTORE PUSH1 0x20 SWAP1 SWAP2 KECCAK256 ADD SLOAD PUSH1 0x1 PUSH1 0x1 PUSH1 0xA0 SHL SUB AND SWAP1 POP DUP2 JUMP JUMPDEST PUSH1 0x60 DUP2 DUP4 LT DUP1 ISZERO PUSH2 0x5C2 JUMPI POP PUSH0 SLOAD DUP3 GT ISZERO JUMPDEST PUSH2 0x5FE JUMPI PUSH1 0x40 MLOAD PUSH3 0x461BCD PUSH1 0xE5 SHL DUP2 MSTORE PUSH1 0x20 PUSH1 0x4 DUP3 ADD MSTORE PUSH1 0xD PUSH1 0x24 DUP3 ADD MSTORE PUSH13 0x496E76616C69642072616E6765 PUSH1 0x98 SHL PUSH1 0x44 DUP3 ADD MSTORE PUSH1 0x64 ADD PUSH2 0x169 JUMP JUMPDEST PUSH0 PUSH2 0x609 DUP5 DUP5 PUSH2 0x7D4 JUMP JUMPDEST PUSH8 0xFFFFFFFFFFFFFFFF DUP2 GT ISZERO PUSH2 0x621 JUMPI PUSH2 0x621 PUSH2 0x7E7 JUMP JUMPDEST PUSH1 0x40 MLOAD SWAP1 DUP1 DUP3 MSTORE DUP1 PUSH1 0x20 MUL PUSH1 0x20 ADD DUP3 ADD PUSH1 0x40 MSTORE DUP1 ISZERO PUSH2 0x64A JUMPI DUP2 PUSH1 0x20 ADD PUSH1 0x20 DUP3 MUL DUP1 CALLDATASIZE DUP4 CALLDATACOPY ADD SWAP1 POP JUMPDEST POP SWAP1 POP DUP4 JUMPDEST DUP4 DUP2 LT ISZERO PUSH2 0x6B8 JUMPI PUSH0 DUP2 DUP2 SLOAD DUP2 LT PUSH2 0x669 JUMPI PUSH2 0x669 PUSH2 0x7A9 JUMP JUMPDEST PUSH0 SWAP2 DUP3 MSTORE PUSH1 0x20 SWAP1 SWAP2 KECCAK256 ADD SLOAD PUSH1 0x1 PUSH1 0x1 PUSH1 0xA0 SHL SUB AND DUP3 PUSH2 0x688 DUP8 DUP5 PUSH2 0x7D4 JUMP JUMPDEST DUP2 MLOAD DUP2 LT PUSH2 0x698 JUMPI PUSH2 0x698 PUSH2 0x7A9 JUMP JUMPDEST PUSH1 0x1 PUSH1 0x1 PUSH1 0xA0 SHL SUB SWAP1 SWAP3 AND PUSH1 0x20 SWAP3 DUP4 MUL SWAP2 SWAP1 SWAP2 ADD SWAP1 SWAP2 ADD MSTORE PUSH1 0x1 ADD PUSH2 0x64F JUMP JUMPDEST POP SWAP1 POP JUMPDEST SWAP3 SWAP2 POP POP JUMP JUMPDEST PUSH2 0x1F3 DUP1 PUSH2 0x7FC DUP4 CODECOPY ADD SWAP1 JUMP JUMPDEST PUSH0 DUP1 PUSH1 0x40 DUP4 DUP6 SUB SLT ISZERO PUSH2 0x6E0 JUMPI PUSH0 DUP1 REVERT JUMPDEST POP POP DUP1 CALLDATALOAD SWAP3 PUSH1 0x20 SWAP1 SWAP2 ADD CALLDATALOAD SWAP2 POP JUMP JUMPDEST PUSH0 PUSH1 0x20 DUP3 DUP5 SUB SLT ISZERO PUSH2 0x6FF JUMPI PUSH0 DUP1 REVERT JUMPDEST POP CALLDATALOAD SWAP2 SWAP1 POP JUMP JUMPDEST PUSH1 0x20 DUP1 DUP3 MSTORE DUP3 MLOAD DUP3 DUP3 ADD DUP2 SWAP1 MSTORE PUSH0 SWAP2 DUP5 ADD SWAP1 PUSH1 0x40 DUP5 ADD SWAP1 DUP4 JUMPDEST DUP2 DUP2 LT ISZERO PUSH2 0x746 JUMPI DUP4 MLOAD PUSH1 0x1 PUSH1 0x1 PUSH1 0xA0 SHL SUB AND DUP4 MSTORE PUSH1 0x20 SWAP4 DUP5 ADD SWAP4 SWAP1 SWAP3 ADD SWAP2 PUSH1 0x1 ADD PUSH2 0x71F JUMP JUMPDEST POP SWAP1 SWAP6 SWAP5 POP POP POP POP POP JUMP JUMPDEST PUSH1 0x20 DUP1 DUP3 MSTORE PUSH1 0x12 SWAP1 DUP3 ADD MSTORE PUSH18 0x2737BA1031B7B73A3930B1BA1037BBB732B9 PUSH1 0x71 SHL PUSH1 0x40 DUP3 ADD MSTORE PUSH1 0x60 ADD SWAP1 JUMP JUMPDEST PUSH4 0x4E487B71 PUSH1 0xE0 SHL PUSH0 MSTORE PUSH1 0x11 PUSH1 0x4 MSTORE PUSH1 0x24 PUSH0 REVERT JUMPDEST PUSH0 PUSH1 0x1 DUP3 ADD PUSH2 0x7A2 JUMPI PUSH2 0x7A2 PUSH2 0x77D JUMP JUMPDEST POP PUSH1 0x1 ADD SWAP1 JUMP JUMPDEST PUSH4 0x4E487B71 PUSH1 0xE0 SHL PUSH0 MSTORE PUSH1 0x32 PUSH1 0x4 MSTORE PUSH1 0x24 PUSH0 REVERT JUMPDEST PUSH0 PUSH1 0x20 DUP3 DUP5 SUB SLT ISZERO PUSH2 0x7CD JUMPI PUSH0 DUP1 REVERT JUMPDEST POP MLOAD SWAP2 SWAP1 POP JUMP JUMPDEST DUP2 DUP2 SUB DUP2 DUP2 GT ISZERO PUSH2 0x6BC JUMPI PUSH2 0x6BC PUSH2 0x77D JUMP JUMPDEST PUSH4 0x4E487B71 PUSH1 0xE0 SHL PUSH0 MSTORE PUSH1 0x41 PUSH1 0x4 MSTORE PUSH1 0x24 PUSH0 REVERT INVALID PUSH1 0x80 PUSH1 0x40 MSTORE CALLVALUE DUP1 ISZERO PUSH1 0xE JUMPI PUSH0 DUP1 REVERT JUMPDEST POP PUSH1 0x40 MLOAD PUSH2 0x1F3 CODESIZE SUB DUP1 PUSH2 0x1F3 DUP4 CODECOPY DUP2 ADD PUSH1 0x40 DUP2 SWAP1 MSTORE PUSH1 0x2B SWAP2 PUSH1 0x43 JUMP JUMPDEST PUSH0 SSTORE PUSH1 0x1 DUP1 SLOAD PUSH1 0x1 PUSH1 0x1 PUSH1 0xA0 SHL SUB NOT AND CALLER OR SWAP1 SSTORE PUSH1 0x59 JUMP JUMPDEST PUSH0 PUSH1 0x20 DUP3 DUP5 SUB SLT ISZERO PUSH1 0x52 JUMPI PUSH0 DUP1 REVERT JUMPDEST POP MLOAD SWAP2 SWAP1 POP JUMP JUMPDEST PUSH2 0x18D DUP1 PUSH2 0x66 PUSH0 CODECOPY PUSH0 RETURN INVALID PUSH1 0x80 PUSH1 0x40 MSTORE CALLVALUE DUP1 ISZERO PUSH2 0xF JUMPI PUSH0 DUP1 REVERT JUMPDEST POP PUSH1 0x4 CALLDATASIZE LT PUSH2 0x3F JUMPI PUSH0 CALLDATALOAD PUSH1 0xE0 SHR DUP1 PUSH4 0x8D6CC56D EQ PUSH2 0x43 JUMPI DUP1 PUSH4 0x8DA5CB5B EQ PUSH2 0x58 JUMPI DUP1 PUSH4 0xA035B1FE EQ PUSH2 0x88 JUMPI JUMPDEST PUSH0 DUP1 REVERT JUMPDEST PUSH2 0x56 PUSH2 0x51 CALLDATASIZE PUSH1 0x4 PUSH2 0x140 JUMP JUMPDEST PUSH2 0x9E JUMP JUMPDEST STOP JUMPDEST PUSH1 0x1 SLOAD PUSH2 0x6B SWAP1 PUSH1 0x1 PUSH1 0x1 PUSH1 0xA0 SHL SUB AND DUP2 JUMP JUMPDEST PUSH1 0x40 MLOAD PUSH1 0x1 PUSH1 0x1 PUSH1 0xA0 SHL SUB SWAP1 SWAP2 AND DUP2 MSTORE PUSH1 0x20 ADD JUMPDEST PUSH1 0x40 MLOAD DUP1 SWAP2 SUB SWAP1 RETURN JUMPDEST PUSH2 0x90 PUSH0 SLOAD DUP2 JUMP JUMPDEST PUSH1 0x40 MLOAD SWAP1 DUP2 MSTORE PUSH1 0x20 ADD PUSH2 0x7F JUMP JUMPDEST PUSH1 0x1 SLOAD PUSH1 0x1 PUSH1 0x1 PUSH1 0xA0 SHL SUB AND CALLER EQ PUSH2 0xFC JUMPI PUSH1 0x40 MLOAD PUSH3 0x461BCD PUSH1 0xE5 SHL DUP2 MSTORE PUSH1 0x20 PUSH1 0x4 DUP3 ADD MSTORE PUSH1 0x1B PUSH1 0x24 DUP3 ADD MSTORE PUSH32 0x4F6E6C79206F776E65722063616E207570646174652070726963650000000000 PUSH1 0x44 DUP3 ADD MSTORE PUSH1 0x64 ADD PUSH1 0x40 MLOAD DUP1 SWAP2 SUB SWAP1 REVERT JUMPDEST PUSH0 DUP1 SLOAD SWAP1 DUP3 SWAP1 SSTORE PUSH1 0x40 DUP1 MLOAD DUP3 DUP2 MSTORE PUSH1 0x20 DUP2 ADD DUP5 SWAP1 MSTORE PUSH32 0x945C1C4E99AA89F648FBFE3DF471B916F719E16D960FCEC0737D4D56BD696838 SWAP2 ADD PUSH1 0x40 MLOAD DUP1 SWAP2 SUB SWAP1 LOG1 POP POP JUMP JUMPDEST PUSH0 PUSH1 0x20 DUP3 DUP5 SUB SLT ISZERO PUSH2 0x150 JUMPI PUSH0 DUP1 REVERT JUMPDEST POP CALLDATALOAD SWAP2 SWAP1 POP JUMP INVALID LOG2 PUSH5 0x6970667358 0x22 SLT KECCAK256 DUP16 0x4E REVERT CREATE 0x4F 0xE4 EXP EXTCODESIZE 0xE3 0x2E 0xC5 0xBC DUP1 PUSH28 0x39F029F58010B1FCFC560DB55D401A8B819164736F6C634300081A00 CALLER LOG2 PUSH5 0x6970667358 0x22 SLT KECCAK256 PUSH29 0xD9AD783052A8E268B8AFD439EF2F33AF546FD6D0DC7051DF7B5D1517FE PUSH25 0xA064736F6C634300081A003300000000000000000000000000 "
				},
				"gasEstimates": {
					"creation": {
						"codeDepositCost": "519200",
						"executionCost": "24789",
						"totalCost": "543989"
					},
					"external": {
						"deployAll()": "infinite",
						"deployMore(uint256,uint256)": "infinite",
						"get(uint256)": "6759",
						"getBatch(uint256,uint256)": "infinite",
						"owner()": "2336",
						"services(uint256)": "4654",
						"totalServices()": "2312",
						"updateSubscriptionPrice(uint256,uint256)": "infinite"
					}
				},
				"methodIdentifiers": {
					"deployAll()": "2d823335",
					"deployMore(uint256,uint256)": "50176d87",
					"get(uint256)": "9507d39a",
					"getBatch(uint256,uint256)": "fe918e68",
					"owner()": "8da5cb5b",
					"services(uint256)": "c22c4f43",
					"totalServices()": "6301ac8f",
					"updateSubscriptionPrice(uint256,uint256)": "667e9660"
				}
			},
			"storageLayout": {
				"storage": [
					{
						"astId": 58,
						"contract": "newfunbatch.sol:BatchDeploySubscriptions",
						"label": "services",
						"offset": 0,
						"slot": "0",
						"type": "t_array(t_contract(Subscription)54)dyn_storage"
					},
					{
						"astId": 60,
						"contract": "newfunbatch.sol:BatchDeploySubscriptions",
						"label": "owner",
						"offset": 0,
						"slot": "1",
						"type": "t_address"
					}
				],
				"types": {
					"t_address": {
						"encoding": "inplace",
						"label": "address",
						"numberOfBytes": "20"
					},
					"t_array(t_contract(Subscription)54)dyn_storage": {
						"base": "t_contract(Subscription)54",
						"encoding": "dynamic_array",
						"label": "contract Subscription[]",
						"numberOfBytes": "32"
					},
					"t_contract(Subscription)54": {
						"encoding": "inplace",
						"label": "contract Subscription",
						"numberOfBytes": "20"
					}
				}
			},
			"userdoc": {
				"kind": "user",
				"methods": {},
				"version": 1
			}
		}
	}
}