{
	"newfunbatch.sol": {
		"Subscription": {
			"abi": [
				{
					"inputs": [
						{
							"internalType": "uint256",
							"name": "_price",
							"type": "uint256"
						}
					],
					"stateMutability": "nonpayable",
					"type": "constructor"
				},
				{
					"anonymous": false,
					"inputs": [
						{
							"indexed": false,
							"internalType": "uint256",
							"name": "oldPrice",
							"type": "uint256"
						},
						{
							"indexed": false,
							"internalType": "uint256",
							"name": "newPrice",
							"type": "uint256"
						}
					],
					"name": "PriceUpdated",
					"type": "event"
				},
				{
					"inputs": [],
					"name": "owner",
					"outputs": [
						{
							"internalType": "address",
							"name": "",
							"type": "address"
						}
					],
					"stateMutability": "view",
					"type": "function"
				},
				{
					"inputs": [],
					"name": "price",
					"outputs": [
						{
							"internalType": "uint256",
							"name": "",
							"type": "uint256"
						}
					],
					"stateMutability": "view",
					"type": "function"
				},
				{
					"inputs": [
						{
							"internalType": "uint256",
							"name": "_newPrice",
							"type": "uint256"
						}
					],
					"name": "updatePrice",
					"outputs": [],
					"stateMutability": "nonpayable",
					"type": "function"
				}
			],
			"devdoc": {
				"kind": "dev",
				"methods": {},
				"version": 1
			},
			"evm": {
				"assembly": "    /* \"newfunbatch.sol\":61:519  contract Subscription {... */\n  mstore(0x40, 0x80)\n    /* \"newfunbatch.sol\":200:287  constructor(uint _price) {... */\n  callvalue\n  dup1\n  iszero\n  tag_1\n  jumpi\n  0x00\n  dup1\n  revert\ntag_1:\n  pop\n  mload(0x40)\n  sub(codesize, bytecodeSize)\n  dup1\n  bytecodeSize\n  dup4\n  codecopy\n  dup2\n  add\n  0x40\n  dup2\n  swap1\n  mstore\n  tag_2\n  swap2\n  tag_3\n  jump\t// in\ntag_2:\n    /* \"newfunbatch.sol\":236:241  price */\n  0x00\n    /* \"newfunbatch.sol\":236:250  price = _price */\n  sstore\n    /* \"newfunbatch.sol\":261:266  owner */\n  0x01\n    /* \"newfunbatch.sol\":261:279  owner = msg.sender */\n  dup1\n  sload\n  not(sub(shl(0xa0, 0x01), 0x01))\n  and\n    /* \"newfunbatch.sol\":269:279  msg.sender */\n  caller\n    /* \"newfunbatch.sol\":261:279  owner = msg.sender */\n  or\n  swap1\n  sstore\n    /* \"newfunbatch.sol\":61:519  contract Subscription {... */\n  jump(tag_7)\n    /* \"#utility.yul\":14:198   */\ntag_3:\n    /* \"#utility.yul\":84:90   */\n  0x00\n    /* \"#utility.yul\":137:139   */\n  0x20\n    /* \"#utility.yul\":125:134   */\n  dup3\n    /* \"#utility.yul\":116:123   */\n  dup5\n    /* \"#utility.yul\":112:135   */\n  sub\n    /* \"#utility.yul\":108:140   */\n  slt\n    /* \"#utility.yul\":105:157   */\n  iszero\n  tag_9\n  jumpi\n    /* \"#utility.yul\":153:154   */\n  0x00\n    /* \"#utility.yul\":150:151   */\n  dup1\n    /* \"#utility.yul\":143:155   */\n  revert\n    /* \"#utility.yul\":105:157   */\ntag_9:\n  pop\n    /* \"#utility.yul\":176:192   */\n  mload\n  swap2\n    /* \"#utility.yul\":14:198   */\n  swap1\n  pop\n  jump\t// out\ntag_7:\n    /* \"newfunbatch.sol\":61:519  contract Subscription {... */\n  dataSize(sub_0)\n  dup1\n  dataOffset(sub_0)\n  0x00\n  codecopy\n  0x00\n  return\nstop\n\nsub_0: assembly {\n        /* \"newfunbatch.sol\":61:519  contract Subscription {... */\n      mstore(0x40, 0x80)\n      callvalue\n      dup1\n      iszero\n      tag_1\n      jumpi\n      0x00\n      dup1\n      revert\n    tag_1:\n      pop\n      jumpi(tag_2, lt(calldatasize, 0x04))\n      shr(0xe0, calldataload(0x00))\n      dup1\n      0x8d6cc56d\n      eq\n      tag_3\n      jumpi\n      dup1\n      0x8da5cb5b\n      eq\n      tag_4\n      jumpi\n      dup1\n      0xa035b1fe\n      eq\n      tag_5\n      jumpi\n    tag_2:\n      0x00\n      dup1\n      revert\n        /* \"newfunbatch.sol\":295:516  function updatePrice(uint _newPrice) public {... */\n    tag_3:\n      tag_6\n      tag_7\n      calldatasize\n      0x04\n      tag_8\n      jump\t// in\n    tag_7:\n      tag_9\n      jump\t// in\n    tag_6:\n      stop\n        /* \"newfunbatch.sol\":114:134  address public owner */\n    tag_4:\n      sload(0x01)\n      tag_10\n      swap1\n      sub(shl(0xa0, 0x01), 0x01)\n      and\n      dup2\n      jump\n    tag_10:\n      mload(0x40)\n      sub(shl(0xa0, 0x01), 0x01)\n        /* \"#utility.yul\":363:395   */\n      swap1\n      swap2\n      and\n        /* \"#utility.yul\":345:396   */\n      dup2\n      mstore\n        /* \"#utility.yul\":333:335   */\n      0x20\n        /* \"#utility.yul\":318:336   */\n      add\n        /* \"newfunbatch.sol\":114:134  address public owner */\n    tag_12:\n      mload(0x40)\n      dup1\n      swap2\n      sub\n      swap1\n      return\n        /* \"newfunbatch.sol\":90:107  uint public price */\n    tag_5:\n      tag_14\n      sload(0x00)\n      dup2\n      jump\n    tag_14:\n      mload(0x40)\n        /* \"#utility.yul\":553:578   */\n      swap1\n      dup2\n      mstore\n        /* \"#utility.yul\":541:543   */\n      0x20\n        /* \"#utility.yul\":526:544   */\n      add\n        /* \"newfunbatch.sol\":90:107  uint public price */\n      tag_12\n        /* \"#utility.yul\":407:584   */\n      jump\n        /* \"newfunbatch.sol\":295:516  function updatePrice(uint _newPrice) public {... */\n    tag_9:\n        /* \"newfunbatch.sol\":372:377  owner */\n      and(sub(shl(0xa0, 0x01), 0x01), sload(0x01))\n        /* \"newfunbatch.sol\":358:368  msg.sender */\n      caller\n        /* \"newfunbatch.sol\":358:377  msg.sender == owner */\n      eq\n        /* \"newfunbatch.sol\":350:409  require(msg.sender == owner, \"Only owner can update price\") */\n      tag_19\n      jumpi\n      mload(0x40)\n      shl(0xe5, 0x461bcd)\n      dup2\n      mstore\n        /* \"#utility.yul\":791:793   */\n      0x20\n        /* \"newfunbatch.sol\":350:409  require(msg.sender == owner, \"Only owner can update price\") */\n      0x04\n      dup3\n      add\n        /* \"#utility.yul\":773:794   */\n      mstore\n        /* \"#utility.yul\":830:832   */\n      0x1b\n        /* \"#utility.yul\":810:828   */\n      0x24\n      dup3\n      add\n        /* \"#utility.yul\":803:833   */\n      mstore\n        /* \"#utility.yul\":869:898   */\n      0x4f6e6c79206f776e65722063616e207570646174652070726963650000000000\n        /* \"#utility.yul\":849:867   */\n      0x44\n      dup3\n      add\n        /* \"#utility.yul\":842:899   */\n      mstore\n        /* \"#utility.yul\":916:934   */\n      0x64\n      add\n        /* \"newfunbatch.sol\":350:409  require(msg.sender == owner, \"Only owner can update price\") */\n      mload(0x40)\n      dup1\n      swap2\n      sub\n      swap1\n      revert\n    tag_19:\n        /* \"newfunbatch.sol\":420:428  uint old */\n      0x00\n        /* \"newfunbatch.sol\":431:436  price */\n      dup1\n      sload\n        /* \"newfunbatch.sol\":447:464  price = _newPrice */\n      swap1\n      dup3\n      swap1\n      sstore\n        /* \"newfunbatch.sol\":480:508  PriceUpdated(old, _newPrice) */\n      0x40\n      dup1\n      mload\n        /* \"#utility.yul\":1119:1144   */\n      dup3\n      dup2\n      mstore\n        /* \"#utility.yul\":1175:1177   */\n      0x20\n        /* \"#utility.yul\":1160:1178   */\n      dup2\n      add\n        /* \"#utility.yul\":1153:1187   */\n      dup5\n      swap1\n      mstore\n        /* \"newfunbatch.sol\":480:508  PriceUpdated(old, _newPrice) */\n      0x945c1c4e99aa89f648fbfe3df471b916f719e16d960fcec0737d4d56bd696838\n      swap2\n        /* \"#utility.yul\":1092:1110   */\n      add\n        /* \"newfunbatch.sol\":480:508  PriceUpdated(old, _newPrice) */\n      mload(0x40)\n      dup1\n      swap2\n      sub\n      swap1\n      log1\n        /* \"newfunbatch.sol\":339:516  {... */\n      pop\n        /* \"newfunbatch.sol\":295:516  function updatePrice(uint _newPrice) public {... */\n      pop\n      jump\t// out\n        /* \"#utility.yul\":14:194   */\n    tag_8:\n        /* \"#utility.yul\":73:79   */\n      0x00\n        /* \"#utility.yul\":126:128   */\n      0x20\n        /* \"#utility.yul\":114:123   */\n      dup3\n        /* \"#utility.yul\":105:112   */\n      dup5\n        /* \"#utility.yul\":101:124   */\n      sub\n        /* \"#utility.yul\":97:129   */\n      slt\n        /* \"#utility.yul\":94:146   */\n      iszero\n      tag_26\n      jumpi\n        /* \"#utility.yul\":142:143   */\n      0x00\n        /* \"#utility.yul\":139:140   */\n      dup1\n        /* \"#utility.yul\":132:144   */\n      revert\n        /* \"#utility.yul\":94:146   */\n    tag_26:\n      pop\n        /* \"#utility.yul\":165:188   */\n      calldataload\n      swap2\n        /* \"#utility.yul\":14:194   */\n      swap1\n      pop\n      jump\t// out\n\n    auxdata: 0xa26469706673582212208f4efdf04fe40a3be32ec5bc807b39f029f58010b1fcfc560db55d401a8b819164736f6c634300081a0033\n}\n",
				"bytecode": {
					"linkReferences": {},
					"object": "6080604052348015600e575f80fd5b506040516101f33803806101f3833981016040819052602b916043565b5f55600180546001600160a01b031916331790556059565b5f602082840312156052575f80fd5b5051919050565b61018d806100665f395ff3fe608060405234801561000f575f80fd5b506004361061003f575f3560e01c80638d6cc56d146100435780638da5cb5b14610058578063a035b1fe14610088575b5f80fd5b610056610051366004610140565b61009e565b005b60015461006b906001600160a01b031681565b6040516001600160a01b0390911681526020015b60405180910390f35b6100905f5481565b60405190815260200161007f565b6001546001600160a01b031633146100fc5760405162461bcd60e51b815260206004820152601b60248201527f4f6e6c79206f776e65722063616e207570646174652070726963650000000000604482015260640160405180910390fd5b5f80549082905560408051828152602081018490527f945c1c4e99aa89f648fbfe3df471b916f719e16d960fcec0737d4d56bd696838910160405180910390a15050565b5f60208284031215610150575f80fd5b503591905056fea26469706673582212208f4efdf04fe40a3be32ec5bc807b39f029f58010b1fcfc560db55d401a8b819164736f6c634300081a0033",
					"opcodes": "PUSH1 0x80 PUSH1 0x40 MSTORE CALLVALUE DUP1 ISZERO PUSH1 0xE JUMPI PUSH0 DUP1 REVERT JUMPDEST POP PUSH1 0x40 MLOAD PUSH2 0x1F3 CODESIZE SUB DUP1 PUSH2 0x1F3 DUP4 CODECOPY DUP2 ADD PUSH1 0x40 DUP2 SWAP1 MSTORE PUSH1 0x2B SWAP2 PUSH1 0x43 JUMP JUMPDEST PUSH0 SSTORE PUSH1 0x1 DUP1 SLOAD PUSH1 0x1 PUSH1 0x1 PUSH1 0xA0 SHL SUB NOT AND CALLER OR SWAP1 SSTORE PUSH1 0x59 JUMP JUMPDEST PUSH0 PUSH1 0x20 DUP3 DUP5 SUB SLT ISZERO PUSH1 0x52 JUMPI PUSH0 DUP1 REVERT JUMPDEST POP MLOAD SWAP2 SWAP1 POP JUMP JUMPDEST PUSH2 0x18D DUP1 PUSH2 0x66 PUSH0 CODECOPY PUSH0 RETURN INVALID PUSH1 0x80 PUSH1 0x40 MSTORE CALLVALUE DUP1 ISZERO PUSH2 0xF JUMPI PUSH0 DUP1 REVERT JUMPDEST POP PUSH1 0x4 CALLDATASIZE LT PUSH2 0x3F JUMPI PUSH0 CALLDATALOAD PUSH1 0xE0 SHR DUP1 PUSH4 0x8D6CC56D EQ PUSH2 0x43 JUMPI DUP1 PUSH4 0x8DA5CB5B EQ PUSH2 0x58 JUMPI DUP1 PUSH4 0xA035B1FE EQ PUSH2 0x88 JUMPI JUMPDEST PUSH0 DUP1 REVERT JUMPDEST PUSH2 0x56 PUSH2 0x51 CALLDATASIZE PUSH1 0x4 PUSH2 0x140 JUMP JUMPDEST PUSH2 0x9E JUMP JUMPDEST STOP JUMPDEST PUSH1 0x1 SLOAD PUSH2 0x6B SWAP1 PUSH1 0x1 PUSH1 0x1 PUSH1 0xA0 SHL SUB AND DUP2 JUMP JUMPDEST PUSH1 0x40 MLOAD PUSH1 0x1 PUSH1 0x1 PUSH1 0xA0 SHL SUB SWAP1 SWAP2 AND DUP2 MSTORE PUSH1 0x20 ADD JUMPDEST PUSH1 0x40 MLOAD DUP1 SWAP2 SUB SWAP1 RETURN JUMPDEST PUSH2 0x90 PUSH0 SLOAD DUP2 JUMP JUMPDEST PUSH1 0x40 MLOAD SWAP1 DUP2 MSTORE PUSH1 0x20 ADD PUSH2 0x7F JUMP JUMPDEST PUSH1 0x1 SLOAD PUSH1 0x1 PUSH1 0x1 PUSH1 0xA0 SHL SUB AND CALLER EQ PUSH2 0xFC JUMPI PUSH1 0x40 MLOAD PUSH3 0x461BCD PUSH1 0xE5 SHL DUP2 MSTORE PUSH1 0x20 PUSH1 0x4 DUP3 ADD MSTORE PUSH1 0x1B PUSH1 0x24 DUP3 ADD MSTORE PUSH32 0x4F6E6C79206F776E65722063616E207570646174652070726963650000000000 PUSH1 0x44 DUP3 ADD MSTORE PUSH1 0x64 ADD PUSH1 0x40 MLOAD DUP1 SWAP2 SUB SWAP1 REVERT JUMPDEST PUSH0 DUP1 SLOAD SWAP1 DUP3 SWAP1 SSTORE PUSH1 0x40 DUP1 MLOAD DUP3 DUP2 MSTORE PUSH1 0x20 DUP2 ADD DUP5 SWAP1 MSTORE PUSH32 0x945C1C4E99AA89F648FBFE3DF471B916F719E16D960FCEC0737D4D56BD696838 SWAP2 ADD PUSH1 0x40 MLOAD DUP1 SWAP2 SUB SWAP1 LOG1 POP POP JUMP JUMPDEST PUSH0 PUSH1 0x20 DUP3 DUP5 SUB SLT ISZERO PUSH2 0x150 JUMPI PUSH0 DUP1 REVERT JUMPDEST POP CALLDATALOAD SWAP2 SWAP1 POP JUMP INVALID LOG2 PUSH5 0x6970667358 0x22 SLT KECCAK256 DUP16 0x4E REVERT CREATE 0x4F 0xE4 EXP EXTCODESIZE 0xE3 0x2E 0xC5 0xBC DUP1 PUSH28 0x39F029F58010B1FCFC560DB55D401A8B819164736F6C634300081A00 CALLER "
				},
				"gasEstimates": {
					"creation": {
						"codeDepositCost": "79400",
						"executionCost": "infinite",
						"totalCost": "infinite"
					},
					"external": {
						"owner()": "2325",
						"price()": "2315",
						"updatePrice(uint256)": "27889"
					}
				},
				"methodIdentifiers": {
					"owner()": "8da5cb5b",
					"price()": "a035b1fe",
					"updatePrice(uint256)": "8d6cc56d"
				}
			},
			"storageLayout": {
				"storage": [
					{
						"astId": 3,
						"contract": "newfunbatch.sol:Subscription",
						"label": "price",
						"offset": 0,
						"slot": "0",
						"type": "t_uint256"
					},
					{
						"astId": 5,
						"contract": "newfunbatch.sol:Subscription",
						"label": "owner",
						"offset": 0,
						"slot": "1",
						"type": "t_address"
					}
				],
				"types": {
					"t_address": {
						"encoding": "inplace",
						"label": "address",
						"numberOfBytes": "20"
					},
					"t_uint256": {
						"encoding": "inplace",
						"label": "uint256",
						"numberOfBytes": "32"
					}
				}
			},
			"userdoc": {
				"kind": "user",
				"methods": {},
				"version": 1
			}
		}
	}
}