{
	"fullenchanded.sol": {
		"BatchDeploySubscriptions": {
			"abi": [
				{
					"inputs": [],
					"stateMutability": "nonpayable",
					"type": "constructor"
				},
				{
					"anonymous": false,
					"inputs": [
						{
							"indexed": false,
							"internalType": "address",
							"name": "oldOwner",
							"type": "address"
						},
						{
							"indexed": false,
							"internalType": "address",
							"name": "newOwner",
							"type": "address"
						}
					],
					"name": "OwnershipTransferred",
					"type": "event"
				},
				{
					"anonymous": false,
					"inputs": [
						{
							"indexed": true,
							"internalType": "address",
							"name": "service",
							"type": "address"
						},
						{
							"indexed": false,
							"internalType": "uint256",
							"name": "oldPrice",
							"type": "uint256"
						},
						{
							"indexed": false,
							"internalType": "uint256",
							"name": "newPrice",
							"type": "uint256"
						}
					],
					"name": "PriceUpdated",
					"type": "event"
				},
				{
					"anonymous": false,
					"inputs": [
						{
							"indexed": true,
							"internalType": "address",
							"name": "service",
							"type": "address"
						},
						{
							"indexed": false,
							"internalType": "uint256",
							"name": "price",
							"type": "uint256"
						}
					],
					"name": "ServiceDeployed",
					"type": "event"
				},
				{
					"inputs": [
						{
							"internalType": "uint256",
							"name": "index",
							"type": "uint256"
						}
					],
					"name": "activateService",
					"outputs": [],
					"stateMutability": "nonpayable",
					"type": "function"
				},
				{
					"inputs": [
						{
							"internalType": "uint256",
							"name": "_price",
							"type": "uint256"
						}
					],
					"name": "addService",
					"outputs": [],
					"stateMutability": "nonpayable",
					"type": "function"
				},
				{
					"inputs": [
						{
							"internalType": "uint256",
							"name": "index",
							"type": "uint256"
						}
					],
					"name": "deactivateService",
					"outputs": [],
					"stateMutability": "nonpayable",
					"type": "function"
				},
				{
					"inputs": [
						{
							"internalType": "uint256",
							"name": "_price",
							"type": "uint256"
						},
						{
							"internalType": "uint256",
							"name": "_count",
							"type": "uint256"
						}
					],
					"name": "deployAll",
					"outputs": [],
					"stateMutability": "nonpayable",
					"type": "function"
				},
				{
					"inputs": [
						{
							"internalType": "uint256",
							"name": "index",
							"type": "uint256"
						}
					],
					"name": "get",
					"outputs": [
						{
							"internalType": "address",
							"name": "",
							"type": "address"
						}
					],
					"stateMutability": "view",
					"type": "function"
				},
				{
					"inputs": [],
					"name": "getActiveServices",
					"outputs": [
						{
							"internalType": "address[]",
							"name": "",
							"type": "address[]"
						}
					],
					"stateMutability": "view",
					"type": "function"
				},
				{
					"inputs": [],
					"name": "getAllServices",
					"outputs": [
						{
							"internalType": "address[]",
							"name": "",
							"type": "address[]"
						}
					],
					"stateMutability": "view",
					"type": "function"
				},
				{
					"inputs": [
						{
							"internalType": "uint256",
							"name": "",
							"type": "uint256"
						}
					],
					"name": "isActive",
					"outputs": [
						{
							"internalType": "bool",
							"name": "",
							"type": "bool"
						}
					],
					"stateMutability": "view",
					"type": "function"
				},
				{
					"inputs": [],
					"name": "owner",
					"outputs": [
						{
							"internalType": "address",
							"name": "",
							"type": "address"
						}
					],
					"stateMutability": "view",
					"type": "function"
				},
				{
					"inputs": [
						{
							"internalType": "uint256",
							"name": "index",
							"type": "uint256"
						}
					],
					"name": "pauseService",
					"outputs": [],
					"stateMutability": "nonpayable",
					"type": "function"
				},
				{
					"inputs": [
						{
							"internalType": "uint256",
							"name": "index",
							"type": "uint256"
						}
					],
					"name": "resumeService",
					"outputs": [],
					"stateMutability": "nonpayable",
					"type": "function"
				},
				{
					"inputs": [
						{
							"internalType": "uint256",
							"name": "",
							"type": "uint256"
						}
					],
					"name": "services",
					"outputs": [
						{
							"internalType": "contract Subscription",
							"name": "",
							"type": "address"
						}
					],
					"stateMutability": "view",
					"type": "function"
				},
				{
					"inputs": [
						{
							"internalType": "address",
							"name": "newOwner",
							"type": "address"
						}
					],
					"name": "transferOwnership",
					"outputs": [],
					"stateMutability": "nonpayable",
					"type": "function"
				},
				{
					"inputs": [
						{
							"internalType": "uint256",
							"name": "index",
							"type": "uint256"
						},
						{
							"internalType": "uint256",
							"name": "_newPrice",
							"type": "uint256"
						}
					],
					"name": "updateServicePrice",
					"outputs": [],
					"stateMutability": "nonpayable",
					"type": "function"
				}
			],
			"devdoc": {
				"kind": "dev",
				"methods": {},
				"title": "Batch deployment and management of subscriptions",
				"version": 1
			},
			"evm": {
				"assembly": "    /* \"fullenchanded.sol\":1527:5427  contract BatchDeploySubscriptions {... */\n  mstore(0x40, 0x80)\n    /* \"fullenchanded.sol\":1999:2050  constructor() {... */\n  callvalue\n  dup1\n  iszero\n  tag_1\n  jumpi\n  0x00\n  dup1\n  revert\ntag_1:\n  pop\n    /* \"fullenchanded.sol\":2024:2029  owner */\n  0x00\n    /* \"fullenchanded.sol\":2024:2042  owner = msg.sender */\n  dup1\n  sload\n  not(sub(shl(0xa0, 0x01), 0x01))\n  and\n    /* \"fullenchanded.sol\":2032:2042  msg.sender */\n  caller\n    /* \"fullenchanded.sol\":2024:2042  owner = msg.sender */\n  or\n  swap1\n  sstore\n    /* \"fullenchanded.sol\":1527:5427  contract BatchDeploySubscriptions {... */\n  dataSize(sub_0)\n  dup1\n  dataOffset(sub_0)\n  0x00\n  codecopy\n  0x00\n  return\nstop\n\nsub_0: assembly {\n        /* \"fullenchanded.sol\":1527:5427  contract BatchDeploySubscriptions {... */\n      mstore(0x40, 0x80)\n      callvalue\n      dup1\n      iszero\n      tag_1\n      jumpi\n      0x00\n      dup1\n      revert\n    tag_1:\n      pop\n      jumpi(tag_2, lt(calldatasize, 0x04))\n      shr(0xe0, calldataload(0x00))\n      dup1\n      0x9507d39a\n      gt\n      tag_17\n      jumpi\n      dup1\n      0xc22c4f43\n      gt\n      tag_18\n      jumpi\n      dup1\n      0xc22c4f43\n      eq\n      tag_13\n      jumpi\n      dup1\n      0xec9c3212\n      eq\n      tag_14\n      jumpi\n      dup1\n      0xed422358\n      eq\n      tag_15\n      jumpi\n      dup1\n      0xf2fde38b\n      eq\n      tag_16\n      jumpi\n      0x00\n      dup1\n      revert\n    tag_18:\n      dup1\n      0x9507d39a\n      eq\n      tag_10\n      jumpi\n      dup1\n      0x9fd80934\n      eq\n      tag_11\n      jumpi\n      dup1\n      0xa45bb9ea\n      eq\n      tag_12\n      jumpi\n      0x00\n      dup1\n      revert\n    tag_17:\n      dup1\n      0x6613ff34\n      gt\n      tag_19\n      jumpi\n      dup1\n      0x6613ff34\n      eq\n      tag_6\n      jumpi\n      dup1\n      0x82afd23b\n      eq\n      tag_7\n      jumpi\n      dup1\n      0x850d2530\n      eq\n      tag_8\n      jumpi\n      dup1\n      0x8da5cb5b\n      eq\n      tag_9\n      jumpi\n      0x00\n      dup1\n      revert\n    tag_19:\n      dup1\n      0x21fe0f30\n      eq\n      tag_3\n      jumpi\n      dup1\n      0x304f90bb\n      eq\n      tag_4\n      jumpi\n      dup1\n      0x3b8b26a6\n      eq\n      tag_5\n      jumpi\n    tag_2:\n      0x00\n      dup1\n      revert\n        /* \"fullenchanded.sol\":4292:4577  function getAllServices() public view returns (address[] memory) {... */\n    tag_3:\n      tag_20\n      tag_21\n      jump\t// in\n    tag_20:\n      mload(0x40)\n      tag_22\n      swap2\n      swap1\n      tag_23\n      jump\t// in\n    tag_22:\n      mload(0x40)\n      dup1\n      swap2\n      sub\n      swap1\n      return\n        /* \"fullenchanded.sol\":2557:2799  function addService(uint _price) public onlyOwner {... */\n    tag_4:\n      tag_24\n      tag_25\n      calldatasize\n      0x04\n      tag_26\n      jump\t// in\n    tag_25:\n      tag_27\n      jump\t// in\n    tag_24:\n      stop\n        /* \"fullenchanded.sol\":2108:2485  function deployAll(uint _price, uint _count) public onlyOwner {... */\n    tag_5:\n      tag_24\n      tag_29\n      calldatasize\n      0x04\n      tag_30\n      jump\t// in\n    tag_29:\n      tag_31\n      jump\t// in\n        /* \"fullenchanded.sol\":3430:3585  function resumeService(uint index) public onlyOwner {... */\n    tag_6:\n      tag_24\n      tag_33\n      calldatasize\n      0x04\n      tag_26\n      jump\t// in\n    tag_33:\n      tag_34\n      jump\t// in\n        /* \"fullenchanded.sol\":1632:1669  mapping(uint => bool) public isActive */\n    tag_7:\n      tag_35\n      tag_36\n      calldatasize\n      0x04\n      tag_26\n      jump\t// in\n    tag_36:\n      mstore(0x20, 0x02)\n      0x00\n      swap1\n      dup2\n      mstore\n      0x40\n      swap1\n      keccak256\n      sload\n      0xff\n      and\n      dup2\n      jump\n    tag_35:\n      mload(0x40)\n        /* \"#utility.yul\":1403:1417   */\n      swap1\n      iszero\n        /* \"#utility.yul\":1396:1418   */\n      iszero\n        /* \"#utility.yul\":1378:1419   */\n      dup2\n      mstore\n        /* \"#utility.yul\":1366:1368   */\n      0x20\n        /* \"#utility.yul\":1351:1369   */\n      add\n        /* \"fullenchanded.sol\":1632:1669  mapping(uint => bool) public isActive */\n      tag_22\n        /* \"#utility.yul\":1238:1425   */\n      jump\n        /* \"fullenchanded.sol\":4636:5153  function getActiveServices() public view returns (address[] memory) {... */\n    tag_8:\n      tag_20\n      tag_41\n      jump\t// in\n        /* \"fullenchanded.sol\":1568:1588  address public owner */\n    tag_9:\n      sload(0x00)\n      tag_43\n      swap1\n      sub(shl(0xa0, 0x01), 0x01)\n      and\n      dup2\n      jump\n    tag_43:\n      mload(0x40)\n      sub(shl(0xa0, 0x01), 0x01)\n        /* \"#utility.yul\":1594:1626   */\n      swap1\n      swap2\n      and\n        /* \"#utility.yul\":1576:1627   */\n      dup2\n      mstore\n        /* \"#utility.yul\":1564:1566   */\n      0x20\n        /* \"#utility.yul\":1549:1567   */\n      add\n        /* \"fullenchanded.sol\":1568:1588  address public owner */\n      tag_22\n        /* \"#utility.yul\":1430:1633   */\n      jump\n        /* \"fullenchanded.sol\":4136:4241  function get(uint index) public view returns (address) {... */\n    tag_10:\n      tag_43\n      tag_48\n      calldatasize\n      0x04\n      tag_26\n      jump\t// in\n    tag_48:\n      tag_49\n      jump\t// in\n        /* \"fullenchanded.sol\":2860:3176  function updateServicePrice(uint index, uint _newPrice) public onlyOwner {... */\n    tag_11:\n      tag_24\n      tag_52\n      calldatasize\n      0x04\n      tag_30\n      jump\t// in\n    tag_52:\n      tag_53\n      jump\t// in\n        /* \"fullenchanded.sol\":3890:4082  function activateService(uint index) public onlyOwner {... */\n    tag_12:\n      tag_24\n      tag_55\n      calldatasize\n      0x04\n      tag_26\n      jump\t// in\n    tag_55:\n      tag_56\n      jump\t// in\n        /* \"fullenchanded.sol\":1595:1625  Subscription[] public services */\n    tag_13:\n      tag_43\n      tag_58\n      calldatasize\n      0x04\n      tag_26\n      jump\t// in\n    tag_58:\n      tag_59\n      jump\t// in\n        /* \"fullenchanded.sol\":3640:3837  function deactivateService(uint index) public onlyOwner {... */\n    tag_14:\n      tag_24\n      tag_63\n      calldatasize\n      0x04\n      tag_26\n      jump\t// in\n    tag_63:\n      tag_64\n      jump\t// in\n        /* \"fullenchanded.sol\":3226:3379  function pauseService(uint index) public onlyOwner {... */\n    tag_15:\n      tag_24\n      tag_66\n      calldatasize\n      0x04\n      tag_26\n      jump\t// in\n    tag_66:\n      tag_67\n      jump\t// in\n        /* \"fullenchanded.sol\":5213:5424  function transferOwnership(address newOwner) public onlyOwner {... */\n    tag_16:\n      tag_24\n      tag_69\n      calldatasize\n      0x04\n      tag_70\n      jump\t// in\n    tag_69:\n      tag_71\n      jump\t// in\n        /* \"fullenchanded.sol\":4292:4577  function getAllServices() public view returns (address[] memory) {... */\n    tag_21:\n        /* \"fullenchanded.sol\":4411:4419  services */\n      0x01\n        /* \"fullenchanded.sol\":4411:4426  services.length */\n      sload\n        /* \"fullenchanded.sol\":4339:4355  address[] memory */\n      0x60\n      swap1\n        /* \"fullenchanded.sol\":4368:4394  address[] memory addresses */\n      0x00\n      swap1\n        /* \"fullenchanded.sol\":4397:4427  new address[](services.length) */\n      0xffffffffffffffff\n      dup2\n      gt\n      iszero\n      tag_74\n      jumpi\n      tag_74\n      tag_75\n      jump\t// in\n    tag_74:\n      mload(0x40)\n      swap1\n      dup1\n      dup3\n      mstore\n      dup1\n      0x20\n      mul\n      0x20\n      add\n      dup3\n      add\n      0x40\n      mstore\n      dup1\n      iszero\n      tag_76\n      jumpi\n      dup2\n      0x20\n      add\n      0x20\n      dup3\n      mul\n      dup1\n      calldatasize\n      dup4\n      calldatacopy\n      add\n      swap1\n      pop\n    tag_76:\n      pop\n        /* \"fullenchanded.sol\":4368:4427  address[] memory addresses = new address[](services.length) */\n      swap1\n      pop\n        /* \"fullenchanded.sol\":4443:4449  uint i */\n      0x00\n        /* \"fullenchanded.sol\":4438:4543  for (uint i = 0; i < services.length; i++) {... */\n    tag_77:\n        /* \"fullenchanded.sol\":4459:4467  services */\n      0x01\n        /* \"fullenchanded.sol\":4459:4474  services.length */\n      sload\n        /* \"fullenchanded.sol\":4455:4474  i < services.length */\n      dup2\n      lt\n        /* \"fullenchanded.sol\":4438:4543  for (uint i = 0; i < services.length; i++) {... */\n      iszero\n      tag_78\n      jumpi\n        /* \"fullenchanded.sol\":4519:4527  services */\n      0x01\n        /* \"fullenchanded.sol\":4528:4529  i */\n      dup2\n        /* \"fullenchanded.sol\":4519:4530  services[i] */\n      dup2\n      sload\n      dup2\n      lt\n      tag_81\n      jumpi\n      tag_81\n      tag_82\n      jump\t// in\n    tag_81:\n      swap1\n      0x00\n      mstore\n      keccak256(0x00, 0x20)\n      add\n      0x00\n      swap1\n      sload\n      swap1\n      0x0100\n      exp\n      swap1\n      div\n      sub(shl(0xa0, 0x01), 0x01)\n      and\n        /* \"fullenchanded.sol\":4496:4505  addresses */\n      dup3\n        /* \"fullenchanded.sol\":4506:4507  i */\n      dup3\n        /* \"fullenchanded.sol\":4496:4508  addresses[i] */\n      dup2\n      mload\n      dup2\n      lt\n      tag_85\n      jumpi\n      tag_85\n      tag_82\n      jump\t// in\n    tag_85:\n      sub(shl(0xa0, 0x01), 0x01)\n        /* \"fullenchanded.sol\":4496:4531  addresses[i] = address(services[i]) */\n      swap1\n      swap3\n      and\n        /* \"fullenchanded.sol\":4496:4508  addresses[i] */\n      0x20\n      swap3\n      dup4\n      mul\n      swap2\n      swap1\n      swap2\n      add\n      swap1\n      swap2\n      add\n        /* \"fullenchanded.sol\":4496:4531  addresses[i] = address(services[i]) */\n      mstore\n        /* \"fullenchanded.sol\":4476:4479  i++ */\n      0x01\n      add\n        /* \"fullenchanded.sol\":4438:4543  for (uint i = 0; i < services.length; i++) {... */\n      jump(tag_77)\n    tag_78:\n      pop\n        /* \"fullenchanded.sol\":4560:4569  addresses */\n      swap2\n        /* \"fullenchanded.sol\":4292:4577  function getAllServices() public view returns (address[] memory) {... */\n      swap1\n      pop\n      jump\t// out\n        /* \"fullenchanded.sol\":2557:2799  function addService(uint _price) public onlyOwner {... */\n    tag_27:\n        /* \"fullenchanded.sol\":1948:1953  owner */\n      and(sub(shl(0xa0, 0x01), 0x01), sload(0x00))\n        /* \"fullenchanded.sol\":1934:1944  msg.sender */\n      caller\n        /* \"fullenchanded.sol\":1934:1953  msg.sender == owner */\n      eq\n        /* \"fullenchanded.sol\":1926:1971  require(msg.sender == owner, \"Not the owner\") */\n      tag_87\n      jumpi\n      mload(0x40)\n      shl(0xe5, 0x461bcd)\n      dup2\n      mstore\n      0x04\n      add\n      tag_88\n      swap1\n      tag_89\n      jump\t// in\n    tag_88:\n      mload(0x40)\n      dup1\n      swap2\n      sub\n      swap1\n      revert\n    tag_87:\n        /* \"fullenchanded.sol\":2618:2632  Subscription s */\n      0x00\n        /* \"fullenchanded.sol\":2660:2665  owner */\n      dup1\n      sload\n        /* \"fullenchanded.sol\":2635:2666  new Subscription(_price, owner) */\n      mload(0x40)\n        /* \"fullenchanded.sol\":2652:2658  _price */\n      dup4\n      swap2\n      sub(shl(0xa0, 0x01), 0x01)\n        /* \"fullenchanded.sol\":2660:2665  owner */\n      and\n      swap1\n        /* \"fullenchanded.sol\":2635:2666  new Subscription(_price, owner) */\n      tag_91\n      swap1\n      tag_92\n      jump\t// in\n    tag_91:\n        /* \"#utility.yul\":2937:2962   */\n      swap2\n      dup3\n      mstore\n      sub(shl(0xa0, 0x01), 0x01)\n        /* \"#utility.yul\":2998:3030   */\n      and\n        /* \"#utility.yul\":2993:2995   */\n      0x20\n        /* \"#utility.yul\":2978:2996   */\n      dup3\n      add\n        /* \"#utility.yul\":2971:3031   */\n      mstore\n        /* \"#utility.yul\":2925:2927   */\n      0x40\n        /* \"#utility.yul\":2910:2928   */\n      add\n        /* \"fullenchanded.sol\":2635:2666  new Subscription(_price, owner) */\n      mload(0x40)\n      dup1\n      swap2\n      sub\n      swap1\n      0x00\n      create\n      dup1\n      iszero\n      dup1\n      iszero\n      tag_95\n      jumpi\n      returndatasize\n      0x00\n      dup1\n      returndatacopy\n      revert(0x00, returndatasize)\n    tag_95:\n      pop\n        /* \"fullenchanded.sol\":2677:2685  services */\n      0x01\n        /* \"fullenchanded.sol\":2677:2693  services.push(s) */\n      dup1\n      sload\n      dup1\n      dup3\n      add\n      dup3\n      sstore\n      0x00\n      dup3\n      dup2\n      mstore\n      0xb10e2d527612073b26eecdfd717e6a320cf44b4afac2b0732d9fcbe2b7fa0cf6\n      swap1\n      swap2\n      add\n      dup1\n      sload\n      not(sub(shl(0xa0, 0x01), 0x01))\n      and\n      sub(shl(0xa0, 0x01), 0x01)\n      dup6\n      and\n      or\n      swap1\n      sstore\n        /* \"fullenchanded.sol\":2713:2728  services.length */\n      dup2\n      sload\n        /* \"fullenchanded.sol\":2677:2693  services.push(s) */\n      swap3\n      swap4\n      pop\n        /* \"fullenchanded.sol\":2677:2685  services */\n      swap1\n      swap2\n        /* \"fullenchanded.sol\":2704:2712  isActive */\n      0x02\n      swap2\n      swap1\n        /* \"fullenchanded.sol\":2713:2732  services.length - 1 */\n      tag_97\n      swap1\n        /* \"fullenchanded.sol\":2677:2685  services */\n      dup5\n      swap1\n        /* \"fullenchanded.sol\":2713:2732  services.length - 1 */\n      tag_98\n      jump\t// in\n    tag_97:\n        /* \"fullenchanded.sol\":2704:2733  isActive[services.length - 1] */\n      dup2\n      mstore\n      0x20\n      add\n      swap1\n      dup2\n      mstore\n      0x20\n      add\n      0x00\n      keccak256\n      0x00\n        /* \"fullenchanded.sol\":2704:2740  isActive[services.length - 1] = true */\n      0x0100\n      exp\n      dup2\n      sload\n      dup2\n      0xff\n      mul\n      not\n      and\n      swap1\n      dup4\n      iszero\n      iszero\n      mul\n      or\n      swap1\n      sstore\n      pop\n        /* \"fullenchanded.sol\":2780:2781  s */\n      dup1\n      sub(shl(0xa0, 0x01), 0x01)\n        /* \"fullenchanded.sol\":2756:2791  ServiceDeployed(address(s), _price) */\n      and\n      0xdee7f9f5d5947a9c6657741a7b8cd7dd8d9d465ab5771a6a2bc4ef074209c0ff\n        /* \"fullenchanded.sol\":2784:2790  _price */\n      dup4\n        /* \"fullenchanded.sol\":2756:2791  ServiceDeployed(address(s), _price) */\n      mload(0x40)\n      tag_99\n      swap2\n        /* \"#utility.yul\":3453:3478   */\n      dup2\n      mstore\n        /* \"#utility.yul\":3441:3443   */\n      0x20\n        /* \"#utility.yul\":3426:3444   */\n      add\n      swap1\n        /* \"#utility.yul\":3307:3484   */\n      jump\n        /* \"fullenchanded.sol\":2756:2791  ServiceDeployed(address(s), _price) */\n    tag_99:\n      mload(0x40)\n      dup1\n      swap2\n      sub\n      swap1\n      log2\n        /* \"fullenchanded.sol\":2607:2799  {... */\n      pop\n        /* \"fullenchanded.sol\":2557:2799  function addService(uint _price) public onlyOwner {... */\n      pop\n      jump\t// out\n        /* \"fullenchanded.sol\":2108:2485  function deployAll(uint _price, uint _count) public onlyOwner {... */\n    tag_31:\n        /* \"fullenchanded.sol\":1948:1953  owner */\n      and(sub(shl(0xa0, 0x01), 0x01), sload(0x00))\n        /* \"fullenchanded.sol\":1934:1944  msg.sender */\n      caller\n        /* \"fullenchanded.sol\":1934:1953  msg.sender == owner */\n      eq\n        /* \"fullenchanded.sol\":1926:1971  require(msg.sender == owner, \"Not the owner\") */\n      tag_102\n      jumpi\n      mload(0x40)\n      shl(0xe5, 0x461bcd)\n      dup2\n      mstore\n      0x04\n      add\n      tag_88\n      swap1\n      tag_89\n      jump\t// in\n    tag_102:\n        /* \"fullenchanded.sol\":2198:2199  0 */\n      0x00\n        /* \"fullenchanded.sol\":2189:2195  _count */\n      dup2\n        /* \"fullenchanded.sol\":2189:2199  _count > 0 */\n      gt\n        /* \"fullenchanded.sol\":2181:2221  require(_count > 0, \"Count must be > 0\") */\n      tag_105\n      jumpi\n      mload(0x40)\n      shl(0xe5, 0x461bcd)\n      dup2\n      mstore\n        /* \"#utility.yul\":3691:3693   */\n      0x20\n        /* \"fullenchanded.sol\":2181:2221  require(_count > 0, \"Count must be > 0\") */\n      0x04\n      dup3\n      add\n        /* \"#utility.yul\":3673:3694   */\n      mstore\n        /* \"#utility.yul\":3730:3732   */\n      0x11\n        /* \"#utility.yul\":3710:3728   */\n      0x24\n      dup3\n      add\n        /* \"#utility.yul\":3703:3733   */\n      mstore\n      shl(0x7c, 0x0436f756e74206d757374206265203e203)\n        /* \"#utility.yul\":3749:3767   */\n      0x44\n      dup3\n      add\n        /* \"#utility.yul\":3742:3789   */\n      mstore\n        /* \"#utility.yul\":3806:3824   */\n      0x64\n      add\n        /* \"fullenchanded.sol\":2181:2221  require(_count > 0, \"Count must be > 0\") */\n      tag_88\n        /* \"#utility.yul\":3489:3830   */\n      jump\n        /* \"fullenchanded.sol\":2181:2221  require(_count > 0, \"Count must be > 0\") */\n    tag_105:\n        /* \"fullenchanded.sol\":2237:2243  uint i */\n      0x00\n        /* \"fullenchanded.sol\":2232:2478  for (uint i = 0; i < _count; i++) {... */\n    tag_108:\n        /* \"fullenchanded.sol\":2253:2259  _count */\n      dup2\n        /* \"fullenchanded.sol\":2249:2250  i */\n      dup2\n        /* \"fullenchanded.sol\":2249:2259  i < _count */\n      lt\n        /* \"fullenchanded.sol\":2232:2478  for (uint i = 0; i < _count; i++) {... */\n      iszero\n      tag_109\n      jumpi\n        /* \"fullenchanded.sol\":2281:2295  Subscription s */\n      0x00\n        /* \"fullenchanded.sol\":2323:2328  owner */\n      dup1\n      sload\n        /* \"fullenchanded.sol\":2298:2329  new Subscription(_price, owner) */\n      mload(0x40)\n        /* \"fullenchanded.sol\":2315:2321  _price */\n      dup6\n      swap2\n      sub(shl(0xa0, 0x01), 0x01)\n        /* \"fullenchanded.sol\":2323:2328  owner */\n      and\n      swap1\n        /* \"fullenchanded.sol\":2298:2329  new Subscription(_price, owner) */\n      tag_111\n      swap1\n      tag_92\n      jump\t// in\n    tag_111:\n        /* \"#utility.yul\":2937:2962   */\n      swap2\n      dup3\n      mstore\n      sub(shl(0xa0, 0x01), 0x01)\n        /* \"#utility.yul\":2998:3030   */\n      and\n        /* \"#utility.yul\":2993:2995   */\n      0x20\n        /* \"#utility.yul\":2978:2996   */\n      dup3\n      add\n        /* \"#utility.yul\":2971:3031   */\n      mstore\n        /* \"#utility.yul\":2925:2927   */\n      0x40\n        /* \"#utility.yul\":2910:2928   */\n      add\n        /* \"fullenchanded.sol\":2298:2329  new Subscription(_price, owner) */\n      mload(0x40)\n      dup1\n      swap2\n      sub\n      swap1\n      0x00\n      create\n      dup1\n      iszero\n      dup1\n      iszero\n      tag_113\n      jumpi\n      returndatasize\n      0x00\n      dup1\n      returndatacopy\n      revert(0x00, returndatasize)\n    tag_113:\n      pop\n        /* \"fullenchanded.sol\":2344:2352  services */\n      0x01\n        /* \"fullenchanded.sol\":2344:2360  services.push(s) */\n      dup1\n      sload\n      dup1\n      dup3\n      add\n      dup3\n      sstore\n      0x00\n      dup3\n      dup2\n      mstore\n      0xb10e2d527612073b26eecdfd717e6a320cf44b4afac2b0732d9fcbe2b7fa0cf6\n      swap1\n      swap2\n      add\n      dup1\n      sload\n      not(sub(shl(0xa0, 0x01), 0x01))\n      and\n      sub(shl(0xa0, 0x01), 0x01)\n      dup6\n      and\n      or\n      swap1\n      sstore\n        /* \"fullenchanded.sol\":2384:2399  services.length */\n      dup2\n      sload\n        /* \"fullenchanded.sol\":2344:2360  services.push(s) */\n      swap3\n      swap4\n      pop\n        /* \"fullenchanded.sol\":2344:2352  services */\n      swap1\n      swap2\n        /* \"fullenchanded.sol\":2375:2383  isActive */\n      0x02\n      swap2\n      swap1\n        /* \"fullenchanded.sol\":2384:2403  services.length - 1 */\n      tag_115\n      swap1\n        /* \"fullenchanded.sol\":2344:2352  services */\n      dup5\n      swap1\n        /* \"fullenchanded.sol\":2384:2403  services.length - 1 */\n      tag_98\n      jump\t// in\n    tag_115:\n        /* \"fullenchanded.sol\":2375:2404  isActive[services.length - 1] */\n      dup2\n      mstore\n      0x20\n      add\n      swap1\n      dup2\n      mstore\n      0x20\n      add\n      0x00\n      keccak256\n      0x00\n        /* \"fullenchanded.sol\":2375:2411  isActive[services.length - 1] = true */\n      0x0100\n      exp\n      dup2\n      sload\n      dup2\n      0xff\n      mul\n      not\n      and\n      swap1\n      dup4\n      iszero\n      iszero\n      mul\n      or\n      swap1\n      sstore\n      pop\n        /* \"fullenchanded.sol\":2455:2456  s */\n      dup1\n      sub(shl(0xa0, 0x01), 0x01)\n        /* \"fullenchanded.sol\":2431:2466  ServiceDeployed(address(s), _price) */\n      and\n      0xdee7f9f5d5947a9c6657741a7b8cd7dd8d9d465ab5771a6a2bc4ef074209c0ff\n        /* \"fullenchanded.sol\":2459:2465  _price */\n      dup6\n        /* \"fullenchanded.sol\":2431:2466  ServiceDeployed(address(s), _price) */\n      mload(0x40)\n      tag_116\n      swap2\n        /* \"#utility.yul\":3453:3478   */\n      dup2\n      mstore\n        /* \"#utility.yul\":3441:3443   */\n      0x20\n        /* \"#utility.yul\":3426:3444   */\n      add\n      swap1\n        /* \"#utility.yul\":3307:3484   */\n      jump\n        /* \"fullenchanded.sol\":2431:2466  ServiceDeployed(address(s), _price) */\n    tag_116:\n      mload(0x40)\n      dup1\n      swap2\n      sub\n      swap1\n      log2\n      pop\n        /* \"fullenchanded.sol\":2261:2264  i++ */\n      0x01\n      add\n        /* \"fullenchanded.sol\":2232:2478  for (uint i = 0; i < _count; i++) {... */\n      jump(tag_108)\n    tag_109:\n      pop\n        /* \"fullenchanded.sol\":2108:2485  function deployAll(uint _price, uint _count) public onlyOwner {... */\n      pop\n      pop\n      jump\t// out\n        /* \"fullenchanded.sol\":3430:3585  function resumeService(uint index) public onlyOwner {... */\n    tag_34:\n        /* \"fullenchanded.sol\":1948:1953  owner */\n      and(sub(shl(0xa0, 0x01), 0x01), sload(0x00))\n        /* \"fullenchanded.sol\":1934:1944  msg.sender */\n      caller\n        /* \"fullenchanded.sol\":1934:1953  msg.sender == owner */\n      eq\n        /* \"fullenchanded.sol\":1926:1971  require(msg.sender == owner, \"Not the owner\") */\n      tag_118\n      jumpi\n      mload(0x40)\n      shl(0xe5, 0x461bcd)\n      dup2\n      mstore\n      0x04\n      add\n      tag_88\n      swap1\n      tag_89\n      jump\t// in\n    tag_118:\n        /* \"fullenchanded.sol\":3509:3517  services */\n      0x01\n        /* \"fullenchanded.sol\":3509:3524  services.length */\n      sload\n        /* \"fullenchanded.sol\":3501:3524  index < services.length */\n      dup2\n      lt\n        /* \"fullenchanded.sol\":3493:3542  require(index < services.length, \"Invalid index\") */\n      tag_121\n      jumpi\n      mload(0x40)\n      shl(0xe5, 0x461bcd)\n      dup2\n      mstore\n      0x04\n      add\n      tag_88\n      swap1\n      tag_123\n      jump\t// in\n    tag_121:\n        /* \"fullenchanded.sol\":3553:3561  services */\n      0x01\n        /* \"fullenchanded.sol\":3562:3567  index */\n      dup2\n        /* \"fullenchanded.sol\":3553:3568  services[index] */\n      dup2\n      sload\n      dup2\n      lt\n      tag_125\n      jumpi\n      tag_125\n      tag_82\n      jump\t// in\n    tag_125:\n      0x00\n      swap2\n      dup3\n      mstore\n      0x20\n      dup3\n      keccak256\n      add\n      sload\n        /* \"fullenchanded.sol\":3553:3577  services[index].resume() */\n      0x40\n      dup1\n      mload\n      shl(0xe1, 0x0237bed1)\n      dup2\n      mstore\n      swap1\n      mload\n      sub(shl(0xa0, 0x01), 0x01)\n        /* \"fullenchanded.sol\":3553:3568  services[index] */\n      swap1\n      swap3\n      and\n      swap3\n        /* \"fullenchanded.sol\":3553:3575  services[index].resume */\n      0x046f7da2\n      swap3\n        /* \"fullenchanded.sol\":3553:3577  services[index].resume() */\n      0x04\n      dup1\n      dup5\n      add\n      swap4\n      dup3\n      swap1\n      sub\n      add\n      dup2\n        /* \"fullenchanded.sol\":3553:3568  services[index] */\n      dup4\n      dup8\n        /* \"fullenchanded.sol\":3553:3577  services[index].resume() */\n      dup1\n      extcodesize\n      iszero\n      dup1\n      iszero\n      tag_127\n      jumpi\n      0x00\n      dup1\n      revert\n    tag_127:\n      pop\n      gas\n      call\n      iszero\n      dup1\n      iszero\n      tag_129\n      jumpi\n      returndatasize\n      0x00\n      dup1\n      returndatacopy\n      revert(0x00, returndatasize)\n    tag_129:\n      pop\n      pop\n      pop\n      pop\n        /* \"fullenchanded.sol\":3430:3585  function resumeService(uint index) public onlyOwner {... */\n      pop\n      jump\t// out\n        /* \"fullenchanded.sol\":4636:5153  function getActiveServices() public view returns (address[] memory) {... */\n    tag_41:\n        /* \"fullenchanded.sol\":4686:4702  address[] memory */\n      0x60\n        /* \"fullenchanded.sol\":4715:4725  uint count */\n      0x00\n      dup1\n        /* \"fullenchanded.sol\":4736:4830  for (uint i = 0; i < services.length; i++) {... */\n    tag_131:\n        /* \"fullenchanded.sol\":4757:4765  services */\n      0x01\n        /* \"fullenchanded.sol\":4757:4772  services.length */\n      sload\n        /* \"fullenchanded.sol\":4753:4772  i < services.length */\n      dup2\n      lt\n        /* \"fullenchanded.sol\":4736:4830  for (uint i = 0; i < services.length; i++) {... */\n      iszero\n      tag_132\n      jumpi\n        /* \"fullenchanded.sol\":4798:4809  isActive[i] */\n      0x00\n      dup2\n      dup2\n      mstore\n        /* \"fullenchanded.sol\":4798:4806  isActive */\n      0x02\n        /* \"fullenchanded.sol\":4798:4809  isActive[i] */\n      0x20\n      mstore\n      0x40\n      swap1\n      keccak256\n      sload\n      0xff\n      and\n        /* \"fullenchanded.sol\":4794:4818  if (isActive[i]) count++ */\n      iszero\n      tag_134\n      jumpi\n        /* \"fullenchanded.sol\":4811:4818  count++ */\n      dup2\n      tag_135\n      dup2\n      tag_136\n      jump\t// in\n    tag_135:\n      swap3\n      pop\n      pop\n        /* \"fullenchanded.sol\":4794:4818  if (isActive[i]) count++ */\n    tag_134:\n        /* \"fullenchanded.sol\":4774:4777  i++ */\n      0x01\n      add\n        /* \"fullenchanded.sol\":4736:4830  for (uint i = 0; i < services.length; i++) {... */\n      jump(tag_131)\n    tag_132:\n      pop\n        /* \"fullenchanded.sol\":4840:4872  address[] memory activeAddresses */\n      0x00\n        /* \"fullenchanded.sol\":4889:4894  count */\n      dup2\n        /* \"fullenchanded.sol\":4875:4895  new address[](count) */\n      0xffffffffffffffff\n      dup2\n      gt\n      iszero\n      tag_138\n      jumpi\n      tag_138\n      tag_75\n      jump\t// in\n    tag_138:\n      mload(0x40)\n      swap1\n      dup1\n      dup3\n      mstore\n      dup1\n      0x20\n      mul\n      0x20\n      add\n      dup3\n      add\n      0x40\n      mstore\n      dup1\n      iszero\n      tag_139\n      jumpi\n      dup2\n      0x20\n      add\n      0x20\n      dup3\n      mul\n      dup1\n      calldatasize\n      dup4\n      calldatacopy\n      add\n      swap1\n      pop\n    tag_139:\n      pop\n        /* \"fullenchanded.sol\":4840:4895  address[] memory activeAddresses = new address[](count) */\n      swap1\n      pop\n        /* \"fullenchanded.sol\":4906:4914  uint idx */\n      0x00\n      dup1\n        /* \"fullenchanded.sol\":4925:5113  for (uint i = 0; i < services.length; i++) {... */\n    tag_140:\n        /* \"fullenchanded.sol\":4946:4954  services */\n      0x01\n        /* \"fullenchanded.sol\":4946:4961  services.length */\n      sload\n        /* \"fullenchanded.sol\":4942:4961  i < services.length */\n      dup2\n      lt\n        /* \"fullenchanded.sol\":4925:5113  for (uint i = 0; i < services.length; i++) {... */\n      iszero\n      tag_141\n      jumpi\n        /* \"fullenchanded.sol\":4987:4998  isActive[i] */\n      0x00\n      dup2\n      dup2\n      mstore\n        /* \"fullenchanded.sol\":4987:4995  isActive */\n      0x02\n        /* \"fullenchanded.sol\":4987:4998  isActive[i] */\n      0x20\n      mstore\n      0x40\n      swap1\n      keccak256\n      sload\n      0xff\n      and\n        /* \"fullenchanded.sol\":4983:5102  if (isActive[i]) {... */\n      iszero\n      tag_143\n      jumpi\n        /* \"fullenchanded.sol\":5050:5058  services */\n      0x01\n        /* \"fullenchanded.sol\":5059:5060  i */\n      dup2\n        /* \"fullenchanded.sol\":5050:5061  services[i] */\n      dup2\n      sload\n      dup2\n      lt\n      tag_145\n      jumpi\n      tag_145\n      tag_82\n      jump\t// in\n    tag_145:\n      swap1\n      0x00\n      mstore\n      keccak256(0x00, 0x20)\n      add\n      0x00\n      swap1\n      sload\n      swap1\n      0x0100\n      exp\n      swap1\n      div\n      sub(shl(0xa0, 0x01), 0x01)\n      and\n        /* \"fullenchanded.sol\":5019:5034  activeAddresses */\n      dup4\n        /* \"fullenchanded.sol\":5035:5038  idx */\n      dup4\n        /* \"fullenchanded.sol\":5019:5039  activeAddresses[idx] */\n      dup2\n      mload\n      dup2\n      lt\n      tag_148\n      jumpi\n      tag_148\n      tag_82\n      jump\t// in\n    tag_148:\n      sub(shl(0xa0, 0x01), 0x01)\n        /* \"fullenchanded.sol\":5019:5062  activeAddresses[idx] = address(services[i]) */\n      swap1\n      swap3\n      and\n        /* \"fullenchanded.sol\":5019:5039  activeAddresses[idx] */\n      0x20\n      swap3\n      dup4\n      mul\n      swap2\n      swap1\n      swap2\n      add\n      swap1\n      swap2\n      add\n        /* \"fullenchanded.sol\":5019:5062  activeAddresses[idx] = address(services[i]) */\n      mstore\n        /* \"fullenchanded.sol\":5081:5086  idx++ */\n      dup2\n      tag_149\n      dup2\n      tag_136\n      jump\t// in\n    tag_149:\n      swap3\n      pop\n      pop\n        /* \"fullenchanded.sol\":4983:5102  if (isActive[i]) {... */\n    tag_143:\n        /* \"fullenchanded.sol\":4963:4966  i++ */\n      0x01\n      add\n        /* \"fullenchanded.sol\":4925:5113  for (uint i = 0; i < services.length; i++) {... */\n      jump(tag_140)\n    tag_141:\n      pop\n        /* \"fullenchanded.sol\":5130:5145  activeAddresses */\n      swap1\n      swap4\n        /* \"fullenchanded.sol\":4636:5153  function getActiveServices() public view returns (address[] memory) {... */\n      swap3\n      pop\n      pop\n      pop\n      jump\t// out\n        /* \"fullenchanded.sol\":4136:4241  function get(uint index) public view returns (address) {... */\n    tag_49:\n        /* \"fullenchanded.sol\":4182:4189  address */\n      0x00\n        /* \"fullenchanded.sol\":4217:4225  services */\n      0x01\n        /* \"fullenchanded.sol\":4226:4231  index */\n      dup3\n        /* \"fullenchanded.sol\":4217:4232  services[index] */\n      dup2\n      sload\n      dup2\n      lt\n      tag_152\n      jumpi\n      tag_152\n      tag_82\n      jump\t// in\n    tag_152:\n      0x00\n      swap2\n      dup3\n      mstore\n      0x20\n      swap1\n      swap2\n      keccak256\n      add\n      sload\n      sub(shl(0xa0, 0x01), 0x01)\n      and\n      swap3\n        /* \"fullenchanded.sol\":4136:4241  function get(uint index) public view returns (address) {... */\n      swap2\n      pop\n      pop\n      jump\t// out\n        /* \"fullenchanded.sol\":2860:3176  function updateServicePrice(uint index, uint _newPrice) public onlyOwner {... */\n    tag_53:\n        /* \"fullenchanded.sol\":1948:1953  owner */\n      and(sub(shl(0xa0, 0x01), 0x01), sload(0x00))\n        /* \"fullenchanded.sol\":1934:1944  msg.sender */\n      caller\n        /* \"fullenchanded.sol\":1934:1953  msg.sender == owner */\n      eq\n        /* \"fullenchanded.sol\":1926:1971  require(msg.sender == owner, \"Not the owner\") */\n      tag_155\n      jumpi\n      mload(0x40)\n      shl(0xe5, 0x461bcd)\n      dup2\n      mstore\n      0x04\n      add\n      tag_88\n      swap1\n      tag_89\n      jump\t// in\n    tag_155:\n        /* \"fullenchanded.sol\":2960:2968  services */\n      0x01\n        /* \"fullenchanded.sol\":2960:2975  services.length */\n      sload\n        /* \"fullenchanded.sol\":2952:2975  index < services.length */\n      dup3\n      lt\n        /* \"fullenchanded.sol\":2944:2993  require(index < services.length, \"Invalid index\") */\n      tag_158\n      jumpi\n      mload(0x40)\n      shl(0xe5, 0x461bcd)\n      dup2\n      mstore\n      0x04\n      add\n      tag_88\n      swap1\n      tag_123\n      jump\t// in\n    tag_158:\n        /* \"fullenchanded.sol\":3004:3018  Subscription s */\n      0x00\n        /* \"fullenchanded.sol\":3021:3029  services */\n      0x01\n        /* \"fullenchanded.sol\":3030:3035  index */\n      dup4\n        /* \"fullenchanded.sol\":3021:3036  services[index] */\n      dup2\n      sload\n      dup2\n      lt\n      tag_161\n      jumpi\n      tag_161\n      tag_82\n      jump\t// in\n    tag_161:\n      0x00\n      swap2\n      dup3\n      mstore\n      0x20\n      dup1\n      dup4\n      keccak256\n      swap1\n      swap2\n      add\n      sload\n        /* \"fullenchanded.sol\":3063:3072  s.price() */\n      0x40\n      dup1\n      mload\n      shl(0xe1, 0x501ad8ff)\n      dup2\n      mstore\n      swap1\n      mload\n      sub(shl(0xa0, 0x01), 0x01)\n        /* \"fullenchanded.sol\":3021:3036  services[index] */\n      swap1\n      swap3\n      and\n      swap5\n      pop\n      dup5\n      swap3\n        /* \"fullenchanded.sol\":3063:3070  s.price */\n      0xa035b1fe\n      swap3\n        /* \"fullenchanded.sol\":3063:3072  s.price() */\n      0x04\n      dup1\n      dup5\n      add\n      swap4\n      dup3\n      swap1\n      sub\n      add\n      dup2\n        /* \"fullenchanded.sol\":3021:3036  services[index] */\n      dup7\n        /* \"fullenchanded.sol\":3063:3072  s.price() */\n      gas\n      staticcall\n      iszero\n      dup1\n      iszero\n      tag_164\n      jumpi\n      returndatasize\n      0x00\n      dup1\n      returndatacopy\n      revert(0x00, returndatasize)\n    tag_164:\n      pop\n      pop\n      pop\n      pop\n      mload(0x40)\n      returndatasize\n      not(0x1f)\n      0x1f\n      dup3\n      add\n      and\n      dup3\n      add\n      dup1\n      0x40\n      mstore\n      pop\n      dup2\n      add\n      swap1\n      tag_165\n      swap2\n      swap1\n      tag_166\n      jump\t// in\n    tag_165:\n        /* \"fullenchanded.sol\":3083:3107  s.updatePrice(_newPrice) */\n      mload(0x40)\n      shl(0xe0, 0x8d6cc56d)\n      dup2\n      mstore\n      0x04\n      dup2\n      add\n        /* \"#utility.yul\":3453:3478   */\n      dup6\n      swap1\n      mstore\n        /* \"fullenchanded.sol\":3047:3072  uint oldPrice = s.price() */\n      swap1\n      swap2\n      pop\n      sub(shl(0xa0, 0x01), 0x01)\n        /* \"fullenchanded.sol\":3083:3096  s.updatePrice */\n      dup4\n      and\n      swap1\n      0x8d6cc56d\n      swap1\n        /* \"#utility.yul\":3426:3444   */\n      0x24\n      add\n        /* \"fullenchanded.sol\":3083:3107  s.updatePrice(_newPrice) */\n      0x00\n      mload(0x40)\n      dup1\n      dup4\n      sub\n      dup2\n      0x00\n      dup8\n      dup1\n      extcodesize\n      iszero\n      dup1\n      iszero\n      tag_168\n      jumpi\n      0x00\n      dup1\n      revert\n    tag_168:\n      pop\n      gas\n      call\n      iszero\n      dup1\n      iszero\n      tag_170\n      jumpi\n      returndatasize\n      0x00\n      dup1\n      returndatacopy\n      revert(0x00, returndatasize)\n    tag_170:\n      pop\n      pop\n        /* \"fullenchanded.sol\":3123:3168  PriceUpdated(address(s), oldPrice, _newPrice) */\n      0x40\n      dup1\n      mload\n        /* \"#utility.yul\":4680:4705   */\n      dup5\n      dup2\n      mstore\n        /* \"#utility.yul\":4736:4738   */\n      0x20\n        /* \"#utility.yul\":4721:4739   */\n      dup2\n      add\n        /* \"#utility.yul\":4714:4748   */\n      dup8\n      swap1\n      mstore\n      sub(shl(0xa0, 0x01), 0x01)\n        /* \"fullenchanded.sol\":3123:3168  PriceUpdated(address(s), oldPrice, _newPrice) */\n      dup7\n      and\n      swap4\n      pop\n      0xb556fac599c3c70efb9ab1fa725ecace6c81cc48d1455f886607def065f3e0c0\n      swap3\n      pop\n        /* \"#utility.yul\":4653:4671   */\n      add\n        /* \"fullenchanded.sol\":3123:3168  PriceUpdated(address(s), oldPrice, _newPrice) */\n      mload(0x40)\n      dup1\n      swap2\n      sub\n      swap1\n      log2\n        /* \"fullenchanded.sol\":2933:3176  {... */\n      pop\n      pop\n        /* \"fullenchanded.sol\":2860:3176  function updateServicePrice(uint index, uint _newPrice) public onlyOwner {... */\n      pop\n      pop\n      jump\t// out\n        /* \"fullenchanded.sol\":3890:4082  function activateService(uint index) public onlyOwner {... */\n    tag_56:\n        /* \"fullenchanded.sol\":1948:1953  owner */\n      and(sub(shl(0xa0, 0x01), 0x01), sload(0x00))\n        /* \"fullenchanded.sol\":1934:1944  msg.sender */\n      caller\n        /* \"fullenchanded.sol\":1934:1953  msg.sender == owner */\n      eq\n        /* \"fullenchanded.sol\":1926:1971  require(msg.sender == owner, \"Not the owner\") */\n      tag_174\n      jumpi\n      mload(0x40)\n      shl(0xe5, 0x461bcd)\n      dup2\n      mstore\n      0x04\n      add\n      tag_88\n      swap1\n      tag_89\n      jump\t// in\n    tag_174:\n        /* \"fullenchanded.sol\":3971:3979  services */\n      0x01\n        /* \"fullenchanded.sol\":3971:3986  services.length */\n      sload\n        /* \"fullenchanded.sol\":3963:3986  index < services.length */\n      dup2\n      lt\n        /* \"fullenchanded.sol\":3955:4004  require(index < services.length, \"Invalid index\") */\n      tag_177\n      jumpi\n      mload(0x40)\n      shl(0xe5, 0x461bcd)\n      dup2\n      mstore\n      0x04\n      add\n      tag_88\n      swap1\n      tag_123\n      jump\t// in\n    tag_177:\n        /* \"fullenchanded.sol\":4015:4023  services */\n      0x01\n        /* \"fullenchanded.sol\":4024:4029  index */\n      dup2\n        /* \"fullenchanded.sol\":4015:4030  services[index] */\n      dup2\n      sload\n      dup2\n      lt\n      tag_180\n      jumpi\n      tag_180\n      tag_82\n      jump\t// in\n    tag_180:\n      0x00\n      swap2\n      dup3\n      mstore\n      0x20\n      dup3\n      keccak256\n      add\n      sload\n        /* \"fullenchanded.sol\":4015:4041  services[index].activate() */\n      0x40\n      dup1\n      mload\n      shl(0xe6, 0x3c57d3)\n      dup2\n      mstore\n      swap1\n      mload\n      sub(shl(0xa0, 0x01), 0x01)\n        /* \"fullenchanded.sol\":4015:4030  services[index] */\n      swap1\n      swap3\n      and\n      swap3\n        /* \"fullenchanded.sol\":4015:4039  services[index].activate */\n      0x0f15f4c0\n      swap3\n        /* \"fullenchanded.sol\":4015:4041  services[index].activate() */\n      0x04\n      dup1\n      dup5\n      add\n      swap4\n      dup3\n      swap1\n      sub\n      add\n      dup2\n        /* \"fullenchanded.sol\":4015:4030  services[index] */\n      dup4\n      dup8\n        /* \"fullenchanded.sol\":4015:4041  services[index].activate() */\n      dup1\n      extcodesize\n      iszero\n      dup1\n      iszero\n      tag_182\n      jumpi\n      0x00\n      dup1\n      revert\n    tag_182:\n      pop\n      gas\n      call\n      iszero\n      dup1\n      iszero\n      tag_184\n      jumpi\n      returndatasize\n      0x00\n      dup1\n      returndatacopy\n      revert(0x00, returndatasize)\n    tag_184:\n      pop\n      pop\n      pop\n        /* \"fullenchanded.sol\":4052:4067  isActive[index] */\n      0x00\n      swap2\n      dup3\n      mstore\n      pop\n        /* \"fullenchanded.sol\":4052:4060  isActive */\n      0x02\n        /* \"fullenchanded.sol\":4052:4067  isActive[index] */\n      0x20\n      mstore\n      0x40\n      swap1\n      keccak256\n        /* \"fullenchanded.sol\":4052:4074  isActive[index] = true */\n      dup1\n      sload\n      not(0xff)\n      and\n        /* \"fullenchanded.sol\":4070:4074  true */\n      0x01\n        /* \"fullenchanded.sol\":4052:4074  isActive[index] = true */\n      or\n      swap1\n      sstore\n        /* \"fullenchanded.sol\":3890:4082  function activateService(uint index) public onlyOwner {... */\n      jump\t// out\n        /* \"fullenchanded.sol\":1595:1625  Subscription[] public services */\n    tag_59:\n      0x01\n      dup2\n      dup2\n      sload\n      dup2\n      lt\n      tag_185\n      jumpi\n      0x00\n      dup1\n      revert\n    tag_185:\n      0x00\n      swap2\n      dup3\n      mstore\n      0x20\n      swap1\n      swap2\n      keccak256\n      add\n      sload\n      sub(shl(0xa0, 0x01), 0x01)\n      and\n      swap1\n      pop\n      dup2\n      jump\t// out\n        /* \"fullenchanded.sol\":3640:3837  function deactivateService(uint index) public onlyOwner {... */\n    tag_64:\n        /* \"fullenchanded.sol\":1948:1953  owner */\n      and(sub(shl(0xa0, 0x01), 0x01), sload(0x00))\n        /* \"fullenchanded.sol\":1934:1944  msg.sender */\n      caller\n        /* \"fullenchanded.sol\":1934:1953  msg.sender == owner */\n      eq\n        /* \"fullenchanded.sol\":1926:1971  require(msg.sender == owner, \"Not the owner\") */\n      tag_188\n      jumpi\n      mload(0x40)\n      shl(0xe5, 0x461bcd)\n      dup2\n      mstore\n      0x04\n      add\n      tag_88\n      swap1\n      tag_89\n      jump\t// in\n    tag_188:\n        /* \"fullenchanded.sol\":3723:3731  services */\n      0x01\n        /* \"fullenchanded.sol\":3723:3738  services.length */\n      sload\n        /* \"fullenchanded.sol\":3715:3738  index < services.length */\n      dup2\n      lt\n        /* \"fullenchanded.sol\":3707:3756  require(index < services.length, \"Invalid index\") */\n      tag_191\n      jumpi\n      mload(0x40)\n      shl(0xe5, 0x461bcd)\n      dup2\n      mstore\n      0x04\n      add\n      tag_88\n      swap1\n      tag_123\n      jump\t// in\n    tag_191:\n        /* \"fullenchanded.sol\":3767:3775  services */\n      0x01\n        /* \"fullenchanded.sol\":3776:3781  index */\n      dup2\n        /* \"fullenchanded.sol\":3767:3782  services[index] */\n      dup2\n      sload\n      dup2\n      lt\n      tag_194\n      jumpi\n      tag_194\n      tag_82\n      jump\t// in\n    tag_194:\n      0x00\n      swap2\n      dup3\n      mstore\n      0x20\n      dup3\n      keccak256\n      add\n      sload\n        /* \"fullenchanded.sol\":3767:3795  services[index].deactivate() */\n      0x40\n      dup1\n      mload\n      shl(0xe8, 0x51b42b)\n      dup2\n      mstore\n      swap1\n      mload\n      sub(shl(0xa0, 0x01), 0x01)\n        /* \"fullenchanded.sol\":3767:3782  services[index] */\n      swap1\n      swap3\n      and\n      swap3\n        /* \"fullenchanded.sol\":3767:3793  services[index].deactivate */\n      0x51b42b00\n      swap3\n        /* \"fullenchanded.sol\":3767:3795  services[index].deactivate() */\n      0x04\n      dup1\n      dup5\n      add\n      swap4\n      dup3\n      swap1\n      sub\n      add\n      dup2\n        /* \"fullenchanded.sol\":3767:3782  services[index] */\n      dup4\n      dup8\n        /* \"fullenchanded.sol\":3767:3795  services[index].deactivate() */\n      dup1\n      extcodesize\n      iszero\n      dup1\n      iszero\n      tag_196\n      jumpi\n      0x00\n      dup1\n      revert\n    tag_196:\n      pop\n      gas\n      call\n      iszero\n      dup1\n      iszero\n      tag_198\n      jumpi\n      returndatasize\n      0x00\n      dup1\n      returndatacopy\n      revert(0x00, returndatasize)\n    tag_198:\n      pop\n      pop\n      pop\n        /* \"fullenchanded.sol\":3824:3829  false */\n      0x00\n        /* \"fullenchanded.sol\":3806:3821  isActive[index] */\n      swap2\n      dup3\n      mstore\n      pop\n        /* \"fullenchanded.sol\":3806:3814  isActive */\n      0x02\n        /* \"fullenchanded.sol\":3806:3821  isActive[index] */\n      0x20\n      mstore\n      0x40\n      swap1\n      keccak256\n        /* \"fullenchanded.sol\":3806:3829  isActive[index] = false */\n      dup1\n      sload\n      not(0xff)\n      and\n      swap1\n      sstore\n        /* \"fullenchanded.sol\":3640:3837  function deactivateService(uint index) public onlyOwner {... */\n      jump\t// out\n        /* \"fullenchanded.sol\":3226:3379  function pauseService(uint index) public onlyOwner {... */\n    tag_67:\n        /* \"fullenchanded.sol\":1948:1953  owner */\n      and(sub(shl(0xa0, 0x01), 0x01), sload(0x00))\n        /* \"fullenchanded.sol\":1934:1944  msg.sender */\n      caller\n        /* \"fullenchanded.sol\":1934:1953  msg.sender == owner */\n      eq\n        /* \"fullenchanded.sol\":1926:1971  require(msg.sender == owner, \"Not the owner\") */\n      tag_200\n      jumpi\n      mload(0x40)\n      shl(0xe5, 0x461bcd)\n      dup2\n      mstore\n      0x04\n      add\n      tag_88\n      swap1\n      tag_89\n      jump\t// in\n    tag_200:\n        /* \"fullenchanded.sol\":3304:3312  services */\n      0x01\n        /* \"fullenchanded.sol\":3304:3319  services.length */\n      sload\n        /* \"fullenchanded.sol\":3296:3319  index < services.length */\n      dup2\n      lt\n        /* \"fullenchanded.sol\":3288:3337  require(index < services.length, \"Invalid index\") */\n      tag_203\n      jumpi\n      mload(0x40)\n      shl(0xe5, 0x461bcd)\n      dup2\n      mstore\n      0x04\n      add\n      tag_88\n      swap1\n      tag_123\n      jump\t// in\n    tag_203:\n        /* \"fullenchanded.sol\":3348:3356  services */\n      0x01\n        /* \"fullenchanded.sol\":3357:3362  index */\n      dup2\n        /* \"fullenchanded.sol\":3348:3363  services[index] */\n      dup2\n      sload\n      dup2\n      lt\n      tag_206\n      jumpi\n      tag_206\n      tag_82\n      jump\t// in\n    tag_206:\n      0x00\n      swap2\n      dup3\n      mstore\n      0x20\n      dup3\n      keccak256\n      add\n      sload\n        /* \"fullenchanded.sol\":3348:3371  services[index].pause() */\n      0x40\n      dup1\n      mload\n      shl(0xe0, 0x8456cb59)\n      dup2\n      mstore\n      swap1\n      mload\n      sub(shl(0xa0, 0x01), 0x01)\n        /* \"fullenchanded.sol\":3348:3363  services[index] */\n      swap1\n      swap3\n      and\n      swap3\n        /* \"fullenchanded.sol\":3348:3369  services[index].pause */\n      0x8456cb59\n      swap3\n        /* \"fullenchanded.sol\":3348:3371  services[index].pause() */\n      0x04\n      dup1\n      dup5\n      add\n      swap4\n      dup3\n      swap1\n      sub\n      add\n      dup2\n        /* \"fullenchanded.sol\":3348:3363  services[index] */\n      dup4\n      dup8\n        /* \"fullenchanded.sol\":3348:3371  services[index].pause() */\n      dup1\n      extcodesize\n      iszero\n      dup1\n      iszero\n      tag_127\n      jumpi\n      0x00\n      dup1\n      revert\n        /* \"fullenchanded.sol\":5213:5424  function transferOwnership(address newOwner) public onlyOwner {... */\n    tag_71:\n        /* \"fullenchanded.sol\":1948:1953  owner */\n      and(sub(shl(0xa0, 0x01), 0x01), sload(0x00))\n        /* \"fullenchanded.sol\":1934:1944  msg.sender */\n      caller\n        /* \"fullenchanded.sol\":1934:1953  msg.sender == owner */\n      eq\n        /* \"fullenchanded.sol\":1926:1971  require(msg.sender == owner, \"Not the owner\") */\n      tag_212\n      jumpi\n      mload(0x40)\n      shl(0xe5, 0x461bcd)\n      dup2\n      mstore\n      0x04\n      add\n      tag_88\n      swap1\n      tag_89\n      jump\t// in\n    tag_212:\n      sub(shl(0xa0, 0x01), 0x01)\n        /* \"fullenchanded.sol\":5294:5316  newOwner != address(0) */\n      dup2\n      and\n        /* \"fullenchanded.sol\":5286:5336  require(newOwner != address(0), \"Invalid address\") */\n      tag_215\n      jumpi\n      mload(0x40)\n      shl(0xe5, 0x461bcd)\n      dup2\n      mstore\n        /* \"#utility.yul\":4961:4963   */\n      0x20\n        /* \"fullenchanded.sol\":5286:5336  require(newOwner != address(0), \"Invalid address\") */\n      0x04\n      dup3\n      add\n        /* \"#utility.yul\":4943:4964   */\n      mstore\n        /* \"#utility.yul\":5000:5002   */\n      0x0f\n        /* \"#utility.yul\":4980:4998   */\n      0x24\n      dup3\n      add\n        /* \"#utility.yul\":4973:5003   */\n      mstore\n      shl(0x88, 0x496e76616c69642061646472657373)\n        /* \"#utility.yul\":5019:5037   */\n      0x44\n      dup3\n      add\n        /* \"#utility.yul\":5012:5057   */\n      mstore\n        /* \"#utility.yul\":5074:5092   */\n      0x64\n      add\n        /* \"fullenchanded.sol\":5286:5336  require(newOwner != address(0), \"Invalid address\") */\n      tag_88\n        /* \"#utility.yul\":4759:5098   */\n      jump\n        /* \"fullenchanded.sol\":5286:5336  require(newOwner != address(0), \"Invalid address\") */\n    tag_215:\n        /* \"fullenchanded.sol\":5373:5378  owner */\n      sload(0x00)\n        /* \"fullenchanded.sol\":5352:5389  OwnershipTransferred(owner, newOwner) */\n      0x40\n      dup1\n      mload\n      sub(shl(0xa0, 0x01), 0x01)\n        /* \"fullenchanded.sol\":5373:5378  owner */\n      swap3\n      dup4\n      and\n        /* \"#utility.yul\":5277:5328   */\n      dup2\n      mstore\n        /* \"#utility.yul\":5364:5396   */\n      swap2\n      dup4\n      and\n        /* \"#utility.yul\":5359:5361   */\n      0x20\n        /* \"#utility.yul\":5344:5362   */\n      dup4\n      add\n        /* \"#utility.yul\":5337:5397   */\n      mstore\n        /* \"fullenchanded.sol\":5352:5389  OwnershipTransferred(owner, newOwner) */\n      0x8be0079c531659141344cd1fd0a4f28419497f9722a3daafe3b4186f6b6457e0\n      swap2\n        /* \"#utility.yul\":5250:5268   */\n      add\n        /* \"fullenchanded.sol\":5352:5389  OwnershipTransferred(owner, newOwner) */\n      mload(0x40)\n      dup1\n      swap2\n      sub\n      swap1\n      log1\n        /* \"fullenchanded.sol\":5400:5405  owner */\n      0x00\n        /* \"fullenchanded.sol\":5400:5416  owner = newOwner */\n      dup1\n      sload\n      not(sub(shl(0xa0, 0x01), 0x01))\n      and\n      sub(shl(0xa0, 0x01), 0x01)\n      swap3\n      swap1\n      swap3\n      and\n      swap2\n      swap1\n      swap2\n      or\n      swap1\n      sstore\n        /* \"fullenchanded.sol\":5213:5424  function transferOwnership(address newOwner) public onlyOwner {... */\n      jump\t// out\n    tag_92:\n      dataSize(sub_0)\n      dup1\n      dataOffset(sub_0)\n      dup4\n      codecopy\n      add\n      swap1\n      jump\t// out\n        /* \"#utility.yul\":14:651   */\n    tag_23:\n        /* \"#utility.yul\":204:206   */\n      0x20\n        /* \"#utility.yul\":216:237   */\n      dup1\n      dup3\n      mstore\n        /* \"#utility.yul\":286:299   */\n      dup3\n      mload\n        /* \"#utility.yul\":189:207   */\n      dup3\n      dup3\n      add\n        /* \"#utility.yul\":308:330   */\n      dup2\n      swap1\n      mstore\n        /* \"#utility.yul\":156:160   */\n      0x00\n      swap2\n        /* \"#utility.yul\":387:402   */\n      dup5\n      add\n      swap1\n        /* \"#utility.yul\":361:363   */\n      0x40\n        /* \"#utility.yul\":346:364   */\n      dup5\n      add\n      swap1\n        /* \"#utility.yul\":156:160   */\n      dup4\n        /* \"#utility.yul\":430:625   */\n    tag_223:\n        /* \"#utility.yul\":444:450   */\n      dup2\n        /* \"#utility.yul\":441:442   */\n      dup2\n        /* \"#utility.yul\":438:451   */\n      lt\n        /* \"#utility.yul\":430:625   */\n      iszero\n      tag_225\n      jumpi\n        /* \"#utility.yul\":509:522   */\n      dup4\n      mload\n      sub(shl(0xa0, 0x01), 0x01)\n        /* \"#utility.yul\":505:544   */\n      and\n        /* \"#utility.yul\":493:545   */\n      dup4\n      mstore\n        /* \"#utility.yul\":574:576   */\n      0x20\n        /* \"#utility.yul\":600:615   */\n      swap4\n      dup5\n      add\n      swap4\n        /* \"#utility.yul\":565:577   */\n      swap1\n      swap3\n      add\n      swap2\n        /* \"#utility.yul\":541:542   */\n      0x01\n        /* \"#utility.yul\":459:468   */\n      add\n        /* \"#utility.yul\":430:625   */\n      jump(tag_223)\n    tag_225:\n      pop\n        /* \"#utility.yul\":642:645   */\n      swap1\n      swap6\n        /* \"#utility.yul\":14:651   */\n      swap5\n      pop\n      pop\n      pop\n      pop\n      pop\n      jump\t// out\n        /* \"#utility.yul\":656:882   */\n    tag_26:\n        /* \"#utility.yul\":715:721   */\n      0x00\n        /* \"#utility.yul\":768:770   */\n      0x20\n        /* \"#utility.yul\":756:765   */\n      dup3\n        /* \"#utility.yul\":747:754   */\n      dup5\n        /* \"#utility.yul\":743:766   */\n      sub\n        /* \"#utility.yul\":739:771   */\n      slt\n        /* \"#utility.yul\":736:788   */\n      iszero\n      tag_227\n      jumpi\n        /* \"#utility.yul\":784:785   */\n      0x00\n        /* \"#utility.yul\":781:782   */\n      dup1\n        /* \"#utility.yul\":774:786   */\n      revert\n        /* \"#utility.yul\":736:788   */\n    tag_227:\n      pop\n        /* \"#utility.yul\":829:852   */\n      calldataload\n      swap2\n        /* \"#utility.yul\":656:882   */\n      swap1\n      pop\n      jump\t// out\n        /* \"#utility.yul\":887:1233   */\n    tag_30:\n        /* \"#utility.yul\":955:961   */\n      0x00\n        /* \"#utility.yul\":963:969   */\n      dup1\n        /* \"#utility.yul\":1016:1018   */\n      0x40\n        /* \"#utility.yul\":1004:1013   */\n      dup4\n        /* \"#utility.yul\":995:1002   */\n      dup6\n        /* \"#utility.yul\":991:1014   */\n      sub\n        /* \"#utility.yul\":987:1019   */\n      slt\n        /* \"#utility.yul\":984:1036   */\n      iszero\n      tag_229\n      jumpi\n        /* \"#utility.yul\":1032:1033   */\n      0x00\n        /* \"#utility.yul\":1029:1030   */\n      dup1\n        /* \"#utility.yul\":1022:1034   */\n      revert\n        /* \"#utility.yul\":984:1036   */\n    tag_229:\n      pop\n      pop\n        /* \"#utility.yul\":1077:1100   */\n      dup1\n      calldataload\n      swap3\n        /* \"#utility.yul\":1197:1199   */\n      0x20\n        /* \"#utility.yul\":1182:1200   */\n      swap1\n      swap2\n      add\n        /* \"#utility.yul\":1169:1201   */\n      calldataload\n      swap2\n      pop\n        /* \"#utility.yul\":887:1233   */\n      jump\t// out\n        /* \"#utility.yul\":1866:2152   */\n    tag_70:\n        /* \"#utility.yul\":1925:1931   */\n      0x00\n        /* \"#utility.yul\":1978:1980   */\n      0x20\n        /* \"#utility.yul\":1966:1975   */\n      dup3\n        /* \"#utility.yul\":1957:1964   */\n      dup5\n        /* \"#utility.yul\":1953:1976   */\n      sub\n        /* \"#utility.yul\":1949:1981   */\n      slt\n        /* \"#utility.yul\":1946:1998   */\n      iszero\n      tag_234\n      jumpi\n        /* \"#utility.yul\":1994:1995   */\n      0x00\n        /* \"#utility.yul\":1991:1992   */\n      dup1\n        /* \"#utility.yul\":1984:1996   */\n      revert\n        /* \"#utility.yul\":1946:1998   */\n    tag_234:\n        /* \"#utility.yul\":2020:2043   */\n      dup2\n      calldataload\n      sub(shl(0xa0, 0x01), 0x01)\n        /* \"#utility.yul\":2072:2103   */\n      dup2\n      and\n        /* \"#utility.yul\":2062:2104   */\n      dup2\n      eq\n        /* \"#utility.yul\":2052:2122   */\n      tag_235\n      jumpi\n        /* \"#utility.yul\":2118:2119   */\n      0x00\n        /* \"#utility.yul\":2115:2116   */\n      dup1\n        /* \"#utility.yul\":2108:2120   */\n      revert\n        /* \"#utility.yul\":2052:2122   */\n    tag_235:\n        /* \"#utility.yul\":2141:2146   */\n      swap4\n        /* \"#utility.yul\":1866:2152   */\n      swap3\n      pop\n      pop\n      pop\n      jump\t// out\n        /* \"#utility.yul\":2157:2284   */\n    tag_75:\n        /* \"#utility.yul\":2218:2228   */\n      0x4e487b71\n        /* \"#utility.yul\":2213:2216   */\n      0xe0\n        /* \"#utility.yul\":2209:2229   */\n      shl\n        /* \"#utility.yul\":2206:2207   */\n      0x00\n        /* \"#utility.yul\":2199:2230   */\n      mstore\n        /* \"#utility.yul\":2249:2253   */\n      0x41\n        /* \"#utility.yul\":2246:2247   */\n      0x04\n        /* \"#utility.yul\":2239:2254   */\n      mstore\n        /* \"#utility.yul\":2273:2277   */\n      0x24\n        /* \"#utility.yul\":2270:2271   */\n      0x00\n        /* \"#utility.yul\":2263:2278   */\n      revert\n        /* \"#utility.yul\":2289:2416   */\n    tag_82:\n        /* \"#utility.yul\":2350:2360   */\n      0x4e487b71\n        /* \"#utility.yul\":2345:2348   */\n      0xe0\n        /* \"#utility.yul\":2341:2361   */\n      shl\n        /* \"#utility.yul\":2338:2339   */\n      0x00\n        /* \"#utility.yul\":2331:2362   */\n      mstore\n        /* \"#utility.yul\":2381:2385   */\n      0x32\n        /* \"#utility.yul\":2378:2379   */\n      0x04\n        /* \"#utility.yul\":2371:2386   */\n      mstore\n        /* \"#utility.yul\":2405:2409   */\n      0x24\n        /* \"#utility.yul\":2402:2403   */\n      0x00\n        /* \"#utility.yul\":2395:2410   */\n      revert\n        /* \"#utility.yul\":2421:2758   */\n    tag_89:\n        /* \"#utility.yul\":2623:2625   */\n      0x20\n        /* \"#utility.yul\":2605:2626   */\n      dup1\n      dup3\n      mstore\n        /* \"#utility.yul\":2662:2664   */\n      0x0d\n        /* \"#utility.yul\":2642:2660   */\n      swap1\n      dup3\n      add\n        /* \"#utility.yul\":2635:2665   */\n      mstore\n      shl(0x99, 0x2737ba103a34329037bbb732b9)\n        /* \"#utility.yul\":2696:2698   */\n      0x40\n        /* \"#utility.yul\":2681:2699   */\n      dup3\n      add\n        /* \"#utility.yul\":2674:2717   */\n      mstore\n        /* \"#utility.yul\":2749:2751   */\n      0x60\n        /* \"#utility.yul\":2734:2752   */\n      add\n      swap1\n        /* \"#utility.yul\":2421:2758   */\n      jump\t// out\n        /* \"#utility.yul\":3042:3169   */\n    tag_220:\n        /* \"#utility.yul\":3103:3113   */\n      0x4e487b71\n        /* \"#utility.yul\":3098:3101   */\n      0xe0\n        /* \"#utility.yul\":3094:3114   */\n      shl\n        /* \"#utility.yul\":3091:3092   */\n      0x00\n        /* \"#utility.yul\":3084:3115   */\n      mstore\n        /* \"#utility.yul\":3134:3138   */\n      0x11\n        /* \"#utility.yul\":3131:3132   */\n      0x04\n        /* \"#utility.yul\":3124:3139   */\n      mstore\n        /* \"#utility.yul\":3158:3162   */\n      0x24\n        /* \"#utility.yul\":3155:3156   */\n      0x00\n        /* \"#utility.yul\":3148:3163   */\n      revert\n        /* \"#utility.yul\":3174:3302   */\n    tag_98:\n        /* \"#utility.yul\":3241:3250   */\n      dup2\n      dup2\n      sub\n        /* \"#utility.yul\":3262:3273   */\n      dup2\n      dup2\n      gt\n        /* \"#utility.yul\":3259:3296   */\n      iszero\n      tag_243\n      jumpi\n        /* \"#utility.yul\":3276:3294   */\n      tag_243\n      tag_220\n      jump\t// in\n    tag_243:\n        /* \"#utility.yul\":3174:3302   */\n      swap3\n      swap2\n      pop\n      pop\n      jump\t// out\n        /* \"#utility.yul\":3835:4172   */\n    tag_123:\n        /* \"#utility.yul\":4037:4039   */\n      0x20\n        /* \"#utility.yul\":4019:4040   */\n      dup1\n      dup3\n      mstore\n        /* \"#utility.yul\":4076:4078   */\n      0x0d\n        /* \"#utility.yul\":4056:4074   */\n      swap1\n      dup3\n      add\n        /* \"#utility.yul\":4049:4079   */\n      mstore\n      shl(0x9b, 0x092dcecc2d8d2c840d2dcc8caf)\n        /* \"#utility.yul\":4110:4112   */\n      0x40\n        /* \"#utility.yul\":4095:4113   */\n      dup3\n      add\n        /* \"#utility.yul\":4088:4131   */\n      mstore\n        /* \"#utility.yul\":4163:4165   */\n      0x60\n        /* \"#utility.yul\":4148:4166   */\n      add\n      swap1\n        /* \"#utility.yul\":3835:4172   */\n      jump\t// out\n        /* \"#utility.yul\":4177:4312   */\n    tag_136:\n        /* \"#utility.yul\":4216:4219   */\n      0x00\n        /* \"#utility.yul\":4237:4254   */\n      0x01\n      dup3\n      add\n        /* \"#utility.yul\":4234:4277   */\n      tag_249\n      jumpi\n        /* \"#utility.yul\":4257:4275   */\n      tag_249\n      tag_220\n      jump\t// in\n    tag_249:\n      pop\n        /* \"#utility.yul\":4304:4305   */\n      0x01\n        /* \"#utility.yul\":4293:4306   */\n      add\n      swap1\n        /* \"#utility.yul\":4177:4312   */\n      jump\t// out\n        /* \"#utility.yul\":4317:4501   */\n    tag_166:\n        /* \"#utility.yul\":4387:4393   */\n      0x00\n        /* \"#utility.yul\":4440:4442   */\n      0x20\n        /* \"#utility.yul\":4428:4437   */\n      dup3\n        /* \"#utility.yul\":4419:4426   */\n      dup5\n        /* \"#utility.yul\":4415:4438   */\n      sub\n        /* \"#utility.yul\":4411:4443   */\n      slt\n        /* \"#utility.yul\":4408:4460   */\n      iszero\n      tag_251\n      jumpi\n        /* \"#utility.yul\":4456:4457   */\n      0x00\n        /* \"#utility.yul\":4453:4454   */\n      dup1\n        /* \"#utility.yul\":4446:4458   */\n      revert\n        /* \"#utility.yul\":4408:4460   */\n    tag_251:\n      pop\n        /* \"#utility.yul\":4479:4495   */\n      mload\n      swap2\n        /* \"#utility.yul\":4317:4501   */\n      swap1\n      pop\n      jump\t// out\n    stop\n\n    sub_0: assembly {\n            /* \"fullenchanded.sol\":116:1462  contract Subscription {... */\n          mstore(0x40, 0x80)\n            /* \"fullenchanded.sol\":372:520  constructor(uint _price, address _owner) {... */\n          callvalue\n          dup1\n          iszero\n          tag_1\n          jumpi\n          0x00\n          dup1\n          revert\n        tag_1:\n          pop\n          mload(0x40)\n          sub(codesize, bytecodeSize)\n          dup1\n          bytecodeSize\n          dup4\n          codecopy\n          dup2\n          add\n          0x40\n          dup2\n          swap1\n          mstore\n          tag_2\n          swap2\n          tag_3\n          jump\t// in\n        tag_2:\n            /* \"fullenchanded.sol\":424:429  price */\n          0x00\n            /* \"fullenchanded.sol\":424:438  price = _price */\n          swap2\n          swap1\n          swap2\n          sstore\n            /* \"fullenchanded.sol\":449:454  owner */\n          0x01\n            /* \"fullenchanded.sol\":449:463  owner = _owner */\n          dup1\n          sload\n          not(sub(shl(0xb0, 0x01), 0x01))\n            /* \"fullenchanded.sol\":499:512  active = true */\n          and\n          sub(shl(0xa0, 0x01), 0x01)\n            /* \"fullenchanded.sol\":449:463  owner = _owner */\n          swap1\n          swap3\n          and\n            /* \"fullenchanded.sol\":499:512  active = true */\n          swap2\n          swap1\n          swap2\n          or\n          shl(0xa8, 0x01)\n          or\n          swap1\n          sstore\n            /* \"fullenchanded.sol\":116:1462  contract Subscription {... */\n          jump(tag_7)\n            /* \"#utility.yul\":14:365   */\n        tag_3:\n            /* \"#utility.yul\":93:99   */\n          0x00\n            /* \"#utility.yul\":101:107   */\n          dup1\n            /* \"#utility.yul\":154:156   */\n          0x40\n            /* \"#utility.yul\":142:151   */\n          dup4\n            /* \"#utility.yul\":133:140   */\n          dup6\n            /* \"#utility.yul\":129:152   */\n          sub\n            /* \"#utility.yul\":125:157   */\n          slt\n            /* \"#utility.yul\":122:174   */\n          iszero\n          tag_9\n          jumpi\n            /* \"#utility.yul\":170:171   */\n          0x00\n            /* \"#utility.yul\":167:168   */\n          dup1\n            /* \"#utility.yul\":160:172   */\n          revert\n            /* \"#utility.yul\":122:174   */\n        tag_9:\n            /* \"#utility.yul\":193:209   */\n          dup3\n          mload\n            /* \"#utility.yul\":252:254   */\n          0x20\n            /* \"#utility.yul\":237:255   */\n          dup5\n          add\n            /* \"#utility.yul\":231:256   */\n          mload\n            /* \"#utility.yul\":193:209   */\n          swap1\n          swap3\n          pop\n          sub(shl(0xa0, 0x01), 0x01)\n            /* \"#utility.yul\":285:316   */\n          dup2\n          and\n            /* \"#utility.yul\":275:317   */\n          dup2\n          eq\n            /* \"#utility.yul\":265:335   */\n          tag_10\n          jumpi\n            /* \"#utility.yul\":331:332   */\n          0x00\n            /* \"#utility.yul\":328:329   */\n          dup1\n            /* \"#utility.yul\":321:333   */\n          revert\n            /* \"#utility.yul\":265:335   */\n        tag_10:\n            /* \"#utility.yul\":354:359   */\n          dup1\n            /* \"#utility.yul\":344:359   */\n          swap2\n          pop\n          pop\n            /* \"#utility.yul\":14:365   */\n          swap3\n          pop\n          swap3\n          swap1\n          pop\n          jump\t// out\n        tag_7:\n            /* \"fullenchanded.sol\":116:1462  contract Subscription {... */\n          dataSize(sub_0)\n          dup1\n          dataOffset(sub_0)\n          0x00\n          codecopy\n          0x00\n          return\n        stop\n\n        sub_0: assembly {\n                /* \"fullenchanded.sol\":116:1462  contract Subscription {... */\n              mstore(0x40, 0x80)\n              callvalue\n              dup1\n              iszero\n              tag_1\n              jumpi\n              0x00\n              dup1\n              revert\n            tag_1:\n              pop\n              jumpi(tag_2, lt(calldatasize, 0x04))\n              shr(0xe0, calldataload(0x00))\n              dup1\n              0x5c975abb\n              gt\n              tag_12\n              jumpi\n              dup1\n              0x5c975abb\n              eq\n              tag_7\n              jumpi\n              dup1\n              0x8456cb59\n              eq\n              tag_8\n              jumpi\n              dup1\n              0x8d6cc56d\n              eq\n              tag_9\n              jumpi\n              dup1\n              0x8da5cb5b\n              eq\n              tag_10\n              jumpi\n              dup1\n              0xa035b1fe\n              eq\n              tag_11\n              jumpi\n              0x00\n              dup1\n              revert\n            tag_12:\n              dup1\n              0x02fb0c5e\n              eq\n              tag_3\n              jumpi\n              dup1\n              0x046f7da2\n              eq\n              tag_4\n              jumpi\n              dup1\n              0x0f15f4c0\n              eq\n              tag_5\n              jumpi\n              dup1\n              0x51b42b00\n              eq\n              tag_6\n              jumpi\n            tag_2:\n              0x00\n              dup1\n              revert\n                /* \"fullenchanded.sol\":221:239  bool public active */\n            tag_3:\n              sload(0x01)\n              tag_13\n              swap1\n              shl(0xa8, 0x01)\n              swap1\n              div\n              0xff\n              and\n              dup2\n              jump\n            tag_13:\n              mload(0x40)\n                /* \"#utility.yul\":179:193   */\n              swap1\n              iszero\n                /* \"#utility.yul\":172:194   */\n              iszero\n                /* \"#utility.yul\":154:195   */\n              dup2\n              mstore\n                /* \"#utility.yul\":142:144   */\n              0x20\n                /* \"#utility.yul\":127:145   */\n              add\n                /* \"fullenchanded.sol\":221:239  bool public active */\n            tag_15:\n              mload(0x40)\n              dup1\n              swap2\n              sub\n              swap1\n              return\n                /* \"fullenchanded.sol\":1046:1145  function resume() external onlyOwner {... */\n            tag_4:\n              tag_17\n              tag_18\n              jump\t// in\n            tag_17:\n              stop\n                /* \"fullenchanded.sol\":1357:1459  function activate() external onlyOwner {... */\n            tag_5:\n              tag_17\n              tag_20\n              jump\t// in\n                /* \"fullenchanded.sol\":1198:1304  function deactivate() external onlyOwner {... */\n            tag_6:\n              tag_17\n              tag_22\n              jump\t// in\n                /* \"fullenchanded.sol\":196:214  bool public paused */\n            tag_7:\n              sload(0x01)\n              tag_13\n              swap1\n              shl(0xa0, 0x01)\n              swap1\n              div\n              0xff\n              and\n              dup2\n              jump\n                /* \"fullenchanded.sol\":901:997  function pause() external onlyOwner {... */\n            tag_8:\n              tag_17\n              tag_27\n              jump\t// in\n                /* \"fullenchanded.sol\":680:853  function updatePrice(uint _newPrice) external onlyOwner {... */\n            tag_9:\n              tag_17\n              tag_29\n              calldatasize\n              0x04\n              tag_30\n              jump\t// in\n            tag_29:\n              tag_31\n              jump\t// in\n                /* \"fullenchanded.sol\":169:189  address public owner */\n            tag_10:\n              sload(0x01)\n              tag_32\n              swap1\n              sub(shl(0xa0, 0x01), 0x01)\n              and\n              dup2\n              jump\n            tag_32:\n              mload(0x40)\n              sub(shl(0xa0, 0x01), 0x01)\n                /* \"#utility.yul\":555:587   */\n              swap1\n              swap2\n              and\n                /* \"#utility.yul\":537:588   */\n              dup2\n              mstore\n                /* \"#utility.yul\":525:527   */\n              0x20\n                /* \"#utility.yul\":510:528   */\n              add\n                /* \"fullenchanded.sol\":169:189  address public owner */\n              tag_15\n                /* \"#utility.yul\":391:594   */\n              jump\n                /* \"fullenchanded.sol\":145:162  uint public price */\n            tag_11:\n              tag_36\n              sload(0x00)\n              dup2\n              jump\n            tag_36:\n              mload(0x40)\n                /* \"#utility.yul\":745:770   */\n              swap1\n              dup2\n              mstore\n                /* \"#utility.yul\":733:735   */\n              0x20\n                /* \"#utility.yul\":718:736   */\n              add\n                /* \"fullenchanded.sol\":145:162  uint public price */\n              tag_15\n                /* \"#utility.yul\":599:776   */\n              jump\n                /* \"fullenchanded.sol\":1046:1145  function resume() external onlyOwner {... */\n            tag_18:\n                /* \"fullenchanded.sol\":582:587  owner */\n              and(sub(shl(0xa0, 0x01), 0x01), sload(0x01))\n                /* \"fullenchanded.sol\":568:578  msg.sender */\n              caller\n                /* \"fullenchanded.sol\":568:587  msg.sender == owner */\n              eq\n                /* \"fullenchanded.sol\":560:605  require(msg.sender == owner, \"Not the owner\") */\n              tag_41\n              jumpi\n              mload(0x40)\n              shl(0xe5, 0x461bcd)\n              dup2\n              mstore\n              0x04\n              add\n              tag_42\n              swap1\n              tag_43\n              jump\t// in\n            tag_42:\n              mload(0x40)\n              dup1\n              swap2\n              sub\n              swap1\n              revert\n            tag_41:\n                /* \"fullenchanded.sol\":1094:1100  paused */\n              0x01\n                /* \"fullenchanded.sol\":1094:1108  paused = false */\n              dup1\n              sload\n              not(shl(0xa0, 0xff))\n              and\n              swap1\n              sstore\n                /* \"fullenchanded.sol\":1124:1137  Paused(false) */\n              mload(0x40)\n              0x00\n                /* \"#utility.yul\":154:195   */\n              dup2\n              mstore\n                /* \"fullenchanded.sol\":1124:1137  Paused(false) */\n              0x0e2fb031ee032dc02d8011dc50b816eb450cf856abd8261680dac74f72165bd2\n              swap1\n                /* \"#utility.yul\":142:144   */\n              0x20\n                /* \"#utility.yul\":127:145   */\n              add\n                /* \"fullenchanded.sol\":1124:1137  Paused(false) */\n            tag_45:\n              mload(0x40)\n              dup1\n              swap2\n              sub\n              swap1\n              log1\n                /* \"fullenchanded.sol\":1046:1145  function resume() external onlyOwner {... */\n              jump\t// out\n                /* \"fullenchanded.sol\":1357:1459  function activate() external onlyOwner {... */\n            tag_20:\n                /* \"fullenchanded.sol\":582:587  owner */\n              and(sub(shl(0xa0, 0x01), 0x01), sload(0x01))\n                /* \"fullenchanded.sol\":568:578  msg.sender */\n              caller\n                /* \"fullenchanded.sol\":568:587  msg.sender == owner */\n              eq\n                /* \"fullenchanded.sol\":560:605  require(msg.sender == owner, \"Not the owner\") */\n              tag_47\n              jumpi\n              mload(0x40)\n              shl(0xe5, 0x461bcd)\n              dup2\n              mstore\n              0x04\n              add\n              tag_42\n              swap1\n              tag_43\n              jump\t// in\n            tag_47:\n                /* \"fullenchanded.sol\":1416:1420  true */\n              0x01\n                /* \"fullenchanded.sol\":1407:1420  active = true */\n              dup1\n              sload\n              not(shl(0xa8, 0xff))\n              and\n              shl(0xa8, 0x01)\n              or\n              dup2\n              sstore\n                /* \"fullenchanded.sol\":1436:1451  Activated(true) */\n              mload(0x40)\n                /* \"#utility.yul\":154:195   */\n              swap1\n              dup2\n              mstore\n                /* \"fullenchanded.sol\":1436:1451  Activated(true) */\n              0xb4fecf10577bd994e5d7140db766b895cf86620b26dc9b2562bede9263e5610b\n              swap1\n                /* \"#utility.yul\":142:144   */\n              0x20\n                /* \"#utility.yul\":127:145   */\n              add\n                /* \"fullenchanded.sol\":1436:1451  Activated(true) */\n              tag_45\n                /* \"#utility.yul\":14:201   */\n              jump\n                /* \"fullenchanded.sol\":1198:1304  function deactivate() external onlyOwner {... */\n            tag_22:\n                /* \"fullenchanded.sol\":582:587  owner */\n              and(sub(shl(0xa0, 0x01), 0x01), sload(0x01))\n                /* \"fullenchanded.sol\":568:578  msg.sender */\n              caller\n                /* \"fullenchanded.sol\":568:587  msg.sender == owner */\n              eq\n                /* \"fullenchanded.sol\":560:605  require(msg.sender == owner, \"Not the owner\") */\n              tag_52\n              jumpi\n              mload(0x40)\n              shl(0xe5, 0x461bcd)\n              dup2\n              mstore\n              0x04\n              add\n              tag_42\n              swap1\n              tag_43\n              jump\t// in\n            tag_52:\n                /* \"fullenchanded.sol\":1250:1256  active */\n              0x01\n                /* \"fullenchanded.sol\":1250:1264  active = false */\n              dup1\n              sload\n              not(shl(0xa8, 0xff))\n              and\n              swap1\n              sstore\n                /* \"fullenchanded.sol\":1280:1296  Activated(false) */\n              mload(0x40)\n              0x00\n                /* \"#utility.yul\":154:195   */\n              dup2\n              mstore\n                /* \"fullenchanded.sol\":1280:1296  Activated(false) */\n              0xb4fecf10577bd994e5d7140db766b895cf86620b26dc9b2562bede9263e5610b\n              swap1\n                /* \"#utility.yul\":142:144   */\n              0x20\n                /* \"#utility.yul\":127:145   */\n              add\n                /* \"fullenchanded.sol\":1280:1296  Activated(false) */\n              tag_45\n                /* \"#utility.yul\":14:201   */\n              jump\n                /* \"fullenchanded.sol\":901:997  function pause() external onlyOwner {... */\n            tag_27:\n                /* \"fullenchanded.sol\":582:587  owner */\n              and(sub(shl(0xa0, 0x01), 0x01), sload(0x01))\n                /* \"fullenchanded.sol\":568:578  msg.sender */\n              caller\n                /* \"fullenchanded.sol\":568:587  msg.sender == owner */\n              eq\n                /* \"fullenchanded.sol\":560:605  require(msg.sender == owner, \"Not the owner\") */\n              tag_57\n              jumpi\n              mload(0x40)\n              shl(0xe5, 0x461bcd)\n              dup2\n              mstore\n              0x04\n              add\n              tag_42\n              swap1\n              tag_43\n              jump\t// in\n            tag_57:\n                /* \"fullenchanded.sol\":957:961  true */\n              0x01\n                /* \"fullenchanded.sol\":948:961  paused = true */\n              dup1\n              sload\n              not(shl(0xa0, 0xff))\n              and\n              shl(0xa0, 0x01)\n              or\n              dup2\n              sstore\n                /* \"fullenchanded.sol\":977:989  Paused(true) */\n              mload(0x40)\n                /* \"#utility.yul\":154:195   */\n              swap1\n              dup2\n              mstore\n                /* \"fullenchanded.sol\":977:989  Paused(true) */\n              0x0e2fb031ee032dc02d8011dc50b816eb450cf856abd8261680dac74f72165bd2\n              swap1\n                /* \"#utility.yul\":142:144   */\n              0x20\n                /* \"#utility.yul\":127:145   */\n              add\n                /* \"fullenchanded.sol\":977:989  Paused(true) */\n              tag_45\n                /* \"#utility.yul\":14:201   */\n              jump\n                /* \"fullenchanded.sol\":680:853  function updatePrice(uint _newPrice) external onlyOwner {... */\n            tag_31:\n                /* \"fullenchanded.sol\":582:587  owner */\n              and(sub(shl(0xa0, 0x01), 0x01), sload(0x01))\n                /* \"fullenchanded.sol\":568:578  msg.sender */\n              caller\n                /* \"fullenchanded.sol\":568:587  msg.sender == owner */\n              eq\n                /* \"fullenchanded.sol\":560:605  require(msg.sender == owner, \"Not the owner\") */\n              tag_62\n              jumpi\n              mload(0x40)\n              shl(0xe5, 0x461bcd)\n              dup2\n              mstore\n              0x04\n              add\n              tag_42\n              swap1\n              tag_43\n              jump\t// in\n            tag_62:\n                /* \"fullenchanded.sol\":747:760  uint oldPrice */\n              0x00\n                /* \"fullenchanded.sol\":763:768  price */\n              dup1\n              sload\n                /* \"fullenchanded.sol\":779:796  price = _newPrice */\n              swap1\n              dup3\n              swap1\n              sstore\n                /* \"fullenchanded.sol\":812:845  PriceUpdated(oldPrice, _newPrice) */\n              0x40\n              dup1\n              mload\n                /* \"#utility.yul\":1297:1322   */\n              dup3\n              dup2\n              mstore\n                /* \"#utility.yul\":1353:1355   */\n              0x20\n                /* \"#utility.yul\":1338:1356   */\n              dup2\n              add\n                /* \"#utility.yul\":1331:1365   */\n              dup5\n              swap1\n              mstore\n                /* \"fullenchanded.sol\":812:845  PriceUpdated(oldPrice, _newPrice) */\n              0x945c1c4e99aa89f648fbfe3df471b916f719e16d960fcec0737d4d56bd696838\n              swap2\n                /* \"#utility.yul\":1270:1288   */\n              add\n                /* \"fullenchanded.sol\":812:845  PriceUpdated(oldPrice, _newPrice) */\n              mload(0x40)\n              dup1\n              swap2\n              sub\n              swap1\n              log1\n                /* \"fullenchanded.sol\":736:853  {... */\n              pop\n                /* \"fullenchanded.sol\":680:853  function updatePrice(uint _newPrice) external onlyOwner {... */\n              pop\n              jump\t// out\n                /* \"#utility.yul\":206:386   */\n            tag_30:\n                /* \"#utility.yul\":265:271   */\n              0x00\n                /* \"#utility.yul\":318:320   */\n              0x20\n                /* \"#utility.yul\":306:315   */\n              dup3\n                /* \"#utility.yul\":297:304   */\n              dup5\n                /* \"#utility.yul\":293:316   */\n              sub\n                /* \"#utility.yul\":289:321   */\n              slt\n                /* \"#utility.yul\":286:338   */\n              iszero\n              tag_70\n              jumpi\n                /* \"#utility.yul\":334:335   */\n              0x00\n                /* \"#utility.yul\":331:332   */\n              dup1\n                /* \"#utility.yul\":324:336   */\n              revert\n                /* \"#utility.yul\":286:338   */\n            tag_70:\n              pop\n                /* \"#utility.yul\":357:380   */\n              calldataload\n              swap2\n                /* \"#utility.yul\":206:386   */\n              swap1\n              pop\n              jump\t// out\n                /* \"#utility.yul\":781:1118   */\n            tag_43:\n                /* \"#utility.yul\":983:985   */\n              0x20\n                /* \"#utility.yul\":965:986   */\n              dup1\n              dup3\n              mstore\n                /* \"#utility.yul\":1022:1024   */\n              0x0d\n                /* \"#utility.yul\":1002:1020   */\n              swap1\n              dup3\n              add\n                /* \"#utility.yul\":995:1025   */\n              mstore\n              shl(0x99, 0x2737ba103a34329037bbb732b9)\n                /* \"#utility.yul\":1056:1058   */\n              0x40\n                /* \"#utility.yul\":1041:1059   */\n              dup3\n              add\n                /* \"#utility.yul\":1034:1077   */\n              mstore\n                /* \"#utility.yul\":1109:1111   */\n              0x60\n                /* \"#utility.yul\":1094:1112   */\n              add\n              swap1\n                /* \"#utility.yul\":781:1118   */\n              jump\t// out\n\n            auxdata: 0xa26469706673582212205b788d43a1bf8f7ff2ebe6874cd3bf1a3ce4279c24f460c2ccbc97f53116971c64736f6c634300081a0033\n        }\n    }\n\n    auxdata: 0xa2646970667358221220186a08038a1cc5686f602915d3e455b619e1dd6b15a2bad5c79c2b646b7c677e64736f6c634300081a0033\n}\n",
				"bytecode": {
					"linkReferences": {},
					"object": "6080604052348015600e575f80fd5b505f80546001600160a01b031916331790556112c08061002d5f395ff3fe608060405234801561000f575f80fd5b50600436106100e5575f3560e01c80639507d39a11610088578063c22c4f4311610063578063c22c4f43146101df578063ec9c3212146101f2578063ed42235814610205578063f2fde38b14610218575f80fd5b80639507d39a146101a65780639fd80934146101b9578063a45bb9ea146101cc575f80fd5b80636613ff34116100c35780636613ff341461012f57806382afd23b14610142578063850d2530146101745780638da5cb5b1461017c575f80fd5b806321fe0f30146100e9578063304f90bb146101075780633b8b26a61461011c575b5f80fd5b6100f161022b565b6040516100fe9190610c8b565b60405180910390f35b61011a610115366004610cd6565b6102e9565b005b61011a61012a366004610ced565b61042e565b61011a61013d366004610cd6565b6105c1565b610164610150366004610cd6565b60026020525f908152604090205460ff1681565b60405190151581526020016100fe565b6100f161067d565b5f5461018e906001600160a01b031681565b6040516001600160a01b0390911681526020016100fe565b61018e6101b4366004610cd6565b610799565b61011a6101c7366004610ced565b6107c7565b61011a6101da366004610cd6565b61093a565b61018e6101ed366004610cd6565b610a0c565b61011a610200366004610cd6565b610a34565b61011a610213366004610cd6565b610b03565b61011a610226366004610d0d565b610ba6565b6001546060905f9067ffffffffffffffff81111561024b5761024b610d3a565b604051908082528060200260200182016040528015610274578160200160208202803683370190505b5090505f5b6001548110156102e3576001818154811061029657610296610d4e565b905f5260205f20015f9054906101000a90046001600160a01b03168282815181106102c3576102c3610d4e565b6001600160a01b0390921660209283029190910190910152600101610279565b50919050565b5f546001600160a01b0316331461031b5760405162461bcd60e51b815260040161031290610d62565b60405180910390fd5b5f805460405183916001600160a01b03169061033690610c7e565b9182526001600160a01b03166020820152604001604051809103905ff080158015610363573d5f803e3d5ffd5b506001805480820182555f8281527fb10e2d527612073b26eecdfd717e6a320cf44b4afac2b0732d9fcbe2b7fa0cf690910180546001600160a01b0319166001600160a01b03851617905581549293509091600291906103c4908490610d9d565b81526020019081526020015f205f6101000a81548160ff021916908315150217905550806001600160a01b03167fdee7f9f5d5947a9c6657741a7b8cd7dd8d9d465ab5771a6a2bc4ef074209c0ff8360405161042291815260200190565b60405180910390a25050565b5f546001600160a01b031633146104575760405162461bcd60e51b815260040161031290610d62565b5f811161049a5760405162461bcd60e51b81526020600482015260116024820152700436f756e74206d757374206265203e203607c1b6044820152606401610312565b5f5b818110156105bc575f805460405185916001600160a01b0316906104bf90610c7e565b9182526001600160a01b03166020820152604001604051809103905ff0801580156104ec573d5f803e3d5ffd5b506001805480820182555f8281527fb10e2d527612073b26eecdfd717e6a320cf44b4afac2b0732d9fcbe2b7fa0cf690910180546001600160a01b0319166001600160a01b038516179055815492935090916002919061054d908490610d9d565b81526020019081526020015f205f6101000a81548160ff021916908315150217905550806001600160a01b03167fdee7f9f5d5947a9c6657741a7b8cd7dd8d9d465ab5771a6a2bc4ef074209c0ff856040516105ab91815260200190565b60405180910390a25060010161049c565b505050565b5f546001600160a01b031633146105ea5760405162461bcd60e51b815260040161031290610d62565b600154811061060b5760405162461bcd60e51b815260040161031290610db6565b6001818154811061061e5761061e610d4e565b5f91825260208220015460408051630237bed160e11b815290516001600160a01b039092169263046f7da29260048084019382900301818387803b158015610664575f80fd5b505af1158015610676573d5f803e3d5ffd5b5050505050565b60605f805b6001548110156106b8575f8181526002602052604090205460ff16156106b057816106ac81610ddd565b9250505b600101610682565b505f8167ffffffffffffffff8111156106d3576106d3610d3a565b6040519080825280602002602001820160405280156106fc578160200160208202803683370190505b5090505f805b600154811015610790575f8181526002602052604090205460ff1615610788576001818154811061073557610735610d4e565b905f5260205f20015f9054906101000a90046001600160a01b031683838151811061076257610762610d4e565b6001600160a01b03909216602092830291909101909101528161078481610ddd565b9250505b600101610702565b50909392505050565b5f600182815481106107ad576107ad610d4e565b5f918252602090912001546001600160a01b031692915050565b5f546001600160a01b031633146107f05760405162461bcd60e51b815260040161031290610d62565b60015482106108115760405162461bcd60e51b815260040161031290610db6565b5f6001838154811061082557610825610d4e565b5f9182526020808320909101546040805163501ad8ff60e11b815290516001600160a01b039092169450849263a035b1fe926004808401938290030181865afa158015610874573d5f803e3d5ffd5b505050506040513d601f19601f820116820180604052508101906108989190610df5565b604051638d6cc56d60e01b8152600481018590529091506001600160a01b03831690638d6cc56d906024015f604051808303815f87803b1580156108da575f80fd5b505af11580156108ec573d5f803e3d5ffd5b505060408051848152602081018790526001600160a01b03861693507fb556fac599c3c70efb9ab1fa725ecace6c81cc48d1455f886607def065f3e0c092500160405180910390a250505050565b5f546001600160a01b031633146109635760405162461bcd60e51b815260040161031290610d62565b60015481106109845760405162461bcd60e51b815260040161031290610db6565b6001818154811061099757610997610d4e565b5f91825260208220015460408051623c57d360e61b815290516001600160a01b0390921692630f15f4c09260048084019382900301818387803b1580156109dc575f80fd5b505af11580156109ee573d5f803e3d5ffd5b5050505f91825250600260205260409020805460ff19166001179055565b60018181548110610a1b575f80fd5b5f918252602090912001546001600160a01b0316905081565b5f546001600160a01b03163314610a5d5760405162461bcd60e51b815260040161031290610d62565b6001548110610a7e5760405162461bcd60e51b815260040161031290610db6565b60018181548110610a9157610a91610d4e565b5f918252602082200154604080516251b42b60e81b815290516001600160a01b03909216926351b42b009260048084019382900301818387803b158015610ad6575f80fd5b505af1158015610ae8573d5f803e3d5ffd5b5050505f91825250600260205260409020805460ff19169055565b5f546001600160a01b03163314610b2c5760405162461bcd60e51b815260040161031290610d62565b6001548110610b4d5760405162461bcd60e51b815260040161031290610db6565b60018181548110610b6057610b60610d4e565b5f91825260208220015460408051638456cb5960e01b815290516001600160a01b0390921692638456cb599260048084019382900301818387803b158015610664575f80fd5b5f546001600160a01b03163314610bcf5760405162461bcd60e51b815260040161031290610d62565b6001600160a01b038116610c175760405162461bcd60e51b815260206004820152600f60248201526e496e76616c6964206164647265737360881b6044820152606401610312565b5f54604080516001600160a01b03928316815291831660208301527f8be0079c531659141344cd1fd0a4f28419497f9722a3daafe3b4186f6b6457e0910160405180910390a15f80546001600160a01b0319166001600160a01b0392909216919091179055565b61047e80610e0d83390190565b602080825282518282018190525f918401906040840190835b81811015610ccb5783516001600160a01b0316835260209384019390920191600101610ca4565b509095945050505050565b5f60208284031215610ce6575f80fd5b5035919050565b5f8060408385031215610cfe575f80fd5b50508035926020909101359150565b5f60208284031215610d1d575f80fd5b81356001600160a01b0381168114610d33575f80fd5b9392505050565b634e487b7160e01b5f52604160045260245ffd5b634e487b7160e01b5f52603260045260245ffd5b6020808252600d908201526c2737ba103a34329037bbb732b960991b604082015260600190565b634e487b7160e01b5f52601160045260245ffd5b81810381811115610db057610db0610d89565b92915050565b6020808252600d908201526c092dcecc2d8d2c840d2dcc8caf609b1b604082015260600190565b5f60018201610dee57610dee610d89565b5060010190565b5f60208284031215610e05575f80fd5b505191905056fe6080604052348015600e575f80fd5b5060405161047e38038061047e833981016040819052602b916059565b5f91909155600180546001600160b01b0319166001600160a01b0390921691909117600160a81b1790556091565b5f80604083850312156069575f80fd5b825160208401519092506001600160a01b03811681146086575f80fd5b809150509250929050565b6103e08061009e5f395ff3fe608060405234801561000f575f80fd5b5060043610610090575f3560e01c80635c975abb116100635780635c975abb146100d75780638456cb59146100eb5780638d6cc56d146100f35780638da5cb5b14610106578063a035b1fe14610131575f80fd5b806302fb0c5e14610094578063046f7da2146100bd5780630f15f4c0146100c757806351b42b00146100cf575b5f80fd5b6001546100a890600160a81b900460ff1681565b60405190151581526020015b60405180910390f35b6100c5610147565b005b6100c56101bd565b6100c561022a565b6001546100a890600160a01b900460ff1681565b6100c5610291565b6100c561010136600461036c565b6102fe565b600154610119906001600160a01b031681565b6040516001600160a01b0390911681526020016100b4565b6101395f5481565b6040519081526020016100b4565b6001546001600160a01b0316331461017a5760405162461bcd60e51b815260040161017190610383565b60405180910390fd5b6001805460ff60a01b191690556040515f81527f0e2fb031ee032dc02d8011dc50b816eb450cf856abd8261680dac74f72165bd2906020015b60405180910390a1565b6001546001600160a01b031633146101e75760405162461bcd60e51b815260040161017190610383565b6001805460ff60a81b1916600160a81b1781556040519081527fb4fecf10577bd994e5d7140db766b895cf86620b26dc9b2562bede9263e5610b906020016101b3565b6001546001600160a01b031633146102545760405162461bcd60e51b815260040161017190610383565b6001805460ff60a81b191690556040515f81527fb4fecf10577bd994e5d7140db766b895cf86620b26dc9b2562bede9263e5610b906020016101b3565b6001546001600160a01b031633146102bb5760405162461bcd60e51b815260040161017190610383565b6001805460ff60a01b1916600160a01b1781556040519081527f0e2fb031ee032dc02d8011dc50b816eb450cf856abd8261680dac74f72165bd2906020016101b3565b6001546001600160a01b031633146103285760405162461bcd60e51b815260040161017190610383565b5f80549082905560408051828152602081018490527f945c1c4e99aa89f648fbfe3df471b916f719e16d960fcec0737d4d56bd696838910160405180910390a15050565b5f6020828403121561037c575f80fd5b5035919050565b6020808252600d908201526c2737ba103a34329037bbb732b960991b60408201526060019056fea26469706673582212205b788d43a1bf8f7ff2ebe6874cd3bf1a3ce4279c24f460c2ccbc97f53116971c64736f6c634300081a0033a2646970667358221220186a08038a1cc5686f602915d3e455b619e1dd6b15a2bad5c79c2b646b7c677e64736f6c634300081a0033",
					"opcodes": "PUSH1 0x80 PUSH1 0x40 MSTORE CALLVALUE DUP1 ISZERO PUSH1 0xE JUMPI PUSH0 DUP1 REVERT JUMPDEST POP PUSH0 DUP1 SLOAD PUSH1 0x1 PUSH1 0x1 PUSH1 0xA0 SHL SUB NOT AND CALLER OR SWAP1 SSTORE PUSH2 0x12C0 DUP1 PUSH2 0x2D PUSH0 CODECOPY PUSH0 RETURN INVALID PUSH1 0x80 PUSH1 0x40 MSTORE CALLVALUE DUP1 ISZERO PUSH2 0xF JUMPI PUSH0 DUP1 REVERT JUMPDEST POP PUSH1 0x4 CALLDATASIZE LT PUSH2 0xE5 JUMPI PUSH0 CALLDATALOAD PUSH1 0xE0 SHR DUP1 PUSH4 0x9507D39A GT PUSH2 0x88 JUMPI DUP1 PUSH4 0xC22C4F43 GT PUSH2 0x63 JUMPI DUP1 PUSH4 0xC22C4F43 EQ PUSH2 0x1DF JUMPI DUP1 PUSH4 0xEC9C3212 EQ PUSH2 0x1F2 JUMPI DUP1 PUSH4 0xED422358 EQ PUSH2 0x205 JUMPI DUP1 PUSH4 0xF2FDE38B EQ PUSH2 0x218 JUMPI PUSH0 DUP1 REVERT JUMPDEST DUP1 PUSH4 0x9507D39A EQ PUSH2 0x1A6 JUMPI DUP1 PUSH4 0x9FD80934 EQ PUSH2 0x1B9 JUMPI DUP1 PUSH4 0xA45BB9EA EQ PUSH2 0x1CC JUMPI PUSH0 DUP1 REVERT JUMPDEST DUP1 PUSH4 0x6613FF34 GT PUSH2 0xC3 JUMPI DUP1 PUSH4 0x6613FF34 EQ PUSH2 0x12F JUMPI DUP1 PUSH4 0x82AFD23B EQ PUSH2 0x142 JUMPI DUP1 PUSH4 0x850D2530 EQ PUSH2 0x174 JUMPI DUP1 PUSH4 0x8DA5CB5B EQ PUSH2 0x17C JUMPI PUSH0 DUP1 REVERT JUMPDEST DUP1 PUSH4 0x21FE0F30 EQ PUSH2 0xE9 JUMPI DUP1 PUSH4 0x304F90BB EQ PUSH2 0x107 JUMPI DUP1 PUSH4 0x3B8B26A6 EQ PUSH2 0x11C JUMPI JUMPDEST PUSH0 DUP1 REVERT JUMPDEST PUSH2 0xF1 PUSH2 0x22B JUMP JUMPDEST PUSH1 0x40 MLOAD PUSH2 0xFE SWAP2 SWAP1 PUSH2 0xC8B JUMP JUMPDEST PUSH1 0x40 MLOAD DUP1 SWAP2 SUB SWAP1 RETURN JUMPDEST PUSH2 0x11A PUSH2 0x115 CALLDATASIZE PUSH1 0x4 PUSH2 0xCD6 JUMP JUMPDEST PUSH2 0x2E9 JUMP JUMPDEST STOP JUMPDEST PUSH2 0x11A PUSH2 0x12A CALLDATASIZE PUSH1 0x4 PUSH2 0xCED JUMP JUMPDEST PUSH2 0x42E JUMP JUMPDEST PUSH2 0x11A PUSH2 0x13D CALLDATASIZE PUSH1 0x4 PUSH2 0xCD6 JUMP JUMPDEST PUSH2 0x5C1 JUMP JUMPDEST PUSH2 0x164 PUSH2 0x150 CALLDATASIZE PUSH1 0x4 PUSH2 0xCD6 JUMP JUMPDEST PUSH1 0x2 PUSH1 0x20 MSTORE PUSH0 SWAP1 DUP2 MSTORE PUSH1 0x40 SWAP1 KECCAK256 SLOAD PUSH1 0xFF AND DUP2 JUMP JUMPDEST PUSH1 0x40 MLOAD SWAP1 ISZERO ISZERO DUP2 MSTORE PUSH1 0x20 ADD PUSH2 0xFE JUMP JUMPDEST PUSH2 0xF1 PUSH2 0x67D JUMP JUMPDEST PUSH0 SLOAD PUSH2 0x18E SWAP1 PUSH1 0x1 PUSH1 0x1 PUSH1 0xA0 SHL SUB AND DUP2 JUMP JUMPDEST PUSH1 0x40 MLOAD PUSH1 0x1 PUSH1 0x1 PUSH1 0xA0 SHL SUB SWAP1 SWAP2 AND DUP2 MSTORE PUSH1 0x20 ADD PUSH2 0xFE JUMP JUMPDEST PUSH2 0x18E PUSH2 0x1B4 CALLDATASIZE PUSH1 0x4 PUSH2 0xCD6 JUMP JUMPDEST PUSH2 0x799 JUMP JUMPDEST PUSH2 0x11A PUSH2 0x1C7 CALLDATASIZE PUSH1 0x4 PUSH2 0xCED JUMP JUMPDEST PUSH2 0x7C7 JUMP JUMPDEST PUSH2 0x11A PUSH2 0x1DA CALLDATASIZE PUSH1 0x4 PUSH2 0xCD6 JUMP JUMPDEST PUSH2 0x93A JUMP JUMPDEST PUSH2 0x18E PUSH2 0x1ED CALLDATASIZE PUSH1 0x4 PUSH2 0xCD6 JUMP JUMPDEST PUSH2 0xA0C JUMP JUMPDEST PUSH2 0x11A PUSH2 0x200 CALLDATASIZE PUSH1 0x4 PUSH2 0xCD6 JUMP JUMPDEST PUSH2 0xA34 JUMP JUMPDEST PUSH2 0x11A PUSH2 0x213 CALLDATASIZE PUSH1 0x4 PUSH2 0xCD6 JUMP JUMPDEST PUSH2 0xB03 JUMP JUMPDEST PUSH2 0x11A PUSH2 0x226 CALLDATASIZE PUSH1 0x4 PUSH2 0xD0D JUMP JUMPDEST PUSH2 0xBA6 JUMP JUMPDEST PUSH1 0x1 SLOAD PUSH1 0x60 SWAP1 PUSH0 SWAP1 PUSH8 0xFFFFFFFFFFFFFFFF DUP2 GT ISZERO PUSH2 0x24B JUMPI PUSH2 0x24B PUSH2 0xD3A JUMP JUMPDEST PUSH1 0x40 MLOAD SWAP1 DUP1 DUP3 MSTORE DUP1 PUSH1 0x20 MUL PUSH1 0x20 ADD DUP3 ADD PUSH1 0x40 MSTORE DUP1 ISZERO PUSH2 0x274 JUMPI DUP2 PUSH1 0x20 ADD PUSH1 0x20 DUP3 MUL DUP1 CALLDATASIZE DUP4 CALLDATACOPY ADD SWAP1 POP JUMPDEST POP SWAP1 POP PUSH0 JUMPDEST PUSH1 0x1 SLOAD DUP2 LT ISZERO PUSH2 0x2E3 JUMPI PUSH1 0x1 DUP2 DUP2 SLOAD DUP2 LT PUSH2 0x296 JUMPI PUSH2 0x296 PUSH2 0xD4E JUMP JUMPDEST SWAP1 PUSH0 MSTORE PUSH1 0x20 PUSH0 KECCAK256 ADD PUSH0 SWAP1 SLOAD SWAP1 PUSH2 0x100 EXP SWAP1 DIV PUSH1 0x1 PUSH1 0x1 PUSH1 0xA0 SHL SUB AND DUP3 DUP3 DUP2 MLOAD DUP2 LT PUSH2 0x2C3 JUMPI PUSH2 0x2C3 PUSH2 0xD4E JUMP JUMPDEST PUSH1 0x1 PUSH1 0x1 PUSH1 0xA0 SHL SUB SWAP1 SWAP3 AND PUSH1 0x20 SWAP3 DUP4 MUL SWAP2 SWAP1 SWAP2 ADD SWAP1 SWAP2 ADD MSTORE PUSH1 0x1 ADD PUSH2 0x279 JUMP JUMPDEST POP SWAP2 SWAP1 POP JUMP JUMPDEST PUSH0 SLOAD PUSH1 0x1 PUSH1 0x1 PUSH1 0xA0 SHL SUB AND CALLER EQ PUSH2 0x31B JUMPI PUSH1 0x40 MLOAD PUSH3 0x461BCD PUSH1 0xE5 SHL DUP2 MSTORE PUSH1 0x4 ADD PUSH2 0x312 SWAP1 PUSH2 0xD62 JUMP JUMPDEST PUSH1 0x40 MLOAD DUP1 SWAP2 SUB SWAP1 REVERT JUMPDEST PUSH0 DUP1 SLOAD PUSH1 0x40 MLOAD DUP4 SWAP2 PUSH1 0x1 PUSH1 0x1 PUSH1 0xA0 SHL SUB AND SWAP1 PUSH2 0x336 SWAP1 PUSH2 0xC7E JUMP JUMPDEST SWAP2 DUP3 MSTORE PUSH1 0x1 PUSH1 0x1 PUSH1 0xA0 SHL SUB AND PUSH1 0x20 DUP3 ADD MSTORE PUSH1 0x40 ADD PUSH1 0x40 MLOAD DUP1 SWAP2 SUB SWAP1 PUSH0 CREATE DUP1 ISZERO DUP1 ISZERO PUSH2 0x363 JUMPI RETURNDATASIZE PUSH0 DUP1 RETURNDATACOPY RETURNDATASIZE PUSH0 REVERT JUMPDEST POP PUSH1 0x1 DUP1 SLOAD DUP1 DUP3 ADD DUP3 SSTORE PUSH0 DUP3 DUP2 MSTORE PUSH32 0xB10E2D527612073B26EECDFD717E6A320CF44B4AFAC2B0732D9FCBE2B7FA0CF6 SWAP1 SWAP2 ADD DUP1 SLOAD PUSH1 0x1 PUSH1 0x1 PUSH1 0xA0 SHL SUB NOT AND PUSH1 0x1 PUSH1 0x1 PUSH1 0xA0 SHL SUB DUP6 AND OR SWAP1 SSTORE DUP2 SLOAD SWAP3 SWAP4 POP SWAP1 SWAP2 PUSH1 0x2 SWAP2 SWAP1 PUSH2 0x3C4 SWAP1 DUP5 SWAP1 PUSH2 0xD9D JUMP JUMPDEST DUP2 MSTORE PUSH1 0x20 ADD SWAP1 DUP2 MSTORE PUSH1 0x20 ADD PUSH0 KECCAK256 PUSH0 PUSH2 0x100 EXP DUP2 SLOAD DUP2 PUSH1 0xFF MUL NOT AND SWAP1 DUP4 ISZERO ISZERO MUL OR SWAP1 SSTORE POP DUP1 PUSH1 0x1 PUSH1 0x1 PUSH1 0xA0 SHL SUB AND PUSH32 0xDEE7F9F5D5947A9C6657741A7B8CD7DD8D9D465AB5771A6A2BC4EF074209C0FF DUP4 PUSH1 0x40 MLOAD PUSH2 0x422 SWAP2 DUP2 MSTORE PUSH1 0x20 ADD SWAP1 JUMP JUMPDEST PUSH1 0x40 MLOAD DUP1 SWAP2 SUB SWAP1 LOG2 POP POP JUMP JUMPDEST PUSH0 SLOAD PUSH1 0x1 PUSH1 0x1 PUSH1 0xA0 SHL SUB AND CALLER EQ PUSH2 0x457 JUMPI PUSH1 0x40 MLOAD PUSH3 0x461BCD PUSH1 0xE5 SHL DUP2 MSTORE PUSH1 0x4 ADD PUSH2 0x312 SWAP1 PUSH2 0xD62 JUMP JUMPDEST PUSH0 DUP2 GT PUSH2 0x49A JUMPI PUSH1 0x40 MLOAD PUSH3 0x461BCD PUSH1 0xE5 SHL DUP2 MSTORE PUSH1 0x20 PUSH1 0x4 DUP3 ADD MSTORE PUSH1 0x11 PUSH1 0x24 DUP3 ADD MSTORE PUSH17 0x436F756E74206D757374206265203E203 PUSH1 0x7C SHL PUSH1 0x44 DUP3 ADD MSTORE PUSH1 0x64 ADD PUSH2 0x312 JUMP JUMPDEST PUSH0 JUMPDEST DUP2 DUP2 LT ISZERO PUSH2 0x5BC JUMPI PUSH0 DUP1 SLOAD PUSH1 0x40 MLOAD DUP6 SWAP2 PUSH1 0x1 PUSH1 0x1 PUSH1 0xA0 SHL SUB AND SWAP1 PUSH2 0x4BF SWAP1 PUSH2 0xC7E JUMP JUMPDEST SWAP2 DUP3 MSTORE PUSH1 0x1 PUSH1 0x1 PUSH1 0xA0 SHL SUB AND PUSH1 0x20 DUP3 ADD MSTORE PUSH1 0x40 ADD PUSH1 0x40 MLOAD DUP1 SWAP2 SUB SWAP1 PUSH0 CREATE DUP1 ISZERO DUP1 ISZERO PUSH2 0x4EC JUMPI RETURNDATASIZE PUSH0 DUP1 RETURNDATACOPY RETURNDATASIZE PUSH0 REVERT JUMPDEST POP PUSH1 0x1 DUP1 SLOAD DUP1 DUP3 ADD DUP3 SSTORE PUSH0 DUP3 DUP2 MSTORE PUSH32 0xB10E2D527612073B26EECDFD717E6A320CF44B4AFAC2B0732D9FCBE2B7FA0CF6 SWAP1 SWAP2 ADD DUP1 SLOAD PUSH1 0x1 PUSH1 0x1 PUSH1 0xA0 SHL SUB NOT AND PUSH1 0x1 PUSH1 0x1 PUSH1 0xA0 SHL SUB DUP6 AND OR SWAP1 SSTORE DUP2 SLOAD SWAP3 SWAP4 POP SWAP1 SWAP2 PUSH1 0x2 SWAP2 SWAP1 PUSH2 0x54D SWAP1 DUP5 SWAP1 PUSH2 0xD9D JUMP JUMPDEST DUP2 MSTORE PUSH1 0x20 ADD SWAP1 DUP2 MSTORE PUSH1 0x20 ADD PUSH0 KECCAK256 PUSH0 PUSH2 0x100 EXP DUP2 SLOAD DUP2 PUSH1 0xFF MUL NOT AND SWAP1 DUP4 ISZERO ISZERO MUL OR SWAP1 SSTORE POP DUP1 PUSH1 0x1 PUSH1 0x1 PUSH1 0xA0 SHL SUB AND PUSH32 0xDEE7F9F5D5947A9C6657741A7B8CD7DD8D9D465AB5771A6A2BC4EF074209C0FF DUP6 PUSH1 0x40 MLOAD PUSH2 0x5AB SWAP2 DUP2 MSTORE PUSH1 0x20 ADD SWAP1 JUMP JUMPDEST PUSH1 0x40 MLOAD DUP1 SWAP2 SUB SWAP1 LOG2 POP PUSH1 0x1 ADD PUSH2 0x49C JUMP JUMPDEST POP POP POP JUMP JUMPDEST PUSH0 SLOAD PUSH1 0x1 PUSH1 0x1 PUSH1 0xA0 SHL SUB AND CALLER EQ PUSH2 0x5EA JUMPI PUSH1 0x40 MLOAD PUSH3 0x461BCD PUSH1 0xE5 SHL DUP2 MSTORE PUSH1 0x4 ADD PUSH2 0x312 SWAP1 PUSH2 0xD62 JUMP JUMPDEST PUSH1 0x1 SLOAD DUP2 LT PUSH2 0x60B JUMPI PUSH1 0x40 MLOAD PUSH3 0x461BCD PUSH1 0xE5 SHL DUP2 MSTORE PUSH1 0x4 ADD PUSH2 0x312 SWAP1 PUSH2 0xDB6 JUMP JUMPDEST PUSH1 0x1 DUP2 DUP2 SLOAD DUP2 LT PUSH2 0x61E JUMPI PUSH2 0x61E PUSH2 0xD4E JUMP JUMPDEST PUSH0 SWAP2 DUP3 MSTORE PUSH1 0x20 DUP3 KECCAK256 ADD SLOAD PUSH1 0x40 DUP1 MLOAD PUSH4 0x237BED1 PUSH1 0xE1 SHL DUP2 MSTORE SWAP1 MLOAD PUSH1 0x1 PUSH1 0x1 PUSH1 0xA0 SHL SUB SWAP1 SWAP3 AND SWAP3 PUSH4 0x46F7DA2 SWAP3 PUSH1 0x4 DUP1 DUP5 ADD SWAP4 DUP3 SWAP1 SUB ADD DUP2 DUP4 DUP8 DUP1 EXTCODESIZE ISZERO DUP1 ISZERO PUSH2 0x664 JUMPI PUSH0 DUP1 REVERT JUMPDEST POP GAS CALL ISZERO DUP1 ISZERO PUSH2 0x676 JUMPI RETURNDATASIZE PUSH0 DUP1 RETURNDATACOPY RETURNDATASIZE PUSH0 REVERT JUMPDEST POP POP POP POP POP JUMP JUMPDEST PUSH1 0x60 PUSH0 DUP1 JUMPDEST PUSH1 0x1 SLOAD DUP2 LT ISZERO PUSH2 0x6B8 JUMPI PUSH0 DUP2 DUP2 MSTORE PUSH1 0x2 PUSH1 0x20 MSTORE PUSH1 0x40 SWAP1 KECCAK256 SLOAD PUSH1 0xFF AND ISZERO PUSH2 0x6B0 JUMPI DUP2 PUSH2 0x6AC DUP2 PUSH2 0xDDD JUMP JUMPDEST SWAP3 POP POP JUMPDEST PUSH1 0x1 ADD PUSH2 0x682 JUMP JUMPDEST POP PUSH0 DUP2 PUSH8 0xFFFFFFFFFFFFFFFF DUP2 GT ISZERO PUSH2 0x6D3 JUMPI PUSH2 0x6D3 PUSH2 0xD3A JUMP JUMPDEST PUSH1 0x40 MLOAD SWAP1 DUP1 DUP3 MSTORE DUP1 PUSH1 0x20 MUL PUSH1 0x20 ADD DUP3 ADD PUSH1 0x40 MSTORE DUP1 ISZERO PUSH2 0x6FC JUMPI DUP2 PUSH1 0x20 ADD PUSH1 0x20 DUP3 MUL DUP1 CALLDATASIZE DUP4 CALLDATACOPY ADD SWAP1 POP JUMPDEST POP SWAP1 POP PUSH0 DUP1 JUMPDEST PUSH1 0x1 SLOAD DUP2 LT ISZERO PUSH2 0x790 JUMPI PUSH0 DUP2 DUP2 MSTORE PUSH1 0x2 PUSH1 0x20 MSTORE PUSH1 0x40 SWAP1 KECCAK256 SLOAD PUSH1 0xFF AND ISZERO PUSH2 0x788 JUMPI PUSH1 0x1 DUP2 DUP2 SLOAD DUP2 LT PUSH2 0x735 JUMPI PUSH2 0x735 PUSH2 0xD4E JUMP JUMPDEST SWAP1 PUSH0 MSTORE PUSH1 0x20 PUSH0 KECCAK256 ADD PUSH0 SWAP1 SLOAD SWAP1 PUSH2 0x100 EXP SWAP1 DIV PUSH1 0x1 PUSH1 0x1 PUSH1 0xA0 SHL SUB AND DUP4 DUP4 DUP2 MLOAD DUP2 LT PUSH2 0x762 JUMPI PUSH2 0x762 PUSH2 0xD4E JUMP JUMPDEST PUSH1 0x1 PUSH1 0x1 PUSH1 0xA0 SHL SUB SWAP1 SWAP3 AND PUSH1 0x20 SWAP3 DUP4 MUL SWAP2 SWAP1 SWAP2 ADD SWAP1 SWAP2 ADD MSTORE DUP2 PUSH2 0x784 DUP2 PUSH2 0xDDD JUMP JUMPDEST SWAP3 POP POP JUMPDEST PUSH1 0x1 ADD PUSH2 0x702 JUMP JUMPDEST POP SWAP1 SWAP4 SWAP3 POP POP POP JUMP JUMPDEST PUSH0 PUSH1 0x1 DUP3 DUP2 SLOAD DUP2 LT PUSH2 0x7AD JUMPI PUSH2 0x7AD PUSH2 0xD4E JUMP JUMPDEST PUSH0 SWAP2 DUP3 MSTORE PUSH1 0x20 SWAP1 SWAP2 KECCAK256 ADD SLOAD PUSH1 0x1 PUSH1 0x1 PUSH1 0xA0 SHL SUB AND SWAP3 SWAP2 POP POP JUMP JUMPDEST PUSH0 SLOAD PUSH1 0x1 PUSH1 0x1 PUSH1 0xA0 SHL SUB AND CALLER EQ PUSH2 0x7F0 JUMPI PUSH1 0x40 MLOAD PUSH3 0x461BCD PUSH1 0xE5 SHL DUP2 MSTORE PUSH1 0x4 ADD PUSH2 0x312 SWAP1 PUSH2 0xD62 JUMP JUMPDEST PUSH1 0x1 SLOAD DUP3 LT PUSH2 0x811 JUMPI PUSH1 0x40 MLOAD PUSH3 0x461BCD PUSH1 0xE5 SHL DUP2 MSTORE PUSH1 0x4 ADD PUSH2 0x312 SWAP1 PUSH2 0xDB6 JUMP JUMPDEST PUSH0 PUSH1 0x1 DUP4 DUP2 SLOAD DUP2 LT PUSH2 0x825 JUMPI PUSH2 0x825 PUSH2 0xD4E JUMP JUMPDEST PUSH0 SWAP2 DUP3 MSTORE PUSH1 0x20 DUP1 DUP4 KECCAK256 SWAP1 SWAP2 ADD SLOAD PUSH1 0x40 DUP1 MLOAD PUSH4 0x501AD8FF PUSH1 0xE1 SHL DUP2 MSTORE SWAP1 MLOAD PUSH1 0x1 PUSH1 0x1 PUSH1 0xA0 SHL SUB SWAP1 SWAP3 AND SWAP5 POP DUP5 SWAP3 PUSH4 0xA035B1FE SWAP3 PUSH1 0x4 DUP1 DUP5 ADD SWAP4 DUP3 SWAP1 SUB ADD DUP2 DUP7 GAS STATICCALL ISZERO DUP1 ISZERO PUSH2 0x874 JUMPI RETURNDATASIZE PUSH0 DUP1 RETURNDATACOPY RETURNDATASIZE PUSH0 REVERT JUMPDEST POP POP POP POP PUSH1 0x40 MLOAD RETURNDATASIZE PUSH1 0x1F NOT PUSH1 0x1F DUP3 ADD AND DUP3 ADD DUP1 PUSH1 0x40 MSTORE POP DUP2 ADD SWAP1 PUSH2 0x898 SWAP2 SWAP1 PUSH2 0xDF5 JUMP JUMPDEST PUSH1 0x40 MLOAD PUSH4 0x8D6CC56D PUSH1 0xE0 SHL DUP2 MSTORE PUSH1 0x4 DUP2 ADD DUP6 SWAP1 MSTORE SWAP1 SWAP2 POP PUSH1 0x1 PUSH1 0x1 PUSH1 0xA0 SHL SUB DUP4 AND SWAP1 PUSH4 0x8D6CC56D SWAP1 PUSH1 0x24 ADD PUSH0 PUSH1 0x40 MLOAD DUP1 DUP4 SUB DUP2 PUSH0 DUP8 DUP1 EXTCODESIZE ISZERO DUP1 ISZERO PUSH2 0x8DA JUMPI PUSH0 DUP1 REVERT JUMPDEST POP GAS CALL ISZERO DUP1 ISZERO PUSH2 0x8EC JUMPI RETURNDATASIZE PUSH0 DUP1 RETURNDATACOPY RETURNDATASIZE PUSH0 REVERT JUMPDEST POP POP PUSH1 0x40 DUP1 MLOAD DUP5 DUP2 MSTORE PUSH1 0x20 DUP2 ADD DUP8 SWAP1 MSTORE PUSH1 0x1 PUSH1 0x1 PUSH1 0xA0 SHL SUB DUP7 AND SWAP4 POP PUSH32 0xB556FAC599C3C70EFB9AB1FA725ECACE6C81CC48D1455F886607DEF065F3E0C0 SWAP3 POP ADD PUSH1 0x40 MLOAD DUP1 SWAP2 SUB SWAP1 LOG2 POP POP POP POP JUMP JUMPDEST PUSH0 SLOAD PUSH1 0x1 PUSH1 0x1 PUSH1 0xA0 SHL SUB AND CALLER EQ PUSH2 0x963 JUMPI PUSH1 0x40 MLOAD PUSH3 0x461BCD PUSH1 0xE5 SHL DUP2 MSTORE PUSH1 0x4 ADD PUSH2 0x312 SWAP1 PUSH2 0xD62 JUMP JUMPDEST PUSH1 0x1 SLOAD DUP2 LT PUSH2 0x984 JUMPI PUSH1 0x40 MLOAD PUSH3 0x461BCD PUSH1 0xE5 SHL DUP2 MSTORE PUSH1 0x4 ADD PUSH2 0x312 SWAP1 PUSH2 0xDB6 JUMP JUMPDEST PUSH1 0x1 DUP2 DUP2 SLOAD DUP2 LT PUSH2 0x997 JUMPI PUSH2 0x997 PUSH2 0xD4E JUMP JUMPDEST PUSH0 SWAP2 DUP3 MSTORE PUSH1 0x20 DUP3 KECCAK256 ADD SLOAD PUSH1 0x40 DUP1 MLOAD PUSH3 0x3C57D3 PUSH1 0xE6 SHL DUP2 MSTORE SWAP1 MLOAD PUSH1 0x1 PUSH1 0x1 PUSH1 0xA0 SHL SUB SWAP1 SWAP3 AND SWAP3 PUSH4 0xF15F4C0 SWAP3 PUSH1 0x4 DUP1 DUP5 ADD SWAP4 DUP3 SWAP1 SUB ADD DUP2 DUP4 DUP8 DUP1 EXTCODESIZE ISZERO DUP1 ISZERO PUSH2 0x9DC JUMPI PUSH0 DUP1 REVERT JUMPDEST POP GAS CALL ISZERO DUP1 ISZERO PUSH2 0x9EE JUMPI RETURNDATASIZE PUSH0 DUP1 RETURNDATACOPY RETURNDATASIZE PUSH0 REVERT JUMPDEST POP POP POP PUSH0 SWAP2 DUP3 MSTORE POP PUSH1 0x2 PUSH1 0x20 MSTORE PUSH1 0x40 SWAP1 KECCAK256 DUP1 SLOAD PUSH1 0xFF NOT AND PUSH1 0x1 OR SWAP1 SSTORE JUMP JUMPDEST PUSH1 0x1 DUP2 DUP2 SLOAD DUP2 LT PUSH2 0xA1B JUMPI PUSH0 DUP1 REVERT JUMPDEST PUSH0 SWAP2 DUP3 MSTORE PUSH1 0x20 SWAP1 SWAP2 KECCAK256 ADD SLOAD PUSH1 0x1 PUSH1 0x1 PUSH1 0xA0 SHL SUB AND SWAP1 POP DUP2 JUMP JUMPDEST PUSH0 SLOAD PUSH1 0x1 PUSH1 0x1 PUSH1 0xA0 SHL SUB AND CALLER EQ PUSH2 0xA5D JUMPI PUSH1 0x40 MLOAD PUSH3 0x461BCD PUSH1 0xE5 SHL DUP2 MSTORE PUSH1 0x4 ADD PUSH2 0x312 SWAP1 PUSH2 0xD62 JUMP JUMPDEST PUSH1 0x1 SLOAD DUP2 LT PUSH2 0xA7E JUMPI PUSH1 0x40 MLOAD PUSH3 0x461BCD PUSH1 0xE5 SHL DUP2 MSTORE PUSH1 0x4 ADD PUSH2 0x312 SWAP1 PUSH2 0xDB6 JUMP JUMPDEST PUSH1 0x1 DUP2 DUP2 SLOAD DUP2 LT PUSH2 0xA91 JUMPI PUSH2 0xA91 PUSH2 0xD4E JUMP JUMPDEST PUSH0 SWAP2 DUP3 MSTORE PUSH1 0x20 DUP3 KECCAK256 ADD SLOAD PUSH1 0x40 DUP1 MLOAD PUSH3 0x51B42B PUSH1 0xE8 SHL DUP2 MSTORE SWAP1 MLOAD PUSH1 0x1 PUSH1 0x1 PUSH1 0xA0 SHL SUB SWAP1 SWAP3 AND SWAP3 PUSH4 0x51B42B00 SWAP3 PUSH1 0x4 DUP1 DUP5 ADD SWAP4 DUP3 SWAP1 SUB ADD DUP2 DUP4 DUP8 DUP1 EXTCODESIZE ISZERO DUP1 ISZERO PUSH2 0xAD6 JUMPI PUSH0 DUP1 REVERT JUMPDEST POP GAS CALL ISZERO DUP1 ISZERO PUSH2 0xAE8 JUMPI RETURNDATASIZE PUSH0 DUP1 RETURNDATACOPY RETURNDATASIZE PUSH0 REVERT JUMPDEST POP POP POP PUSH0 SWAP2 DUP3 MSTORE POP PUSH1 0x2 PUSH1 0x20 MSTORE PUSH1 0x40 SWAP1 KECCAK256 DUP1 SLOAD PUSH1 0xFF NOT AND SWAP1 SSTORE JUMP JUMPDEST PUSH0 SLOAD PUSH1 0x1 PUSH1 0x1 PUSH1 0xA0 SHL SUB AND CALLER EQ PUSH2 0xB2C JUMPI PUSH1 0x40 MLOAD PUSH3 0x461BCD PUSH1 0xE5 SHL DUP2 MSTORE PUSH1 0x4 ADD PUSH2 0x312 SWAP1 PUSH2 0xD62 JUMP JUMPDEST PUSH1 0x1 SLOAD DUP2 LT PUSH2 0xB4D JUMPI PUSH1 0x40 MLOAD PUSH3 0x461BCD PUSH1 0xE5 SHL DUP2 MSTORE PUSH1 0x4 ADD PUSH2 0x312 SWAP1 PUSH2 0xDB6 JUMP JUMPDEST PUSH1 0x1 DUP2 DUP2 SLOAD DUP2 LT PUSH2 0xB60 JUMPI PUSH2 0xB60 PUSH2 0xD4E JUMP JUMPDEST PUSH0 SWAP2 DUP3 MSTORE PUSH1 0x20 DUP3 KECCAK256 ADD SLOAD PUSH1 0x40 DUP1 MLOAD PUSH4 0x8456CB59 PUSH1 0xE0 SHL DUP2 MSTORE SWAP1 MLOAD PUSH1 0x1 PUSH1 0x1 PUSH1 0xA0 SHL SUB SWAP1 SWAP3 AND SWAP3 PUSH4 0x8456CB59 SWAP3 PUSH1 0x4 DUP1 DUP5 ADD SWAP4 DUP3 SWAP1 SUB ADD DUP2 DUP4 DUP8 DUP1 EXTCODESIZE ISZERO DUP1 ISZERO PUSH2 0x664 JUMPI PUSH0 DUP1 REVERT JUMPDEST PUSH0 SLOAD PUSH1 0x1 PUSH1 0x1 PUSH1 0xA0 SHL SUB AND CALLER EQ PUSH2 0xBCF JUMPI PUSH1 0x40 MLOAD PUSH3 0x461BCD PUSH1 0xE5 SHL DUP2 MSTORE PUSH1 0x4 ADD PUSH2 0x312 SWAP1 PUSH2 0xD62 JUMP JUMPDEST PUSH1 0x1 PUSH1 0x1 PUSH1 0xA0 SHL SUB DUP2 AND PUSH2 0xC17 JUMPI PUSH1 0x40 MLOAD PUSH3 0x461BCD PUSH1 0xE5 SHL DUP2 MSTORE PUSH1 0x20 PUSH1 0x4 DUP3 ADD MSTORE PUSH1 0xF PUSH1 0x24 DUP3 ADD MSTORE PUSH15 0x496E76616C69642061646472657373 PUSH1 0x88 SHL PUSH1 0x44 DUP3 ADD MSTORE PUSH1 0x64 ADD PUSH2 0x312 JUMP JUMPDEST PUSH0 SLOAD PUSH1 0x40 DUP1 MLOAD PUSH1 0x1 PUSH1 0x1 PUSH1 0xA0 SHL SUB SWAP3 DUP4 AND DUP2 MSTORE SWAP2 DUP4 AND PUSH1 0x20 DUP4 ADD MSTORE PUSH32 0x8BE0079C531659141344CD1FD0A4F28419497F9722A3DAAFE3B4186F6B6457E0 SWAP2 ADD PUSH1 0x40 MLOAD DUP1 SWAP2 SUB SWAP1 LOG1 PUSH0 DUP1 SLOAD PUSH1 0x1 PUSH1 0x1 PUSH1 0xA0 SHL SUB NOT AND PUSH1 0x1 PUSH1 0x1 PUSH1 0xA0 SHL SUB SWAP3 SWAP1 SWAP3 AND SWAP2 SWAP1 SWAP2 OR SWAP1 SSTORE JUMP JUMPDEST PUSH2 0x47E DUP1 PUSH2 0xE0D DUP4 CODECOPY ADD SWAP1 JUMP JUMPDEST PUSH1 0x20 DUP1 DUP3 MSTORE DUP3 MLOAD DUP3 DUP3 ADD DUP2 SWAP1 MSTORE PUSH0 SWAP2 DUP5 ADD SWAP1 PUSH1 0x40 DUP5 ADD SWAP1 DUP4 JUMPDEST DUP2 DUP2 LT ISZERO PUSH2 0xCCB JUMPI DUP4 MLOAD PUSH1 0x1 PUSH1 0x1 PUSH1 0xA0 SHL SUB AND DUP4 MSTORE PUSH1 0x20 SWAP4 DUP5 ADD SWAP4 SWAP1 SWAP3 ADD SWAP2 PUSH1 0x1 ADD PUSH2 0xCA4 JUMP JUMPDEST POP SWAP1 SWAP6 SWAP5 POP POP POP POP POP JUMP JUMPDEST PUSH0 PUSH1 0x20 DUP3 DUP5 SUB SLT ISZERO PUSH2 0xCE6 JUMPI PUSH0 DUP1 REVERT JUMPDEST POP CALLDATALOAD SWAP2 SWAP1 POP JUMP JUMPDEST PUSH0 DUP1 PUSH1 0x40 DUP4 DUP6 SUB SLT ISZERO PUSH2 0xCFE JUMPI PUSH0 DUP1 REVERT JUMPDEST POP POP DUP1 CALLDATALOAD SWAP3 PUSH1 0x20 SWAP1 SWAP2 ADD CALLDATALOAD SWAP2 POP JUMP JUMPDEST PUSH0 PUSH1 0x20 DUP3 DUP5 SUB SLT ISZERO PUSH2 0xD1D JUMPI PUSH0 DUP1 REVERT JUMPDEST DUP2 CALLDATALOAD PUSH1 0x1 PUSH1 0x1 PUSH1 0xA0 SHL SUB DUP2 AND DUP2 EQ PUSH2 0xD33 JUMPI PUSH0 DUP1 REVERT JUMPDEST SWAP4 SWAP3 POP POP POP JUMP JUMPDEST PUSH4 0x4E487B71 PUSH1 0xE0 SHL PUSH0 MSTORE PUSH1 0x41 PUSH1 0x4 MSTORE PUSH1 0x24 PUSH0 REVERT JUMPDEST PUSH4 0x4E487B71 PUSH1 0xE0 SHL PUSH0 MSTORE PUSH1 0x32 PUSH1 0x4 MSTORE PUSH1 0x24 PUSH0 REVERT JUMPDEST PUSH1 0x20 DUP1 DUP3 MSTORE PUSH1 0xD SWAP1 DUP3 ADD MSTORE PUSH13 0x2737BA103A34329037BBB732B9 PUSH1 0x99 SHL PUSH1 0x40 DUP3 ADD MSTORE PUSH1 0x60 ADD SWAP1 JUMP JUMPDEST PUSH4 0x4E487B71 PUSH1 0xE0 SHL PUSH0 MSTORE PUSH1 0x11 PUSH1 0x4 MSTORE PUSH1 0x24 PUSH0 REVERT JUMPDEST DUP2 DUP2 SUB DUP2 DUP2 GT ISZERO PUSH2 0xDB0 JUMPI PUSH2 0xDB0 PUSH2 0xD89 JUMP JUMPDEST SWAP3 SWAP2 POP POP JUMP JUMPDEST PUSH1 0x20 DUP1 DUP3 MSTORE PUSH1 0xD SWAP1 DUP3 ADD MSTORE PUSH13 0x92DCECC2D8D2C840D2DCC8CAF PUSH1 0x9B SHL PUSH1 0x40 DUP3 ADD MSTORE PUSH1 0x60 ADD SWAP1 JUMP JUMPDEST PUSH0 PUSH1 0x1 DUP3 ADD PUSH2 0xDEE JUMPI PUSH2 0xDEE PUSH2 0xD89 JUMP JUMPDEST POP PUSH1 0x1 ADD SWAP1 JUMP JUMPDEST PUSH0 PUSH1 0x20 DUP3 DUP5 SUB SLT ISZERO PUSH2 0xE05 JUMPI PUSH0 DUP1 REVERT JUMPDEST POP MLOAD SWAP2 SWAP1 POP JUMP INVALID PUSH1 0x80 PUSH1 0x40 MSTORE CALLVALUE DUP1 ISZERO PUSH1 0xE JUMPI PUSH0 DUP1 REVERT JUMPDEST POP PUSH1 0x40 MLOAD PUSH2 0x47E CODESIZE SUB DUP1 PUSH2 0x47E DUP4 CODECOPY DUP2 ADD PUSH1 0x40 DUP2 SWAP1 MSTORE PUSH1 0x2B SWAP2 PUSH1 0x59 JUMP JUMPDEST PUSH0 SWAP2 SWAP1 SWAP2 SSTORE PUSH1 0x1 DUP1 SLOAD PUSH1 0x1 PUSH1 0x1 PUSH1 0xB0 SHL SUB NOT AND PUSH1 0x1 PUSH1 0x1 PUSH1 0xA0 SHL SUB SWAP1 SWAP3 AND SWAP2 SWAP1 SWAP2 OR PUSH1 0x1 PUSH1 0xA8 SHL OR SWAP1 SSTORE PUSH1 0x91 JUMP JUMPDEST PUSH0 DUP1 PUSH1 0x40 DUP4 DUP6 SUB SLT ISZERO PUSH1 0x69 JUMPI PUSH0 DUP1 REVERT JUMPDEST DUP3 MLOAD PUSH1 0x20 DUP5 ADD MLOAD SWAP1 SWAP3 POP PUSH1 0x1 PUSH1 0x1 PUSH1 0xA0 SHL SUB DUP2 AND DUP2 EQ PUSH1 0x86 JUMPI PUSH0 DUP1 REVERT JUMPDEST DUP1 SWAP2 POP POP SWAP3 POP SWAP3 SWAP1 POP JUMP JUMPDEST PUSH2 0x3E0 DUP1 PUSH2 0x9E PUSH0 CODECOPY PUSH0 RETURN INVALID PUSH1 0x80 PUSH1 0x40 MSTORE CALLVALUE DUP1 ISZERO PUSH2 0xF JUMPI PUSH0 DUP1 REVERT JUMPDEST POP PUSH1 0x4 CALLDATASIZE LT PUSH2 0x90 JUMPI PUSH0 CALLDATALOAD PUSH1 0xE0 SHR DUP1 PUSH4 0x5C975ABB GT PUSH2 0x63 JUMPI DUP1 PUSH4 0x5C975ABB EQ PUSH2 0xD7 JUMPI DUP1 PUSH4 0x8456CB59 EQ PUSH2 0xEB JUMPI DUP1 PUSH4 0x8D6CC56D EQ PUSH2 0xF3 JUMPI DUP1 PUSH4 0x8DA5CB5B EQ PUSH2 0x106 JUMPI DUP1 PUSH4 0xA035B1FE EQ PUSH2 0x131 JUMPI PUSH0 DUP1 REVERT JUMPDEST DUP1 PUSH4 0x2FB0C5E EQ PUSH2 0x94 JUMPI DUP1 PUSH4 0x46F7DA2 EQ PUSH2 0xBD JUMPI DUP1 PUSH4 0xF15F4C0 EQ PUSH2 0xC7 JUMPI DUP1 PUSH4 0x51B42B00 EQ PUSH2 0xCF JUMPI JUMPDEST PUSH0 DUP1 REVERT JUMPDEST PUSH1 0x1 SLOAD PUSH2 0xA8 SWAP1 PUSH1 0x1 PUSH1 0xA8 SHL SWAP1 DIV PUSH1 0xFF AND DUP2 JUMP JUMPDEST PUSH1 0x40 MLOAD SWAP1 ISZERO ISZERO DUP2 MSTORE PUSH1 0x20 ADD JUMPDEST PUSH1 0x40 MLOAD DUP1 SWAP2 SUB SWAP1 RETURN JUMPDEST PUSH2 0xC5 PUSH2 0x147 JUMP JUMPDEST STOP JUMPDEST PUSH2 0xC5 PUSH2 0x1BD JUMP JUMPDEST PUSH2 0xC5 PUSH2 0x22A JUMP JUMPDEST PUSH1 0x1 SLOAD PUSH2 0xA8 SWAP1 PUSH1 0x1 PUSH1 0xA0 SHL SWAP1 DIV PUSH1 0xFF AND DUP2 JUMP JUMPDEST PUSH2 0xC5 PUSH2 0x291 JUMP JUMPDEST PUSH2 0xC5 PUSH2 0x101 CALLDATASIZE PUSH1 0x4 PUSH2 0x36C JUMP JUMPDEST PUSH2 0x2FE JUMP JUMPDEST PUSH1 0x1 SLOAD PUSH2 0x119 SWAP1 PUSH1 0x1 PUSH1 0x1 PUSH1 0xA0 SHL SUB AND DUP2 JUMP JUMPDEST PUSH1 0x40 MLOAD PUSH1 0x1 PUSH1 0x1 PUSH1 0xA0 SHL SUB SWAP1 SWAP2 AND DUP2 MSTORE PUSH1 0x20 ADD PUSH2 0xB4 JUMP JUMPDEST PUSH2 0x139 PUSH0 SLOAD DUP2 JUMP JUMPDEST PUSH1 0x40 MLOAD SWAP1 DUP2 MSTORE PUSH1 0x20 ADD PUSH2 0xB4 JUMP JUMPDEST PUSH1 0x1 SLOAD PUSH1 0x1 PUSH1 0x1 PUSH1 0xA0 SHL SUB AND CALLER EQ PUSH2 0x17A JUMPI PUSH1 0x40 MLOAD PUSH3 0x461BCD PUSH1 0xE5 SHL DUP2 MSTORE PUSH1 0x4 ADD PUSH2 0x171 SWAP1 PUSH2 0x383 JUMP JUMPDEST PUSH1 0x40 MLOAD DUP1 SWAP2 SUB SWAP1 REVERT JUMPDEST PUSH1 0x1 DUP1 SLOAD PUSH1 0xFF PUSH1 0xA0 SHL NOT AND SWAP1 SSTORE PUSH1 0x40 MLOAD PUSH0 DUP2 MSTORE PUSH32 0xE2FB031EE032DC02D8011DC50B816EB450CF856ABD8261680DAC74F72165BD2 SWAP1 PUSH1 0x20 ADD JUMPDEST PUSH1 0x40 MLOAD DUP1 SWAP2 SUB SWAP1 LOG1 JUMP JUMPDEST PUSH1 0x1 SLOAD PUSH1 0x1 PUSH1 0x1 PUSH1 0xA0 SHL SUB AND CALLER EQ PUSH2 0x1E7 JUMPI PUSH1 0x40 MLOAD PUSH3 0x461BCD PUSH1 0xE5 SHL DUP2 MSTORE PUSH1 0x4 ADD PUSH2 0x171 SWAP1 PUSH2 0x383 JUMP JUMPDEST PUSH1 0x1 DUP1 SLOAD PUSH1 0xFF PUSH1 0xA8 SHL NOT AND PUSH1 0x1 PUSH1 0xA8 SHL OR DUP2 SSTORE PUSH1 0x40 MLOAD SWAP1 DUP2 MSTORE PUSH32 0xB4FECF10577BD994E5D7140DB766B895CF86620B26DC9B2562BEDE9263E5610B SWAP1 PUSH1 0x20 ADD PUSH2 0x1B3 JUMP JUMPDEST PUSH1 0x1 SLOAD PUSH1 0x1 PUSH1 0x1 PUSH1 0xA0 SHL SUB AND CALLER EQ PUSH2 0x254 JUMPI PUSH1 0x40 MLOAD PUSH3 0x461BCD PUSH1 0xE5 SHL DUP2 MSTORE PUSH1 0x4 ADD PUSH2 0x171 SWAP1 PUSH2 0x383 JUMP JUMPDEST PUSH1 0x1 DUP1 SLOAD PUSH1 0xFF PUSH1 0xA8 SHL NOT AND SWAP1 SSTORE PUSH1 0x40 MLOAD PUSH0 DUP2 MSTORE PUSH32 0xB4FECF10577BD994E5D7140DB766B895CF86620B26DC9B2562BEDE9263E5610B SWAP1 PUSH1 0x20 ADD PUSH2 0x1B3 JUMP JUMPDEST PUSH1 0x1 SLOAD PUSH1 0x1 PUSH1 0x1 PUSH1 0xA0 SHL SUB AND CALLER EQ PUSH2 0x2BB JUMPI PUSH1 0x40 MLOAD PUSH3 0x461BCD PUSH1 0xE5 SHL DUP2 MSTORE PUSH1 0x4 ADD PUSH2 0x171 SWAP1 PUSH2 0x383 JUMP JUMPDEST PUSH1 0x1 DUP1 SLOAD PUSH1 0xFF PUSH1 0xA0 SHL NOT AND PUSH1 0x1 PUSH1 0xA0 SHL OR DUP2 SSTORE PUSH1 0x40 MLOAD SWAP1 DUP2 MSTORE PUSH32 0xE2FB031EE032DC02D8011DC50B816EB450CF856ABD8261680DAC74F72165BD2 SWAP1 PUSH1 0x20 ADD PUSH2 0x1B3 JUMP JUMPDEST PUSH1 0x1 SLOAD PUSH1 0x1 PUSH1 0x1 PUSH1 0xA0 SHL SUB AND CALLER EQ PUSH2 0x328 JUMPI PUSH1 0x40 MLOAD PUSH3 0x461BCD PUSH1 0xE5 SHL DUP2 MSTORE PUSH1 0x4 ADD PUSH2 0x171 SWAP1 PUSH2 0x383 JUMP JUMPDEST PUSH0 DUP1 SLOAD SWAP1 DUP3 SWAP1 SSTORE PUSH1 0x40 DUP1 MLOAD DUP3 DUP2 MSTORE PUSH1 0x20 DUP2 ADD DUP5 SWAP1 MSTORE PUSH32 0x945C1C4E99AA89F648FBFE3DF471B916F719E16D960FCEC0737D4D56BD696838 SWAP2 ADD PUSH1 0x40 MLOAD DUP1 SWAP2 SUB SWAP1 LOG1 POP POP JUMP JUMPDEST PUSH0 PUSH1 0x20 DUP3 DUP5 SUB SLT ISZERO PUSH2 0x37C JUMPI PUSH0 DUP1 REVERT JUMPDEST POP CALLDATALOAD SWAP2 SWAP1 POP JUMP JUMPDEST PUSH1 0x20 DUP1 DUP3 MSTORE PUSH1 0xD SWAP1 DUP3 ADD MSTORE PUSH13 0x2737BA103A34329037BBB732B9 PUSH1 0x99 SHL PUSH1 0x40 DUP3 ADD MSTORE PUSH1 0x60 ADD SWAP1 JUMP INVALID LOG2 PUSH5 0x6970667358 0x22 SLT KECCAK256 JUMPDEST PUSH25 0x8D43A1BF8F7FF2EBE6874CD3BF1A3CE4279C24F460C2CCBC97 CREATE2 BALANCE AND SWAP8 SHR PUSH5 0x736F6C6343 STOP ADDMOD BYTE STOP CALLER LOG2 PUSH5 0x6970667358 0x22 SLT KECCAK256 XOR PUSH11 0x8038A1CC5686F602915D3 0xE4 SSTORE 0xB6 NOT 0xE1 0xDD PUSH12 0x15A2BAD5C79C2B646B7C677E PUSH5 0x736F6C6343 STOP ADDMOD BYTE STOP CALLER "
				},
				"gasEstimates": {
					"creation": {
						"codeDepositCost": "960000",
						"executionCost": "25226",
						"totalCost": "985226"
					},
					"external": {
						"activateService(uint256)": "infinite",
						"addService(uint256)": "infinite",
						"deactivateService(uint256)": "infinite",
						"deployAll(uint256,uint256)": "infinite",
						"get(uint256)": "4638",
						"getActiveServices()": "infinite",
						"getAllServices()": "infinite",
						"isActive(uint256)": "2492",
						"owner()": "2424",
						"pauseService(uint256)": "infinite",
						"resumeService(uint256)": "infinite",
						"services(uint256)": "4633",
						"transferOwnership(address)": "30255",
						"updateServicePrice(uint256,uint256)": "infinite"
					}
				},
				"methodIdentifiers": {
					"activateService(uint256)": "a45bb9ea",
					"addService(uint256)": "304f90bb",
					"deactivateService(uint256)": "ec9c3212",
					"deployAll(uint256,uint256)": "3b8b26a6",
					"get(uint256)": "9507d39a",
					"getActiveServices()": "850d2530",
					"getAllServices()": "21fe0f30",
					"isActive(uint256)": "82afd23b",
					"owner()": "8da5cb5b",
					"pauseService(uint256)": "ed422358",
					"resumeService(uint256)": "6613ff34",
					"services(uint256)": "c22c4f43",
					"transferOwnership(address)": "f2fde38b",
					"updateServicePrice(uint256,uint256)": "9fd80934"
				}
			},
			"storageLayout": {
				"storage": [
					{
						"astId": 146,
						"contract": "fullenchanded.sol:BatchDeploySubscriptions",
						"label": "owner",
						"offset": 0,
						"slot": "0",
						"type": "t_address"
					},
					{
						"astId": 150,
						"contract": "fullenchanded.sol:BatchDeploySubscriptions",
						"label": "services",
						"offset": 0,
						"slot": "1",
						"type": "t_array(t_contract(Subscription)143)dyn_storage"
					},
					{
						"astId": 154,
						"contract": "fullenchanded.sol:BatchDeploySubscriptions",
						"label": "isActive",
						"offset": 0,
						"slot": "2",
						"type": "t_mapping(t_uint256,t_bool)"
					}
				],
				"types": {
					"t_address": {
						"encoding": "inplace",
						"label": "address",
						"numberOfBytes": "20"
					},
					"t_array(t_contract(Subscription)143)dyn_storage": {
						"base": "t_contract(Subscription)143",
						"encoding": "dynamic_array",
						"label": "contract Subscription[]",
						"numberOfBytes": "32"
					},
					"t_bool": {
						"encoding": "inplace",
						"label": "bool",
						"numberOfBytes": "1"
					},
					"t_contract(Subscription)143": {
						"encoding": "inplace",
						"label": "contract Subscription",
						"numberOfBytes": "20"
					},
					"t_mapping(t_uint256,t_bool)": {
						"encoding": "mapping",
						"key": "t_uint256",
						"label": "mapping(uint256 => bool)",
						"numberOfBytes": "32",
						"value": "t_bool"
					},
					"t_uint256": {
						"encoding": "inplace",
						"label": "uint256",
						"numberOfBytes": "32"
					}
				}
			},
			"userdoc": {
				"kind": "user",
				"methods": {
					"activateService(uint256)": {
						"notice": "Activate a specific service"
					},
					"addService(uint256)": {
						"notice": "Add a single service later with a custom price"
					},
					"deactivateService(uint256)": {
						"notice": "Deactivate a specific service"
					},
					"deployAll(uint256,uint256)": {
						"notice": "Deploy multiple services at once"
					},
					"get(uint256)": {
						"notice": "Get service address by index"
					},
					"getActiveServices()": {
						"notice": "Get only active service addresses"
					},
					"getAllServices()": {
						"notice": "Get all deployed services"
					},
					"pauseService(uint256)": {
						"notice": "Pause a specific service"
					},
					"resumeService(uint256)": {
						"notice": "Resume a specific service"
					},
					"transferOwnership(address)": {
						"notice": "Transfer ownership of all services"
					},
					"updateServicePrice(uint256,uint256)": {
						"notice": "Update price for a specific service"
					}
				},
				"version": 1
			}
		}
	}
}