{
	"fullenchanded.sol": {
		"Subscription": {
			"abi": [
				{
					"inputs": [
						{
							"internalType": "uint256",
							"name": "_price",
							"type": "uint256"
						},
						{
							"internalType": "address",
							"name": "_owner",
							"type": "address"
						}
					],
					"stateMutability": "nonpayable",
					"type": "constructor"
				},
				{
					"anonymous": false,
					"inputs": [
						{
							"indexed": false,
							"internalType": "bool",
							"name": "status",
							"type": "bool"
						}
					],
					"name": "Activated",
					"type": "event"
				},
				{
					"anonymous": false,
					"inputs": [
						{
							"indexed": false,
							"internalType": "bool",
							"name": "status",
							"type": "bool"
						}
					],
					"name": "Paused",
					"type": "event"
				},
				{
					"anonymous": false,
					"inputs": [
						{
							"indexed": false,
							"internalType": "uint256",
							"name": "oldPrice",
							"type": "uint256"
						},
						{
							"indexed": false,
							"internalType": "uint256",
							"name": "newPrice",
							"type": "uint256"
						}
					],
					"name": "PriceUpdated",
					"type": "event"
				},
				{
					"inputs": [],
					"name": "activate",
					"outputs": [],
					"stateMutability": "nonpayable",
					"type": "function"
				},
				{
					"inputs": [],
					"name": "active",
					"outputs": [
						{
							"internalType": "bool",
							"name": "",
							"type": "bool"
						}
					],
					"stateMutability": "view",
					"type": "function"
				},
				{
					"inputs": [],
					"name": "deactivate",
					"outputs": [],
					"stateMutability": "nonpayable",
					"type": "function"
				},
				{
					"inputs": [],
					"name": "owner",
					"outputs": [
						{
							"internalType": "address",
							"name": "",
							"type": "address"
						}
					],
					"stateMutability": "view",
					"type": "function"
				},
				{
					"inputs": [],
					"name": "pause",
					"outputs": [],
					"stateMutability": "nonpayable",
					"type": "function"
				},
				{
					"inputs": [],
					"name": "paused",
					"outputs": [
						{
							"internalType": "bool",
							"name": "",
							"type": "bool"
						}
					],
					"stateMutability": "view",
					"type": "function"
				},
				{
					"inputs": [],
					"name": "price",
					"outputs": [
						{
							"internalType": "uint256",
							"name": "",
							"type": "uint256"
						}
					],
					"stateMutability": "view",
					"type": "function"
				},
				{
					"inputs": [],
					"name": "resume",
					"outputs": [],
					"stateMutability": "nonpayable",
					"type": "function"
				},
				{
					"inputs": [
						{
							"internalType": "uint256",
							"name": "_newPrice",
							"type": "uint256"
						}
					],
					"name": "updatePrice",
					"outputs": [],
					"stateMutability": "nonpayable",
					"type": "function"
				}
			],
			"devdoc": {
				"kind": "dev",
				"methods": {},
				"title": "Subscription contract for a single service",
				"version": 1
			},
			"evm": {
				"assembly": "    /* \"fullenchanded.sol\":116:1462  contract Subscription {... */\n  mstore(0x40, 0x80)\n    /* \"fullenchanded.sol\":372:520  constructor(uint _price, address _owner) {... */\n  callvalue\n  dup1\n  iszero\n  tag_1\n  jumpi\n  0x00\n  dup1\n  revert\ntag_1:\n  pop\n  mload(0x40)\n  sub(codesize, bytecodeSize)\n  dup1\n  bytecodeSize\n  dup4\n  codecopy\n  dup2\n  add\n  0x40\n  dup2\n  swap1\n  mstore\n  tag_2\n  swap2\n  tag_3\n  jump\t// in\ntag_2:\n    /* \"fullenchanded.sol\":424:429  price */\n  0x00\n    /* \"fullenchanded.sol\":424:438  price = _price */\n  swap2\n  swap1\n  swap2\n  sstore\n    /* \"fullenchanded.sol\":449:454  owner */\n  0x01\n    /* \"fullenchanded.sol\":449:463  owner = _owner */\n  dup1\n  sload\n  not(sub(shl(0xb0, 0x01), 0x01))\n    /* \"fullenchanded.sol\":499:512  active = true */\n  and\n  sub(shl(0xa0, 0x01), 0x01)\n    /* \"fullenchanded.sol\":449:463  owner = _owner */\n  swap1\n  swap3\n  and\n    /* \"fullenchanded.sol\":499:512  active = true */\n  swap2\n  swap1\n  swap2\n  or\n  shl(0xa8, 0x01)\n  or\n  swap1\n  sstore\n    /* \"fullenchanded.sol\":116:1462  contract Subscription {... */\n  jump(tag_7)\n    /* \"#utility.yul\":14:365   */\ntag_3:\n    /* \"#utility.yul\":93:99   */\n  0x00\n    /* \"#utility.yul\":101:107   */\n  dup1\n    /* \"#utility.yul\":154:156   */\n  0x40\n    /* \"#utility.yul\":142:151   */\n  dup4\n    /* \"#utility.yul\":133:140   */\n  dup6\n    /* \"#utility.yul\":129:152   */\n  sub\n    /* \"#utility.yul\":125:157   */\n  slt\n    /* \"#utility.yul\":122:174   */\n  iszero\n  tag_9\n  jumpi\n    /* \"#utility.yul\":170:171   */\n  0x00\n    /* \"#utility.yul\":167:168   */\n  dup1\n    /* \"#utility.yul\":160:172   */\n  revert\n    /* \"#utility.yul\":122:174   */\ntag_9:\n    /* \"#utility.yul\":193:209   */\n  dup3\n  mload\n    /* \"#utility.yul\":252:254   */\n  0x20\n    /* \"#utility.yul\":237:255   */\n  dup5\n  add\n    /* \"#utility.yul\":231:256   */\n  mload\n    /* \"#utility.yul\":193:209   */\n  swap1\n  swap3\n  pop\n  sub(shl(0xa0, 0x01), 0x01)\n    /* \"#utility.yul\":285:316   */\n  dup2\n  and\n    /* \"#utility.yul\":275:317   */\n  dup2\n  eq\n    /* \"#utility.yul\":265:335   */\n  tag_10\n  jumpi\n    /* \"#utility.yul\":331:332   */\n  0x00\n    /* \"#utility.yul\":328:329   */\n  dup1\n    /* \"#utility.yul\":321:333   */\n  revert\n    /* \"#utility.yul\":265:335   */\ntag_10:\n    /* \"#utility.yul\":354:359   */\n  dup1\n    /* \"#utility.yul\":344:359   */\n  swap2\n  pop\n  pop\n    /* \"#utility.yul\":14:365   */\n  swap3\n  pop\n  swap3\n  swap1\n  pop\n  jump\t// out\ntag_7:\n    /* \"fullenchanded.sol\":116:1462  contract Subscription {... */\n  dataSize(sub_0)\n  dup1\n  dataOffset(sub_0)\n  0x00\n  codecopy\n  0x00\n  return\nstop\n\nsub_0: assembly {\n        /* \"fullenchanded.sol\":116:1462  contract Subscription {... */\n      mstore(0x40, 0x80)\n      callvalue\n      dup1\n      iszero\n      tag_1\n      jumpi\n      0x00\n      dup1\n      revert\n    tag_1:\n      pop\n      jumpi(tag_2, lt(calldatasize, 0x04))\n      shr(0xe0, calldataload(0x00))\n      dup1\n      0x5c975abb\n      gt\n      tag_12\n      jumpi\n      dup1\n      0x5c975abb\n      eq\n      tag_7\n      jumpi\n      dup1\n      0x8456cb59\n      eq\n      tag_8\n      jumpi\n      dup1\n      0x8d6cc56d\n      eq\n      tag_9\n      jumpi\n      dup1\n      0x8da5cb5b\n      eq\n      tag_10\n      jumpi\n      dup1\n      0xa035b1fe\n      eq\n      tag_11\n      jumpi\n      0x00\n      dup1\n      revert\n    tag_12:\n      dup1\n      0x02fb0c5e\n      eq\n      tag_3\n      jumpi\n      dup1\n      0x046f7da2\n      eq\n      tag_4\n      jumpi\n      dup1\n      0x0f15f4c0\n      eq\n      tag_5\n      jumpi\n      dup1\n      0x51b42b00\n      eq\n      tag_6\n      jumpi\n    tag_2:\n      0x00\n      dup1\n      revert\n        /* \"fullenchanded.sol\":221:239  bool public active */\n    tag_3:\n      sload(0x01)\n      tag_13\n      swap1\n      shl(0xa8, 0x01)\n      swap1\n      div\n      0xff\n      and\n      dup2\n      jump\n    tag_13:\n      mload(0x40)\n        /* \"#utility.yul\":179:193   */\n      swap1\n      iszero\n        /* \"#utility.yul\":172:194   */\n      iszero\n        /* \"#utility.yul\":154:195   */\n      dup2\n      mstore\n        /* \"#utility.yul\":142:144   */\n      0x20\n        /* \"#utility.yul\":127:145   */\n      add\n        /* \"fullenchanded.sol\":221:239  bool public active */\n    tag_15:\n      mload(0x40)\n      dup1\n      swap2\n      sub\n      swap1\n      return\n        /* \"fullenchanded.sol\":1046:1145  function resume() external onlyOwner {... */\n    tag_4:\n      tag_17\n      tag_18\n      jump\t// in\n    tag_17:\n      stop\n        /* \"fullenchanded.sol\":1357:1459  function activate() external onlyOwner {... */\n    tag_5:\n      tag_17\n      tag_20\n      jump\t// in\n        /* \"fullenchanded.sol\":1198:1304  function deactivate() external onlyOwner {... */\n    tag_6:\n      tag_17\n      tag_22\n      jump\t// in\n        /* \"fullenchanded.sol\":196:214  bool public paused */\n    tag_7:\n      sload(0x01)\n      tag_13\n      swap1\n      shl(0xa0, 0x01)\n      swap1\n      div\n      0xff\n      and\n      dup2\n      jump\n        /* \"fullenchanded.sol\":901:997  function pause() external onlyOwner {... */\n    tag_8:\n      tag_17\n      tag_27\n      jump\t// in\n        /* \"fullenchanded.sol\":680:853  function updatePrice(uint _newPrice) external onlyOwner {... */\n    tag_9:\n      tag_17\n      tag_29\n      calldatasize\n      0x04\n      tag_30\n      jump\t// in\n    tag_29:\n      tag_31\n      jump\t// in\n        /* \"fullenchanded.sol\":169:189  address public owner */\n    tag_10:\n      sload(0x01)\n      tag_32\n      swap1\n      sub(shl(0xa0, 0x01), 0x01)\n      and\n      dup2\n      jump\n    tag_32:\n      mload(0x40)\n      sub(shl(0xa0, 0x01), 0x01)\n        /* \"#utility.yul\":555:587   */\n      swap1\n      swap2\n      and\n        /* \"#utility.yul\":537:588   */\n      dup2\n      mstore\n        /* \"#utility.yul\":525:527   */\n      0x20\n        /* \"#utility.yul\":510:528   */\n      add\n        /* \"fullenchanded.sol\":169:189  address public owner */\n      tag_15\n        /* \"#utility.yul\":391:594   */\n      jump\n        /* \"fullenchanded.sol\":145:162  uint public price */\n    tag_11:\n      tag_36\n      sload(0x00)\n      dup2\n      jump\n    tag_36:\n      mload(0x40)\n        /* \"#utility.yul\":745:770   */\n      swap1\n      dup2\n      mstore\n        /* \"#utility.yul\":733:735   */\n      0x20\n        /* \"#utility.yul\":718:736   */\n      add\n        /* \"fullenchanded.sol\":145:162  uint public price */\n      tag_15\n        /* \"#utility.yul\":599:776   */\n      jump\n        /* \"fullenchanded.sol\":1046:1145  function resume() external onlyOwner {... */\n    tag_18:\n        /* \"fullenchanded.sol\":582:587  owner */\n      and(sub(shl(0xa0, 0x01), 0x01), sload(0x01))\n        /* \"fullenchanded.sol\":568:578  msg.sender */\n      caller\n        /* \"fullenchanded.sol\":568:587  msg.sender == owner */\n      eq\n        /* \"fullenchanded.sol\":560:605  require(msg.sender == owner, \"Not the owner\") */\n      tag_41\n      jumpi\n      mload(0x40)\n      shl(0xe5, 0x461bcd)\n      dup2\n      mstore\n      0x04\n      add\n      tag_42\n      swap1\n      tag_43\n      jump\t// in\n    tag_42:\n      mload(0x40)\n      dup1\n      swap2\n      sub\n      swap1\n      revert\n    tag_41:\n        /* \"fullenchanded.sol\":1094:1100  paused */\n      0x01\n        /* \"fullenchanded.sol\":1094:1108  paused = false */\n      dup1\n      sload\n      not(shl(0xa0, 0xff))\n      and\n      swap1\n      sstore\n        /* \"fullenchanded.sol\":1124:1137  Paused(false) */\n      mload(0x40)\n      0x00\n        /* \"#utility.yul\":154:195   */\n      dup2\n      mstore\n        /* \"fullenchanded.sol\":1124:1137  Paused(false) */\n      0x0e2fb031ee032dc02d8011dc50b816eb450cf856abd8261680dac74f72165bd2\n      swap1\n        /* \"#utility.yul\":142:144   */\n      0x20\n        /* \"#utility.yul\":127:145   */\n      add\n        /* \"fullenchanded.sol\":1124:1137  Paused(false) */\n    tag_45:\n      mload(0x40)\n      dup1\n      swap2\n      sub\n      swap1\n      log1\n        /* \"fullenchanded.sol\":1046:1145  function resume() external onlyOwner {... */\n      jump\t// out\n        /* \"fullenchanded.sol\":1357:1459  function activate() external onlyOwner {... */\n    tag_20:\n        /* \"fullenchanded.sol\":582:587  owner */\n      and(sub(shl(0xa0, 0x01), 0x01), sload(0x01))\n        /* \"fullenchanded.sol\":568:578  msg.sender */\n      caller\n        /* \"fullenchanded.sol\":568:587  msg.sender == owner */\n      eq\n        /* \"fullenchanded.sol\":560:605  require(msg.sender == owner, \"Not the owner\") */\n      tag_47\n      jumpi\n      mload(0x40)\n      shl(0xe5, 0x461bcd)\n      dup2\n      mstore\n      0x04\n      add\n      tag_42\n      swap1\n      tag_43\n      jump\t// in\n    tag_47:\n        /* \"fullenchanded.sol\":1416:1420  true */\n      0x01\n        /* \"fullenchanded.sol\":1407:1420  active = true */\n      dup1\n      sload\n      not(shl(0xa8, 0xff))\n      and\n      shl(0xa8, 0x01)\n      or\n      dup2\n      sstore\n        /* \"fullenchanded.sol\":1436:1451  Activated(true) */\n      mload(0x40)\n        /* \"#utility.yul\":154:195   */\n      swap1\n      dup2\n      mstore\n        /* \"fullenchanded.sol\":1436:1451  Activated(true) */\n      0xb4fecf10577bd994e5d7140db766b895cf86620b26dc9b2562bede9263e5610b\n      swap1\n        /* \"#utility.yul\":142:144   */\n      0x20\n        /* \"#utility.yul\":127:145   */\n      add\n        /* \"fullenchanded.sol\":1436:1451  Activated(true) */\n      tag_45\n        /* \"#utility.yul\":14:201   */\n      jump\n        /* \"fullenchanded.sol\":1198:1304  function deactivate() external onlyOwner {... */\n    tag_22:\n        /* \"fullenchanded.sol\":582:587  owner */\n      and(sub(shl(0xa0, 0x01), 0x01), sload(0x01))\n        /* \"fullenchanded.sol\":568:578  msg.sender */\n      caller\n        /* \"fullenchanded.sol\":568:587  msg.sender == owner */\n      eq\n        /* \"fullenchanded.sol\":560:605  require(msg.sender == owner, \"Not the owner\") */\n      tag_52\n      jumpi\n      mload(0x40)\n      shl(0xe5, 0x461bcd)\n      dup2\n      mstore\n      0x04\n      add\n      tag_42\n      swap1\n      tag_43\n      jump\t// in\n    tag_52:\n        /* \"fullenchanded.sol\":1250:1256  active */\n      0x01\n        /* \"fullenchanded.sol\":1250:1264  active = false */\n      dup1\n      sload\n      not(shl(0xa8, 0xff))\n      and\n      swap1\n      sstore\n        /* \"fullenchanded.sol\":1280:1296  Activated(false) */\n      mload(0x40)\n      0x00\n        /* \"#utility.yul\":154:195   */\n      dup2\n      mstore\n        /* \"fullenchanded.sol\":1280:1296  Activated(false) */\n      0xb4fecf10577bd994e5d7140db766b895cf86620b26dc9b2562bede9263e5610b\n      swap1\n        /* \"#utility.yul\":142:144   */\n      0x20\n        /* \"#utility.yul\":127:145   */\n      add\n        /* \"fullenchanded.sol\":1280:1296  Activated(false) */\n      tag_45\n        /* \"#utility.yul\":14:201   */\n      jump\n        /* \"fullenchanded.sol\":901:997  function pause() external onlyOwner {... */\n    tag_27:\n        /* \"fullenchanded.sol\":582:587  owner */\n      and(sub(shl(0xa0, 0x01), 0x01), sload(0x01))\n        /* \"fullenchanded.sol\":568:578  msg.sender */\n      caller\n        /* \"fullenchanded.sol\":568:587  msg.sender == owner */\n      eq\n        /* \"fullenchanded.sol\":560:605  require(msg.sender == owner, \"Not the owner\") */\n      tag_57\n      jumpi\n      mload(0x40)\n      shl(0xe5, 0x461bcd)\n      dup2\n      mstore\n      0x04\n      add\n      tag_42\n      swap1\n      tag_43\n      jump\t// in\n    tag_57:\n        /* \"fullenchanded.sol\":957:961  true */\n      0x01\n        /* \"fullenchanded.sol\":948:961  paused = true */\n      dup1\n      sload\n      not(shl(0xa0, 0xff))\n      and\n      shl(0xa0, 0x01)\n      or\n      dup2\n      sstore\n        /* \"fullenchanded.sol\":977:989  Paused(true) */\n      mload(0x40)\n        /* \"#utility.yul\":154:195   */\n      swap1\n      dup2\n      mstore\n        /* \"fullenchanded.sol\":977:989  Paused(true) */\n      0x0e2fb031ee032dc02d8011dc50b816eb450cf856abd8261680dac74f72165bd2\n      swap1\n        /* \"#utility.yul\":142:144   */\n      0x20\n        /* \"#utility.yul\":127:145   */\n      add\n        /* \"fullenchanded.sol\":977:989  Paused(true) */\n      tag_45\n        /* \"#utility.yul\":14:201   */\n      jump\n        /* \"fullenchanded.sol\":680:853  function updatePrice(uint _newPrice) external onlyOwner {... */\n    tag_31:\n        /* \"fullenchanded.sol\":582:587  owner */\n      and(sub(shl(0xa0, 0x01), 0x01), sload(0x01))\n        /* \"fullenchanded.sol\":568:578  msg.sender */\n      caller\n        /* \"fullenchanded.sol\":568:587  msg.sender == owner */\n      eq\n        /* \"fullenchanded.sol\":560:605  require(msg.sender == owner, \"Not the owner\") */\n      tag_62\n      jumpi\n      mload(0x40)\n      shl(0xe5, 0x461bcd)\n      dup2\n      mstore\n      0x04\n      add\n      tag_42\n      swap1\n      tag_43\n      jump\t// in\n    tag_62:\n        /* \"fullenchanded.sol\":747:760  uint oldPrice */\n      0x00\n        /* \"fullenchanded.sol\":763:768  price */\n      dup1\n      sload\n        /* \"fullenchanded.sol\":779:796  price = _newPrice */\n      swap1\n      dup3\n      swap1\n      sstore\n        /* \"fullenchanded.sol\":812:845  PriceUpdated(oldPrice, _newPrice) */\n      0x40\n      dup1\n      mload\n        /* \"#utility.yul\":1297:1322   */\n      dup3\n      dup2\n      mstore\n        /* \"#utility.yul\":1353:1355   */\n      0x20\n        /* \"#utility.yul\":1338:1356   */\n      dup2\n      add\n        /* \"#utility.yul\":1331:1365   */\n      dup5\n      swap1\n      mstore\n        /* \"fullenchanded.sol\":812:845  PriceUpdated(oldPrice, _newPrice) */\n      0x945c1c4e99aa89f648fbfe3df471b916f719e16d960fcec0737d4d56bd696838\n      swap2\n        /* \"#utility.yul\":1270:1288   */\n      add\n        /* \"fullenchanded.sol\":812:845  PriceUpdated(oldPrice, _newPrice) */\n      mload(0x40)\n      dup1\n      swap2\n      sub\n      swap1\n      log1\n        /* \"fullenchanded.sol\":736:853  {... */\n      pop\n        /* \"fullenchanded.sol\":680:853  function updatePrice(uint _newPrice) external onlyOwner {... */\n      pop\n      jump\t// out\n        /* \"#utility.yul\":206:386   */\n    tag_30:\n        /* \"#utility.yul\":265:271   */\n      0x00\n        /* \"#utility.yul\":318:320   */\n      0x20\n        /* \"#utility.yul\":306:315   */\n      dup3\n        /* \"#utility.yul\":297:304   */\n      dup5\n        /* \"#utility.yul\":293:316   */\n      sub\n        /* \"#utility.yul\":289:321   */\n      slt\n        /* \"#utility.yul\":286:338   */\n      iszero\n      tag_70\n      jumpi\n        /* \"#utility.yul\":334:335   */\n      0x00\n        /* \"#utility.yul\":331:332   */\n      dup1\n        /* \"#utility.yul\":324:336   */\n      revert\n        /* \"#utility.yul\":286:338   */\n    tag_70:\n      pop\n        /* \"#utility.yul\":357:380   */\n      calldataload\n      swap2\n        /* \"#utility.yul\":206:386   */\n      swap1\n      pop\n      jump\t// out\n        /* \"#utility.yul\":781:1118   */\n    tag_43:\n        /* \"#utility.yul\":983:985   */\n      0x20\n        /* \"#utility.yul\":965:986   */\n      dup1\n      dup3\n      mstore\n        /* \"#utility.yul\":1022:1024   */\n      0x0d\n        /* \"#utility.yul\":1002:1020   */\n      swap1\n      dup3\n      add\n        /* \"#utility.yul\":995:1025   */\n      mstore\n      shl(0x99, 0x2737ba103a34329037bbb732b9)\n        /* \"#utility.yul\":1056:1058   */\n      0x40\n        /* \"#utility.yul\":1041:1059   */\n      dup3\n      add\n        /* \"#utility.yul\":1034:1077   */\n      mstore\n        /* \"#utility.yul\":1109:1111   */\n      0x60\n        /* \"#utility.yul\":1094:1112   */\n      add\n      swap1\n        /* \"#utility.yul\":781:1118   */\n      jump\t// out\n\n    auxdata: 0xa26469706673582212205b788d43a1bf8f7ff2ebe6874cd3bf1a3ce4279c24f460c2ccbc97f53116971c64736f6c634300081a0033\n}\n",
				"bytecode": {
					"linkReferences": {},
					"object": "6080604052348015600e575f80fd5b5060405161047e38038061047e833981016040819052602b916059565b5f91909155600180546001600160b01b0319166001600160a01b0390921691909117600160a81b1790556091565b5f80604083850312156069575f80fd5b825160208401519092506001600160a01b03811681146086575f80fd5b809150509250929050565b6103e08061009e5f395ff3fe608060405234801561000f575f80fd5b5060043610610090575f3560e01c80635c975abb116100635780635c975abb146100d75780638456cb59146100eb5780638d6cc56d146100f35780638da5cb5b14610106578063a035b1fe14610131575f80fd5b806302fb0c5e14610094578063046f7da2146100bd5780630f15f4c0146100c757806351b42b00146100cf575b5f80fd5b6001546100a890600160a81b900460ff1681565b60405190151581526020015b60405180910390f35b6100c5610147565b005b6100c56101bd565b6100c561022a565b6001546100a890600160a01b900460ff1681565b6100c5610291565b6100c561010136600461036c565b6102fe565b600154610119906001600160a01b031681565b6040516001600160a01b0390911681526020016100b4565b6101395f5481565b6040519081526020016100b4565b6001546001600160a01b0316331461017a5760405162461bcd60e51b815260040161017190610383565b60405180910390fd5b6001805460ff60a01b191690556040515f81527f0e2fb031ee032dc02d8011dc50b816eb450cf856abd8261680dac74f72165bd2906020015b60405180910390a1565b6001546001600160a01b031633146101e75760405162461bcd60e51b815260040161017190610383565b6001805460ff60a81b1916600160a81b1781556040519081527fb4fecf10577bd994e5d7140db766b895cf86620b26dc9b2562bede9263e5610b906020016101b3565b6001546001600160a01b031633146102545760405162461bcd60e51b815260040161017190610383565b6001805460ff60a81b191690556040515f81527fb4fecf10577bd994e5d7140db766b895cf86620b26dc9b2562bede9263e5610b906020016101b3565b6001546001600160a01b031633146102bb5760405162461bcd60e51b815260040161017190610383565b6001805460ff60a01b1916600160a01b1781556040519081527f0e2fb031ee032dc02d8011dc50b816eb450cf856abd8261680dac74f72165bd2906020016101b3565b6001546001600160a01b031633146103285760405162461bcd60e51b815260040161017190610383565b5f80549082905560408051828152602081018490527f945c1c4e99aa89f648fbfe3df471b916f719e16d960fcec0737d4d56bd696838910160405180910390a15050565b5f6020828403121561037c575f80fd5b5035919050565b6020808252600d908201526c2737ba103a34329037bbb732b960991b60408201526060019056fea26469706673582212205b788d43a1bf8f7ff2ebe6874cd3bf1a3ce4279c24f460c2ccbc97f53116971c64736f6c634300081a0033",
					"opcodes": "PUSH1 0x80 PUSH1 0x40 MSTORE CALLVALUE DUP1 ISZERO PUSH1 0xE JUMPI PUSH0 DUP1 REVERT JUMPDEST POP PUSH1 0x40 MLOAD PUSH2 0x47E CODESIZE SUB DUP1 PUSH2 0x47E DUP4 CODECOPY DUP2 ADD PUSH1 0x40 DUP2 SWAP1 MSTORE PUSH1 0x2B SWAP2 PUSH1 0x59 JUMP JUMPDEST PUSH0 SWAP2 SWAP1 SWAP2 SSTORE PUSH1 0x1 DUP1 SLOAD PUSH1 0x1 PUSH1 0x1 PUSH1 0xB0 SHL SUB NOT AND PUSH1 0x1 PUSH1 0x1 PUSH1 0xA0 SHL SUB SWAP1 SWAP3 AND SWAP2 SWAP1 SWAP2 OR PUSH1 0x1 PUSH1 0xA8 SHL OR SWAP1 SSTORE PUSH1 0x91 JUMP JUMPDEST PUSH0 DUP1 PUSH1 0x40 DUP4 DUP6 SUB SLT ISZERO PUSH1 0x69 JUMPI PUSH0 DUP1 REVERT JUMPDEST DUP3 MLOAD PUSH1 0x20 DUP5 ADD MLOAD SWAP1 SWAP3 POP PUSH1 0x1 PUSH1 0x1 PUSH1 0xA0 SHL SUB DUP2 AND DUP2 EQ PUSH1 0x86 JUMPI PUSH0 DUP1 REVERT JUMPDEST DUP1 SWAP2 POP POP SWAP3 POP SWAP3 SWAP1 POP JUMP JUMPDEST PUSH2 0x3E0 DUP1 PUSH2 0x9E PUSH0 CODECOPY PUSH0 RETURN INVALID PUSH1 0x80 PUSH1 0x40 MSTORE CALLVALUE DUP1 ISZERO PUSH2 0xF JUMPI PUSH0 DUP1 REVERT JUMPDEST POP PUSH1 0x4 CALLDATASIZE LT PUSH2 0x90 JUMPI PUSH0 CALLDATALOAD PUSH1 0xE0 SHR DUP1 PUSH4 0x5C975ABB GT PUSH2 0x63 JUMPI DUP1 PUSH4 0x5C975ABB EQ PUSH2 0xD7 JUMPI DUP1 PUSH4 0x8456CB59 EQ PUSH2 0xEB JUMPI DUP1 PUSH4 0x8D6CC56D EQ PUSH2 0xF3 JUMPI DUP1 PUSH4 0x8DA5CB5B EQ PUSH2 0x106 JUMPI DUP1 PUSH4 0xA035B1FE EQ PUSH2 0x131 JUMPI PUSH0 DUP1 REVERT JUMPDEST DUP1 PUSH4 0x2FB0C5E EQ PUSH2 0x94 JUMPI DUP1 PUSH4 0x46F7DA2 EQ PUSH2 0xBD JUMPI DUP1 PUSH4 0xF15F4C0 EQ PUSH2 0xC7 JUMPI DUP1 PUSH4 0x51B42B00 EQ PUSH2 0xCF JUMPI JUMPDEST PUSH0 DUP1 REVERT JUMPDEST PUSH1 0x1 SLOAD PUSH2 0xA8 SWAP1 PUSH1 0x1 PUSH1 0xA8 SHL SWAP1 DIV PUSH1 0xFF AND DUP2 JUMP JUMPDEST PUSH1 0x40 MLOAD SWAP1 ISZERO ISZERO DUP2 MSTORE PUSH1 0x20 ADD JUMPDEST PUSH1 0x40 MLOAD DUP1 SWAP2 SUB SWAP1 RETURN JUMPDEST PUSH2 0xC5 PUSH2 0x147 JUMP JUMPDEST STOP JUMPDEST PUSH2 0xC5 PUSH2 0x1BD JUMP JUMPDEST PUSH2 0xC5 PUSH2 0x22A JUMP JUMPDEST PUSH1 0x1 SLOAD PUSH2 0xA8 SWAP1 PUSH1 0x1 PUSH1 0xA0 SHL SWAP1 DIV PUSH1 0xFF AND DUP2 JUMP JUMPDEST PUSH2 0xC5 PUSH2 0x291 JUMP JUMPDEST PUSH2 0xC5 PUSH2 0x101 CALLDATASIZE PUSH1 0x4 PUSH2 0x36C JUMP JUMPDEST PUSH2 0x2FE JUMP JUMPDEST PUSH1 0x1 SLOAD PUSH2 0x119 SWAP1 PUSH1 0x1 PUSH1 0x1 PUSH1 0xA0 SHL SUB AND DUP2 JUMP JUMPDEST PUSH1 0x40 MLOAD PUSH1 0x1 PUSH1 0x1 PUSH1 0xA0 SHL SUB SWAP1 SWAP2 AND DUP2 MSTORE PUSH1 0x20 ADD PUSH2 0xB4 JUMP JUMPDEST PUSH2 0x139 PUSH0 SLOAD DUP2 JUMP JUMPDEST PUSH1 0x40 MLOAD SWAP1 DUP2 MSTORE PUSH1 0x20 ADD PUSH2 0xB4 JUMP JUMPDEST PUSH1 0x1 SLOAD PUSH1 0x1 PUSH1 0x1 PUSH1 0xA0 SHL SUB AND CALLER EQ PUSH2 0x17A JUMPI PUSH1 0x40 MLOAD PUSH3 0x461BCD PUSH1 0xE5 SHL DUP2 MSTORE PUSH1 0x4 ADD PUSH2 0x171 SWAP1 PUSH2 0x383 JUMP JUMPDEST PUSH1 0x40 MLOAD DUP1 SWAP2 SUB SWAP1 REVERT JUMPDEST PUSH1 0x1 DUP1 SLOAD PUSH1 0xFF PUSH1 0xA0 SHL NOT AND SWAP1 SSTORE PUSH1 0x40 MLOAD PUSH0 DUP2 MSTORE PUSH32 0xE2FB031EE032DC02D8011DC50B816EB450CF856ABD8261680DAC74F72165BD2 SWAP1 PUSH1 0x20 ADD JUMPDEST PUSH1 0x40 MLOAD DUP1 SWAP2 SUB SWAP1 LOG1 JUMP JUMPDEST PUSH1 0x1 SLOAD PUSH1 0x1 PUSH1 0x1 PUSH1 0xA0 SHL SUB AND CALLER EQ PUSH2 0x1E7 JUMPI PUSH1 0x40 MLOAD PUSH3 0x461BCD PUSH1 0xE5 SHL DUP2 MSTORE PUSH1 0x4 ADD PUSH2 0x171 SWAP1 PUSH2 0x383 JUMP JUMPDEST PUSH1 0x1 DUP1 SLOAD PUSH1 0xFF PUSH1 0xA8 SHL NOT AND PUSH1 0x1 PUSH1 0xA8 SHL OR DUP2 SSTORE PUSH1 0x40 MLOAD SWAP1 DUP2 MSTORE PUSH32 0xB4FECF10577BD994E5D7140DB766B895CF86620B26DC9B2562BEDE9263E5610B SWAP1 PUSH1 0x20 ADD PUSH2 0x1B3 JUMP JUMPDEST PUSH1 0x1 SLOAD PUSH1 0x1 PUSH1 0x1 PUSH1 0xA0 SHL SUB AND CALLER EQ PUSH2 0x254 JUMPI PUSH1 0x40 MLOAD PUSH3 0x461BCD PUSH1 0xE5 SHL DUP2 MSTORE PUSH1 0x4 ADD PUSH2 0x171 SWAP1 PUSH2 0x383 JUMP JUMPDEST PUSH1 0x1 DUP1 SLOAD PUSH1 0xFF PUSH1 0xA8 SHL NOT AND SWAP1 SSTORE PUSH1 0x40 MLOAD PUSH0 DUP2 MSTORE PUSH32 0xB4FECF10577BD994E5D7140DB766B895CF86620B26DC9B2562BEDE9263E5610B SWAP1 PUSH1 0x20 ADD PUSH2 0x1B3 JUMP JUMPDEST PUSH1 0x1 SLOAD PUSH1 0x1 PUSH1 0x1 PUSH1 0xA0 SHL SUB AND CALLER EQ PUSH2 0x2BB JUMPI PUSH1 0x40 MLOAD PUSH3 0x461BCD PUSH1 0xE5 SHL DUP2 MSTORE PUSH1 0x4 ADD PUSH2 0x171 SWAP1 PUSH2 0x383 JUMP JUMPDEST PUSH1 0x1 DUP1 SLOAD PUSH1 0xFF PUSH1 0xA0 SHL NOT AND PUSH1 0x1 PUSH1 0xA0 SHL OR DUP2 SSTORE PUSH1 0x40 MLOAD SWAP1 DUP2 MSTORE PUSH32 0xE2FB031EE032DC02D8011DC50B816EB450CF856ABD8261680DAC74F72165BD2 SWAP1 PUSH1 0x20 ADD PUSH2 0x1B3 JUMP JUMPDEST PUSH1 0x1 SLOAD PUSH1 0x1 PUSH1 0x1 PUSH1 0xA0 SHL SUB AND CALLER EQ PUSH2 0x328 JUMPI PUSH1 0x40 MLOAD PUSH3 0x461BCD PUSH1 0xE5 SHL DUP2 MSTORE PUSH1 0x4 ADD PUSH2 0x171 SWAP1 PUSH2 0x383 JUMP JUMPDEST PUSH0 DUP1 SLOAD SWAP1 DUP3 SWAP1 SSTORE PUSH1 0x40 DUP1 MLOAD DUP3 DUP2 MSTORE PUSH1 0x20 DUP2 ADD DUP5 SWAP1 MSTORE PUSH32 0x945C1C4E99AA89F648FBFE3DF471B916F719E16D960FCEC0737D4D56BD696838 SWAP2 ADD PUSH1 0x40 MLOAD DUP1 SWAP2 SUB SWAP1 LOG1 POP POP JUMP JUMPDEST PUSH0 PUSH1 0x20 DUP3 DUP5 SUB SLT ISZERO PUSH2 0x37C JUMPI PUSH0 DUP1 REVERT JUMPDEST POP CALLDATALOAD SWAP2 SWAP1 POP JUMP JUMPDEST PUSH1 0x20 DUP1 DUP3 MSTORE PUSH1 0xD SWAP1 DUP3 ADD MSTORE PUSH13 0x2737BA103A34329037BBB732B9 PUSH1 0x99 SHL PUSH1 0x40 DUP3 ADD MSTORE PUSH1 0x60 ADD SWAP1 JUMP INVALID LOG2 PUSH5 0x6970667358 0x22 SLT KECCAK256 JUMPDEST PUSH25 0x8D43A1BF8F7FF2EBE6874CD3BF1A3CE4279C24F460C2CCBC97 CREATE2 BALANCE AND SWAP8 SHR PUSH5 0x736F6C6343 STOP ADDMOD BYTE STOP CALLER "
				},
				"gasEstimates": {
					"creation": {
						"codeDepositCost": "198400",
						"executionCost": "infinite",
						"totalCost": "infinite"
					},
					"external": {
						"activate()": "27633",
						"active()": "2316",
						"deactivate()": "27642",
						"owner()": "2402",
						"pause()": "27610",
						"paused()": "2315",
						"price()": "2381",
						"resume()": "27587",
						"updatePrice(uint256)": "27955"
					}
				},
				"methodIdentifiers": {
					"activate()": "0f15f4c0",
					"active()": "02fb0c5e",
					"deactivate()": "51b42b00",
					"owner()": "8da5cb5b",
					"pause()": "8456cb59",
					"paused()": "5c975abb",
					"price()": "a035b1fe",
					"resume()": "046f7da2",
					"updatePrice(uint256)": "8d6cc56d"
				}
			},
			"storageLayout": {
				"storage": [
					{
						"astId": 4,
						"contract": "fullenchanded.sol:Subscription",
						"label": "price",
						"offset": 0,
						"slot": "0",
						"type": "t_uint256"
					},
					{
						"astId": 6,
						"contract": "fullenchanded.sol:Subscription",
						"label": "owner",
						"offset": 0,
						"slot": "1",
						"type": "t_address"
					},
					{
						"astId": 8,
						"contract": "fullenchanded.sol:Subscription",
						"label": "paused",
						"offset": 20,
						"slot": "1",
						"type": "t_bool"
					},
					{
						"astId": 10,
						"contract": "fullenchanded.sol:Subscription",
						"label": "active",
						"offset": 21,
						"slot": "1",
						"type": "t_bool"
					}
				],
				"types": {
					"t_address": {
						"encoding": "inplace",
						"label": "address",
						"numberOfBytes": "20"
					},
					"t_bool": {
						"encoding": "inplace",
						"label": "bool",
						"numberOfBytes": "1"
					},
					"t_uint256": {
						"encoding": "inplace",
						"label": "uint256",
						"numberOfBytes": "32"
					}
				}
			},
			"userdoc": {
				"kind": "user",
				"methods": {
					"activate()": {
						"notice": "Reactivate the subscription"
					},
					"deactivate()": {
						"notice": "Deactivate the subscription"
					},
					"pause()": {
						"notice": "Pause the subscription"
					},
					"resume()": {
						"notice": "Resume the subscription"
					},
					"updatePrice(uint256)": {
						"notice": "Update the subscription price"
					}
				},
				"version": 1
			}
		}
	}
}