{
	"newt.sol": {
		"BatchDeploySubscriptions": {
			"abi": [
				{
					"inputs": [],
					"stateMutability": "nonpayable",
					"type": "constructor"
				},
				{
					"anonymous": false,
					"inputs": [
						{
							"indexed": true,
							"internalType": "address",
							"name": "service",
							"type": "address"
						},
						{
							"indexed": false,
							"internalType": "uint256",
							"name": "oldPrice",
							"type": "uint256"
						},
						{
							"indexed": false,
							"internalType": "uint256",
							"name": "newPrice",
							"type": "uint256"
						}
					],
					"name": "PriceUpdated",
					"type": "event"
				},
				{
					"anonymous": false,
					"inputs": [
						{
							"indexed": true,
							"internalType": "address",
							"name": "service",
							"type": "address"
						},
						{
							"indexed": false,
							"internalType": "uint256",
							"name": "price",
							"type": "uint256"
						}
					],
					"name": "ServiceDeployed",
					"type": "event"
				},
				{
					"inputs": [
						{
							"internalType": "uint256",
							"name": "_price",
							"type": "uint256"
						}
					],
					"name": "addService",
					"outputs": [],
					"stateMutability": "nonpayable",
					"type": "function"
				},
				{
					"inputs": [
						{
							"internalType": "uint256",
							"name": "_price",
							"type": "uint256"
						},
						{
							"internalType": "uint256",
							"name": "_count",
							"type": "uint256"
						}
					],
					"name": "deployAll",
					"outputs": [],
					"stateMutability": "nonpayable",
					"type": "function"
				},
				{
					"inputs": [
						{
							"internalType": "uint256",
							"name": "index",
							"type": "uint256"
						}
					],
					"name": "get",
					"outputs": [
						{
							"internalType": "address",
							"name": "",
							"type": "address"
						}
					],
					"stateMutability": "view",
					"type": "function"
				},
				{
					"inputs": [],
					"name": "getAllServices",
					"outputs": [
						{
							"internalType": "address[]",
							"name": "",
							"type": "address[]"
						}
					],
					"stateMutability": "view",
					"type": "function"
				},
				{
					"inputs": [],
					"name": "owner",
					"outputs": [
						{
							"internalType": "address",
							"name": "",
							"type": "address"
						}
					],
					"stateMutability": "view",
					"type": "function"
				},
				{
					"inputs": [
						{
							"internalType": "uint256",
							"name": "",
							"type": "uint256"
						}
					],
					"name": "services",
					"outputs": [
						{
							"internalType": "contract Subscription",
							"name": "",
							"type": "address"
						}
					],
					"stateMutability": "view",
					"type": "function"
				},
				{
					"inputs": [
						{
							"internalType": "uint256",
							"name": "index",
							"type": "uint256"
						},
						{
							"internalType": "uint256",
							"name": "_newPrice",
							"type": "uint256"
						}
					],
					"name": "updateServicePrice",
					"outputs": [],
					"stateMutability": "nonpayable",
					"type": "function"
				}
			],
			"devdoc": {
				"kind": "dev",
				"methods": {},
				"title": "Batch deployment and management of subscriptions",
				"version": 1
			},
			"evm": {
				"assembly": "    /* \"newt.sol\":712:2628  contract BatchDeploySubscriptions {... */\n  mstore(0x40, 0x80)\n    /* \"newt.sol\":1071:1122  constructor() {... */\n  callvalue\n  dup1\n  iszero\n  tag_1\n  jumpi\n  0x00\n  dup1\n  revert\ntag_1:\n  pop\n    /* \"newt.sol\":1096:1101  owner */\n  0x00\n    /* \"newt.sol\":1096:1114  owner = msg.sender */\n  dup1\n  sload\n  not(sub(shl(0xa0, 0x01), 0x01))\n  and\n    /* \"newt.sol\":1104:1114  msg.sender */\n  caller\n    /* \"newt.sol\":1096:1114  owner = msg.sender */\n  or\n  swap1\n  sstore\n    /* \"newt.sol\":712:2628  contract BatchDeploySubscriptions {... */\n  dataSize(sub_0)\n  dup1\n  dataOffset(sub_0)\n  0x00\n  codecopy\n  0x00\n  return\nstop\n\nsub_0: assembly {\n        /* \"newt.sol\":712:2628  contract BatchDeploySubscriptions {... */\n      mstore(0x40, 0x80)\n      callvalue\n      dup1\n      iszero\n      tag_1\n      jumpi\n      0x00\n      dup1\n      revert\n    tag_1:\n      pop\n      jumpi(tag_2, lt(calldatasize, 0x04))\n      shr(0xe0, calldataload(0x00))\n      dup1\n      0x8da5cb5b\n      gt\n      tag_10\n      jumpi\n      dup1\n      0x8da5cb5b\n      eq\n      tag_6\n      jumpi\n      dup1\n      0x9507d39a\n      eq\n      tag_7\n      jumpi\n      dup1\n      0x9fd80934\n      eq\n      tag_8\n      jumpi\n      dup1\n      0xc22c4f43\n      eq\n      tag_9\n      jumpi\n      0x00\n      dup1\n      revert\n    tag_10:\n      dup1\n      0x21fe0f30\n      eq\n      tag_3\n      jumpi\n      dup1\n      0x304f90bb\n      eq\n      tag_4\n      jumpi\n      dup1\n      0x3b8b26a6\n      eq\n      tag_5\n      jumpi\n    tag_2:\n      0x00\n      dup1\n      revert\n        /* \"newt.sol\":2340:2625  function getAllServices() public view returns (address[] memory) {... */\n    tag_3:\n      tag_11\n      tag_12\n      jump\t// in\n    tag_11:\n      mload(0x40)\n      tag_13\n      swap2\n      swap1\n      tag_14\n      jump\t// in\n    tag_13:\n      mload(0x40)\n      dup1\n      swap2\n      sub\n      swap1\n      return\n        /* \"newt.sol\":1558:1753  function addService(uint _price) public onlyOwner {... */\n    tag_4:\n      tag_15\n      tag_16\n      calldatasize\n      0x04\n      tag_17\n      jump\t// in\n    tag_16:\n      tag_18\n      jump\t// in\n    tag_15:\n      stop\n        /* \"newt.sol\":1180:1506  function deployAll(uint _price, uint _count) public onlyOwner {... */\n    tag_5:\n      tag_15\n      tag_20\n      calldatasize\n      0x04\n      tag_21\n      jump\t// in\n    tag_20:\n      tag_22\n      jump\t// in\n        /* \"newt.sol\":753:773  address public owner */\n    tag_6:\n      sload(0x00)\n      tag_23\n      swap1\n      sub(shl(0xa0, 0x01), 0x01)\n      and\n      dup2\n      jump\n    tag_23:\n      mload(0x40)\n      sub(shl(0xa0, 0x01), 0x01)\n        /* \"#utility.yul\":1402:1434   */\n      swap1\n      swap2\n      and\n        /* \"#utility.yul\":1384:1435   */\n      dup2\n      mstore\n        /* \"#utility.yul\":1372:1374   */\n      0x20\n        /* \"#utility.yul\":1357:1375   */\n      add\n        /* \"newt.sol\":753:773  address public owner */\n      tag_13\n        /* \"#utility.yul\":1238:1441   */\n      jump\n        /* \"newt.sol\":2184:2289  function get(uint index) public view returns (address) {... */\n    tag_7:\n      tag_23\n      tag_28\n      calldatasize\n      0x04\n      tag_17\n      jump\t// in\n    tag_28:\n      tag_29\n      jump\t// in\n        /* \"newt.sol\":1814:2130  function updateServicePrice(uint index, uint _newPrice) public onlyOwner {... */\n    tag_8:\n      tag_15\n      tag_32\n      calldatasize\n      0x04\n      tag_21\n      jump\t// in\n    tag_32:\n      tag_33\n      jump\t// in\n        /* \"newt.sol\":780:810  Subscription[] public services */\n    tag_9:\n      tag_23\n      tag_35\n      calldatasize\n      0x04\n      tag_17\n      jump\t// in\n    tag_35:\n      tag_36\n      jump\t// in\n        /* \"newt.sol\":2340:2625  function getAllServices() public view returns (address[] memory) {... */\n    tag_12:\n        /* \"newt.sol\":2459:2467  services */\n      0x01\n        /* \"newt.sol\":2459:2474  services.length */\n      sload\n        /* \"newt.sol\":2387:2403  address[] memory */\n      0x60\n      swap1\n        /* \"newt.sol\":2416:2442  address[] memory addresses */\n      0x00\n      swap1\n        /* \"newt.sol\":2445:2475  new address[](services.length) */\n      0xffffffffffffffff\n      dup2\n      gt\n      iszero\n      tag_41\n      jumpi\n      tag_41\n      tag_42\n      jump\t// in\n    tag_41:\n      mload(0x40)\n      swap1\n      dup1\n      dup3\n      mstore\n      dup1\n      0x20\n      mul\n      0x20\n      add\n      dup3\n      add\n      0x40\n      mstore\n      dup1\n      iszero\n      tag_43\n      jumpi\n      dup2\n      0x20\n      add\n      0x20\n      dup3\n      mul\n      dup1\n      calldatasize\n      dup4\n      calldatacopy\n      add\n      swap1\n      pop\n    tag_43:\n      pop\n        /* \"newt.sol\":2416:2475  address[] memory addresses = new address[](services.length) */\n      swap1\n      pop\n        /* \"newt.sol\":2491:2497  uint i */\n      0x00\n        /* \"newt.sol\":2486:2591  for (uint i = 0; i < services.length; i++) {... */\n    tag_44:\n        /* \"newt.sol\":2507:2515  services */\n      0x01\n        /* \"newt.sol\":2507:2522  services.length */\n      sload\n        /* \"newt.sol\":2503:2522  i < services.length */\n      dup2\n      lt\n        /* \"newt.sol\":2486:2591  for (uint i = 0; i < services.length; i++) {... */\n      iszero\n      tag_45\n      jumpi\n        /* \"newt.sol\":2567:2575  services */\n      0x01\n        /* \"newt.sol\":2576:2577  i */\n      dup2\n        /* \"newt.sol\":2567:2578  services[i] */\n      dup2\n      sload\n      dup2\n      lt\n      tag_48\n      jumpi\n      tag_48\n      tag_49\n      jump\t// in\n    tag_48:\n      swap1\n      0x00\n      mstore\n      keccak256(0x00, 0x20)\n      add\n      0x00\n      swap1\n      sload\n      swap1\n      0x0100\n      exp\n      swap1\n      div\n      sub(shl(0xa0, 0x01), 0x01)\n      and\n        /* \"newt.sol\":2544:2553  addresses */\n      dup3\n        /* \"newt.sol\":2554:2555  i */\n      dup3\n        /* \"newt.sol\":2544:2556  addresses[i] */\n      dup2\n      mload\n      dup2\n      lt\n      tag_52\n      jumpi\n      tag_52\n      tag_49\n      jump\t// in\n    tag_52:\n      sub(shl(0xa0, 0x01), 0x01)\n        /* \"newt.sol\":2544:2579  addresses[i] = address(services[i]) */\n      swap1\n      swap3\n      and\n        /* \"newt.sol\":2544:2556  addresses[i] */\n      0x20\n      swap3\n      dup4\n      mul\n      swap2\n      swap1\n      swap2\n      add\n      swap1\n      swap2\n      add\n        /* \"newt.sol\":2544:2579  addresses[i] = address(services[i]) */\n      mstore\n        /* \"newt.sol\":2524:2527  i++ */\n      0x01\n      add\n        /* \"newt.sol\":2486:2591  for (uint i = 0; i < services.length; i++) {... */\n      jump(tag_44)\n    tag_45:\n      pop\n        /* \"newt.sol\":2608:2617  addresses */\n      swap2\n        /* \"newt.sol\":2340:2625  function getAllServices() public view returns (address[] memory) {... */\n      swap1\n      pop\n      jump\t// out\n        /* \"newt.sol\":1558:1753  function addService(uint _price) public onlyOwner {... */\n    tag_18:\n        /* \"newt.sol\":1020:1025  owner */\n      and(sub(shl(0xa0, 0x01), 0x01), sload(0x00))\n        /* \"newt.sol\":1006:1016  msg.sender */\n      caller\n        /* \"newt.sol\":1006:1025  msg.sender == owner */\n      eq\n        /* \"newt.sol\":998:1043  require(msg.sender == owner, \"Not the owner\") */\n      tag_54\n      jumpi\n      mload(0x40)\n      shl(0xe5, 0x461bcd)\n      dup2\n      mstore\n      0x04\n      add\n      tag_55\n      swap1\n      tag_56\n      jump\t// in\n    tag_55:\n      mload(0x40)\n      dup1\n      swap2\n      sub\n      swap1\n      revert\n    tag_54:\n        /* \"newt.sol\":1619:1633  Subscription s */\n      0x00\n        /* \"newt.sol\":1661:1666  owner */\n      dup1\n      sload\n        /* \"newt.sol\":1636:1667  new Subscription(_price, owner) */\n      mload(0x40)\n        /* \"newt.sol\":1653:1659  _price */\n      dup4\n      swap2\n      sub(shl(0xa0, 0x01), 0x01)\n        /* \"newt.sol\":1661:1666  owner */\n      and\n      swap1\n        /* \"newt.sol\":1636:1667  new Subscription(_price, owner) */\n      tag_58\n      swap1\n      tag_59\n      jump\t// in\n    tag_58:\n        /* \"#utility.yul\":2453:2478   */\n      swap2\n      dup3\n      mstore\n      sub(shl(0xa0, 0x01), 0x01)\n        /* \"#utility.yul\":2514:2546   */\n      and\n        /* \"#utility.yul\":2509:2511   */\n      0x20\n        /* \"#utility.yul\":2494:2512   */\n      dup3\n      add\n        /* \"#utility.yul\":2487:2547   */\n      mstore\n        /* \"#utility.yul\":2441:2443   */\n      0x40\n        /* \"#utility.yul\":2426:2444   */\n      add\n        /* \"newt.sol\":1636:1667  new Subscription(_price, owner) */\n      mload(0x40)\n      dup1\n      swap2\n      sub\n      swap1\n      0x00\n      create\n      dup1\n      iszero\n      dup1\n      iszero\n      tag_62\n      jumpi\n      returndatasize\n      0x00\n      dup1\n      returndatacopy\n      revert(0x00, returndatasize)\n    tag_62:\n      pop\n        /* \"newt.sol\":1678:1686  services */\n      0x01\n        /* \"newt.sol\":1678:1694  services.push(s) */\n      dup1\n      sload\n      dup1\n      dup3\n      add\n      dup3\n      sstore\n      0x00\n      swap2\n      swap1\n      swap2\n      mstore\n      0xb10e2d527612073b26eecdfd717e6a320cf44b4afac2b0732d9fcbe2b7fa0cf6\n      add\n      dup1\n      sload\n      not(sub(shl(0xa0, 0x01), 0x01))\n      and\n      sub(shl(0xa0, 0x01), 0x01)\n      dup4\n      and\n      swap1\n      dup2\n      or\n      swap1\n      swap2\n      sstore\n        /* \"newt.sol\":1710:1745  ServiceDeployed(address(s), _price) */\n      mload(0x40)\n        /* \"#utility.yul\":2704:2729   */\n      dup5\n      dup2\n      mstore\n        /* \"newt.sol\":1678:1694  services.push(s) */\n      swap2\n      swap3\n      pop\n      swap1\n        /* \"newt.sol\":1710:1745  ServiceDeployed(address(s), _price) */\n      0xdee7f9f5d5947a9c6657741a7b8cd7dd8d9d465ab5771a6a2bc4ef074209c0ff\n      swap1\n        /* \"#utility.yul\":2692:2694   */\n      0x20\n        /* \"#utility.yul\":2677:2695   */\n      add\n        /* \"newt.sol\":1710:1745  ServiceDeployed(address(s), _price) */\n      mload(0x40)\n      dup1\n      swap2\n      sub\n      swap1\n      log2\n        /* \"newt.sol\":1608:1753  {... */\n      pop\n        /* \"newt.sol\":1558:1753  function addService(uint _price) public onlyOwner {... */\n      pop\n      jump\t// out\n        /* \"newt.sol\":1180:1506  function deployAll(uint _price, uint _count) public onlyOwner {... */\n    tag_22:\n        /* \"newt.sol\":1020:1025  owner */\n      and(sub(shl(0xa0, 0x01), 0x01), sload(0x00))\n        /* \"newt.sol\":1006:1016  msg.sender */\n      caller\n        /* \"newt.sol\":1006:1025  msg.sender == owner */\n      eq\n        /* \"newt.sol\":998:1043  require(msg.sender == owner, \"Not the owner\") */\n      tag_67\n      jumpi\n      mload(0x40)\n      shl(0xe5, 0x461bcd)\n      dup2\n      mstore\n      0x04\n      add\n      tag_55\n      swap1\n      tag_56\n      jump\t// in\n    tag_67:\n        /* \"newt.sol\":1270:1271  0 */\n      0x00\n        /* \"newt.sol\":1261:1267  _count */\n      dup2\n        /* \"newt.sol\":1261:1271  _count > 0 */\n      gt\n        /* \"newt.sol\":1253:1293  require(_count > 0, \"Count must be > 0\") */\n      tag_70\n      jumpi\n      mload(0x40)\n      shl(0xe5, 0x461bcd)\n      dup2\n      mstore\n        /* \"#utility.yul\":2942:2944   */\n      0x20\n        /* \"newt.sol\":1253:1293  require(_count > 0, \"Count must be > 0\") */\n      0x04\n      dup3\n      add\n        /* \"#utility.yul\":2924:2945   */\n      mstore\n        /* \"#utility.yul\":2981:2983   */\n      0x11\n        /* \"#utility.yul\":2961:2979   */\n      0x24\n      dup3\n      add\n        /* \"#utility.yul\":2954:2984   */\n      mstore\n      shl(0x7c, 0x0436f756e74206d757374206265203e203)\n        /* \"#utility.yul\":3000:3018   */\n      0x44\n      dup3\n      add\n        /* \"#utility.yul\":2993:3040   */\n      mstore\n        /* \"#utility.yul\":3057:3075   */\n      0x64\n      add\n        /* \"newt.sol\":1253:1293  require(_count > 0, \"Count must be > 0\") */\n      tag_55\n        /* \"#utility.yul\":2740:3081   */\n      jump\n        /* \"newt.sol\":1253:1293  require(_count > 0, \"Count must be > 0\") */\n    tag_70:\n        /* \"newt.sol\":1309:1315  uint i */\n      0x00\n        /* \"newt.sol\":1304:1499  for (uint i = 0; i < _count; i++) {... */\n    tag_73:\n        /* \"newt.sol\":1325:1331  _count */\n      dup2\n        /* \"newt.sol\":1321:1322  i */\n      dup2\n        /* \"newt.sol\":1321:1331  i < _count */\n      lt\n        /* \"newt.sol\":1304:1499  for (uint i = 0; i < _count; i++) {... */\n      iszero\n      tag_74\n      jumpi\n        /* \"newt.sol\":1353:1367  Subscription s */\n      0x00\n        /* \"newt.sol\":1395:1400  owner */\n      dup1\n      sload\n        /* \"newt.sol\":1370:1401  new Subscription(_price, owner) */\n      mload(0x40)\n        /* \"newt.sol\":1387:1393  _price */\n      dup6\n      swap2\n      sub(shl(0xa0, 0x01), 0x01)\n        /* \"newt.sol\":1395:1400  owner */\n      and\n      swap1\n        /* \"newt.sol\":1370:1401  new Subscription(_price, owner) */\n      tag_76\n      swap1\n      tag_59\n      jump\t// in\n    tag_76:\n        /* \"#utility.yul\":2453:2478   */\n      swap2\n      dup3\n      mstore\n      sub(shl(0xa0, 0x01), 0x01)\n        /* \"#utility.yul\":2514:2546   */\n      and\n        /* \"#utility.yul\":2509:2511   */\n      0x20\n        /* \"#utility.yul\":2494:2512   */\n      dup3\n      add\n        /* \"#utility.yul\":2487:2547   */\n      mstore\n        /* \"#utility.yul\":2441:2443   */\n      0x40\n        /* \"#utility.yul\":2426:2444   */\n      add\n        /* \"newt.sol\":1370:1401  new Subscription(_price, owner) */\n      mload(0x40)\n      dup1\n      swap2\n      sub\n      swap1\n      0x00\n      create\n      dup1\n      iszero\n      dup1\n      iszero\n      tag_78\n      jumpi\n      returndatasize\n      0x00\n      dup1\n      returndatacopy\n      revert(0x00, returndatasize)\n    tag_78:\n      pop\n        /* \"newt.sol\":1416:1424  services */\n      0x01\n        /* \"newt.sol\":1416:1432  services.push(s) */\n      dup1\n      sload\n      dup1\n      dup3\n      add\n      dup3\n      sstore\n      0x00\n      swap2\n      swap1\n      swap2\n      mstore\n      0xb10e2d527612073b26eecdfd717e6a320cf44b4afac2b0732d9fcbe2b7fa0cf6\n      add\n      dup1\n      sload\n      not(sub(shl(0xa0, 0x01), 0x01))\n      and\n      sub(shl(0xa0, 0x01), 0x01)\n      dup4\n      and\n      swap1\n      dup2\n      or\n      swap1\n      swap2\n      sstore\n        /* \"newt.sol\":1452:1487  ServiceDeployed(address(s), _price) */\n      mload(0x40)\n        /* \"#utility.yul\":2704:2729   */\n      dup7\n      dup2\n      mstore\n        /* \"newt.sol\":1416:1432  services.push(s) */\n      swap2\n      swap3\n      pop\n      swap1\n        /* \"newt.sol\":1452:1487  ServiceDeployed(address(s), _price) */\n      0xdee7f9f5d5947a9c6657741a7b8cd7dd8d9d465ab5771a6a2bc4ef074209c0ff\n      swap1\n        /* \"#utility.yul\":2692:2694   */\n      0x20\n        /* \"#utility.yul\":2677:2695   */\n      add\n        /* \"newt.sol\":1452:1487  ServiceDeployed(address(s), _price) */\n      mload(0x40)\n      dup1\n      swap2\n      sub\n      swap1\n      log2\n      pop\n        /* \"newt.sol\":1333:1336  i++ */\n      0x01\n      add\n        /* \"newt.sol\":1304:1499  for (uint i = 0; i < _count; i++) {... */\n      jump(tag_73)\n    tag_74:\n      pop\n        /* \"newt.sol\":1180:1506  function deployAll(uint _price, uint _count) public onlyOwner {... */\n      pop\n      pop\n      jump\t// out\n        /* \"newt.sol\":2184:2289  function get(uint index) public view returns (address) {... */\n    tag_29:\n        /* \"newt.sol\":2230:2237  address */\n      0x00\n        /* \"newt.sol\":2265:2273  services */\n      0x01\n        /* \"newt.sol\":2274:2279  index */\n      dup3\n        /* \"newt.sol\":2265:2280  services[index] */\n      dup2\n      sload\n      dup2\n      lt\n      tag_83\n      jumpi\n      tag_83\n      tag_49\n      jump\t// in\n    tag_83:\n      0x00\n      swap2\n      dup3\n      mstore\n      0x20\n      swap1\n      swap2\n      keccak256\n      add\n      sload\n      sub(shl(0xa0, 0x01), 0x01)\n      and\n      swap3\n        /* \"newt.sol\":2184:2289  function get(uint index) public view returns (address) {... */\n      swap2\n      pop\n      pop\n      jump\t// out\n        /* \"newt.sol\":1814:2130  function updateServicePrice(uint index, uint _newPrice) public onlyOwner {... */\n    tag_33:\n        /* \"newt.sol\":1020:1025  owner */\n      and(sub(shl(0xa0, 0x01), 0x01), sload(0x00))\n        /* \"newt.sol\":1006:1016  msg.sender */\n      caller\n        /* \"newt.sol\":1006:1025  msg.sender == owner */\n      eq\n        /* \"newt.sol\":998:1043  require(msg.sender == owner, \"Not the owner\") */\n      tag_86\n      jumpi\n      mload(0x40)\n      shl(0xe5, 0x461bcd)\n      dup2\n      mstore\n      0x04\n      add\n      tag_55\n      swap1\n      tag_56\n      jump\t// in\n    tag_86:\n        /* \"newt.sol\":1914:1922  services */\n      0x01\n        /* \"newt.sol\":1914:1929  services.length */\n      sload\n        /* \"newt.sol\":1906:1929  index < services.length */\n      dup3\n      lt\n        /* \"newt.sol\":1898:1947  require(index < services.length, \"Invalid index\") */\n      tag_89\n      jumpi\n      mload(0x40)\n      shl(0xe5, 0x461bcd)\n      dup2\n      mstore\n        /* \"#utility.yul\":3288:3290   */\n      0x20\n        /* \"newt.sol\":1898:1947  require(index < services.length, \"Invalid index\") */\n      0x04\n      dup3\n      add\n        /* \"#utility.yul\":3270:3291   */\n      mstore\n        /* \"#utility.yul\":3327:3329   */\n      0x0d\n        /* \"#utility.yul\":3307:3325   */\n      0x24\n      dup3\n      add\n        /* \"#utility.yul\":3300:3330   */\n      mstore\n      shl(0x9b, 0x092dcecc2d8d2c840d2dcc8caf)\n        /* \"#utility.yul\":3346:3364   */\n      0x44\n      dup3\n      add\n        /* \"#utility.yul\":3339:3382   */\n      mstore\n        /* \"#utility.yul\":3399:3417   */\n      0x64\n      add\n        /* \"newt.sol\":1898:1947  require(index < services.length, \"Invalid index\") */\n      tag_55\n        /* \"#utility.yul\":3086:3423   */\n      jump\n        /* \"newt.sol\":1898:1947  require(index < services.length, \"Invalid index\") */\n    tag_89:\n        /* \"newt.sol\":1958:1972  Subscription s */\n      0x00\n        /* \"newt.sol\":1975:1983  services */\n      0x01\n        /* \"newt.sol\":1984:1989  index */\n      dup4\n        /* \"newt.sol\":1975:1990  services[index] */\n      dup2\n      sload\n      dup2\n      lt\n      tag_93\n      jumpi\n      tag_93\n      tag_49\n      jump\t// in\n    tag_93:\n      0x00\n      swap2\n      dup3\n      mstore\n      0x20\n      dup1\n      dup4\n      keccak256\n      swap1\n      swap2\n      add\n      sload\n        /* \"newt.sol\":2017:2026  s.price() */\n      0x40\n      dup1\n      mload\n      shl(0xe1, 0x501ad8ff)\n      dup2\n      mstore\n      swap1\n      mload\n      sub(shl(0xa0, 0x01), 0x01)\n        /* \"newt.sol\":1975:1990  services[index] */\n      swap1\n      swap3\n      and\n      swap5\n      pop\n      dup5\n      swap3\n        /* \"newt.sol\":2017:2024  s.price */\n      0xa035b1fe\n      swap3\n        /* \"newt.sol\":2017:2026  s.price() */\n      0x04\n      dup1\n      dup5\n      add\n      swap4\n      dup3\n      swap1\n      sub\n      add\n      dup2\n        /* \"newt.sol\":1975:1990  services[index] */\n      dup7\n        /* \"newt.sol\":2017:2026  s.price() */\n      gas\n      staticcall\n      iszero\n      dup1\n      iszero\n      tag_96\n      jumpi\n      returndatasize\n      0x00\n      dup1\n      returndatacopy\n      revert(0x00, returndatasize)\n    tag_96:\n      pop\n      pop\n      pop\n      pop\n      mload(0x40)\n      returndatasize\n      not(0x1f)\n      0x1f\n      dup3\n      add\n      and\n      dup3\n      add\n      dup1\n      0x40\n      mstore\n      pop\n      dup2\n      add\n      swap1\n      tag_97\n      swap2\n      swap1\n      tag_98\n      jump\t// in\n    tag_97:\n        /* \"newt.sol\":2037:2061  s.updatePrice(_newPrice) */\n      mload(0x40)\n      shl(0xe0, 0x8d6cc56d)\n      dup2\n      mstore\n      0x04\n      dup2\n      add\n        /* \"#utility.yul\":2704:2729   */\n      dup6\n      swap1\n      mstore\n        /* \"newt.sol\":2001:2026  uint oldPrice = s.price() */\n      swap1\n      swap2\n      pop\n      sub(shl(0xa0, 0x01), 0x01)\n        /* \"newt.sol\":2037:2050  s.updatePrice */\n      dup4\n      and\n      swap1\n      0x8d6cc56d\n      swap1\n        /* \"#utility.yul\":2677:2695   */\n      0x24\n      add\n        /* \"newt.sol\":2037:2061  s.updatePrice(_newPrice) */\n      0x00\n      mload(0x40)\n      dup1\n      dup4\n      sub\n      dup2\n      0x00\n      dup8\n      dup1\n      extcodesize\n      iszero\n      dup1\n      iszero\n      tag_100\n      jumpi\n      0x00\n      dup1\n      revert\n    tag_100:\n      pop\n      gas\n      call\n      iszero\n      dup1\n      iszero\n      tag_102\n      jumpi\n      returndatasize\n      0x00\n      dup1\n      returndatacopy\n      revert(0x00, returndatasize)\n    tag_102:\n      pop\n      pop\n        /* \"newt.sol\":2077:2122  PriceUpdated(address(s), oldPrice, _newPrice) */\n      0x40\n      dup1\n      mload\n        /* \"#utility.yul\":3791:3816   */\n      dup5\n      dup2\n      mstore\n        /* \"#utility.yul\":3847:3849   */\n      0x20\n        /* \"#utility.yul\":3832:3850   */\n      dup2\n      add\n        /* \"#utility.yul\":3825:3859   */\n      dup8\n      swap1\n      mstore\n      sub(shl(0xa0, 0x01), 0x01)\n        /* \"newt.sol\":2077:2122  PriceUpdated(address(s), oldPrice, _newPrice) */\n      dup7\n      and\n      swap4\n      pop\n      0xb556fac599c3c70efb9ab1fa725ecace6c81cc48d1455f886607def065f3e0c0\n      swap3\n      pop\n        /* \"#utility.yul\":3764:3782   */\n      add\n        /* \"newt.sol\":2077:2122  PriceUpdated(address(s), oldPrice, _newPrice) */\n      mload(0x40)\n      dup1\n      swap2\n      sub\n      swap1\n      log2\n        /* \"newt.sol\":1887:2130  {... */\n      pop\n      pop\n        /* \"newt.sol\":1814:2130  function updateServicePrice(uint index, uint _newPrice) public onlyOwner {... */\n      pop\n      pop\n      jump\t// out\n        /* \"newt.sol\":780:810  Subscription[] public services */\n    tag_36:\n      0x01\n      dup2\n      dup2\n      sload\n      dup2\n      lt\n      tag_105\n      jumpi\n      0x00\n      dup1\n      revert\n    tag_105:\n      0x00\n      swap2\n      dup3\n      mstore\n      0x20\n      swap1\n      swap2\n      keccak256\n      add\n      sload\n      sub(shl(0xa0, 0x01), 0x01)\n      and\n      swap1\n      pop\n      dup2\n      jump\t// out\n    tag_59:\n      dataSize(sub_0)\n      dup1\n      dataOffset(sub_0)\n      dup4\n      codecopy\n      add\n      swap1\n      jump\t// out\n        /* \"#utility.yul\":14:651   */\n    tag_14:\n        /* \"#utility.yul\":204:206   */\n      0x20\n        /* \"#utility.yul\":216:237   */\n      dup1\n      dup3\n      mstore\n        /* \"#utility.yul\":286:299   */\n      dup3\n      mload\n        /* \"#utility.yul\":189:207   */\n      dup3\n      dup3\n      add\n        /* \"#utility.yul\":308:330   */\n      dup2\n      swap1\n      mstore\n        /* \"#utility.yul\":156:160   */\n      0x00\n      swap2\n        /* \"#utility.yul\":387:402   */\n      dup5\n      add\n      swap1\n        /* \"#utility.yul\":361:363   */\n      0x40\n        /* \"#utility.yul\":346:364   */\n      dup5\n      add\n      swap1\n        /* \"#utility.yul\":156:160   */\n      dup4\n        /* \"#utility.yul\":430:625   */\n    tag_109:\n        /* \"#utility.yul\":444:450   */\n      dup2\n        /* \"#utility.yul\":441:442   */\n      dup2\n        /* \"#utility.yul\":438:451   */\n      lt\n        /* \"#utility.yul\":430:625   */\n      iszero\n      tag_111\n      jumpi\n        /* \"#utility.yul\":509:522   */\n      dup4\n      mload\n      sub(shl(0xa0, 0x01), 0x01)\n        /* \"#utility.yul\":505:544   */\n      and\n        /* \"#utility.yul\":493:545   */\n      dup4\n      mstore\n        /* \"#utility.yul\":574:576   */\n      0x20\n        /* \"#utility.yul\":600:615   */\n      swap4\n      dup5\n      add\n      swap4\n        /* \"#utility.yul\":565:577   */\n      swap1\n      swap3\n      add\n      swap2\n        /* \"#utility.yul\":541:542   */\n      0x01\n        /* \"#utility.yul\":459:468   */\n      add\n        /* \"#utility.yul\":430:625   */\n      jump(tag_109)\n    tag_111:\n      pop\n        /* \"#utility.yul\":642:645   */\n      swap1\n      swap6\n        /* \"#utility.yul\":14:651   */\n      swap5\n      pop\n      pop\n      pop\n      pop\n      pop\n      jump\t// out\n        /* \"#utility.yul\":656:882   */\n    tag_17:\n        /* \"#utility.yul\":715:721   */\n      0x00\n        /* \"#utility.yul\":768:770   */\n      0x20\n        /* \"#utility.yul\":756:765   */\n      dup3\n        /* \"#utility.yul\":747:754   */\n      dup5\n        /* \"#utility.yul\":743:766   */\n      sub\n        /* \"#utility.yul\":739:771   */\n      slt\n        /* \"#utility.yul\":736:788   */\n      iszero\n      tag_113\n      jumpi\n        /* \"#utility.yul\":784:785   */\n      0x00\n        /* \"#utility.yul\":781:782   */\n      dup1\n        /* \"#utility.yul\":774:786   */\n      revert\n        /* \"#utility.yul\":736:788   */\n    tag_113:\n      pop\n        /* \"#utility.yul\":829:852   */\n      calldataload\n      swap2\n        /* \"#utility.yul\":656:882   */\n      swap1\n      pop\n      jump\t// out\n        /* \"#utility.yul\":887:1233   */\n    tag_21:\n        /* \"#utility.yul\":955:961   */\n      0x00\n        /* \"#utility.yul\":963:969   */\n      dup1\n        /* \"#utility.yul\":1016:1018   */\n      0x40\n        /* \"#utility.yul\":1004:1013   */\n      dup4\n        /* \"#utility.yul\":995:1002   */\n      dup6\n        /* \"#utility.yul\":991:1014   */\n      sub\n        /* \"#utility.yul\":987:1019   */\n      slt\n        /* \"#utility.yul\":984:1036   */\n      iszero\n      tag_115\n      jumpi\n        /* \"#utility.yul\":1032:1033   */\n      0x00\n        /* \"#utility.yul\":1029:1030   */\n      dup1\n        /* \"#utility.yul\":1022:1034   */\n      revert\n        /* \"#utility.yul\":984:1036   */\n    tag_115:\n      pop\n      pop\n        /* \"#utility.yul\":1077:1100   */\n      dup1\n      calldataload\n      swap3\n        /* \"#utility.yul\":1197:1199   */\n      0x20\n        /* \"#utility.yul\":1182:1200   */\n      swap1\n      swap2\n      add\n        /* \"#utility.yul\":1169:1201   */\n      calldataload\n      swap2\n      pop\n        /* \"#utility.yul\":887:1233   */\n      jump\t// out\n        /* \"#utility.yul\":1673:1800   */\n    tag_42:\n        /* \"#utility.yul\":1734:1744   */\n      0x4e487b71\n        /* \"#utility.yul\":1729:1732   */\n      0xe0\n        /* \"#utility.yul\":1725:1745   */\n      shl\n        /* \"#utility.yul\":1722:1723   */\n      0x00\n        /* \"#utility.yul\":1715:1746   */\n      mstore\n        /* \"#utility.yul\":1765:1769   */\n      0x41\n        /* \"#utility.yul\":1762:1763   */\n      0x04\n        /* \"#utility.yul\":1755:1770   */\n      mstore\n        /* \"#utility.yul\":1789:1793   */\n      0x24\n        /* \"#utility.yul\":1786:1787   */\n      0x00\n        /* \"#utility.yul\":1779:1794   */\n      revert\n        /* \"#utility.yul\":1805:1932   */\n    tag_49:\n        /* \"#utility.yul\":1866:1876   */\n      0x4e487b71\n        /* \"#utility.yul\":1861:1864   */\n      0xe0\n        /* \"#utility.yul\":1857:1877   */\n      shl\n        /* \"#utility.yul\":1854:1855   */\n      0x00\n        /* \"#utility.yul\":1847:1878   */\n      mstore\n        /* \"#utility.yul\":1897:1901   */\n      0x32\n        /* \"#utility.yul\":1894:1895   */\n      0x04\n        /* \"#utility.yul\":1887:1902   */\n      mstore\n        /* \"#utility.yul\":1921:1925   */\n      0x24\n        /* \"#utility.yul\":1918:1919   */\n      0x00\n        /* \"#utility.yul\":1911:1926   */\n      revert\n        /* \"#utility.yul\":1937:2274   */\n    tag_56:\n        /* \"#utility.yul\":2139:2141   */\n      0x20\n        /* \"#utility.yul\":2121:2142   */\n      dup1\n      dup3\n      mstore\n        /* \"#utility.yul\":2178:2180   */\n      0x0d\n        /* \"#utility.yul\":2158:2176   */\n      swap1\n      dup3\n      add\n        /* \"#utility.yul\":2151:2181   */\n      mstore\n      shl(0x99, 0x2737ba103a34329037bbb732b9)\n        /* \"#utility.yul\":2212:2214   */\n      0x40\n        /* \"#utility.yul\":2197:2215   */\n      dup3\n      add\n        /* \"#utility.yul\":2190:2233   */\n      mstore\n        /* \"#utility.yul\":2265:2267   */\n      0x60\n        /* \"#utility.yul\":2250:2268   */\n      add\n      swap1\n        /* \"#utility.yul\":1937:2274   */\n      jump\t// out\n        /* \"#utility.yul\":3428:3612   */\n    tag_98:\n        /* \"#utility.yul\":3498:3504   */\n      0x00\n        /* \"#utility.yul\":3551:3553   */\n      0x20\n        /* \"#utility.yul\":3539:3548   */\n      dup3\n        /* \"#utility.yul\":3530:3537   */\n      dup5\n        /* \"#utility.yul\":3526:3549   */\n      sub\n        /* \"#utility.yul\":3522:3554   */\n      slt\n        /* \"#utility.yul\":3519:3571   */\n      iszero\n      tag_126\n      jumpi\n        /* \"#utility.yul\":3567:3568   */\n      0x00\n        /* \"#utility.yul\":3564:3565   */\n      dup1\n        /* \"#utility.yul\":3557:3569   */\n      revert\n        /* \"#utility.yul\":3519:3571   */\n    tag_126:\n      pop\n        /* \"#utility.yul\":3590:3606   */\n      mload\n      swap2\n        /* \"#utility.yul\":3428:3612   */\n      swap1\n      pop\n      jump\t// out\n    stop\n\n    sub_0: assembly {\n            /* \"newt.sol\":116:647  contract Subscription {... */\n          mstore(0x40, 0x80)\n            /* \"newt.sol\":255:354  constructor(uint _price, address _owner) {... */\n          callvalue\n          dup1\n          iszero\n          tag_1\n          jumpi\n          0x00\n          dup1\n          revert\n        tag_1:\n          pop\n          mload(0x40)\n          sub(codesize, bytecodeSize)\n          dup1\n          bytecodeSize\n          dup4\n          codecopy\n          dup2\n          add\n          0x40\n          dup2\n          swap1\n          mstore\n          tag_2\n          swap2\n          tag_3\n          jump\t// in\n        tag_2:\n            /* \"newt.sol\":307:312  price */\n          0x00\n            /* \"newt.sol\":307:321  price = _price */\n          swap2\n          swap1\n          swap2\n          sstore\n            /* \"newt.sol\":332:337  owner */\n          0x01\n            /* \"newt.sol\":332:346  owner = _owner */\n          dup1\n          sload\n          not(sub(shl(0xa0, 0x01), 0x01))\n          and\n          sub(shl(0xa0, 0x01), 0x01)\n          swap1\n          swap3\n          and\n          swap2\n          swap1\n          swap2\n          or\n          swap1\n          sstore\n            /* \"newt.sol\":116:647  contract Subscription {... */\n          jump(tag_7)\n            /* \"#utility.yul\":14:365   */\n        tag_3:\n            /* \"#utility.yul\":93:99   */\n          0x00\n            /* \"#utility.yul\":101:107   */\n          dup1\n            /* \"#utility.yul\":154:156   */\n          0x40\n            /* \"#utility.yul\":142:151   */\n          dup4\n            /* \"#utility.yul\":133:140   */\n          dup6\n            /* \"#utility.yul\":129:152   */\n          sub\n            /* \"#utility.yul\":125:157   */\n          slt\n            /* \"#utility.yul\":122:174   */\n          iszero\n          tag_9\n          jumpi\n            /* \"#utility.yul\":170:171   */\n          0x00\n            /* \"#utility.yul\":167:168   */\n          dup1\n            /* \"#utility.yul\":160:172   */\n          revert\n            /* \"#utility.yul\":122:174   */\n        tag_9:\n            /* \"#utility.yul\":193:209   */\n          dup3\n          mload\n            /* \"#utility.yul\":252:254   */\n          0x20\n            /* \"#utility.yul\":237:255   */\n          dup5\n          add\n            /* \"#utility.yul\":231:256   */\n          mload\n            /* \"#utility.yul\":193:209   */\n          swap1\n          swap3\n          pop\n          sub(shl(0xa0, 0x01), 0x01)\n            /* \"#utility.yul\":285:316   */\n          dup2\n          and\n            /* \"#utility.yul\":275:317   */\n          dup2\n          eq\n            /* \"#utility.yul\":265:335   */\n          tag_10\n          jumpi\n            /* \"#utility.yul\":331:332   */\n          0x00\n            /* \"#utility.yul\":328:329   */\n          dup1\n            /* \"#utility.yul\":321:333   */\n          revert\n            /* \"#utility.yul\":265:335   */\n        tag_10:\n            /* \"#utility.yul\":354:359   */\n          dup1\n            /* \"#utility.yul\":344:359   */\n          swap2\n          pop\n          pop\n            /* \"#utility.yul\":14:365   */\n          swap3\n          pop\n          swap3\n          swap1\n          pop\n          jump\t// out\n        tag_7:\n            /* \"newt.sol\":116:647  contract Subscription {... */\n          dataSize(sub_0)\n          dup1\n          dataOffset(sub_0)\n          0x00\n          codecopy\n          0x00\n          return\n        stop\n\n        sub_0: assembly {\n                /* \"newt.sol\":116:647  contract Subscription {... */\n              mstore(0x40, 0x80)\n              callvalue\n              dup1\n              iszero\n              tag_1\n              jumpi\n              0x00\n              dup1\n              revert\n            tag_1:\n              pop\n              jumpi(tag_2, lt(calldatasize, 0x04))\n              shr(0xe0, calldataload(0x00))\n              dup1\n              0x8d6cc56d\n              eq\n              tag_3\n              jumpi\n              dup1\n              0x8da5cb5b\n              eq\n              tag_4\n              jumpi\n              dup1\n              0xa035b1fe\n              eq\n              tag_5\n              jumpi\n            tag_2:\n              0x00\n              dup1\n              revert\n                /* \"newt.sol\":425:644  function updatePrice(uint _newPrice) external {... */\n            tag_3:\n              tag_6\n              tag_7\n              calldatasize\n              0x04\n              tag_8\n              jump\t// in\n            tag_7:\n              tag_9\n              jump\t// in\n            tag_6:\n              stop\n                /* \"newt.sol\":169:189  address public owner */\n            tag_4:\n              sload(0x01)\n              tag_10\n              swap1\n              sub(shl(0xa0, 0x01), 0x01)\n              and\n              dup2\n              jump\n            tag_10:\n              mload(0x40)\n              sub(shl(0xa0, 0x01), 0x01)\n                /* \"#utility.yul\":363:395   */\n              swap1\n              swap2\n              and\n                /* \"#utility.yul\":345:396   */\n              dup2\n              mstore\n                /* \"#utility.yul\":333:335   */\n              0x20\n                /* \"#utility.yul\":318:336   */\n              add\n                /* \"newt.sol\":169:189  address public owner */\n            tag_12:\n              mload(0x40)\n              dup1\n              swap2\n              sub\n              swap1\n              return\n                /* \"newt.sol\":145:162  uint public price */\n            tag_5:\n              tag_14\n              sload(0x00)\n              dup2\n              jump\n            tag_14:\n              mload(0x40)\n                /* \"#utility.yul\":553:578   */\n              swap1\n              dup2\n              mstore\n                /* \"#utility.yul\":541:543   */\n              0x20\n                /* \"#utility.yul\":526:544   */\n              add\n                /* \"newt.sol\":145:162  uint public price */\n              tag_12\n                /* \"#utility.yul\":407:584   */\n              jump\n                /* \"newt.sol\":425:644  function updatePrice(uint _newPrice) external {... */\n            tag_9:\n                /* \"newt.sol\":504:509  owner */\n              and(sub(shl(0xa0, 0x01), 0x01), sload(0x01))\n                /* \"newt.sol\":490:500  msg.sender */\n              caller\n                /* \"newt.sol\":490:509  msg.sender == owner */\n              eq\n                /* \"newt.sol\":482:527  require(msg.sender == owner, \"Not the owner\") */\n              tag_19\n              jumpi\n              mload(0x40)\n              shl(0xe5, 0x461bcd)\n              dup2\n              mstore\n                /* \"#utility.yul\":791:793   */\n              0x20\n                /* \"newt.sol\":482:527  require(msg.sender == owner, \"Not the owner\") */\n              0x04\n              dup3\n              add\n                /* \"#utility.yul\":773:794   */\n              mstore\n                /* \"#utility.yul\":830:832   */\n              0x0d\n                /* \"#utility.yul\":810:828   */\n              0x24\n              dup3\n              add\n                /* \"#utility.yul\":803:833   */\n              mstore\n              shl(0x99, 0x2737ba103a34329037bbb732b9)\n                /* \"#utility.yul\":849:867   */\n              0x44\n              dup3\n              add\n                /* \"#utility.yul\":842:885   */\n              mstore\n                /* \"#utility.yul\":902:920   */\n              0x64\n              add\n                /* \"newt.sol\":482:527  require(msg.sender == owner, \"Not the owner\") */\n              mload(0x40)\n              dup1\n              swap2\n              sub\n              swap1\n              revert\n            tag_19:\n                /* \"newt.sol\":538:551  uint oldPrice */\n              0x00\n                /* \"newt.sol\":554:559  price */\n              dup1\n              sload\n                /* \"newt.sol\":570:587  price = _newPrice */\n              swap1\n              dup3\n              swap1\n              sstore\n                /* \"newt.sol\":603:636  PriceUpdated(oldPrice, _newPrice) */\n              0x40\n              dup1\n              mload\n                /* \"#utility.yul\":1105:1130   */\n              dup3\n              dup2\n              mstore\n                /* \"#utility.yul\":1161:1163   */\n              0x20\n                /* \"#utility.yul\":1146:1164   */\n              dup2\n              add\n                /* \"#utility.yul\":1139:1173   */\n              dup5\n              swap1\n              mstore\n                /* \"newt.sol\":603:636  PriceUpdated(oldPrice, _newPrice) */\n              0x945c1c4e99aa89f648fbfe3df471b916f719e16d960fcec0737d4d56bd696838\n              swap2\n                /* \"#utility.yul\":1078:1096   */\n              add\n                /* \"newt.sol\":603:636  PriceUpdated(oldPrice, _newPrice) */\n              mload(0x40)\n              dup1\n              swap2\n              sub\n              swap1\n              log1\n                /* \"newt.sol\":471:644  {... */\n              pop\n                /* \"newt.sol\":425:644  function updatePrice(uint _newPrice) external {... */\n              pop\n              jump\t// out\n                /* \"#utility.yul\":14:194   */\n            tag_8:\n                /* \"#utility.yul\":73:79   */\n              0x00\n                /* \"#utility.yul\":126:128   */\n              0x20\n                /* \"#utility.yul\":114:123   */\n              dup3\n                /* \"#utility.yul\":105:112   */\n              dup5\n                /* \"#utility.yul\":101:124   */\n              sub\n                /* \"#utility.yul\":97:129   */\n              slt\n                /* \"#utility.yul\":94:146   */\n              iszero\n              tag_26\n              jumpi\n                /* \"#utility.yul\":142:143   */\n              0x00\n                /* \"#utility.yul\":139:140   */\n              dup1\n                /* \"#utility.yul\":132:144   */\n              revert\n                /* \"#utility.yul\":94:146   */\n            tag_26:\n              pop\n                /* \"#utility.yul\":165:188   */\n              calldataload\n              swap2\n                /* \"#utility.yul\":14:194   */\n              swap1\n              pop\n              jump\t// out\n\n            auxdata: 0xa26469706673582212202e9c76be6bdd9518f484b713caabd27065c850ab7cdd95d56c845522fd42b0f064736f6c634300081a0033\n        }\n    }\n\n    auxdata: 0xa26469706673582212204ef0f3ecc4461279f36e8f4fe369bf004337734eee742ea3cc28ff0a8388678d64736f6c634300081a0033\n}\n",
				"bytecode": {
					"linkReferences": {},
					"object": "6080604052348015600e575f80fd5b505f80546001600160a01b031916331790556109608061002d5f395ff3fe608060405234801561000f575f80fd5b506004361061007a575f3560e01c80638da5cb5b116100585780638da5cb5b146100c45780639507d39a146100ee5780639fd8093414610101578063c22c4f4314610114575f80fd5b806321fe0f301461007e578063304f90bb1461009c5780633b8b26a6146100b1575b5f80fd5b610086610127565b604051610093919061062d565b60405180910390f35b6100af6100aa366004610678565b6101e5565b005b6100af6100bf36600461068f565b6102e7565b5f546100d6906001600160a01b031681565b6040516001600160a01b039091168152602001610093565b6100d66100fc366004610678565b610437565b6100af61010f36600461068f565b610465565b6100d6610122366004610678565b6105f8565b6001546060905f9067ffffffffffffffff811115610147576101476106af565b604051908082528060200260200182016040528015610170578160200160208202803683370190505b5090505f5b6001548110156101df5760018181548110610192576101926106c3565b905f5260205f20015f9054906101000a90046001600160a01b03168282815181106101bf576101bf6106c3565b6001600160a01b0390921660209283029190910190910152600101610175565b50919050565b5f546001600160a01b031633146102175760405162461bcd60e51b815260040161020e906106d7565b60405180910390fd5b5f805460405183916001600160a01b03169061023290610620565b9182526001600160a01b03166020820152604001604051809103905ff08015801561025f573d5f803e3d5ffd5b506001805480820182555f919091527fb10e2d527612073b26eecdfd717e6a320cf44b4afac2b0732d9fcbe2b7fa0cf60180546001600160a01b0319166001600160a01b038316908117909155604051848152919250907fdee7f9f5d5947a9c6657741a7b8cd7dd8d9d465ab5771a6a2bc4ef074209c0ff9060200160405180910390a25050565b5f546001600160a01b031633146103105760405162461bcd60e51b815260040161020e906106d7565b5f81116103535760405162461bcd60e51b81526020600482015260116024820152700436f756e74206d757374206265203e203607c1b604482015260640161020e565b5f5b81811015610432575f805460405185916001600160a01b03169061037890610620565b9182526001600160a01b03166020820152604001604051809103905ff0801580156103a5573d5f803e3d5ffd5b506001805480820182555f919091527fb10e2d527612073b26eecdfd717e6a320cf44b4afac2b0732d9fcbe2b7fa0cf60180546001600160a01b0319166001600160a01b038316908117909155604051868152919250907fdee7f9f5d5947a9c6657741a7b8cd7dd8d9d465ab5771a6a2bc4ef074209c0ff9060200160405180910390a250600101610355565b505050565b5f6001828154811061044b5761044b6106c3565b5f918252602090912001546001600160a01b031692915050565b5f546001600160a01b0316331461048e5760405162461bcd60e51b815260040161020e906106d7565b60015482106104cf5760405162461bcd60e51b815260206004820152600d60248201526c092dcecc2d8d2c840d2dcc8caf609b1b604482015260640161020e565b5f600183815481106104e3576104e36106c3565b5f9182526020808320909101546040805163501ad8ff60e11b815290516001600160a01b039092169450849263a035b1fe926004808401938290030181865afa158015610532573d5f803e3d5ffd5b505050506040513d601f19601f8201168201806040525081019061055691906106fe565b604051638d6cc56d60e01b8152600481018590529091506001600160a01b03831690638d6cc56d906024015f604051808303815f87803b158015610598575f80fd5b505af11580156105aa573d5f803e3d5ffd5b505060408051848152602081018790526001600160a01b03861693507fb556fac599c3c70efb9ab1fa725ecace6c81cc48d1455f886607def065f3e0c092500160405180910390a250505050565b60018181548110610607575f80fd5b5f918252602090912001546001600160a01b0316905081565b6102158061071683390190565b602080825282518282018190525f918401906040840190835b8181101561066d5783516001600160a01b0316835260209384019390920191600101610646565b509095945050505050565b5f60208284031215610688575f80fd5b5035919050565b5f80604083850312156106a0575f80fd5b50508035926020909101359150565b634e487b7160e01b5f52604160045260245ffd5b634e487b7160e01b5f52603260045260245ffd5b6020808252600d908201526c2737ba103a34329037bbb732b960991b604082015260600190565b5f6020828403121561070e575f80fd5b505191905056fe6080604052348015600e575f80fd5b50604051610215380380610215833981016040819052602b916053565b5f91909155600180546001600160a01b0319166001600160a01b03909216919091179055608b565b5f80604083850312156063575f80fd5b825160208401519092506001600160a01b03811681146080575f80fd5b809150509250929050565b61017d806100985f395ff3fe608060405234801561000f575f80fd5b506004361061003f575f3560e01c80638d6cc56d146100435780638da5cb5b14610058578063a035b1fe14610088575b5f80fd5b610056610051366004610130565b61009e565b005b60015461006b906001600160a01b031681565b6040516001600160a01b0390911681526020015b60405180910390f35b6100905f5481565b60405190815260200161007f565b6001546001600160a01b031633146100ec5760405162461bcd60e51b815260206004820152600d60248201526c2737ba103a34329037bbb732b960991b604482015260640160405180910390fd5b5f80549082905560408051828152602081018490527f945c1c4e99aa89f648fbfe3df471b916f719e16d960fcec0737d4d56bd696838910160405180910390a15050565b5f60208284031215610140575f80fd5b503591905056fea26469706673582212202e9c76be6bdd9518f484b713caabd27065c850ab7cdd95d56c845522fd42b0f064736f6c634300081a0033a26469706673582212204ef0f3ecc4461279f36e8f4fe369bf004337734eee742ea3cc28ff0a8388678d64736f6c634300081a0033",
					"opcodes": "PUSH1 0x80 PUSH1 0x40 MSTORE CALLVALUE DUP1 ISZERO PUSH1 0xE JUMPI PUSH0 DUP1 REVERT JUMPDEST POP PUSH0 DUP1 SLOAD PUSH1 0x1 PUSH1 0x1 PUSH1 0xA0 SHL SUB NOT AND CALLER OR SWAP1 SSTORE PUSH2 0x960 DUP1 PUSH2 0x2D PUSH0 CODECOPY PUSH0 RETURN INVALID PUSH1 0x80 PUSH1 0x40 MSTORE CALLVALUE DUP1 ISZERO PUSH2 0xF JUMPI PUSH0 DUP1 REVERT JUMPDEST POP PUSH1 0x4 CALLDATASIZE LT PUSH2 0x7A JUMPI PUSH0 CALLDATALOAD PUSH1 0xE0 SHR DUP1 PUSH4 0x8DA5CB5B GT PUSH2 0x58 JUMPI DUP1 PUSH4 0x8DA5CB5B EQ PUSH2 0xC4 JUMPI DUP1 PUSH4 0x9507D39A EQ PUSH2 0xEE JUMPI DUP1 PUSH4 0x9FD80934 EQ PUSH2 0x101 JUMPI DUP1 PUSH4 0xC22C4F43 EQ PUSH2 0x114 JUMPI PUSH0 DUP1 REVERT JUMPDEST DUP1 PUSH4 0x21FE0F30 EQ PUSH2 0x7E JUMPI DUP1 PUSH4 0x304F90BB EQ PUSH2 0x9C JUMPI DUP1 PUSH4 0x3B8B26A6 EQ PUSH2 0xB1 JUMPI JUMPDEST PUSH0 DUP1 REVERT JUMPDEST PUSH2 0x86 PUSH2 0x127 JUMP JUMPDEST PUSH1 0x40 MLOAD PUSH2 0x93 SWAP2 SWAP1 PUSH2 0x62D JUMP JUMPDEST PUSH1 0x40 MLOAD DUP1 SWAP2 SUB SWAP1 RETURN JUMPDEST PUSH2 0xAF PUSH2 0xAA CALLDATASIZE PUSH1 0x4 PUSH2 0x678 JUMP JUMPDEST PUSH2 0x1E5 JUMP JUMPDEST STOP JUMPDEST PUSH2 0xAF PUSH2 0xBF CALLDATASIZE PUSH1 0x4 PUSH2 0x68F JUMP JUMPDEST PUSH2 0x2E7 JUMP JUMPDEST PUSH0 SLOAD PUSH2 0xD6 SWAP1 PUSH1 0x1 PUSH1 0x1 PUSH1 0xA0 SHL SUB AND DUP2 JUMP JUMPDEST PUSH1 0x40 MLOAD PUSH1 0x1 PUSH1 0x1 PUSH1 0xA0 SHL SUB SWAP1 SWAP2 AND DUP2 MSTORE PUSH1 0x20 ADD PUSH2 0x93 JUMP JUMPDEST PUSH2 0xD6 PUSH2 0xFC CALLDATASIZE PUSH1 0x4 PUSH2 0x678 JUMP JUMPDEST PUSH2 0x437 JUMP JUMPDEST PUSH2 0xAF PUSH2 0x10F CALLDATASIZE PUSH1 0x4 PUSH2 0x68F JUMP JUMPDEST PUSH2 0x465 JUMP JUMPDEST PUSH2 0xD6 PUSH2 0x122 CALLDATASIZE PUSH1 0x4 PUSH2 0x678 JUMP JUMPDEST PUSH2 0x5F8 JUMP JUMPDEST PUSH1 0x1 SLOAD PUSH1 0x60 SWAP1 PUSH0 SWAP1 PUSH8 0xFFFFFFFFFFFFFFFF DUP2 GT ISZERO PUSH2 0x147 JUMPI PUSH2 0x147 PUSH2 0x6AF JUMP JUMPDEST PUSH1 0x40 MLOAD SWAP1 DUP1 DUP3 MSTORE DUP1 PUSH1 0x20 MUL PUSH1 0x20 ADD DUP3 ADD PUSH1 0x40 MSTORE DUP1 ISZERO PUSH2 0x170 JUMPI DUP2 PUSH1 0x20 ADD PUSH1 0x20 DUP3 MUL DUP1 CALLDATASIZE DUP4 CALLDATACOPY ADD SWAP1 POP JUMPDEST POP SWAP1 POP PUSH0 JUMPDEST PUSH1 0x1 SLOAD DUP2 LT ISZERO PUSH2 0x1DF JUMPI PUSH1 0x1 DUP2 DUP2 SLOAD DUP2 LT PUSH2 0x192 JUMPI PUSH2 0x192 PUSH2 0x6C3 JUMP JUMPDEST SWAP1 PUSH0 MSTORE PUSH1 0x20 PUSH0 KECCAK256 ADD PUSH0 SWAP1 SLOAD SWAP1 PUSH2 0x100 EXP SWAP1 DIV PUSH1 0x1 PUSH1 0x1 PUSH1 0xA0 SHL SUB AND DUP3 DUP3 DUP2 MLOAD DUP2 LT PUSH2 0x1BF JUMPI PUSH2 0x1BF PUSH2 0x6C3 JUMP JUMPDEST PUSH1 0x1 PUSH1 0x1 PUSH1 0xA0 SHL SUB SWAP1 SWAP3 AND PUSH1 0x20 SWAP3 DUP4 MUL SWAP2 SWAP1 SWAP2 ADD SWAP1 SWAP2 ADD MSTORE PUSH1 0x1 ADD PUSH2 0x175 JUMP JUMPDEST POP SWAP2 SWAP1 POP JUMP JUMPDEST PUSH0 SLOAD PUSH1 0x1 PUSH1 0x1 PUSH1 0xA0 SHL SUB AND CALLER EQ PUSH2 0x217 JUMPI PUSH1 0x40 MLOAD PUSH3 0x461BCD PUSH1 0xE5 SHL DUP2 MSTORE PUSH1 0x4 ADD PUSH2 0x20E SWAP1 PUSH2 0x6D7 JUMP JUMPDEST PUSH1 0x40 MLOAD DUP1 SWAP2 SUB SWAP1 REVERT JUMPDEST PUSH0 DUP1 SLOAD PUSH1 0x40 MLOAD DUP4 SWAP2 PUSH1 0x1 PUSH1 0x1 PUSH1 0xA0 SHL SUB AND SWAP1 PUSH2 0x232 SWAP1 PUSH2 0x620 JUMP JUMPDEST SWAP2 DUP3 MSTORE PUSH1 0x1 PUSH1 0x1 PUSH1 0xA0 SHL SUB AND PUSH1 0x20 DUP3 ADD MSTORE PUSH1 0x40 ADD PUSH1 0x40 MLOAD DUP1 SWAP2 SUB SWAP1 PUSH0 CREATE DUP1 ISZERO DUP1 ISZERO PUSH2 0x25F JUMPI RETURNDATASIZE PUSH0 DUP1 RETURNDATACOPY RETURNDATASIZE PUSH0 REVERT JUMPDEST POP PUSH1 0x1 DUP1 SLOAD DUP1 DUP3 ADD DUP3 SSTORE PUSH0 SWAP2 SWAP1 SWAP2 MSTORE PUSH32 0xB10E2D527612073B26EECDFD717E6A320CF44B4AFAC2B0732D9FCBE2B7FA0CF6 ADD DUP1 SLOAD PUSH1 0x1 PUSH1 0x1 PUSH1 0xA0 SHL SUB NOT AND PUSH1 0x1 PUSH1 0x1 PUSH1 0xA0 SHL SUB DUP4 AND SWAP1 DUP2 OR SWAP1 SWAP2 SSTORE PUSH1 0x40 MLOAD DUP5 DUP2 MSTORE SWAP2 SWAP3 POP SWAP1 PUSH32 0xDEE7F9F5D5947A9C6657741A7B8CD7DD8D9D465AB5771A6A2BC4EF074209C0FF SWAP1 PUSH1 0x20 ADD PUSH1 0x40 MLOAD DUP1 SWAP2 SUB SWAP1 LOG2 POP POP JUMP JUMPDEST PUSH0 SLOAD PUSH1 0x1 PUSH1 0x1 PUSH1 0xA0 SHL SUB AND CALLER EQ PUSH2 0x310 JUMPI PUSH1 0x40 MLOAD PUSH3 0x461BCD PUSH1 0xE5 SHL DUP2 MSTORE PUSH1 0x4 ADD PUSH2 0x20E SWAP1 PUSH2 0x6D7 JUMP JUMPDEST PUSH0 DUP2 GT PUSH2 0x353 JUMPI PUSH1 0x40 MLOAD PUSH3 0x461BCD PUSH1 0xE5 SHL DUP2 MSTORE PUSH1 0x20 PUSH1 0x4 DUP3 ADD MSTORE PUSH1 0x11 PUSH1 0x24 DUP3 ADD MSTORE PUSH17 0x436F756E74206D757374206265203E203 PUSH1 0x7C SHL PUSH1 0x44 DUP3 ADD MSTORE PUSH1 0x64 ADD PUSH2 0x20E JUMP JUMPDEST PUSH0 JUMPDEST DUP2 DUP2 LT ISZERO PUSH2 0x432 JUMPI PUSH0 DUP1 SLOAD PUSH1 0x40 MLOAD DUP6 SWAP2 PUSH1 0x1 PUSH1 0x1 PUSH1 0xA0 SHL SUB AND SWAP1 PUSH2 0x378 SWAP1 PUSH2 0x620 JUMP JUMPDEST SWAP2 DUP3 MSTORE PUSH1 0x1 PUSH1 0x1 PUSH1 0xA0 SHL SUB AND PUSH1 0x20 DUP3 ADD MSTORE PUSH1 0x40 ADD PUSH1 0x40 MLOAD DUP1 SWAP2 SUB SWAP1 PUSH0 CREATE DUP1 ISZERO DUP1 ISZERO PUSH2 0x3A5 JUMPI RETURNDATASIZE PUSH0 DUP1 RETURNDATACOPY RETURNDATASIZE PUSH0 REVERT JUMPDEST POP PUSH1 0x1 DUP1 SLOAD DUP1 DUP3 ADD DUP3 SSTORE PUSH0 SWAP2 SWAP1 SWAP2 MSTORE PUSH32 0xB10E2D527612073B26EECDFD717E6A320CF44B4AFAC2B0732D9FCBE2B7FA0CF6 ADD DUP1 SLOAD PUSH1 0x1 PUSH1 0x1 PUSH1 0xA0 SHL SUB NOT AND PUSH1 0x1 PUSH1 0x1 PUSH1 0xA0 SHL SUB DUP4 AND SWAP1 DUP2 OR SWAP1 SWAP2 SSTORE PUSH1 0x40 MLOAD DUP7 DUP2 MSTORE SWAP2 SWAP3 POP SWAP1 PUSH32 0xDEE7F9F5D5947A9C6657741A7B8CD7DD8D9D465AB5771A6A2BC4EF074209C0FF SWAP1 PUSH1 0x20 ADD PUSH1 0x40 MLOAD DUP1 SWAP2 SUB SWAP1 LOG2 POP PUSH1 0x1 ADD PUSH2 0x355 JUMP JUMPDEST POP POP POP JUMP JUMPDEST PUSH0 PUSH1 0x1 DUP3 DUP2 SLOAD DUP2 LT PUSH2 0x44B JUMPI PUSH2 0x44B PUSH2 0x6C3 JUMP JUMPDEST PUSH0 SWAP2 DUP3 MSTORE PUSH1 0x20 SWAP1 SWAP2 KECCAK256 ADD SLOAD PUSH1 0x1 PUSH1 0x1 PUSH1 0xA0 SHL SUB AND SWAP3 SWAP2 POP POP JUMP JUMPDEST PUSH0 SLOAD PUSH1 0x1 PUSH1 0x1 PUSH1 0xA0 SHL SUB AND CALLER EQ PUSH2 0x48E JUMPI PUSH1 0x40 MLOAD PUSH3 0x461BCD PUSH1 0xE5 SHL DUP2 MSTORE PUSH1 0x4 ADD PUSH2 0x20E SWAP1 PUSH2 0x6D7 JUMP JUMPDEST PUSH1 0x1 SLOAD DUP3 LT PUSH2 0x4CF JUMPI PUSH1 0x40 MLOAD PUSH3 0x461BCD PUSH1 0xE5 SHL DUP2 MSTORE PUSH1 0x20 PUSH1 0x4 DUP3 ADD MSTORE PUSH1 0xD PUSH1 0x24 DUP3 ADD MSTORE PUSH13 0x92DCECC2D8D2C840D2DCC8CAF PUSH1 0x9B SHL PUSH1 0x44 DUP3 ADD MSTORE PUSH1 0x64 ADD PUSH2 0x20E JUMP JUMPDEST PUSH0 PUSH1 0x1 DUP4 DUP2 SLOAD DUP2 LT PUSH2 0x4E3 JUMPI PUSH2 0x4E3 PUSH2 0x6C3 JUMP JUMPDEST PUSH0 SWAP2 DUP3 MSTORE PUSH1 0x20 DUP1 DUP4 KECCAK256 SWAP1 SWAP2 ADD SLOAD PUSH1 0x40 DUP1 MLOAD PUSH4 0x501AD8FF PUSH1 0xE1 SHL DUP2 MSTORE SWAP1 MLOAD PUSH1 0x1 PUSH1 0x1 PUSH1 0xA0 SHL SUB SWAP1 SWAP3 AND SWAP5 POP DUP5 SWAP3 PUSH4 0xA035B1FE SWAP3 PUSH1 0x4 DUP1 DUP5 ADD SWAP4 DUP3 SWAP1 SUB ADD DUP2 DUP7 GAS STATICCALL ISZERO DUP1 ISZERO PUSH2 0x532 JUMPI RETURNDATASIZE PUSH0 DUP1 RETURNDATACOPY RETURNDATASIZE PUSH0 REVERT JUMPDEST POP POP POP POP PUSH1 0x40 MLOAD RETURNDATASIZE PUSH1 0x1F NOT PUSH1 0x1F DUP3 ADD AND DUP3 ADD DUP1 PUSH1 0x40 MSTORE POP DUP2 ADD SWAP1 PUSH2 0x556 SWAP2 SWAP1 PUSH2 0x6FE JUMP JUMPDEST PUSH1 0x40 MLOAD PUSH4 0x8D6CC56D PUSH1 0xE0 SHL DUP2 MSTORE PUSH1 0x4 DUP2 ADD DUP6 SWAP1 MSTORE SWAP1 SWAP2 POP PUSH1 0x1 PUSH1 0x1 PUSH1 0xA0 SHL SUB DUP4 AND SWAP1 PUSH4 0x8D6CC56D SWAP1 PUSH1 0x24 ADD PUSH0 PUSH1 0x40 MLOAD DUP1 DUP4 SUB DUP2 PUSH0 DUP8 DUP1 EXTCODESIZE ISZERO DUP1 ISZERO PUSH2 0x598 JUMPI PUSH0 DUP1 REVERT JUMPDEST POP GAS CALL ISZERO DUP1 ISZERO PUSH2 0x5AA JUMPI RETURNDATASIZE PUSH0 DUP1 RETURNDATACOPY RETURNDATASIZE PUSH0 REVERT JUMPDEST POP POP PUSH1 0x40 DUP1 MLOAD DUP5 DUP2 MSTORE PUSH1 0x20 DUP2 ADD DUP8 SWAP1 MSTORE PUSH1 0x1 PUSH1 0x1 PUSH1 0xA0 SHL SUB DUP7 AND SWAP4 POP PUSH32 0xB556FAC599C3C70EFB9AB1FA725ECACE6C81CC48D1455F886607DEF065F3E0C0 SWAP3 POP ADD PUSH1 0x40 MLOAD DUP1 SWAP2 SUB SWAP1 LOG2 POP POP POP POP JUMP JUMPDEST PUSH1 0x1 DUP2 DUP2 SLOAD DUP2 LT PUSH2 0x607 JUMPI PUSH0 DUP1 REVERT JUMPDEST PUSH0 SWAP2 DUP3 MSTORE PUSH1 0x20 SWAP1 SWAP2 KECCAK256 ADD SLOAD PUSH1 0x1 PUSH1 0x1 PUSH1 0xA0 SHL SUB AND SWAP1 POP DUP2 JUMP JUMPDEST PUSH2 0x215 DUP1 PUSH2 0x716 DUP4 CODECOPY ADD SWAP1 JUMP JUMPDEST PUSH1 0x20 DUP1 DUP3 MSTORE DUP3 MLOAD DUP3 DUP3 ADD DUP2 SWAP1 MSTORE PUSH0 SWAP2 DUP5 ADD SWAP1 PUSH1 0x40 DUP5 ADD SWAP1 DUP4 JUMPDEST DUP2 DUP2 LT ISZERO PUSH2 0x66D JUMPI DUP4 MLOAD PUSH1 0x1 PUSH1 0x1 PUSH1 0xA0 SHL SUB AND DUP4 MSTORE PUSH1 0x20 SWAP4 DUP5 ADD SWAP4 SWAP1 SWAP3 ADD SWAP2 PUSH1 0x1 ADD PUSH2 0x646 JUMP JUMPDEST POP SWAP1 SWAP6 SWAP5 POP POP POP POP POP JUMP JUMPDEST PUSH0 PUSH1 0x20 DUP3 DUP5 SUB SLT ISZERO PUSH2 0x688 JUMPI PUSH0 DUP1 REVERT JUMPDEST POP CALLDATALOAD SWAP2 SWAP1 POP JUMP JUMPDEST PUSH0 DUP1 PUSH1 0x40 DUP4 DUP6 SUB SLT ISZERO PUSH2 0x6A0 JUMPI PUSH0 DUP1 REVERT JUMPDEST POP POP DUP1 CALLDATALOAD SWAP3 PUSH1 0x20 SWAP1 SWAP2 ADD CALLDATALOAD SWAP2 POP JUMP JUMPDEST PUSH4 0x4E487B71 PUSH1 0xE0 SHL PUSH0 MSTORE PUSH1 0x41 PUSH1 0x4 MSTORE PUSH1 0x24 PUSH0 REVERT JUMPDEST PUSH4 0x4E487B71 PUSH1 0xE0 SHL PUSH0 MSTORE PUSH1 0x32 PUSH1 0x4 MSTORE PUSH1 0x24 PUSH0 REVERT JUMPDEST PUSH1 0x20 DUP1 DUP3 MSTORE PUSH1 0xD SWAP1 DUP3 ADD MSTORE PUSH13 0x2737BA103A34329037BBB732B9 PUSH1 0x99 SHL PUSH1 0x40 DUP3 ADD MSTORE PUSH1 0x60 ADD SWAP1 JUMP JUMPDEST PUSH0 PUSH1 0x20 DUP3 DUP5 SUB SLT ISZERO PUSH2 0x70E JUMPI PUSH0 DUP1 REVERT JUMPDEST POP MLOAD SWAP2 SWAP1 POP JUMP INVALID PUSH1 0x80 PUSH1 0x40 MSTORE CALLVALUE DUP1 ISZERO PUSH1 0xE JUMPI PUSH0 DUP1 REVERT JUMPDEST POP PUSH1 0x40 MLOAD PUSH2 0x215 CODESIZE SUB DUP1 PUSH2 0x215 DUP4 CODECOPY DUP2 ADD PUSH1 0x40 DUP2 SWAP1 MSTORE PUSH1 0x2B SWAP2 PUSH1 0x53 JUMP JUMPDEST PUSH0 SWAP2 SWAP1 SWAP2 SSTORE PUSH1 0x1 DUP1 SLOAD PUSH1 0x1 PUSH1 0x1 PUSH1 0xA0 SHL SUB NOT AND PUSH1 0x1 PUSH1 0x1 PUSH1 0xA0 SHL SUB SWAP1 SWAP3 AND SWAP2 SWAP1 SWAP2 OR SWAP1 SSTORE PUSH1 0x8B JUMP JUMPDEST PUSH0 DUP1 PUSH1 0x40 DUP4 DUP6 SUB SLT ISZERO PUSH1 0x63 JUMPI PUSH0 DUP1 REVERT JUMPDEST DUP3 MLOAD PUSH1 0x20 DUP5 ADD MLOAD SWAP1 SWAP3 POP PUSH1 0x1 PUSH1 0x1 PUSH1 0xA0 SHL SUB DUP2 AND DUP2 EQ PUSH1 0x80 JUMPI PUSH0 DUP1 REVERT JUMPDEST DUP1 SWAP2 POP POP SWAP3 POP SWAP3 SWAP1 POP JUMP JUMPDEST PUSH2 0x17D DUP1 PUSH2 0x98 PUSH0 CODECOPY PUSH0 RETURN INVALID PUSH1 0x80 PUSH1 0x40 MSTORE CALLVALUE DUP1 ISZERO PUSH2 0xF JUMPI PUSH0 DUP1 REVERT JUMPDEST POP PUSH1 0x4 CALLDATASIZE LT PUSH2 0x3F JUMPI PUSH0 CALLDATALOAD PUSH1 0xE0 SHR DUP1 PUSH4 0x8D6CC56D EQ PUSH2 0x43 JUMPI DUP1 PUSH4 0x8DA5CB5B EQ PUSH2 0x58 JUMPI DUP1 PUSH4 0xA035B1FE EQ PUSH2 0x88 JUMPI JUMPDEST PUSH0 DUP1 REVERT JUMPDEST PUSH2 0x56 PUSH2 0x51 CALLDATASIZE PUSH1 0x4 PUSH2 0x130 JUMP JUMPDEST PUSH2 0x9E JUMP JUMPDEST STOP JUMPDEST PUSH1 0x1 SLOAD PUSH2 0x6B SWAP1 PUSH1 0x1 PUSH1 0x1 PUSH1 0xA0 SHL SUB AND DUP2 JUMP JUMPDEST PUSH1 0x40 MLOAD PUSH1 0x1 PUSH1 0x1 PUSH1 0xA0 SHL SUB SWAP1 SWAP2 AND DUP2 MSTORE PUSH1 0x20 ADD JUMPDEST PUSH1 0x40 MLOAD DUP1 SWAP2 SUB SWAP1 RETURN JUMPDEST PUSH2 0x90 PUSH0 SLOAD DUP2 JUMP JUMPDEST PUSH1 0x40 MLOAD SWAP1 DUP2 MSTORE PUSH1 0x20 ADD PUSH2 0x7F JUMP JUMPDEST PUSH1 0x1 SLOAD PUSH1 0x1 PUSH1 0x1 PUSH1 0xA0 SHL SUB AND CALLER EQ PUSH2 0xEC JUMPI PUSH1 0x40 MLOAD PUSH3 0x461BCD PUSH1 0xE5 SHL DUP2 MSTORE PUSH1 0x20 PUSH1 0x4 DUP3 ADD MSTORE PUSH1 0xD PUSH1 0x24 DUP3 ADD MSTORE PUSH13 0x2737BA103A34329037BBB732B9 PUSH1 0x99 SHL PUSH1 0x44 DUP3 ADD MSTORE PUSH1 0x64 ADD PUSH1 0x40 MLOAD DUP1 SWAP2 SUB SWAP1 REVERT JUMPDEST PUSH0 DUP1 SLOAD SWAP1 DUP3 SWAP1 SSTORE PUSH1 0x40 DUP1 MLOAD DUP3 DUP2 MSTORE PUSH1 0x20 DUP2 ADD DUP5 SWAP1 MSTORE PUSH32 0x945C1C4E99AA89F648FBFE3DF471B916F719E16D960FCEC0737D4D56BD696838 SWAP2 ADD PUSH1 0x40 MLOAD DUP1 SWAP2 SUB SWAP1 LOG1 POP POP JUMP JUMPDEST PUSH0 PUSH1 0x20 DUP3 DUP5 SUB SLT ISZERO PUSH2 0x140 JUMPI PUSH0 DUP1 REVERT JUMPDEST POP CALLDATALOAD SWAP2 SWAP1 POP JUMP INVALID LOG2 PUSH5 0x6970667358 0x22 SLT KECCAK256 0x2E SWAP13 PUSH23 0xBE6BDD9518F484B713CAABD27065C850AB7CDD95D56C84 SSTORE 0x22 REVERT TIMESTAMP 0xB0 CREATE PUSH5 0x736F6C6343 STOP ADDMOD BYTE STOP CALLER LOG2 PUSH5 0x6970667358 0x22 SLT KECCAK256 0x4E CREATE RETURN 0xEC 0xC4 CHAINID SLT PUSH26 0xF36E8F4FE369BF004337734EEE742EA3CC28FF0A8388678D6473 PUSH16 0x6C634300081A00330000000000000000 "
				},
				"gasEstimates": {
					"creation": {
						"codeDepositCost": "480000",
						"executionCost": "24743",
						"totalCost": "504743"
					},
					"external": {
						"addService(uint256)": "infinite",
						"deployAll(uint256,uint256)": "infinite",
						"get(uint256)": "4637",
						"getAllServices()": "infinite",
						"owner()": "2335",
						"services(uint256)": "4677",
						"updateServicePrice(uint256,uint256)": "infinite"
					}
				},
				"methodIdentifiers": {
					"addService(uint256)": "304f90bb",
					"deployAll(uint256,uint256)": "3b8b26a6",
					"get(uint256)": "9507d39a",
					"getAllServices()": "21fe0f30",
					"owner()": "8da5cb5b",
					"services(uint256)": "c22c4f43",
					"updateServicePrice(uint256,uint256)": "9fd80934"
				}
			},
			"storageLayout": {
				"storage": [
					{
						"astId": 60,
						"contract": "newt.sol:BatchDeploySubscriptions",
						"label": "owner",
						"offset": 0,
						"slot": "0",
						"type": "t_address"
					},
					{
						"astId": 64,
						"contract": "newt.sol:BatchDeploySubscriptions",
						"label": "services",
						"offset": 0,
						"slot": "1",
						"type": "t_array(t_contract(Subscription)57)dyn_storage"
					}
				],
				"types": {
					"t_address": {
						"encoding": "inplace",
						"label": "address",
						"numberOfBytes": "20"
					},
					"t_array(t_contract(Subscription)57)dyn_storage": {
						"base": "t_contract(Subscription)57",
						"encoding": "dynamic_array",
						"label": "contract Subscription[]",
						"numberOfBytes": "32"
					},
					"t_contract(Subscription)57": {
						"encoding": "inplace",
						"label": "contract Subscription",
						"numberOfBytes": "20"
					}
				}
			},
			"userdoc": {
				"kind": "user",
				"methods": {
					"addService(uint256)": {
						"notice": "Add a single service later"
					},
					"deployAll(uint256,uint256)": {
						"notice": "Deploy multiple services at once"
					},
					"get(uint256)": {
						"notice": "Get service address by index"
					},
					"getAllServices()": {
						"notice": "Get all deployed services"
					},
					"updateServicePrice(uint256,uint256)": {
						"notice": "Update price for a specific service"
					}
				},
				"version": 1
			}
		}
	}
}