{
	"greetersomn.sol": {
		"Greeter": {
			"abi": [
				{
					"inputs": [
						{
							"internalType": "string",
							"name": "_initialName",
							"type": "string"
						}
					],
					"stateMutability": "nonpayable",
					"type": "constructor"
				},
				{
					"anonymous": false,
					"inputs": [
						{
							"indexed": false,
							"internalType": "string",
							"name": "oldName",
							"type": "string"
						},
						{
							"indexed": false,
							"internalType": "string",
							"name": "newName",
							"type": "string"
						}
					],
					"name": "NameChanged",
					"type": "event"
				},
				{
					"inputs": [
						{
							"internalType": "string",
							"name": "_newName",
							"type": "string"
						}
					],
					"name": "changeName",
					"outputs": [],
					"stateMutability": "nonpayable",
					"type": "function"
				},
				{
					"inputs": [],
					"name": "greet",
					"outputs": [
						{
							"internalType": "string",
							"name": "",
							"type": "string"
						}
					],
					"stateMutability": "view",
					"type": "function"
				},
				{
					"inputs": [],
					"name": "name",
					"outputs": [
						{
							"internalType": "string",
							"name": "",
							"type": "string"
						}
					],
					"stateMutability": "view",
					"type": "function"
				},
				{
					"inputs": [],
					"name": "owner",
					"outputs": [
						{
							"internalType": "address",
							"name": "",
							"type": "address"
						}
					],
					"stateMutability": "view",
					"type": "function"
				}
			],
			"devdoc": {
				"kind": "dev",
				"methods": {},
				"version": 1
			},
			"evm": {
				"assembly": "    /* \"greetersomn.sol\":61:770  contract Greeter {... */\n  mstore(0x40, 0x80)\n    /* \"greetersomn.sol\":331:438  constructor(string memory _initialName) {... */\n  callvalue\n  dup1\n  iszero\n  tag_1\n  jumpi\n  0x00\n  dup1\n  revert\ntag_1:\n  pop\n  mload(0x40)\n  sub(codesize, bytecodeSize)\n  dup1\n  bytecodeSize\n  dup4\n  codecopy\n  dup2\n  add\n  0x40\n  dup2\n  swap1\n  mstore\n  tag_2\n  swap2\n  tag_3\n  jump\t// in\ntag_2:\n    /* \"greetersomn.sol\":382:386  name */\n  0x00\n    /* \"greetersomn.sol\":382:401  name = _initialName */\n  tag_6\n    /* \"greetersomn.sol\":389:401  _initialName */\n  dup3\n    /* \"greetersomn.sol\":382:386  name */\n  dup3\n    /* \"greetersomn.sol\":382:401  name = _initialName */\n  tag_7\n  jump\t// in\ntag_6:\n  pop\n  pop\n    /* \"greetersomn.sol\":412:417  owner */\n  0x01\n    /* \"greetersomn.sol\":412:430  owner = msg.sender */\n  dup1\n  sload\n  not(sub(shl(0xa0, 0x01), 0x01))\n  and\n    /* \"greetersomn.sol\":420:430  msg.sender */\n  caller\n    /* \"greetersomn.sol\":412:430  owner = msg.sender */\n  or\n  swap1\n  sstore\n    /* \"greetersomn.sol\":61:770  contract Greeter {... */\n  jump(tag_14)\n    /* \"#utility.yul\":14:141   */\ntag_9:\n    /* \"#utility.yul\":75:85   */\n  0x4e487b71\n    /* \"#utility.yul\":70:73   */\n  0xe0\n    /* \"#utility.yul\":66:86   */\n  shl\n    /* \"#utility.yul\":63:64   */\n  0x00\n    /* \"#utility.yul\":56:87   */\n  mstore\n    /* \"#utility.yul\":106:110   */\n  0x41\n    /* \"#utility.yul\":103:104   */\n  0x04\n    /* \"#utility.yul\":96:111   */\n  mstore\n    /* \"#utility.yul\":130:134   */\n  0x24\n    /* \"#utility.yul\":127:128   */\n  0x00\n    /* \"#utility.yul\":120:135   */\n  revert\n    /* \"#utility.yul\":146:1081   */\ntag_3:\n    /* \"#utility.yul\":226:232   */\n  0x00\n    /* \"#utility.yul\":279:281   */\n  0x20\n    /* \"#utility.yul\":267:276   */\n  dup3\n    /* \"#utility.yul\":258:265   */\n  dup5\n    /* \"#utility.yul\":254:277   */\n  sub\n    /* \"#utility.yul\":250:282   */\n  slt\n    /* \"#utility.yul\":247:299   */\n  iszero\n  tag_17\n  jumpi\n    /* \"#utility.yul\":295:296   */\n  0x00\n    /* \"#utility.yul\":292:293   */\n  dup1\n    /* \"#utility.yul\":285:297   */\n  revert\n    /* \"#utility.yul\":247:299   */\ntag_17:\n    /* \"#utility.yul\":322:338   */\n  dup2\n  mload\n  sub(shl(0x40, 0x01), 0x01)\n    /* \"#utility.yul\":350:380   */\n  dup2\n  gt\n    /* \"#utility.yul\":347:397   */\n  iszero\n  tag_18\n  jumpi\n    /* \"#utility.yul\":393:394   */\n  0x00\n    /* \"#utility.yul\":390:391   */\n  dup1\n    /* \"#utility.yul\":383:395   */\n  revert\n    /* \"#utility.yul\":347:397   */\ntag_18:\n    /* \"#utility.yul\":416:438   */\n  dup3\n  add\n    /* \"#utility.yul\":469:473   */\n  0x1f\n    /* \"#utility.yul\":461:474   */\n  dup2\n  add\n    /* \"#utility.yul\":457:484   */\n  dup5\n  sgt\n    /* \"#utility.yul\":447:502   */\n  tag_19\n  jumpi\n    /* \"#utility.yul\":498:499   */\n  0x00\n    /* \"#utility.yul\":495:496   */\n  dup1\n    /* \"#utility.yul\":488:500   */\n  revert\n    /* \"#utility.yul\":447:502   */\ntag_19:\n    /* \"#utility.yul\":525:534   */\n  dup1\n  mload\n  sub(shl(0x40, 0x01), 0x01)\n    /* \"#utility.yul\":546:576   */\n  dup2\n  gt\n    /* \"#utility.yul\":543:599   */\n  iszero\n  tag_21\n  jumpi\n    /* \"#utility.yul\":579:597   */\n  tag_21\n  tag_9\n  jump\t// in\ntag_21:\n    /* \"#utility.yul\":628:630   */\n  0x40\n    /* \"#utility.yul\":622:631   */\n  mload\n    /* \"#utility.yul\":720:722   */\n  0x1f\n    /* \"#utility.yul\":682:699   */\n  dup3\n  add\n  not(0x1f)\n    /* \"#utility.yul\":678:709   */\n  swap1\n  dup2\n  and\n    /* \"#utility.yul\":711:713   */\n  0x3f\n    /* \"#utility.yul\":674:714   */\n  add\n    /* \"#utility.yul\":670:724   */\n  and\n    /* \"#utility.yul\":658:725   */\n  dup2\n  add\n  sub(shl(0x40, 0x01), 0x01)\n    /* \"#utility.yul\":740:774   */\n  dup2\n  gt\n    /* \"#utility.yul\":776:798   */\n  dup3\n  dup3\n  lt\n    /* \"#utility.yul\":737:799   */\n  or\n    /* \"#utility.yul\":734:822   */\n  iszero\n  tag_23\n  jumpi\n    /* \"#utility.yul\":802:820   */\n  tag_23\n  tag_9\n  jump\t// in\ntag_23:\n    /* \"#utility.yul\":838:840   */\n  0x40\n    /* \"#utility.yul\":831:853   */\n  mstore\n    /* \"#utility.yul\":862:884   */\n  dup2\n  dup2\n  mstore\n    /* \"#utility.yul\":903:918   */\n  dup3\n  dup3\n  add\n    /* \"#utility.yul\":920:922   */\n  0x20\n    /* \"#utility.yul\":899:923   */\n  add\n    /* \"#utility.yul\":896:933   */\n  dup7\n  lt\n    /* \"#utility.yul\":893:950   */\n  iszero\n  tag_24\n  jumpi\n    /* \"#utility.yul\":946:947   */\n  0x00\n    /* \"#utility.yul\":943:944   */\n  dup1\n    /* \"#utility.yul\":936:948   */\n  revert\n    /* \"#utility.yul\":893:950   */\ntag_24:\n    /* \"#utility.yul\":995:1001   */\n  dup2\n    /* \"#utility.yul\":990:992   */\n  0x20\n    /* \"#utility.yul\":986:988   */\n  dup5\n    /* \"#utility.yul\":982:993   */\n  add\n    /* \"#utility.yul\":977:979   */\n  0x20\n    /* \"#utility.yul\":969:975   */\n  dup4\n    /* \"#utility.yul\":965:980   */\n  add\n    /* \"#utility.yul\":959:1002   */\n  mcopy\n    /* \"#utility.yul\":1048:1049   */\n  0x00\n    /* \"#utility.yul\":1022:1041   */\n  swap2\n  dup2\n  add\n    /* \"#utility.yul\":1043:1045   */\n  0x20\n    /* \"#utility.yul\":1018:1046   */\n  add\n    /* \"#utility.yul\":1011:1050   */\n  swap2\n  swap1\n  swap2\n  mstore\n    /* \"#utility.yul\":1026:1032   */\n  swap5\n    /* \"#utility.yul\":146:1081   */\n  swap4\n  pop\n  pop\n  pop\n  pop\n  jump\t// out\n    /* \"#utility.yul\":1086:1466   */\ntag_10:\n    /* \"#utility.yul\":1165:1166   */\n  0x01\n    /* \"#utility.yul\":1161:1173   */\n  dup2\n  dup2\n  shr\n  swap1\n    /* \"#utility.yul\":1208:1220   */\n  dup3\n  and\n  dup1\n    /* \"#utility.yul\":1229:1290   */\n  tag_26\n  jumpi\n    /* \"#utility.yul\":1283:1287   */\n  0x7f\n    /* \"#utility.yul\":1275:1281   */\n  dup3\n    /* \"#utility.yul\":1271:1288   */\n  and\n    /* \"#utility.yul\":1261:1288   */\n  swap2\n  pop\n    /* \"#utility.yul\":1229:1290   */\ntag_26:\n    /* \"#utility.yul\":1336:1338   */\n  0x20\n    /* \"#utility.yul\":1328:1334   */\n  dup3\n    /* \"#utility.yul\":1325:1339   */\n  lt\n    /* \"#utility.yul\":1305:1323   */\n  dup2\n    /* \"#utility.yul\":1302:1340   */\n  sub\n    /* \"#utility.yul\":1299:1460   */\n  tag_27\n  jumpi\n    /* \"#utility.yul\":1382:1392   */\n  0x4e487b71\n    /* \"#utility.yul\":1377:1380   */\n  0xe0\n    /* \"#utility.yul\":1373:1393   */\n  shl\n    /* \"#utility.yul\":1370:1371   */\n  0x00\n    /* \"#utility.yul\":1363:1394   */\n  mstore\n    /* \"#utility.yul\":1417:1421   */\n  0x22\n    /* \"#utility.yul\":1414:1415   */\n  0x04\n    /* \"#utility.yul\":1407:1422   */\n  mstore\n    /* \"#utility.yul\":1445:1449   */\n  0x24\n    /* \"#utility.yul\":1442:1443   */\n  0x00\n    /* \"#utility.yul\":1435:1450   */\n  revert\n    /* \"#utility.yul\":1299:1460   */\ntag_27:\n  pop\n    /* \"#utility.yul\":1086:1466   */\n  swap2\n  swap1\n  pop\n  jump\t// out\n    /* \"#utility.yul\":1597:2115   */\ntag_12:\n    /* \"#utility.yul\":1699:1701   */\n  0x1f\n    /* \"#utility.yul\":1694:1697   */\n  dup3\n    /* \"#utility.yul\":1691:1702   */\n  gt\n    /* \"#utility.yul\":1688:2109   */\n  iszero\n  tag_30\n  jumpi\n    /* \"#utility.yul\":1735:1740   */\n  dup1\n    /* \"#utility.yul\":1732:1733   */\n  0x00\n    /* \"#utility.yul\":1725:1741   */\n  mstore\n    /* \"#utility.yul\":1779:1783   */\n  0x20\n    /* \"#utility.yul\":1776:1777   */\n  0x00\n    /* \"#utility.yul\":1766:1784   */\n  keccak256\n    /* \"#utility.yul\":1849:1851   */\n  0x1f\n    /* \"#utility.yul\":1837:1847   */\n  dup5\n    /* \"#utility.yul\":1833:1852   */\n  add\n    /* \"#utility.yul\":1830:1831   */\n  0x05\n    /* \"#utility.yul\":1826:1853   */\n  shr\n    /* \"#utility.yul\":1820:1824   */\n  dup2\n    /* \"#utility.yul\":1816:1854   */\n  add\n    /* \"#utility.yul\":1885:1889   */\n  0x20\n    /* \"#utility.yul\":1873:1883   */\n  dup6\n    /* \"#utility.yul\":1870:1890   */\n  lt\n    /* \"#utility.yul\":1867:1914   */\n  iszero\n  tag_31\n  jumpi\n  pop\n    /* \"#utility.yul\":1908:1912   */\n  dup1\n    /* \"#utility.yul\":1867:1914   */\ntag_31:\n    /* \"#utility.yul\":1963:1965   */\n  0x1f\n    /* \"#utility.yul\":1958:1961   */\n  dup5\n    /* \"#utility.yul\":1954:1966   */\n  add\n    /* \"#utility.yul\":1951:1952   */\n  0x05\n    /* \"#utility.yul\":1947:1967   */\n  shr\n    /* \"#utility.yul\":1941:1945   */\n  dup3\n    /* \"#utility.yul\":1937:1968   */\n  add\n    /* \"#utility.yul\":1927:1968   */\n  swap2\n  pop\n    /* \"#utility.yul\":2018:2099   */\ntag_32:\n    /* \"#utility.yul\":2036:2038   */\n  dup2\n    /* \"#utility.yul\":2029:2034   */\n  dup2\n    /* \"#utility.yul\":2026:2039   */\n  lt\n    /* \"#utility.yul\":2018:2099   */\n  iszero\n  tag_34\n  jumpi\n    /* \"#utility.yul\":2095:2096   */\n  0x00\n    /* \"#utility.yul\":2081:2097   */\n  dup2\n  sstore\n    /* \"#utility.yul\":2062:2063   */\n  0x01\n    /* \"#utility.yul\":2051:2064   */\n  add\n    /* \"#utility.yul\":2018:2099   */\n  jump(tag_32)\ntag_34:\n    /* \"#utility.yul\":2022:2025   */\n  pop\n  pop\n    /* \"#utility.yul\":1688:2109   */\ntag_30:\n    /* \"#utility.yul\":1597:2115   */\n  pop\n  pop\n  pop\n  jump\t// out\n    /* \"#utility.yul\":2291:3590   */\ntag_7:\n    /* \"#utility.yul\":2411:2421   */\n  dup2\n  mload\n  sub(shl(0x40, 0x01), 0x01)\n    /* \"#utility.yul\":2433:2463   */\n  dup2\n  gt\n    /* \"#utility.yul\":2430:2486   */\n  iszero\n  tag_38\n  jumpi\n    /* \"#utility.yul\":2466:2484   */\n  tag_38\n  tag_9\n  jump\t// in\ntag_38:\n    /* \"#utility.yul\":2495:2592   */\n  tag_39\n    /* \"#utility.yul\":2585:2591   */\n  dup2\n    /* \"#utility.yul\":2545:2583   */\n  tag_40\n    /* \"#utility.yul\":2577:2581   */\n  dup5\n    /* \"#utility.yul\":2571:2582   */\n  sload\n    /* \"#utility.yul\":2545:2583   */\n  tag_10\n  jump\t// in\ntag_40:\n    /* \"#utility.yul\":2539:2543   */\n  dup5\n    /* \"#utility.yul\":2495:2592   */\n  tag_12\n  jump\t// in\ntag_39:\n    /* \"#utility.yul\":2641:2645   */\n  0x20\n    /* \"#utility.yul\":2672:2674   */\n  0x1f\n    /* \"#utility.yul\":2661:2675   */\n  dup3\n  gt\n    /* \"#utility.yul\":2689:2690   */\n  0x01\n    /* \"#utility.yul\":2684:3333   */\n  dup2\n  eq\n  tag_42\n  jumpi\n    /* \"#utility.yul\":3377:3378   */\n  0x00\n    /* \"#utility.yul\":3394:3400   */\n  dup4\n    /* \"#utility.yul\":3391:3480   */\n  iszero\n  tag_43\n  jumpi\n  pop\n    /* \"#utility.yul\":3446:3465   */\n  dup5\n  dup3\n  add\n    /* \"#utility.yul\":3440:3466   */\n  mload\n    /* \"#utility.yul\":3391:3480   */\ntag_43:\n  not(0x00)\n    /* \"#utility.yul\":2248:2249   */\n  0x03\n    /* \"#utility.yul\":2244:2255   */\n  dup6\n  swap1\n  shl\n    /* \"#utility.yul\":2240:2264   */\n  shr\n    /* \"#utility.yul\":2236:2265   */\n  not\n    /* \"#utility.yul\":2226:2266   */\n  and\n    /* \"#utility.yul\":2272:2273   */\n  0x01\n    /* \"#utility.yul\":2268:2279   */\n  dup5\n  swap1\n  shl\n    /* \"#utility.yul\":2223:2280   */\n  or\n    /* \"#utility.yul\":3493:3574   */\n  dup5\n  sstore\n    /* \"#utility.yul\":2654:3584   */\n  jump(tag_34)\n    /* \"#utility.yul\":2684:3333   */\ntag_42:\n    /* \"#utility.yul\":1544:1545   */\n  0x00\n    /* \"#utility.yul\":1537:1551   */\n  dup5\n  dup2\n  mstore\n    /* \"#utility.yul\":1581:1585   */\n  0x20\n    /* \"#utility.yul\":1568:1586   */\n  dup2\n  keccak256\n  not(0x1f)\n    /* \"#utility.yul\":2720:2740   */\n  dup6\n  and\n  swap2\n    /* \"#utility.yul\":2838:3060   */\ntag_46:\n    /* \"#utility.yul\":2852:2859   */\n  dup3\n    /* \"#utility.yul\":2849:2850   */\n  dup2\n    /* \"#utility.yul\":2846:2860   */\n  lt\n    /* \"#utility.yul\":2838:3060   */\n  iszero\n  tag_48\n  jumpi\n    /* \"#utility.yul\":2934:2953   */\n  dup8\n  dup6\n  add\n    /* \"#utility.yul\":2928:2954   */\n  mload\n    /* \"#utility.yul\":2913:2955   */\n  dup3\n  sstore\n    /* \"#utility.yul\":3041:3045   */\n  0x20\n    /* \"#utility.yul\":3026:3046   */\n  swap5\n  dup6\n  add\n  swap5\n    /* \"#utility.yul\":2994:2995   */\n  0x01\n    /* \"#utility.yul\":2982:2996   */\n  swap1\n  swap3\n  add\n  swap2\n    /* \"#utility.yul\":2868:2880   */\n  add\n    /* \"#utility.yul\":2838:3060   */\n  jump(tag_46)\ntag_48:\n    /* \"#utility.yul\":2842:2845   */\n  pop\n    /* \"#utility.yul\":3088:3094   */\n  dup5\n    /* \"#utility.yul\":3079:3086   */\n  dup3\n    /* \"#utility.yul\":3076:3095   */\n  lt\n    /* \"#utility.yul\":3073:3274   */\n  iszero\n  tag_49\n  jumpi\n    /* \"#utility.yul\":3149:3168   */\n  dup7\n  dup5\n  add\n    /* \"#utility.yul\":3143:3169   */\n  mload\n  not(0x00)\n    /* \"#utility.yul\":3232:3233   */\n  0x03\n    /* \"#utility.yul\":3228:3242   */\n  dup8\n  swap1\n  shl\n    /* \"#utility.yul\":3244:3247   */\n  0xf8\n    /* \"#utility.yul\":3224:3248   */\n  and\n    /* \"#utility.yul\":3220:3257   */\n  shr\n    /* \"#utility.yul\":3216:3258   */\n  not\n    /* \"#utility.yul\":3201:3259   */\n  and\n    /* \"#utility.yul\":3186:3260   */\n  dup2\n  sstore\n    /* \"#utility.yul\":3073:3274   */\ntag_49:\n  pop\n  pop\n  pop\n  pop\n    /* \"#utility.yul\":3320:3321   */\n  0x01\n    /* \"#utility.yul\":3304:3318   */\n  swap1\n  dup2\n  shl\n    /* \"#utility.yul\":3300:3322   */\n  add\n    /* \"#utility.yul\":3287:3323   */\n  swap1\n  sstore\n  pop\n    /* \"#utility.yul\":2291:3590   */\n  jump\t// out\ntag_14:\n    /* \"greetersomn.sol\":61:770  contract Greeter {... */\n  dataSize(sub_0)\n  dup1\n  dataOffset(sub_0)\n  0x00\n  codecopy\n  0x00\n  return\nstop\n\nsub_0: assembly {\n        /* \"greetersomn.sol\":61:770  contract Greeter {... */\n      mstore(0x40, 0x80)\n      callvalue\n      dup1\n      iszero\n      tag_1\n      jumpi\n      0x00\n      dup1\n      revert\n    tag_1:\n      pop\n      jumpi(tag_2, lt(calldatasize, 0x04))\n      shr(0xe0, calldataload(0x00))\n      dup1\n      0x06fdde03\n      eq\n      tag_3\n      jumpi\n      dup1\n      0x5353a2d8\n      eq\n      tag_4\n      jumpi\n      dup1\n      0x8da5cb5b\n      eq\n      tag_5\n      jumpi\n      dup1\n      0xcfae3217\n      eq\n      tag_6\n      jumpi\n    tag_2:\n      0x00\n      dup1\n      revert\n        /* \"greetersomn.sol\":85:103  string public name */\n    tag_3:\n      tag_7\n      tag_8\n      jump\t// in\n    tag_7:\n      mload(0x40)\n      tag_9\n      swap2\n      swap1\n      tag_10\n      jump\t// in\n    tag_9:\n      mload(0x40)\n      dup1\n      swap2\n      sub\n      swap1\n      return\n        /* \"greetersomn.sol\":448:630  function changeName(string memory _newName) external onlyOwner {... */\n    tag_4:\n      tag_11\n      tag_12\n      calldatasize\n      0x04\n      tag_13\n      jump\t// in\n    tag_12:\n      tag_14\n      jump\t// in\n    tag_11:\n      stop\n        /* \"greetersomn.sol\":110:130  address public owner */\n    tag_5:\n      sload(0x01)\n      tag_15\n      swap1\n      sub(shl(0xa0, 0x01), 0x01)\n      and\n      dup2\n      jump\n    tag_15:\n      mload(0x40)\n      sub(shl(0xa0, 0x01), 0x01)\n        /* \"#utility.yul\":1779:1811   */\n      swap1\n      swap2\n      and\n        /* \"#utility.yul\":1761:1812   */\n      dup2\n      mstore\n        /* \"#utility.yul\":1749:1751   */\n      0x20\n        /* \"#utility.yul\":1734:1752   */\n      add\n        /* \"greetersomn.sol\":110:130  address public owner */\n      tag_9\n        /* \"#utility.yul\":1615:1818   */\n      jump\n        /* \"greetersomn.sol\":640:767  function greet() external view returns (string memory) {... */\n    tag_6:\n      tag_7\n      tag_20\n      jump\t// in\n        /* \"greetersomn.sol\":85:103  string public name */\n    tag_8:\n      0x00\n      dup1\n      sload\n      tag_22\n      swap1\n      tag_23\n      jump\t// in\n    tag_22:\n      dup1\n      0x1f\n      add\n      0x20\n      dup1\n      swap2\n      div\n      mul\n      0x20\n      add\n      mload(0x40)\n      swap1\n      dup2\n      add\n      0x40\n      mstore\n      dup1\n      swap3\n      swap2\n      swap1\n      dup2\n      dup2\n      mstore\n      0x20\n      add\n      dup3\n      dup1\n      sload\n      tag_24\n      swap1\n      tag_23\n      jump\t// in\n    tag_24:\n      dup1\n      iszero\n      tag_25\n      jumpi\n      dup1\n      0x1f\n      lt\n      tag_26\n      jumpi\n      0x0100\n      dup1\n      dup4\n      sload\n      div\n      mul\n      dup4\n      mstore\n      swap2\n      0x20\n      add\n      swap2\n      jump(tag_25)\n    tag_26:\n      dup3\n      add\n      swap2\n      swap1\n      0x00\n      mstore\n      keccak256(0x00, 0x20)\n      swap1\n    tag_27:\n      dup2\n      sload\n      dup2\n      mstore\n      swap1\n      0x01\n      add\n      swap1\n      0x20\n      add\n      dup1\n      dup4\n      gt\n      tag_27\n      jumpi\n      dup3\n      swap1\n      sub\n      0x1f\n      and\n      dup3\n      add\n      swap2\n    tag_25:\n      pop\n      pop\n      pop\n      pop\n      pop\n      dup2\n      jump\t// out\n        /* \"greetersomn.sol\":448:630  function changeName(string memory _newName) external onlyOwner {... */\n    tag_14:\n        /* \"greetersomn.sol\":251:256  owner */\n      and(sub(shl(0xa0, 0x01), 0x01), sload(0x01))\n        /* \"greetersomn.sol\":237:247  msg.sender */\n      caller\n        /* \"greetersomn.sol\":237:256  msg.sender == owner */\n      eq\n        /* \"greetersomn.sol\":229:299  require(msg.sender == owner, \"Only the owner can perform this action\") */\n      tag_29\n      jumpi\n      mload(0x40)\n      shl(0xe5, 0x461bcd)\n      dup2\n      mstore\n        /* \"#utility.yul\":2410:2412   */\n      0x20\n        /* \"greetersomn.sol\":229:299  require(msg.sender == owner, \"Only the owner can perform this action\") */\n      0x04\n      dup3\n      add\n        /* \"#utility.yul\":2392:2413   */\n      mstore\n        /* \"#utility.yul\":2449:2451   */\n      0x26\n        /* \"#utility.yul\":2429:2447   */\n      0x24\n      dup3\n      add\n        /* \"#utility.yul\":2422:2452   */\n      mstore\n        /* \"#utility.yul\":2488:2522   */\n      0x4f6e6c7920746865206f776e65722063616e20706572666f726d207468697320\n        /* \"#utility.yul\":2468:2486   */\n      0x44\n      dup3\n      add\n        /* \"#utility.yul\":2461:2523   */\n      mstore\n      shl(0xd1, 0x30b1ba34b7b7)\n        /* \"#utility.yul\":2539:2557   */\n      0x64\n      dup3\n      add\n        /* \"#utility.yul\":2532:2568   */\n      mstore\n        /* \"#utility.yul\":2585:2604   */\n      0x84\n      add\n        /* \"greetersomn.sol\":229:299  require(msg.sender == owner, \"Only the owner can perform this action\") */\n      mload(0x40)\n      dup1\n      swap2\n      sub\n      swap1\n      revert\n    tag_29:\n        /* \"greetersomn.sol\":522:543  string memory oldName */\n      0x00\n        /* \"greetersomn.sol\":546:550  name */\n      dup1\n        /* \"greetersomn.sol\":522:550  string memory oldName = name */\n      dup1\n      sload\n      tag_33\n      swap1\n      tag_23\n      jump\t// in\n    tag_33:\n      dup1\n      0x1f\n      add\n      0x20\n      dup1\n      swap2\n      div\n      mul\n      0x20\n      add\n      mload(0x40)\n      swap1\n      dup2\n      add\n      0x40\n      mstore\n      dup1\n      swap3\n      swap2\n      swap1\n      dup2\n      dup2\n      mstore\n      0x20\n      add\n      dup3\n      dup1\n      sload\n      tag_34\n      swap1\n      tag_23\n      jump\t// in\n    tag_34:\n      dup1\n      iszero\n      tag_35\n      jumpi\n      dup1\n      0x1f\n      lt\n      tag_36\n      jumpi\n      0x0100\n      dup1\n      dup4\n      sload\n      div\n      mul\n      dup4\n      mstore\n      swap2\n      0x20\n      add\n      swap2\n      jump(tag_35)\n    tag_36:\n      dup3\n      add\n      swap2\n      swap1\n      0x00\n      mstore\n      keccak256(0x00, 0x20)\n      swap1\n    tag_37:\n      dup2\n      sload\n      dup2\n      mstore\n      swap1\n      0x01\n      add\n      swap1\n      0x20\n      add\n      dup1\n      dup4\n      gt\n      tag_37\n      jumpi\n      dup3\n      swap1\n      sub\n      0x1f\n      and\n      dup3\n      add\n      swap2\n    tag_35:\n      pop\n      pop\n      pop\n      pop\n      pop\n      swap1\n      pop\n        /* \"greetersomn.sol\":568:576  _newName */\n      dup2\n        /* \"greetersomn.sol\":561:565  name */\n      0x00\n        /* \"greetersomn.sol\":561:576  name = _newName */\n      swap1\n      dup2\n      tag_38\n      swap2\n      swap1\n      tag_39\n      jump\t// in\n    tag_38:\n      pop\n        /* \"greetersomn.sol\":592:622  NameChanged(oldName, _newName) */\n      0x6c20b91d1723b78732eba64ff11ebd7966a6e4af568a00fa4f6b72c20f58b02a\n        /* \"greetersomn.sol\":604:611  oldName */\n      dup2\n        /* \"greetersomn.sol\":613:621  _newName */\n      dup4\n        /* \"greetersomn.sol\":592:622  NameChanged(oldName, _newName) */\n      mload(0x40)\n      tag_40\n      swap3\n      swap2\n      swap1\n      tag_41\n      jump\t// in\n    tag_40:\n      mload(0x40)\n      dup1\n      swap2\n      sub\n      swap1\n      log1\n        /* \"greetersomn.sol\":511:630  {... */\n      pop\n        /* \"greetersomn.sol\":448:630  function changeName(string memory _newName) external onlyOwner {... */\n      pop\n      jump\t// out\n        /* \"greetersomn.sol\":640:767  function greet() external view returns (string memory) {... */\n    tag_20:\n        /* \"greetersomn.sol\":680:693  string memory */\n      0x60\n        /* \"greetersomn.sol\":748:752  name */\n      0x00\n        /* \"greetersomn.sol\":720:758  abi.encodePacked(\"Hello, \", name, \"!\") */\n      add(0x20, mload(0x40))\n      tag_43\n      swap2\n      swap1\n      tag_44\n      jump\t// in\n    tag_43:\n      mload(0x40)\n      0x20\n      dup2\n      dup4\n      sub\n      sub\n      dup2\n      mstore\n      swap1\n      0x40\n      mstore\n        /* \"greetersomn.sol\":706:759  return string(abi.encodePacked(\"Hello, \", name, \"!\")) */\n      swap1\n      pop\n        /* \"greetersomn.sol\":640:767  function greet() external view returns (string memory) {... */\n      swap1\n      jump\t// out\n        /* \"#utility.yul\":14:303   */\n    tag_45:\n        /* \"#utility.yul\":56:59   */\n      0x00\n        /* \"#utility.yul\":94:99   */\n      dup2\n        /* \"#utility.yul\":88:100   */\n      mload\n        /* \"#utility.yul\":121:127   */\n      dup1\n        /* \"#utility.yul\":116:119   */\n      dup5\n        /* \"#utility.yul\":109:128   */\n      mstore\n        /* \"#utility.yul\":177:183   */\n      dup1\n        /* \"#utility.yul\":170:174   */\n      0x20\n        /* \"#utility.yul\":163:168   */\n      dup5\n        /* \"#utility.yul\":159:175   */\n      add\n        /* \"#utility.yul\":152:156   */\n      0x20\n        /* \"#utility.yul\":147:150   */\n      dup7\n        /* \"#utility.yul\":143:157   */\n      add\n        /* \"#utility.yul\":137:184   */\n      mcopy\n        /* \"#utility.yul\":229:230   */\n      0x00\n        /* \"#utility.yul\":222:226   */\n      0x20\n        /* \"#utility.yul\":213:219   */\n      dup3\n        /* \"#utility.yul\":208:211   */\n      dup7\n        /* \"#utility.yul\":204:220   */\n      add\n        /* \"#utility.yul\":200:227   */\n      add\n        /* \"#utility.yul\":193:231   */\n      mstore\n        /* \"#utility.yul\":292:296   */\n      0x20\n        /* \"#utility.yul\":285:287   */\n      0x1f\n        /* \"#utility.yul\":281:288   */\n      not\n        /* \"#utility.yul\":276:278   */\n      0x1f\n        /* \"#utility.yul\":268:274   */\n      dup4\n        /* \"#utility.yul\":264:279   */\n      add\n        /* \"#utility.yul\":260:289   */\n      and\n        /* \"#utility.yul\":255:258   */\n      dup6\n        /* \"#utility.yul\":251:290   */\n      add\n        /* \"#utility.yul\":247:297   */\n      add\n        /* \"#utility.yul\":240:297   */\n      swap2\n      pop\n      pop\n        /* \"#utility.yul\":14:303   */\n      swap3\n      swap2\n      pop\n      pop\n      jump\t// out\n        /* \"#utility.yul\":308:528   */\n    tag_10:\n        /* \"#utility.yul\":457:459   */\n      0x20\n        /* \"#utility.yul\":446:455   */\n      dup2\n        /* \"#utility.yul\":439:460   */\n      mstore\n        /* \"#utility.yul\":420:424   */\n      0x00\n        /* \"#utility.yul\":477:522   */\n      tag_53\n        /* \"#utility.yul\":518:520   */\n      0x20\n        /* \"#utility.yul\":507:516   */\n      dup4\n        /* \"#utility.yul\":503:521   */\n      add\n        /* \"#utility.yul\":495:501   */\n      dup5\n        /* \"#utility.yul\":477:522   */\n      tag_45\n      jump\t// in\n    tag_53:\n        /* \"#utility.yul\":469:522   */\n      swap4\n        /* \"#utility.yul\":308:528   */\n      swap3\n      pop\n      pop\n      pop\n      jump\t// out\n        /* \"#utility.yul\":533:660   */\n    tag_46:\n        /* \"#utility.yul\":594:604   */\n      0x4e487b71\n        /* \"#utility.yul\":589:592   */\n      0xe0\n        /* \"#utility.yul\":585:605   */\n      shl\n        /* \"#utility.yul\":582:583   */\n      0x00\n        /* \"#utility.yul\":575:606   */\n      mstore\n        /* \"#utility.yul\":625:629   */\n      0x41\n        /* \"#utility.yul\":622:623   */\n      0x04\n        /* \"#utility.yul\":615:630   */\n      mstore\n        /* \"#utility.yul\":649:653   */\n      0x24\n        /* \"#utility.yul\":646:647   */\n      0x00\n        /* \"#utility.yul\":639:654   */\n      revert\n        /* \"#utility.yul\":665:1610   */\n    tag_13:\n        /* \"#utility.yul\":734:740   */\n      0x00\n        /* \"#utility.yul\":787:789   */\n      0x20\n        /* \"#utility.yul\":775:784   */\n      dup3\n        /* \"#utility.yul\":766:773   */\n      dup5\n        /* \"#utility.yul\":762:785   */\n      sub\n        /* \"#utility.yul\":758:790   */\n      slt\n        /* \"#utility.yul\":755:807   */\n      iszero\n      tag_56\n      jumpi\n        /* \"#utility.yul\":803:804   */\n      0x00\n        /* \"#utility.yul\":800:801   */\n      dup1\n        /* \"#utility.yul\":793:805   */\n      revert\n        /* \"#utility.yul\":755:807   */\n    tag_56:\n        /* \"#utility.yul\":843:852   */\n      dup2\n        /* \"#utility.yul\":830:853   */\n      calldataload\n        /* \"#utility.yul\":876:894   */\n      0xffffffffffffffff\n        /* \"#utility.yul\":868:874   */\n      dup2\n        /* \"#utility.yul\":865:895   */\n      gt\n        /* \"#utility.yul\":862:912   */\n      iszero\n      tag_57\n      jumpi\n        /* \"#utility.yul\":908:909   */\n      0x00\n        /* \"#utility.yul\":905:906   */\n      dup1\n        /* \"#utility.yul\":898:910   */\n      revert\n        /* \"#utility.yul\":862:912   */\n    tag_57:\n        /* \"#utility.yul\":931:953   */\n      dup3\n      add\n        /* \"#utility.yul\":984:988   */\n      0x1f\n        /* \"#utility.yul\":976:989   */\n      dup2\n      add\n        /* \"#utility.yul\":972:999   */\n      dup5\n      sgt\n        /* \"#utility.yul\":962:1017   */\n      tag_58\n      jumpi\n        /* \"#utility.yul\":1013:1014   */\n      0x00\n        /* \"#utility.yul\":1010:1011   */\n      dup1\n        /* \"#utility.yul\":1003:1015   */\n      revert\n        /* \"#utility.yul\":962:1017   */\n    tag_58:\n        /* \"#utility.yul\":1053:1055   */\n      dup1\n        /* \"#utility.yul\":1040:1056   */\n      calldataload\n        /* \"#utility.yul\":1079:1097   */\n      0xffffffffffffffff\n        /* \"#utility.yul\":1071:1077   */\n      dup2\n        /* \"#utility.yul\":1068:1098   */\n      gt\n        /* \"#utility.yul\":1065:1121   */\n      iszero\n      tag_60\n      jumpi\n        /* \"#utility.yul\":1101:1119   */\n      tag_60\n      tag_46\n      jump\t// in\n    tag_60:\n        /* \"#utility.yul\":1150:1152   */\n      0x40\n        /* \"#utility.yul\":1144:1153   */\n      mload\n        /* \"#utility.yul\":1242:1244   */\n      0x1f\n        /* \"#utility.yul\":1204:1221   */\n      dup3\n      add\n      not(0x1f)\n        /* \"#utility.yul\":1200:1231   */\n      swap1\n      dup2\n      and\n        /* \"#utility.yul\":1233:1235   */\n      0x3f\n        /* \"#utility.yul\":1196:1236   */\n      add\n        /* \"#utility.yul\":1192:1246   */\n      and\n        /* \"#utility.yul\":1180:1247   */\n      dup2\n      add\n        /* \"#utility.yul\":1277:1295   */\n      0xffffffffffffffff\n        /* \"#utility.yul\":1262:1296   */\n      dup2\n      gt\n        /* \"#utility.yul\":1298:1320   */\n      dup3\n      dup3\n      lt\n        /* \"#utility.yul\":1259:1321   */\n      or\n        /* \"#utility.yul\":1256:1344   */\n      iszero\n      tag_62\n      jumpi\n        /* \"#utility.yul\":1324:1342   */\n      tag_62\n      tag_46\n      jump\t// in\n    tag_62:\n        /* \"#utility.yul\":1360:1362   */\n      0x40\n        /* \"#utility.yul\":1353:1375   */\n      mstore\n        /* \"#utility.yul\":1384:1406   */\n      dup2\n      dup2\n      mstore\n        /* \"#utility.yul\":1425:1440   */\n      dup3\n      dup3\n      add\n        /* \"#utility.yul\":1442:1444   */\n      0x20\n        /* \"#utility.yul\":1421:1445   */\n      add\n        /* \"#utility.yul\":1418:1455   */\n      dup7\n      lt\n        /* \"#utility.yul\":1415:1472   */\n      iszero\n      tag_63\n      jumpi\n        /* \"#utility.yul\":1468:1469   */\n      0x00\n        /* \"#utility.yul\":1465:1466   */\n      dup1\n        /* \"#utility.yul\":1458:1470   */\n      revert\n        /* \"#utility.yul\":1415:1472   */\n    tag_63:\n        /* \"#utility.yul\":1524:1530   */\n      dup2\n        /* \"#utility.yul\":1519:1521   */\n      0x20\n        /* \"#utility.yul\":1515:1517   */\n      dup5\n        /* \"#utility.yul\":1511:1522   */\n      add\n        /* \"#utility.yul\":1506:1508   */\n      0x20\n        /* \"#utility.yul\":1498:1504   */\n      dup4\n        /* \"#utility.yul\":1494:1509   */\n      add\n        /* \"#utility.yul\":1481:1531   */\n      calldatacopy\n        /* \"#utility.yul\":1577:1578   */\n      0x00\n        /* \"#utility.yul\":1551:1570   */\n      swap2\n      dup2\n      add\n        /* \"#utility.yul\":1572:1574   */\n      0x20\n        /* \"#utility.yul\":1547:1575   */\n      add\n        /* \"#utility.yul\":1540:1579   */\n      swap2\n      swap1\n      swap2\n      mstore\n        /* \"#utility.yul\":1555:1561   */\n      swap5\n        /* \"#utility.yul\":665:1610   */\n      swap4\n      pop\n      pop\n      pop\n      pop\n      jump\t// out\n        /* \"#utility.yul\":1823:2203   */\n    tag_23:\n        /* \"#utility.yul\":1902:1903   */\n      0x01\n        /* \"#utility.yul\":1898:1910   */\n      dup2\n      dup2\n      shr\n      swap1\n        /* \"#utility.yul\":1945:1957   */\n      dup3\n      and\n      dup1\n        /* \"#utility.yul\":1966:2027   */\n      tag_66\n      jumpi\n        /* \"#utility.yul\":2020:2024   */\n      0x7f\n        /* \"#utility.yul\":2012:2018   */\n      dup3\n        /* \"#utility.yul\":2008:2025   */\n      and\n        /* \"#utility.yul\":1998:2025   */\n      swap2\n      pop\n        /* \"#utility.yul\":1966:2027   */\n    tag_66:\n        /* \"#utility.yul\":2073:2075   */\n      0x20\n        /* \"#utility.yul\":2065:2071   */\n      dup3\n        /* \"#utility.yul\":2062:2076   */\n      lt\n        /* \"#utility.yul\":2042:2060   */\n      dup2\n        /* \"#utility.yul\":2039:2077   */\n      sub\n        /* \"#utility.yul\":2036:2197   */\n      tag_67\n      jumpi\n        /* \"#utility.yul\":2119:2129   */\n      0x4e487b71\n        /* \"#utility.yul\":2114:2117   */\n      0xe0\n        /* \"#utility.yul\":2110:2130   */\n      shl\n        /* \"#utility.yul\":2107:2108   */\n      0x00\n        /* \"#utility.yul\":2100:2131   */\n      mstore\n        /* \"#utility.yul\":2154:2158   */\n      0x22\n        /* \"#utility.yul\":2151:2152   */\n      0x04\n        /* \"#utility.yul\":2144:2159   */\n      mstore\n        /* \"#utility.yul\":2182:2186   */\n      0x24\n        /* \"#utility.yul\":2179:2180   */\n      0x00\n        /* \"#utility.yul\":2172:2187   */\n      revert\n        /* \"#utility.yul\":2036:2197   */\n    tag_67:\n      pop\n        /* \"#utility.yul\":1823:2203   */\n      swap2\n      swap1\n      pop\n      jump\t// out\n        /* \"#utility.yul\":2741:3259   */\n    tag_48:\n        /* \"#utility.yul\":2843:2845   */\n      0x1f\n        /* \"#utility.yul\":2838:2841   */\n      dup3\n        /* \"#utility.yul\":2835:2846   */\n      gt\n        /* \"#utility.yul\":2832:3253   */\n      iszero\n      tag_71\n      jumpi\n        /* \"#utility.yul\":2879:2884   */\n      dup1\n        /* \"#utility.yul\":2876:2877   */\n      0x00\n        /* \"#utility.yul\":2869:2885   */\n      mstore\n        /* \"#utility.yul\":2923:2927   */\n      0x20\n        /* \"#utility.yul\":2920:2921   */\n      0x00\n        /* \"#utility.yul\":2910:2928   */\n      keccak256\n        /* \"#utility.yul\":2993:2995   */\n      0x1f\n        /* \"#utility.yul\":2981:2991   */\n      dup5\n        /* \"#utility.yul\":2977:2996   */\n      add\n        /* \"#utility.yul\":2974:2975   */\n      0x05\n        /* \"#utility.yul\":2970:2997   */\n      shr\n        /* \"#utility.yul\":2964:2968   */\n      dup2\n        /* \"#utility.yul\":2960:2998   */\n      add\n        /* \"#utility.yul\":3029:3033   */\n      0x20\n        /* \"#utility.yul\":3017:3027   */\n      dup6\n        /* \"#utility.yul\":3014:3034   */\n      lt\n        /* \"#utility.yul\":3011:3058   */\n      iszero\n      tag_72\n      jumpi\n      pop\n        /* \"#utility.yul\":3052:3056   */\n      dup1\n        /* \"#utility.yul\":3011:3058   */\n    tag_72:\n        /* \"#utility.yul\":3107:3109   */\n      0x1f\n        /* \"#utility.yul\":3102:3105   */\n      dup5\n        /* \"#utility.yul\":3098:3110   */\n      add\n        /* \"#utility.yul\":3095:3096   */\n      0x05\n        /* \"#utility.yul\":3091:3111   */\n      shr\n        /* \"#utility.yul\":3085:3089   */\n      dup3\n        /* \"#utility.yul\":3081:3112   */\n      add\n        /* \"#utility.yul\":3071:3112   */\n      swap2\n      pop\n        /* \"#utility.yul\":3162:3243   */\n    tag_73:\n        /* \"#utility.yul\":3180:3182   */\n      dup2\n        /* \"#utility.yul\":3173:3178   */\n      dup2\n        /* \"#utility.yul\":3170:3183   */\n      lt\n        /* \"#utility.yul\":3162:3243   */\n      iszero\n      tag_75\n      jumpi\n        /* \"#utility.yul\":3239:3240   */\n      0x00\n        /* \"#utility.yul\":3225:3241   */\n      dup2\n      sstore\n        /* \"#utility.yul\":3206:3207   */\n      0x01\n        /* \"#utility.yul\":3195:3208   */\n      add\n        /* \"#utility.yul\":3162:3243   */\n      jump(tag_73)\n    tag_75:\n        /* \"#utility.yul\":3166:3169   */\n      pop\n      pop\n        /* \"#utility.yul\":2832:3253   */\n    tag_71:\n        /* \"#utility.yul\":2741:3259   */\n      pop\n      pop\n      pop\n      jump\t// out\n        /* \"#utility.yul\":3435:4734   */\n    tag_39:\n        /* \"#utility.yul\":3561:3564   */\n      dup2\n        /* \"#utility.yul\":3555:3565   */\n      mload\n        /* \"#utility.yul\":3588:3606   */\n      0xffffffffffffffff\n        /* \"#utility.yul\":3580:3586   */\n      dup2\n        /* \"#utility.yul\":3577:3607   */\n      gt\n        /* \"#utility.yul\":3574:3630   */\n      iszero\n      tag_79\n      jumpi\n        /* \"#utility.yul\":3610:3628   */\n      tag_79\n      tag_46\n      jump\t// in\n    tag_79:\n        /* \"#utility.yul\":3639:3736   */\n      tag_80\n        /* \"#utility.yul\":3729:3735   */\n      dup2\n        /* \"#utility.yul\":3689:3727   */\n      tag_81\n        /* \"#utility.yul\":3721:3725   */\n      dup5\n        /* \"#utility.yul\":3715:3726   */\n      sload\n        /* \"#utility.yul\":3689:3727   */\n      tag_23\n      jump\t// in\n    tag_81:\n        /* \"#utility.yul\":3683:3687   */\n      dup5\n        /* \"#utility.yul\":3639:3736   */\n      tag_48\n      jump\t// in\n    tag_80:\n        /* \"#utility.yul\":3785:3789   */\n      0x20\n        /* \"#utility.yul\":3816:3818   */\n      0x1f\n        /* \"#utility.yul\":3805:3819   */\n      dup3\n      gt\n        /* \"#utility.yul\":3833:3834   */\n      0x01\n        /* \"#utility.yul\":3828:4477   */\n      dup2\n      eq\n      tag_83\n      jumpi\n        /* \"#utility.yul\":4521:4522   */\n      0x00\n        /* \"#utility.yul\":4538:4544   */\n      dup4\n        /* \"#utility.yul\":4535:4624   */\n      iszero\n      tag_84\n      jumpi\n      pop\n        /* \"#utility.yul\":4590:4609   */\n      dup5\n      dup3\n      add\n        /* \"#utility.yul\":4584:4610   */\n      mload\n        /* \"#utility.yul\":4535:4624   */\n    tag_84:\n      not(0x00)\n        /* \"#utility.yul\":3392:3393   */\n      0x03\n        /* \"#utility.yul\":3388:3399   */\n      dup6\n      swap1\n      shl\n        /* \"#utility.yul\":3384:3408   */\n      shr\n        /* \"#utility.yul\":3380:3409   */\n      not\n        /* \"#utility.yul\":3370:3410   */\n      and\n        /* \"#utility.yul\":3416:3417   */\n      0x01\n        /* \"#utility.yul\":3412:3423   */\n      dup5\n      swap1\n      shl\n        /* \"#utility.yul\":3367:3424   */\n      or\n        /* \"#utility.yul\":4637:4718   */\n      dup5\n      sstore\n        /* \"#utility.yul\":3798:4728   */\n      jump(tag_75)\n        /* \"#utility.yul\":3828:4477   */\n    tag_83:\n        /* \"#utility.yul\":2688:2689   */\n      0x00\n        /* \"#utility.yul\":2681:2695   */\n      dup5\n      dup2\n      mstore\n        /* \"#utility.yul\":2725:2729   */\n      0x20\n        /* \"#utility.yul\":2712:2730   */\n      dup2\n      keccak256\n      not(0x1f)\n        /* \"#utility.yul\":3864:3884   */\n      dup6\n      and\n      swap2\n        /* \"#utility.yul\":3982:4204   */\n    tag_87:\n        /* \"#utility.yul\":3996:4003   */\n      dup3\n        /* \"#utility.yul\":3993:3994   */\n      dup2\n        /* \"#utility.yul\":3990:4004   */\n      lt\n        /* \"#utility.yul\":3982:4204   */\n      iszero\n      tag_89\n      jumpi\n        /* \"#utility.yul\":4078:4097   */\n      dup8\n      dup6\n      add\n        /* \"#utility.yul\":4072:4098   */\n      mload\n        /* \"#utility.yul\":4057:4099   */\n      dup3\n      sstore\n        /* \"#utility.yul\":4185:4189   */\n      0x20\n        /* \"#utility.yul\":4170:4190   */\n      swap5\n      dup6\n      add\n      swap5\n        /* \"#utility.yul\":4138:4139   */\n      0x01\n        /* \"#utility.yul\":4126:4140   */\n      swap1\n      swap3\n      add\n      swap2\n        /* \"#utility.yul\":4012:4024   */\n      add\n        /* \"#utility.yul\":3982:4204   */\n      jump(tag_87)\n    tag_89:\n        /* \"#utility.yul\":3986:3989   */\n      pop\n        /* \"#utility.yul\":4232:4238   */\n      dup5\n        /* \"#utility.yul\":4223:4230   */\n      dup3\n        /* \"#utility.yul\":4220:4239   */\n      lt\n        /* \"#utility.yul\":4217:4418   */\n      iszero\n      tag_90\n      jumpi\n        /* \"#utility.yul\":4293:4312   */\n      dup7\n      dup5\n      add\n        /* \"#utility.yul\":4287:4313   */\n      mload\n      not(0x00)\n        /* \"#utility.yul\":4376:4377   */\n      0x03\n        /* \"#utility.yul\":4372:4386   */\n      dup8\n      swap1\n      shl\n        /* \"#utility.yul\":4388:4391   */\n      0xf8\n        /* \"#utility.yul\":4368:4392   */\n      and\n        /* \"#utility.yul\":4364:4401   */\n      shr\n        /* \"#utility.yul\":4360:4402   */\n      not\n        /* \"#utility.yul\":4345:4403   */\n      and\n        /* \"#utility.yul\":4330:4404   */\n      dup2\n      sstore\n        /* \"#utility.yul\":4217:4418   */\n    tag_90:\n      pop\n      pop\n      pop\n      pop\n        /* \"#utility.yul\":4464:4465   */\n      0x01\n        /* \"#utility.yul\":4448:4462   */\n      swap1\n      dup2\n      shl\n        /* \"#utility.yul\":4444:4466   */\n      add\n        /* \"#utility.yul\":4431:4467   */\n      swap1\n      sstore\n      pop\n        /* \"#utility.yul\":3435:4734   */\n      jump\t// out\n        /* \"#utility.yul\":4739:5122   */\n    tag_41:\n        /* \"#utility.yul\":4936:4938   */\n      0x40\n        /* \"#utility.yul\":4925:4934   */\n      dup2\n        /* \"#utility.yul\":4918:4939   */\n      mstore\n        /* \"#utility.yul\":4899:4903   */\n      0x00\n        /* \"#utility.yul\":4962:5007   */\n      tag_92\n        /* \"#utility.yul\":5003:5005   */\n      0x40\n        /* \"#utility.yul\":4992:5001   */\n      dup4\n        /* \"#utility.yul\":4988:5006   */\n      add\n        /* \"#utility.yul\":4980:4986   */\n      dup6\n        /* \"#utility.yul\":4962:5007   */\n      tag_45\n      jump\t// in\n    tag_92:\n        /* \"#utility.yul\":5055:5064   */\n      dup3\n        /* \"#utility.yul\":5047:5053   */\n      dup2\n        /* \"#utility.yul\":5043:5065   */\n      sub\n        /* \"#utility.yul\":5038:5040   */\n      0x20\n        /* \"#utility.yul\":5027:5036   */\n      dup5\n        /* \"#utility.yul\":5023:5041   */\n      add\n        /* \"#utility.yul\":5016:5066   */\n      mstore\n        /* \"#utility.yul\":5083:5116   */\n      tag_93\n        /* \"#utility.yul\":5109:5115   */\n      dup2\n        /* \"#utility.yul\":5101:5107   */\n      dup6\n        /* \"#utility.yul\":5083:5116   */\n      tag_45\n      jump\t// in\n    tag_93:\n        /* \"#utility.yul\":5075:5116   */\n      swap6\n        /* \"#utility.yul\":4739:5122   */\n      swap5\n      pop\n      pop\n      pop\n      pop\n      pop\n      jump\t// out\n        /* \"#utility.yul\":5127:6222   */\n    tag_44:\n      shl(0xcd, 0x02432b63637961)\n        /* \"#utility.yul\":5482:5485   */\n      dup2\n        /* \"#utility.yul\":5475:5497   */\n      mstore\n        /* \"#utility.yul\":5457:5460   */\n      0x00\n        /* \"#utility.yul\":5517:5518   */\n      dup1\n        /* \"#utility.yul\":5550:5556   */\n      dup4\n        /* \"#utility.yul\":5544:5557   */\n      sload\n        /* \"#utility.yul\":5580:5616   */\n      tag_95\n        /* \"#utility.yul\":5606:5615   */\n      dup2\n        /* \"#utility.yul\":5580:5616   */\n      tag_23\n      jump\t// in\n    tag_95:\n        /* \"#utility.yul\":5647:5648   */\n      0x01\n        /* \"#utility.yul\":5632:5649   */\n      dup3\n      and\n        /* \"#utility.yul\":5658:5807   */\n      dup1\n      iszero\n      tag_97\n      jumpi\n        /* \"#utility.yul\":5821:5822   */\n      0x01\n        /* \"#utility.yul\":5816:6164   */\n      dup2\n      eq\n      tag_98\n      jumpi\n        /* \"#utility.yul\":5625:6164   */\n      jump(tag_96)\n        /* \"#utility.yul\":5658:5807   */\n    tag_97:\n        /* \"#utility.yul\":5718:5721   */\n      0xff\n        /* \"#utility.yul\":5714:5722   */\n      not\n        /* \"#utility.yul\":5703:5712   */\n      dup4\n        /* \"#utility.yul\":5699:5723   */\n      and\n        /* \"#utility.yul\":5695:5696   */\n      0x07\n        /* \"#utility.yul\":5690:5693   */\n      dup8\n        /* \"#utility.yul\":5686:5697   */\n      add\n        /* \"#utility.yul\":5679:5724   */\n      mstore\n        /* \"#utility.yul\":5795:5796   */\n      0x07\n        /* \"#utility.yul\":5783:5789   */\n      dup3\n        /* \"#utility.yul\":5776:5790   */\n      iszero\n        /* \"#utility.yul\":5769:5791   */\n      iszero\n        /* \"#utility.yul\":5761:5767   */\n      dup4\n        /* \"#utility.yul\":5757:5792   */\n      mul\n        /* \"#utility.yul\":5752:5755   */\n      dup8\n        /* \"#utility.yul\":5748:5793   */\n      add\n        /* \"#utility.yul\":5744:5797   */\n      add\n        /* \"#utility.yul\":5737:5797   */\n      swap4\n      pop\n        /* \"#utility.yul\":5658:5807   */\n      jump(tag_96)\n        /* \"#utility.yul\":5816:6164   */\n    tag_98:\n        /* \"#utility.yul\":5847:5853   */\n      dup7\n        /* \"#utility.yul\":5844:5845   */\n      0x00\n        /* \"#utility.yul\":5837:5854   */\n      mstore\n        /* \"#utility.yul\":5895:5899   */\n      0x20\n        /* \"#utility.yul\":5892:5893   */\n      0x00\n        /* \"#utility.yul\":5882:5900   */\n      keccak256\n        /* \"#utility.yul\":5922:5923   */\n      0x00\n        /* \"#utility.yul\":5936:6110   */\n    tag_99:\n        /* \"#utility.yul\":5950:5956   */\n      dup4\n        /* \"#utility.yul\":5947:5948   */\n      dup2\n        /* \"#utility.yul\":5944:5957   */\n      lt\n        /* \"#utility.yul\":5936:6110   */\n      iszero\n      tag_101\n      jumpi\n        /* \"#utility.yul\":6038:6052   */\n      dup2\n      sload\n        /* \"#utility.yul\":6021:6032   */\n      dup9\n      dup3\n      add\n        /* \"#utility.yul\":6034:6035   */\n      0x07\n        /* \"#utility.yul\":6017:6036   */\n      add\n        /* \"#utility.yul\":6010:6053   */\n      mstore\n        /* \"#utility.yul\":6094:6095   */\n      0x01\n        /* \"#utility.yul\":6081:6096   */\n      swap1\n      swap2\n      add\n      swap1\n        /* \"#utility.yul\":5972:5976   */\n      0x20\n        /* \"#utility.yul\":5965:5977   */\n      add\n        /* \"#utility.yul\":5936:6110   */\n      jump(tag_99)\n    tag_101:\n        /* \"#utility.yul\":5940:5943   */\n      pop\n      pop\n        /* \"#utility.yul\":6152:6153   */\n      0x07\n        /* \"#utility.yul\":6143:6149   */\n      dup3\n        /* \"#utility.yul\":6138:6141   */\n      dup8\n        /* \"#utility.yul\":6134:6150   */\n      add\n        /* \"#utility.yul\":6130:6154   */\n      add\n        /* \"#utility.yul\":6123:6154   */\n      swap4\n      pop\n        /* \"#utility.yul\":5625:6164   */\n    tag_96:\n      pop\n      pop\n      shl(0xf8, 0x21)\n        /* \"#utility.yul\":6173:6189   */\n      dup3\n      mstore\n      pop\n        /* \"#utility.yul\":6214:6215   */\n      0x01\n        /* \"#utility.yul\":6205:6216   */\n      add\n      swap4\n        /* \"#utility.yul\":5127:6222   */\n      swap3\n      pop\n      pop\n      pop\n      jump\t// out\n\n    auxdata: 0xa26469706673582212209b3ac7d9e7955d8c4646e94b89b03edeb9cc2900d6cd18aba39d3e8d10b49e6164736f6c634300081a0033\n}\n",
				"bytecode": {
					"linkReferences": {},
					"object": "608060405234801561000f575f80fd5b5060405161084e38038061084e83398101604081905261002e91610066565b5f610039828261019a565b5050600180546001600160a01b03191633179055610254565b634e487b7160e01b5f52604160045260245ffd5b5f60208284031215610076575f80fd5b81516001600160401b0381111561008b575f80fd5b8201601f8101841361009b575f80fd5b80516001600160401b038111156100b4576100b4610052565b604051601f8201601f19908116603f011681016001600160401b03811182821017156100e2576100e2610052565b6040528181528282016020018610156100f9575f80fd5b8160208401602083015e5f91810160200191909152949350505050565b600181811c9082168061012a57607f821691505b60208210810361014857634e487b7160e01b5f52602260045260245ffd5b50919050565b601f82111561019557805f5260205f20601f840160051c810160208510156101735750805b601f840160051c820191505b81811015610192575f815560010161017f565b50505b505050565b81516001600160401b038111156101b3576101b3610052565b6101c7816101c18454610116565b8461014e565b6020601f8211600181146101f9575f83156101e25750848201515b5f19600385901b1c1916600184901b178455610192565b5f84815260208120601f198516915b828110156102285787850151825560209485019460019092019101610208565b508482101561024557868401515f19600387901b60f8161c191681555b50505050600190811b01905550565b6105ed806102615f395ff3fe608060405234801561000f575f80fd5b506004361061004a575f3560e01c806306fdde031461004e5780635353a2d81461006c5780638da5cb5b14610081578063cfae3217146100ac575b5f80fd5b6100566100b4565b60405161006391906102d8565b60405180910390f35b61007f61007a366004610305565b61013f565b005b600154610094906001600160a01b031681565b6040516001600160a01b039091168152602001610063565b610056610283565b5f80546100c0906103b8565b80601f01602080910402602001604051908101604052809291908181526020018280546100ec906103b8565b80156101375780601f1061010e57610100808354040283529160200191610137565b820191905f5260205f20905b81548152906001019060200180831161011a57829003601f168201915b505050505081565b6001546001600160a01b031633146101ac5760405162461bcd60e51b815260206004820152602660248201527f4f6e6c7920746865206f776e65722063616e20706572666f726d20746869732060448201526530b1ba34b7b760d11b606482015260840160405180910390fd5b5f8080546101b9906103b8565b80601f01602080910402602001604051908101604052809291908181526020018280546101e5906103b8565b80156102305780601f1061020757610100808354040283529160200191610230565b820191905f5260205f20905b81548152906001019060200180831161021357829003601f168201915b50505050509050815f9081610245919061043c565b507f6c20b91d1723b78732eba64ff11ebd7966a6e4af568a00fa4f6b72c20f58b02a81836040516102779291906104f7565b60405180910390a15050565b60605f6040516020016102969190610524565b604051602081830303815290604052905090565b5f81518084528060208401602086015e5f602082860101526020601f19601f83011685010191505092915050565b602081525f6102ea60208301846102aa565b9392505050565b634e487b7160e01b5f52604160045260245ffd5b5f60208284031215610315575f80fd5b813567ffffffffffffffff81111561032b575f80fd5b8201601f8101841361033b575f80fd5b803567ffffffffffffffff811115610355576103556102f1565b604051601f8201601f19908116603f0116810167ffffffffffffffff81118282101715610384576103846102f1565b60405281815282820160200186101561039b575f80fd5b816020840160208301375f91810160200191909152949350505050565b600181811c908216806103cc57607f821691505b6020821081036103ea57634e487b7160e01b5f52602260045260245ffd5b50919050565b601f82111561043757805f5260205f20601f840160051c810160208510156104155750805b601f840160051c820191505b81811015610434575f8155600101610421565b50505b505050565b815167ffffffffffffffff811115610456576104566102f1565b61046a8161046484546103b8565b846103f0565b6020601f82116001811461049c575f83156104855750848201515b5f19600385901b1c1916600184901b178455610434565b5f84815260208120601f198516915b828110156104cb57878501518255602094850194600190920191016104ab565b50848210156104e857868401515f19600387901b60f8161c191681555b50505050600190811b01905550565b604081525f61050960408301856102aa565b828103602084015261051b81856102aa565b95945050505050565b6602432b6363796160cd1b81525f80835461053e816103b8565b6001821680156105555760018114610570576105a3565b60ff19831660078701526007821515830287010193506105a3565b865f5260205f205f5b8381101561059857815488820160070152600190910190602001610579565b505060078287010193505b5050602160f81b825250600101939250505056fea26469706673582212209b3ac7d9e7955d8c4646e94b89b03edeb9cc2900d6cd18aba39d3e8d10b49e6164736f6c634300081a0033",
					"opcodes": "PUSH1 0x80 PUSH1 0x40 MSTORE CALLVALUE DUP1 ISZERO PUSH2 0xF JUMPI PUSH0 DUP1 REVERT JUMPDEST POP PUSH1 0x40 MLOAD PUSH2 0x84E CODESIZE SUB DUP1 PUSH2 0x84E DUP4 CODECOPY DUP2 ADD PUSH1 0x40 DUP2 SWAP1 MSTORE PUSH2 0x2E SWAP2 PUSH2 0x66 JUMP JUMPDEST PUSH0 PUSH2 0x39 DUP3 DUP3 PUSH2 0x19A JUMP JUMPDEST POP POP PUSH1 0x1 DUP1 SLOAD PUSH1 0x1 PUSH1 0x1 PUSH1 0xA0 SHL SUB NOT AND CALLER OR SWAP1 SSTORE PUSH2 0x254 JUMP JUMPDEST PUSH4 0x4E487B71 PUSH1 0xE0 SHL PUSH0 MSTORE PUSH1 0x41 PUSH1 0x4 MSTORE PUSH1 0x24 PUSH0 REVERT JUMPDEST PUSH0 PUSH1 0x20 DUP3 DUP5 SUB SLT ISZERO PUSH2 0x76 JUMPI PUSH0 DUP1 REVERT JUMPDEST DUP2 MLOAD PUSH1 0x1 PUSH1 0x1 PUSH1 0x40 SHL SUB DUP2 GT ISZERO PUSH2 0x8B JUMPI PUSH0 DUP1 REVERT JUMPDEST DUP3 ADD PUSH1 0x1F DUP2 ADD DUP5 SGT PUSH2 0x9B JUMPI PUSH0 DUP1 REVERT JUMPDEST DUP1 MLOAD PUSH1 0x1 PUSH1 0x1 PUSH1 0x40 SHL SUB DUP2 GT ISZERO PUSH2 0xB4 JUMPI PUSH2 0xB4 PUSH2 0x52 JUMP JUMPDEST PUSH1 0x40 MLOAD PUSH1 0x1F DUP3 ADD PUSH1 0x1F NOT SWAP1 DUP2 AND PUSH1 0x3F ADD AND DUP2 ADD PUSH1 0x1 PUSH1 0x1 PUSH1 0x40 SHL SUB DUP2 GT DUP3 DUP3 LT OR ISZERO PUSH2 0xE2 JUMPI PUSH2 0xE2 PUSH2 0x52 JUMP JUMPDEST PUSH1 0x40 MSTORE DUP2 DUP2 MSTORE DUP3 DUP3 ADD PUSH1 0x20 ADD DUP7 LT ISZERO PUSH2 0xF9 JUMPI PUSH0 DUP1 REVERT JUMPDEST DUP2 PUSH1 0x20 DUP5 ADD PUSH1 0x20 DUP4 ADD MCOPY PUSH0 SWAP2 DUP2 ADD PUSH1 0x20 ADD SWAP2 SWAP1 SWAP2 MSTORE SWAP5 SWAP4 POP POP POP POP JUMP JUMPDEST PUSH1 0x1 DUP2 DUP2 SHR SWAP1 DUP3 AND DUP1 PUSH2 0x12A JUMPI PUSH1 0x7F DUP3 AND SWAP2 POP JUMPDEST PUSH1 0x20 DUP3 LT DUP2 SUB PUSH2 0x148 JUMPI PUSH4 0x4E487B71 PUSH1 0xE0 SHL PUSH0 MSTORE PUSH1 0x22 PUSH1 0x4 MSTORE PUSH1 0x24 PUSH0 REVERT JUMPDEST POP SWAP2 SWAP1 POP JUMP JUMPDEST PUSH1 0x1F DUP3 GT ISZERO PUSH2 0x195 JUMPI DUP1 PUSH0 MSTORE PUSH1 0x20 PUSH0 KECCAK256 PUSH1 0x1F DUP5 ADD PUSH1 0x5 SHR DUP2 ADD PUSH1 0x20 DUP6 LT ISZERO PUSH2 0x173 JUMPI POP DUP1 JUMPDEST PUSH1 0x1F DUP5 ADD PUSH1 0x5 SHR DUP3 ADD SWAP2 POP JUMPDEST DUP2 DUP2 LT ISZERO PUSH2 0x192 JUMPI PUSH0 DUP2 SSTORE PUSH1 0x1 ADD PUSH2 0x17F JUMP JUMPDEST POP POP JUMPDEST POP POP POP JUMP JUMPDEST DUP2 MLOAD PUSH1 0x1 PUSH1 0x1 PUSH1 0x40 SHL SUB DUP2 GT ISZERO PUSH2 0x1B3 JUMPI PUSH2 0x1B3 PUSH2 0x52 JUMP JUMPDEST PUSH2 0x1C7 DUP2 PUSH2 0x1C1 DUP5 SLOAD PUSH2 0x116 JUMP JUMPDEST DUP5 PUSH2 0x14E JUMP JUMPDEST PUSH1 0x20 PUSH1 0x1F DUP3 GT PUSH1 0x1 DUP2 EQ PUSH2 0x1F9 JUMPI PUSH0 DUP4 ISZERO PUSH2 0x1E2 JUMPI POP DUP5 DUP3 ADD MLOAD JUMPDEST PUSH0 NOT PUSH1 0x3 DUP6 SWAP1 SHL SHR NOT AND PUSH1 0x1 DUP5 SWAP1 SHL OR DUP5 SSTORE PUSH2 0x192 JUMP JUMPDEST PUSH0 DUP5 DUP2 MSTORE PUSH1 0x20 DUP2 KECCAK256 PUSH1 0x1F NOT DUP6 AND SWAP2 JUMPDEST DUP3 DUP2 LT ISZERO PUSH2 0x228 JUMPI DUP8 DUP6 ADD MLOAD DUP3 SSTORE PUSH1 0x20 SWAP5 DUP6 ADD SWAP5 PUSH1 0x1 SWAP1 SWAP3 ADD SWAP2 ADD PUSH2 0x208 JUMP JUMPDEST POP DUP5 DUP3 LT ISZERO PUSH2 0x245 JUMPI DUP7 DUP5 ADD MLOAD PUSH0 NOT PUSH1 0x3 DUP8 SWAP1 SHL PUSH1 0xF8 AND SHR NOT AND DUP2 SSTORE JUMPDEST POP POP POP POP PUSH1 0x1 SWAP1 DUP2 SHL ADD SWAP1 SSTORE POP JUMP JUMPDEST PUSH2 0x5ED DUP1 PUSH2 0x261 PUSH0 CODECOPY PUSH0 RETURN INVALID PUSH1 0x80 PUSH1 0x40 MSTORE CALLVALUE DUP1 ISZERO PUSH2 0xF JUMPI PUSH0 DUP1 REVERT JUMPDEST POP PUSH1 0x4 CALLDATASIZE LT PUSH2 0x4A JUMPI PUSH0 CALLDATALOAD PUSH1 0xE0 SHR DUP1 PUSH4 0x6FDDE03 EQ PUSH2 0x4E JUMPI DUP1 PUSH4 0x5353A2D8 EQ PUSH2 0x6C JUMPI DUP1 PUSH4 0x8DA5CB5B EQ PUSH2 0x81 JUMPI DUP1 PUSH4 0xCFAE3217 EQ PUSH2 0xAC JUMPI JUMPDEST PUSH0 DUP1 REVERT JUMPDEST PUSH2 0x56 PUSH2 0xB4 JUMP JUMPDEST PUSH1 0x40 MLOAD PUSH2 0x63 SWAP2 SWAP1 PUSH2 0x2D8 JUMP JUMPDEST PUSH1 0x40 MLOAD DUP1 SWAP2 SUB SWAP1 RETURN JUMPDEST PUSH2 0x7F PUSH2 0x7A CALLDATASIZE PUSH1 0x4 PUSH2 0x305 JUMP JUMPDEST PUSH2 0x13F JUMP JUMPDEST STOP JUMPDEST PUSH1 0x1 SLOAD PUSH2 0x94 SWAP1 PUSH1 0x1 PUSH1 0x1 PUSH1 0xA0 SHL SUB AND DUP2 JUMP JUMPDEST PUSH1 0x40 MLOAD PUSH1 0x1 PUSH1 0x1 PUSH1 0xA0 SHL SUB SWAP1 SWAP2 AND DUP2 MSTORE PUSH1 0x20 ADD PUSH2 0x63 JUMP JUMPDEST PUSH2 0x56 PUSH2 0x283 JUMP JUMPDEST PUSH0 DUP1 SLOAD PUSH2 0xC0 SWAP1 PUSH2 0x3B8 JUMP JUMPDEST DUP1 PUSH1 0x1F ADD PUSH1 0x20 DUP1 SWAP2 DIV MUL PUSH1 0x20 ADD PUSH1 0x40 MLOAD SWAP1 DUP2 ADD PUSH1 0x40 MSTORE DUP1 SWAP3 SWAP2 SWAP1 DUP2 DUP2 MSTORE PUSH1 0x20 ADD DUP3 DUP1 SLOAD PUSH2 0xEC SWAP1 PUSH2 0x3B8 JUMP JUMPDEST DUP1 ISZERO PUSH2 0x137 JUMPI DUP1 PUSH1 0x1F LT PUSH2 0x10E JUMPI PUSH2 0x100 DUP1 DUP4 SLOAD DIV MUL DUP4 MSTORE SWAP2 PUSH1 0x20 ADD SWAP2 PUSH2 0x137 JUMP JUMPDEST DUP3 ADD SWAP2 SWAP1 PUSH0 MSTORE PUSH1 0x20 PUSH0 KECCAK256 SWAP1 JUMPDEST DUP2 SLOAD DUP2 MSTORE SWAP1 PUSH1 0x1 ADD SWAP1 PUSH1 0x20 ADD DUP1 DUP4 GT PUSH2 0x11A JUMPI DUP3 SWAP1 SUB PUSH1 0x1F AND DUP3 ADD SWAP2 JUMPDEST POP POP POP POP POP DUP2 JUMP JUMPDEST PUSH1 0x1 SLOAD PUSH1 0x1 PUSH1 0x1 PUSH1 0xA0 SHL SUB AND CALLER EQ PUSH2 0x1AC JUMPI PUSH1 0x40 MLOAD PUSH3 0x461BCD PUSH1 0xE5 SHL DUP2 MSTORE PUSH1 0x20 PUSH1 0x4 DUP3 ADD MSTORE PUSH1 0x26 PUSH1 0x24 DUP3 ADD MSTORE PUSH32 0x4F6E6C7920746865206F776E65722063616E20706572666F726D207468697320 PUSH1 0x44 DUP3 ADD MSTORE PUSH6 0x30B1BA34B7B7 PUSH1 0xD1 SHL PUSH1 0x64 DUP3 ADD MSTORE PUSH1 0x84 ADD PUSH1 0x40 MLOAD DUP1 SWAP2 SUB SWAP1 REVERT JUMPDEST PUSH0 DUP1 DUP1 SLOAD PUSH2 0x1B9 SWAP1 PUSH2 0x3B8 JUMP JUMPDEST DUP1 PUSH1 0x1F ADD PUSH1 0x20 DUP1 SWAP2 DIV MUL PUSH1 0x20 ADD PUSH1 0x40 MLOAD SWAP1 DUP2 ADD PUSH1 0x40 MSTORE DUP1 SWAP3 SWAP2 SWAP1 DUP2 DUP2 MSTORE PUSH1 0x20 ADD DUP3 DUP1 SLOAD PUSH2 0x1E5 SWAP1 PUSH2 0x3B8 JUMP JUMPDEST DUP1 ISZERO PUSH2 0x230 JUMPI DUP1 PUSH1 0x1F LT PUSH2 0x207 JUMPI PUSH2 0x100 DUP1 DUP4 SLOAD DIV MUL DUP4 MSTORE SWAP2 PUSH1 0x20 ADD SWAP2 PUSH2 0x230 JUMP JUMPDEST DUP3 ADD SWAP2 SWAP1 PUSH0 MSTORE PUSH1 0x20 PUSH0 KECCAK256 SWAP1 JUMPDEST DUP2 SLOAD DUP2 MSTORE SWAP1 PUSH1 0x1 ADD SWAP1 PUSH1 0x20 ADD DUP1 DUP4 GT PUSH2 0x213 JUMPI DUP3 SWAP1 SUB PUSH1 0x1F AND DUP3 ADD SWAP2 JUMPDEST POP POP POP POP POP SWAP1 POP DUP2 PUSH0 SWAP1 DUP2 PUSH2 0x245 SWAP2 SWAP1 PUSH2 0x43C JUMP JUMPDEST POP PUSH32 0x6C20B91D1723B78732EBA64FF11EBD7966A6E4AF568A00FA4F6B72C20F58B02A DUP2 DUP4 PUSH1 0x40 MLOAD PUSH2 0x277 SWAP3 SWAP2 SWAP1 PUSH2 0x4F7 JUMP JUMPDEST PUSH1 0x40 MLOAD DUP1 SWAP2 SUB SWAP1 LOG1 POP POP JUMP JUMPDEST PUSH1 0x60 PUSH0 PUSH1 0x40 MLOAD PUSH1 0x20 ADD PUSH2 0x296 SWAP2 SWAP1 PUSH2 0x524 JUMP JUMPDEST PUSH1 0x40 MLOAD PUSH1 0x20 DUP2 DUP4 SUB SUB DUP2 MSTORE SWAP1 PUSH1 0x40 MSTORE SWAP1 POP SWAP1 JUMP JUMPDEST PUSH0 DUP2 MLOAD DUP1 DUP5 MSTORE DUP1 PUSH1 0x20 DUP5 ADD PUSH1 0x20 DUP7 ADD MCOPY PUSH0 PUSH1 0x20 DUP3 DUP7 ADD ADD MSTORE PUSH1 0x20 PUSH1 0x1F NOT PUSH1 0x1F DUP4 ADD AND DUP6 ADD ADD SWAP2 POP POP SWAP3 SWAP2 POP POP JUMP JUMPDEST PUSH1 0x20 DUP2 MSTORE PUSH0 PUSH2 0x2EA PUSH1 0x20 DUP4 ADD DUP5 PUSH2 0x2AA JUMP JUMPDEST SWAP4 SWAP3 POP POP POP JUMP JUMPDEST PUSH4 0x4E487B71 PUSH1 0xE0 SHL PUSH0 MSTORE PUSH1 0x41 PUSH1 0x4 MSTORE PUSH1 0x24 PUSH0 REVERT JUMPDEST PUSH0 PUSH1 0x20 DUP3 DUP5 SUB SLT ISZERO PUSH2 0x315 JUMPI PUSH0 DUP1 REVERT JUMPDEST DUP2 CALLDATALOAD PUSH8 0xFFFFFFFFFFFFFFFF DUP2 GT ISZERO PUSH2 0x32B JUMPI PUSH0 DUP1 REVERT JUMPDEST DUP3 ADD PUSH1 0x1F DUP2 ADD DUP5 SGT PUSH2 0x33B JUMPI PUSH0 DUP1 REVERT JUMPDEST DUP1 CALLDATALOAD PUSH8 0xFFFFFFFFFFFFFFFF DUP2 GT ISZERO PUSH2 0x355 JUMPI PUSH2 0x355 PUSH2 0x2F1 JUMP JUMPDEST PUSH1 0x40 MLOAD PUSH1 0x1F DUP3 ADD PUSH1 0x1F NOT SWAP1 DUP2 AND PUSH1 0x3F ADD AND DUP2 ADD PUSH8 0xFFFFFFFFFFFFFFFF DUP2 GT DUP3 DUP3 LT OR ISZERO PUSH2 0x384 JUMPI PUSH2 0x384 PUSH2 0x2F1 JUMP JUMPDEST PUSH1 0x40 MSTORE DUP2 DUP2 MSTORE DUP3 DUP3 ADD PUSH1 0x20 ADD DUP7 LT ISZERO PUSH2 0x39B JUMPI PUSH0 DUP1 REVERT JUMPDEST DUP2 PUSH1 0x20 DUP5 ADD PUSH1 0x20 DUP4 ADD CALLDATACOPY PUSH0 SWAP2 DUP2 ADD PUSH1 0x20 ADD SWAP2 SWAP1 SWAP2 MSTORE SWAP5 SWAP4 POP POP POP POP JUMP JUMPDEST PUSH1 0x1 DUP2 DUP2 SHR SWAP1 DUP3 AND DUP1 PUSH2 0x3CC JUMPI PUSH1 0x7F DUP3 AND SWAP2 POP JUMPDEST PUSH1 0x20 DUP3 LT DUP2 SUB PUSH2 0x3EA JUMPI PUSH4 0x4E487B71 PUSH1 0xE0 SHL PUSH0 MSTORE PUSH1 0x22 PUSH1 0x4 MSTORE PUSH1 0x24 PUSH0 REVERT JUMPDEST POP SWAP2 SWAP1 POP JUMP JUMPDEST PUSH1 0x1F DUP3 GT ISZERO PUSH2 0x437 JUMPI DUP1 PUSH0 MSTORE PUSH1 0x20 PUSH0 KECCAK256 PUSH1 0x1F DUP5 ADD PUSH1 0x5 SHR DUP2 ADD PUSH1 0x20 DUP6 LT ISZERO PUSH2 0x415 JUMPI POP DUP1 JUMPDEST PUSH1 0x1F DUP5 ADD PUSH1 0x5 SHR DUP3 ADD SWAP2 POP JUMPDEST DUP2 DUP2 LT ISZERO PUSH2 0x434 JUMPI PUSH0 DUP2 SSTORE PUSH1 0x1 ADD PUSH2 0x421 JUMP JUMPDEST POP POP JUMPDEST POP POP POP JUMP JUMPDEST DUP2 MLOAD PUSH8 0xFFFFFFFFFFFFFFFF DUP2 GT ISZERO PUSH2 0x456 JUMPI PUSH2 0x456 PUSH2 0x2F1 JUMP JUMPDEST PUSH2 0x46A DUP2 PUSH2 0x464 DUP5 SLOAD PUSH2 0x3B8 JUMP JUMPDEST DUP5 PUSH2 0x3F0 JUMP JUMPDEST PUSH1 0x20 PUSH1 0x1F DUP3 GT PUSH1 0x1 DUP2 EQ PUSH2 0x49C JUMPI PUSH0 DUP4 ISZERO PUSH2 0x485 JUMPI POP DUP5 DUP3 ADD MLOAD JUMPDEST PUSH0 NOT PUSH1 0x3 DUP6 SWAP1 SHL SHR NOT AND PUSH1 0x1 DUP5 SWAP1 SHL OR DUP5 SSTORE PUSH2 0x434 JUMP JUMPDEST PUSH0 DUP5 DUP2 MSTORE PUSH1 0x20 DUP2 KECCAK256 PUSH1 0x1F NOT DUP6 AND SWAP2 JUMPDEST DUP3 DUP2 LT ISZERO PUSH2 0x4CB JUMPI DUP8 DUP6 ADD MLOAD DUP3 SSTORE PUSH1 0x20 SWAP5 DUP6 ADD SWAP5 PUSH1 0x1 SWAP1 SWAP3 ADD SWAP2 ADD PUSH2 0x4AB JUMP JUMPDEST POP DUP5 DUP3 LT ISZERO PUSH2 0x4E8 JUMPI DUP7 DUP5 ADD MLOAD PUSH0 NOT PUSH1 0x3 DUP8 SWAP1 SHL PUSH1 0xF8 AND SHR NOT AND DUP2 SSTORE JUMPDEST POP POP POP POP PUSH1 0x1 SWAP1 DUP2 SHL ADD SWAP1 SSTORE POP JUMP JUMPDEST PUSH1 0x40 DUP2 MSTORE PUSH0 PUSH2 0x509 PUSH1 0x40 DUP4 ADD DUP6 PUSH2 0x2AA JUMP JUMPDEST DUP3 DUP2 SUB PUSH1 0x20 DUP5 ADD MSTORE PUSH2 0x51B DUP2 DUP6 PUSH2 0x2AA JUMP JUMPDEST SWAP6 SWAP5 POP POP POP POP POP JUMP JUMPDEST PUSH7 0x2432B63637961 PUSH1 0xCD SHL DUP2 MSTORE PUSH0 DUP1 DUP4 SLOAD PUSH2 0x53E DUP2 PUSH2 0x3B8 JUMP JUMPDEST PUSH1 0x1 DUP3 AND DUP1 ISZERO PUSH2 0x555 JUMPI PUSH1 0x1 DUP2 EQ PUSH2 0x570 JUMPI PUSH2 0x5A3 JUMP JUMPDEST PUSH1 0xFF NOT DUP4 AND PUSH1 0x7 DUP8 ADD MSTORE PUSH1 0x7 DUP3 ISZERO ISZERO DUP4 MUL DUP8 ADD ADD SWAP4 POP PUSH2 0x5A3 JUMP JUMPDEST DUP7 PUSH0 MSTORE PUSH1 0x20 PUSH0 KECCAK256 PUSH0 JUMPDEST DUP4 DUP2 LT ISZERO PUSH2 0x598 JUMPI DUP2 SLOAD DUP9 DUP3 ADD PUSH1 0x7 ADD MSTORE PUSH1 0x1 SWAP1 SWAP2 ADD SWAP1 PUSH1 0x20 ADD PUSH2 0x579 JUMP JUMPDEST POP POP PUSH1 0x7 DUP3 DUP8 ADD ADD SWAP4 POP JUMPDEST POP POP PUSH1 0x21 PUSH1 0xF8 SHL DUP3 MSTORE POP PUSH1 0x1 ADD SWAP4 SWAP3 POP POP POP JUMP INVALID LOG2 PUSH5 0x6970667358 0x22 SLT KECCAK256 SWAP12 GASPRICE 0xC7 0xD9 0xE7 SWAP6 TSTORE DUP13 CHAINID CHAINID 0xE9 0x4B DUP10 0xB0 RETURNDATACOPY 0xDE 0xB9 0xCC 0x29 STOP 0xD6 0xCD XOR 0xAB LOG3 SWAP14 RETURNDATACOPY DUP14 LT 0xB4 SWAP15 PUSH2 0x6473 PUSH16 0x6C634300081A00330000000000000000 "
				},
				"gasEstimates": {
					"creation": {
						"codeDepositCost": "303400",
						"executionCost": "infinite",
						"totalCost": "infinite"
					},
					"external": {
						"changeName(string)": "infinite",
						"greet()": "infinite",
						"name()": "infinite",
						"owner()": "2358"
					}
				},
				"methodIdentifiers": {
					"changeName(string)": "5353a2d8",
					"greet()": "cfae3217",
					"name()": "06fdde03",
					"owner()": "8da5cb5b"
				}
			},
			"storageLayout": {
				"storage": [
					{
						"astId": 3,
						"contract": "greetersomn.sol:Greeter",
						"label": "name",
						"offset": 0,
						"slot": "0",
						"type": "t_string_storage"
					},
					{
						"astId": 5,
						"contract": "greetersomn.sol:Greeter",
						"label": "owner",
						"offset": 0,
						"slot": "1",
						"type": "t_address"
					}
				],
				"types": {
					"t_address": {
						"encoding": "inplace",
						"label": "address",
						"numberOfBytes": "20"
					},
					"t_string_storage": {
						"encoding": "bytes",
						"label": "string",
						"numberOfBytes": "32"
					}
				}
			},
			"userdoc": {
				"kind": "user",
				"methods": {},
				"version": 1
			}
		}
	}
}