{
	"quality-unique-contracts/advanced-unique-contracts/Staking.sol": {
		"Staking": {
			"abi": [
				{
					"inputs": [
						{
							"internalType": "address",
							"name": "",
							"type": "address"
						}
					],
					"name": "balances",
					"outputs": [
						{
							"internalType": "uint256",
							"name": "",
							"type": "uint256"
						}
					],
					"stateMutability": "view",
					"type": "function"
				},
				{
					"inputs": [
						{
							"internalType": "address",
							"name": "user",
							"type": "address"
						}
					],
					"name": "checkReward",
					"outputs": [
						{
							"internalType": "uint256",
							"name": "",
							"type": "uint256"
						}
					],
					"stateMutability": "view",
					"type": "function"
				},
				{
					"inputs": [],
					"name": "rewardRate",
					"outputs": [
						{
							"internalType": "uint256",
							"name": "",
							"type": "uint256"
						}
					],
					"stateMutability": "view",
					"type": "function"
				},
				{
					"inputs": [],
					"name": "stake",
					"outputs": [],
					"stateMutability": "payable",
					"type": "function"
				}
			],
			"devdoc": {
				"kind": "dev",
				"methods": {},
				"version": 1
			},
			"evm": {
				"assembly": "    /* \"quality-unique-contracts/advanced-unique-contracts/Staking.sol\":58:448  contract Staking {... */\n  mstore(0x40, 0x80)\n    /* \"quality-unique-contracts/advanced-unique-contracts/Staking.sol\":158:160  10 */\n  0x0a\n    /* \"quality-unique-contracts/advanced-unique-contracts/Staking.sol\":130:160  uint256 public rewardRate = 10 */\n  0x01\n  sstore\n    /* \"quality-unique-contracts/advanced-unique-contracts/Staking.sol\":58:448  contract Staking {... */\n  callvalue\n  dup1\n  iszero\n  tag_1\n  jumpi\n  0x00\n  dup1\n  revert\ntag_1:\n  pop\n  dataSize(sub_0)\n  dup1\n  dataOffset(sub_0)\n  0x00\n  codecopy\n  0x00\n  return\nstop\n\nsub_0: assembly {\n        /* \"quality-unique-contracts/advanced-unique-contracts/Staking.sol\":58:448  contract Staking {... */\n      mstore(0x40, 0x80)\n      jumpi(tag_1, lt(calldatasize, 0x04))\n      shr(0xe0, calldataload(0x00))\n      dup1\n      0x27e235e3\n      eq\n      tag_2\n      jumpi\n      dup1\n      0x3a4b66f1\n      eq\n      tag_3\n      jumpi\n      dup1\n      0x7b0a47ee\n      eq\n      tag_4\n      jumpi\n      dup1\n      0xc3c90e64\n      eq\n      tag_5\n      jumpi\n    tag_1:\n      0x00\n      dup1\n      revert\n        /* \"quality-unique-contracts/advanced-unique-contracts/Staking.sol\":81:124  mapping(address => uint256) public balances */\n    tag_2:\n      callvalue\n      dup1\n      iszero\n      tag_6\n      jumpi\n      0x00\n      dup1\n      revert\n    tag_6:\n      pop\n      tag_7\n      tag_8\n      calldatasize\n      0x04\n      tag_9\n      jump\t// in\n    tag_8:\n      0x00\n      0x20\n      dup2\n      swap1\n      mstore\n      swap1\n      dup2\n      mstore\n      0x40\n      swap1\n      keccak256\n      sload\n      dup2\n      jump\n    tag_7:\n      mload(0x40)\n        /* \"#utility.yul\":451:476   */\n      swap1\n      dup2\n      mstore\n        /* \"#utility.yul\":439:441   */\n      0x20\n        /* \"#utility.yul\":424:442   */\n      add\n        /* \"quality-unique-contracts/advanced-unique-contracts/Staking.sol\":81:124  mapping(address => uint256) public balances */\n      mload(0x40)\n      dup1\n      swap2\n      sub\n      swap1\n      return\n        /* \"quality-unique-contracts/advanced-unique-contracts/Staking.sol\":167:316  function stake() public payable {... */\n    tag_3:\n      tag_13\n      tag_14\n      jump\t// in\n    tag_13:\n      stop\n        /* \"quality-unique-contracts/advanced-unique-contracts/Staking.sol\":130:160  uint256 public rewardRate = 10 */\n    tag_4:\n      callvalue\n      dup1\n      iszero\n      tag_15\n      jumpi\n      0x00\n      dup1\n      revert\n    tag_15:\n      pop\n      tag_7\n      sload(0x01)\n      dup2\n      jump\n        /* \"quality-unique-contracts/advanced-unique-contracts/Staking.sol\":322:446  function checkReward(address user) public view returns (uint256) {... */\n    tag_5:\n      callvalue\n      dup1\n      iszero\n      tag_19\n      jumpi\n      0x00\n      dup1\n      revert\n    tag_19:\n      pop\n      tag_7\n      tag_21\n      calldatasize\n      0x04\n      tag_9\n      jump\t// in\n    tag_21:\n      tag_22\n      jump\t// in\n        /* \"quality-unique-contracts/advanced-unique-contracts/Staking.sol\":167:316  function stake() public payable {... */\n    tag_14:\n        /* \"quality-unique-contracts/advanced-unique-contracts/Staking.sol\":229:230  0 */\n      0x00\n        /* \"quality-unique-contracts/advanced-unique-contracts/Staking.sol\":217:226  msg.value */\n      callvalue\n        /* \"quality-unique-contracts/advanced-unique-contracts/Staking.sol\":217:230  msg.value > 0 */\n      gt\n        /* \"quality-unique-contracts/advanced-unique-contracts/Staking.sol\":209:266  require(msg.value > 0, \"Stake must be greater than zero\") */\n      tag_25\n      jumpi\n      mload(0x40)\n      shl(0xe5, 0x461bcd)\n      dup2\n      mstore\n        /* \"#utility.yul\":689:691   */\n      0x20\n        /* \"quality-unique-contracts/advanced-unique-contracts/Staking.sol\":209:266  require(msg.value > 0, \"Stake must be greater than zero\") */\n      0x04\n      dup3\n      add\n        /* \"#utility.yul\":671:692   */\n      mstore\n        /* \"#utility.yul\":728:730   */\n      0x1f\n        /* \"#utility.yul\":708:726   */\n      0x24\n      dup3\n      add\n        /* \"#utility.yul\":701:731   */\n      mstore\n        /* \"#utility.yul\":767:800   */\n      0x5374616b65206d7573742062652067726561746572207468616e207a65726f00\n        /* \"#utility.yul\":747:765   */\n      0x44\n      dup3\n      add\n        /* \"#utility.yul\":740:801   */\n      mstore\n        /* \"#utility.yul\":818:836   */\n      0x64\n      add\n        /* \"quality-unique-contracts/advanced-unique-contracts/Staking.sol\":209:266  require(msg.value > 0, \"Stake must be greater than zero\") */\n      mload(0x40)\n      dup1\n      swap2\n      sub\n      swap1\n      revert\n    tag_25:\n        /* \"quality-unique-contracts/advanced-unique-contracts/Staking.sol\":285:295  msg.sender */\n      caller\n        /* \"quality-unique-contracts/advanced-unique-contracts/Staking.sol\":276:284  balances */\n      0x00\n        /* \"quality-unique-contracts/advanced-unique-contracts/Staking.sol\":276:296  balances[msg.sender] */\n      swap1\n      dup2\n      mstore\n      0x20\n      dup2\n      swap1\n      mstore\n      0x40\n      dup2\n      keccak256\n        /* \"quality-unique-contracts/advanced-unique-contracts/Staking.sol\":276:309  balances[msg.sender] += msg.value */\n      dup1\n      sload\n        /* \"quality-unique-contracts/advanced-unique-contracts/Staking.sol\":300:309  msg.value */\n      callvalue\n      swap3\n        /* \"quality-unique-contracts/advanced-unique-contracts/Staking.sol\":276:284  balances */\n      swap1\n        /* \"quality-unique-contracts/advanced-unique-contracts/Staking.sol\":276:309  balances[msg.sender] += msg.value */\n      tag_28\n      swap1\n        /* \"quality-unique-contracts/advanced-unique-contracts/Staking.sol\":300:309  msg.value */\n      dup5\n      swap1\n        /* \"quality-unique-contracts/advanced-unique-contracts/Staking.sol\":276:309  balances[msg.sender] += msg.value */\n      tag_29\n      jump\t// in\n    tag_28:\n      swap1\n      swap2\n      sstore\n      pop\n      pop\n        /* \"quality-unique-contracts/advanced-unique-contracts/Staking.sol\":167:316  function stake() public payable {... */\n      jump\t// out\n        /* \"quality-unique-contracts/advanced-unique-contracts/Staking.sol\":322:446  function checkReward(address user) public view returns (uint256) {... */\n    tag_22:\n        /* \"quality-unique-contracts/advanced-unique-contracts/Staking.sol\":422:432  rewardRate */\n      sload(0x01)\n      sub(shl(0xa0, 0x01), 0x01)\n        /* \"quality-unique-contracts/advanced-unique-contracts/Staking.sol\":405:419  balances[user] */\n      dup3\n      and\n        /* \"quality-unique-contracts/advanced-unique-contracts/Staking.sol\":378:385  uint256 */\n      0x00\n        /* \"quality-unique-contracts/advanced-unique-contracts/Staking.sol\":405:419  balances[user] */\n      swap1\n      dup2\n      mstore\n      0x20\n      dup2\n      swap1\n      mstore\n      0x40\n      dup2\n      keccak256\n      sload\n        /* \"quality-unique-contracts/advanced-unique-contracts/Staking.sol\":378:385  uint256 */\n      swap1\n      swap2\n        /* \"quality-unique-contracts/advanced-unique-contracts/Staking.sol\":436:439  100 */\n      0x64\n      swap2\n        /* \"quality-unique-contracts/advanced-unique-contracts/Staking.sol\":405:432  balances[user] * rewardRate */\n      tag_31\n      swap2\n        /* \"quality-unique-contracts/advanced-unique-contracts/Staking.sol\":422:432  rewardRate */\n      swap1\n        /* \"quality-unique-contracts/advanced-unique-contracts/Staking.sol\":405:432  balances[user] * rewardRate */\n      tag_32\n      jump\t// in\n    tag_31:\n        /* \"quality-unique-contracts/advanced-unique-contracts/Staking.sol\":404:439  (balances[user] * rewardRate) / 100 */\n      tag_33\n      swap2\n      swap1\n      tag_34\n      jump\t// in\n    tag_33:\n        /* \"quality-unique-contracts/advanced-unique-contracts/Staking.sol\":397:439  return (balances[user] * rewardRate) / 100 */\n      swap3\n        /* \"quality-unique-contracts/advanced-unique-contracts/Staking.sol\":322:446  function checkReward(address user) public view returns (uint256) {... */\n      swap2\n      pop\n      pop\n      jump\t// out\n        /* \"#utility.yul\":14:300   */\n    tag_9:\n        /* \"#utility.yul\":73:79   */\n      0x00\n        /* \"#utility.yul\":126:128   */\n      0x20\n        /* \"#utility.yul\":114:123   */\n      dup3\n        /* \"#utility.yul\":105:112   */\n      dup5\n        /* \"#utility.yul\":101:124   */\n      sub\n        /* \"#utility.yul\":97:129   */\n      slt\n        /* \"#utility.yul\":94:146   */\n      iszero\n      tag_38\n      jumpi\n        /* \"#utility.yul\":142:143   */\n      0x00\n        /* \"#utility.yul\":139:140   */\n      dup1\n        /* \"#utility.yul\":132:144   */\n      revert\n        /* \"#utility.yul\":94:146   */\n    tag_38:\n        /* \"#utility.yul\":168:191   */\n      dup2\n      calldataload\n      sub(shl(0xa0, 0x01), 0x01)\n        /* \"#utility.yul\":220:251   */\n      dup2\n      and\n        /* \"#utility.yul\":210:252   */\n      dup2\n      eq\n        /* \"#utility.yul\":200:270   */\n      tag_39\n      jumpi\n        /* \"#utility.yul\":266:267   */\n      0x00\n        /* \"#utility.yul\":263:264   */\n      dup1\n        /* \"#utility.yul\":256:268   */\n      revert\n        /* \"#utility.yul\":200:270   */\n    tag_39:\n        /* \"#utility.yul\":289:294   */\n      swap4\n        /* \"#utility.yul\":14:300   */\n      swap3\n      pop\n      pop\n      pop\n      jump\t// out\n        /* \"#utility.yul\":847:974   */\n    tag_35:\n        /* \"#utility.yul\":908:918   */\n      0x4e487b71\n        /* \"#utility.yul\":903:906   */\n      0xe0\n        /* \"#utility.yul\":899:919   */\n      shl\n        /* \"#utility.yul\":896:897   */\n      0x00\n        /* \"#utility.yul\":889:920   */\n      mstore\n        /* \"#utility.yul\":939:943   */\n      0x11\n        /* \"#utility.yul\":936:937   */\n      0x04\n        /* \"#utility.yul\":929:944   */\n      mstore\n        /* \"#utility.yul\":963:967   */\n      0x24\n        /* \"#utility.yul\":960:961   */\n      0x00\n        /* \"#utility.yul\":953:968   */\n      revert\n        /* \"#utility.yul\":979:1104   */\n    tag_29:\n        /* \"#utility.yul\":1044:1053   */\n      dup1\n      dup3\n      add\n        /* \"#utility.yul\":1065:1075   */\n      dup1\n      dup3\n      gt\n        /* \"#utility.yul\":1062:1098   */\n      iszero\n      tag_33\n      jumpi\n        /* \"#utility.yul\":1078:1096   */\n      tag_33\n      tag_35\n      jump\t// in\n        /* \"#utility.yul\":1109:1277   */\n    tag_32:\n        /* \"#utility.yul\":1182:1191   */\n      dup1\n      dup3\n      mul\n        /* \"#utility.yul\":1213:1222   */\n      dup2\n      iszero\n        /* \"#utility.yul\":1230:1245   */\n      dup3\n      dup3\n      div\n        /* \"#utility.yul\":1224:1246   */\n      dup5\n      eq\n        /* \"#utility.yul\":1210:1247   */\n      or\n        /* \"#utility.yul\":1200:1271   */\n      tag_33\n      jumpi\n        /* \"#utility.yul\":1251:1269   */\n      tag_33\n      tag_35\n      jump\t// in\n        /* \"#utility.yul\":1282:1499   */\n    tag_34:\n        /* \"#utility.yul\":1322:1323   */\n      0x00\n        /* \"#utility.yul\":1348:1349   */\n      dup3\n        /* \"#utility.yul\":1338:1470   */\n      tag_50\n      jumpi\n        /* \"#utility.yul\":1392:1402   */\n      0x4e487b71\n        /* \"#utility.yul\":1387:1390   */\n      0xe0\n        /* \"#utility.yul\":1383:1403   */\n      shl\n        /* \"#utility.yul\":1380:1381   */\n      0x00\n        /* \"#utility.yul\":1373:1404   */\n      mstore\n        /* \"#utility.yul\":1427:1431   */\n      0x12\n        /* \"#utility.yul\":1424:1425   */\n      0x04\n        /* \"#utility.yul\":1417:1432   */\n      mstore\n        /* \"#utility.yul\":1455:1459   */\n      0x24\n        /* \"#utility.yul\":1452:1453   */\n      0x00\n        /* \"#utility.yul\":1445:1460   */\n      revert\n        /* \"#utility.yul\":1338:1470   */\n    tag_50:\n      pop\n        /* \"#utility.yul\":1484:1493   */\n      div\n      swap1\n        /* \"#utility.yul\":1282:1499   */\n      jump\t// out\n\n    auxdata: 0xa2646970667358221220808913c8451a85f7bb0974775fede69236552fd8789447c2ba4f8661a06ad7fd64736f6c634300081a0033\n}\n",
				"bytecode": {
					"linkReferences": {},
					"object": "6080604052600a6001553480156013575f80fd5b5061022f806100215f395ff3fe60806040526004361061003e575f3560e01c806327e235e3146100425780633a4b66f11461007f5780637b0a47ee14610089578063c3c90e641461009e575b5f80fd5b34801561004d575f80fd5b5061006d61005c36600461016f565b5f6020819052908152604090205481565b60405190815260200160405180910390f35b6100876100bd565b005b348015610094575f80fd5b5061006d60015481565b3480156100a9575f80fd5b5061006d6100b836600461016f565b610135565b5f34116101105760405162461bcd60e51b815260206004820152601f60248201527f5374616b65206d7573742062652067726561746572207468616e207a65726f00604482015260640160405180910390fd5b335f908152602081905260408120805434929061012e9084906101b0565b9091555050565b6001546001600160a01b0382165f90815260208190526040812054909160649161015f91906101c3565b61016991906101da565b92915050565b5f6020828403121561017f575f80fd5b81356001600160a01b0381168114610195575f80fd5b9392505050565b634e487b7160e01b5f52601160045260245ffd5b808201808211156101695761016961019c565b80820281158282048414176101695761016961019c565b5f826101f457634e487b7160e01b5f52601260045260245ffd5b50049056fea2646970667358221220808913c8451a85f7bb0974775fede69236552fd8789447c2ba4f8661a06ad7fd64736f6c634300081a0033",
					"opcodes": "PUSH1 0x80 PUSH1 0x40 MSTORE PUSH1 0xA PUSH1 0x1 SSTORE CALLVALUE DUP1 ISZERO PUSH1 0x13 JUMPI PUSH0 DUP1 REVERT JUMPDEST POP PUSH2 0x22F DUP1 PUSH2 0x21 PUSH0 CODECOPY PUSH0 RETURN INVALID PUSH1 0x80 PUSH1 0x40 MSTORE PUSH1 0x4 CALLDATASIZE LT PUSH2 0x3E JUMPI PUSH0 CALLDATALOAD PUSH1 0xE0 SHR DUP1 PUSH4 0x27E235E3 EQ PUSH2 0x42 JUMPI DUP1 PUSH4 0x3A4B66F1 EQ PUSH2 0x7F JUMPI DUP1 PUSH4 0x7B0A47EE EQ PUSH2 0x89 JUMPI DUP1 PUSH4 0xC3C90E64 EQ PUSH2 0x9E JUMPI JUMPDEST PUSH0 DUP1 REVERT JUMPDEST CALLVALUE DUP1 ISZERO PUSH2 0x4D JUMPI PUSH0 DUP1 REVERT JUMPDEST POP PUSH2 0x6D PUSH2 0x5C CALLDATASIZE PUSH1 0x4 PUSH2 0x16F JUMP JUMPDEST PUSH0 PUSH1 0x20 DUP2 SWAP1 MSTORE SWAP1 DUP2 MSTORE PUSH1 0x40 SWAP1 KECCAK256 SLOAD DUP2 JUMP JUMPDEST PUSH1 0x40 MLOAD SWAP1 DUP2 MSTORE PUSH1 0x20 ADD PUSH1 0x40 MLOAD DUP1 SWAP2 SUB SWAP1 RETURN JUMPDEST PUSH2 0x87 PUSH2 0xBD JUMP JUMPDEST STOP JUMPDEST CALLVALUE DUP1 ISZERO PUSH2 0x94 JUMPI PUSH0 DUP1 REVERT JUMPDEST POP PUSH2 0x6D PUSH1 0x1 SLOAD DUP2 JUMP JUMPDEST CALLVALUE DUP1 ISZERO PUSH2 0xA9 JUMPI PUSH0 DUP1 REVERT JUMPDEST POP PUSH2 0x6D PUSH2 0xB8 CALLDATASIZE PUSH1 0x4 PUSH2 0x16F JUMP JUMPDEST PUSH2 0x135 JUMP JUMPDEST PUSH0 CALLVALUE GT PUSH2 0x110 JUMPI PUSH1 0x40 MLOAD PUSH3 0x461BCD PUSH1 0xE5 SHL DUP2 MSTORE PUSH1 0x20 PUSH1 0x4 DUP3 ADD MSTORE PUSH1 0x1F PUSH1 0x24 DUP3 ADD MSTORE PUSH32 0x5374616B65206D7573742062652067726561746572207468616E207A65726F00 PUSH1 0x44 DUP3 ADD MSTORE PUSH1 0x64 ADD PUSH1 0x40 MLOAD DUP1 SWAP2 SUB SWAP1 REVERT JUMPDEST CALLER PUSH0 SWAP1 DUP2 MSTORE PUSH1 0x20 DUP2 SWAP1 MSTORE PUSH1 0x40 DUP2 KECCAK256 DUP1 SLOAD CALLVALUE SWAP3 SWAP1 PUSH2 0x12E SWAP1 DUP5 SWAP1 PUSH2 0x1B0 JUMP JUMPDEST SWAP1 SWAP2 SSTORE POP POP JUMP JUMPDEST PUSH1 0x1 SLOAD PUSH1 0x1 PUSH1 0x1 PUSH1 0xA0 SHL SUB DUP3 AND PUSH0 SWAP1 DUP2 MSTORE PUSH1 0x20 DUP2 SWAP1 MSTORE PUSH1 0x40 DUP2 KECCAK256 SLOAD SWAP1 SWAP2 PUSH1 0x64 SWAP2 PUSH2 0x15F SWAP2 SWAP1 PUSH2 0x1C3 JUMP JUMPDEST PUSH2 0x169 SWAP2 SWAP1 PUSH2 0x1DA JUMP JUMPDEST SWAP3 SWAP2 POP POP JUMP JUMPDEST PUSH0 PUSH1 0x20 DUP3 DUP5 SUB SLT ISZERO PUSH2 0x17F JUMPI PUSH0 DUP1 REVERT JUMPDEST DUP2 CALLDATALOAD PUSH1 0x1 PUSH1 0x1 PUSH1 0xA0 SHL SUB DUP2 AND DUP2 EQ PUSH2 0x195 JUMPI PUSH0 DUP1 REVERT JUMPDEST SWAP4 SWAP3 POP POP POP JUMP JUMPDEST PUSH4 0x4E487B71 PUSH1 0xE0 SHL PUSH0 MSTORE PUSH1 0x11 PUSH1 0x4 MSTORE PUSH1 0x24 PUSH0 REVERT JUMPDEST DUP1 DUP3 ADD DUP1 DUP3 GT ISZERO PUSH2 0x169 JUMPI PUSH2 0x169 PUSH2 0x19C JUMP JUMPDEST DUP1 DUP3 MUL DUP2 ISZERO DUP3 DUP3 DIV DUP5 EQ OR PUSH2 0x169 JUMPI PUSH2 0x169 PUSH2 0x19C JUMP JUMPDEST PUSH0 DUP3 PUSH2 0x1F4 JUMPI PUSH4 0x4E487B71 PUSH1 0xE0 SHL PUSH0 MSTORE PUSH1 0x12 PUSH1 0x4 MSTORE PUSH1 0x24 PUSH0 REVERT JUMPDEST POP DIV SWAP1 JUMP INVALID LOG2 PUSH5 0x6970667358 0x22 SLT KECCAK256 DUP1 DUP10 SGT 0xC8 GASLIMIT BYTE DUP6 0xF7 0xBB MULMOD PUSH21 0x775FEDE69236552FD8789447C2BA4F8661A06AD7FD PUSH5 0x736F6C6343 STOP ADDMOD BYTE STOP CALLER "
				},
				"gasEstimates": {
					"creation": {
						"codeDepositCost": "111800",
						"executionCost": "22263",
						"totalCost": "134063"
					},
					"external": {
						"balances(address)": "2450",
						"checkReward(address)": "infinite",
						"rewardRate()": "2304",
						"stake()": "24512"
					}
				},
				"methodIdentifiers": {
					"balances(address)": "27e235e3",
					"checkReward(address)": "c3c90e64",
					"rewardRate()": "7b0a47ee",
					"stake()": "3a4b66f1"
				}
			},
			"storageLayout": {
				"storage": [
					{
						"astId": 5,
						"contract": "quality-unique-contracts/advanced-unique-contracts/Staking.sol:Staking",
						"label": "balances",
						"offset": 0,
						"slot": "0",
						"type": "t_mapping(t_address,t_uint256)"
					},
					{
						"astId": 8,
						"contract": "quality-unique-contracts/advanced-unique-contracts/Staking.sol:Staking",
						"label": "rewardRate",
						"offset": 0,
						"slot": "1",
						"type": "t_uint256"
					}
				],
				"types": {
					"t_address": {
						"encoding": "inplace",
						"label": "address",
						"numberOfBytes": "20"
					},
					"t_mapping(t_address,t_uint256)": {
						"encoding": "mapping",
						"key": "t_address",
						"label": "mapping(address => uint256)",
						"numberOfBytes": "32",
						"value": "t_uint256"
					},
					"t_uint256": {
						"encoding": "inplace",
						"label": "uint256",
						"numberOfBytes": "32"
					}
				}
			},
			"userdoc": {
				"kind": "user",
				"methods": {},
				"version": 1
			}
		}
	}
}