{
	"crowdfonding.sol": {
		"Deploy30Crowdfund": {
			"abi": [
				{
					"inputs": [
						{
							"internalType": "uint256",
							"name": "",
							"type": "uint256"
						}
					],
					"name": "campaigns",
					"outputs": [
						{
							"internalType": "contract Crowdfund",
							"name": "",
							"type": "address"
						}
					],
					"stateMutability": "view",
					"type": "function"
				},
				{
					"inputs": [],
					"name": "deployAll",
					"outputs": [],
					"stateMutability": "nonpayable",
					"type": "function"
				},
				{
					"inputs": [
						{
							"internalType": "uint256",
							"name": "index",
							"type": "uint256"
						}
					],
					"name": "get",
					"outputs": [
						{
							"internalType": "address",
							"name": "",
							"type": "address"
						}
					],
					"stateMutability": "view",
					"type": "function"
				}
			],
			"devdoc": {
				"kind": "dev",
				"methods": {},
				"version": 1
			},
			"evm": {
				"assembly": "    /* \"crowdfonding.sol\":1241:2199  contract Deploy30Crowdfund {... */\n  mstore(0x40, 0x80)\n  callvalue\n  dup1\n  iszero\n  tag_1\n  jumpi\n  0x00\n  dup1\n  revert\ntag_1:\n  pop\n  dataSize(sub_0)\n  dup1\n  dataOffset(sub_0)\n  0x00\n  codecopy\n  0x00\n  return\nstop\n\nsub_0: assembly {\n        /* \"crowdfonding.sol\":1241:2199  contract Deploy30Crowdfund {... */\n      mstore(0x40, 0x80)\n      callvalue\n      dup1\n      iszero\n      tag_1\n      jumpi\n      0x00\n      dup1\n      revert\n    tag_1:\n      pop\n      jumpi(tag_2, lt(calldatasize, 0x04))\n      shr(0xe0, calldataload(0x00))\n      dup1\n      0x141961bc\n      eq\n      tag_3\n      jumpi\n      dup1\n      0x2d823335\n      eq\n      tag_4\n      jumpi\n      dup1\n      0x9507d39a\n      eq\n      tag_5\n      jumpi\n    tag_2:\n      0x00\n      dup1\n      revert\n        /* \"crowdfonding.sol\":1275:1303  Crowdfund[] public campaigns */\n    tag_3:\n      tag_6\n      tag_7\n      calldatasize\n      0x04\n      tag_8\n      jump\t// in\n    tag_7:\n      tag_9\n      jump\t// in\n    tag_6:\n      mload(0x40)\n      sub(shl(0xa0, 0x01), 0x01)\n        /* \"#utility.yul\":380:412   */\n      swap1\n      swap2\n      and\n        /* \"#utility.yul\":362:413   */\n      dup2\n      mstore\n        /* \"#utility.yul\":350:352   */\n      0x20\n        /* \"#utility.yul\":335:353   */\n      add\n        /* \"crowdfonding.sol\":1275:1303  Crowdfund[] public campaigns */\n      mload(0x40)\n      dup1\n      swap2\n      sub\n      swap1\n      return\n        /* \"crowdfonding.sol\":1312:1646  function deployAll() public {... */\n    tag_4:\n      tag_12\n      tag_13\n      jump\t// in\n    tag_12:\n      stop\n        /* \"crowdfonding.sol\":1654:1804  function get(uint index) public view returns (address) {... */\n    tag_5:\n      tag_6\n      tag_15\n      calldatasize\n      0x04\n      tag_8\n      jump\t// in\n    tag_15:\n      tag_16\n      jump\t// in\n        /* \"crowdfonding.sol\":1275:1303  Crowdfund[] public campaigns */\n    tag_9:\n      0x00\n      dup2\n      dup2\n      sload\n      dup2\n      lt\n      tag_19\n      jumpi\n      0x00\n      dup1\n      revert\n    tag_19:\n      0x00\n      swap2\n      dup3\n      mstore\n      0x20\n      swap1\n      swap2\n      keccak256\n      add\n      sload\n      sub(shl(0xa0, 0x01), 0x01)\n      and\n      swap1\n      pop\n      dup2\n      jump\t// out\n        /* \"crowdfonding.sol\":1312:1646  function deployAll() public {... */\n    tag_13:\n        /* \"crowdfonding.sol\":1359:1368  campaigns */\n      0x00\n        /* \"crowdfonding.sol\":1359:1375  campaigns.length */\n      sload\n        /* \"crowdfonding.sol\":1359:1380  campaigns.length == 0 */\n      iszero\n        /* \"crowdfonding.sol\":1351:1401  require(campaigns.length == 0, \"Already deployed\") */\n      tag_22\n      jumpi\n      mload(0x40)\n      shl(0xe5, 0x461bcd)\n      dup2\n      mstore\n        /* \"#utility.yul\":834:836   */\n      0x20\n        /* \"crowdfonding.sol\":1351:1401  require(campaigns.length == 0, \"Already deployed\") */\n      0x04\n      dup3\n      add\n        /* \"#utility.yul\":816:837   */\n      mstore\n        /* \"#utility.yul\":873:875   */\n      0x10\n        /* \"#utility.yul\":853:871   */\n      0x24\n      dup3\n      add\n        /* \"#utility.yul\":846:876   */\n      mstore\n      shl(0x82, 0x105b1c9958591e4819195c1b1bde5959)\n        /* \"#utility.yul\":892:910   */\n      0x44\n      dup3\n      add\n        /* \"#utility.yul\":885:931   */\n      mstore\n        /* \"#utility.yul\":948:966   */\n      0x64\n      add\n        /* \"crowdfonding.sol\":1351:1401  require(campaigns.length == 0, \"Already deployed\") */\n      mload(0x40)\n      dup1\n      swap2\n      sub\n      swap1\n      revert\n    tag_22:\n        /* \"crowdfonding.sol\":1426:1427  1 */\n      0x01\n        /* \"crowdfonding.sol\":1412:1639  for (uint i = 1; i <= 30; i++) {... */\n    tag_25:\n        /* \"crowdfonding.sol\":1434:1436  30 */\n      0x1e\n        /* \"crowdfonding.sol\":1429:1430  i */\n      dup2\n        /* \"crowdfonding.sol\":1429:1436  i <= 30 */\n      gt\n        /* \"crowdfonding.sol\":1412:1639  for (uint i = 1; i <= 30; i++) {... */\n      tag_26\n      jumpi\n        /* \"crowdfonding.sol\":1458:1477  string memory title */\n      0x00\n        /* \"crowdfonding.sol\":1515:1526  uint2str(i) */\n      tag_28\n        /* \"crowdfonding.sol\":1524:1525  i */\n      dup3\n        /* \"crowdfonding.sol\":1515:1523  uint2str */\n      tag_29\n        /* \"crowdfonding.sol\":1515:1526  uint2str(i) */\n      jump\t// in\n    tag_28:\n        /* \"crowdfonding.sol\":1487:1527  abi.encodePacked(\"Project\", uint2str(i)) */\n      add(0x20, mload(0x40))\n      tag_30\n      swap2\n      swap1\n      tag_31\n      jump\t// in\n    tag_30:\n      0x40\n      dup1\n      mload\n      not(0x1f)\n      dup2\n      dup5\n      sub\n      add\n      dup2\n      mstore\n      swap2\n      swap1\n      mstore\n      swap1\n      pop\n        /* \"crowdfonding.sol\":1543:1555  Crowdfund cf */\n      0x00\n        /* \"crowdfonding.sol\":1487:1527  abi.encodePacked(\"Project\", uint2str(i)) */\n      dup2\n        /* \"crowdfonding.sol\":1579:1590  i * 1 ether */\n      tag_32\n        /* \"crowdfonding.sol\":1579:1580  i */\n      dup5\n        /* \"crowdfonding.sol\":1583:1590  1 ether */\n      0x0de0b6b3a7640000\n        /* \"crowdfonding.sol\":1579:1590  i * 1 ether */\n      tag_33\n      jump\t// in\n    tag_32:\n        /* \"crowdfonding.sol\":1592:1593  7 */\n      0x07\n        /* \"crowdfonding.sol\":1558:1594  new Crowdfund(title, i * 1 ether, 7) */\n      mload(0x40)\n      tag_34\n      swap1\n      tag_35\n      jump\t// in\n    tag_34:\n      tag_36\n      swap4\n      swap3\n      swap2\n      swap1\n      tag_37\n      jump\t// in\n    tag_36:\n      mload(0x40)\n      dup1\n      swap2\n      sub\n      swap1\n      0x00\n      create\n      dup1\n      iszero\n      dup1\n      iszero\n      tag_38\n      jumpi\n      returndatasize\n      0x00\n      dup1\n      returndatacopy\n      revert(0x00, returndatasize)\n    tag_38:\n      pop\n        /* \"crowdfonding.sol\":1609:1618  campaigns */\n      0x00\n        /* \"crowdfonding.sol\":1609:1627  campaigns.push(cf) */\n      dup1\n      sload\n      0x01\n      dup2\n      add\n      dup3\n      sstore\n      swap1\n      dup1\n      mstore\n      0x290decd9548b62a8d60345a988386fc84ba6bc95484008f6362f93160ef3e563\n      add\n      dup1\n      sload\n      not(sub(shl(0xa0, 0x01), 0x01))\n      and\n      sub(shl(0xa0, 0x01), 0x01)\n      swap3\n      swap1\n      swap3\n      and\n      swap2\n      swap1\n      swap2\n      or\n      swap1\n      sstore\n      pop\n        /* \"crowdfonding.sol\":1438:1441  i++ */\n      dup2\n      swap1\n      pop\n      tag_40\n      dup2\n      tag_41\n      jump\t// in\n    tag_40:\n      swap2\n      pop\n      pop\n        /* \"crowdfonding.sol\":1412:1639  for (uint i = 1; i <= 30; i++) {... */\n      jump(tag_25)\n    tag_26:\n      pop\n        /* \"crowdfonding.sol\":1312:1646  function deployAll() public {... */\n      jump\t// out\n        /* \"crowdfonding.sol\":1654:1804  function get(uint index) public view returns (address) {... */\n    tag_16:\n        /* \"crowdfonding.sol\":1700:1707  address */\n      0x00\n        /* \"crowdfonding.sol\":1736:1752  campaigns.length */\n      dup1\n      sload\n        /* \"crowdfonding.sol\":1728:1752  index < campaigns.length */\n      dup3\n      lt\n        /* \"crowdfonding.sol\":1720:1753  require(index < campaigns.length) */\n      tag_43\n      jumpi\n      0x00\n      dup1\n      revert\n    tag_43:\n        /* \"crowdfonding.sol\":1779:1788  campaigns */\n      0x00\n        /* \"crowdfonding.sol\":1789:1794  index */\n      dup3\n        /* \"crowdfonding.sol\":1779:1795  campaigns[index] */\n      dup2\n      sload\n      dup2\n      lt\n      tag_45\n      jumpi\n      tag_45\n      tag_46\n      jump\t// in\n    tag_45:\n      0x00\n      swap2\n      dup3\n      mstore\n      0x20\n      swap1\n      swap2\n      keccak256\n      add\n      sload\n      sub(shl(0xa0, 0x01), 0x01)\n      and\n      swap3\n        /* \"crowdfonding.sol\":1654:1804  function get(uint index) public view returns (address) {... */\n      swap2\n      pop\n      pop\n      jump\t// out\n        /* \"crowdfonding.sol\":1812:2196  function uint2str(uint _i) internal pure returns (string memory) {... */\n    tag_29:\n        /* \"crowdfonding.sol\":1862:1875  string memory */\n      0x60\n        /* \"crowdfonding.sol\":1892:1894  _i */\n      dup2\n        /* \"crowdfonding.sol\":1898:1899  0 */\n      0x00\n        /* \"crowdfonding.sol\":1892:1899  _i == 0 */\n      sub\n        /* \"crowdfonding.sol\":1888:1911  if (_i == 0) return \"0\" */\n      tag_49\n      jumpi\n      pop\n      pop\n        /* \"crowdfonding.sol\":1901:1911  return \"0\" */\n      0x40\n      dup1\n      mload\n      dup1\n      dup3\n      add\n      swap1\n      swap2\n      mstore\n      0x01\n      dup2\n      mstore\n      shl(0xfc, 0x03)\n      0x20\n      dup3\n      add\n      mstore\n      swap1\n        /* \"crowdfonding.sol\":1812:2196  function uint2str(uint _i) internal pure returns (string memory) {... */\n      jump\t// out\n        /* \"crowdfonding.sol\":1888:1911  if (_i == 0) return \"0\" */\n    tag_49:\n        /* \"crowdfonding.sol\":1931:1933  _i */\n      dup2\n        /* \"crowdfonding.sol\":1922:1928  uint j */\n      0x00\n        /* \"crowdfonding.sol\":1963:1997  while (j != 0) { len++; j /= 10; } */\n    tag_50:\n        /* \"crowdfonding.sol\":1970:1976  j != 0 */\n      dup2\n      iszero\n        /* \"crowdfonding.sol\":1963:1997  while (j != 0) { len++; j /= 10; } */\n      tag_51\n      jumpi\n        /* \"crowdfonding.sol\":1980:1985  len++ */\n      dup1\n      tag_52\n      dup2\n      tag_41\n      jump\t// in\n    tag_52:\n      swap2\n      pop\n        /* \"crowdfonding.sol\":1987:1994  j /= 10 */\n      tag_53\n      swap1\n      pop\n        /* \"crowdfonding.sol\":1992:1994  10 */\n      0x0a\n        /* \"crowdfonding.sol\":1987:1994  j /= 10 */\n      dup4\n      tag_54\n      jump\t// in\n    tag_53:\n      swap2\n      pop\n        /* \"crowdfonding.sol\":1963:1997  while (j != 0) { len++; j /= 10; } */\n      jump(tag_50)\n    tag_51:\n        /* \"crowdfonding.sol\":2007:2024  bytes memory bstr */\n      0x00\n        /* \"crowdfonding.sol\":2037:2040  len */\n      dup2\n        /* \"crowdfonding.sol\":2027:2041  new bytes(len) */\n      0xffffffffffffffff\n      dup2\n      gt\n      iszero\n      tag_56\n      jumpi\n      tag_56\n      tag_57\n      jump\t// in\n    tag_56:\n      mload(0x40)\n      swap1\n      dup1\n      dup3\n      mstore\n      dup1\n      0x1f\n      add\n      not(0x1f)\n      and\n      0x20\n      add\n      dup3\n      add\n      0x40\n      mstore\n      dup1\n      iszero\n      tag_58\n      jumpi\n      0x20\n      dup3\n      add\n      dup2\n      dup1\n      calldatasize\n      dup4\n      calldatacopy\n      add\n      swap1\n      pop\n    tag_58:\n      pop\n        /* \"crowdfonding.sol\":2007:2041  bytes memory bstr = new bytes(len) */\n      swap1\n      pop\n        /* \"crowdfonding.sol\":2052:2159  while (_i != 0) {... */\n    tag_59:\n        /* \"crowdfonding.sol\":2059:2066  _i != 0 */\n      dup5\n      iszero\n        /* \"crowdfonding.sol\":2052:2159  while (_i != 0) {... */\n      tag_60\n      jumpi\n        /* \"crowdfonding.sol\":2115:2122  _i % 10 */\n      tag_61\n        /* \"crowdfonding.sol\":2120:2122  10 */\n      0x0a\n        /* \"crowdfonding.sol\":2115:2117  _i */\n      dup7\n        /* \"crowdfonding.sol\":2115:2122  _i % 10 */\n      tag_62\n      jump\t// in\n    tag_61:\n        /* \"crowdfonding.sol\":2110:2122  48 + _i % 10 */\n      tag_63\n      swap1\n        /* \"crowdfonding.sol\":2110:2112  48 */\n      0x30\n        /* \"crowdfonding.sol\":2110:2122  48 + _i % 10 */\n      tag_64\n      jump\t// in\n    tag_63:\n        /* \"crowdfonding.sol\":2097:2124  bytes1(uint8(48 + _i % 10)) */\n      0xf8\n      shl\n        /* \"crowdfonding.sol\":2083:2087  bstr */\n      dup2\n        /* \"crowdfonding.sol\":2088:2093  --len */\n      tag_65\n      dup5\n      tag_66\n      jump\t// in\n    tag_65:\n      swap4\n      pop\n      dup4\n        /* \"crowdfonding.sol\":2083:2094  bstr[--len] */\n      dup2\n      mload\n      dup2\n      lt\n      tag_68\n      jumpi\n      tag_68\n      tag_46\n      jump\t// in\n    tag_68:\n      0x20\n      add\n      add\n        /* \"crowdfonding.sol\":2083:2124  bstr[--len] = bytes1(uint8(48 + _i % 10)) */\n      swap1\n      not(sub(shl(0xf8, 0x01), 0x01))\n      and\n      swap1\n      dup2\n      0x00\n      byte\n      swap1\n      mstore8\n      pop\n        /* \"crowdfonding.sol\":2139:2147  _i /= 10 */\n      tag_69\n        /* \"crowdfonding.sol\":2145:2147  10 */\n      0x0a\n        /* \"crowdfonding.sol\":2139:2147  _i /= 10 */\n      dup7\n      tag_54\n      jump\t// in\n    tag_69:\n      swap5\n      pop\n        /* \"crowdfonding.sol\":2052:2159  while (_i != 0) {... */\n      jump(tag_59)\n    tag_60:\n        /* \"crowdfonding.sol\":2183:2187  bstr */\n      swap5\n        /* \"crowdfonding.sol\":1812:2196  function uint2str(uint _i) internal pure returns (string memory) {... */\n      swap4\n      pop\n      pop\n      pop\n      pop\n      jump\t// out\n    tag_35:\n      dataSize(sub_0)\n      dup1\n      dataOffset(sub_0)\n      dup4\n      codecopy\n      add\n      swap1\n      jump\t// out\n        /* \"#utility.yul\":14:194   */\n    tag_8:\n        /* \"#utility.yul\":73:79   */\n      0x00\n        /* \"#utility.yul\":126:128   */\n      0x20\n        /* \"#utility.yul\":114:123   */\n      dup3\n        /* \"#utility.yul\":105:112   */\n      dup5\n        /* \"#utility.yul\":101:124   */\n      sub\n        /* \"#utility.yul\":97:129   */\n      slt\n        /* \"#utility.yul\":94:146   */\n      iszero\n      tag_74\n      jumpi\n        /* \"#utility.yul\":142:143   */\n      0x00\n        /* \"#utility.yul\":139:140   */\n      dup1\n        /* \"#utility.yul\":132:144   */\n      revert\n        /* \"#utility.yul\":94:146   */\n    tag_74:\n      pop\n        /* \"#utility.yul\":165:188   */\n      calldataload\n      swap2\n        /* \"#utility.yul\":14:194   */\n      swap1\n      pop\n      jump\t// out\n        /* \"#utility.yul\":977:1428   */\n    tag_31:\n      shl(0xca, 0x141c9bda9958dd)\n        /* \"#utility.yul\":1234:1237   */\n      dup2\n        /* \"#utility.yul\":1227:1249   */\n      mstore\n        /* \"#utility.yul\":1209:1212   */\n      0x00\n        /* \"#utility.yul\":1278:1284   */\n      dup3\n        /* \"#utility.yul\":1272:1285   */\n      mload\n        /* \"#utility.yul\":1332:1338   */\n      dup1\n        /* \"#utility.yul\":1325:1329   */\n      0x20\n        /* \"#utility.yul\":1317:1323   */\n      dup6\n        /* \"#utility.yul\":1313:1330   */\n      add\n        /* \"#utility.yul\":1309:1310   */\n      0x07\n        /* \"#utility.yul\":1304:1307   */\n      dup6\n        /* \"#utility.yul\":1300:1311   */\n      add\n        /* \"#utility.yul\":1294:1339   */\n      mcopy\n        /* \"#utility.yul\":1402:1403   */\n      0x00\n        /* \"#utility.yul\":1362:1378   */\n      swap3\n      add\n        /* \"#utility.yul\":1380:1381   */\n      0x07\n        /* \"#utility.yul\":1358:1382   */\n      add\n        /* \"#utility.yul\":1391:1404   */\n      swap2\n      dup3\n      mstore\n      pop\n        /* \"#utility.yul\":1358:1382   */\n      swap2\n        /* \"#utility.yul\":977:1428   */\n      swap1\n      pop\n      jump\t// out\n        /* \"#utility.yul\":1433:1560   */\n    tag_70:\n        /* \"#utility.yul\":1494:1504   */\n      0x4e487b71\n        /* \"#utility.yul\":1489:1492   */\n      0xe0\n        /* \"#utility.yul\":1485:1505   */\n      shl\n        /* \"#utility.yul\":1482:1483   */\n      0x00\n        /* \"#utility.yul\":1475:1506   */\n      mstore\n        /* \"#utility.yul\":1525:1529   */\n      0x11\n        /* \"#utility.yul\":1522:1523   */\n      0x04\n        /* \"#utility.yul\":1515:1530   */\n      mstore\n        /* \"#utility.yul\":1549:1553   */\n      0x24\n        /* \"#utility.yul\":1546:1547   */\n      0x00\n        /* \"#utility.yul\":1539:1554   */\n      revert\n        /* \"#utility.yul\":1565:1733   */\n    tag_33:\n        /* \"#utility.yul\":1638:1647   */\n      dup1\n      dup3\n      mul\n        /* \"#utility.yul\":1669:1678   */\n      dup2\n      iszero\n        /* \"#utility.yul\":1686:1701   */\n      dup3\n      dup3\n      div\n        /* \"#utility.yul\":1680:1702   */\n      dup5\n      eq\n        /* \"#utility.yul\":1666:1703   */\n      or\n        /* \"#utility.yul\":1656:1727   */\n      tag_82\n      jumpi\n        /* \"#utility.yul\":1707:1725   */\n      tag_82\n      tag_70\n      jump\t// in\n    tag_82:\n        /* \"#utility.yul\":1565:1733   */\n      swap3\n      swap2\n      pop\n      pop\n      jump\t// out\n        /* \"#utility.yul\":1738:2313   */\n    tag_37:\n        /* \"#utility.yul\":1951:1953   */\n      0x60\n        /* \"#utility.yul\":1940:1949   */\n      dup2\n        /* \"#utility.yul\":1933:1954   */\n      mstore\n        /* \"#utility.yul\":1914:1918   */\n      0x00\n        /* \"#utility.yul\":1983:1989   */\n      dup5\n        /* \"#utility.yul\":1977:1990   */\n      mload\n        /* \"#utility.yul\":2026:2032   */\n      dup1\n        /* \"#utility.yul\":2021:2023   */\n      0x60\n        /* \"#utility.yul\":2010:2019   */\n      dup5\n        /* \"#utility.yul\":2006:2024   */\n      add\n        /* \"#utility.yul\":1999:2033   */\n      mstore\n        /* \"#utility.yul\":2088:2094   */\n      dup1\n        /* \"#utility.yul\":2081:2085   */\n      0x20\n        /* \"#utility.yul\":2073:2079   */\n      dup8\n        /* \"#utility.yul\":2069:2086   */\n      add\n        /* \"#utility.yul\":2063:2066   */\n      0x80\n        /* \"#utility.yul\":2052:2061   */\n      dup6\n        /* \"#utility.yul\":2048:2067   */\n      add\n        /* \"#utility.yul\":2042:2095   */\n      mcopy\n        /* \"#utility.yul\":2145:2146   */\n      0x00\n        /* \"#utility.yul\":2139:2142   */\n      0x80\n        /* \"#utility.yul\":2130:2136   */\n      dup3\n        /* \"#utility.yul\":2119:2128   */\n      dup6\n        /* \"#utility.yul\":2115:2137   */\n      add\n        /* \"#utility.yul\":2111:2143   */\n      add\n        /* \"#utility.yul\":2104:2147   */\n      mstore\n        /* \"#utility.yul\":2215:2218   */\n      0x80\n        /* \"#utility.yul\":2208:2210   */\n      0x1f\n        /* \"#utility.yul\":2204:2211   */\n      not\n        /* \"#utility.yul\":2199:2201   */\n      0x1f\n        /* \"#utility.yul\":2191:2197   */\n      dup4\n        /* \"#utility.yul\":2187:2202   */\n      add\n        /* \"#utility.yul\":2183:2212   */\n      and\n        /* \"#utility.yul\":2172:2181   */\n      dup5\n        /* \"#utility.yul\":2168:2213   */\n      add\n        /* \"#utility.yul\":2164:2219   */\n      add\n        /* \"#utility.yul\":2156:2219   */\n      swap2\n      pop\n      pop\n        /* \"#utility.yul\":2257:2263   */\n      dup4\n        /* \"#utility.yul\":2250:2254   */\n      0x20\n        /* \"#utility.yul\":2239:2248   */\n      dup4\n        /* \"#utility.yul\":2235:2255   */\n      add\n        /* \"#utility.yul\":2228:2264   */\n      mstore\n        /* \"#utility.yul\":2300:2306   */\n      dup3\n        /* \"#utility.yul\":2295:2297   */\n      0x40\n        /* \"#utility.yul\":2284:2293   */\n      dup4\n        /* \"#utility.yul\":2280:2298   */\n      add\n        /* \"#utility.yul\":2273:2307   */\n      mstore\n        /* \"#utility.yul\":1738:2313   */\n      swap5\n      swap4\n      pop\n      pop\n      pop\n      pop\n      jump\t// out\n        /* \"#utility.yul\":2318:2453   */\n    tag_41:\n        /* \"#utility.yul\":2357:2360   */\n      0x00\n        /* \"#utility.yul\":2378:2395   */\n      0x01\n      dup3\n      add\n        /* \"#utility.yul\":2375:2418   */\n      tag_86\n      jumpi\n        /* \"#utility.yul\":2398:2416   */\n      tag_86\n      tag_70\n      jump\t// in\n    tag_86:\n      pop\n        /* \"#utility.yul\":2445:2446   */\n      0x01\n        /* \"#utility.yul\":2434:2447   */\n      add\n      swap1\n        /* \"#utility.yul\":2318:2453   */\n      jump\t// out\n        /* \"#utility.yul\":2458:2585   */\n    tag_46:\n        /* \"#utility.yul\":2519:2529   */\n      0x4e487b71\n        /* \"#utility.yul\":2514:2517   */\n      0xe0\n        /* \"#utility.yul\":2510:2530   */\n      shl\n        /* \"#utility.yul\":2507:2508   */\n      0x00\n        /* \"#utility.yul\":2500:2531   */\n      mstore\n        /* \"#utility.yul\":2550:2554   */\n      0x32\n        /* \"#utility.yul\":2547:2548   */\n      0x04\n        /* \"#utility.yul\":2540:2555   */\n      mstore\n        /* \"#utility.yul\":2574:2578   */\n      0x24\n        /* \"#utility.yul\":2571:2572   */\n      0x00\n        /* \"#utility.yul\":2564:2579   */\n      revert\n        /* \"#utility.yul\":2590:2717   */\n    tag_71:\n        /* \"#utility.yul\":2651:2661   */\n      0x4e487b71\n        /* \"#utility.yul\":2646:2649   */\n      0xe0\n        /* \"#utility.yul\":2642:2662   */\n      shl\n        /* \"#utility.yul\":2639:2640   */\n      0x00\n        /* \"#utility.yul\":2632:2663   */\n      mstore\n        /* \"#utility.yul\":2682:2686   */\n      0x12\n        /* \"#utility.yul\":2679:2680   */\n      0x04\n        /* \"#utility.yul\":2672:2687   */\n      mstore\n        /* \"#utility.yul\":2706:2710   */\n      0x24\n        /* \"#utility.yul\":2703:2704   */\n      0x00\n        /* \"#utility.yul\":2696:2711   */\n      revert\n        /* \"#utility.yul\":2722:2842   */\n    tag_54:\n        /* \"#utility.yul\":2762:2763   */\n      0x00\n        /* \"#utility.yul\":2788:2789   */\n      dup3\n        /* \"#utility.yul\":2778:2813   */\n      tag_91\n      jumpi\n        /* \"#utility.yul\":2793:2811   */\n      tag_91\n      tag_71\n      jump\t// in\n    tag_91:\n      pop\n        /* \"#utility.yul\":2827:2836   */\n      div\n      swap1\n        /* \"#utility.yul\":2722:2842   */\n      jump\t// out\n        /* \"#utility.yul\":2847:2974   */\n    tag_57:\n        /* \"#utility.yul\":2908:2918   */\n      0x4e487b71\n        /* \"#utility.yul\":2903:2906   */\n      0xe0\n        /* \"#utility.yul\":2899:2919   */\n      shl\n        /* \"#utility.yul\":2896:2897   */\n      0x00\n        /* \"#utility.yul\":2889:2920   */\n      mstore\n        /* \"#utility.yul\":2939:2943   */\n      0x41\n        /* \"#utility.yul\":2936:2937   */\n      0x04\n        /* \"#utility.yul\":2929:2944   */\n      mstore\n        /* \"#utility.yul\":2963:2967   */\n      0x24\n        /* \"#utility.yul\":2960:2961   */\n      0x00\n        /* \"#utility.yul\":2953:2968   */\n      revert\n        /* \"#utility.yul\":2979:3091   */\n    tag_62:\n        /* \"#utility.yul\":3011:3012   */\n      0x00\n        /* \"#utility.yul\":3037:3038   */\n      dup3\n        /* \"#utility.yul\":3027:3062   */\n      tag_95\n      jumpi\n        /* \"#utility.yul\":3042:3060   */\n      tag_95\n      tag_71\n      jump\t// in\n    tag_95:\n      pop\n        /* \"#utility.yul\":3076:3085   */\n      mod\n      swap1\n        /* \"#utility.yul\":2979:3091   */\n      jump\t// out\n        /* \"#utility.yul\":3096:3221   */\n    tag_64:\n        /* \"#utility.yul\":3161:3170   */\n      dup1\n      dup3\n      add\n        /* \"#utility.yul\":3182:3192   */\n      dup1\n      dup3\n      gt\n        /* \"#utility.yul\":3179:3215   */\n      iszero\n      tag_82\n      jumpi\n        /* \"#utility.yul\":3195:3213   */\n      tag_82\n      tag_70\n      jump\t// in\n        /* \"#utility.yul\":3226:3362   */\n    tag_66:\n        /* \"#utility.yul\":3265:3268   */\n      0x00\n        /* \"#utility.yul\":3293:3298   */\n      dup2\n        /* \"#utility.yul\":3283:3322   */\n      tag_101\n      jumpi\n        /* \"#utility.yul\":3302:3320   */\n      tag_101\n      tag_70\n      jump\t// in\n    tag_101:\n      pop\n      not(0x00)\n        /* \"#utility.yul\":3338:3356   */\n      add\n      swap1\n        /* \"#utility.yul\":3226:3362   */\n      jump\t// out\n    stop\n\n    sub_0: assembly {\n            /* \"crowdfonding.sol\":61:1237  contract Crowdfund {... */\n          mstore(0x40, 0x80)\n            /* \"crowdfonding.sol\":271:488  constructor(string memory _title, uint _goal, uint _durationDays) {... */\n          callvalue\n          dup1\n          iszero\n          tag_1\n          jumpi\n          0x00\n          dup1\n          revert\n        tag_1:\n          pop\n          mload(0x40)\n          sub(codesize, bytecodeSize)\n          dup1\n          bytecodeSize\n          dup4\n          codecopy\n          dup2\n          add\n          0x40\n          dup2\n          swap1\n          mstore\n          tag_2\n          swap2\n          tag_3\n          jump\t// in\n        tag_2:\n            /* \"crowdfonding.sol\":348:353  title */\n          0x00\n            /* \"crowdfonding.sol\":348:362  title = _title */\n          tag_6\n            /* \"crowdfonding.sol\":356:362  _title */\n          dup5\n            /* \"crowdfonding.sol\":348:353  title */\n          dup3\n            /* \"crowdfonding.sol\":348:362  title = _title */\n          tag_7\n          jump\t// in\n        tag_6:\n          pop\n            /* \"crowdfonding.sol\":373:380  creator */\n          0x01\n            /* \"crowdfonding.sol\":373:393  creator = msg.sender */\n          dup1\n          sload\n          not(sub(shl(0xa0, 0x01), 0x01))\n          and\n            /* \"crowdfonding.sol\":383:393  msg.sender */\n          caller\n            /* \"crowdfonding.sol\":373:393  creator = msg.sender */\n          or\n          swap1\n          sstore\n            /* \"crowdfonding.sol\":404:408  goal */\n          0x02\n            /* \"crowdfonding.sol\":404:416  goal = _goal */\n          dup3\n          swap1\n          sstore\n            /* \"crowdfonding.sol\":457:479  _durationDays * 1 days */\n          tag_8\n            /* \"crowdfonding.sol\":457:470  _durationDays */\n          dup2\n            /* \"crowdfonding.sol\":473:479  1 days */\n          0x015180\n            /* \"crowdfonding.sol\":457:479  _durationDays * 1 days */\n          tag_9\n          jump\t// in\n        tag_8:\n            /* \"crowdfonding.sol\":438:480  block.timestamp + (_durationDays * 1 days) */\n          tag_10\n          swap1\n            /* \"crowdfonding.sol\":438:453  block.timestamp */\n          timestamp\n            /* \"crowdfonding.sol\":438:480  block.timestamp + (_durationDays * 1 days) */\n          tag_11\n          jump\t// in\n        tag_10:\n            /* \"crowdfonding.sol\":427:435  deadline */\n          0x04\n            /* \"crowdfonding.sol\":427:480  deadline = block.timestamp + (_durationDays * 1 days) */\n          sstore\n          pop\n            /* \"crowdfonding.sol\":61:1237  contract Crowdfund {... */\n          tag_19\n          swap2\n          pop\n          pop\n          jump\n            /* \"#utility.yul\":14:141   */\n        tag_13:\n            /* \"#utility.yul\":75:85   */\n          0x4e487b71\n            /* \"#utility.yul\":70:73   */\n          0xe0\n            /* \"#utility.yul\":66:86   */\n          shl\n            /* \"#utility.yul\":63:64   */\n          0x00\n            /* \"#utility.yul\":56:87   */\n          mstore\n            /* \"#utility.yul\":106:110   */\n          0x41\n            /* \"#utility.yul\":103:104   */\n          0x04\n            /* \"#utility.yul\":96:111   */\n          mstore\n            /* \"#utility.yul\":130:134   */\n          0x24\n            /* \"#utility.yul\":127:128   */\n          0x00\n            /* \"#utility.yul\":120:135   */\n          revert\n            /* \"#utility.yul\":146:1311   */\n        tag_3:\n            /* \"#utility.yul\":244:250   */\n          0x00\n            /* \"#utility.yul\":252:258   */\n          dup1\n            /* \"#utility.yul\":260:266   */\n          0x00\n            /* \"#utility.yul\":313:315   */\n          0x60\n            /* \"#utility.yul\":301:310   */\n          dup5\n            /* \"#utility.yul\":292:299   */\n          dup7\n            /* \"#utility.yul\":288:311   */\n          sub\n            /* \"#utility.yul\":284:316   */\n          slt\n            /* \"#utility.yul\":281:333   */\n          iszero\n          tag_22\n          jumpi\n            /* \"#utility.yul\":329:330   */\n          0x00\n            /* \"#utility.yul\":326:327   */\n          dup1\n            /* \"#utility.yul\":319:331   */\n          revert\n            /* \"#utility.yul\":281:333   */\n        tag_22:\n            /* \"#utility.yul\":356:372   */\n          dup4\n          mload\n          sub(shl(0x40, 0x01), 0x01)\n            /* \"#utility.yul\":384:414   */\n          dup2\n          gt\n            /* \"#utility.yul\":381:431   */\n          iszero\n          tag_23\n          jumpi\n            /* \"#utility.yul\":427:428   */\n          0x00\n            /* \"#utility.yul\":424:425   */\n          dup1\n            /* \"#utility.yul\":417:429   */\n          revert\n            /* \"#utility.yul\":381:431   */\n        tag_23:\n            /* \"#utility.yul\":450:472   */\n          dup5\n          add\n            /* \"#utility.yul\":503:507   */\n          0x1f\n            /* \"#utility.yul\":495:508   */\n          dup2\n          add\n            /* \"#utility.yul\":491:518   */\n          dup7\n          sgt\n            /* \"#utility.yul\":481:536   */\n          tag_24\n          jumpi\n            /* \"#utility.yul\":532:533   */\n          0x00\n            /* \"#utility.yul\":529:530   */\n          dup1\n            /* \"#utility.yul\":522:534   */\n          revert\n            /* \"#utility.yul\":481:536   */\n        tag_24:\n            /* \"#utility.yul\":559:568   */\n          dup1\n          mload\n          sub(shl(0x40, 0x01), 0x01)\n            /* \"#utility.yul\":580:610   */\n          dup2\n          gt\n            /* \"#utility.yul\":577:633   */\n          iszero\n          tag_26\n          jumpi\n            /* \"#utility.yul\":613:631   */\n          tag_26\n          tag_13\n          jump\t// in\n        tag_26:\n            /* \"#utility.yul\":662:664   */\n          0x40\n            /* \"#utility.yul\":656:665   */\n          mload\n            /* \"#utility.yul\":754:756   */\n          0x1f\n            /* \"#utility.yul\":716:733   */\n          dup3\n          add\n          not(0x1f)\n            /* \"#utility.yul\":712:743   */\n          swap1\n          dup2\n          and\n            /* \"#utility.yul\":745:747   */\n          0x3f\n            /* \"#utility.yul\":708:748   */\n          add\n            /* \"#utility.yul\":704:758   */\n          and\n            /* \"#utility.yul\":692:759   */\n          dup2\n          add\n          sub(shl(0x40, 0x01), 0x01)\n            /* \"#utility.yul\":774:808   */\n          dup2\n          gt\n            /* \"#utility.yul\":810:832   */\n          dup3\n          dup3\n          lt\n            /* \"#utility.yul\":771:833   */\n          or\n            /* \"#utility.yul\":768:856   */\n          iszero\n          tag_28\n          jumpi\n            /* \"#utility.yul\":836:854   */\n          tag_28\n          tag_13\n          jump\t// in\n        tag_28:\n            /* \"#utility.yul\":872:874   */\n          0x40\n            /* \"#utility.yul\":865:887   */\n          mstore\n            /* \"#utility.yul\":896:918   */\n          dup2\n          dup2\n          mstore\n            /* \"#utility.yul\":937:952   */\n          dup3\n          dup3\n          add\n            /* \"#utility.yul\":954:958   */\n          0x20\n            /* \"#utility.yul\":933:959   */\n          add\n            /* \"#utility.yul\":930:969   */\n          dup9\n          lt\n            /* \"#utility.yul\":927:986   */\n          iszero\n          tag_29\n          jumpi\n            /* \"#utility.yul\":982:983   */\n          0x00\n            /* \"#utility.yul\":979:980   */\n          dup1\n            /* \"#utility.yul\":972:984   */\n          revert\n            /* \"#utility.yul\":927:986   */\n        tag_29:\n            /* \"#utility.yul\":1035:1041   */\n          dup2\n            /* \"#utility.yul\":1028:1032   */\n          0x20\n            /* \"#utility.yul\":1024:1026   */\n          dup5\n            /* \"#utility.yul\":1020:1033   */\n          add\n            /* \"#utility.yul\":1013:1017   */\n          0x20\n            /* \"#utility.yul\":1005:1011   */\n          dup4\n            /* \"#utility.yul\":1001:1018   */\n          add\n            /* \"#utility.yul\":995:1042   */\n          mcopy\n            /* \"#utility.yul\":1090:1091   */\n          0x00\n            /* \"#utility.yul\":1083:1087   */\n          0x20\n            /* \"#utility.yul\":1062:1081   */\n          swap3\n          dup3\n          add\n            /* \"#utility.yul\":1058:1088   */\n          dup4\n          add\n            /* \"#utility.yul\":1051:1092   */\n          mstore\n            /* \"#utility.yul\":1164:1184   */\n          swap1\n          dup7\n          add\n            /* \"#utility.yul\":1158:1185   */\n          mload\n            /* \"#utility.yul\":1275:1277   */\n          0x40\n            /* \"#utility.yul\":1260:1278   */\n          swap1\n          swap7\n          add\n            /* \"#utility.yul\":1254:1279   */\n          mload\n            /* \"#utility.yul\":1062:1081   */\n          swap1\n          swap8\n            /* \"#utility.yul\":1158:1185   */\n          swap6\n          swap7\n          pop\n            /* \"#utility.yul\":1254:1279   */\n          swap5\n            /* \"#utility.yul\":1066:1072   */\n          swap4\n          pop\n          pop\n          pop\n          pop\n            /* \"#utility.yul\":146:1311   */\n          jump\t// out\n            /* \"#utility.yul\":1316:1696   */\n        tag_14:\n            /* \"#utility.yul\":1395:1396   */\n          0x01\n            /* \"#utility.yul\":1391:1403   */\n          dup2\n          dup2\n          shr\n          swap1\n            /* \"#utility.yul\":1438:1450   */\n          dup3\n          and\n          dup1\n            /* \"#utility.yul\":1459:1520   */\n          tag_31\n          jumpi\n            /* \"#utility.yul\":1513:1517   */\n          0x7f\n            /* \"#utility.yul\":1505:1511   */\n          dup3\n            /* \"#utility.yul\":1501:1518   */\n          and\n            /* \"#utility.yul\":1491:1518   */\n          swap2\n          pop\n            /* \"#utility.yul\":1459:1520   */\n        tag_31:\n            /* \"#utility.yul\":1566:1568   */\n          0x20\n            /* \"#utility.yul\":1558:1564   */\n          dup3\n            /* \"#utility.yul\":1555:1569   */\n          lt\n            /* \"#utility.yul\":1535:1553   */\n          dup2\n            /* \"#utility.yul\":1532:1570   */\n          sub\n            /* \"#utility.yul\":1529:1690   */\n          tag_32\n          jumpi\n            /* \"#utility.yul\":1612:1622   */\n          0x4e487b71\n            /* \"#utility.yul\":1607:1610   */\n          0xe0\n            /* \"#utility.yul\":1603:1623   */\n          shl\n            /* \"#utility.yul\":1600:1601   */\n          0x00\n            /* \"#utility.yul\":1593:1624   */\n          mstore\n            /* \"#utility.yul\":1647:1651   */\n          0x22\n            /* \"#utility.yul\":1644:1645   */\n          0x04\n            /* \"#utility.yul\":1637:1652   */\n          mstore\n            /* \"#utility.yul\":1675:1679   */\n          0x24\n            /* \"#utility.yul\":1672:1673   */\n          0x00\n            /* \"#utility.yul\":1665:1680   */\n          revert\n            /* \"#utility.yul\":1529:1690   */\n        tag_32:\n          pop\n            /* \"#utility.yul\":1316:1696   */\n          swap2\n          swap1\n          pop\n          jump\t// out\n            /* \"#utility.yul\":1827:2345   */\n        tag_16:\n            /* \"#utility.yul\":1929:1931   */\n          0x1f\n            /* \"#utility.yul\":1924:1927   */\n          dup3\n            /* \"#utility.yul\":1921:1932   */\n          gt\n            /* \"#utility.yul\":1918:2339   */\n          iszero\n          tag_35\n          jumpi\n            /* \"#utility.yul\":1965:1970   */\n          dup1\n            /* \"#utility.yul\":1962:1963   */\n          0x00\n            /* \"#utility.yul\":1955:1971   */\n          mstore\n            /* \"#utility.yul\":2009:2013   */\n          0x20\n            /* \"#utility.yul\":2006:2007   */\n          0x00\n            /* \"#utility.yul\":1996:2014   */\n          keccak256\n            /* \"#utility.yul\":2079:2081   */\n          0x1f\n            /* \"#utility.yul\":2067:2077   */\n          dup5\n            /* \"#utility.yul\":2063:2082   */\n          add\n            /* \"#utility.yul\":2060:2061   */\n          0x05\n            /* \"#utility.yul\":2056:2083   */\n          shr\n            /* \"#utility.yul\":2050:2054   */\n          dup2\n            /* \"#utility.yul\":2046:2084   */\n          add\n            /* \"#utility.yul\":2115:2119   */\n          0x20\n            /* \"#utility.yul\":2103:2113   */\n          dup6\n            /* \"#utility.yul\":2100:2120   */\n          lt\n            /* \"#utility.yul\":2097:2144   */\n          iszero\n          tag_36\n          jumpi\n          pop\n            /* \"#utility.yul\":2138:2142   */\n          dup1\n            /* \"#utility.yul\":2097:2144   */\n        tag_36:\n            /* \"#utility.yul\":2193:2195   */\n          0x1f\n            /* \"#utility.yul\":2188:2191   */\n          dup5\n            /* \"#utility.yul\":2184:2196   */\n          add\n            /* \"#utility.yul\":2181:2182   */\n          0x05\n            /* \"#utility.yul\":2177:2197   */\n          shr\n            /* \"#utility.yul\":2171:2175   */\n          dup3\n            /* \"#utility.yul\":2167:2198   */\n          add\n            /* \"#utility.yul\":2157:2198   */\n          swap2\n          pop\n            /* \"#utility.yul\":2248:2329   */\n        tag_37:\n            /* \"#utility.yul\":2266:2268   */\n          dup2\n            /* \"#utility.yul\":2259:2264   */\n          dup2\n            /* \"#utility.yul\":2256:2269   */\n          lt\n            /* \"#utility.yul\":2248:2329   */\n          iszero\n          tag_39\n          jumpi\n            /* \"#utility.yul\":2325:2326   */\n          0x00\n            /* \"#utility.yul\":2311:2327   */\n          dup2\n          sstore\n            /* \"#utility.yul\":2292:2293   */\n          0x01\n            /* \"#utility.yul\":2281:2294   */\n          add\n            /* \"#utility.yul\":2248:2329   */\n          jump(tag_37)\n        tag_39:\n            /* \"#utility.yul\":2252:2255   */\n          pop\n          pop\n            /* \"#utility.yul\":1918:2339   */\n        tag_35:\n            /* \"#utility.yul\":1827:2345   */\n          pop\n          pop\n          pop\n          jump\t// out\n            /* \"#utility.yul\":2521:3820   */\n        tag_7:\n            /* \"#utility.yul\":2641:2651   */\n          dup2\n          mload\n          sub(shl(0x40, 0x01), 0x01)\n            /* \"#utility.yul\":2663:2693   */\n          dup2\n          gt\n            /* \"#utility.yul\":2660:2716   */\n          iszero\n          tag_43\n          jumpi\n            /* \"#utility.yul\":2696:2714   */\n          tag_43\n          tag_13\n          jump\t// in\n        tag_43:\n            /* \"#utility.yul\":2725:2822   */\n          tag_44\n            /* \"#utility.yul\":2815:2821   */\n          dup2\n            /* \"#utility.yul\":2775:2813   */\n          tag_45\n            /* \"#utility.yul\":2807:2811   */\n          dup5\n            /* \"#utility.yul\":2801:2812   */\n          sload\n            /* \"#utility.yul\":2775:2813   */\n          tag_14\n          jump\t// in\n        tag_45:\n            /* \"#utility.yul\":2769:2773   */\n          dup5\n            /* \"#utility.yul\":2725:2822   */\n          tag_16\n          jump\t// in\n        tag_44:\n            /* \"#utility.yul\":2871:2875   */\n          0x20\n            /* \"#utility.yul\":2902:2904   */\n          0x1f\n            /* \"#utility.yul\":2891:2905   */\n          dup3\n          gt\n            /* \"#utility.yul\":2919:2920   */\n          0x01\n            /* \"#utility.yul\":2914:3563   */\n          dup2\n          eq\n          tag_47\n          jumpi\n            /* \"#utility.yul\":3607:3608   */\n          0x00\n            /* \"#utility.yul\":3624:3630   */\n          dup4\n            /* \"#utility.yul\":3621:3710   */\n          iszero\n          tag_48\n          jumpi\n          pop\n            /* \"#utility.yul\":3676:3695   */\n          dup5\n          dup3\n          add\n            /* \"#utility.yul\":3670:3696   */\n          mload\n            /* \"#utility.yul\":3621:3710   */\n        tag_48:\n          not(0x00)\n            /* \"#utility.yul\":2478:2479   */\n          0x03\n            /* \"#utility.yul\":2474:2485   */\n          dup6\n          swap1\n          shl\n            /* \"#utility.yul\":2470:2494   */\n          shr\n            /* \"#utility.yul\":2466:2495   */\n          not\n            /* \"#utility.yul\":2456:2496   */\n          and\n            /* \"#utility.yul\":2502:2503   */\n          0x01\n            /* \"#utility.yul\":2498:2509   */\n          dup5\n          swap1\n          shl\n            /* \"#utility.yul\":2453:2510   */\n          or\n            /* \"#utility.yul\":3723:3804   */\n          dup5\n          sstore\n            /* \"#utility.yul\":2884:3814   */\n          jump(tag_39)\n            /* \"#utility.yul\":2914:3563   */\n        tag_47:\n            /* \"#utility.yul\":1774:1775   */\n          0x00\n            /* \"#utility.yul\":1767:1781   */\n          dup5\n          dup2\n          mstore\n            /* \"#utility.yul\":1811:1815   */\n          0x20\n            /* \"#utility.yul\":1798:1816   */\n          dup2\n          keccak256\n          not(0x1f)\n            /* \"#utility.yul\":2950:2970   */\n          dup6\n          and\n          swap2\n            /* \"#utility.yul\":3068:3290   */\n        tag_51:\n            /* \"#utility.yul\":3082:3089   */\n          dup3\n            /* \"#utility.yul\":3079:3080   */\n          dup2\n            /* \"#utility.yul\":3076:3090   */\n          lt\n            /* \"#utility.yul\":3068:3290   */\n          iszero\n          tag_53\n          jumpi\n            /* \"#utility.yul\":3164:3183   */\n          dup8\n          dup6\n          add\n            /* \"#utility.yul\":3158:3184   */\n          mload\n            /* \"#utility.yul\":3143:3185   */\n          dup3\n          sstore\n            /* \"#utility.yul\":3271:3275   */\n          0x20\n            /* \"#utility.yul\":3256:3276   */\n          swap5\n          dup6\n          add\n          swap5\n            /* \"#utility.yul\":3224:3225   */\n          0x01\n            /* \"#utility.yul\":3212:3226   */\n          swap1\n          swap3\n          add\n          swap2\n            /* \"#utility.yul\":3098:3110   */\n          add\n            /* \"#utility.yul\":3068:3290   */\n          jump(tag_51)\n        tag_53:\n            /* \"#utility.yul\":3072:3075   */\n          pop\n            /* \"#utility.yul\":3318:3324   */\n          dup5\n            /* \"#utility.yul\":3309:3316   */\n          dup3\n            /* \"#utility.yul\":3306:3325   */\n          lt\n            /* \"#utility.yul\":3303:3504   */\n          iszero\n          tag_54\n          jumpi\n            /* \"#utility.yul\":3379:3398   */\n          dup7\n          dup5\n          add\n            /* \"#utility.yul\":3373:3399   */\n          mload\n          not(0x00)\n            /* \"#utility.yul\":3462:3463   */\n          0x03\n            /* \"#utility.yul\":3458:3472   */\n          dup8\n          swap1\n          shl\n            /* \"#utility.yul\":3474:3477   */\n          0xf8\n            /* \"#utility.yul\":3454:3478   */\n          and\n            /* \"#utility.yul\":3450:3487   */\n          shr\n            /* \"#utility.yul\":3446:3488   */\n          not\n            /* \"#utility.yul\":3431:3489   */\n          and\n            /* \"#utility.yul\":3416:3490   */\n          dup2\n          sstore\n            /* \"#utility.yul\":3303:3504   */\n        tag_54:\n          pop\n          pop\n          pop\n          pop\n            /* \"#utility.yul\":3550:3551   */\n          0x01\n            /* \"#utility.yul\":3534:3548   */\n          swap1\n          dup2\n          shl\n            /* \"#utility.yul\":3530:3552   */\n          add\n            /* \"#utility.yul\":3517:3553   */\n          swap1\n          sstore\n          pop\n            /* \"#utility.yul\":2521:3820   */\n          jump\t// out\n            /* \"#utility.yul\":3825:3952   */\n        tag_18:\n            /* \"#utility.yul\":3886:3896   */\n          0x4e487b71\n            /* \"#utility.yul\":3881:3884   */\n          0xe0\n            /* \"#utility.yul\":3877:3897   */\n          shl\n            /* \"#utility.yul\":3874:3875   */\n          0x00\n            /* \"#utility.yul\":3867:3898   */\n          mstore\n            /* \"#utility.yul\":3917:3921   */\n          0x11\n            /* \"#utility.yul\":3914:3915   */\n          0x04\n            /* \"#utility.yul\":3907:3922   */\n          mstore\n            /* \"#utility.yul\":3941:3945   */\n          0x24\n            /* \"#utility.yul\":3938:3939   */\n          0x00\n            /* \"#utility.yul\":3931:3946   */\n          revert\n            /* \"#utility.yul\":3957:4125   */\n        tag_9:\n            /* \"#utility.yul\":4030:4039   */\n          dup1\n          dup3\n          mul\n            /* \"#utility.yul\":4061:4070   */\n          dup2\n          iszero\n            /* \"#utility.yul\":4078:4093   */\n          dup3\n          dup3\n          div\n            /* \"#utility.yul\":4072:4094   */\n          dup5\n          eq\n            /* \"#utility.yul\":4058:4095   */\n          or\n            /* \"#utility.yul\":4048:4119   */\n          tag_58\n          jumpi\n            /* \"#utility.yul\":4099:4117   */\n          tag_58\n          tag_18\n          jump\t// in\n        tag_58:\n            /* \"#utility.yul\":3957:4125   */\n          swap3\n          swap2\n          pop\n          pop\n          jump\t// out\n            /* \"#utility.yul\":4130:4255   */\n        tag_11:\n            /* \"#utility.yul\":4195:4204   */\n          dup1\n          dup3\n          add\n            /* \"#utility.yul\":4216:4226   */\n          dup1\n          dup3\n          gt\n            /* \"#utility.yul\":4213:4249   */\n          iszero\n          tag_58\n          jumpi\n            /* \"#utility.yul\":4229:4247   */\n          tag_58\n          tag_18\n          jump\t// in\n            /* \"#utility.yul\":4130:4255   */\n        tag_19:\n            /* \"crowdfonding.sol\":61:1237  contract Crowdfund {... */\n          dataSize(sub_0)\n          dup1\n          dataOffset(sub_0)\n          0x00\n          codecopy\n          0x00\n          return\n        stop\n\n        sub_0: assembly {\n                /* \"crowdfonding.sol\":61:1237  contract Crowdfund {... */\n              mstore(0x40, 0x80)\n              jumpi(tag_1, lt(calldatasize, 0x04))\n              shr(0xe0, calldataload(0x00))\n              dup1\n              0x42e94c90\n              gt\n              tag_11\n              jumpi\n              dup1\n              0x42e94c90\n              eq\n              tag_6\n              jumpi\n              dup1\n              0x4a79d50c\n              eq\n              tag_7\n              jumpi\n              dup1\n              0x590e1ae3\n              eq\n              tag_8\n              jumpi\n              dup1\n              0xd7bb99ba\n              eq\n              tag_9\n              jumpi\n              dup1\n              0xf0ea4bfc\n              eq\n              tag_10\n              jumpi\n              0x00\n              dup1\n              revert\n            tag_11:\n              dup1\n              0x02d05d3f\n              eq\n              tag_2\n              jumpi\n              dup1\n              0x29dcb0cf\n              eq\n              tag_3\n              jumpi\n              dup1\n              0x3ccfd60b\n              eq\n              tag_4\n              jumpi\n              dup1\n              0x40193883\n              eq\n              tag_5\n              jumpi\n            tag_1:\n              0x00\n              dup1\n              revert\n                /* \"crowdfonding.sol\":113:135  address public creator */\n            tag_2:\n              callvalue\n              dup1\n              iszero\n              tag_12\n              jumpi\n              0x00\n              dup1\n              revert\n            tag_12:\n              pop\n              sload(0x01)\n              tag_13\n              swap1\n              sub(shl(0xa0, 0x01), 0x01)\n              and\n              dup2\n              jump\n            tag_13:\n              mload(0x40)\n              sub(shl(0xa0, 0x01), 0x01)\n                /* \"#utility.yul\":178:210   */\n              swap1\n              swap2\n              and\n                /* \"#utility.yul\":160:211   */\n              dup2\n              mstore\n                /* \"#utility.yul\":148:150   */\n              0x20\n                /* \"#utility.yul\":133:151   */\n              add\n                /* \"crowdfonding.sol\":113:135  address public creator */\n            tag_15:\n              mload(0x40)\n              dup1\n              swap2\n              sub\n              swap1\n              return\n                /* \"crowdfonding.sol\":190:210  uint public deadline */\n            tag_3:\n              callvalue\n              dup1\n              iszero\n              tag_17\n              jumpi\n              0x00\n              dup1\n              revert\n            tag_17:\n              pop\n              tag_18\n              sload(0x04)\n              dup2\n              jump\n            tag_18:\n              mload(0x40)\n                /* \"#utility.yul\":368:393   */\n              swap1\n              dup2\n              mstore\n                /* \"#utility.yul\":356:358   */\n              0x20\n                /* \"#utility.yul\":341:359   */\n              add\n                /* \"crowdfonding.sol\":190:210  uint public deadline */\n              tag_15\n                /* \"#utility.yul\":222:399   */\n              jump\n                /* \"crowdfonding.sol\":692:896  function withdraw() public {... */\n            tag_4:\n              callvalue\n              dup1\n              iszero\n              tag_22\n              jumpi\n              0x00\n              dup1\n              revert\n            tag_22:\n              pop\n              tag_23\n              tag_24\n              jump\t// in\n            tag_23:\n              stop\n                /* \"crowdfonding.sol\":142:158  uint public goal */\n            tag_5:\n              callvalue\n              dup1\n              iszero\n              tag_25\n              jumpi\n              0x00\n              dup1\n              revert\n            tag_25:\n              pop\n              tag_18\n              sload(0x02)\n              dup2\n              jump\n                /* \"crowdfonding.sol\":217:262  mapping(address => uint) public contributions */\n            tag_6:\n              callvalue\n              dup1\n              iszero\n              tag_29\n              jumpi\n              0x00\n              dup1\n              revert\n            tag_29:\n              pop\n              tag_18\n              tag_31\n              calldatasize\n              0x04\n              tag_32\n              jump\t// in\n            tag_31:\n              mstore(0x20, 0x05)\n              0x00\n              swap1\n              dup2\n              mstore\n              0x40\n              swap1\n              keccak256\n              sload\n              dup2\n              jump\n                /* \"crowdfonding.sol\":87:106  string public title */\n            tag_7:\n              callvalue\n              dup1\n              iszero\n              tag_35\n              jumpi\n              0x00\n              dup1\n              revert\n            tag_35:\n              pop\n              tag_36\n              tag_37\n              jump\t// in\n            tag_36:\n              mload(0x40)\n              tag_15\n              swap2\n              swap1\n              tag_39\n              jump\t// in\n                /* \"crowdfonding.sol\":904:1234  function refund() public {... */\n            tag_8:\n              callvalue\n              dup1\n              iszero\n              tag_40\n              jumpi\n              0x00\n              dup1\n              revert\n            tag_40:\n              pop\n              tag_23\n              tag_42\n              jump\t// in\n                /* \"crowdfonding.sol\":496:684  function contribute() public payable {... */\n            tag_9:\n              tag_23\n              tag_44\n              jump\t// in\n                /* \"crowdfonding.sol\":165:183  uint public raised */\n            tag_10:\n              callvalue\n              dup1\n              iszero\n              tag_45\n              jumpi\n              0x00\n              dup1\n              revert\n            tag_45:\n              pop\n              tag_18\n              sload(0x03)\n              dup2\n              jump\n                /* \"crowdfonding.sol\":692:896  function withdraw() public {... */\n            tag_24:\n                /* \"crowdfonding.sol\":752:759  creator */\n              and(sub(shl(0xa0, 0x01), 0x01), sload(0x01))\n                /* \"crowdfonding.sol\":738:748  msg.sender */\n              caller\n                /* \"crowdfonding.sol\":738:759  msg.sender == creator */\n              eq\n                /* \"crowdfonding.sol\":730:775  require(msg.sender == creator, \"Not creator\") */\n              tag_50\n              jumpi\n              mload(0x40)\n              shl(0xe5, 0x461bcd)\n              dup2\n              mstore\n                /* \"#utility.yul\":1320:1322   */\n              0x20\n                /* \"crowdfonding.sol\":730:775  require(msg.sender == creator, \"Not creator\") */\n              0x04\n              dup3\n              add\n                /* \"#utility.yul\":1302:1323   */\n              mstore\n                /* \"#utility.yul\":1359:1361   */\n              0x0b\n                /* \"#utility.yul\":1339:1357   */\n              0x24\n              dup3\n              add\n                /* \"#utility.yul\":1332:1362   */\n              mstore\n              shl(0xa9, 0x2737ba1031b932b0ba37b9)\n                /* \"#utility.yul\":1378:1396   */\n              0x44\n              dup3\n              add\n                /* \"#utility.yul\":1371:1412   */\n              mstore\n                /* \"#utility.yul\":1429:1447   */\n              0x64\n              add\n                /* \"crowdfonding.sol\":730:775  require(msg.sender == creator, \"Not creator\") */\n            tag_51:\n              mload(0x40)\n              dup1\n              swap2\n              sub\n              swap1\n              revert\n            tag_50:\n                /* \"crowdfonding.sol\":804:808  goal */\n              sload(0x02)\n                /* \"crowdfonding.sol\":794:800  raised */\n              sload(0x03)\n                /* \"crowdfonding.sol\":794:808  raised >= goal */\n              lt\n              iszero\n                /* \"crowdfonding.sol\":786:829  require(raised >= goal, \"Goal not reached\") */\n              tag_53\n              jumpi\n              mload(0x40)\n              shl(0xe5, 0x461bcd)\n              dup2\n              mstore\n                /* \"#utility.yul\":1660:1662   */\n              0x20\n                /* \"crowdfonding.sol\":786:829  require(raised >= goal, \"Goal not reached\") */\n              0x04\n              dup3\n              add\n                /* \"#utility.yul\":1642:1663   */\n              mstore\n                /* \"#utility.yul\":1699:1701   */\n              0x10\n                /* \"#utility.yul\":1679:1697   */\n              0x24\n              dup3\n              add\n                /* \"#utility.yul\":1672:1702   */\n              mstore\n              shl(0x82, 0x11dbd85b081b9bdd081c995858da1959)\n                /* \"#utility.yul\":1718:1736   */\n              0x44\n              dup3\n              add\n                /* \"#utility.yul\":1711:1757   */\n              mstore\n                /* \"#utility.yul\":1774:1792   */\n              0x64\n              add\n                /* \"crowdfonding.sol\":786:829  require(raised >= goal, \"Goal not reached\") */\n              tag_51\n                /* \"#utility.yul\":1458:1798   */\n              jump\n                /* \"crowdfonding.sol\":786:829  require(raised >= goal, \"Goal not reached\") */\n            tag_53:\n                /* \"crowdfonding.sol\":848:855  creator */\n              sload(0x01)\n                /* \"crowdfonding.sol\":840:888  payable(creator).transfer(address(this).balance) */\n              mload(0x40)\n              sub(shl(0xa0, 0x01), 0x01)\n                /* \"crowdfonding.sol\":848:855  creator */\n              swap1\n              swap2\n              and\n              swap1\n                /* \"crowdfonding.sol\":866:887  address(this).balance */\n              selfbalance\n                /* \"crowdfonding.sol\":840:888  payable(creator).transfer(address(this).balance) */\n              dup1\n              iszero\n              0x08fc\n              mul\n              swap2\n                /* \"crowdfonding.sol\":848:855  creator */\n              0x00\n                /* \"crowdfonding.sol\":840:888  payable(creator).transfer(address(this).balance) */\n              dup2\n                /* \"crowdfonding.sol\":848:855  creator */\n              dup2\n                /* \"crowdfonding.sol\":840:888  payable(creator).transfer(address(this).balance) */\n              dup2\n                /* \"crowdfonding.sol\":866:887  address(this).balance */\n              dup6\n                /* \"crowdfonding.sol\":848:855  creator */\n              dup9\n                /* \"crowdfonding.sol\":840:888  payable(creator).transfer(address(this).balance) */\n              dup9\n              call\n              swap4\n              pop\n              pop\n              pop\n              pop\n              iszero\n              dup1\n              iszero\n              tag_57\n              jumpi\n              returndatasize\n              0x00\n              dup1\n              returndatacopy\n              revert(0x00, returndatasize)\n            tag_57:\n              pop\n                /* \"crowdfonding.sol\":692:896  function withdraw() public {... */\n              jump\t// out\n                /* \"crowdfonding.sol\":87:106  string public title */\n            tag_37:\n              0x00\n              dup1\n              sload\n              tag_58\n              swap1\n              tag_59\n              jump\t// in\n            tag_58:\n              dup1\n              0x1f\n              add\n              0x20\n              dup1\n              swap2\n              div\n              mul\n              0x20\n              add\n              mload(0x40)\n              swap1\n              dup2\n              add\n              0x40\n              mstore\n              dup1\n              swap3\n              swap2\n              swap1\n              dup2\n              dup2\n              mstore\n              0x20\n              add\n              dup3\n              dup1\n              sload\n              tag_60\n              swap1\n              tag_59\n              jump\t// in\n            tag_60:\n              dup1\n              iszero\n              tag_61\n              jumpi\n              dup1\n              0x1f\n              lt\n              tag_62\n              jumpi\n              0x0100\n              dup1\n              dup4\n              sload\n              div\n              mul\n              dup4\n              mstore\n              swap2\n              0x20\n              add\n              swap2\n              jump(tag_61)\n            tag_62:\n              dup3\n              add\n              swap2\n              swap1\n              0x00\n              mstore\n              keccak256(0x00, 0x20)\n              swap1\n            tag_63:\n              dup2\n              sload\n              dup2\n              mstore\n              swap1\n              0x01\n              add\n              swap1\n              0x20\n              add\n              dup1\n              dup4\n              gt\n              tag_63\n              jumpi\n              dup3\n              swap1\n              sub\n              0x1f\n              and\n              dup3\n              add\n              swap2\n            tag_61:\n              pop\n              pop\n              pop\n              pop\n              pop\n              dup2\n              jump\t// out\n                /* \"crowdfonding.sol\":904:1234  function refund() public {... */\n            tag_42:\n                /* \"crowdfonding.sol\":967:975  deadline */\n              sload(0x04)\n                /* \"crowdfonding.sol\":948:963  block.timestamp */\n              timestamp\n                /* \"crowdfonding.sol\":948:975  block.timestamp >= deadline */\n              lt\n              iszero\n                /* \"crowdfonding.sol\":940:989  require(block.timestamp >= deadline, \"Too early\") */\n              tag_65\n              jumpi\n              mload(0x40)\n              shl(0xe5, 0x461bcd)\n              dup2\n              mstore\n                /* \"#utility.yul\":2390:2392   */\n              0x20\n                /* \"crowdfonding.sol\":940:989  require(block.timestamp >= deadline, \"Too early\") */\n              0x04\n              dup3\n              add\n                /* \"#utility.yul\":2372:2393   */\n              mstore\n                /* \"#utility.yul\":2429:2430   */\n              0x09\n                /* \"#utility.yul\":2409:2427   */\n              0x24\n              dup3\n              add\n                /* \"#utility.yul\":2402:2431   */\n              mstore\n              shl(0xb8, 0x546f6f206561726c79)\n                /* \"#utility.yul\":2447:2465   */\n              0x44\n              dup3\n              add\n                /* \"#utility.yul\":2440:2479   */\n              mstore\n                /* \"#utility.yul\":2496:2514   */\n              0x64\n              add\n                /* \"crowdfonding.sol\":940:989  require(block.timestamp >= deadline, \"Too early\") */\n              tag_51\n                /* \"#utility.yul\":2188:2520   */\n              jump\n                /* \"crowdfonding.sol\":940:989  require(block.timestamp >= deadline, \"Too early\") */\n            tag_65:\n                /* \"crowdfonding.sol\":1017:1021  goal */\n              sload(0x02)\n                /* \"crowdfonding.sol\":1008:1014  raised */\n              sload(0x03)\n                /* \"crowdfonding.sol\":1008:1021  raised < goal */\n              lt\n                /* \"crowdfonding.sol\":1000:1038  require(raised < goal, \"Goal was met\") */\n              tag_68\n              jumpi\n              mload(0x40)\n              shl(0xe5, 0x461bcd)\n              dup2\n              mstore\n                /* \"#utility.yul\":2727:2729   */\n              0x20\n                /* \"crowdfonding.sol\":1000:1038  require(raised < goal, \"Goal was met\") */\n              0x04\n              dup3\n              add\n                /* \"#utility.yul\":2709:2730   */\n              mstore\n                /* \"#utility.yul\":2766:2768   */\n              0x0c\n                /* \"#utility.yul\":2746:2764   */\n              0x24\n              dup3\n              add\n                /* \"#utility.yul\":2739:2769   */\n              mstore\n              shl(0xa2, 0x11dbd85b081dd85cc81b595d)\n                /* \"#utility.yul\":2785:2803   */\n              0x44\n              dup3\n              add\n                /* \"#utility.yul\":2778:2820   */\n              mstore\n                /* \"#utility.yul\":2837:2855   */\n              0x64\n              add\n                /* \"crowdfonding.sol\":1000:1038  require(raised < goal, \"Goal was met\") */\n              tag_51\n                /* \"#utility.yul\":2525:2861   */\n              jump\n                /* \"crowdfonding.sol\":1000:1038  require(raised < goal, \"Goal was met\") */\n            tag_68:\n                /* \"crowdfonding.sol\":1077:1087  msg.sender */\n              caller\n                /* \"crowdfonding.sol\":1049:1060  uint amount */\n              0x00\n                /* \"crowdfonding.sol\":1063:1088  contributions[msg.sender] */\n              swap1\n              dup2\n              mstore\n                /* \"crowdfonding.sol\":1063:1076  contributions */\n              0x05\n                /* \"crowdfonding.sol\":1063:1088  contributions[msg.sender] */\n              0x20\n              mstore\n              0x40\n              swap1\n              keccak256\n              sload\n                /* \"crowdfonding.sol\":1107:1117  amount > 0 */\n              dup1\n                /* \"crowdfonding.sol\":1099:1139  require(amount > 0, \"Nothing to refund\") */\n              tag_71\n              jumpi\n              mload(0x40)\n              shl(0xe5, 0x461bcd)\n              dup2\n              mstore\n                /* \"#utility.yul\":3068:3070   */\n              0x20\n                /* \"crowdfonding.sol\":1099:1139  require(amount > 0, \"Nothing to refund\") */\n              0x04\n              dup3\n              add\n                /* \"#utility.yul\":3050:3071   */\n              mstore\n                /* \"#utility.yul\":3107:3109   */\n              0x11\n                /* \"#utility.yul\":3087:3105   */\n              0x24\n              dup3\n              add\n                /* \"#utility.yul\":3080:3110   */\n              mstore\n              shl(0x7a, 0x139bdd1a1a5b99c81d1bc81c99599d5b99)\n                /* \"#utility.yul\":3126:3144   */\n              0x44\n              dup3\n              add\n                /* \"#utility.yul\":3119:3166   */\n              mstore\n                /* \"#utility.yul\":3183:3201   */\n              0x64\n              add\n                /* \"crowdfonding.sol\":1099:1139  require(amount > 0, \"Nothing to refund\") */\n              tag_51\n                /* \"#utility.yul\":2866:3207   */\n              jump\n                /* \"crowdfonding.sol\":1099:1139  require(amount > 0, \"Nothing to refund\") */\n            tag_71:\n                /* \"crowdfonding.sol\":1164:1174  msg.sender */\n              caller\n                /* \"crowdfonding.sol\":1178:1179  0 */\n              0x00\n                /* \"crowdfonding.sol\":1150:1175  contributions[msg.sender] */\n              dup2\n              dup2\n              mstore\n                /* \"crowdfonding.sol\":1150:1163  contributions */\n              0x05\n                /* \"crowdfonding.sol\":1150:1175  contributions[msg.sender] */\n              0x20\n              mstore\n              0x40\n              dup1\n              dup3\n              keccak256\n                /* \"crowdfonding.sol\":1150:1179  contributions[msg.sender] = 0 */\n              dup3\n              swap1\n              sstore\n                /* \"crowdfonding.sol\":1190:1226  payable(msg.sender).transfer(amount) */\n              mload\n              dup4\n              iszero\n              0x08fc\n              mul\n              swap2\n                /* \"crowdfonding.sol\":1219:1225  amount */\n              dup5\n              swap2\n                /* \"crowdfonding.sol\":1190:1226  payable(msg.sender).transfer(amount) */\n              swap1\n              dup2\n                /* \"crowdfonding.sol\":1178:1179  0 */\n              dup2\n                /* \"crowdfonding.sol\":1190:1226  payable(msg.sender).transfer(amount) */\n              dup2\n                /* \"crowdfonding.sol\":1219:1225  amount */\n              dup6\n                /* \"crowdfonding.sol\":1164:1174  msg.sender */\n              dup9\n                /* \"crowdfonding.sol\":1190:1226  payable(msg.sender).transfer(amount) */\n              dup9\n              call\n              swap4\n              pop\n              pop\n              pop\n              pop\n              iszero\n              dup1\n              iszero\n              tag_75\n              jumpi\n              returndatasize\n              0x00\n              dup1\n              returndatacopy\n              revert(0x00, returndatasize)\n            tag_75:\n              pop\n                /* \"crowdfonding.sol\":929:1234  {... */\n              pop\n                /* \"crowdfonding.sol\":904:1234  function refund() public {... */\n              jump\t// out\n                /* \"crowdfonding.sol\":496:684  function contribute() public payable {... */\n            tag_44:\n                /* \"crowdfonding.sol\":570:578  deadline */\n              sload(0x04)\n                /* \"crowdfonding.sol\":552:567  block.timestamp */\n              timestamp\n                /* \"crowdfonding.sol\":552:578  block.timestamp < deadline */\n              lt\n                /* \"crowdfonding.sol\":544:597  require(block.timestamp < deadline, \"Campaign ended\") */\n              tag_77\n              jumpi\n              mload(0x40)\n              shl(0xe5, 0x461bcd)\n              dup2\n              mstore\n                /* \"#utility.yul\":3414:3416   */\n              0x20\n                /* \"crowdfonding.sol\":544:597  require(block.timestamp < deadline, \"Campaign ended\") */\n              0x04\n              dup3\n              add\n                /* \"#utility.yul\":3396:3417   */\n              mstore\n                /* \"#utility.yul\":3453:3455   */\n              0x0e\n                /* \"#utility.yul\":3433:3451   */\n              0x24\n              dup3\n              add\n                /* \"#utility.yul\":3426:3456   */\n              mstore\n              shl(0x92, 0x10d85b5c185a59db88195b991959)\n                /* \"#utility.yul\":3472:3490   */\n              0x44\n              dup3\n              add\n                /* \"#utility.yul\":3465:3509   */\n              mstore\n                /* \"#utility.yul\":3526:3544   */\n              0x64\n              add\n                /* \"crowdfonding.sol\":544:597  require(block.timestamp < deadline, \"Campaign ended\") */\n              tag_51\n                /* \"#utility.yul\":3212:3550   */\n              jump\n                /* \"crowdfonding.sol\":544:597  require(block.timestamp < deadline, \"Campaign ended\") */\n            tag_77:\n                /* \"crowdfonding.sol\":622:632  msg.sender */\n              caller\n                /* \"crowdfonding.sol\":608:633  contributions[msg.sender] */\n              0x00\n              swap1\n              dup2\n              mstore\n                /* \"crowdfonding.sol\":608:621  contributions */\n              0x05\n                /* \"crowdfonding.sol\":608:633  contributions[msg.sender] */\n              0x20\n              mstore\n              0x40\n              dup2\n              keccak256\n                /* \"crowdfonding.sol\":608:646  contributions[msg.sender] += msg.value */\n              dup1\n              sload\n                /* \"crowdfonding.sol\":637:646  msg.value */\n              callvalue\n              swap3\n                /* \"crowdfonding.sol\":608:633  contributions[msg.sender] */\n              swap1\n                /* \"crowdfonding.sol\":608:646  contributions[msg.sender] += msg.value */\n              tag_80\n              swap1\n                /* \"crowdfonding.sol\":637:646  msg.value */\n              dup5\n              swap1\n                /* \"crowdfonding.sol\":608:646  contributions[msg.sender] += msg.value */\n              tag_81\n              jump\t// in\n            tag_80:\n              swap3\n              pop\n              pop\n              dup2\n              swap1\n              sstore\n              pop\n                /* \"crowdfonding.sol\":667:676  msg.value */\n              callvalue\n                /* \"crowdfonding.sol\":657:663  raised */\n              0x03\n              0x00\n                /* \"crowdfonding.sol\":657:676  raised += msg.value */\n              dup3\n              dup3\n              sload\n              tag_82\n              swap2\n              swap1\n              tag_81\n              jump\t// in\n            tag_82:\n              swap1\n              swap2\n              sstore\n              pop\n              pop\n                /* \"crowdfonding.sol\":496:684  function contribute() public payable {... */\n              jump\t// out\n                /* \"#utility.yul\":404:690   */\n            tag_32:\n                /* \"#utility.yul\":463:469   */\n              0x00\n                /* \"#utility.yul\":516:518   */\n              0x20\n                /* \"#utility.yul\":504:513   */\n              dup3\n                /* \"#utility.yul\":495:502   */\n              dup5\n                /* \"#utility.yul\":491:514   */\n              sub\n                /* \"#utility.yul\":487:519   */\n              slt\n                /* \"#utility.yul\":484:536   */\n              iszero\n              tag_87\n              jumpi\n                /* \"#utility.yul\":532:533   */\n              0x00\n                /* \"#utility.yul\":529:530   */\n              dup1\n                /* \"#utility.yul\":522:534   */\n              revert\n                /* \"#utility.yul\":484:536   */\n            tag_87:\n                /* \"#utility.yul\":558:581   */\n              dup2\n              calldataload\n              sub(shl(0xa0, 0x01), 0x01)\n                /* \"#utility.yul\":610:641   */\n              dup2\n              and\n                /* \"#utility.yul\":600:642   */\n              dup2\n              eq\n                /* \"#utility.yul\":590:660   */\n              tag_88\n              jumpi\n                /* \"#utility.yul\":656:657   */\n              0x00\n                /* \"#utility.yul\":653:654   */\n              dup1\n                /* \"#utility.yul\":646:658   */\n              revert\n                /* \"#utility.yul\":590:660   */\n            tag_88:\n                /* \"#utility.yul\":679:684   */\n              swap4\n                /* \"#utility.yul\":404:690   */\n              swap3\n              pop\n              pop\n              pop\n              jump\t// out\n                /* \"#utility.yul\":695:1113   */\n            tag_39:\n                /* \"#utility.yul\":844:846   */\n              0x20\n                /* \"#utility.yul\":833:842   */\n              dup2\n                /* \"#utility.yul\":826:847   */\n              mstore\n                /* \"#utility.yul\":807:811   */\n              0x00\n                /* \"#utility.yul\":876:882   */\n              dup3\n                /* \"#utility.yul\":870:883   */\n              mload\n                /* \"#utility.yul\":919:925   */\n              dup1\n                /* \"#utility.yul\":914:916   */\n              0x20\n                /* \"#utility.yul\":903:912   */\n              dup5\n                /* \"#utility.yul\":899:917   */\n              add\n                /* \"#utility.yul\":892:926   */\n              mstore\n                /* \"#utility.yul\":978:984   */\n              dup1\n                /* \"#utility.yul\":973:975   */\n              0x20\n                /* \"#utility.yul\":965:971   */\n              dup6\n                /* \"#utility.yul\":961:976   */\n              add\n                /* \"#utility.yul\":956:958   */\n              0x40\n                /* \"#utility.yul\":945:954   */\n              dup6\n                /* \"#utility.yul\":941:959   */\n              add\n                /* \"#utility.yul\":935:985   */\n              mcopy\n                /* \"#utility.yul\":1034:1035   */\n              0x00\n                /* \"#utility.yul\":1029:1031   */\n              0x40\n                /* \"#utility.yul\":1020:1026   */\n              dup3\n                /* \"#utility.yul\":1009:1018   */\n              dup6\n                /* \"#utility.yul\":1005:1027   */\n              add\n                /* \"#utility.yul\":1001:1032   */\n              add\n                /* \"#utility.yul\":994:1036   */\n              mstore\n                /* \"#utility.yul\":1104:1106   */\n              0x40\n                /* \"#utility.yul\":1097:1099   */\n              0x1f\n                /* \"#utility.yul\":1093:1100   */\n              not\n                /* \"#utility.yul\":1088:1090   */\n              0x1f\n                /* \"#utility.yul\":1080:1086   */\n              dup4\n                /* \"#utility.yul\":1076:1091   */\n              add\n                /* \"#utility.yul\":1072:1101   */\n              and\n                /* \"#utility.yul\":1061:1070   */\n              dup5\n                /* \"#utility.yul\":1057:1102   */\n              add\n                /* \"#utility.yul\":1053:1107   */\n              add\n                /* \"#utility.yul\":1045:1107   */\n              swap2\n              pop\n              pop\n                /* \"#utility.yul\":695:1113   */\n              swap3\n              swap2\n              pop\n              pop\n              jump\t// out\n                /* \"#utility.yul\":1803:2183   */\n            tag_59:\n                /* \"#utility.yul\":1882:1883   */\n              0x01\n                /* \"#utility.yul\":1878:1890   */\n              dup2\n              dup2\n              shr\n              swap1\n                /* \"#utility.yul\":1925:1937   */\n              dup3\n              and\n              dup1\n                /* \"#utility.yul\":1946:2007   */\n              tag_93\n              jumpi\n                /* \"#utility.yul\":2000:2004   */\n              0x7f\n                /* \"#utility.yul\":1992:1998   */\n              dup3\n                /* \"#utility.yul\":1988:2005   */\n              and\n                /* \"#utility.yul\":1978:2005   */\n              swap2\n              pop\n                /* \"#utility.yul\":1946:2007   */\n            tag_93:\n                /* \"#utility.yul\":2053:2055   */\n              0x20\n                /* \"#utility.yul\":2045:2051   */\n              dup3\n                /* \"#utility.yul\":2042:2056   */\n              lt\n                /* \"#utility.yul\":2022:2040   */\n              dup2\n                /* \"#utility.yul\":2019:2057   */\n              sub\n                /* \"#utility.yul\":2016:2177   */\n              tag_94\n              jumpi\n                /* \"#utility.yul\":2099:2109   */\n              0x4e487b71\n                /* \"#utility.yul\":2094:2097   */\n              0xe0\n                /* \"#utility.yul\":2090:2110   */\n              shl\n                /* \"#utility.yul\":2087:2088   */\n              0x00\n                /* \"#utility.yul\":2080:2111   */\n              mstore\n                /* \"#utility.yul\":2134:2138   */\n              0x22\n                /* \"#utility.yul\":2131:2132   */\n              0x04\n                /* \"#utility.yul\":2124:2139   */\n              mstore\n                /* \"#utility.yul\":2162:2166   */\n              0x24\n                /* \"#utility.yul\":2159:2160   */\n              0x00\n                /* \"#utility.yul\":2152:2167   */\n              revert\n                /* \"#utility.yul\":2016:2177   */\n            tag_94:\n              pop\n                /* \"#utility.yul\":1803:2183   */\n              swap2\n              swap1\n              pop\n              jump\t// out\n                /* \"#utility.yul\":3555:3777   */\n            tag_81:\n                /* \"#utility.yul\":3620:3629   */\n              dup1\n              dup3\n              add\n                /* \"#utility.yul\":3641:3651   */\n              dup1\n              dup3\n              gt\n                /* \"#utility.yul\":3638:3771   */\n              iszero\n              tag_100\n              jumpi\n                /* \"#utility.yul\":3693:3703   */\n              0x4e487b71\n                /* \"#utility.yul\":3688:3691   */\n              0xe0\n                /* \"#utility.yul\":3684:3704   */\n              shl\n                /* \"#utility.yul\":3681:3682   */\n              0x00\n                /* \"#utility.yul\":3674:3705   */\n              mstore\n                /* \"#utility.yul\":3728:3732   */\n              0x11\n                /* \"#utility.yul\":3725:3726   */\n              0x04\n                /* \"#utility.yul\":3718:3733   */\n              mstore\n                /* \"#utility.yul\":3756:3760   */\n              0x24\n                /* \"#utility.yul\":3753:3754   */\n              0x00\n                /* \"#utility.yul\":3746:3761   */\n              revert\n                /* \"#utility.yul\":3638:3771   */\n            tag_100:\n                /* \"#utility.yul\":3555:3777   */\n              swap3\n              swap2\n              pop\n              pop\n              jump\t// out\n\n            auxdata: 0xa264697066735822122021f6c166890f2d73bf252b9c87e8ef5fa71dfded293a46331412c92cd2bb747364736f6c634300081a0033\n        }\n    }\n\n    auxdata: 0xa26469706673582212207d23eb5a812f4f3826081cfe982816de715d5a223398aa5be3b098829b62a5ba64736f6c634300081a0033\n}\n",
				"bytecode": {
					"linkReferences": {},
					"object": "6080604052348015600e575f80fd5b50610cf18061001c5f395ff3fe608060405234801561000f575f80fd5b506004361061003f575f3560e01c8063141961bc146100435780632d823335146100725780639507d39a1461007c575b5f80fd5b610056610051366004610328565b61008f565b6040516001600160a01b03909116815260200160405180910390f35b61007a6100b6565b005b61005661008a366004610328565b6101df565b5f818154811061009d575f80fd5b5f918252602090912001546001600160a01b0316905081565b5f54156100fc5760405162461bcd60e51b815260206004820152601060248201526f105b1c9958591e4819195c1b1bde595960821b604482015260640160405180910390fd5b60015b601e81116101dc575f61011182610218565b604051602001610121919061033f565b60408051601f1981840301815291905290505f8161014784670de0b6b3a764000061037c565b60076040516101559061031b565b61016193929190610399565b604051809103905ff08015801561017a573d5f803e3d5ffd5b505f80546001810182559080527f290decd9548b62a8d60345a988386fc84ba6bc95484008f6362f93160ef3e5630180546001600160a01b0319166001600160a01b0392909216919091179055508190506101d4816103dc565b9150506100ff565b50565b5f805482106101ec575f80fd5b5f82815481106101fe576101fe6103f4565b5f918252602090912001546001600160a01b031692915050565b6060815f0361023e5750506040805180820190915260018152600360fc1b602082015290565b815f5b81156102675780610251816103dc565b91506102609050600a8361041c565b9150610241565b5f8167ffffffffffffffff8111156102815761028161042f565b6040519080825280601f01601f1916602001820160405280156102ab576020820181803683370190505b5090505b8415610313576102c0600a86610443565b6102cb906030610456565b60f81b816102d884610469565b935083815181106102eb576102eb6103f4565b60200101906001600160f81b03191690815f1a90535061030c600a8661041c565b94506102af565b949350505050565b61083d8061047f83390190565b5f60208284031215610338575f80fd5b5035919050565b66141c9bda9958dd60ca1b81525f82518060208501600785015e5f920160070191825250919050565b634e487b7160e01b5f52601160045260245ffd5b808202811582820484141761039357610393610368565b92915050565b606081525f84518060608401528060208701608085015e5f608082850101526080601f19601f830116840101915050836020830152826040830152949350505050565b5f600182016103ed576103ed610368565b5060010190565b634e487b7160e01b5f52603260045260245ffd5b634e487b7160e01b5f52601260045260245ffd5b5f8261042a5761042a610408565b500490565b634e487b7160e01b5f52604160045260245ffd5b5f8261045157610451610408565b500690565b8082018082111561039357610393610368565b5f8161047757610477610368565b505f19019056fe608060405234801561000f575f80fd5b5060405161083d38038061083d83398101604081905261002e91610088565b5f61003984826101cb565b50600180546001600160a01b03191633179055600282905561005e8162015180610299565b61006890426102b6565b600455506102c9915050565b634e487b7160e01b5f52604160045260245ffd5b5f805f6060848603121561009a575f80fd5b83516001600160401b038111156100af575f80fd5b8401601f810186136100bf575f80fd5b80516001600160401b038111156100d8576100d8610074565b604051601f8201601f19908116603f011681016001600160401b038111828210171561010657610106610074565b60405281815282820160200188101561011d575f80fd5b8160208401602083015e5f6020928201830152908601516040909601519097959650949350505050565b600181811c9082168061015b57607f821691505b60208210810361017957634e487b7160e01b5f52602260045260245ffd5b50919050565b601f8211156101c657805f5260205f20601f840160051c810160208510156101a45750805b601f840160051c820191505b818110156101c3575f81556001016101b0565b50505b505050565b81516001600160401b038111156101e4576101e4610074565b6101f8816101f28454610147565b8461017f565b6020601f82116001811461022a575f83156102135750848201515b5f19600385901b1c1916600184901b1784556101c3565b5f84815260208120601f198516915b828110156102595787850151825560209485019460019092019101610239565b508482101561027657868401515f19600387901b60f8161c191681555b50505050600190811b01905550565b634e487b7160e01b5f52601160045260245ffd5b80820281158282048414176102b0576102b0610285565b92915050565b808201808211156102b0576102b0610285565b610567806102d65f395ff3fe608060405260043610610084575f3560e01c806342e94c901161005757806342e94c90146101125780634a79d50c1461013d578063590e1ae31461015e578063d7bb99ba14610172578063f0ea4bfc1461017a575f80fd5b806302d05d3f1461008857806329dcb0cf146100c45780633ccfd60b146100e757806340193883146100fd575b5f80fd5b348015610093575f80fd5b506001546100a7906001600160a01b031681565b6040516001600160a01b0390911681526020015b60405180910390f35b3480156100cf575f80fd5b506100d960045481565b6040519081526020016100bb565b3480156100f2575f80fd5b506100fb61018f565b005b348015610108575f80fd5b506100d960025481565b34801561011d575f80fd5b506100d961012c366004610472565b60056020525f908152604090205481565b348015610148575f80fd5b5061015161025c565b6040516100bb919061049f565b348015610169575f80fd5b506100fb6102e7565b6100fb6103f3565b348015610185575f80fd5b506100d960035481565b6001546001600160a01b031633146101dc5760405162461bcd60e51b815260206004820152600b60248201526a2737ba1031b932b0ba37b960a91b60448201526064015b60405180910390fd5b60025460035410156102235760405162461bcd60e51b815260206004820152601060248201526f11dbd85b081b9bdd081c995858da195960821b60448201526064016101d3565b6001546040516001600160a01b03909116904780156108fc02915f818181858888f19350505050158015610259573d5f803e3d5ffd5b50565b5f8054610268906104d4565b80601f0160208091040260200160405190810160405280929190818152602001828054610294906104d4565b80156102df5780601f106102b6576101008083540402835291602001916102df565b820191905f5260205f20905b8154815290600101906020018083116102c257829003601f168201915b505050505081565b6004544210156103255760405162461bcd60e51b8152602060048201526009602482015268546f6f206561726c7960b81b60448201526064016101d3565b600254600354106103675760405162461bcd60e51b815260206004820152600c60248201526b11dbd85b081dd85cc81b595d60a21b60448201526064016101d3565b335f90815260056020526040902054806103b75760405162461bcd60e51b8152602060048201526011602482015270139bdd1a1a5b99c81d1bc81c99599d5b99607a1b60448201526064016101d3565b335f818152600560205260408082208290555183156108fc0291849190818181858888f193505050501580156103ef573d5f803e3d5ffd5b5050565b60045442106104355760405162461bcd60e51b815260206004820152600e60248201526d10d85b5c185a59db88195b99195960921b60448201526064016101d3565b335f908152600560205260408120805434929061045390849061050c565b925050819055503460035f82825461046b919061050c565b9091555050565b5f60208284031215610482575f80fd5b81356001600160a01b0381168114610498575f80fd5b9392505050565b602081525f82518060208401528060208501604085015e5f604082850101526040601f19601f83011684010191505092915050565b600181811c908216806104e857607f821691505b60208210810361050657634e487b7160e01b5f52602260045260245ffd5b50919050565b8082018082111561052b57634e487b7160e01b5f52601160045260245ffd5b9291505056fea264697066735822122021f6c166890f2d73bf252b9c87e8ef5fa71dfded293a46331412c92cd2bb747364736f6c634300081a0033a26469706673582212207d23eb5a812f4f3826081cfe982816de715d5a223398aa5be3b098829b62a5ba64736f6c634300081a0033",
					"opcodes": "PUSH1 0x80 PUSH1 0x40 MSTORE CALLVALUE DUP1 ISZERO PUSH1 0xE JUMPI PUSH0 DUP1 REVERT JUMPDEST POP PUSH2 0xCF1 DUP1 PUSH2 0x1C PUSH0 CODECOPY PUSH0 RETURN INVALID PUSH1 0x80 PUSH1 0x40 MSTORE CALLVALUE DUP1 ISZERO PUSH2 0xF JUMPI PUSH0 DUP1 REVERT JUMPDEST POP PUSH1 0x4 CALLDATASIZE LT PUSH2 0x3F JUMPI PUSH0 CALLDATALOAD PUSH1 0xE0 SHR DUP1 PUSH4 0x141961BC EQ PUSH2 0x43 JUMPI DUP1 PUSH4 0x2D823335 EQ PUSH2 0x72 JUMPI DUP1 PUSH4 0x9507D39A EQ PUSH2 0x7C JUMPI JUMPDEST PUSH0 DUP1 REVERT JUMPDEST PUSH2 0x56 PUSH2 0x51 CALLDATASIZE PUSH1 0x4 PUSH2 0x328 JUMP JUMPDEST PUSH2 0x8F JUMP JUMPDEST PUSH1 0x40 MLOAD PUSH1 0x1 PUSH1 0x1 PUSH1 0xA0 SHL SUB SWAP1 SWAP2 AND DUP2 MSTORE PUSH1 0x20 ADD PUSH1 0x40 MLOAD DUP1 SWAP2 SUB SWAP1 RETURN JUMPDEST PUSH2 0x7A PUSH2 0xB6 JUMP JUMPDEST STOP JUMPDEST PUSH2 0x56 PUSH2 0x8A CALLDATASIZE PUSH1 0x4 PUSH2 0x328 JUMP JUMPDEST PUSH2 0x1DF JUMP JUMPDEST PUSH0 DUP2 DUP2 SLOAD DUP2 LT PUSH2 0x9D JUMPI PUSH0 DUP1 REVERT JUMPDEST PUSH0 SWAP2 DUP3 MSTORE PUSH1 0x20 SWAP1 SWAP2 KECCAK256 ADD SLOAD PUSH1 0x1 PUSH1 0x1 PUSH1 0xA0 SHL SUB AND SWAP1 POP DUP2 JUMP JUMPDEST PUSH0 SLOAD ISZERO PUSH2 0xFC JUMPI PUSH1 0x40 MLOAD PUSH3 0x461BCD PUSH1 0xE5 SHL DUP2 MSTORE PUSH1 0x20 PUSH1 0x4 DUP3 ADD MSTORE PUSH1 0x10 PUSH1 0x24 DUP3 ADD MSTORE PUSH16 0x105B1C9958591E4819195C1B1BDE5959 PUSH1 0x82 SHL PUSH1 0x44 DUP3 ADD MSTORE PUSH1 0x64 ADD PUSH1 0x40 MLOAD DUP1 SWAP2 SUB SWAP1 REVERT JUMPDEST PUSH1 0x1 JUMPDEST PUSH1 0x1E DUP2 GT PUSH2 0x1DC JUMPI PUSH0 PUSH2 0x111 DUP3 PUSH2 0x218 JUMP JUMPDEST PUSH1 0x40 MLOAD PUSH1 0x20 ADD PUSH2 0x121 SWAP2 SWAP1 PUSH2 0x33F JUMP JUMPDEST PUSH1 0x40 DUP1 MLOAD PUSH1 0x1F NOT DUP2 DUP5 SUB ADD DUP2 MSTORE SWAP2 SWAP1 MSTORE SWAP1 POP PUSH0 DUP2 PUSH2 0x147 DUP5 PUSH8 0xDE0B6B3A7640000 PUSH2 0x37C JUMP JUMPDEST PUSH1 0x7 PUSH1 0x40 MLOAD PUSH2 0x155 SWAP1 PUSH2 0x31B JUMP JUMPDEST PUSH2 0x161 SWAP4 SWAP3 SWAP2 SWAP1 PUSH2 0x399 JUMP JUMPDEST PUSH1 0x40 MLOAD DUP1 SWAP2 SUB SWAP1 PUSH0 CREATE DUP1 ISZERO DUP1 ISZERO PUSH2 0x17A JUMPI RETURNDATASIZE PUSH0 DUP1 RETURNDATACOPY RETURNDATASIZE PUSH0 REVERT JUMPDEST POP PUSH0 DUP1 SLOAD PUSH1 0x1 DUP2 ADD DUP3 SSTORE SWAP1 DUP1 MSTORE PUSH32 0x290DECD9548B62A8D60345A988386FC84BA6BC95484008F6362F93160EF3E563 ADD DUP1 SLOAD PUSH1 0x1 PUSH1 0x1 PUSH1 0xA0 SHL SUB NOT AND PUSH1 0x1 PUSH1 0x1 PUSH1 0xA0 SHL SUB SWAP3 SWAP1 SWAP3 AND SWAP2 SWAP1 SWAP2 OR SWAP1 SSTORE POP DUP2 SWAP1 POP PUSH2 0x1D4 DUP2 PUSH2 0x3DC JUMP JUMPDEST SWAP2 POP POP PUSH2 0xFF JUMP JUMPDEST POP JUMP JUMPDEST PUSH0 DUP1 SLOAD DUP3 LT PUSH2 0x1EC JUMPI PUSH0 DUP1 REVERT JUMPDEST PUSH0 DUP3 DUP2 SLOAD DUP2 LT PUSH2 0x1FE JUMPI PUSH2 0x1FE PUSH2 0x3F4 JUMP JUMPDEST PUSH0 SWAP2 DUP3 MSTORE PUSH1 0x20 SWAP1 SWAP2 KECCAK256 ADD SLOAD PUSH1 0x1 PUSH1 0x1 PUSH1 0xA0 SHL SUB AND SWAP3 SWAP2 POP POP JUMP JUMPDEST PUSH1 0x60 DUP2 PUSH0 SUB PUSH2 0x23E JUMPI POP POP PUSH1 0x40 DUP1 MLOAD DUP1 DUP3 ADD SWAP1 SWAP2 MSTORE PUSH1 0x1 DUP2 MSTORE PUSH1 0x3 PUSH1 0xFC SHL PUSH1 0x20 DUP3 ADD MSTORE SWAP1 JUMP JUMPDEST DUP2 PUSH0 JUMPDEST DUP2 ISZERO PUSH2 0x267 JUMPI DUP1 PUSH2 0x251 DUP2 PUSH2 0x3DC JUMP JUMPDEST SWAP2 POP PUSH2 0x260 SWAP1 POP PUSH1 0xA DUP4 PUSH2 0x41C JUMP JUMPDEST SWAP2 POP PUSH2 0x241 JUMP JUMPDEST PUSH0 DUP2 PUSH8 0xFFFFFFFFFFFFFFFF DUP2 GT ISZERO PUSH2 0x281 JUMPI PUSH2 0x281 PUSH2 0x42F JUMP JUMPDEST PUSH1 0x40 MLOAD SWAP1 DUP1 DUP3 MSTORE DUP1 PUSH1 0x1F ADD PUSH1 0x1F NOT AND PUSH1 0x20 ADD DUP3 ADD PUSH1 0x40 MSTORE DUP1 ISZERO PUSH2 0x2AB JUMPI PUSH1 0x20 DUP3 ADD DUP2 DUP1 CALLDATASIZE DUP4 CALLDATACOPY ADD SWAP1 POP JUMPDEST POP SWAP1 POP JUMPDEST DUP5 ISZERO PUSH2 0x313 JUMPI PUSH2 0x2C0 PUSH1 0xA DUP7 PUSH2 0x443 JUMP JUMPDEST PUSH2 0x2CB SWAP1 PUSH1 0x30 PUSH2 0x456 JUMP JUMPDEST PUSH1 0xF8 SHL DUP2 PUSH2 0x2D8 DUP5 PUSH2 0x469 JUMP JUMPDEST SWAP4 POP DUP4 DUP2 MLOAD DUP2 LT PUSH2 0x2EB JUMPI PUSH2 0x2EB PUSH2 0x3F4 JUMP JUMPDEST PUSH1 0x20 ADD ADD SWAP1 PUSH1 0x1 PUSH1 0x1 PUSH1 0xF8 SHL SUB NOT AND SWAP1 DUP2 PUSH0 BYTE SWAP1 MSTORE8 POP PUSH2 0x30C PUSH1 0xA DUP7 PUSH2 0x41C JUMP JUMPDEST SWAP5 POP PUSH2 0x2AF JUMP JUMPDEST SWAP5 SWAP4 POP POP POP POP JUMP JUMPDEST PUSH2 0x83D DUP1 PUSH2 0x47F DUP4 CODECOPY ADD SWAP1 JUMP JUMPDEST PUSH0 PUSH1 0x20 DUP3 DUP5 SUB SLT ISZERO PUSH2 0x338 JUMPI PUSH0 DUP1 REVERT JUMPDEST POP CALLDATALOAD SWAP2 SWAP1 POP JUMP JUMPDEST PUSH7 0x141C9BDA9958DD PUSH1 0xCA SHL DUP2 MSTORE PUSH0 DUP3 MLOAD DUP1 PUSH1 0x20 DUP6 ADD PUSH1 0x7 DUP6 ADD MCOPY PUSH0 SWAP3 ADD PUSH1 0x7 ADD SWAP2 DUP3 MSTORE POP SWAP2 SWAP1 POP JUMP JUMPDEST PUSH4 0x4E487B71 PUSH1 0xE0 SHL PUSH0 MSTORE PUSH1 0x11 PUSH1 0x4 MSTORE PUSH1 0x24 PUSH0 REVERT JUMPDEST DUP1 DUP3 MUL DUP2 ISZERO DUP3 DUP3 DIV DUP5 EQ OR PUSH2 0x393 JUMPI PUSH2 0x393 PUSH2 0x368 JUMP JUMPDEST SWAP3 SWAP2 POP POP JUMP JUMPDEST PUSH1 0x60 DUP2 MSTORE PUSH0 DUP5 MLOAD DUP1 PUSH1 0x60 DUP5 ADD MSTORE DUP1 PUSH1 0x20 DUP8 ADD PUSH1 0x80 DUP6 ADD MCOPY PUSH0 PUSH1 0x80 DUP3 DUP6 ADD ADD MSTORE PUSH1 0x80 PUSH1 0x1F NOT PUSH1 0x1F DUP4 ADD AND DUP5 ADD ADD SWAP2 POP POP DUP4 PUSH1 0x20 DUP4 ADD MSTORE DUP3 PUSH1 0x40 DUP4 ADD MSTORE SWAP5 SWAP4 POP POP POP POP JUMP JUMPDEST PUSH0 PUSH1 0x1 DUP3 ADD PUSH2 0x3ED JUMPI PUSH2 0x3ED PUSH2 0x368 JUMP JUMPDEST POP PUSH1 0x1 ADD SWAP1 JUMP JUMPDEST PUSH4 0x4E487B71 PUSH1 0xE0 SHL PUSH0 MSTORE PUSH1 0x32 PUSH1 0x4 MSTORE PUSH1 0x24 PUSH0 REVERT JUMPDEST PUSH4 0x4E487B71 PUSH1 0xE0 SHL PUSH0 MSTORE PUSH1 0x12 PUSH1 0x4 MSTORE PUSH1 0x24 PUSH0 REVERT JUMPDEST PUSH0 DUP3 PUSH2 0x42A JUMPI PUSH2 0x42A PUSH2 0x408 JUMP JUMPDEST POP DIV SWAP1 JUMP JUMPDEST PUSH4 0x4E487B71 PUSH1 0xE0 SHL PUSH0 MSTORE PUSH1 0x41 PUSH1 0x4 MSTORE PUSH1 0x24 PUSH0 REVERT JUMPDEST PUSH0 DUP3 PUSH2 0x451 JUMPI PUSH2 0x451 PUSH2 0x408 JUMP JUMPDEST POP MOD SWAP1 JUMP JUMPDEST DUP1 DUP3 ADD DUP1 DUP3 GT ISZERO PUSH2 0x393 JUMPI PUSH2 0x393 PUSH2 0x368 JUMP JUMPDEST PUSH0 DUP2 PUSH2 0x477 JUMPI PUSH2 0x477 PUSH2 0x368 JUMP JUMPDEST POP PUSH0 NOT ADD SWAP1 JUMP INVALID PUSH1 0x80 PUSH1 0x40 MSTORE CALLVALUE DUP1 ISZERO PUSH2 0xF JUMPI PUSH0 DUP1 REVERT JUMPDEST POP PUSH1 0x40 MLOAD PUSH2 0x83D CODESIZE SUB DUP1 PUSH2 0x83D DUP4 CODECOPY DUP2 ADD PUSH1 0x40 DUP2 SWAP1 MSTORE PUSH2 0x2E SWAP2 PUSH2 0x88 JUMP JUMPDEST PUSH0 PUSH2 0x39 DUP5 DUP3 PUSH2 0x1CB JUMP JUMPDEST POP PUSH1 0x1 DUP1 SLOAD PUSH1 0x1 PUSH1 0x1 PUSH1 0xA0 SHL SUB NOT AND CALLER OR SWAP1 SSTORE PUSH1 0x2 DUP3 SWAP1 SSTORE PUSH2 0x5E DUP2 PUSH3 0x15180 PUSH2 0x299 JUMP JUMPDEST PUSH2 0x68 SWAP1 TIMESTAMP PUSH2 0x2B6 JUMP JUMPDEST PUSH1 0x4 SSTORE POP PUSH2 0x2C9 SWAP2 POP POP JUMP JUMPDEST PUSH4 0x4E487B71 PUSH1 0xE0 SHL PUSH0 MSTORE PUSH1 0x41 PUSH1 0x4 MSTORE PUSH1 0x24 PUSH0 REVERT JUMPDEST PUSH0 DUP1 PUSH0 PUSH1 0x60 DUP5 DUP7 SUB SLT ISZERO PUSH2 0x9A JUMPI PUSH0 DUP1 REVERT JUMPDEST DUP4 MLOAD PUSH1 0x1 PUSH1 0x1 PUSH1 0x40 SHL SUB DUP2 GT ISZERO PUSH2 0xAF JUMPI PUSH0 DUP1 REVERT JUMPDEST DUP5 ADD PUSH1 0x1F DUP2 ADD DUP7 SGT PUSH2 0xBF JUMPI PUSH0 DUP1 REVERT JUMPDEST DUP1 MLOAD PUSH1 0x1 PUSH1 0x1 PUSH1 0x40 SHL SUB DUP2 GT ISZERO PUSH2 0xD8 JUMPI PUSH2 0xD8 PUSH2 0x74 JUMP JUMPDEST PUSH1 0x40 MLOAD PUSH1 0x1F DUP3 ADD PUSH1 0x1F NOT SWAP1 DUP2 AND PUSH1 0x3F ADD AND DUP2 ADD PUSH1 0x1 PUSH1 0x1 PUSH1 0x40 SHL SUB DUP2 GT DUP3 DUP3 LT OR ISZERO PUSH2 0x106 JUMPI PUSH2 0x106 PUSH2 0x74 JUMP JUMPDEST PUSH1 0x40 MSTORE DUP2 DUP2 MSTORE DUP3 DUP3 ADD PUSH1 0x20 ADD DUP9 LT ISZERO PUSH2 0x11D JUMPI PUSH0 DUP1 REVERT JUMPDEST DUP2 PUSH1 0x20 DUP5 ADD PUSH1 0x20 DUP4 ADD MCOPY PUSH0 PUSH1 0x20 SWAP3 DUP3 ADD DUP4 ADD MSTORE SWAP1 DUP7 ADD MLOAD PUSH1 0x40 SWAP1 SWAP7 ADD MLOAD SWAP1 SWAP8 SWAP6 SWAP7 POP SWAP5 SWAP4 POP POP POP POP JUMP JUMPDEST PUSH1 0x1 DUP2 DUP2 SHR SWAP1 DUP3 AND DUP1 PUSH2 0x15B JUMPI PUSH1 0x7F DUP3 AND SWAP2 POP JUMPDEST PUSH1 0x20 DUP3 LT DUP2 SUB PUSH2 0x179 JUMPI PUSH4 0x4E487B71 PUSH1 0xE0 SHL PUSH0 MSTORE PUSH1 0x22 PUSH1 0x4 MSTORE PUSH1 0x24 PUSH0 REVERT JUMPDEST POP SWAP2 SWAP1 POP JUMP JUMPDEST PUSH1 0x1F DUP3 GT ISZERO PUSH2 0x1C6 JUMPI DUP1 PUSH0 MSTORE PUSH1 0x20 PUSH0 KECCAK256 PUSH1 0x1F DUP5 ADD PUSH1 0x5 SHR DUP2 ADD PUSH1 0x20 DUP6 LT ISZERO PUSH2 0x1A4 JUMPI POP DUP1 JUMPDEST PUSH1 0x1F DUP5 ADD PUSH1 0x5 SHR DUP3 ADD SWAP2 POP JUMPDEST DUP2 DUP2 LT ISZERO PUSH2 0x1C3 JUMPI PUSH0 DUP2 SSTORE PUSH1 0x1 ADD PUSH2 0x1B0 JUMP JUMPDEST POP POP JUMPDEST POP POP POP JUMP JUMPDEST DUP2 MLOAD PUSH1 0x1 PUSH1 0x1 PUSH1 0x40 SHL SUB DUP2 GT ISZERO PUSH2 0x1E4 JUMPI PUSH2 0x1E4 PUSH2 0x74 JUMP JUMPDEST PUSH2 0x1F8 DUP2 PUSH2 0x1F2 DUP5 SLOAD PUSH2 0x147 JUMP JUMPDEST DUP5 PUSH2 0x17F JUMP JUMPDEST PUSH1 0x20 PUSH1 0x1F DUP3 GT PUSH1 0x1 DUP2 EQ PUSH2 0x22A JUMPI PUSH0 DUP4 ISZERO PUSH2 0x213 JUMPI POP DUP5 DUP3 ADD MLOAD JUMPDEST PUSH0 NOT PUSH1 0x3 DUP6 SWAP1 SHL SHR NOT AND PUSH1 0x1 DUP5 SWAP1 SHL OR DUP5 SSTORE PUSH2 0x1C3 JUMP JUMPDEST PUSH0 DUP5 DUP2 MSTORE PUSH1 0x20 DUP2 KECCAK256 PUSH1 0x1F NOT DUP6 AND SWAP2 JUMPDEST DUP3 DUP2 LT ISZERO PUSH2 0x259 JUMPI DUP8 DUP6 ADD MLOAD DUP3 SSTORE PUSH1 0x20 SWAP5 DUP6 ADD SWAP5 PUSH1 0x1 SWAP1 SWAP3 ADD SWAP2 ADD PUSH2 0x239 JUMP JUMPDEST POP DUP5 DUP3 LT ISZERO PUSH2 0x276 JUMPI DUP7 DUP5 ADD MLOAD PUSH0 NOT PUSH1 0x3 DUP8 SWAP1 SHL PUSH1 0xF8 AND SHR NOT AND DUP2 SSTORE JUMPDEST POP POP POP POP PUSH1 0x1 SWAP1 DUP2 SHL ADD SWAP1 SSTORE POP JUMP JUMPDEST PUSH4 0x4E487B71 PUSH1 0xE0 SHL PUSH0 MSTORE PUSH1 0x11 PUSH1 0x4 MSTORE PUSH1 0x24 PUSH0 REVERT JUMPDEST DUP1 DUP3 MUL DUP2 ISZERO DUP3 DUP3 DIV DUP5 EQ OR PUSH2 0x2B0 JUMPI PUSH2 0x2B0 PUSH2 0x285 JUMP JUMPDEST SWAP3 SWAP2 POP POP JUMP JUMPDEST DUP1 DUP3 ADD DUP1 DUP3 GT ISZERO PUSH2 0x2B0 JUMPI PUSH2 0x2B0 PUSH2 0x285 JUMP JUMPDEST PUSH2 0x567 DUP1 PUSH2 0x2D6 PUSH0 CODECOPY PUSH0 RETURN INVALID PUSH1 0x80 PUSH1 0x40 MSTORE PUSH1 0x4 CALLDATASIZE LT PUSH2 0x84 JUMPI PUSH0 CALLDATALOAD PUSH1 0xE0 SHR DUP1 PUSH4 0x42E94C90 GT PUSH2 0x57 JUMPI DUP1 PUSH4 0x42E94C90 EQ PUSH2 0x112 JUMPI DUP1 PUSH4 0x4A79D50C EQ PUSH2 0x13D JUMPI DUP1 PUSH4 0x590E1AE3 EQ PUSH2 0x15E JUMPI DUP1 PUSH4 0xD7BB99BA EQ PUSH2 0x172 JUMPI DUP1 PUSH4 0xF0EA4BFC EQ PUSH2 0x17A JUMPI PUSH0 DUP1 REVERT JUMPDEST DUP1 PUSH4 0x2D05D3F EQ PUSH2 0x88 JUMPI DUP1 PUSH4 0x29DCB0CF EQ PUSH2 0xC4 JUMPI DUP1 PUSH4 0x3CCFD60B EQ PUSH2 0xE7 JUMPI DUP1 PUSH4 0x40193883 EQ PUSH2 0xFD JUMPI JUMPDEST PUSH0 DUP1 REVERT JUMPDEST CALLVALUE DUP1 ISZERO PUSH2 0x93 JUMPI PUSH0 DUP1 REVERT JUMPDEST POP PUSH1 0x1 SLOAD PUSH2 0xA7 SWAP1 PUSH1 0x1 PUSH1 0x1 PUSH1 0xA0 SHL SUB AND DUP2 JUMP JUMPDEST PUSH1 0x40 MLOAD PUSH1 0x1 PUSH1 0x1 PUSH1 0xA0 SHL SUB SWAP1 SWAP2 AND DUP2 MSTORE PUSH1 0x20 ADD JUMPDEST PUSH1 0x40 MLOAD DUP1 SWAP2 SUB SWAP1 RETURN JUMPDEST CALLVALUE DUP1 ISZERO PUSH2 0xCF JUMPI PUSH0 DUP1 REVERT JUMPDEST POP PUSH2 0xD9 PUSH1 0x4 SLOAD DUP2 JUMP JUMPDEST PUSH1 0x40 MLOAD SWAP1 DUP2 MSTORE PUSH1 0x20 ADD PUSH2 0xBB JUMP JUMPDEST CALLVALUE DUP1 ISZERO PUSH2 0xF2 JUMPI PUSH0 DUP1 REVERT JUMPDEST POP PUSH2 0xFB PUSH2 0x18F JUMP JUMPDEST STOP JUMPDEST CALLVALUE DUP1 ISZERO PUSH2 0x108 JUMPI PUSH0 DUP1 REVERT JUMPDEST POP PUSH2 0xD9 PUSH1 0x2 SLOAD DUP2 JUMP JUMPDEST CALLVALUE DUP1 ISZERO PUSH2 0x11D JUMPI PUSH0 DUP1 REVERT JUMPDEST POP PUSH2 0xD9 PUSH2 0x12C CALLDATASIZE PUSH1 0x4 PUSH2 0x472 JUMP JUMPDEST PUSH1 0x5 PUSH1 0x20 MSTORE PUSH0 SWAP1 DUP2 MSTORE PUSH1 0x40 SWAP1 KECCAK256 SLOAD DUP2 JUMP JUMPDEST CALLVALUE DUP1 ISZERO PUSH2 0x148 JUMPI PUSH0 DUP1 REVERT JUMPDEST POP PUSH2 0x151 PUSH2 0x25C JUMP JUMPDEST PUSH1 0x40 MLOAD PUSH2 0xBB SWAP2 SWAP1 PUSH2 0x49F JUMP JUMPDEST CALLVALUE DUP1 ISZERO PUSH2 0x169 JUMPI PUSH0 DUP1 REVERT JUMPDEST POP PUSH2 0xFB PUSH2 0x2E7 JUMP JUMPDEST PUSH2 0xFB PUSH2 0x3F3 JUMP JUMPDEST CALLVALUE DUP1 ISZERO PUSH2 0x185 JUMPI PUSH0 DUP1 REVERT JUMPDEST POP PUSH2 0xD9 PUSH1 0x3 SLOAD DUP2 JUMP JUMPDEST PUSH1 0x1 SLOAD PUSH1 0x1 PUSH1 0x1 PUSH1 0xA0 SHL SUB AND CALLER EQ PUSH2 0x1DC JUMPI PUSH1 0x40 MLOAD PUSH3 0x461BCD PUSH1 0xE5 SHL DUP2 MSTORE PUSH1 0x20 PUSH1 0x4 DUP3 ADD MSTORE PUSH1 0xB PUSH1 0x24 DUP3 ADD MSTORE PUSH11 0x2737BA1031B932B0BA37B9 PUSH1 0xA9 SHL PUSH1 0x44 DUP3 ADD MSTORE PUSH1 0x64 ADD JUMPDEST PUSH1 0x40 MLOAD DUP1 SWAP2 SUB SWAP1 REVERT JUMPDEST PUSH1 0x2 SLOAD PUSH1 0x3 SLOAD LT ISZERO PUSH2 0x223 JUMPI PUSH1 0x40 MLOAD PUSH3 0x461BCD PUSH1 0xE5 SHL DUP2 MSTORE PUSH1 0x20 PUSH1 0x4 DUP3 ADD MSTORE PUSH1 0x10 PUSH1 0x24 DUP3 ADD MSTORE PUSH16 0x11DBD85B081B9BDD081C995858DA1959 PUSH1 0x82 SHL PUSH1 0x44 DUP3 ADD MSTORE PUSH1 0x64 ADD PUSH2 0x1D3 JUMP JUMPDEST PUSH1 0x1 SLOAD PUSH1 0x40 MLOAD PUSH1 0x1 PUSH1 0x1 PUSH1 0xA0 SHL SUB SWAP1 SWAP2 AND SWAP1 SELFBALANCE DUP1 ISZERO PUSH2 0x8FC MUL SWAP2 PUSH0 DUP2 DUP2 DUP2 DUP6 DUP9 DUP9 CALL SWAP4 POP POP POP POP ISZERO DUP1 ISZERO PUSH2 0x259 JUMPI RETURNDATASIZE PUSH0 DUP1 RETURNDATACOPY RETURNDATASIZE PUSH0 REVERT JUMPDEST POP JUMP JUMPDEST PUSH0 DUP1 SLOAD PUSH2 0x268 SWAP1 PUSH2 0x4D4 JUMP JUMPDEST DUP1 PUSH1 0x1F ADD PUSH1 0x20 DUP1 SWAP2 DIV MUL PUSH1 0x20 ADD PUSH1 0x40 MLOAD SWAP1 DUP2 ADD PUSH1 0x40 MSTORE DUP1 SWAP3 SWAP2 SWAP1 DUP2 DUP2 MSTORE PUSH1 0x20 ADD DUP3 DUP1 SLOAD PUSH2 0x294 SWAP1 PUSH2 0x4D4 JUMP JUMPDEST DUP1 ISZERO PUSH2 0x2DF JUMPI DUP1 PUSH1 0x1F LT PUSH2 0x2B6 JUMPI PUSH2 0x100 DUP1 DUP4 SLOAD DIV MUL DUP4 MSTORE SWAP2 PUSH1 0x20 ADD SWAP2 PUSH2 0x2DF JUMP JUMPDEST DUP3 ADD SWAP2 SWAP1 PUSH0 MSTORE PUSH1 0x20 PUSH0 KECCAK256 SWAP1 JUMPDEST DUP2 SLOAD DUP2 MSTORE SWAP1 PUSH1 0x1 ADD SWAP1 PUSH1 0x20 ADD DUP1 DUP4 GT PUSH2 0x2C2 JUMPI DUP3 SWAP1 SUB PUSH1 0x1F AND DUP3 ADD SWAP2 JUMPDEST POP POP POP POP POP DUP2 JUMP JUMPDEST PUSH1 0x4 SLOAD TIMESTAMP LT ISZERO PUSH2 0x325 JUMPI PUSH1 0x40 MLOAD PUSH3 0x461BCD PUSH1 0xE5 SHL DUP2 MSTORE PUSH1 0x20 PUSH1 0x4 DUP3 ADD MSTORE PUSH1 0x9 PUSH1 0x24 DUP3 ADD MSTORE PUSH9 0x546F6F206561726C79 PUSH1 0xB8 SHL PUSH1 0x44 DUP3 ADD MSTORE PUSH1 0x64 ADD PUSH2 0x1D3 JUMP JUMPDEST PUSH1 0x2 SLOAD PUSH1 0x3 SLOAD LT PUSH2 0x367 JUMPI PUSH1 0x40 MLOAD PUSH3 0x461BCD PUSH1 0xE5 SHL DUP2 MSTORE PUSH1 0x20 PUSH1 0x4 DUP3 ADD MSTORE PUSH1 0xC PUSH1 0x24 DUP3 ADD MSTORE PUSH12 0x11DBD85B081DD85CC81B595D PUSH1 0xA2 SHL PUSH1 0x44 DUP3 ADD MSTORE PUSH1 0x64 ADD PUSH2 0x1D3 JUMP JUMPDEST CALLER PUSH0 SWAP1 DUP2 MSTORE PUSH1 0x5 PUSH1 0x20 MSTORE PUSH1 0x40 SWAP1 KECCAK256 SLOAD DUP1 PUSH2 0x3B7 JUMPI PUSH1 0x40 MLOAD PUSH3 0x461BCD PUSH1 0xE5 SHL DUP2 MSTORE PUSH1 0x20 PUSH1 0x4 DUP3 ADD MSTORE PUSH1 0x11 PUSH1 0x24 DUP3 ADD MSTORE PUSH17 0x139BDD1A1A5B99C81D1BC81C99599D5B99 PUSH1 0x7A SHL PUSH1 0x44 DUP3 ADD MSTORE PUSH1 0x64 ADD PUSH2 0x1D3 JUMP JUMPDEST CALLER PUSH0 DUP2 DUP2 MSTORE PUSH1 0x5 PUSH1 0x20 MSTORE PUSH1 0x40 DUP1 DUP3 KECCAK256 DUP3 SWAP1 SSTORE MLOAD DUP4 ISZERO PUSH2 0x8FC MUL SWAP2 DUP5 SWAP2 SWAP1 DUP2 DUP2 DUP2 DUP6 DUP9 DUP9 CALL SWAP4 POP POP POP POP ISZERO DUP1 ISZERO PUSH2 0x3EF JUMPI RETURNDATASIZE PUSH0 DUP1 RETURNDATACOPY RETURNDATASIZE PUSH0 REVERT JUMPDEST POP POP JUMP JUMPDEST PUSH1 0x4 SLOAD TIMESTAMP LT PUSH2 0x435 JUMPI PUSH1 0x40 MLOAD PUSH3 0x461BCD PUSH1 0xE5 SHL DUP2 MSTORE PUSH1 0x20 PUSH1 0x4 DUP3 ADD MSTORE PUSH1 0xE PUSH1 0x24 DUP3 ADD MSTORE PUSH14 0x10D85B5C185A59DB88195B991959 PUSH1 0x92 SHL PUSH1 0x44 DUP3 ADD MSTORE PUSH1 0x64 ADD PUSH2 0x1D3 JUMP JUMPDEST CALLER PUSH0 SWAP1 DUP2 MSTORE PUSH1 0x5 PUSH1 0x20 MSTORE PUSH1 0x40 DUP2 KECCAK256 DUP1 SLOAD CALLVALUE SWAP3 SWAP1 PUSH2 0x453 SWAP1 DUP5 SWAP1 PUSH2 0x50C JUMP JUMPDEST SWAP3 POP POP DUP2 SWAP1 SSTORE POP CALLVALUE PUSH1 0x3 PUSH0 DUP3 DUP3 SLOAD PUSH2 0x46B SWAP2 SWAP1 PUSH2 0x50C JUMP JUMPDEST SWAP1 SWAP2 SSTORE POP POP JUMP JUMPDEST PUSH0 PUSH1 0x20 DUP3 DUP5 SUB SLT ISZERO PUSH2 0x482 JUMPI PUSH0 DUP1 REVERT JUMPDEST DUP2 CALLDATALOAD PUSH1 0x1 PUSH1 0x1 PUSH1 0xA0 SHL SUB DUP2 AND DUP2 EQ PUSH2 0x498 JUMPI PUSH0 DUP1 REVERT JUMPDEST SWAP4 SWAP3 POP POP POP JUMP JUMPDEST PUSH1 0x20 DUP2 MSTORE PUSH0 DUP3 MLOAD DUP1 PUSH1 0x20 DUP5 ADD MSTORE DUP1 PUSH1 0x20 DUP6 ADD PUSH1 0x40 DUP6 ADD MCOPY PUSH0 PUSH1 0x40 DUP3 DUP6 ADD ADD MSTORE PUSH1 0x40 PUSH1 0x1F NOT PUSH1 0x1F DUP4 ADD AND DUP5 ADD ADD SWAP2 POP POP SWAP3 SWAP2 POP POP JUMP JUMPDEST PUSH1 0x1 DUP2 DUP2 SHR SWAP1 DUP3 AND DUP1 PUSH2 0x4E8 JUMPI PUSH1 0x7F DUP3 AND SWAP2 POP JUMPDEST PUSH1 0x20 DUP3 LT DUP2 SUB PUSH2 0x506 JUMPI PUSH4 0x4E487B71 PUSH1 0xE0 SHL PUSH0 MSTORE PUSH1 0x22 PUSH1 0x4 MSTORE PUSH1 0x24 PUSH0 REVERT JUMPDEST POP SWAP2 SWAP1 POP JUMP JUMPDEST DUP1 DUP3 ADD DUP1 DUP3 GT ISZERO PUSH2 0x52B JUMPI PUSH4 0x4E487B71 PUSH1 0xE0 SHL PUSH0 MSTORE PUSH1 0x11 PUSH1 0x4 MSTORE PUSH1 0x24 PUSH0 REVERT JUMPDEST SWAP3 SWAP2 POP POP JUMP INVALID LOG2 PUSH5 0x6970667358 0x22 SLT KECCAK256 0x21 0xF6 0xC1 PUSH7 0x890F2D73BF252B SWAP13 DUP8 0xE8 0xEF PUSH0 0xA7 SAR REVERT 0xED 0x29 GASPRICE CHAINID CALLER EQ SLT 0xC9 0x2C 0xD2 0xBB PUSH21 0x7364736F6C634300081A0033A26469706673582212 KECCAK256 PUSH30 0x23EB5A812F4F3826081CFE982816DE715D5A223398AA5BE3B098829B62A5 0xBA PUSH5 0x736F6C6343 STOP ADDMOD BYTE STOP CALLER "
				},
				"gasEstimates": {
					"creation": {
						"codeDepositCost": "662600",
						"executionCost": "694",
						"totalCost": "663294"
					},
					"external": {
						"campaigns(uint256)": "4576",
						"deployAll()": "infinite",
						"get(uint256)": "6747"
					},
					"internal": {
						"uint2str(uint256)": "infinite"
					}
				},
				"methodIdentifiers": {
					"campaigns(uint256)": "141961bc",
					"deployAll()": "2d823335",
					"get(uint256)": "9507d39a"
				}
			},
			"storageLayout": {
				"storage": [
					{
						"astId": 158,
						"contract": "crowdfonding.sol:Deploy30Crowdfund",
						"label": "campaigns",
						"offset": 0,
						"slot": "0",
						"type": "t_array(t_contract(Crowdfund)154)dyn_storage"
					}
				],
				"types": {
					"t_array(t_contract(Crowdfund)154)dyn_storage": {
						"base": "t_contract(Crowdfund)154",
						"encoding": "dynamic_array",
						"label": "contract Crowdfund[]",
						"numberOfBytes": "32"
					},
					"t_contract(Crowdfund)154": {
						"encoding": "inplace",
						"label": "contract Crowdfund",
						"numberOfBytes": "20"
					}
				}
			},
			"userdoc": {
				"kind": "user",
				"methods": {},
				"version": 1
			}
		}
	}
}