{
	"quality-unique-contracts/Counter.sol": {
		"Counter": {
			"abi": [
				{
					"inputs": [],
					"name": "count",
					"outputs": [
						{
							"internalType": "int256",
							"name": "",
							"type": "int256"
						}
					],
					"stateMutability": "view",
					"type": "function"
				},
				{
					"inputs": [],
					"name": "decrement",
					"outputs": [],
					"stateMutability": "nonpayable",
					"type": "function"
				},
				{
					"inputs": [],
					"name": "increment",
					"outputs": [],
					"stateMutability": "nonpayable",
					"type": "function"
				}
			],
			"devdoc": {
				"kind": "dev",
				"methods": {},
				"version": 1
			},
			"evm": {
				"assembly": "    /* \"quality-unique-contracts/Counter.sol\":59:226  contract Counter {... */\n  mstore(0x40, 0x80)\n  callvalue\n  dup1\n  iszero\n  tag_1\n  jumpi\n  0x00\n  dup1\n  revert\ntag_1:\n  pop\n  dataSize(sub_0)\n  dup1\n  dataOffset(sub_0)\n  0x00\n  codecopy\n  0x00\n  return\nstop\n\nsub_0: assembly {\n        /* \"quality-unique-contracts/Counter.sol\":59:226  contract Counter {... */\n      mstore(0x40, 0x80)\n      callvalue\n      dup1\n      iszero\n      tag_1\n      jumpi\n      0x00\n      dup1\n      revert\n    tag_1:\n      pop\n      jumpi(tag_2, lt(calldatasize, 0x04))\n      shr(0xe0, calldataload(0x00))\n      dup1\n      0x06661abd\n      eq\n      tag_3\n      jumpi\n      dup1\n      0x2baeceb7\n      eq\n      tag_4\n      jumpi\n      dup1\n      0xd09de08a\n      eq\n      tag_5\n      jumpi\n    tag_2:\n      0x00\n      dup1\n      revert\n        /* \"quality-unique-contracts/Counter.sol\":82:101  int256 public count */\n    tag_3:\n      tag_6\n      sload(0x00)\n      dup2\n      jump\n    tag_6:\n      mload(0x40)\n        /* \"#utility.yul\":158:183   */\n      swap1\n      dup2\n      mstore\n        /* \"#utility.yul\":146:148   */\n      0x20\n        /* \"#utility.yul\":131:149   */\n      add\n        /* \"quality-unique-contracts/Counter.sol\":82:101  int256 public count */\n      mload(0x40)\n      dup1\n      swap2\n      sub\n      swap1\n      return\n        /* \"quality-unique-contracts/Counter.sol\":169:224  function decrement() public {... */\n    tag_4:\n      tag_10\n      tag_11\n      jump\t// in\n    tag_10:\n      stop\n        /* \"quality-unique-contracts/Counter.sol\":108:163  function increment() public {... */\n    tag_5:\n      tag_10\n      tag_13\n      jump\t// in\n        /* \"quality-unique-contracts/Counter.sol\":169:224  function decrement() public {... */\n    tag_11:\n        /* \"quality-unique-contracts/Counter.sol\":216:217  1 */\n      0x01\n        /* \"quality-unique-contracts/Counter.sol\":207:212  count */\n      0x00\n      dup1\n        /* \"quality-unique-contracts/Counter.sol\":207:217  count -= 1 */\n      dup3\n      dup3\n      sload\n      tag_15\n      swap2\n      swap1\n      tag_16\n      jump\t// in\n    tag_15:\n      swap1\n      swap2\n      sstore\n      pop\n      pop\n        /* \"quality-unique-contracts/Counter.sol\":169:224  function decrement() public {... */\n      jump\t// out\n        /* \"quality-unique-contracts/Counter.sol\":108:163  function increment() public {... */\n    tag_13:\n        /* \"quality-unique-contracts/Counter.sol\":155:156  1 */\n      0x01\n        /* \"quality-unique-contracts/Counter.sol\":146:151  count */\n      0x00\n      dup1\n        /* \"quality-unique-contracts/Counter.sol\":146:156  count += 1 */\n      dup3\n      dup3\n      sload\n      tag_15\n      swap2\n      swap1\n      tag_19\n      jump\t// in\n        /* \"#utility.yul\":194:321   */\n    tag_20:\n        /* \"#utility.yul\":255:265   */\n      0x4e487b71\n        /* \"#utility.yul\":250:253   */\n      0xe0\n        /* \"#utility.yul\":246:266   */\n      shl\n        /* \"#utility.yul\":243:244   */\n      0x00\n        /* \"#utility.yul\":236:267   */\n      mstore\n        /* \"#utility.yul\":286:290   */\n      0x11\n        /* \"#utility.yul\":283:284   */\n      0x04\n        /* \"#utility.yul\":276:291   */\n      mstore\n        /* \"#utility.yul\":310:314   */\n      0x24\n        /* \"#utility.yul\":307:308   */\n      0x00\n        /* \"#utility.yul\":300:315   */\n      revert\n        /* \"#utility.yul\":326:526   */\n    tag_16:\n        /* \"#utility.yul\":392:401   */\n      dup2\n      dup2\n      sub\n        /* \"#utility.yul\":365:369   */\n      0x00\n        /* \"#utility.yul\":420:429   */\n      dup4\n      slt\n        /* \"#utility.yul\":448:458   */\n      dup1\n      iszero\n        /* \"#utility.yul\":460:472   */\n      dup4\n      dup4\n      sgt\n        /* \"#utility.yul\":444:473   */\n      and\n        /* \"#utility.yul\":483:495   */\n      dup4\n      dup4\n      slt\n        /* \"#utility.yul\":475:496   */\n      dup3\n      and\n        /* \"#utility.yul\":441:497   */\n      or\n        /* \"#utility.yul\":438:520   */\n      iszero\n      tag_26\n      jumpi\n        /* \"#utility.yul\":500:518   */\n      tag_26\n      tag_20\n      jump\t// in\n    tag_26:\n        /* \"#utility.yul\":438:520   */\n      pop\n        /* \"#utility.yul\":326:526   */\n      swap3\n      swap2\n      pop\n      pop\n      jump\t// out\n        /* \"#utility.yul\":531:747   */\n    tag_19:\n        /* \"#utility.yul\":595:604   */\n      dup1\n      dup3\n      add\n        /* \"#utility.yul\":623:634   */\n      dup3\n      dup2\n      slt\n        /* \"#utility.yul\":570:573   */\n      0x00\n        /* \"#utility.yul\":653:662   */\n      dup4\n      slt\n        /* \"#utility.yul\":681:691   */\n      dup1\n      iszero\n        /* \"#utility.yul\":677:696   */\n      dup3\n      and\n        /* \"#utility.yul\":706:716   */\n      dup3\n      iszero\n        /* \"#utility.yul\":698:717   */\n      dup3\n      and\n        /* \"#utility.yul\":674:718   */\n      or\n        /* \"#utility.yul\":671:741   */\n      iszero\n      tag_29\n      jumpi\n        /* \"#utility.yul\":721:739   */\n      tag_29\n      tag_20\n      jump\t// in\n    tag_29:\n        /* \"#utility.yul\":671:741   */\n      pop\n      pop\n        /* \"#utility.yul\":531:747   */\n      swap3\n      swap2\n      pop\n      pop\n      jump\t// out\n\n    auxdata: 0xa264697066735822122062bec6b011a2539fbfd1f7fe7ded252dc5efc65858b624641836ab4249e832a964736f6c634300081a0033\n}\n",
				"bytecode": {
					"linkReferences": {},
					"object": "6080604052348015600e575f80fd5b5061011b8061001c5f395ff3fe6080604052348015600e575f80fd5b5060043610603a575f3560e01c806306661abd14603e5780632baeceb7146057578063d09de08a14605f575b5f80fd5b60455f5481565b60405190815260200160405180910390f35b605d6065565b005b605d607b565b60015f8082825460749190609e565b9091555050565b60015f808282546074919060c1565b634e487b7160e01b5f52601160045260245ffd5b8181035f83128015838313168383128216171560ba5760ba608a565b5092915050565b8082018281125f83128015821682158216171560dd5760dd608a565b50509291505056fea264697066735822122062bec6b011a2539fbfd1f7fe7ded252dc5efc65858b624641836ab4249e832a964736f6c634300081a0033",
					"opcodes": "PUSH1 0x80 PUSH1 0x40 MSTORE CALLVALUE DUP1 ISZERO PUSH1 0xE JUMPI PUSH0 DUP1 REVERT JUMPDEST POP PUSH2 0x11B DUP1 PUSH2 0x1C PUSH0 CODECOPY PUSH0 RETURN INVALID PUSH1 0x80 PUSH1 0x40 MSTORE CALLVALUE DUP1 ISZERO PUSH1 0xE JUMPI PUSH0 DUP1 REVERT JUMPDEST POP PUSH1 0x4 CALLDATASIZE LT PUSH1 0x3A JUMPI PUSH0 CALLDATALOAD PUSH1 0xE0 SHR DUP1 PUSH4 0x6661ABD EQ PUSH1 0x3E JUMPI DUP1 PUSH4 0x2BAECEB7 EQ PUSH1 0x57 JUMPI DUP1 PUSH4 0xD09DE08A EQ PUSH1 0x5F JUMPI JUMPDEST PUSH0 DUP1 REVERT JUMPDEST PUSH1 0x45 PUSH0 SLOAD DUP2 JUMP JUMPDEST PUSH1 0x40 MLOAD SWAP1 DUP2 MSTORE PUSH1 0x20 ADD PUSH1 0x40 MLOAD DUP1 SWAP2 SUB SWAP1 RETURN JUMPDEST PUSH1 0x5D PUSH1 0x65 JUMP JUMPDEST STOP JUMPDEST PUSH1 0x5D PUSH1 0x7B JUMP JUMPDEST PUSH1 0x1 PUSH0 DUP1 DUP3 DUP3 SLOAD PUSH1 0x74 SWAP2 SWAP1 PUSH1 0x9E JUMP JUMPDEST SWAP1 SWAP2 SSTORE POP POP JUMP JUMPDEST PUSH1 0x1 PUSH0 DUP1 DUP3 DUP3 SLOAD PUSH1 0x74 SWAP2 SWAP1 PUSH1 0xC1 JUMP JUMPDEST PUSH4 0x4E487B71 PUSH1 0xE0 SHL PUSH0 MSTORE PUSH1 0x11 PUSH1 0x4 MSTORE PUSH1 0x24 PUSH0 REVERT JUMPDEST DUP2 DUP2 SUB PUSH0 DUP4 SLT DUP1 ISZERO DUP4 DUP4 SGT AND DUP4 DUP4 SLT DUP3 AND OR ISZERO PUSH1 0xBA JUMPI PUSH1 0xBA PUSH1 0x8A JUMP JUMPDEST POP SWAP3 SWAP2 POP POP JUMP JUMPDEST DUP1 DUP3 ADD DUP3 DUP2 SLT PUSH0 DUP4 SLT DUP1 ISZERO DUP3 AND DUP3 ISZERO DUP3 AND OR ISZERO PUSH1 0xDD JUMPI PUSH1 0xDD PUSH1 0x8A JUMP JUMPDEST POP POP SWAP3 SWAP2 POP POP JUMP INVALID LOG2 PUSH5 0x6970667358 0x22 SLT KECCAK256 PUSH3 0xBEC6B0 GT LOG2 MSTORE8 SWAP16 0xBF 0xD1 0xF7 INVALID PUSH30 0xED252DC5EFC65858B624641836AB4249E832A964736F6C634300081A0033 "
				},
				"gasEstimates": {
					"creation": {
						"codeDepositCost": "56600",
						"executionCost": "103",
						"totalCost": "56703"
					},
					"external": {
						"count()": "2259",
						"decrement()": "24479",
						"increment()": "24503"
					}
				},
				"methodIdentifiers": {
					"count()": "06661abd",
					"decrement()": "2baeceb7",
					"increment()": "d09de08a"
				}
			},
			"storageLayout": {
				"storage": [
					{
						"astId": 3,
						"contract": "quality-unique-contracts/Counter.sol:Counter",
						"label": "count",
						"offset": 0,
						"slot": "0",
						"type": "t_int256"
					}
				],
				"types": {
					"t_int256": {
						"encoding": "inplace",
						"label": "int256",
						"numberOfBytes": "32"
					}
				}
			},
			"userdoc": {
				"kind": "user",
				"methods": {},
				"version": 1
			}
		}
	}
}