{
	"Crowdfund.sol": {
		"Crowdfund": {
			"abi": [
				{
					"inputs": [
						{
							"internalType": "string",
							"name": "_title",
							"type": "string"
						},
						{
							"internalType": "uint256",
							"name": "_goal",
							"type": "uint256"
						}
					],
					"stateMutability": "nonpayable",
					"type": "constructor"
				},
				{
					"inputs": [],
					"name": "creator",
					"outputs": [
						{
							"internalType": "address",
							"name": "",
							"type": "address"
						}
					],
					"stateMutability": "view",
					"type": "function"
				},
				{
					"inputs": [],
					"name": "goal",
					"outputs": [
						{
							"internalType": "uint256",
							"name": "",
							"type": "uint256"
						}
					],
					"stateMutability": "view",
					"type": "function"
				},
				{
					"inputs": [],
					"name": "raised",
					"outputs": [
						{
							"internalType": "uint256",
							"name": "",
							"type": "uint256"
						}
					],
					"stateMutability": "view",
					"type": "function"
				},
				{
					"inputs": [],
					"name": "title",
					"outputs": [
						{
							"internalType": "string",
							"name": "",
							"type": "string"
						}
					],
					"stateMutability": "view",
					"type": "function"
				},
				{
					"inputs": [],
					"name": "withdraw",
					"outputs": [],
					"stateMutability": "nonpayable",
					"type": "function"
				},
				{
					"stateMutability": "payable",
					"type": "receive"
				}
			],
			"devdoc": {
				"kind": "dev",
				"methods": {},
				"version": 1
			},
			"evm": {
				"assembly": "    /* \"Crowdfund.sol\":61:609  contract Crowdfund {... */\n  mstore(0x40, 0x80)\n    /* \"Crowdfund.sol\":192:325  constructor(string memory _title, uint _goal) {... */\n  callvalue\n  dup1\n  iszero\n  tag_1\n  jumpi\n  0x00\n  dup1\n  revert\ntag_1:\n  pop\n  mload(0x40)\n  sub(codesize, bytecodeSize)\n  dup1\n  bytecodeSize\n  dup4\n  codecopy\n  dup2\n  add\n  0x40\n  dup2\n  swap1\n  mstore\n  tag_2\n  swap2\n  tag_3\n  jump\t// in\ntag_2:\n    /* \"Crowdfund.sol\":249:254  title */\n  0x00\n    /* \"Crowdfund.sol\":249:263  title = _title */\n  tag_6\n    /* \"Crowdfund.sol\":257:263  _title */\n  dup4\n    /* \"Crowdfund.sol\":249:254  title */\n  dup3\n    /* \"Crowdfund.sol\":249:263  title = _title */\n  tag_7\n  jump\t// in\ntag_6:\n  pop\n    /* \"Crowdfund.sol\":274:278  goal */\n  0x02\n    /* \"Crowdfund.sol\":274:286  goal = _goal */\n  sstore\n  pop\n    /* \"Crowdfund.sol\":297:304  creator */\n  0x01\n    /* \"Crowdfund.sol\":297:317  creator = msg.sender */\n  dup1\n  sload\n  not(sub(shl(0xa0, 0x01), 0x01))\n  and\n    /* \"Crowdfund.sol\":307:317  msg.sender */\n  caller\n    /* \"Crowdfund.sol\":297:317  creator = msg.sender */\n  or\n  swap1\n  sstore\n    /* \"Crowdfund.sol\":61:609  contract Crowdfund {... */\n  jump(tag_14)\n    /* \"#utility.yul\":14:141   */\ntag_9:\n    /* \"#utility.yul\":75:85   */\n  0x4e487b71\n    /* \"#utility.yul\":70:73   */\n  0xe0\n    /* \"#utility.yul\":66:86   */\n  shl\n    /* \"#utility.yul\":63:64   */\n  0x00\n    /* \"#utility.yul\":56:87   */\n  mstore\n    /* \"#utility.yul\":106:110   */\n  0x41\n    /* \"#utility.yul\":103:104   */\n  0x04\n    /* \"#utility.yul\":96:111   */\n  mstore\n    /* \"#utility.yul\":130:134   */\n  0x24\n    /* \"#utility.yul\":127:128   */\n  0x00\n    /* \"#utility.yul\":120:135   */\n  revert\n    /* \"#utility.yul\":146:1251   */\ntag_3:\n    /* \"#utility.yul\":235:241   */\n  0x00\n    /* \"#utility.yul\":243:249   */\n  dup1\n    /* \"#utility.yul\":296:298   */\n  0x40\n    /* \"#utility.yul\":284:293   */\n  dup4\n    /* \"#utility.yul\":275:282   */\n  dup6\n    /* \"#utility.yul\":271:294   */\n  sub\n    /* \"#utility.yul\":267:299   */\n  slt\n    /* \"#utility.yul\":264:316   */\n  iszero\n  tag_17\n  jumpi\n    /* \"#utility.yul\":312:313   */\n  0x00\n    /* \"#utility.yul\":309:310   */\n  dup1\n    /* \"#utility.yul\":302:314   */\n  revert\n    /* \"#utility.yul\":264:316   */\ntag_17:\n    /* \"#utility.yul\":339:355   */\n  dup3\n  mload\n  sub(shl(0x40, 0x01), 0x01)\n    /* \"#utility.yul\":404:418   */\n  dup1\n  dup3\n  gt\n    /* \"#utility.yul\":401:435   */\n  iszero\n  tag_18\n  jumpi\n    /* \"#utility.yul\":431:432   */\n  0x00\n    /* \"#utility.yul\":428:429   */\n  dup1\n    /* \"#utility.yul\":421:433   */\n  revert\n    /* \"#utility.yul\":401:435   */\ntag_18:\n    /* \"#utility.yul\":469:475   */\n  dup2\n    /* \"#utility.yul\":458:467   */\n  dup6\n    /* \"#utility.yul\":454:476   */\n  add\n    /* \"#utility.yul\":444:476   */\n  swap2\n  pop\n    /* \"#utility.yul\":514:521   */\n  dup6\n    /* \"#utility.yul\":507:511   */\n  0x1f\n    /* \"#utility.yul\":503:505   */\n  dup4\n    /* \"#utility.yul\":499:512   */\n  add\n    /* \"#utility.yul\":495:522   */\n  slt\n    /* \"#utility.yul\":485:540   */\n  tag_19\n  jumpi\n    /* \"#utility.yul\":536:537   */\n  0x00\n    /* \"#utility.yul\":533:534   */\n  dup1\n    /* \"#utility.yul\":526:538   */\n  revert\n    /* \"#utility.yul\":485:540   */\ntag_19:\n    /* \"#utility.yul\":565:567   */\n  dup2\n    /* \"#utility.yul\":559:568   */\n  mload\n    /* \"#utility.yul\":587:589   */\n  dup2\n    /* \"#utility.yul\":583:585   */\n  dup2\n    /* \"#utility.yul\":580:590   */\n  gt\n    /* \"#utility.yul\":577:613   */\n  iszero\n  tag_21\n  jumpi\n    /* \"#utility.yul\":593:611   */\n  tag_21\n  tag_9\n  jump\t// in\ntag_21:\n    /* \"#utility.yul\":668:670   */\n  0x40\n    /* \"#utility.yul\":662:671   */\n  mload\n    /* \"#utility.yul\":636:638   */\n  0x1f\n    /* \"#utility.yul\":722:735   */\n  dup3\n  add\n  not(0x1f)\n    /* \"#utility.yul\":718:740   */\n  swap1\n  dup2\n  and\n    /* \"#utility.yul\":742:744   */\n  0x3f\n    /* \"#utility.yul\":714:745   */\n  add\n    /* \"#utility.yul\":710:750   */\n  and\n    /* \"#utility.yul\":698:751   */\n  dup2\n  add\n  swap1\n    /* \"#utility.yul\":766:784   */\n  dup4\n  dup3\n  gt\n    /* \"#utility.yul\":786:808   */\n  dup2\n  dup4\n  lt\n    /* \"#utility.yul\":763:809   */\n  or\n    /* \"#utility.yul\":760:832   */\n  iszero\n  tag_23\n  jumpi\n    /* \"#utility.yul\":812:830   */\n  tag_23\n  tag_9\n  jump\t// in\ntag_23:\n    /* \"#utility.yul\":852:862   */\n  dup2\n    /* \"#utility.yul\":848:850   */\n  0x40\n    /* \"#utility.yul\":841:863   */\n  mstore\n    /* \"#utility.yul\":887:889   */\n  dup3\n    /* \"#utility.yul\":879:885   */\n  dup2\n    /* \"#utility.yul\":872:890   */\n  mstore\n    /* \"#utility.yul\":909:913   */\n  0x20\n    /* \"#utility.yul\":899:913   */\n  swap4\n  pop\n    /* \"#utility.yul\":950:957   */\n  dup9\n    /* \"#utility.yul\":945:947   */\n  dup5\n    /* \"#utility.yul\":940:942   */\n  dup5\n    /* \"#utility.yul\":936:938   */\n  dup8\n    /* \"#utility.yul\":932:943   */\n  add\n    /* \"#utility.yul\":928:948   */\n  add\n    /* \"#utility.yul\":925:958   */\n  gt\n    /* \"#utility.yul\":922:975   */\n  iszero\n  tag_24\n  jumpi\n    /* \"#utility.yul\":971:972   */\n  0x00\n    /* \"#utility.yul\":968:969   */\n  dup1\n    /* \"#utility.yul\":961:973   */\n  revert\n    /* \"#utility.yul\":922:975   */\ntag_24:\n    /* \"#utility.yul\":993:994   */\n  0x00\n    /* \"#utility.yul\":984:994   */\n  swap2\n  pop\n    /* \"#utility.yul\":1003:1132   */\ntag_25:\n    /* \"#utility.yul\":1017:1019   */\n  dup3\n    /* \"#utility.yul\":1014:1015   */\n  dup3\n    /* \"#utility.yul\":1011:1020   */\n  lt\n    /* \"#utility.yul\":1003:1132   */\n  iszero\n  tag_27\n  jumpi\n    /* \"#utility.yul\":1105:1115   */\n  dup5\n  dup3\n  add\n    /* \"#utility.yul\":1101:1120   */\n  dup5\n  add\n    /* \"#utility.yul\":1095:1121   */\n  mload\n    /* \"#utility.yul\":1074:1088   */\n  dup2\n  dup4\n  add\n    /* \"#utility.yul\":1070:1093   */\n  dup6\n  add\n    /* \"#utility.yul\":1063:1122   */\n  mstore\n    /* \"#utility.yul\":1028:1038   */\n  swap1\n  dup4\n  add\n  swap1\n    /* \"#utility.yul\":1003:1132   */\n  jump(tag_25)\ntag_27:\n    /* \"#utility.yul\":1174:1175   */\n  0x00\n    /* \"#utility.yul\":1152:1167   */\n  swap3\n  dup2\n  add\n    /* \"#utility.yul\":1148:1172   */\n  dup5\n  add\n    /* \"#utility.yul\":1141:1176   */\n  swap3\n  swap1\n  swap3\n  mstore\n  pop\n    /* \"#utility.yul\":1226:1244   */\n  swap5\n  add\n    /* \"#utility.yul\":1220:1245   */\n  mload\n    /* \"#utility.yul\":1156:1162   */\n  swap4\n  swap6\n    /* \"#utility.yul\":1220:1245   */\n  swap4\n  swap5\n  pop\n  pop\n  pop\n  pop\n    /* \"#utility.yul\":146:1251   */\n  jump\t// out\n    /* \"#utility.yul\":1256:1636   */\ntag_10:\n    /* \"#utility.yul\":1335:1336   */\n  0x01\n    /* \"#utility.yul\":1331:1343   */\n  dup2\n  dup2\n  shr\n  swap1\n    /* \"#utility.yul\":1378:1390   */\n  dup3\n  and\n  dup1\n    /* \"#utility.yul\":1399:1460   */\n  tag_29\n  jumpi\n    /* \"#utility.yul\":1453:1457   */\n  0x7f\n    /* \"#utility.yul\":1445:1451   */\n  dup3\n    /* \"#utility.yul\":1441:1458   */\n  and\n    /* \"#utility.yul\":1431:1458   */\n  swap2\n  pop\n    /* \"#utility.yul\":1399:1460   */\ntag_29:\n    /* \"#utility.yul\":1506:1508   */\n  0x20\n    /* \"#utility.yul\":1498:1504   */\n  dup3\n    /* \"#utility.yul\":1495:1509   */\n  lt\n    /* \"#utility.yul\":1475:1493   */\n  dup2\n    /* \"#utility.yul\":1472:1510   */\n  sub\n    /* \"#utility.yul\":1469:1630   */\n  tag_30\n  jumpi\n    /* \"#utility.yul\":1552:1562   */\n  0x4e487b71\n    /* \"#utility.yul\":1547:1550   */\n  0xe0\n    /* \"#utility.yul\":1543:1563   */\n  shl\n    /* \"#utility.yul\":1540:1541   */\n  0x00\n    /* \"#utility.yul\":1533:1564   */\n  mstore\n    /* \"#utility.yul\":1587:1591   */\n  0x22\n    /* \"#utility.yul\":1584:1585   */\n  0x04\n    /* \"#utility.yul\":1577:1592   */\n  mstore\n    /* \"#utility.yul\":1615:1619   */\n  0x24\n    /* \"#utility.yul\":1612:1613   */\n  0x00\n    /* \"#utility.yul\":1605:1620   */\n  revert\n    /* \"#utility.yul\":1469:1630   */\ntag_30:\n  pop\n    /* \"#utility.yul\":1256:1636   */\n  swap2\n  swap1\n  pop\n  jump\t// out\n    /* \"#utility.yul\":1767:2285   */\ntag_12:\n    /* \"#utility.yul\":1869:1871   */\n  0x1f\n    /* \"#utility.yul\":1864:1867   */\n  dup3\n    /* \"#utility.yul\":1861:1872   */\n  gt\n    /* \"#utility.yul\":1858:2279   */\n  iszero\n  tag_33\n  jumpi\n    /* \"#utility.yul\":1905:1910   */\n  dup1\n    /* \"#utility.yul\":1902:1903   */\n  0x00\n    /* \"#utility.yul\":1895:1911   */\n  mstore\n    /* \"#utility.yul\":1949:1953   */\n  0x20\n    /* \"#utility.yul\":1946:1947   */\n  0x00\n    /* \"#utility.yul\":1936:1954   */\n  keccak256\n    /* \"#utility.yul\":2019:2021   */\n  0x1f\n    /* \"#utility.yul\":2007:2017   */\n  dup5\n    /* \"#utility.yul\":2003:2022   */\n  add\n    /* \"#utility.yul\":2000:2001   */\n  0x05\n    /* \"#utility.yul\":1996:2023   */\n  shr\n    /* \"#utility.yul\":1990:1994   */\n  dup2\n    /* \"#utility.yul\":1986:2024   */\n  add\n    /* \"#utility.yul\":2055:2059   */\n  0x20\n    /* \"#utility.yul\":2043:2053   */\n  dup6\n    /* \"#utility.yul\":2040:2060   */\n  lt\n    /* \"#utility.yul\":2037:2084   */\n  iszero\n  tag_34\n  jumpi\n  pop\n    /* \"#utility.yul\":2078:2082   */\n  dup1\n    /* \"#utility.yul\":2037:2084   */\ntag_34:\n    /* \"#utility.yul\":2133:2135   */\n  0x1f\n    /* \"#utility.yul\":2128:2131   */\n  dup5\n    /* \"#utility.yul\":2124:2136   */\n  add\n    /* \"#utility.yul\":2121:2122   */\n  0x05\n    /* \"#utility.yul\":2117:2137   */\n  shr\n    /* \"#utility.yul\":2111:2115   */\n  dup3\n    /* \"#utility.yul\":2107:2138   */\n  add\n    /* \"#utility.yul\":2097:2138   */\n  swap2\n  pop\n    /* \"#utility.yul\":2188:2269   */\ntag_35:\n    /* \"#utility.yul\":2206:2208   */\n  dup2\n    /* \"#utility.yul\":2199:2204   */\n  dup2\n    /* \"#utility.yul\":2196:2209   */\n  lt\n    /* \"#utility.yul\":2188:2269   */\n  iszero\n  tag_37\n  jumpi\n    /* \"#utility.yul\":2265:2266   */\n  0x00\n    /* \"#utility.yul\":2251:2267   */\n  dup2\n  sstore\n    /* \"#utility.yul\":2232:2233   */\n  0x01\n    /* \"#utility.yul\":2221:2234   */\n  add\n    /* \"#utility.yul\":2188:2269   */\n  jump(tag_35)\ntag_37:\n    /* \"#utility.yul\":2192:2195   */\n  pop\n  pop\n    /* \"#utility.yul\":1858:2279   */\ntag_33:\n    /* \"#utility.yul\":1767:2285   */\n  pop\n  pop\n  pop\n  jump\t// out\n    /* \"#utility.yul\":2461:3806   */\ntag_7:\n    /* \"#utility.yul\":2581:2591   */\n  dup2\n  mload\n  sub(shl(0x40, 0x01), 0x01)\n    /* \"#utility.yul\":2603:2633   */\n  dup2\n  gt\n    /* \"#utility.yul\":2600:2656   */\n  iszero\n  tag_41\n  jumpi\n    /* \"#utility.yul\":2636:2654   */\n  tag_41\n  tag_9\n  jump\t// in\ntag_41:\n    /* \"#utility.yul\":2665:2762   */\n  tag_42\n    /* \"#utility.yul\":2755:2761   */\n  dup2\n    /* \"#utility.yul\":2715:2753   */\n  tag_43\n    /* \"#utility.yul\":2747:2751   */\n  dup5\n    /* \"#utility.yul\":2741:2752   */\n  sload\n    /* \"#utility.yul\":2715:2753   */\n  tag_10\n  jump\t// in\ntag_43:\n    /* \"#utility.yul\":2709:2713   */\n  dup5\n    /* \"#utility.yul\":2665:2762   */\n  tag_12\n  jump\t// in\ntag_42:\n    /* \"#utility.yul\":2817:2821   */\n  0x20\n  dup1\n    /* \"#utility.yul\":2874:2876   */\n  0x1f\n    /* \"#utility.yul\":2863:2877   */\n  dup4\n  gt\n    /* \"#utility.yul\":2891:2892   */\n  0x01\n    /* \"#utility.yul\":2886:3549   */\n  dup2\n  eq\n  tag_45\n  jumpi\n    /* \"#utility.yul\":3593:3594   */\n  0x00\n    /* \"#utility.yul\":3610:3616   */\n  dup5\n    /* \"#utility.yul\":3607:3696   */\n  iszero\n  tag_46\n  jumpi\n  pop\n    /* \"#utility.yul\":3662:3681   */\n  dup6\n  dup4\n  add\n    /* \"#utility.yul\":3656:3682   */\n  mload\n    /* \"#utility.yul\":3607:3696   */\ntag_46:\n  not(0x00)\n    /* \"#utility.yul\":2418:2419   */\n  0x03\n    /* \"#utility.yul\":2414:2425   */\n  dup7\n  swap1\n  shl\n    /* \"#utility.yul\":2410:2434   */\n  shr\n    /* \"#utility.yul\":2406:2435   */\n  not\n    /* \"#utility.yul\":2396:2436   */\n  and\n    /* \"#utility.yul\":2442:2443   */\n  0x01\n    /* \"#utility.yul\":2438:2449   */\n  dup6\n  swap1\n  shl\n    /* \"#utility.yul\":2393:2450   */\n  or\n    /* \"#utility.yul\":3709:3790   */\n  dup6\n  sstore\n    /* \"#utility.yul\":2856:3800   */\n  jump(tag_44)\n    /* \"#utility.yul\":2886:3549   */\ntag_45:\n    /* \"#utility.yul\":1714:1715   */\n  0x00\n    /* \"#utility.yul\":1707:1721   */\n  dup6\n  dup2\n  mstore\n    /* \"#utility.yul\":1751:1755   */\n  0x20\n    /* \"#utility.yul\":1738:1756   */\n  dup2\n  keccak256\n  not(0x1f)\n    /* \"#utility.yul\":2922:2942   */\n  dup7\n  and\n  swap2\n    /* \"#utility.yul\":3040:3276   */\ntag_49:\n    /* \"#utility.yul\":3054:3061   */\n  dup3\n    /* \"#utility.yul\":3051:3052   */\n  dup2\n    /* \"#utility.yul\":3048:3062   */\n  lt\n    /* \"#utility.yul\":3040:3276   */\n  iszero\n  tag_51\n  jumpi\n    /* \"#utility.yul\":3143:3162   */\n  dup9\n  dup7\n  add\n    /* \"#utility.yul\":3137:3163   */\n  mload\n    /* \"#utility.yul\":3122:3164   */\n  dup3\n  sstore\n    /* \"#utility.yul\":3235:3262   */\n  swap5\n  dup5\n  add\n  swap5\n    /* \"#utility.yul\":3203:3204   */\n  0x01\n    /* \"#utility.yul\":3191:3205   */\n  swap1\n  swap2\n  add\n  swap1\n    /* \"#utility.yul\":3070:3089   */\n  dup5\n  add\n    /* \"#utility.yul\":3040:3276   */\n  jump(tag_49)\ntag_51:\n    /* \"#utility.yul\":3044:3047   */\n  pop\n    /* \"#utility.yul\":3304:3310   */\n  dup6\n    /* \"#utility.yul\":3295:3302   */\n  dup3\n    /* \"#utility.yul\":3292:3311   */\n  lt\n    /* \"#utility.yul\":3289:3490   */\n  iszero\n  tag_52\n  jumpi\n    /* \"#utility.yul\":3365:3384   */\n  dup8\n  dup6\n  add\n    /* \"#utility.yul\":3359:3385   */\n  mload\n  not(0x00)\n    /* \"#utility.yul\":3448:3449   */\n  0x03\n    /* \"#utility.yul\":3444:3458   */\n  dup9\n  swap1\n  shl\n    /* \"#utility.yul\":3460:3463   */\n  0xf8\n    /* \"#utility.yul\":3440:3464   */\n  and\n    /* \"#utility.yul\":3436:3473   */\n  shr\n    /* \"#utility.yul\":3432:3474   */\n  not\n    /* \"#utility.yul\":3417:3475   */\n  and\n    /* \"#utility.yul\":3402:3476   */\n  dup2\n  sstore\n    /* \"#utility.yul\":3289:3490   */\ntag_52:\n  pop\n  pop\n    /* \"#utility.yul\":3536:3537   */\n  0x01\n    /* \"#utility.yul\":3527:3533   */\n  dup5\n    /* \"#utility.yul\":3524:3525   */\n  0x01\n    /* \"#utility.yul\":3520:3534   */\n  shl\n    /* \"#utility.yul\":3516:3538   */\n  add\n    /* \"#utility.yul\":3510:3514   */\n  dup6\n    /* \"#utility.yul\":3503:3539   */\n  sstore\n    /* \"#utility.yul\":2856:3800   */\ntag_44:\n  pop\n  pop\n  pop\n  pop\n    /* \"#utility.yul\":2461:3806   */\n  pop\n  pop\n  jump\t// out\ntag_14:\n    /* \"Crowdfund.sol\":61:609  contract Crowdfund {... */\n  dataSize(sub_0)\n  dup1\n  dataOffset(sub_0)\n  0x00\n  codecopy\n  0x00\n  return\nstop\n\nsub_0: assembly {\n        /* \"Crowdfund.sol\":61:609  contract Crowdfund {... */\n      mstore(0x40, 0x80)\n      jumpi(tag_1, lt(calldatasize, 0x04))\n      shr(0xe0, calldataload(0x00))\n      dup1\n      0x02d05d3f\n      eq\n      tag_3\n      jumpi\n      dup1\n      0x3ccfd60b\n      eq\n      tag_4\n      jumpi\n      dup1\n      0x40193883\n      eq\n      tag_5\n      jumpi\n      dup1\n      0x4a79d50c\n      eq\n      tag_6\n      jumpi\n      dup1\n      0xf0ea4bfc\n      eq\n      tag_7\n      jumpi\n      0x00\n      dup1\n      revert\n    tag_1:\n      jumpi(tag_2, calldatasize)\n        /* \"Crowdfund.sol\":381:390  msg.value */\n      callvalue\n        /* \"Crowdfund.sol\":371:377  raised */\n      0x03\n      0x00\n        /* \"Crowdfund.sol\":371:390  raised += msg.value */\n      dup3\n      dup3\n      sload\n      tag_10\n      swap2\n      swap1\n      tag_11\n      jump\t// in\n    tag_10:\n      swap3\n      pop\n      pop\n      dup2\n      swap1\n      sstore\n      stop\n        /* \"Crowdfund.sol\":61:609  contract Crowdfund {... */\n    tag_2:\n      0x00\n      dup1\n      revert\n        /* \"Crowdfund.sol\":113:135  address public creator */\n    tag_3:\n      callvalue\n      dup1\n      iszero\n      tag_12\n      jumpi\n      0x00\n      dup1\n      revert\n    tag_12:\n      pop\n      sload(0x01)\n      tag_13\n      swap1\n      sub(shl(0xa0, 0x01), 0x01)\n      and\n      dup2\n      jump\n    tag_13:\n      mload(0x40)\n      sub(shl(0xa0, 0x01), 0x01)\n        /* \"#utility.yul\":405:437   */\n      swap1\n      swap2\n      and\n        /* \"#utility.yul\":387:438   */\n      dup2\n      mstore\n        /* \"#utility.yul\":375:377   */\n      0x20\n        /* \"#utility.yul\":360:378   */\n      add\n        /* \"Crowdfund.sol\":113:135  address public creator */\n    tag_15:\n      mload(0x40)\n      dup1\n      swap2\n      sub\n      swap1\n      return\n        /* \"Crowdfund.sol\":406:606  function withdraw() public {... */\n    tag_4:\n      callvalue\n      dup1\n      iszero\n      tag_17\n      jumpi\n      0x00\n      dup1\n      revert\n    tag_17:\n      pop\n      tag_18\n      tag_19\n      jump\t// in\n    tag_18:\n      stop\n        /* \"Crowdfund.sol\":142:158  uint public goal */\n    tag_5:\n      callvalue\n      dup1\n      iszero\n      tag_20\n      jumpi\n      0x00\n      dup1\n      revert\n    tag_20:\n      pop\n      tag_21\n      sload(0x02)\n      dup2\n      jump\n    tag_21:\n      mload(0x40)\n        /* \"#utility.yul\":595:620   */\n      swap1\n      dup2\n      mstore\n        /* \"#utility.yul\":583:585   */\n      0x20\n        /* \"#utility.yul\":568:586   */\n      add\n        /* \"Crowdfund.sol\":142:158  uint public goal */\n      tag_15\n        /* \"#utility.yul\":449:626   */\n      jump\n        /* \"Crowdfund.sol\":87:106  string public title */\n    tag_6:\n      callvalue\n      dup1\n      iszero\n      tag_25\n      jumpi\n      0x00\n      dup1\n      revert\n    tag_25:\n      pop\n      tag_26\n      tag_27\n      jump\t// in\n    tag_26:\n      mload(0x40)\n      tag_15\n      swap2\n      swap1\n      tag_29\n      jump\t// in\n        /* \"Crowdfund.sol\":165:183  uint public raised */\n    tag_7:\n      callvalue\n      dup1\n      iszero\n      tag_30\n      jumpi\n      0x00\n      dup1\n      revert\n    tag_30:\n      pop\n      tag_21\n      sload(0x03)\n      dup2\n      jump\n        /* \"Crowdfund.sol\":406:606  function withdraw() public {... */\n    tag_19:\n        /* \"Crowdfund.sol\":466:473  creator */\n      and(sub(shl(0xa0, 0x01), 0x01), sload(0x01))\n        /* \"Crowdfund.sol\":452:462  msg.sender */\n      caller\n        /* \"Crowdfund.sol\":452:473  msg.sender == creator */\n      eq\n        /* \"Crowdfund.sol\":444:489  require(msg.sender == creator, \"Not creator\") */\n      tag_35\n      jumpi\n      mload(0x40)\n      shl(0xe5, 0x461bcd)\n      dup2\n      mstore\n        /* \"#utility.yul\":1386:1388   */\n      0x20\n        /* \"Crowdfund.sol\":444:489  require(msg.sender == creator, \"Not creator\") */\n      0x04\n      dup3\n      add\n        /* \"#utility.yul\":1368:1389   */\n      mstore\n        /* \"#utility.yul\":1425:1427   */\n      0x0b\n        /* \"#utility.yul\":1405:1423   */\n      0x24\n      dup3\n      add\n        /* \"#utility.yul\":1398:1428   */\n      mstore\n      shl(0xa9, 0x2737ba1031b932b0ba37b9)\n        /* \"#utility.yul\":1444:1462   */\n      0x44\n      dup3\n      add\n        /* \"#utility.yul\":1437:1478   */\n      mstore\n        /* \"#utility.yul\":1495:1513   */\n      0x64\n      add\n        /* \"Crowdfund.sol\":444:489  require(msg.sender == creator, \"Not creator\") */\n    tag_36:\n      mload(0x40)\n      dup1\n      swap2\n      sub\n      swap1\n      revert\n    tag_35:\n        /* \"Crowdfund.sol\":518:522  goal */\n      sload(0x02)\n        /* \"Crowdfund.sol\":508:514  raised */\n      sload(0x03)\n        /* \"Crowdfund.sol\":508:522  raised >= goal */\n      lt\n      iszero\n        /* \"Crowdfund.sol\":500:539  require(raised >= goal, \"Goal not met\") */\n      tag_38\n      jumpi\n      mload(0x40)\n      shl(0xe5, 0x461bcd)\n      dup2\n      mstore\n        /* \"#utility.yul\":1726:1728   */\n      0x20\n        /* \"Crowdfund.sol\":500:539  require(raised >= goal, \"Goal not met\") */\n      0x04\n      dup3\n      add\n        /* \"#utility.yul\":1708:1729   */\n      mstore\n        /* \"#utility.yul\":1765:1767   */\n      0x0c\n        /* \"#utility.yul\":1745:1763   */\n      0x24\n      dup3\n      add\n        /* \"#utility.yul\":1738:1768   */\n      mstore\n      shl(0xa2, 0x11dbd85b081b9bdd081b595d)\n        /* \"#utility.yul\":1784:1802   */\n      0x44\n      dup3\n      add\n        /* \"#utility.yul\":1777:1819   */\n      mstore\n        /* \"#utility.yul\":1836:1854   */\n      0x64\n      add\n        /* \"Crowdfund.sol\":500:539  require(raised >= goal, \"Goal not met\") */\n      tag_36\n        /* \"#utility.yul\":1524:1860   */\n      jump\n        /* \"Crowdfund.sol\":500:539  require(raised >= goal, \"Goal not met\") */\n    tag_38:\n        /* \"Crowdfund.sol\":558:565  creator */\n      sload(0x01)\n        /* \"Crowdfund.sol\":550:598  payable(creator).transfer(address(this).balance) */\n      mload(0x40)\n      sub(shl(0xa0, 0x01), 0x01)\n        /* \"Crowdfund.sol\":558:565  creator */\n      swap1\n      swap2\n      and\n      swap1\n        /* \"Crowdfund.sol\":576:597  address(this).balance */\n      selfbalance\n        /* \"Crowdfund.sol\":550:598  payable(creator).transfer(address(this).balance) */\n      dup1\n      iszero\n      0x08fc\n      mul\n      swap2\n        /* \"Crowdfund.sol\":558:565  creator */\n      0x00\n        /* \"Crowdfund.sol\":550:598  payable(creator).transfer(address(this).balance) */\n      dup2\n        /* \"Crowdfund.sol\":558:565  creator */\n      dup2\n        /* \"Crowdfund.sol\":550:598  payable(creator).transfer(address(this).balance) */\n      dup2\n        /* \"Crowdfund.sol\":576:597  address(this).balance */\n      dup6\n        /* \"Crowdfund.sol\":558:565  creator */\n      dup9\n        /* \"Crowdfund.sol\":550:598  payable(creator).transfer(address(this).balance) */\n      dup9\n      call\n      swap4\n      pop\n      pop\n      pop\n      pop\n      iszero\n      dup1\n      iszero\n      tag_42\n      jumpi\n      returndatasize\n      0x00\n      dup1\n      returndatacopy\n      revert(0x00, returndatasize)\n    tag_42:\n      pop\n        /* \"Crowdfund.sol\":406:606  function withdraw() public {... */\n      jump\t// out\n        /* \"Crowdfund.sol\":87:106  string public title */\n    tag_27:\n      0x00\n      dup1\n      sload\n      tag_43\n      swap1\n      tag_44\n      jump\t// in\n    tag_43:\n      dup1\n      0x1f\n      add\n      0x20\n      dup1\n      swap2\n      div\n      mul\n      0x20\n      add\n      mload(0x40)\n      swap1\n      dup2\n      add\n      0x40\n      mstore\n      dup1\n      swap3\n      swap2\n      swap1\n      dup2\n      dup2\n      mstore\n      0x20\n      add\n      dup3\n      dup1\n      sload\n      tag_45\n      swap1\n      tag_44\n      jump\t// in\n    tag_45:\n      dup1\n      iszero\n      tag_46\n      jumpi\n      dup1\n      0x1f\n      lt\n      tag_47\n      jumpi\n      0x0100\n      dup1\n      dup4\n      sload\n      div\n      mul\n      dup4\n      mstore\n      swap2\n      0x20\n      add\n      swap2\n      jump(tag_46)\n    tag_47:\n      dup3\n      add\n      swap2\n      swap1\n      0x00\n      mstore\n      keccak256(0x00, 0x20)\n      swap1\n    tag_48:\n      dup2\n      sload\n      dup2\n      mstore\n      swap1\n      0x01\n      add\n      swap1\n      0x20\n      add\n      dup1\n      dup4\n      gt\n      tag_48\n      jumpi\n      dup3\n      swap1\n      sub\n      0x1f\n      and\n      dup3\n      add\n      swap2\n    tag_46:\n      pop\n      pop\n      pop\n      pop\n      pop\n      dup2\n      jump\t// out\n        /* \"#utility.yul\":14:236   */\n    tag_11:\n        /* \"#utility.yul\":79:88   */\n      dup1\n      dup3\n      add\n        /* \"#utility.yul\":100:110   */\n      dup1\n      dup3\n      gt\n        /* \"#utility.yul\":97:230   */\n      iszero\n      tag_51\n      jumpi\n        /* \"#utility.yul\":152:162   */\n      0x4e487b71\n        /* \"#utility.yul\":147:150   */\n      0xe0\n        /* \"#utility.yul\":143:163   */\n      shl\n        /* \"#utility.yul\":140:141   */\n      0x00\n        /* \"#utility.yul\":133:164   */\n      mstore\n        /* \"#utility.yul\":187:191   */\n      0x11\n        /* \"#utility.yul\":184:185   */\n      0x04\n        /* \"#utility.yul\":177:192   */\n      mstore\n        /* \"#utility.yul\":215:219   */\n      0x24\n        /* \"#utility.yul\":212:213   */\n      0x00\n        /* \"#utility.yul\":205:220   */\n      revert\n        /* \"#utility.yul\":97:230   */\n    tag_51:\n        /* \"#utility.yul\":14:236   */\n      swap3\n      swap2\n      pop\n      pop\n      jump\t// out\n        /* \"#utility.yul\":631:1179   */\n    tag_29:\n        /* \"#utility.yul\":743:747   */\n      0x00\n        /* \"#utility.yul\":772:774   */\n      0x20\n        /* \"#utility.yul\":801:803   */\n      dup1\n        /* \"#utility.yul\":790:799   */\n      dup4\n        /* \"#utility.yul\":783:804   */\n      mstore\n        /* \"#utility.yul\":833:839   */\n      dup4\n        /* \"#utility.yul\":827:840   */\n      mload\n        /* \"#utility.yul\":876:882   */\n      dup1\n        /* \"#utility.yul\":871:873   */\n      0x20\n        /* \"#utility.yul\":860:869   */\n      dup6\n        /* \"#utility.yul\":856:874   */\n      add\n        /* \"#utility.yul\":849:883   */\n      mstore\n        /* \"#utility.yul\":901:902   */\n      0x00\n        /* \"#utility.yul\":911:1051   */\n    tag_55:\n        /* \"#utility.yul\":925:931   */\n      dup2\n        /* \"#utility.yul\":922:923   */\n      dup2\n        /* \"#utility.yul\":919:932   */\n      lt\n        /* \"#utility.yul\":911:1051   */\n      iszero\n      tag_57\n      jumpi\n        /* \"#utility.yul\":1020:1034   */\n      dup6\n      dup2\n      add\n        /* \"#utility.yul\":1016:1039   */\n      dup4\n      add\n        /* \"#utility.yul\":1010:1040   */\n      mload\n        /* \"#utility.yul\":986:1003   */\n      dup6\n      dup3\n      add\n        /* \"#utility.yul\":1005:1007   */\n      0x40\n        /* \"#utility.yul\":982:1008   */\n      add\n        /* \"#utility.yul\":975:1041   */\n      mstore\n        /* \"#utility.yul\":940:950   */\n      dup3\n      add\n        /* \"#utility.yul\":911:1051   */\n      jump(tag_55)\n    tag_57:\n        /* \"#utility.yul\":915:918   */\n      pop\n        /* \"#utility.yul\":1100:1101   */\n      0x00\n        /* \"#utility.yul\":1095:1097   */\n      0x40\n        /* \"#utility.yul\":1086:1092   */\n      dup3\n        /* \"#utility.yul\":1075:1084   */\n      dup7\n        /* \"#utility.yul\":1071:1093   */\n      add\n        /* \"#utility.yul\":1067:1098   */\n      add\n        /* \"#utility.yul\":1060:1102   */\n      mstore\n        /* \"#utility.yul\":1170:1172   */\n      0x40\n        /* \"#utility.yul\":1163:1165   */\n      0x1f\n        /* \"#utility.yul\":1159:1166   */\n      not\n        /* \"#utility.yul\":1154:1156   */\n      0x1f\n        /* \"#utility.yul\":1146:1152   */\n      dup4\n        /* \"#utility.yul\":1142:1157   */\n      add\n        /* \"#utility.yul\":1138:1167   */\n      and\n        /* \"#utility.yul\":1127:1136   */\n      dup6\n        /* \"#utility.yul\":1123:1168   */\n      add\n        /* \"#utility.yul\":1119:1173   */\n      add\n        /* \"#utility.yul\":1111:1173   */\n      swap3\n      pop\n      pop\n      pop\n        /* \"#utility.yul\":631:1179   */\n      swap3\n      swap2\n      pop\n      pop\n      jump\t// out\n        /* \"#utility.yul\":1865:2245   */\n    tag_44:\n        /* \"#utility.yul\":1944:1945   */\n      0x01\n        /* \"#utility.yul\":1940:1952   */\n      dup2\n      dup2\n      shr\n      swap1\n        /* \"#utility.yul\":1987:1999   */\n      dup3\n      and\n      dup1\n        /* \"#utility.yul\":2008:2069   */\n      tag_61\n      jumpi\n        /* \"#utility.yul\":2062:2066   */\n      0x7f\n        /* \"#utility.yul\":2054:2060   */\n      dup3\n        /* \"#utility.yul\":2050:2067   */\n      and\n        /* \"#utility.yul\":2040:2067   */\n      swap2\n      pop\n        /* \"#utility.yul\":2008:2069   */\n    tag_61:\n        /* \"#utility.yul\":2115:2117   */\n      0x20\n        /* \"#utility.yul\":2107:2113   */\n      dup3\n        /* \"#utility.yul\":2104:2118   */\n      lt\n        /* \"#utility.yul\":2084:2102   */\n      dup2\n        /* \"#utility.yul\":2081:2119   */\n      sub\n        /* \"#utility.yul\":2078:2239   */\n      tag_62\n      jumpi\n        /* \"#utility.yul\":2161:2171   */\n      0x4e487b71\n        /* \"#utility.yul\":2156:2159   */\n      0xe0\n        /* \"#utility.yul\":2152:2172   */\n      shl\n        /* \"#utility.yul\":2149:2150   */\n      0x00\n        /* \"#utility.yul\":2142:2173   */\n      mstore\n        /* \"#utility.yul\":2196:2200   */\n      0x22\n        /* \"#utility.yul\":2193:2194   */\n      0x04\n        /* \"#utility.yul\":2186:2201   */\n      mstore\n        /* \"#utility.yul\":2224:2228   */\n      0x24\n        /* \"#utility.yul\":2221:2222   */\n      0x00\n        /* \"#utility.yul\":2214:2229   */\n      revert\n        /* \"#utility.yul\":2078:2239   */\n    tag_62:\n      pop\n        /* \"#utility.yul\":1865:2245   */\n      swap2\n      swap1\n      pop\n      jump\t// out\n\n    auxdata: 0xa264697066735822122072b47678596f61052f4963e8f2f14aa052e8ac75a2b597c27b4ecc5e2ef80f2064736f6c63430008180033\n}\n",
				"bytecode": {
					"linkReferences": {},
					"object": "608060405234801561000f575f80fd5b506040516105cd3803806105cd83398101604081905261002e91610069565b5f61003983826101b5565b5060025550600180546001600160a01b03191633179055610274565b634e487b7160e01b5f52604160045260245ffd5b5f806040838503121561007a575f80fd5b82516001600160401b0380821115610090575f80fd5b818501915085601f8301126100a3575f80fd5b8151818111156100b5576100b5610055565b604051601f8201601f19908116603f011681019083821181831017156100dd576100dd610055565b816040528281526020935088848487010111156100f8575f80fd5b5f91505b8282101561011957848201840151818301850152908301906100fc565b5f928101840192909252509401519395939450505050565b600181811c9082168061014557607f821691505b60208210810361016357634e487b7160e01b5f52602260045260245ffd5b50919050565b601f8211156101b057805f5260205f20601f840160051c8101602085101561018e5750805b601f840160051c820191505b818110156101ad575f815560010161019a565b50505b505050565b81516001600160401b038111156101ce576101ce610055565b6101e2816101dc8454610131565b84610169565b602080601f831160018114610215575f84156101fe5750858301515b5f19600386901b1c1916600185901b17855561026c565b5f85815260208120601f198616915b8281101561024357888601518255948401946001909101908401610224565b508582101561026057878501515f19600388901b60f8161c191681555b505060018460011b0185555b505050505050565b61034c806102815f395ff3fe60806040526004361061004c575f3560e01c806302d05d3f1461006e5780633ccfd60b146100aa57806340193883146100c05780634a79d50c146100e3578063f0ea4bfc14610104575f80fd5b3661006a573460035f828254610062919061026d565b925050819055005b5f80fd5b348015610079575f80fd5b5060015461008d906001600160a01b031681565b6040516001600160a01b0390911681526020015b60405180910390f35b3480156100b5575f80fd5b506100be610119565b005b3480156100cb575f80fd5b506100d560025481565b6040519081526020016100a1565b3480156100ee575f80fd5b506100f76101e2565b6040516100a19190610292565b34801561010f575f80fd5b506100d560035481565b6001546001600160a01b031633146101665760405162461bcd60e51b815260206004820152600b60248201526a2737ba1031b932b0ba37b960a91b60448201526064015b60405180910390fd5b60025460035410156101a95760405162461bcd60e51b815260206004820152600c60248201526b11dbd85b081b9bdd081b595d60a21b604482015260640161015d565b6001546040516001600160a01b03909116904780156108fc02915f818181858888f193505050501580156101df573d5f803e3d5ffd5b50565b5f80546101ee906102de565b80601f016020809104026020016040519081016040528092919081815260200182805461021a906102de565b80156102655780601f1061023c57610100808354040283529160200191610265565b820191905f5260205f20905b81548152906001019060200180831161024857829003601f168201915b505050505081565b8082018082111561028c57634e487b7160e01b5f52601160045260245ffd5b92915050565b5f602080835283518060208501525f5b818110156102be578581018301518582016040015282016102a2565b505f604082860101526040601f19601f8301168501019250505092915050565b600181811c908216806102f257607f821691505b60208210810361031057634e487b7160e01b5f52602260045260245ffd5b5091905056fea264697066735822122072b47678596f61052f4963e8f2f14aa052e8ac75a2b597c27b4ecc5e2ef80f2064736f6c63430008180033",
					"opcodes": "PUSH1 0x80 PUSH1 0x40 MSTORE CALLVALUE DUP1 ISZERO PUSH2 0xF JUMPI PUSH0 DUP1 REVERT JUMPDEST POP PUSH1 0x40 MLOAD PUSH2 0x5CD CODESIZE SUB DUP1 PUSH2 0x5CD DUP4 CODECOPY DUP2 ADD PUSH1 0x40 DUP2 SWAP1 MSTORE PUSH2 0x2E SWAP2 PUSH2 0x69 JUMP JUMPDEST PUSH0 PUSH2 0x39 DUP4 DUP3 PUSH2 0x1B5 JUMP JUMPDEST POP PUSH1 0x2 SSTORE POP PUSH1 0x1 DUP1 SLOAD PUSH1 0x1 PUSH1 0x1 PUSH1 0xA0 SHL SUB NOT AND CALLER OR SWAP1 SSTORE PUSH2 0x274 JUMP JUMPDEST PUSH4 0x4E487B71 PUSH1 0xE0 SHL PUSH0 MSTORE PUSH1 0x41 PUSH1 0x4 MSTORE PUSH1 0x24 PUSH0 REVERT JUMPDEST PUSH0 DUP1 PUSH1 0x40 DUP4 DUP6 SUB SLT ISZERO PUSH2 0x7A JUMPI PUSH0 DUP1 REVERT JUMPDEST DUP3 MLOAD PUSH1 0x1 PUSH1 0x1 PUSH1 0x40 SHL SUB DUP1 DUP3 GT ISZERO PUSH2 0x90 JUMPI PUSH0 DUP1 REVERT JUMPDEST DUP2 DUP6 ADD SWAP2 POP DUP6 PUSH1 0x1F DUP4 ADD SLT PUSH2 0xA3 JUMPI PUSH0 DUP1 REVERT JUMPDEST DUP2 MLOAD DUP2 DUP2 GT ISZERO PUSH2 0xB5 JUMPI PUSH2 0xB5 PUSH2 0x55 JUMP JUMPDEST PUSH1 0x40 MLOAD PUSH1 0x1F DUP3 ADD PUSH1 0x1F NOT SWAP1 DUP2 AND PUSH1 0x3F ADD AND DUP2 ADD SWAP1 DUP4 DUP3 GT DUP2 DUP4 LT OR ISZERO PUSH2 0xDD JUMPI PUSH2 0xDD PUSH2 0x55 JUMP JUMPDEST DUP2 PUSH1 0x40 MSTORE DUP3 DUP2 MSTORE PUSH1 0x20 SWAP4 POP DUP9 DUP5 DUP5 DUP8 ADD ADD GT ISZERO PUSH2 0xF8 JUMPI PUSH0 DUP1 REVERT JUMPDEST PUSH0 SWAP2 POP JUMPDEST DUP3 DUP3 LT ISZERO PUSH2 0x119 JUMPI DUP5 DUP3 ADD DUP5 ADD MLOAD DUP2 DUP4 ADD DUP6 ADD MSTORE SWAP1 DUP4 ADD SWAP1 PUSH2 0xFC JUMP JUMPDEST PUSH0 SWAP3 DUP2 ADD DUP5 ADD SWAP3 SWAP1 SWAP3 MSTORE POP SWAP5 ADD MLOAD SWAP4 SWAP6 SWAP4 SWAP5 POP POP POP POP JUMP JUMPDEST PUSH1 0x1 DUP2 DUP2 SHR SWAP1 DUP3 AND DUP1 PUSH2 0x145 JUMPI PUSH1 0x7F DUP3 AND SWAP2 POP JUMPDEST PUSH1 0x20 DUP3 LT DUP2 SUB PUSH2 0x163 JUMPI PUSH4 0x4E487B71 PUSH1 0xE0 SHL PUSH0 MSTORE PUSH1 0x22 PUSH1 0x4 MSTORE PUSH1 0x24 PUSH0 REVERT JUMPDEST POP SWAP2 SWAP1 POP JUMP JUMPDEST PUSH1 0x1F DUP3 GT ISZERO PUSH2 0x1B0 JUMPI DUP1 PUSH0 MSTORE PUSH1 0x20 PUSH0 KECCAK256 PUSH1 0x1F DUP5 ADD PUSH1 0x5 SHR DUP2 ADD PUSH1 0x20 DUP6 LT ISZERO PUSH2 0x18E JUMPI POP DUP1 JUMPDEST PUSH1 0x1F DUP5 ADD PUSH1 0x5 SHR DUP3 ADD SWAP2 POP JUMPDEST DUP2 DUP2 LT ISZERO PUSH2 0x1AD JUMPI PUSH0 DUP2 SSTORE PUSH1 0x1 ADD PUSH2 0x19A JUMP JUMPDEST POP POP JUMPDEST POP POP POP JUMP JUMPDEST DUP2 MLOAD PUSH1 0x1 PUSH1 0x1 PUSH1 0x40 SHL SUB DUP2 GT ISZERO PUSH2 0x1CE JUMPI PUSH2 0x1CE PUSH2 0x55 JUMP JUMPDEST PUSH2 0x1E2 DUP2 PUSH2 0x1DC DUP5 SLOAD PUSH2 0x131 JUMP JUMPDEST DUP5 PUSH2 0x169 JUMP JUMPDEST PUSH1 0x20 DUP1 PUSH1 0x1F DUP4 GT PUSH1 0x1 DUP2 EQ PUSH2 0x215 JUMPI PUSH0 DUP5 ISZERO PUSH2 0x1FE JUMPI POP DUP6 DUP4 ADD MLOAD JUMPDEST PUSH0 NOT PUSH1 0x3 DUP7 SWAP1 SHL SHR NOT AND PUSH1 0x1 DUP6 SWAP1 SHL OR DUP6 SSTORE PUSH2 0x26C JUMP JUMPDEST PUSH0 DUP6 DUP2 MSTORE PUSH1 0x20 DUP2 KECCAK256 PUSH1 0x1F NOT DUP7 AND SWAP2 JUMPDEST DUP3 DUP2 LT ISZERO PUSH2 0x243 JUMPI DUP9 DUP7 ADD MLOAD DUP3 SSTORE SWAP5 DUP5 ADD SWAP5 PUSH1 0x1 SWAP1 SWAP2 ADD SWAP1 DUP5 ADD PUSH2 0x224 JUMP JUMPDEST POP DUP6 DUP3 LT ISZERO PUSH2 0x260 JUMPI DUP8 DUP6 ADD MLOAD PUSH0 NOT PUSH1 0x3 DUP9 SWAP1 SHL PUSH1 0xF8 AND SHR NOT AND DUP2 SSTORE JUMPDEST POP POP PUSH1 0x1 DUP5 PUSH1 0x1 SHL ADD DUP6 SSTORE JUMPDEST POP POP POP POP POP POP JUMP JUMPDEST PUSH2 0x34C DUP1 PUSH2 0x281 PUSH0 CODECOPY PUSH0 RETURN INVALID PUSH1 0x80 PUSH1 0x40 MSTORE PUSH1 0x4 CALLDATASIZE LT PUSH2 0x4C JUMPI PUSH0 CALLDATALOAD PUSH1 0xE0 SHR DUP1 PUSH4 0x2D05D3F EQ PUSH2 0x6E JUMPI DUP1 PUSH4 0x3CCFD60B EQ PUSH2 0xAA JUMPI DUP1 PUSH4 0x40193883 EQ PUSH2 0xC0 JUMPI DUP1 PUSH4 0x4A79D50C EQ PUSH2 0xE3 JUMPI DUP1 PUSH4 0xF0EA4BFC EQ PUSH2 0x104 JUMPI PUSH0 DUP1 REVERT JUMPDEST CALLDATASIZE PUSH2 0x6A JUMPI CALLVALUE PUSH1 0x3 PUSH0 DUP3 DUP3 SLOAD PUSH2 0x62 SWAP2 SWAP1 PUSH2 0x26D JUMP JUMPDEST SWAP3 POP POP DUP2 SWAP1 SSTORE STOP JUMPDEST PUSH0 DUP1 REVERT JUMPDEST CALLVALUE DUP1 ISZERO PUSH2 0x79 JUMPI PUSH0 DUP1 REVERT JUMPDEST POP PUSH1 0x1 SLOAD PUSH2 0x8D SWAP1 PUSH1 0x1 PUSH1 0x1 PUSH1 0xA0 SHL SUB AND DUP2 JUMP JUMPDEST PUSH1 0x40 MLOAD PUSH1 0x1 PUSH1 0x1 PUSH1 0xA0 SHL SUB SWAP1 SWAP2 AND DUP2 MSTORE PUSH1 0x20 ADD JUMPDEST PUSH1 0x40 MLOAD DUP1 SWAP2 SUB SWAP1 RETURN JUMPDEST CALLVALUE DUP1 ISZERO PUSH2 0xB5 JUMPI PUSH0 DUP1 REVERT JUMPDEST POP PUSH2 0xBE PUSH2 0x119 JUMP JUMPDEST STOP JUMPDEST CALLVALUE DUP1 ISZERO PUSH2 0xCB JUMPI PUSH0 DUP1 REVERT JUMPDEST POP PUSH2 0xD5 PUSH1 0x2 SLOAD DUP2 JUMP JUMPDEST PUSH1 0x40 MLOAD SWAP1 DUP2 MSTORE PUSH1 0x20 ADD PUSH2 0xA1 JUMP JUMPDEST CALLVALUE DUP1 ISZERO PUSH2 0xEE JUMPI PUSH0 DUP1 REVERT JUMPDEST POP PUSH2 0xF7 PUSH2 0x1E2 JUMP JUMPDEST PUSH1 0x40 MLOAD PUSH2 0xA1 SWAP2 SWAP1 PUSH2 0x292 JUMP JUMPDEST CALLVALUE DUP1 ISZERO PUSH2 0x10F JUMPI PUSH0 DUP1 REVERT JUMPDEST POP PUSH2 0xD5 PUSH1 0x3 SLOAD DUP2 JUMP JUMPDEST PUSH1 0x1 SLOAD PUSH1 0x1 PUSH1 0x1 PUSH1 0xA0 SHL SUB AND CALLER EQ PUSH2 0x166 JUMPI PUSH1 0x40 MLOAD PUSH3 0x461BCD PUSH1 0xE5 SHL DUP2 MSTORE PUSH1 0x20 PUSH1 0x4 DUP3 ADD MSTORE PUSH1 0xB PUSH1 0x24 DUP3 ADD MSTORE PUSH11 0x2737BA1031B932B0BA37B9 PUSH1 0xA9 SHL PUSH1 0x44 DUP3 ADD MSTORE PUSH1 0x64 ADD JUMPDEST PUSH1 0x40 MLOAD DUP1 SWAP2 SUB SWAP1 REVERT JUMPDEST PUSH1 0x2 SLOAD PUSH1 0x3 SLOAD LT ISZERO PUSH2 0x1A9 JUMPI PUSH1 0x40 MLOAD PUSH3 0x461BCD PUSH1 0xE5 SHL DUP2 MSTORE PUSH1 0x20 PUSH1 0x4 DUP3 ADD MSTORE PUSH1 0xC PUSH1 0x24 DUP3 ADD MSTORE PUSH12 0x11DBD85B081B9BDD081B595D PUSH1 0xA2 SHL PUSH1 0x44 DUP3 ADD MSTORE PUSH1 0x64 ADD PUSH2 0x15D JUMP JUMPDEST PUSH1 0x1 SLOAD PUSH1 0x40 MLOAD PUSH1 0x1 PUSH1 0x1 PUSH1 0xA0 SHL SUB SWAP1 SWAP2 AND SWAP1 SELFBALANCE DUP1 ISZERO PUSH2 0x8FC MUL SWAP2 PUSH0 DUP2 DUP2 DUP2 DUP6 DUP9 DUP9 CALL SWAP4 POP POP POP POP ISZERO DUP1 ISZERO PUSH2 0x1DF JUMPI RETURNDATASIZE PUSH0 DUP1 RETURNDATACOPY RETURNDATASIZE PUSH0 REVERT JUMPDEST POP JUMP JUMPDEST PUSH0 DUP1 SLOAD PUSH2 0x1EE SWAP1 PUSH2 0x2DE JUMP JUMPDEST DUP1 PUSH1 0x1F ADD PUSH1 0x20 DUP1 SWAP2 DIV MUL PUSH1 0x20 ADD PUSH1 0x40 MLOAD SWAP1 DUP2 ADD PUSH1 0x40 MSTORE DUP1 SWAP3 SWAP2 SWAP1 DUP2 DUP2 MSTORE PUSH1 0x20 ADD DUP3 DUP1 SLOAD PUSH2 0x21A SWAP1 PUSH2 0x2DE JUMP JUMPDEST DUP1 ISZERO PUSH2 0x265 JUMPI DUP1 PUSH1 0x1F LT PUSH2 0x23C JUMPI PUSH2 0x100 DUP1 DUP4 SLOAD DIV MUL DUP4 MSTORE SWAP2 PUSH1 0x20 ADD SWAP2 PUSH2 0x265 JUMP JUMPDEST DUP3 ADD SWAP2 SWAP1 PUSH0 MSTORE PUSH1 0x20 PUSH0 KECCAK256 SWAP1 JUMPDEST DUP2 SLOAD DUP2 MSTORE SWAP1 PUSH1 0x1 ADD SWAP1 PUSH1 0x20 ADD DUP1 DUP4 GT PUSH2 0x248 JUMPI DUP3 SWAP1 SUB PUSH1 0x1F AND DUP3 ADD SWAP2 JUMPDEST POP POP POP POP POP DUP2 JUMP JUMPDEST DUP1 DUP3 ADD DUP1 DUP3 GT ISZERO PUSH2 0x28C JUMPI PUSH4 0x4E487B71 PUSH1 0xE0 SHL PUSH0 MSTORE PUSH1 0x11 PUSH1 0x4 MSTORE PUSH1 0x24 PUSH0 REVERT JUMPDEST SWAP3 SWAP2 POP POP JUMP JUMPDEST PUSH0 PUSH1 0x20 DUP1 DUP4 MSTORE DUP4 MLOAD DUP1 PUSH1 0x20 DUP6 ADD MSTORE PUSH0 JUMPDEST DUP2 DUP2 LT ISZERO PUSH2 0x2BE JUMPI DUP6 DUP2 ADD DUP4 ADD MLOAD DUP6 DUP3 ADD PUSH1 0x40 ADD MSTORE DUP3 ADD PUSH2 0x2A2 JUMP JUMPDEST POP PUSH0 PUSH1 0x40 DUP3 DUP7 ADD ADD MSTORE PUSH1 0x40 PUSH1 0x1F NOT PUSH1 0x1F DUP4 ADD AND DUP6 ADD ADD SWAP3 POP POP POP SWAP3 SWAP2 POP POP JUMP JUMPDEST PUSH1 0x1 DUP2 DUP2 SHR SWAP1 DUP3 AND DUP1 PUSH2 0x2F2 JUMPI PUSH1 0x7F DUP3 AND SWAP2 POP JUMPDEST PUSH1 0x20 DUP3 LT DUP2 SUB PUSH2 0x310 JUMPI PUSH4 0x4E487B71 PUSH1 0xE0 SHL PUSH0 MSTORE PUSH1 0x22 PUSH1 0x4 MSTORE PUSH1 0x24 PUSH0 REVERT JUMPDEST POP SWAP2 SWAP1 POP JUMP INVALID LOG2 PUSH5 0x6970667358 0x22 SLT KECCAK256 PUSH19 0xB47678596F61052F4963E8F2F14AA052E8AC75 LOG2 0xB5 SWAP8 0xC2 PUSH28 0x4ECC5E2EF80F2064736F6C6343000818003300000000000000000000 "
				},
				"gasEstimates": {
					"creation": {
						"codeDepositCost": "168800",
						"executionCost": "infinite",
						"totalCost": "infinite"
					},
					"external": {
						"creator()": "2303",
						"goal()": "2316",
						"raised()": "2360",
						"title()": "infinite",
						"withdraw()": "infinite"
					}
				},
				"methodIdentifiers": {
					"creator()": "02d05d3f",
					"goal()": "40193883",
					"raised()": "f0ea4bfc",
					"title()": "4a79d50c",
					"withdraw()": "3ccfd60b"
				}
			},
			"storageLayout": {
				"storage": [
					{
						"astId": 3,
						"contract": "Crowdfund.sol:Crowdfund",
						"label": "title",
						"offset": 0,
						"slot": "0",
						"type": "t_string_storage"
					},
					{
						"astId": 5,
						"contract": "Crowdfund.sol:Crowdfund",
						"label": "creator",
						"offset": 0,
						"slot": "1",
						"type": "t_address"
					},
					{
						"astId": 7,
						"contract": "Crowdfund.sol:Crowdfund",
						"label": "goal",
						"offset": 0,
						"slot": "2",
						"type": "t_uint256"
					},
					{
						"astId": 9,
						"contract": "Crowdfund.sol:Crowdfund",
						"label": "raised",
						"offset": 0,
						"slot": "3",
						"type": "t_uint256"
					}
				],
				"types": {
					"t_address": {
						"encoding": "inplace",
						"label": "address",
						"numberOfBytes": "20"
					},
					"t_string_storage": {
						"encoding": "bytes",
						"label": "string",
						"numberOfBytes": "32"
					},
					"t_uint256": {
						"encoding": "inplace",
						"label": "uint256",
						"numberOfBytes": "32"
					}
				}
			},
			"userdoc": {
				"kind": "user",
				"methods": {},
				"version": 1
			}
		}
	}
}