{
	"batchnewww.sol": {
		"Subscription": {
			"abi": [
				{
					"inputs": [
						{
							"internalType": "uint256",
							"name": "_price",
							"type": "uint256"
						}
					],
					"stateMutability": "nonpayable",
					"type": "constructor"
				},
				{
					"anonymous": false,
					"inputs": [
						{
							"indexed": true,
							"internalType": "address",
							"name": "owner",
							"type": "address"
						},
						{
							"indexed": false,
							"internalType": "uint256",
							"name": "amount",
							"type": "uint256"
						}
					],
					"name": "FundsWithdrawn",
					"type": "event"
				},
				{
					"anonymous": false,
					"inputs": [
						{
							"indexed": false,
							"internalType": "uint256",
							"name": "oldPrice",
							"type": "uint256"
						},
						{
							"indexed": false,
							"internalType": "uint256",
							"name": "newPrice",
							"type": "uint256"
						}
					],
					"name": "PriceUpdated",
					"type": "event"
				},
				{
					"anonymous": false,
					"inputs": [
						{
							"indexed": true,
							"internalType": "address",
							"name": "user",
							"type": "address"
						},
						{
							"indexed": false,
							"internalType": "uint256",
							"name": "amount",
							"type": "uint256"
						}
					],
					"name": "Subscribed",
					"type": "event"
				},
				{
					"inputs": [],
					"name": "owner",
					"outputs": [
						{
							"internalType": "address",
							"name": "",
							"type": "address"
						}
					],
					"stateMutability": "view",
					"type": "function"
				},
				{
					"inputs": [],
					"name": "price",
					"outputs": [
						{
							"internalType": "uint256",
							"name": "",
							"type": "uint256"
						}
					],
					"stateMutability": "view",
					"type": "function"
				},
				{
					"inputs": [],
					"name": "subscribe",
					"outputs": [],
					"stateMutability": "payable",
					"type": "function"
				},
				{
					"inputs": [
						{
							"internalType": "address",
							"name": "",
							"type": "address"
						}
					],
					"name": "subscribers",
					"outputs": [
						{
							"internalType": "bool",
							"name": "",
							"type": "bool"
						}
					],
					"stateMutability": "view",
					"type": "function"
				},
				{
					"inputs": [],
					"name": "totalSubscribers",
					"outputs": [
						{
							"internalType": "uint256",
							"name": "",
							"type": "uint256"
						}
					],
					"stateMutability": "view",
					"type": "function"
				},
				{
					"inputs": [
						{
							"internalType": "uint256",
							"name": "_newPrice",
							"type": "uint256"
						}
					],
					"name": "updatePrice",
					"outputs": [],
					"stateMutability": "nonpayable",
					"type": "function"
				},
				{
					"inputs": [],
					"name": "withdrawFunds",
					"outputs": [],
					"stateMutability": "nonpayable",
					"type": "function"
				}
			],
			"devdoc": {
				"kind": "dev",
				"methods": {},
				"version": 1
			},
			"evm": {
				"assembly": "    /* \"batchnewww.sol\":61:1410  contract Subscription {... */\n  mstore(0x40, 0x80)\n    /* \"batchnewww.sol\":406:493  constructor(uint _price) {... */\n  callvalue\n  dup1\n  iszero\n  tag_1\n  jumpi\n  0x00\n  dup1\n  revert\ntag_1:\n  pop\n  mload(0x40)\n  sub(codesize, bytecodeSize)\n  dup1\n  bytecodeSize\n  dup4\n  codecopy\n  dup2\n  add\n  0x40\n  dup2\n  swap1\n  mstore\n  tag_2\n  swap2\n  tag_3\n  jump\t// in\ntag_2:\n    /* \"batchnewww.sol\":442:447  price */\n  0x00\n    /* \"batchnewww.sol\":442:456  price = _price */\n  sstore\n    /* \"batchnewww.sol\":467:472  owner */\n  0x01\n    /* \"batchnewww.sol\":467:485  owner = msg.sender */\n  dup1\n  sload\n  not(sub(shl(0xa0, 0x01), 0x01))\n  and\n    /* \"batchnewww.sol\":475:485  msg.sender */\n  caller\n    /* \"batchnewww.sol\":467:485  owner = msg.sender */\n  or\n  swap1\n  sstore\n    /* \"batchnewww.sol\":61:1410  contract Subscription {... */\n  jump(tag_7)\n    /* \"#utility.yul\":14:198   */\ntag_3:\n    /* \"#utility.yul\":84:90   */\n  0x00\n    /* \"#utility.yul\":137:139   */\n  0x20\n    /* \"#utility.yul\":125:134   */\n  dup3\n    /* \"#utility.yul\":116:123   */\n  dup5\n    /* \"#utility.yul\":112:135   */\n  sub\n    /* \"#utility.yul\":108:140   */\n  slt\n    /* \"#utility.yul\":105:157   */\n  iszero\n  tag_9\n  jumpi\n    /* \"#utility.yul\":153:154   */\n  0x00\n    /* \"#utility.yul\":150:151   */\n  dup1\n    /* \"#utility.yul\":143:155   */\n  revert\n    /* \"#utility.yul\":105:157   */\ntag_9:\n  pop\n    /* \"#utility.yul\":176:192   */\n  mload\n  swap2\n    /* \"#utility.yul\":14:198   */\n  swap1\n  pop\n  jump\t// out\ntag_7:\n    /* \"batchnewww.sol\":61:1410  contract Subscription {... */\n  dataSize(sub_0)\n  dup1\n  dataOffset(sub_0)\n  0x00\n  codecopy\n  0x00\n  return\nstop\n\nsub_0: assembly {\n        /* \"batchnewww.sol\":61:1410  contract Subscription {... */\n      mstore(0x40, 0x80)\n      jumpi(tag_1, lt(calldatasize, 0x04))\n      shr(0xe0, calldataload(0x00))\n      dup1\n      0x8d6cc56d\n      gt\n      tag_9\n      jumpi\n      dup1\n      0x8d6cc56d\n      eq\n      tag_5\n      jumpi\n      dup1\n      0x8da5cb5b\n      eq\n      tag_6\n      jumpi\n      dup1\n      0x8f449a05\n      eq\n      tag_7\n      jumpi\n      dup1\n      0xa035b1fe\n      eq\n      tag_8\n      jumpi\n      0x00\n      dup1\n      revert\n    tag_9:\n      dup1\n      0x15e2475f\n      eq\n      tag_2\n      jumpi\n      dup1\n      0x24600fc3\n      eq\n      tag_3\n      jumpi\n      dup1\n      0x5745ae28\n      eq\n      tag_4\n      jumpi\n    tag_1:\n      0x00\n      dup1\n      revert\n        /* \"batchnewww.sol\":191:219  uint public totalSubscribers */\n    tag_2:\n      callvalue\n      dup1\n      iszero\n      tag_10\n      jumpi\n      0x00\n      dup1\n      revert\n    tag_10:\n      pop\n      tag_11\n      sload(0x03)\n      dup2\n      jump\n    tag_11:\n      mload(0x40)\n        /* \"#utility.yul\":160:185   */\n      swap1\n      dup2\n      mstore\n        /* \"#utility.yul\":148:150   */\n      0x20\n        /* \"#utility.yul\":133:151   */\n      add\n        /* \"batchnewww.sol\":191:219  uint public totalSubscribers */\n    tag_13:\n      mload(0x40)\n      dup1\n      swap2\n      sub\n      swap1\n      return\n        /* \"batchnewww.sol\":1182:1407  function withdrawFunds() public onlyOwner {... */\n    tag_3:\n      callvalue\n      dup1\n      iszero\n      tag_15\n      jumpi\n      0x00\n      dup1\n      revert\n    tag_15:\n      pop\n      tag_16\n      tag_17\n      jump\t// in\n    tag_16:\n      stop\n        /* \"batchnewww.sol\":141:184  mapping(address => bool) public subscribers */\n    tag_4:\n      callvalue\n      dup1\n      iszero\n      tag_18\n      jumpi\n      0x00\n      dup1\n      revert\n    tag_18:\n      pop\n      tag_19\n      tag_20\n      calldatasize\n      0x04\n      tag_21\n      jump\t// in\n    tag_20:\n      mstore(0x20, 0x02)\n      0x00\n      swap1\n      dup2\n      mstore\n      0x40\n      swap1\n      keccak256\n      sload\n      0xff\n      and\n      dup2\n      jump\n    tag_19:\n      mload(0x40)\n        /* \"#utility.yul\":652:666   */\n      swap1\n      iszero\n        /* \"#utility.yul\":645:667   */\n      iszero\n        /* \"#utility.yul\":627:668   */\n      dup2\n      mstore\n        /* \"#utility.yul\":615:617   */\n      0x20\n        /* \"#utility.yul\":600:618   */\n      add\n        /* \"batchnewww.sol\":141:184  mapping(address => bool) public subscribers */\n      tag_13\n        /* \"#utility.yul\":487:674   */\n      jump\n        /* \"batchnewww.sol\":637:798  function updatePrice(uint _newPrice) public onlyOwner {... */\n    tag_5:\n      callvalue\n      dup1\n      iszero\n      tag_25\n      jumpi\n      0x00\n      dup1\n      revert\n    tag_25:\n      pop\n      tag_16\n      tag_27\n      calldatasize\n      0x04\n      tag_28\n      jump\t// in\n    tag_27:\n      tag_29\n      jump\t// in\n        /* \"batchnewww.sol\":114:134  address public owner */\n    tag_6:\n      callvalue\n      dup1\n      iszero\n      tag_30\n      jumpi\n      0x00\n      dup1\n      revert\n    tag_30:\n      pop\n      sload(0x01)\n      tag_31\n      swap1\n      sub(shl(0xa0, 0x01), 0x01)\n      and\n      dup2\n      jump\n    tag_31:\n      mload(0x40)\n      sub(shl(0xa0, 0x01), 0x01)\n        /* \"#utility.yul\":1028:1060   */\n      swap1\n      swap2\n      and\n        /* \"#utility.yul\":1010:1061   */\n      dup2\n      mstore\n        /* \"#utility.yul\":998:1000   */\n      0x20\n        /* \"#utility.yul\":983:1001   */\n      add\n        /* \"batchnewww.sol\":114:134  address public owner */\n      tag_13\n        /* \"#utility.yul\":864:1067   */\n      jump\n        /* \"batchnewww.sol\":844:1141  function subscribe() public payable {... */\n    tag_7:\n      tag_16\n      tag_36\n      jump\t// in\n        /* \"batchnewww.sol\":90:107  uint public price */\n    tag_8:\n      callvalue\n      dup1\n      iszero\n      tag_37\n      jumpi\n      0x00\n      dup1\n      revert\n    tag_37:\n      pop\n      tag_11\n      sload(0x00)\n      dup2\n      jump\n        /* \"batchnewww.sol\":1182:1407  function withdrawFunds() public onlyOwner {... */\n    tag_17:\n        /* \"batchnewww.sol\":555:560  owner */\n      and(sub(shl(0xa0, 0x01), 0x01), sload(0x01))\n        /* \"batchnewww.sol\":541:551  msg.sender */\n      caller\n        /* \"batchnewww.sol\":541:560  msg.sender == owner */\n      eq\n        /* \"batchnewww.sol\":533:575  require(msg.sender == owner, \"Only owner\") */\n      tag_42\n      jumpi\n      mload(0x40)\n      shl(0xe5, 0x461bcd)\n      dup2\n      mstore\n        /* \"#utility.yul\":1274:1276   */\n      0x20\n        /* \"batchnewww.sol\":533:575  require(msg.sender == owner, \"Only owner\") */\n      0x04\n      dup3\n      add\n        /* \"#utility.yul\":1256:1277   */\n      mstore\n        /* \"#utility.yul\":1313:1315   */\n      0x0a\n        /* \"#utility.yul\":1293:1311   */\n      0x24\n      dup3\n      add\n        /* \"#utility.yul\":1286:1316   */\n      mstore\n      shl(0xb1, 0x27b7363c9037bbb732b9)\n        /* \"#utility.yul\":1332:1350   */\n      0x44\n      dup3\n      add\n        /* \"#utility.yul\":1325:1365   */\n      mstore\n        /* \"#utility.yul\":1382:1400   */\n      0x64\n      add\n        /* \"batchnewww.sol\":533:575  require(msg.sender == owner, \"Only owner\") */\n    tag_43:\n      mload(0x40)\n      dup1\n      swap2\n      sub\n      swap1\n      revert\n    tag_42:\n        /* \"batchnewww.sol\":1249:1270  address(this).balance */\n      selfbalance\n        /* \"batchnewww.sol\":1289:1299  amount > 0 */\n      dup1\n        /* \"batchnewww.sol\":1281:1312  require(amount > 0, \"No funds\") */\n      tag_46\n      jumpi\n      mload(0x40)\n      shl(0xe5, 0x461bcd)\n      dup2\n      mstore\n        /* \"#utility.yul\":1613:1615   */\n      0x20\n        /* \"batchnewww.sol\":1281:1312  require(amount > 0, \"No funds\") */\n      0x04\n      dup3\n      add\n        /* \"#utility.yul\":1595:1616   */\n      mstore\n        /* \"#utility.yul\":1652:1653   */\n      0x08\n        /* \"#utility.yul\":1632:1650   */\n      0x24\n      dup3\n      add\n        /* \"#utility.yul\":1625:1654   */\n      mstore\n      shl(0xc0, 0x4e6f2066756e6473)\n        /* \"#utility.yul\":1670:1688   */\n      0x44\n      dup3\n      add\n        /* \"#utility.yul\":1663:1701   */\n      mstore\n        /* \"#utility.yul\":1718:1736   */\n      0x64\n      add\n        /* \"batchnewww.sol\":1281:1312  require(amount > 0, \"No funds\") */\n      tag_43\n        /* \"#utility.yul\":1411:1742   */\n      jump\n        /* \"batchnewww.sol\":1281:1312  require(amount > 0, \"No funds\") */\n    tag_46:\n        /* \"batchnewww.sol\":1331:1336  owner */\n      sload(0x01)\n        /* \"batchnewww.sol\":1323:1354  payable(owner).transfer(amount) */\n      mload(0x40)\n      sub(shl(0xa0, 0x01), 0x01)\n        /* \"batchnewww.sol\":1331:1336  owner */\n      swap1\n      swap2\n      and\n      swap1\n        /* \"batchnewww.sol\":1323:1354  payable(owner).transfer(amount) */\n      dup3\n      iszero\n      0x08fc\n      mul\n      swap1\n        /* \"batchnewww.sol\":1347:1353  amount */\n      dup4\n      swap1\n        /* \"batchnewww.sol\":1331:1336  owner */\n      0x00\n        /* \"batchnewww.sol\":1323:1354  payable(owner).transfer(amount) */\n      dup2\n        /* \"batchnewww.sol\":1331:1336  owner */\n      dup2\n        /* \"batchnewww.sol\":1323:1354  payable(owner).transfer(amount) */\n      dup2\n        /* \"batchnewww.sol\":1347:1353  amount */\n      dup6\n        /* \"batchnewww.sol\":1331:1336  owner */\n      dup9\n        /* \"batchnewww.sol\":1323:1354  payable(owner).transfer(amount) */\n      dup9\n      call\n      swap4\n      pop\n      pop\n      pop\n      pop\n      iszero\n      dup1\n      iszero\n      tag_50\n      jumpi\n      returndatasize\n      0x00\n      dup1\n      returndatacopy\n      revert(0x00, returndatasize)\n    tag_50:\n      pop\n        /* \"batchnewww.sol\":1385:1390  owner */\n      sload(0x01)\n        /* \"batchnewww.sol\":1370:1399  FundsWithdrawn(owner, amount) */\n      mload(0x40)\n        /* \"#utility.yul\":160:185   */\n      dup3\n      dup2\n      mstore\n      sub(shl(0xa0, 0x01), 0x01)\n        /* \"batchnewww.sol\":1385:1390  owner */\n      swap1\n      swap2\n      and\n      swap1\n        /* \"batchnewww.sol\":1370:1399  FundsWithdrawn(owner, amount) */\n      0xeaff4b37086828766ad3268786972c0cd24259d4c87a80f9d3963a3c3d999b0d\n      swap1\n        /* \"#utility.yul\":148:150   */\n      0x20\n        /* \"#utility.yul\":133:151   */\n      add\n        /* \"batchnewww.sol\":1370:1399  FundsWithdrawn(owner, amount) */\n      mload(0x40)\n      dup1\n      swap2\n      sub\n      swap1\n      log2\n        /* \"batchnewww.sol\":1224:1407  {... */\n      pop\n        /* \"batchnewww.sol\":1182:1407  function withdrawFunds() public onlyOwner {... */\n      jump\t// out\n        /* \"batchnewww.sol\":637:798  function updatePrice(uint _newPrice) public onlyOwner {... */\n    tag_29:\n        /* \"batchnewww.sol\":555:560  owner */\n      and(sub(shl(0xa0, 0x01), 0x01), sload(0x01))\n        /* \"batchnewww.sol\":541:551  msg.sender */\n      caller\n        /* \"batchnewww.sol\":541:560  msg.sender == owner */\n      eq\n        /* \"batchnewww.sol\":533:575  require(msg.sender == owner, \"Only owner\") */\n      tag_53\n      jumpi\n      mload(0x40)\n      shl(0xe5, 0x461bcd)\n      dup2\n      mstore\n        /* \"#utility.yul\":1274:1276   */\n      0x20\n        /* \"batchnewww.sol\":533:575  require(msg.sender == owner, \"Only owner\") */\n      0x04\n      dup3\n      add\n        /* \"#utility.yul\":1256:1277   */\n      mstore\n        /* \"#utility.yul\":1313:1315   */\n      0x0a\n        /* \"#utility.yul\":1293:1311   */\n      0x24\n      dup3\n      add\n        /* \"#utility.yul\":1286:1316   */\n      mstore\n      shl(0xb1, 0x27b7363c9037bbb732b9)\n        /* \"#utility.yul\":1332:1350   */\n      0x44\n      dup3\n      add\n        /* \"#utility.yul\":1325:1365   */\n      mstore\n        /* \"#utility.yul\":1382:1400   */\n      0x64\n      add\n        /* \"batchnewww.sol\":533:575  require(msg.sender == owner, \"Only owner\") */\n      tag_43\n        /* \"#utility.yul\":1072:1406   */\n      jump\n        /* \"batchnewww.sol\":533:575  require(msg.sender == owner, \"Only owner\") */\n    tag_53:\n        /* \"batchnewww.sol\":702:710  uint old */\n      0x00\n        /* \"batchnewww.sol\":713:718  price */\n      dup1\n      sload\n        /* \"batchnewww.sol\":729:746  price = _newPrice */\n      swap1\n      dup3\n      swap1\n      sstore\n        /* \"batchnewww.sol\":762:790  PriceUpdated(old, _newPrice) */\n      0x40\n      dup1\n      mload\n        /* \"#utility.yul\":1921:1946   */\n      dup3\n      dup2\n      mstore\n        /* \"#utility.yul\":1977:1979   */\n      0x20\n        /* \"#utility.yul\":1962:1980   */\n      dup2\n      add\n        /* \"#utility.yul\":1955:1989   */\n      dup5\n      swap1\n      mstore\n        /* \"batchnewww.sol\":762:790  PriceUpdated(old, _newPrice) */\n      0x945c1c4e99aa89f648fbfe3df471b916f719e16d960fcec0737d4d56bd696838\n      swap2\n        /* \"#utility.yul\":1894:1912   */\n      add\n        /* \"batchnewww.sol\":762:790  PriceUpdated(old, _newPrice) */\n      mload(0x40)\n      dup1\n      swap2\n      sub\n      swap1\n      log1\n        /* \"batchnewww.sol\":691:798  {... */\n      pop\n        /* \"batchnewww.sol\":637:798  function updatePrice(uint _newPrice) public onlyOwner {... */\n      pop\n      jump\t// out\n        /* \"batchnewww.sol\":844:1141  function subscribe() public payable {... */\n    tag_36:\n        /* \"batchnewww.sol\":912:917  price */\n      sload(0x00)\n        /* \"batchnewww.sol\":899:908  msg.value */\n      callvalue\n        /* \"batchnewww.sol\":899:917  msg.value == price */\n      eq\n        /* \"batchnewww.sol\":891:946  require(msg.value == price, \"Incorrect payment amount\") */\n      tag_59\n      jumpi\n      mload(0x40)\n      shl(0xe5, 0x461bcd)\n      dup2\n      mstore\n        /* \"#utility.yul\":2202:2204   */\n      0x20\n        /* \"batchnewww.sol\":891:946  require(msg.value == price, \"Incorrect payment amount\") */\n      0x04\n      dup3\n      add\n        /* \"#utility.yul\":2184:2205   */\n      mstore\n        /* \"#utility.yul\":2241:2243   */\n      0x18\n        /* \"#utility.yul\":2221:2239   */\n      0x24\n      dup3\n      add\n        /* \"#utility.yul\":2214:2244   */\n      mstore\n        /* \"#utility.yul\":2280:2306   */\n      0x496e636f7272656374207061796d656e7420616d6f756e740000000000000000\n        /* \"#utility.yul\":2260:2278   */\n      0x44\n      dup3\n      add\n        /* \"#utility.yul\":2253:2307   */\n      mstore\n        /* \"#utility.yul\":2324:2342   */\n      0x64\n      add\n        /* \"batchnewww.sol\":891:946  require(msg.value == price, \"Incorrect payment amount\") */\n      tag_43\n        /* \"#utility.yul\":2000:2348   */\n      jump\n        /* \"batchnewww.sol\":891:946  require(msg.value == price, \"Incorrect payment amount\") */\n    tag_59:\n        /* \"batchnewww.sol\":978:988  msg.sender */\n      caller\n        /* \"batchnewww.sol\":966:989  subscribers[msg.sender] */\n      0x00\n      swap1\n      dup2\n      mstore\n        /* \"batchnewww.sol\":966:977  subscribers */\n      0x02\n        /* \"batchnewww.sol\":966:989  subscribers[msg.sender] */\n      0x20\n      mstore\n      0x40\n      swap1\n      keccak256\n      sload\n      0xff\n      and\n        /* \"batchnewww.sol\":965:989  !subscribers[msg.sender] */\n      iszero\n        /* \"batchnewww.sol\":957:1012  require(!subscribers[msg.sender], \"Already subscribed\") */\n      tag_62\n      jumpi\n      mload(0x40)\n      shl(0xe5, 0x461bcd)\n      dup2\n      mstore\n        /* \"#utility.yul\":2555:2557   */\n      0x20\n        /* \"batchnewww.sol\":957:1012  require(!subscribers[msg.sender], \"Already subscribed\") */\n      0x04\n      dup3\n      add\n        /* \"#utility.yul\":2537:2558   */\n      mstore\n        /* \"#utility.yul\":2594:2596   */\n      0x12\n        /* \"#utility.yul\":2574:2592   */\n      0x24\n      dup3\n      add\n        /* \"#utility.yul\":2567:2597   */\n      mstore\n      shl(0x72, 0x105b1c9958591e481cdd589cd8dc9a589959)\n        /* \"#utility.yul\":2613:2631   */\n      0x44\n      dup3\n      add\n        /* \"#utility.yul\":2606:2654   */\n      mstore\n        /* \"#utility.yul\":2671:2689   */\n      0x64\n      add\n        /* \"batchnewww.sol\":957:1012  require(!subscribers[msg.sender], \"Already subscribed\") */\n      tag_43\n        /* \"#utility.yul\":2353:2695   */\n      jump\n        /* \"batchnewww.sol\":957:1012  require(!subscribers[msg.sender], \"Already subscribed\") */\n    tag_62:\n        /* \"batchnewww.sol\":1037:1047  msg.sender */\n      caller\n        /* \"batchnewww.sol\":1025:1048  subscribers[msg.sender] */\n      0x00\n      swap1\n      dup2\n      mstore\n        /* \"batchnewww.sol\":1025:1036  subscribers */\n      0x02\n        /* \"batchnewww.sol\":1025:1048  subscribers[msg.sender] */\n      0x20\n      mstore\n      0x40\n      dup2\n      keccak256\n        /* \"batchnewww.sol\":1025:1055  subscribers[msg.sender] = true */\n      dup1\n      sload\n      not(0xff)\n      and\n        /* \"batchnewww.sol\":1051:1055  true */\n      0x01\n        /* \"batchnewww.sol\":1025:1055  subscribers[msg.sender] = true */\n      or\n      swap1\n      sstore\n        /* \"batchnewww.sol\":1066:1082  totalSubscribers */\n      0x03\n        /* \"batchnewww.sol\":1066:1084  totalSubscribers++ */\n      dup1\n      sload\n      swap2\n      tag_65\n      dup4\n      tag_66\n      jump\t// in\n    tag_65:\n      swap1\n      swap2\n      sstore\n      pop\n      pop\n        /* \"batchnewww.sol\":1100:1133  Subscribed(msg.sender, msg.value) */\n      mload(0x40)\n        /* \"batchnewww.sol\":1123:1132  msg.value */\n      callvalue\n        /* \"#utility.yul\":160:185   */\n      dup2\n      mstore\n        /* \"batchnewww.sol\":1111:1121  msg.sender */\n      caller\n      swap1\n        /* \"batchnewww.sol\":1100:1133  Subscribed(msg.sender, msg.value) */\n      0x4b90d6788928d63c1821907a6a8b95f40d26562d8fe41b105f7489db9966dfcb\n      swap1\n        /* \"#utility.yul\":148:150   */\n      0x20\n        /* \"#utility.yul\":133:151   */\n      add\n        /* \"batchnewww.sol\":1100:1133  Subscribed(msg.sender, msg.value) */\n      mload(0x40)\n      dup1\n      swap2\n      sub\n      swap1\n      log2\n        /* \"batchnewww.sol\":844:1141  function subscribe() public payable {... */\n      jump\t// out\n        /* \"#utility.yul\":196:482   */\n    tag_21:\n        /* \"#utility.yul\":255:261   */\n      0x00\n        /* \"#utility.yul\":308:310   */\n      0x20\n        /* \"#utility.yul\":296:305   */\n      dup3\n        /* \"#utility.yul\":287:294   */\n      dup5\n        /* \"#utility.yul\":283:306   */\n      sub\n        /* \"#utility.yul\":279:311   */\n      slt\n        /* \"#utility.yul\":276:328   */\n      iszero\n      tag_71\n      jumpi\n        /* \"#utility.yul\":324:325   */\n      0x00\n        /* \"#utility.yul\":321:322   */\n      dup1\n        /* \"#utility.yul\":314:326   */\n      revert\n        /* \"#utility.yul\":276:328   */\n    tag_71:\n        /* \"#utility.yul\":350:373   */\n      dup2\n      calldataload\n      sub(shl(0xa0, 0x01), 0x01)\n        /* \"#utility.yul\":402:433   */\n      dup2\n      and\n        /* \"#utility.yul\":392:434   */\n      dup2\n      eq\n        /* \"#utility.yul\":382:452   */\n      tag_72\n      jumpi\n        /* \"#utility.yul\":448:449   */\n      0x00\n        /* \"#utility.yul\":445:446   */\n      dup1\n        /* \"#utility.yul\":438:450   */\n      revert\n        /* \"#utility.yul\":382:452   */\n    tag_72:\n        /* \"#utility.yul\":471:476   */\n      swap4\n        /* \"#utility.yul\":196:482   */\n      swap3\n      pop\n      pop\n      pop\n      jump\t// out\n        /* \"#utility.yul\":679:859   */\n    tag_28:\n        /* \"#utility.yul\":738:744   */\n      0x00\n        /* \"#utility.yul\":791:793   */\n      0x20\n        /* \"#utility.yul\":779:788   */\n      dup3\n        /* \"#utility.yul\":770:777   */\n      dup5\n        /* \"#utility.yul\":766:789   */\n      sub\n        /* \"#utility.yul\":762:794   */\n      slt\n        /* \"#utility.yul\":759:811   */\n      iszero\n      tag_75\n      jumpi\n        /* \"#utility.yul\":807:808   */\n      0x00\n        /* \"#utility.yul\":804:805   */\n      dup1\n        /* \"#utility.yul\":797:809   */\n      revert\n        /* \"#utility.yul\":759:811   */\n    tag_75:\n      pop\n        /* \"#utility.yul\":830:853   */\n      calldataload\n      swap2\n        /* \"#utility.yul\":679:859   */\n      swap1\n      pop\n      jump\t// out\n        /* \"#utility.yul\":2700:2932   */\n    tag_66:\n        /* \"#utility.yul\":2739:2742   */\n      0x00\n        /* \"#utility.yul\":2760:2777   */\n      0x01\n      dup3\n      add\n        /* \"#utility.yul\":2757:2897   */\n      tag_83\n      jumpi\n        /* \"#utility.yul\":2819:2829   */\n      0x4e487b71\n        /* \"#utility.yul\":2814:2817   */\n      0xe0\n        /* \"#utility.yul\":2810:2830   */\n      shl\n        /* \"#utility.yul\":2807:2808   */\n      0x00\n        /* \"#utility.yul\":2800:2831   */\n      mstore\n        /* \"#utility.yul\":2854:2858   */\n      0x11\n        /* \"#utility.yul\":2851:2852   */\n      0x04\n        /* \"#utility.yul\":2844:2859   */\n      mstore\n        /* \"#utility.yul\":2882:2886   */\n      0x24\n        /* \"#utility.yul\":2879:2880   */\n      0x00\n        /* \"#utility.yul\":2872:2887   */\n      revert\n        /* \"#utility.yul\":2757:2897   */\n    tag_83:\n      pop\n        /* \"#utility.yul\":2924:2925   */\n      0x01\n        /* \"#utility.yul\":2913:2926   */\n      add\n      swap1\n        /* \"#utility.yul\":2700:2932   */\n      jump\t// out\n\n    auxdata: 0xa2646970667358221220b9a796418f57dcf9403cff3eb78bc304f146860317e71b3cb3fe159bba9d837864736f6c634300081a0033\n}\n",
				"bytecode": {
					"linkReferences": {},
					"object": "6080604052348015600e575f80fd5b506040516104f83803806104f8833981016040819052602b916043565b5f55600180546001600160a01b031916331790556059565b5f602082840312156052575f80fd5b5051919050565b610492806100665f395ff3fe60806040526004361061006e575f3560e01c80638d6cc56d1161004c5780638d6cc56d146100ee5780638da5cb5b1461010d5780638f449a0514610144578063a035b1fe1461014c575f80fd5b806315e2475f1461007257806324600fc31461009a5780635745ae28146100b0575b5f80fd5b34801561007d575f80fd5b5061008760035481565b6040519081526020015b60405180910390f35b3480156100a5575f80fd5b506100ae610160565b005b3480156100bb575f80fd5b506100de6100ca3660046103f4565b60026020525f908152604090205460ff1681565b6040519015158152602001610091565b3480156100f9575f80fd5b506100ae610108366004610421565b610262565b348015610118575f80fd5b5060015461012c906001600160a01b031681565b6040516001600160a01b039091168152602001610091565b6100ae6102ed565b348015610157575f80fd5b506100875f5481565b6001546001600160a01b031633146101ac5760405162461bcd60e51b815260206004820152600a60248201526927b7363c9037bbb732b960b11b60448201526064015b60405180910390fd5b47806101e55760405162461bcd60e51b81526020600482015260086024820152674e6f2066756e647360c01b60448201526064016101a3565b6001546040516001600160a01b039091169082156108fc029083905f818181858888f1935050505015801561021c573d5f803e3d5ffd5b506001546040518281526001600160a01b03909116907feaff4b37086828766ad3268786972c0cd24259d4c87a80f9d3963a3c3d999b0d9060200160405180910390a250565b6001546001600160a01b031633146102a95760405162461bcd60e51b815260206004820152600a60248201526927b7363c9037bbb732b960b11b60448201526064016101a3565b5f80549082905560408051828152602081018490527f945c1c4e99aa89f648fbfe3df471b916f719e16d960fcec0737d4d56bd696838910160405180910390a15050565b5f54341461033d5760405162461bcd60e51b815260206004820152601860248201527f496e636f7272656374207061796d656e7420616d6f756e74000000000000000060448201526064016101a3565b335f9081526002602052604090205460ff16156103915760405162461bcd60e51b8152602060048201526012602482015271105b1c9958591e481cdd589cd8dc9a58995960721b60448201526064016101a3565b335f908152600260205260408120805460ff1916600117905560038054916103b883610438565b909155505060405134815233907f4b90d6788928d63c1821907a6a8b95f40d26562d8fe41b105f7489db9966dfcb9060200160405180910390a2565b5f60208284031215610404575f80fd5b81356001600160a01b038116811461041a575f80fd5b9392505050565b5f60208284031215610431575f80fd5b5035919050565b5f6001820161045557634e487b7160e01b5f52601160045260245ffd5b506001019056fea2646970667358221220b9a796418f57dcf9403cff3eb78bc304f146860317e71b3cb3fe159bba9d837864736f6c634300081a0033",
					"opcodes": "PUSH1 0x80 PUSH1 0x40 MSTORE CALLVALUE DUP1 ISZERO PUSH1 0xE JUMPI PUSH0 DUP1 REVERT JUMPDEST POP PUSH1 0x40 MLOAD PUSH2 0x4F8 CODESIZE SUB DUP1 PUSH2 0x4F8 DUP4 CODECOPY DUP2 ADD PUSH1 0x40 DUP2 SWAP1 MSTORE PUSH1 0x2B SWAP2 PUSH1 0x43 JUMP JUMPDEST PUSH0 SSTORE PUSH1 0x1 DUP1 SLOAD PUSH1 0x1 PUSH1 0x1 PUSH1 0xA0 SHL SUB NOT AND CALLER OR SWAP1 SSTORE PUSH1 0x59 JUMP JUMPDEST PUSH0 PUSH1 0x20 DUP3 DUP5 SUB SLT ISZERO PUSH1 0x52 JUMPI PUSH0 DUP1 REVERT JUMPDEST POP MLOAD SWAP2 SWAP1 POP JUMP JUMPDEST PUSH2 0x492 DUP1 PUSH2 0x66 PUSH0 CODECOPY PUSH0 RETURN INVALID PUSH1 0x80 PUSH1 0x40 MSTORE PUSH1 0x4 CALLDATASIZE LT PUSH2 0x6E JUMPI PUSH0 CALLDATALOAD PUSH1 0xE0 SHR DUP1 PUSH4 0x8D6CC56D GT PUSH2 0x4C JUMPI DUP1 PUSH4 0x8D6CC56D EQ PUSH2 0xEE JUMPI DUP1 PUSH4 0x8DA5CB5B EQ PUSH2 0x10D JUMPI DUP1 PUSH4 0x8F449A05 EQ PUSH2 0x144 JUMPI DUP1 PUSH4 0xA035B1FE EQ PUSH2 0x14C JUMPI PUSH0 DUP1 REVERT JUMPDEST DUP1 PUSH4 0x15E2475F EQ PUSH2 0x72 JUMPI DUP1 PUSH4 0x24600FC3 EQ PUSH2 0x9A JUMPI DUP1 PUSH4 0x5745AE28 EQ PUSH2 0xB0 JUMPI JUMPDEST PUSH0 DUP1 REVERT JUMPDEST CALLVALUE DUP1 ISZERO PUSH2 0x7D JUMPI PUSH0 DUP1 REVERT JUMPDEST POP PUSH2 0x87 PUSH1 0x3 SLOAD DUP2 JUMP JUMPDEST PUSH1 0x40 MLOAD SWAP1 DUP2 MSTORE PUSH1 0x20 ADD JUMPDEST PUSH1 0x40 MLOAD DUP1 SWAP2 SUB SWAP1 RETURN JUMPDEST CALLVALUE DUP1 ISZERO PUSH2 0xA5 JUMPI PUSH0 DUP1 REVERT JUMPDEST POP PUSH2 0xAE PUSH2 0x160 JUMP JUMPDEST STOP JUMPDEST CALLVALUE DUP1 ISZERO PUSH2 0xBB JUMPI PUSH0 DUP1 REVERT JUMPDEST POP PUSH2 0xDE PUSH2 0xCA CALLDATASIZE PUSH1 0x4 PUSH2 0x3F4 JUMP JUMPDEST PUSH1 0x2 PUSH1 0x20 MSTORE PUSH0 SWAP1 DUP2 MSTORE PUSH1 0x40 SWAP1 KECCAK256 SLOAD PUSH1 0xFF AND DUP2 JUMP JUMPDEST PUSH1 0x40 MLOAD SWAP1 ISZERO ISZERO DUP2 MSTORE PUSH1 0x20 ADD PUSH2 0x91 JUMP JUMPDEST CALLVALUE DUP1 ISZERO PUSH2 0xF9 JUMPI PUSH0 DUP1 REVERT JUMPDEST POP PUSH2 0xAE PUSH2 0x108 CALLDATASIZE PUSH1 0x4 PUSH2 0x421 JUMP JUMPDEST PUSH2 0x262 JUMP JUMPDEST CALLVALUE DUP1 ISZERO PUSH2 0x118 JUMPI PUSH0 DUP1 REVERT JUMPDEST POP PUSH1 0x1 SLOAD PUSH2 0x12C SWAP1 PUSH1 0x1 PUSH1 0x1 PUSH1 0xA0 SHL SUB AND DUP2 JUMP JUMPDEST PUSH1 0x40 MLOAD PUSH1 0x1 PUSH1 0x1 PUSH1 0xA0 SHL SUB SWAP1 SWAP2 AND DUP2 MSTORE PUSH1 0x20 ADD PUSH2 0x91 JUMP JUMPDEST PUSH2 0xAE PUSH2 0x2ED JUMP JUMPDEST CALLVALUE DUP1 ISZERO PUSH2 0x157 JUMPI PUSH0 DUP1 REVERT JUMPDEST POP PUSH2 0x87 PUSH0 SLOAD DUP2 JUMP JUMPDEST PUSH1 0x1 SLOAD PUSH1 0x1 PUSH1 0x1 PUSH1 0xA0 SHL SUB AND CALLER EQ PUSH2 0x1AC JUMPI PUSH1 0x40 MLOAD PUSH3 0x461BCD PUSH1 0xE5 SHL DUP2 MSTORE PUSH1 0x20 PUSH1 0x4 DUP3 ADD MSTORE PUSH1 0xA PUSH1 0x24 DUP3 ADD MSTORE PUSH10 0x27B7363C9037BBB732B9 PUSH1 0xB1 SHL PUSH1 0x44 DUP3 ADD MSTORE PUSH1 0x64 ADD JUMPDEST PUSH1 0x40 MLOAD DUP1 SWAP2 SUB SWAP1 REVERT JUMPDEST SELFBALANCE DUP1 PUSH2 0x1E5 JUMPI PUSH1 0x40 MLOAD PUSH3 0x461BCD PUSH1 0xE5 SHL DUP2 MSTORE PUSH1 0x20 PUSH1 0x4 DUP3 ADD MSTORE PUSH1 0x8 PUSH1 0x24 DUP3 ADD MSTORE PUSH8 0x4E6F2066756E6473 PUSH1 0xC0 SHL PUSH1 0x44 DUP3 ADD MSTORE PUSH1 0x64 ADD PUSH2 0x1A3 JUMP JUMPDEST PUSH1 0x1 SLOAD PUSH1 0x40 MLOAD PUSH1 0x1 PUSH1 0x1 PUSH1 0xA0 SHL SUB SWAP1 SWAP2 AND SWAP1 DUP3 ISZERO PUSH2 0x8FC MUL SWAP1 DUP4 SWAP1 PUSH0 DUP2 DUP2 DUP2 DUP6 DUP9 DUP9 CALL SWAP4 POP POP POP POP ISZERO DUP1 ISZERO PUSH2 0x21C JUMPI RETURNDATASIZE PUSH0 DUP1 RETURNDATACOPY RETURNDATASIZE PUSH0 REVERT JUMPDEST POP PUSH1 0x1 SLOAD PUSH1 0x40 MLOAD DUP3 DUP2 MSTORE PUSH1 0x1 PUSH1 0x1 PUSH1 0xA0 SHL SUB SWAP1 SWAP2 AND SWAP1 PUSH32 0xEAFF4B37086828766AD3268786972C0CD24259D4C87A80F9D3963A3C3D999B0D SWAP1 PUSH1 0x20 ADD PUSH1 0x40 MLOAD DUP1 SWAP2 SUB SWAP1 LOG2 POP JUMP JUMPDEST PUSH1 0x1 SLOAD PUSH1 0x1 PUSH1 0x1 PUSH1 0xA0 SHL SUB AND CALLER EQ PUSH2 0x2A9 JUMPI PUSH1 0x40 MLOAD PUSH3 0x461BCD PUSH1 0xE5 SHL DUP2 MSTORE PUSH1 0x20 PUSH1 0x4 DUP3 ADD MSTORE PUSH1 0xA PUSH1 0x24 DUP3 ADD MSTORE PUSH10 0x27B7363C9037BBB732B9 PUSH1 0xB1 SHL PUSH1 0x44 DUP3 ADD MSTORE PUSH1 0x64 ADD PUSH2 0x1A3 JUMP JUMPDEST PUSH0 DUP1 SLOAD SWAP1 DUP3 SWAP1 SSTORE PUSH1 0x40 DUP1 MLOAD DUP3 DUP2 MSTORE PUSH1 0x20 DUP2 ADD DUP5 SWAP1 MSTORE PUSH32 0x945C1C4E99AA89F648FBFE3DF471B916F719E16D960FCEC0737D4D56BD696838 SWAP2 ADD PUSH1 0x40 MLOAD DUP1 SWAP2 SUB SWAP1 LOG1 POP POP JUMP JUMPDEST PUSH0 SLOAD CALLVALUE EQ PUSH2 0x33D JUMPI PUSH1 0x40 MLOAD PUSH3 0x461BCD PUSH1 0xE5 SHL DUP2 MSTORE PUSH1 0x20 PUSH1 0x4 DUP3 ADD MSTORE PUSH1 0x18 PUSH1 0x24 DUP3 ADD MSTORE PUSH32 0x496E636F7272656374207061796D656E7420616D6F756E740000000000000000 PUSH1 0x44 DUP3 ADD MSTORE PUSH1 0x64 ADD PUSH2 0x1A3 JUMP JUMPDEST CALLER PUSH0 SWAP1 DUP2 MSTORE PUSH1 0x2 PUSH1 0x20 MSTORE PUSH1 0x40 SWAP1 KECCAK256 SLOAD PUSH1 0xFF AND ISZERO PUSH2 0x391 JUMPI PUSH1 0x40 MLOAD PUSH3 0x461BCD PUSH1 0xE5 SHL DUP2 MSTORE PUSH1 0x20 PUSH1 0x4 DUP3 ADD MSTORE PUSH1 0x12 PUSH1 0x24 DUP3 ADD MSTORE PUSH18 0x105B1C9958591E481CDD589CD8DC9A589959 PUSH1 0x72 SHL PUSH1 0x44 DUP3 ADD MSTORE PUSH1 0x64 ADD PUSH2 0x1A3 JUMP JUMPDEST CALLER PUSH0 SWAP1 DUP2 MSTORE PUSH1 0x2 PUSH1 0x20 MSTORE PUSH1 0x40 DUP2 KECCAK256 DUP1 SLOAD PUSH1 0xFF NOT AND PUSH1 0x1 OR SWAP1 SSTORE PUSH1 0x3 DUP1 SLOAD SWAP2 PUSH2 0x3B8 DUP4 PUSH2 0x438 JUMP JUMPDEST SWAP1 SWAP2 SSTORE POP POP PUSH1 0x40 MLOAD CALLVALUE DUP2 MSTORE CALLER SWAP1 PUSH32 0x4B90D6788928D63C1821907A6A8B95F40D26562D8FE41B105F7489DB9966DFCB SWAP1 PUSH1 0x20 ADD PUSH1 0x40 MLOAD DUP1 SWAP2 SUB SWAP1 LOG2 JUMP JUMPDEST PUSH0 PUSH1 0x20 DUP3 DUP5 SUB SLT ISZERO PUSH2 0x404 JUMPI PUSH0 DUP1 REVERT JUMPDEST DUP2 CALLDATALOAD PUSH1 0x1 PUSH1 0x1 PUSH1 0xA0 SHL SUB DUP2 AND DUP2 EQ PUSH2 0x41A JUMPI PUSH0 DUP1 REVERT JUMPDEST SWAP4 SWAP3 POP POP POP JUMP JUMPDEST PUSH0 PUSH1 0x20 DUP3 DUP5 SUB SLT ISZERO PUSH2 0x431 JUMPI PUSH0 DUP1 REVERT JUMPDEST POP CALLDATALOAD SWAP2 SWAP1 POP JUMP JUMPDEST PUSH0 PUSH1 0x1 DUP3 ADD PUSH2 0x455 JUMPI PUSH4 0x4E487B71 PUSH1 0xE0 SHL PUSH0 MSTORE PUSH1 0x11 PUSH1 0x4 MSTORE PUSH1 0x24 PUSH0 REVERT JUMPDEST POP PUSH1 0x1 ADD SWAP1 JUMP INVALID LOG2 PUSH5 0x6970667358 0x22 SLT KECCAK256 0xB9 0xA7 SWAP7 COINBASE DUP16 JUMPI 0xDC 0xF9 BLOCKHASH EXTCODECOPY SELFDESTRUCT RETURNDATACOPY 0xB7 DUP12 0xC3 DIV CALL CHAINID DUP7 SUB OR 0xE7 SHL EXTCODECOPY 0xB3 INVALID ISZERO SWAP12 0xBA SWAP14 DUP4 PUSH25 0x64736F6C634300081A00330000000000000000000000000000 "
				},
				"gasEstimates": {
					"creation": {
						"codeDepositCost": "234000",
						"executionCost": "infinite",
						"totalCost": "infinite"
					},
					"external": {
						"owner()": "2358",
						"price()": "2348",
						"subscribe()": "54486",
						"subscribers(address)": "2538",
						"totalSubscribers()": "2284",
						"updatePrice(uint256)": "27911",
						"withdrawFunds()": "infinite"
					}
				},
				"methodIdentifiers": {
					"owner()": "8da5cb5b",
					"price()": "a035b1fe",
					"subscribe()": "8f449a05",
					"subscribers(address)": "5745ae28",
					"totalSubscribers()": "15e2475f",
					"updatePrice(uint256)": "8d6cc56d",
					"withdrawFunds()": "24600fc3"
				}
			},
			"storageLayout": {
				"storage": [
					{
						"astId": 3,
						"contract": "batchnewww.sol:Subscription",
						"label": "price",
						"offset": 0,
						"slot": "0",
						"type": "t_uint256"
					},
					{
						"astId": 5,
						"contract": "batchnewww.sol:Subscription",
						"label": "owner",
						"offset": 0,
						"slot": "1",
						"type": "t_address"
					},
					{
						"astId": 9,
						"contract": "batchnewww.sol:Subscription",
						"label": "subscribers",
						"offset": 0,
						"slot": "2",
						"type": "t_mapping(t_address,t_bool)"
					},
					{
						"astId": 11,
						"contract": "batchnewww.sol:Subscription",
						"label": "totalSubscribers",
						"offset": 0,
						"slot": "3",
						"type": "t_uint256"
					}
				],
				"types": {
					"t_address": {
						"encoding": "inplace",
						"label": "address",
						"numberOfBytes": "20"
					},
					"t_bool": {
						"encoding": "inplace",
						"label": "bool",
						"numberOfBytes": "1"
					},
					"t_mapping(t_address,t_bool)": {
						"encoding": "mapping",
						"key": "t_address",
						"label": "mapping(address => bool)",
						"numberOfBytes": "32",
						"value": "t_bool"
					},
					"t_uint256": {
						"encoding": "inplace",
						"label": "uint256",
						"numberOfBytes": "32"
					}
				}
			},
			"userdoc": {
				"kind": "user",
				"methods": {},
				"version": 1
			}
		}
	}
}