{
	"crowdbatch.sol": {
		"Crowdfund": {
			"abi": [
				{
					"inputs": [
						{
							"internalType": "string",
							"name": "_title",
							"type": "string"
						},
						{
							"internalType": "uint256",
							"name": "_goal",
							"type": "uint256"
						}
					],
					"stateMutability": "nonpayable",
					"type": "constructor"
				},
				{
					"inputs": [],
					"name": "creator",
					"outputs": [
						{
							"internalType": "address",
							"name": "",
							"type": "address"
						}
					],
					"stateMutability": "view",
					"type": "function"
				},
				{
					"inputs": [],
					"name": "goal",
					"outputs": [
						{
							"internalType": "uint256",
							"name": "",
							"type": "uint256"
						}
					],
					"stateMutability": "view",
					"type": "function"
				},
				{
					"inputs": [],
					"name": "raised",
					"outputs": [
						{
							"internalType": "uint256",
							"name": "",
							"type": "uint256"
						}
					],
					"stateMutability": "view",
					"type": "function"
				},
				{
					"inputs": [],
					"name": "title",
					"outputs": [
						{
							"internalType": "string",
							"name": "",
							"type": "string"
						}
					],
					"stateMutability": "view",
					"type": "function"
				},
				{
					"inputs": [],
					"name": "withdraw",
					"outputs": [],
					"stateMutability": "nonpayable",
					"type": "function"
				},
				{
					"stateMutability": "payable",
					"type": "receive"
				}
			],
			"devdoc": {
				"kind": "dev",
				"methods": {},
				"version": 1
			},
			"evm": {
				"assembly": "    /* \"crowdbatch.sol\":61:609  contract Crowdfund {... */\n  mstore(0x40, 0x80)\n    /* \"crowdbatch.sol\":192:325  constructor(string memory _title, uint _goal) {... */\n  callvalue\n  dup1\n  iszero\n  tag_1\n  jumpi\n  0x00\n  dup1\n  revert\ntag_1:\n  pop\n  mload(0x40)\n  sub(codesize, bytecodeSize)\n  dup1\n  bytecodeSize\n  dup4\n  codecopy\n  dup2\n  add\n  0x40\n  dup2\n  swap1\n  mstore\n  tag_2\n  swap2\n  tag_3\n  jump\t// in\ntag_2:\n    /* \"crowdbatch.sol\":249:254  title */\n  0x00\n    /* \"crowdbatch.sol\":249:263  title = _title */\n  tag_6\n    /* \"crowdbatch.sol\":257:263  _title */\n  dup4\n    /* \"crowdbatch.sol\":249:254  title */\n  dup3\n    /* \"crowdbatch.sol\":249:263  title = _title */\n  tag_7\n  jump\t// in\ntag_6:\n  pop\n    /* \"crowdbatch.sol\":274:278  goal */\n  0x02\n    /* \"crowdbatch.sol\":274:286  goal = _goal */\n  sstore\n  pop\n    /* \"crowdbatch.sol\":297:304  creator */\n  0x01\n    /* \"crowdbatch.sol\":297:317  creator = msg.sender */\n  dup1\n  sload\n  not(sub(shl(0xa0, 0x01), 0x01))\n  and\n    /* \"crowdbatch.sol\":307:317  msg.sender */\n  caller\n    /* \"crowdbatch.sol\":297:317  creator = msg.sender */\n  or\n  swap1\n  sstore\n    /* \"crowdbatch.sol\":61:609  contract Crowdfund {... */\n  jump(tag_14)\n    /* \"#utility.yul\":14:141   */\ntag_9:\n    /* \"#utility.yul\":75:85   */\n  0x4e487b71\n    /* \"#utility.yul\":70:73   */\n  0xe0\n    /* \"#utility.yul\":66:86   */\n  shl\n    /* \"#utility.yul\":63:64   */\n  0x00\n    /* \"#utility.yul\":56:87   */\n  mstore\n    /* \"#utility.yul\":106:110   */\n  0x41\n    /* \"#utility.yul\":103:104   */\n  0x04\n    /* \"#utility.yul\":96:111   */\n  mstore\n    /* \"#utility.yul\":130:134   */\n  0x24\n    /* \"#utility.yul\":127:128   */\n  0x00\n    /* \"#utility.yul\":120:135   */\n  revert\n    /* \"#utility.yul\":146:1198   */\ntag_3:\n    /* \"#utility.yul\":235:241   */\n  0x00\n    /* \"#utility.yul\":243:249   */\n  dup1\n    /* \"#utility.yul\":296:298   */\n  0x40\n    /* \"#utility.yul\":284:293   */\n  dup4\n    /* \"#utility.yul\":275:282   */\n  dup6\n    /* \"#utility.yul\":271:294   */\n  sub\n    /* \"#utility.yul\":267:299   */\n  slt\n    /* \"#utility.yul\":264:316   */\n  iszero\n  tag_17\n  jumpi\n    /* \"#utility.yul\":312:313   */\n  0x00\n    /* \"#utility.yul\":309:310   */\n  dup1\n    /* \"#utility.yul\":302:314   */\n  revert\n    /* \"#utility.yul\":264:316   */\ntag_17:\n    /* \"#utility.yul\":339:355   */\n  dup3\n  mload\n  sub(shl(0x40, 0x01), 0x01)\n    /* \"#utility.yul\":367:397   */\n  dup2\n  gt\n    /* \"#utility.yul\":364:414   */\n  iszero\n  tag_18\n  jumpi\n    /* \"#utility.yul\":410:411   */\n  0x00\n    /* \"#utility.yul\":407:408   */\n  dup1\n    /* \"#utility.yul\":400:412   */\n  revert\n    /* \"#utility.yul\":364:414   */\ntag_18:\n    /* \"#utility.yul\":433:455   */\n  dup4\n  add\n    /* \"#utility.yul\":486:490   */\n  0x1f\n    /* \"#utility.yul\":478:491   */\n  dup2\n  add\n    /* \"#utility.yul\":474:501   */\n  dup6\n  sgt\n    /* \"#utility.yul\":464:519   */\n  tag_19\n  jumpi\n    /* \"#utility.yul\":515:516   */\n  0x00\n    /* \"#utility.yul\":512:513   */\n  dup1\n    /* \"#utility.yul\":505:517   */\n  revert\n    /* \"#utility.yul\":464:519   */\ntag_19:\n    /* \"#utility.yul\":542:551   */\n  dup1\n  mload\n  sub(shl(0x40, 0x01), 0x01)\n    /* \"#utility.yul\":563:593   */\n  dup2\n  gt\n    /* \"#utility.yul\":560:616   */\n  iszero\n  tag_21\n  jumpi\n    /* \"#utility.yul\":596:614   */\n  tag_21\n  tag_9\n  jump\t// in\ntag_21:\n    /* \"#utility.yul\":645:647   */\n  0x40\n    /* \"#utility.yul\":639:648   */\n  mload\n    /* \"#utility.yul\":737:739   */\n  0x1f\n    /* \"#utility.yul\":699:716   */\n  dup3\n  add\n  not(0x1f)\n    /* \"#utility.yul\":695:726   */\n  swap1\n  dup2\n  and\n    /* \"#utility.yul\":728:730   */\n  0x3f\n    /* \"#utility.yul\":691:731   */\n  add\n    /* \"#utility.yul\":687:741   */\n  and\n    /* \"#utility.yul\":675:742   */\n  dup2\n  add\n  sub(shl(0x40, 0x01), 0x01)\n    /* \"#utility.yul\":757:791   */\n  dup2\n  gt\n    /* \"#utility.yul\":793:815   */\n  dup3\n  dup3\n  lt\n    /* \"#utility.yul\":754:816   */\n  or\n    /* \"#utility.yul\":751:839   */\n  iszero\n  tag_23\n  jumpi\n    /* \"#utility.yul\":819:837   */\n  tag_23\n  tag_9\n  jump\t// in\ntag_23:\n    /* \"#utility.yul\":855:857   */\n  0x40\n    /* \"#utility.yul\":848:870   */\n  mstore\n    /* \"#utility.yul\":879:901   */\n  dup2\n  dup2\n  mstore\n    /* \"#utility.yul\":920:935   */\n  dup3\n  dup3\n  add\n    /* \"#utility.yul\":937:941   */\n  0x20\n    /* \"#utility.yul\":916:942   */\n  add\n    /* \"#utility.yul\":913:952   */\n  dup8\n  lt\n    /* \"#utility.yul\":910:969   */\n  iszero\n  tag_24\n  jumpi\n    /* \"#utility.yul\":965:966   */\n  0x00\n    /* \"#utility.yul\":962:963   */\n  dup1\n    /* \"#utility.yul\":955:967   */\n  revert\n    /* \"#utility.yul\":910:969   */\ntag_24:\n    /* \"#utility.yul\":1018:1024   */\n  dup2\n    /* \"#utility.yul\":1011:1015   */\n  0x20\n    /* \"#utility.yul\":1007:1009   */\n  dup5\n    /* \"#utility.yul\":1003:1016   */\n  add\n    /* \"#utility.yul\":996:1000   */\n  0x20\n    /* \"#utility.yul\":988:994   */\n  dup4\n    /* \"#utility.yul\":984:1001   */\n  add\n    /* \"#utility.yul\":978:1025   */\n  mcopy\n    /* \"#utility.yul\":1073:1074   */\n  0x00\n    /* \"#utility.yul\":1066:1070   */\n  0x20\n    /* \"#utility.yul\":1045:1064   */\n  swap3\n  dup3\n  add\n    /* \"#utility.yul\":1041:1071   */\n  dup4\n  add\n    /* \"#utility.yul\":1034:1075   */\n  mstore\n    /* \"#utility.yul\":1147:1167   */\n  swap5\n  add\n    /* \"#utility.yul\":1141:1168   */\n  mload\n    /* \"#utility.yul\":1045:1064   */\n  swap4\n  swap6\n    /* \"#utility.yul\":1141:1168   */\n  swap4\n  swap5\n  pop\n  pop\n  pop\n  pop\n    /* \"#utility.yul\":146:1198   */\n  jump\t// out\n    /* \"#utility.yul\":1203:1583   */\ntag_10:\n    /* \"#utility.yul\":1282:1283   */\n  0x01\n    /* \"#utility.yul\":1278:1290   */\n  dup2\n  dup2\n  shr\n  swap1\n    /* \"#utility.yul\":1325:1337   */\n  dup3\n  and\n  dup1\n    /* \"#utility.yul\":1346:1407   */\n  tag_26\n  jumpi\n    /* \"#utility.yul\":1400:1404   */\n  0x7f\n    /* \"#utility.yul\":1392:1398   */\n  dup3\n    /* \"#utility.yul\":1388:1405   */\n  and\n    /* \"#utility.yul\":1378:1405   */\n  swap2\n  pop\n    /* \"#utility.yul\":1346:1407   */\ntag_26:\n    /* \"#utility.yul\":1453:1455   */\n  0x20\n    /* \"#utility.yul\":1445:1451   */\n  dup3\n    /* \"#utility.yul\":1442:1456   */\n  lt\n    /* \"#utility.yul\":1422:1440   */\n  dup2\n    /* \"#utility.yul\":1419:1457   */\n  sub\n    /* \"#utility.yul\":1416:1577   */\n  tag_27\n  jumpi\n    /* \"#utility.yul\":1499:1509   */\n  0x4e487b71\n    /* \"#utility.yul\":1494:1497   */\n  0xe0\n    /* \"#utility.yul\":1490:1510   */\n  shl\n    /* \"#utility.yul\":1487:1488   */\n  0x00\n    /* \"#utility.yul\":1480:1511   */\n  mstore\n    /* \"#utility.yul\":1534:1538   */\n  0x22\n    /* \"#utility.yul\":1531:1532   */\n  0x04\n    /* \"#utility.yul\":1524:1539   */\n  mstore\n    /* \"#utility.yul\":1562:1566   */\n  0x24\n    /* \"#utility.yul\":1559:1560   */\n  0x00\n    /* \"#utility.yul\":1552:1567   */\n  revert\n    /* \"#utility.yul\":1416:1577   */\ntag_27:\n  pop\n    /* \"#utility.yul\":1203:1583   */\n  swap2\n  swap1\n  pop\n  jump\t// out\n    /* \"#utility.yul\":1714:2232   */\ntag_12:\n    /* \"#utility.yul\":1816:1818   */\n  0x1f\n    /* \"#utility.yul\":1811:1814   */\n  dup3\n    /* \"#utility.yul\":1808:1819   */\n  gt\n    /* \"#utility.yul\":1805:2226   */\n  iszero\n  tag_30\n  jumpi\n    /* \"#utility.yul\":1852:1857   */\n  dup1\n    /* \"#utility.yul\":1849:1850   */\n  0x00\n    /* \"#utility.yul\":1842:1858   */\n  mstore\n    /* \"#utility.yul\":1896:1900   */\n  0x20\n    /* \"#utility.yul\":1893:1894   */\n  0x00\n    /* \"#utility.yul\":1883:1901   */\n  keccak256\n    /* \"#utility.yul\":1966:1968   */\n  0x1f\n    /* \"#utility.yul\":1954:1964   */\n  dup5\n    /* \"#utility.yul\":1950:1969   */\n  add\n    /* \"#utility.yul\":1947:1948   */\n  0x05\n    /* \"#utility.yul\":1943:1970   */\n  shr\n    /* \"#utility.yul\":1937:1941   */\n  dup2\n    /* \"#utility.yul\":1933:1971   */\n  add\n    /* \"#utility.yul\":2002:2006   */\n  0x20\n    /* \"#utility.yul\":1990:2000   */\n  dup6\n    /* \"#utility.yul\":1987:2007   */\n  lt\n    /* \"#utility.yul\":1984:2031   */\n  iszero\n  tag_31\n  jumpi\n  pop\n    /* \"#utility.yul\":2025:2029   */\n  dup1\n    /* \"#utility.yul\":1984:2031   */\ntag_31:\n    /* \"#utility.yul\":2080:2082   */\n  0x1f\n    /* \"#utility.yul\":2075:2078   */\n  dup5\n    /* \"#utility.yul\":2071:2083   */\n  add\n    /* \"#utility.yul\":2068:2069   */\n  0x05\n    /* \"#utility.yul\":2064:2084   */\n  shr\n    /* \"#utility.yul\":2058:2062   */\n  dup3\n    /* \"#utility.yul\":2054:2085   */\n  add\n    /* \"#utility.yul\":2044:2085   */\n  swap2\n  pop\n    /* \"#utility.yul\":2135:2216   */\ntag_32:\n    /* \"#utility.yul\":2153:2155   */\n  dup2\n    /* \"#utility.yul\":2146:2151   */\n  dup2\n    /* \"#utility.yul\":2143:2156   */\n  lt\n    /* \"#utility.yul\":2135:2216   */\n  iszero\n  tag_34\n  jumpi\n    /* \"#utility.yul\":2212:2213   */\n  0x00\n    /* \"#utility.yul\":2198:2214   */\n  dup2\n  sstore\n    /* \"#utility.yul\":2179:2180   */\n  0x01\n    /* \"#utility.yul\":2168:2181   */\n  add\n    /* \"#utility.yul\":2135:2216   */\n  jump(tag_32)\ntag_34:\n    /* \"#utility.yul\":2139:2142   */\n  pop\n  pop\n    /* \"#utility.yul\":1805:2226   */\ntag_30:\n    /* \"#utility.yul\":1714:2232   */\n  pop\n  pop\n  pop\n  jump\t// out\n    /* \"#utility.yul\":2408:3707   */\ntag_7:\n    /* \"#utility.yul\":2528:2538   */\n  dup2\n  mload\n  sub(shl(0x40, 0x01), 0x01)\n    /* \"#utility.yul\":2550:2580   */\n  dup2\n  gt\n    /* \"#utility.yul\":2547:2603   */\n  iszero\n  tag_38\n  jumpi\n    /* \"#utility.yul\":2583:2601   */\n  tag_38\n  tag_9\n  jump\t// in\ntag_38:\n    /* \"#utility.yul\":2612:2709   */\n  tag_39\n    /* \"#utility.yul\":2702:2708   */\n  dup2\n    /* \"#utility.yul\":2662:2700   */\n  tag_40\n    /* \"#utility.yul\":2694:2698   */\n  dup5\n    /* \"#utility.yul\":2688:2699   */\n  sload\n    /* \"#utility.yul\":2662:2700   */\n  tag_10\n  jump\t// in\ntag_40:\n    /* \"#utility.yul\":2656:2660   */\n  dup5\n    /* \"#utility.yul\":2612:2709   */\n  tag_12\n  jump\t// in\ntag_39:\n    /* \"#utility.yul\":2758:2762   */\n  0x20\n    /* \"#utility.yul\":2789:2791   */\n  0x1f\n    /* \"#utility.yul\":2778:2792   */\n  dup3\n  gt\n    /* \"#utility.yul\":2806:2807   */\n  0x01\n    /* \"#utility.yul\":2801:3450   */\n  dup2\n  eq\n  tag_42\n  jumpi\n    /* \"#utility.yul\":3494:3495   */\n  0x00\n    /* \"#utility.yul\":3511:3517   */\n  dup4\n    /* \"#utility.yul\":3508:3597   */\n  iszero\n  tag_43\n  jumpi\n  pop\n    /* \"#utility.yul\":3563:3582   */\n  dup5\n  dup3\n  add\n    /* \"#utility.yul\":3557:3583   */\n  mload\n    /* \"#utility.yul\":3508:3597   */\ntag_43:\n  not(0x00)\n    /* \"#utility.yul\":2365:2366   */\n  0x03\n    /* \"#utility.yul\":2361:2372   */\n  dup6\n  swap1\n  shl\n    /* \"#utility.yul\":2357:2381   */\n  shr\n    /* \"#utility.yul\":2353:2382   */\n  not\n    /* \"#utility.yul\":2343:2383   */\n  and\n    /* \"#utility.yul\":2389:2390   */\n  0x01\n    /* \"#utility.yul\":2385:2396   */\n  dup5\n  swap1\n  shl\n    /* \"#utility.yul\":2340:2397   */\n  or\n    /* \"#utility.yul\":3610:3691   */\n  dup5\n  sstore\n    /* \"#utility.yul\":2771:3701   */\n  jump(tag_34)\n    /* \"#utility.yul\":2801:3450   */\ntag_42:\n    /* \"#utility.yul\":1661:1662   */\n  0x00\n    /* \"#utility.yul\":1654:1668   */\n  dup5\n  dup2\n  mstore\n    /* \"#utility.yul\":1698:1702   */\n  0x20\n    /* \"#utility.yul\":1685:1703   */\n  dup2\n  keccak256\n  not(0x1f)\n    /* \"#utility.yul\":2837:2857   */\n  dup6\n  and\n  swap2\n    /* \"#utility.yul\":2955:3177   */\ntag_46:\n    /* \"#utility.yul\":2969:2976   */\n  dup3\n    /* \"#utility.yul\":2966:2967   */\n  dup2\n    /* \"#utility.yul\":2963:2977   */\n  lt\n    /* \"#utility.yul\":2955:3177   */\n  iszero\n  tag_48\n  jumpi\n    /* \"#utility.yul\":3051:3070   */\n  dup8\n  dup6\n  add\n    /* \"#utility.yul\":3045:3071   */\n  mload\n    /* \"#utility.yul\":3030:3072   */\n  dup3\n  sstore\n    /* \"#utility.yul\":3158:3162   */\n  0x20\n    /* \"#utility.yul\":3143:3163   */\n  swap5\n  dup6\n  add\n  swap5\n    /* \"#utility.yul\":3111:3112   */\n  0x01\n    /* \"#utility.yul\":3099:3113   */\n  swap1\n  swap3\n  add\n  swap2\n    /* \"#utility.yul\":2985:2997   */\n  add\n    /* \"#utility.yul\":2955:3177   */\n  jump(tag_46)\ntag_48:\n    /* \"#utility.yul\":2959:2962   */\n  pop\n    /* \"#utility.yul\":3205:3211   */\n  dup5\n    /* \"#utility.yul\":3196:3203   */\n  dup3\n    /* \"#utility.yul\":3193:3212   */\n  lt\n    /* \"#utility.yul\":3190:3391   */\n  iszero\n  tag_49\n  jumpi\n    /* \"#utility.yul\":3266:3285   */\n  dup7\n  dup5\n  add\n    /* \"#utility.yul\":3260:3286   */\n  mload\n  not(0x00)\n    /* \"#utility.yul\":3349:3350   */\n  0x03\n    /* \"#utility.yul\":3345:3359   */\n  dup8\n  swap1\n  shl\n    /* \"#utility.yul\":3361:3364   */\n  0xf8\n    /* \"#utility.yul\":3341:3365   */\n  and\n    /* \"#utility.yul\":3337:3374   */\n  shr\n    /* \"#utility.yul\":3333:3375   */\n  not\n    /* \"#utility.yul\":3318:3376   */\n  and\n    /* \"#utility.yul\":3303:3377   */\n  dup2\n  sstore\n    /* \"#utility.yul\":3190:3391   */\ntag_49:\n  pop\n  pop\n  pop\n  pop\n    /* \"#utility.yul\":3437:3438   */\n  0x01\n    /* \"#utility.yul\":3421:3435   */\n  swap1\n  dup2\n  shl\n    /* \"#utility.yul\":3417:3439   */\n  add\n    /* \"#utility.yul\":3404:3440   */\n  swap1\n  sstore\n  pop\n    /* \"#utility.yul\":2408:3707   */\n  jump\t// out\ntag_14:\n    /* \"crowdbatch.sol\":61:609  contract Crowdfund {... */\n  dataSize(sub_0)\n  dup1\n  dataOffset(sub_0)\n  0x00\n  codecopy\n  0x00\n  return\nstop\n\nsub_0: assembly {\n        /* \"crowdbatch.sol\":61:609  contract Crowdfund {... */\n      mstore(0x40, 0x80)\n      jumpi(tag_1, lt(calldatasize, 0x04))\n      shr(0xe0, calldataload(0x00))\n      dup1\n      0x02d05d3f\n      eq\n      tag_3\n      jumpi\n      dup1\n      0x3ccfd60b\n      eq\n      tag_4\n      jumpi\n      dup1\n      0x40193883\n      eq\n      tag_5\n      jumpi\n      dup1\n      0x4a79d50c\n      eq\n      tag_6\n      jumpi\n      dup1\n      0xf0ea4bfc\n      eq\n      tag_7\n      jumpi\n      0x00\n      dup1\n      revert\n    tag_1:\n      jumpi(tag_2, calldatasize)\n        /* \"crowdbatch.sol\":381:390  msg.value */\n      callvalue\n        /* \"crowdbatch.sol\":371:377  raised */\n      0x03\n      0x00\n        /* \"crowdbatch.sol\":371:390  raised += msg.value */\n      dup3\n      dup3\n      sload\n      tag_10\n      swap2\n      swap1\n      tag_11\n      jump\t// in\n    tag_10:\n      swap3\n      pop\n      pop\n      dup2\n      swap1\n      sstore\n      stop\n        /* \"crowdbatch.sol\":61:609  contract Crowdfund {... */\n    tag_2:\n      0x00\n      dup1\n      revert\n        /* \"crowdbatch.sol\":113:135  address public creator */\n    tag_3:\n      callvalue\n      dup1\n      iszero\n      tag_12\n      jumpi\n      0x00\n      dup1\n      revert\n    tag_12:\n      pop\n      sload(0x01)\n      tag_13\n      swap1\n      sub(shl(0xa0, 0x01), 0x01)\n      and\n      dup2\n      jump\n    tag_13:\n      mload(0x40)\n      sub(shl(0xa0, 0x01), 0x01)\n        /* \"#utility.yul\":405:437   */\n      swap1\n      swap2\n      and\n        /* \"#utility.yul\":387:438   */\n      dup2\n      mstore\n        /* \"#utility.yul\":375:377   */\n      0x20\n        /* \"#utility.yul\":360:378   */\n      add\n        /* \"crowdbatch.sol\":113:135  address public creator */\n    tag_15:\n      mload(0x40)\n      dup1\n      swap2\n      sub\n      swap1\n      return\n        /* \"crowdbatch.sol\":406:606  function withdraw() public {... */\n    tag_4:\n      callvalue\n      dup1\n      iszero\n      tag_17\n      jumpi\n      0x00\n      dup1\n      revert\n    tag_17:\n      pop\n      tag_18\n      tag_19\n      jump\t// in\n    tag_18:\n      stop\n        /* \"crowdbatch.sol\":142:158  uint public goal */\n    tag_5:\n      callvalue\n      dup1\n      iszero\n      tag_20\n      jumpi\n      0x00\n      dup1\n      revert\n    tag_20:\n      pop\n      tag_21\n      sload(0x02)\n      dup2\n      jump\n    tag_21:\n      mload(0x40)\n        /* \"#utility.yul\":595:620   */\n      swap1\n      dup2\n      mstore\n        /* \"#utility.yul\":583:585   */\n      0x20\n        /* \"#utility.yul\":568:586   */\n      add\n        /* \"crowdbatch.sol\":142:158  uint public goal */\n      tag_15\n        /* \"#utility.yul\":449:626   */\n      jump\n        /* \"crowdbatch.sol\":87:106  string public title */\n    tag_6:\n      callvalue\n      dup1\n      iszero\n      tag_25\n      jumpi\n      0x00\n      dup1\n      revert\n    tag_25:\n      pop\n      tag_26\n      tag_27\n      jump\t// in\n    tag_26:\n      mload(0x40)\n      tag_15\n      swap2\n      swap1\n      tag_29\n      jump\t// in\n        /* \"crowdbatch.sol\":165:183  uint public raised */\n    tag_7:\n      callvalue\n      dup1\n      iszero\n      tag_30\n      jumpi\n      0x00\n      dup1\n      revert\n    tag_30:\n      pop\n      tag_21\n      sload(0x03)\n      dup2\n      jump\n        /* \"crowdbatch.sol\":406:606  function withdraw() public {... */\n    tag_19:\n        /* \"crowdbatch.sol\":466:473  creator */\n      and(sub(shl(0xa0, 0x01), 0x01), sload(0x01))\n        /* \"crowdbatch.sol\":452:462  msg.sender */\n      caller\n        /* \"crowdbatch.sol\":452:473  msg.sender == creator */\n      eq\n        /* \"crowdbatch.sol\":444:489  require(msg.sender == creator, \"Not creator\") */\n      tag_35\n      jumpi\n      mload(0x40)\n      shl(0xe5, 0x461bcd)\n      dup2\n      mstore\n        /* \"#utility.yul\":1256:1258   */\n      0x20\n        /* \"crowdbatch.sol\":444:489  require(msg.sender == creator, \"Not creator\") */\n      0x04\n      dup3\n      add\n        /* \"#utility.yul\":1238:1259   */\n      mstore\n        /* \"#utility.yul\":1295:1297   */\n      0x0b\n        /* \"#utility.yul\":1275:1293   */\n      0x24\n      dup3\n      add\n        /* \"#utility.yul\":1268:1298   */\n      mstore\n      shl(0xa9, 0x2737ba1031b932b0ba37b9)\n        /* \"#utility.yul\":1314:1332   */\n      0x44\n      dup3\n      add\n        /* \"#utility.yul\":1307:1348   */\n      mstore\n        /* \"#utility.yul\":1365:1383   */\n      0x64\n      add\n        /* \"crowdbatch.sol\":444:489  require(msg.sender == creator, \"Not creator\") */\n    tag_36:\n      mload(0x40)\n      dup1\n      swap2\n      sub\n      swap1\n      revert\n    tag_35:\n        /* \"crowdbatch.sol\":518:522  goal */\n      sload(0x02)\n        /* \"crowdbatch.sol\":508:514  raised */\n      sload(0x03)\n        /* \"crowdbatch.sol\":508:522  raised >= goal */\n      lt\n      iszero\n        /* \"crowdbatch.sol\":500:539  require(raised >= goal, \"Goal not met\") */\n      tag_38\n      jumpi\n      mload(0x40)\n      shl(0xe5, 0x461bcd)\n      dup2\n      mstore\n        /* \"#utility.yul\":1596:1598   */\n      0x20\n        /* \"crowdbatch.sol\":500:539  require(raised >= goal, \"Goal not met\") */\n      0x04\n      dup3\n      add\n        /* \"#utility.yul\":1578:1599   */\n      mstore\n        /* \"#utility.yul\":1635:1637   */\n      0x0c\n        /* \"#utility.yul\":1615:1633   */\n      0x24\n      dup3\n      add\n        /* \"#utility.yul\":1608:1638   */\n      mstore\n      shl(0xa2, 0x11dbd85b081b9bdd081b595d)\n        /* \"#utility.yul\":1654:1672   */\n      0x44\n      dup3\n      add\n        /* \"#utility.yul\":1647:1689   */\n      mstore\n        /* \"#utility.yul\":1706:1724   */\n      0x64\n      add\n        /* \"crowdbatch.sol\":500:539  require(raised >= goal, \"Goal not met\") */\n      tag_36\n        /* \"#utility.yul\":1394:1730   */\n      jump\n        /* \"crowdbatch.sol\":500:539  require(raised >= goal, \"Goal not met\") */\n    tag_38:\n        /* \"crowdbatch.sol\":558:565  creator */\n      sload(0x01)\n        /* \"crowdbatch.sol\":550:598  payable(creator).transfer(address(this).balance) */\n      mload(0x40)\n      sub(shl(0xa0, 0x01), 0x01)\n        /* \"crowdbatch.sol\":558:565  creator */\n      swap1\n      swap2\n      and\n      swap1\n        /* \"crowdbatch.sol\":576:597  address(this).balance */\n      selfbalance\n        /* \"crowdbatch.sol\":550:598  payable(creator).transfer(address(this).balance) */\n      dup1\n      iszero\n      0x08fc\n      mul\n      swap2\n        /* \"crowdbatch.sol\":558:565  creator */\n      0x00\n        /* \"crowdbatch.sol\":550:598  payable(creator).transfer(address(this).balance) */\n      dup2\n        /* \"crowdbatch.sol\":558:565  creator */\n      dup2\n        /* \"crowdbatch.sol\":550:598  payable(creator).transfer(address(this).balance) */\n      dup2\n        /* \"crowdbatch.sol\":576:597  address(this).balance */\n      dup6\n        /* \"crowdbatch.sol\":558:565  creator */\n      dup9\n        /* \"crowdbatch.sol\":550:598  payable(creator).transfer(address(this).balance) */\n      dup9\n      call\n      swap4\n      pop\n      pop\n      pop\n      pop\n      iszero\n      dup1\n      iszero\n      tag_42\n      jumpi\n      returndatasize\n      0x00\n      dup1\n      returndatacopy\n      revert(0x00, returndatasize)\n    tag_42:\n      pop\n        /* \"crowdbatch.sol\":406:606  function withdraw() public {... */\n      jump\t// out\n        /* \"crowdbatch.sol\":87:106  string public title */\n    tag_27:\n      0x00\n      dup1\n      sload\n      tag_43\n      swap1\n      tag_44\n      jump\t// in\n    tag_43:\n      dup1\n      0x1f\n      add\n      0x20\n      dup1\n      swap2\n      div\n      mul\n      0x20\n      add\n      mload(0x40)\n      swap1\n      dup2\n      add\n      0x40\n      mstore\n      dup1\n      swap3\n      swap2\n      swap1\n      dup2\n      dup2\n      mstore\n      0x20\n      add\n      dup3\n      dup1\n      sload\n      tag_45\n      swap1\n      tag_44\n      jump\t// in\n    tag_45:\n      dup1\n      iszero\n      tag_46\n      jumpi\n      dup1\n      0x1f\n      lt\n      tag_47\n      jumpi\n      0x0100\n      dup1\n      dup4\n      sload\n      div\n      mul\n      dup4\n      mstore\n      swap2\n      0x20\n      add\n      swap2\n      jump(tag_46)\n    tag_47:\n      dup3\n      add\n      swap2\n      swap1\n      0x00\n      mstore\n      keccak256(0x00, 0x20)\n      swap1\n    tag_48:\n      dup2\n      sload\n      dup2\n      mstore\n      swap1\n      0x01\n      add\n      swap1\n      0x20\n      add\n      dup1\n      dup4\n      gt\n      tag_48\n      jumpi\n      dup3\n      swap1\n      sub\n      0x1f\n      and\n      dup3\n      add\n      swap2\n    tag_46:\n      pop\n      pop\n      pop\n      pop\n      pop\n      dup2\n      jump\t// out\n        /* \"#utility.yul\":14:236   */\n    tag_11:\n        /* \"#utility.yul\":79:88   */\n      dup1\n      dup3\n      add\n        /* \"#utility.yul\":100:110   */\n      dup1\n      dup3\n      gt\n        /* \"#utility.yul\":97:230   */\n      iszero\n      tag_51\n      jumpi\n        /* \"#utility.yul\":152:162   */\n      0x4e487b71\n        /* \"#utility.yul\":147:150   */\n      0xe0\n        /* \"#utility.yul\":143:163   */\n      shl\n        /* \"#utility.yul\":140:141   */\n      0x00\n        /* \"#utility.yul\":133:164   */\n      mstore\n        /* \"#utility.yul\":187:191   */\n      0x11\n        /* \"#utility.yul\":184:185   */\n      0x04\n        /* \"#utility.yul\":177:192   */\n      mstore\n        /* \"#utility.yul\":215:219   */\n      0x24\n        /* \"#utility.yul\":212:213   */\n      0x00\n        /* \"#utility.yul\":205:220   */\n      revert\n        /* \"#utility.yul\":97:230   */\n    tag_51:\n        /* \"#utility.yul\":14:236   */\n      swap3\n      swap2\n      pop\n      pop\n      jump\t// out\n        /* \"#utility.yul\":631:1049   */\n    tag_29:\n        /* \"#utility.yul\":780:782   */\n      0x20\n        /* \"#utility.yul\":769:778   */\n      dup2\n        /* \"#utility.yul\":762:783   */\n      mstore\n        /* \"#utility.yul\":743:747   */\n      0x00\n        /* \"#utility.yul\":812:818   */\n      dup3\n        /* \"#utility.yul\":806:819   */\n      mload\n        /* \"#utility.yul\":855:861   */\n      dup1\n        /* \"#utility.yul\":850:852   */\n      0x20\n        /* \"#utility.yul\":839:848   */\n      dup5\n        /* \"#utility.yul\":835:853   */\n      add\n        /* \"#utility.yul\":828:862   */\n      mstore\n        /* \"#utility.yul\":914:920   */\n      dup1\n        /* \"#utility.yul\":909:911   */\n      0x20\n        /* \"#utility.yul\":901:907   */\n      dup6\n        /* \"#utility.yul\":897:912   */\n      add\n        /* \"#utility.yul\":892:894   */\n      0x40\n        /* \"#utility.yul\":881:890   */\n      dup6\n        /* \"#utility.yul\":877:895   */\n      add\n        /* \"#utility.yul\":871:921   */\n      mcopy\n        /* \"#utility.yul\":970:971   */\n      0x00\n        /* \"#utility.yul\":965:967   */\n      0x40\n        /* \"#utility.yul\":956:962   */\n      dup3\n        /* \"#utility.yul\":945:954   */\n      dup6\n        /* \"#utility.yul\":941:963   */\n      add\n        /* \"#utility.yul\":937:968   */\n      add\n        /* \"#utility.yul\":930:972   */\n      mstore\n        /* \"#utility.yul\":1040:1042   */\n      0x40\n        /* \"#utility.yul\":1033:1035   */\n      0x1f\n        /* \"#utility.yul\":1029:1036   */\n      not\n        /* \"#utility.yul\":1024:1026   */\n      0x1f\n        /* \"#utility.yul\":1016:1022   */\n      dup4\n        /* \"#utility.yul\":1012:1027   */\n      add\n        /* \"#utility.yul\":1008:1037   */\n      and\n        /* \"#utility.yul\":997:1006   */\n      dup5\n        /* \"#utility.yul\":993:1038   */\n      add\n        /* \"#utility.yul\":989:1043   */\n      add\n        /* \"#utility.yul\":981:1043   */\n      swap2\n      pop\n      pop\n        /* \"#utility.yul\":631:1049   */\n      swap3\n      swap2\n      pop\n      pop\n      jump\t// out\n        /* \"#utility.yul\":1735:2115   */\n    tag_44:\n        /* \"#utility.yul\":1814:1815   */\n      0x01\n        /* \"#utility.yul\":1810:1822   */\n      dup2\n      dup2\n      shr\n      swap1\n        /* \"#utility.yul\":1857:1869   */\n      dup3\n      and\n      dup1\n        /* \"#utility.yul\":1878:1939   */\n      tag_58\n      jumpi\n        /* \"#utility.yul\":1932:1936   */\n      0x7f\n        /* \"#utility.yul\":1924:1930   */\n      dup3\n        /* \"#utility.yul\":1920:1937   */\n      and\n        /* \"#utility.yul\":1910:1937   */\n      swap2\n      pop\n        /* \"#utility.yul\":1878:1939   */\n    tag_58:\n        /* \"#utility.yul\":1985:1987   */\n      0x20\n        /* \"#utility.yul\":1977:1983   */\n      dup3\n        /* \"#utility.yul\":1974:1988   */\n      lt\n        /* \"#utility.yul\":1954:1972   */\n      dup2\n        /* \"#utility.yul\":1951:1989   */\n      sub\n        /* \"#utility.yul\":1948:2109   */\n      tag_59\n      jumpi\n        /* \"#utility.yul\":2031:2041   */\n      0x4e487b71\n        /* \"#utility.yul\":2026:2029   */\n      0xe0\n        /* \"#utility.yul\":2022:2042   */\n      shl\n        /* \"#utility.yul\":2019:2020   */\n      0x00\n        /* \"#utility.yul\":2012:2043   */\n      mstore\n        /* \"#utility.yul\":2066:2070   */\n      0x22\n        /* \"#utility.yul\":2063:2064   */\n      0x04\n        /* \"#utility.yul\":2056:2071   */\n      mstore\n        /* \"#utility.yul\":2094:2098   */\n      0x24\n        /* \"#utility.yul\":2091:2092   */\n      0x00\n        /* \"#utility.yul\":2084:2099   */\n      revert\n        /* \"#utility.yul\":1948:2109   */\n    tag_59:\n      pop\n        /* \"#utility.yul\":1735:2115   */\n      swap2\n      swap1\n      pop\n      jump\t// out\n\n    auxdata: 0xa2646970667358221220bf30a46f94811363b78fb51ca69d55c95afc986395bb08d61de43777e9be96ce64736f6c634300081a0033\n}\n",
				"bytecode": {
					"linkReferences": {},
					"object": "608060405234801561000f575f80fd5b5060405161059d38038061059d83398101604081905261002e91610069565b5f61003983826101a1565b5060025550600180546001600160a01b0319163317905561025b565b634e487b7160e01b5f52604160045260245ffd5b5f806040838503121561007a575f80fd5b82516001600160401b0381111561008f575f80fd5b8301601f8101851361009f575f80fd5b80516001600160401b038111156100b8576100b8610055565b604051601f8201601f19908116603f011681016001600160401b03811182821017156100e6576100e6610055565b6040528181528282016020018710156100fd575f80fd5b8160208401602083015e5f60209282018301529401519395939450505050565b600181811c9082168061013157607f821691505b60208210810361014f57634e487b7160e01b5f52602260045260245ffd5b50919050565b601f82111561019c57805f5260205f20601f840160051c8101602085101561017a5750805b601f840160051c820191505b81811015610199575f8155600101610186565b50505b505050565b81516001600160401b038111156101ba576101ba610055565b6101ce816101c8845461011d565b84610155565b6020601f821160018114610200575f83156101e95750848201515b5f19600385901b1c1916600184901b178455610199565b5f84815260208120601f198516915b8281101561022f578785015182556020948501946001909201910161020f565b508482101561024c57868401515f19600387901b60f8161c191681555b50505050600190811b01905550565b610335806102685f395ff3fe60806040526004361061004c575f3560e01c806302d05d3f1461006e5780633ccfd60b146100aa57806340193883146100c05780634a79d50c146100e3578063f0ea4bfc14610104575f80fd5b3661006a573460035f828254610062919061026d565b925050819055005b5f80fd5b348015610079575f80fd5b5060015461008d906001600160a01b031681565b6040516001600160a01b0390911681526020015b60405180910390f35b3480156100b5575f80fd5b506100be610119565b005b3480156100cb575f80fd5b506100d560025481565b6040519081526020016100a1565b3480156100ee575f80fd5b506100f76101e2565b6040516100a19190610292565b34801561010f575f80fd5b506100d560035481565b6001546001600160a01b031633146101665760405162461bcd60e51b815260206004820152600b60248201526a2737ba1031b932b0ba37b960a91b60448201526064015b60405180910390fd5b60025460035410156101a95760405162461bcd60e51b815260206004820152600c60248201526b11dbd85b081b9bdd081b595d60a21b604482015260640161015d565b6001546040516001600160a01b03909116904780156108fc02915f818181858888f193505050501580156101df573d5f803e3d5ffd5b50565b5f80546101ee906102c7565b80601f016020809104026020016040519081016040528092919081815260200182805461021a906102c7565b80156102655780601f1061023c57610100808354040283529160200191610265565b820191905f5260205f20905b81548152906001019060200180831161024857829003601f168201915b505050505081565b8082018082111561028c57634e487b7160e01b5f52601160045260245ffd5b92915050565b602081525f82518060208401528060208501604085015e5f604082850101526040601f19601f83011684010191505092915050565b600181811c908216806102db57607f821691505b6020821081036102f957634e487b7160e01b5f52602260045260245ffd5b5091905056fea2646970667358221220bf30a46f94811363b78fb51ca69d55c95afc986395bb08d61de43777e9be96ce64736f6c634300081a0033",
					"opcodes": "PUSH1 0x80 PUSH1 0x40 MSTORE CALLVALUE DUP1 ISZERO PUSH2 0xF JUMPI PUSH0 DUP1 REVERT JUMPDEST POP PUSH1 0x40 MLOAD PUSH2 0x59D CODESIZE SUB DUP1 PUSH2 0x59D DUP4 CODECOPY DUP2 ADD PUSH1 0x40 DUP2 SWAP1 MSTORE PUSH2 0x2E SWAP2 PUSH2 0x69 JUMP JUMPDEST PUSH0 PUSH2 0x39 DUP4 DUP3 PUSH2 0x1A1 JUMP JUMPDEST POP PUSH1 0x2 SSTORE POP PUSH1 0x1 DUP1 SLOAD PUSH1 0x1 PUSH1 0x1 PUSH1 0xA0 SHL SUB NOT AND CALLER OR SWAP1 SSTORE PUSH2 0x25B JUMP JUMPDEST PUSH4 0x4E487B71 PUSH1 0xE0 SHL PUSH0 MSTORE PUSH1 0x41 PUSH1 0x4 MSTORE PUSH1 0x24 PUSH0 REVERT JUMPDEST PUSH0 DUP1 PUSH1 0x40 DUP4 DUP6 SUB SLT ISZERO PUSH2 0x7A JUMPI PUSH0 DUP1 REVERT JUMPDEST DUP3 MLOAD PUSH1 0x1 PUSH1 0x1 PUSH1 0x40 SHL SUB DUP2 GT ISZERO PUSH2 0x8F JUMPI PUSH0 DUP1 REVERT JUMPDEST DUP4 ADD PUSH1 0x1F DUP2 ADD DUP6 SGT PUSH2 0x9F JUMPI PUSH0 DUP1 REVERT JUMPDEST DUP1 MLOAD PUSH1 0x1 PUSH1 0x1 PUSH1 0x40 SHL SUB DUP2 GT ISZERO PUSH2 0xB8 JUMPI PUSH2 0xB8 PUSH2 0x55 JUMP JUMPDEST PUSH1 0x40 MLOAD PUSH1 0x1F DUP3 ADD PUSH1 0x1F NOT SWAP1 DUP2 AND PUSH1 0x3F ADD AND DUP2 ADD PUSH1 0x1 PUSH1 0x1 PUSH1 0x40 SHL SUB DUP2 GT DUP3 DUP3 LT OR ISZERO PUSH2 0xE6 JUMPI PUSH2 0xE6 PUSH2 0x55 JUMP JUMPDEST PUSH1 0x40 MSTORE DUP2 DUP2 MSTORE DUP3 DUP3 ADD PUSH1 0x20 ADD DUP8 LT ISZERO PUSH2 0xFD JUMPI PUSH0 DUP1 REVERT JUMPDEST DUP2 PUSH1 0x20 DUP5 ADD PUSH1 0x20 DUP4 ADD MCOPY PUSH0 PUSH1 0x20 SWAP3 DUP3 ADD DUP4 ADD MSTORE SWAP5 ADD MLOAD SWAP4 SWAP6 SWAP4 SWAP5 POP POP POP POP JUMP JUMPDEST PUSH1 0x1 DUP2 DUP2 SHR SWAP1 DUP3 AND DUP1 PUSH2 0x131 JUMPI PUSH1 0x7F DUP3 AND SWAP2 POP JUMPDEST PUSH1 0x20 DUP3 LT DUP2 SUB PUSH2 0x14F JUMPI PUSH4 0x4E487B71 PUSH1 0xE0 SHL PUSH0 MSTORE PUSH1 0x22 PUSH1 0x4 MSTORE PUSH1 0x24 PUSH0 REVERT JUMPDEST POP SWAP2 SWAP1 POP JUMP JUMPDEST PUSH1 0x1F DUP3 GT ISZERO PUSH2 0x19C JUMPI DUP1 PUSH0 MSTORE PUSH1 0x20 PUSH0 KECCAK256 PUSH1 0x1F DUP5 ADD PUSH1 0x5 SHR DUP2 ADD PUSH1 0x20 DUP6 LT ISZERO PUSH2 0x17A JUMPI POP DUP1 JUMPDEST PUSH1 0x1F DUP5 ADD PUSH1 0x5 SHR DUP3 ADD SWAP2 POP JUMPDEST DUP2 DUP2 LT ISZERO PUSH2 0x199 JUMPI PUSH0 DUP2 SSTORE PUSH1 0x1 ADD PUSH2 0x186 JUMP JUMPDEST POP POP JUMPDEST POP POP POP JUMP JUMPDEST DUP2 MLOAD PUSH1 0x1 PUSH1 0x1 PUSH1 0x40 SHL SUB DUP2 GT ISZERO PUSH2 0x1BA JUMPI PUSH2 0x1BA PUSH2 0x55 JUMP JUMPDEST PUSH2 0x1CE DUP2 PUSH2 0x1C8 DUP5 SLOAD PUSH2 0x11D JUMP JUMPDEST DUP5 PUSH2 0x155 JUMP JUMPDEST PUSH1 0x20 PUSH1 0x1F DUP3 GT PUSH1 0x1 DUP2 EQ PUSH2 0x200 JUMPI PUSH0 DUP4 ISZERO PUSH2 0x1E9 JUMPI POP DUP5 DUP3 ADD MLOAD JUMPDEST PUSH0 NOT PUSH1 0x3 DUP6 SWAP1 SHL SHR NOT AND PUSH1 0x1 DUP5 SWAP1 SHL OR DUP5 SSTORE PUSH2 0x199 JUMP JUMPDEST PUSH0 DUP5 DUP2 MSTORE PUSH1 0x20 DUP2 KECCAK256 PUSH1 0x1F NOT DUP6 AND SWAP2 JUMPDEST DUP3 DUP2 LT ISZERO PUSH2 0x22F JUMPI DUP8 DUP6 ADD MLOAD DUP3 SSTORE PUSH1 0x20 SWAP5 DUP6 ADD SWAP5 PUSH1 0x1 SWAP1 SWAP3 ADD SWAP2 ADD PUSH2 0x20F JUMP JUMPDEST POP DUP5 DUP3 LT ISZERO PUSH2 0x24C JUMPI DUP7 DUP5 ADD MLOAD PUSH0 NOT PUSH1 0x3 DUP8 SWAP1 SHL PUSH1 0xF8 AND SHR NOT AND DUP2 SSTORE JUMPDEST POP POP POP POP PUSH1 0x1 SWAP1 DUP2 SHL ADD SWAP1 SSTORE POP JUMP JUMPDEST PUSH2 0x335 DUP1 PUSH2 0x268 PUSH0 CODECOPY PUSH0 RETURN INVALID PUSH1 0x80 PUSH1 0x40 MSTORE PUSH1 0x4 CALLDATASIZE LT PUSH2 0x4C JUMPI PUSH0 CALLDATALOAD PUSH1 0xE0 SHR DUP1 PUSH4 0x2D05D3F EQ PUSH2 0x6E JUMPI DUP1 PUSH4 0x3CCFD60B EQ PUSH2 0xAA JUMPI DUP1 PUSH4 0x40193883 EQ PUSH2 0xC0 JUMPI DUP1 PUSH4 0x4A79D50C EQ PUSH2 0xE3 JUMPI DUP1 PUSH4 0xF0EA4BFC EQ PUSH2 0x104 JUMPI PUSH0 DUP1 REVERT JUMPDEST CALLDATASIZE PUSH2 0x6A JUMPI CALLVALUE PUSH1 0x3 PUSH0 DUP3 DUP3 SLOAD PUSH2 0x62 SWAP2 SWAP1 PUSH2 0x26D JUMP JUMPDEST SWAP3 POP POP DUP2 SWAP1 SSTORE STOP JUMPDEST PUSH0 DUP1 REVERT JUMPDEST CALLVALUE DUP1 ISZERO PUSH2 0x79 JUMPI PUSH0 DUP1 REVERT JUMPDEST POP PUSH1 0x1 SLOAD PUSH2 0x8D SWAP1 PUSH1 0x1 PUSH1 0x1 PUSH1 0xA0 SHL SUB AND DUP2 JUMP JUMPDEST PUSH1 0x40 MLOAD PUSH1 0x1 PUSH1 0x1 PUSH1 0xA0 SHL SUB SWAP1 SWAP2 AND DUP2 MSTORE PUSH1 0x20 ADD JUMPDEST PUSH1 0x40 MLOAD DUP1 SWAP2 SUB SWAP1 RETURN JUMPDEST CALLVALUE DUP1 ISZERO PUSH2 0xB5 JUMPI PUSH0 DUP1 REVERT JUMPDEST POP PUSH2 0xBE PUSH2 0x119 JUMP JUMPDEST STOP JUMPDEST CALLVALUE DUP1 ISZERO PUSH2 0xCB JUMPI PUSH0 DUP1 REVERT JUMPDEST POP PUSH2 0xD5 PUSH1 0x2 SLOAD DUP2 JUMP JUMPDEST PUSH1 0x40 MLOAD SWAP1 DUP2 MSTORE PUSH1 0x20 ADD PUSH2 0xA1 JUMP JUMPDEST CALLVALUE DUP1 ISZERO PUSH2 0xEE JUMPI PUSH0 DUP1 REVERT JUMPDEST POP PUSH2 0xF7 PUSH2 0x1E2 JUMP JUMPDEST PUSH1 0x40 MLOAD PUSH2 0xA1 SWAP2 SWAP1 PUSH2 0x292 JUMP JUMPDEST CALLVALUE DUP1 ISZERO PUSH2 0x10F JUMPI PUSH0 DUP1 REVERT JUMPDEST POP PUSH2 0xD5 PUSH1 0x3 SLOAD DUP2 JUMP JUMPDEST PUSH1 0x1 SLOAD PUSH1 0x1 PUSH1 0x1 PUSH1 0xA0 SHL SUB AND CALLER EQ PUSH2 0x166 JUMPI PUSH1 0x40 MLOAD PUSH3 0x461BCD PUSH1 0xE5 SHL DUP2 MSTORE PUSH1 0x20 PUSH1 0x4 DUP3 ADD MSTORE PUSH1 0xB PUSH1 0x24 DUP3 ADD MSTORE PUSH11 0x2737BA1031B932B0BA37B9 PUSH1 0xA9 SHL PUSH1 0x44 DUP3 ADD MSTORE PUSH1 0x64 ADD JUMPDEST PUSH1 0x40 MLOAD DUP1 SWAP2 SUB SWAP1 REVERT JUMPDEST PUSH1 0x2 SLOAD PUSH1 0x3 SLOAD LT ISZERO PUSH2 0x1A9 JUMPI PUSH1 0x40 MLOAD PUSH3 0x461BCD PUSH1 0xE5 SHL DUP2 MSTORE PUSH1 0x20 PUSH1 0x4 DUP3 ADD MSTORE PUSH1 0xC PUSH1 0x24 DUP3 ADD MSTORE PUSH12 0x11DBD85B081B9BDD081B595D PUSH1 0xA2 SHL PUSH1 0x44 DUP3 ADD MSTORE PUSH1 0x64 ADD PUSH2 0x15D JUMP JUMPDEST PUSH1 0x1 SLOAD PUSH1 0x40 MLOAD PUSH1 0x1 PUSH1 0x1 PUSH1 0xA0 SHL SUB SWAP1 SWAP2 AND SWAP1 SELFBALANCE DUP1 ISZERO PUSH2 0x8FC MUL SWAP2 PUSH0 DUP2 DUP2 DUP2 DUP6 DUP9 DUP9 CALL SWAP4 POP POP POP POP ISZERO DUP1 ISZERO PUSH2 0x1DF JUMPI RETURNDATASIZE PUSH0 DUP1 RETURNDATACOPY RETURNDATASIZE PUSH0 REVERT JUMPDEST POP JUMP JUMPDEST PUSH0 DUP1 SLOAD PUSH2 0x1EE SWAP1 PUSH2 0x2C7 JUMP JUMPDEST DUP1 PUSH1 0x1F ADD PUSH1 0x20 DUP1 SWAP2 DIV MUL PUSH1 0x20 ADD PUSH1 0x40 MLOAD SWAP1 DUP2 ADD PUSH1 0x40 MSTORE DUP1 SWAP3 SWAP2 SWAP1 DUP2 DUP2 MSTORE PUSH1 0x20 ADD DUP3 DUP1 SLOAD PUSH2 0x21A SWAP1 PUSH2 0x2C7 JUMP JUMPDEST DUP1 ISZERO PUSH2 0x265 JUMPI DUP1 PUSH1 0x1F LT PUSH2 0x23C JUMPI PUSH2 0x100 DUP1 DUP4 SLOAD DIV MUL DUP4 MSTORE SWAP2 PUSH1 0x20 ADD SWAP2 PUSH2 0x265 JUMP JUMPDEST DUP3 ADD SWAP2 SWAP1 PUSH0 MSTORE PUSH1 0x20 PUSH0 KECCAK256 SWAP1 JUMPDEST DUP2 SLOAD DUP2 MSTORE SWAP1 PUSH1 0x1 ADD SWAP1 PUSH1 0x20 ADD DUP1 DUP4 GT PUSH2 0x248 JUMPI DUP3 SWAP1 SUB PUSH1 0x1F AND DUP3 ADD SWAP2 JUMPDEST POP POP POP POP POP DUP2 JUMP JUMPDEST DUP1 DUP3 ADD DUP1 DUP3 GT ISZERO PUSH2 0x28C JUMPI PUSH4 0x4E487B71 PUSH1 0xE0 SHL PUSH0 MSTORE PUSH1 0x11 PUSH1 0x4 MSTORE PUSH1 0x24 PUSH0 REVERT JUMPDEST SWAP3 SWAP2 POP POP JUMP JUMPDEST PUSH1 0x20 DUP2 MSTORE PUSH0 DUP3 MLOAD DUP1 PUSH1 0x20 DUP5 ADD MSTORE DUP1 PUSH1 0x20 DUP6 ADD PUSH1 0x40 DUP6 ADD MCOPY PUSH0 PUSH1 0x40 DUP3 DUP6 ADD ADD MSTORE PUSH1 0x40 PUSH1 0x1F NOT PUSH1 0x1F DUP4 ADD AND DUP5 ADD ADD SWAP2 POP POP SWAP3 SWAP2 POP POP JUMP JUMPDEST PUSH1 0x1 DUP2 DUP2 SHR SWAP1 DUP3 AND DUP1 PUSH2 0x2DB JUMPI PUSH1 0x7F DUP3 AND SWAP2 POP JUMPDEST PUSH1 0x20 DUP3 LT DUP2 SUB PUSH2 0x2F9 JUMPI PUSH4 0x4E487B71 PUSH1 0xE0 SHL PUSH0 MSTORE PUSH1 0x22 PUSH1 0x4 MSTORE PUSH1 0x24 PUSH0 REVERT JUMPDEST POP SWAP2 SWAP1 POP JUMP INVALID LOG2 PUSH5 0x6970667358 0x22 SLT KECCAK256 0xBF ADDRESS LOG4 PUSH16 0x94811363B78FB51CA69D55C95AFC9863 SWAP6 0xBB ADDMOD 0xD6 SAR 0xE4 CALLDATACOPY PUSH24 0xE9BE96CE64736F6C634300081A0033000000000000000000 "
				},
				"gasEstimates": {
					"creation": {
						"codeDepositCost": "164200",
						"executionCost": "infinite",
						"totalCost": "infinite"
					},
					"external": {
						"creator()": "2303",
						"goal()": "2316",
						"raised()": "2360",
						"title()": "infinite",
						"withdraw()": "infinite"
					}
				},
				"methodIdentifiers": {
					"creator()": "02d05d3f",
					"goal()": "40193883",
					"raised()": "f0ea4bfc",
					"title()": "4a79d50c",
					"withdraw()": "3ccfd60b"
				}
			},
			"storageLayout": {
				"storage": [
					{
						"astId": 3,
						"contract": "crowdbatch.sol:Crowdfund",
						"label": "title",
						"offset": 0,
						"slot": "0",
						"type": "t_string_storage"
					},
					{
						"astId": 5,
						"contract": "crowdbatch.sol:Crowdfund",
						"label": "creator",
						"offset": 0,
						"slot": "1",
						"type": "t_address"
					},
					{
						"astId": 7,
						"contract": "crowdbatch.sol:Crowdfund",
						"label": "goal",
						"offset": 0,
						"slot": "2",
						"type": "t_uint256"
					},
					{
						"astId": 9,
						"contract": "crowdbatch.sol:Crowdfund",
						"label": "raised",
						"offset": 0,
						"slot": "3",
						"type": "t_uint256"
					}
				],
				"types": {
					"t_address": {
						"encoding": "inplace",
						"label": "address",
						"numberOfBytes": "20"
					},
					"t_string_storage": {
						"encoding": "bytes",
						"label": "string",
						"numberOfBytes": "32"
					},
					"t_uint256": {
						"encoding": "inplace",
						"label": "uint256",
						"numberOfBytes": "32"
					}
				}
			},
			"userdoc": {
				"kind": "user",
				"methods": {},
				"version": 1
			}
		}
	}
}