{
	"crowdbatch.sol": {
		"BatchDeployCrowdfund": {
			"abi": [
				{
					"inputs": [
						{
							"internalType": "uint256",
							"name": "",
							"type": "uint256"
						}
					],
					"name": "campaigns",
					"outputs": [
						{
							"internalType": "contract Crowdfund",
							"name": "",
							"type": "address"
						}
					],
					"stateMutability": "view",
					"type": "function"
				},
				{
					"inputs": [],
					"name": "deployAll",
					"outputs": [],
					"stateMutability": "nonpayable",
					"type": "function"
				},
				{
					"inputs": [
						{
							"internalType": "uint256",
							"name": "index",
							"type": "uint256"
						}
					],
					"name": "get",
					"outputs": [
						{
							"internalType": "address",
							"name": "",
							"type": "address"
						}
					],
					"stateMutability": "view",
					"type": "function"
				}
			],
			"devdoc": {
				"kind": "dev",
				"methods": {},
				"version": 1
			},
			"evm": {
				"assembly": "    /* \"crowdbatch.sol\":613:1540  contract BatchDeployCrowdfund {... */\n  mstore(0x40, 0x80)\n  callvalue\n  dup1\n  iszero\n  tag_1\n  jumpi\n  0x00\n  dup1\n  revert\ntag_1:\n  pop\n  dataSize(sub_0)\n  dup1\n  dataOffset(sub_0)\n  0x00\n  codecopy\n  0x00\n  return\nstop\n\nsub_0: assembly {\n        /* \"crowdbatch.sol\":613:1540  contract BatchDeployCrowdfund {... */\n      mstore(0x40, 0x80)\n      callvalue\n      dup1\n      iszero\n      tag_1\n      jumpi\n      0x00\n      dup1\n      revert\n    tag_1:\n      pop\n      jumpi(tag_2, lt(calldatasize, 0x04))\n      shr(0xe0, calldataload(0x00))\n      dup1\n      0x141961bc\n      eq\n      tag_3\n      jumpi\n      dup1\n      0x2d823335\n      eq\n      tag_4\n      jumpi\n      dup1\n      0x9507d39a\n      eq\n      tag_5\n      jumpi\n    tag_2:\n      0x00\n      dup1\n      revert\n        /* \"crowdbatch.sol\":650:678  Crowdfund[] public campaigns */\n    tag_3:\n      tag_6\n      tag_7\n      calldatasize\n      0x04\n      tag_8\n      jump\t// in\n    tag_7:\n      tag_9\n      jump\t// in\n    tag_6:\n      mload(0x40)\n      sub(shl(0xa0, 0x01), 0x01)\n        /* \"#utility.yul\":387:419   */\n      swap1\n      swap2\n      and\n        /* \"#utility.yul\":369:420   */\n      dup2\n      mstore\n        /* \"#utility.yul\":357:359   */\n      0x20\n        /* \"#utility.yul\":342:360   */\n      add\n        /* \"crowdbatch.sol\":650:678  Crowdfund[] public campaigns */\n      mload(0x40)\n      dup1\n      swap2\n      sub\n      swap1\n      return\n        /* \"crowdbatch.sol\":687:1048  function deployAll() public {... */\n    tag_4:\n      tag_12\n      tag_13\n      jump\t// in\n    tag_12:\n      stop\n        /* \"crowdbatch.sol\":1056:1162  function get(uint index) public view returns (address) {... */\n    tag_5:\n      tag_6\n      tag_15\n      calldatasize\n      0x04\n      tag_8\n      jump\t// in\n    tag_15:\n      tag_16\n      jump\t// in\n        /* \"crowdbatch.sol\":650:678  Crowdfund[] public campaigns */\n    tag_9:\n      0x00\n      dup2\n      dup2\n      sload\n      dup2\n      lt\n      tag_19\n      jumpi\n      0x00\n      dup1\n      revert\n    tag_19:\n      0x00\n      swap2\n      dup3\n      mstore\n      0x20\n      swap1\n      swap2\n      keccak256\n      add\n      sload\n      sub(shl(0xa0, 0x01), 0x01)\n      and\n      swap1\n      pop\n      dup2\n      jump\t// out\n        /* \"crowdbatch.sol\":687:1048  function deployAll() public {... */\n    tag_13:\n        /* \"crowdbatch.sol\":734:743  campaigns */\n      0x00\n        /* \"crowdbatch.sol\":734:750  campaigns.length */\n      sload\n        /* \"crowdbatch.sol\":734:755  campaigns.length == 0 */\n      iszero\n        /* \"crowdbatch.sol\":726:776  require(campaigns.length == 0, \"Already deployed\") */\n      tag_22\n      jumpi\n      mload(0x40)\n      shl(0xe5, 0x461bcd)\n      dup2\n      mstore\n        /* \"#utility.yul\":841:843   */\n      0x20\n        /* \"crowdbatch.sol\":726:776  require(campaigns.length == 0, \"Already deployed\") */\n      0x04\n      dup3\n      add\n        /* \"#utility.yul\":823:844   */\n      mstore\n        /* \"#utility.yul\":880:882   */\n      0x10\n        /* \"#utility.yul\":860:878   */\n      0x24\n      dup3\n      add\n        /* \"#utility.yul\":853:883   */\n      mstore\n      shl(0x82, 0x105b1c9958591e4819195c1b1bde5959)\n        /* \"#utility.yul\":899:917   */\n      0x44\n      dup3\n      add\n        /* \"#utility.yul\":892:938   */\n      mstore\n        /* \"#utility.yul\":955:973   */\n      0x64\n      add\n        /* \"crowdbatch.sol\":726:776  require(campaigns.length == 0, \"Already deployed\") */\n      mload(0x40)\n      dup1\n      swap2\n      sub\n      swap1\n      revert\n    tag_22:\n        /* \"crowdbatch.sol\":803:804  1 */\n      0x01\n        /* \"crowdbatch.sol\":789:1041  for (uint i = 1; i <= 30; i++) {... */\n    tag_25:\n        /* \"crowdbatch.sol\":811:813  30 */\n      0x1e\n        /* \"crowdbatch.sol\":806:807  i */\n      dup2\n        /* \"crowdbatch.sol\":806:813  i <= 30 */\n      gt\n        /* \"crowdbatch.sol\":789:1041  for (uint i = 1; i <= 30; i++) {... */\n      tag_26\n      jumpi\n        /* \"crowdbatch.sol\":835:853  string memory name */\n      0x00\n        /* \"crowdbatch.sol\":892:903  uint2str(i) */\n      tag_28\n        /* \"crowdbatch.sol\":901:902  i */\n      dup3\n        /* \"crowdbatch.sol\":892:900  uint2str */\n      tag_29\n        /* \"crowdbatch.sol\":892:903  uint2str(i) */\n      jump\t// in\n    tag_28:\n        /* \"crowdbatch.sol\":863:904  abi.encodePacked(\"Campaign\", uint2str(i)) */\n      add(0x20, mload(0x40))\n      tag_30\n      swap2\n      swap1\n      tag_31\n      jump\t// in\n    tag_30:\n      0x40\n      dup1\n      mload\n      not(0x1f)\n      dup2\n      dup5\n      sub\n      add\n      dup2\n      mstore\n      swap2\n      swap1\n      mstore\n      swap1\n      pop\n        /* \"crowdbatch.sol\":920:929  uint goal */\n      0x00\n        /* \"crowdbatch.sol\":932:943  i * 1 ether */\n      tag_32\n        /* \"crowdbatch.sol\":932:933  i */\n      dup4\n        /* \"crowdbatch.sol\":936:943  1 ether */\n      0x0de0b6b3a7640000\n        /* \"crowdbatch.sol\":932:943  i * 1 ether */\n      tag_33\n      jump\t// in\n    tag_32:\n        /* \"crowdbatch.sol\":920:943  uint goal = i * 1 ether */\n      swap1\n      pop\n        /* \"crowdbatch.sol\":958:969  Crowdfund c */\n      0x00\n        /* \"crowdbatch.sol\":986:990  name */\n      dup3\n        /* \"crowdbatch.sol\":992:996  goal */\n      dup3\n        /* \"crowdbatch.sol\":972:997  new Crowdfund(name, goal) */\n      mload(0x40)\n      tag_34\n      swap1\n      tag_35\n      jump\t// in\n    tag_34:\n      tag_36\n      swap3\n      swap2\n      swap1\n      tag_37\n      jump\t// in\n    tag_36:\n      mload(0x40)\n      dup1\n      swap2\n      sub\n      swap1\n      0x00\n      create\n      dup1\n      iszero\n      dup1\n      iszero\n      tag_38\n      jumpi\n      returndatasize\n      0x00\n      dup1\n      returndatacopy\n      revert(0x00, returndatasize)\n    tag_38:\n      pop\n        /* \"crowdbatch.sol\":1012:1021  campaigns */\n      0x00\n        /* \"crowdbatch.sol\":1012:1029  campaigns.push(c) */\n      dup1\n      sload\n      0x01\n      dup2\n      add\n      dup3\n      sstore\n      swap1\n      dup1\n      mstore\n      0x290decd9548b62a8d60345a988386fc84ba6bc95484008f6362f93160ef3e563\n      add\n      dup1\n      sload\n      not(sub(shl(0xa0, 0x01), 0x01))\n      and\n      sub(shl(0xa0, 0x01), 0x01)\n      swap3\n      swap1\n      swap3\n      and\n      swap2\n      swap1\n      swap2\n      or\n      swap1\n      sstore\n      pop\n        /* \"crowdbatch.sol\":815:818  i++ */\n      dup3\n      swap2\n      pop\n      tag_40\n      swap1\n      pop\n      dup2\n      tag_41\n      jump\t// in\n    tag_40:\n      swap2\n      pop\n      pop\n        /* \"crowdbatch.sol\":789:1041  for (uint i = 1; i <= 30; i++) {... */\n      jump(tag_25)\n    tag_26:\n      pop\n        /* \"crowdbatch.sol\":687:1048  function deployAll() public {... */\n      jump\t// out\n        /* \"crowdbatch.sol\":1056:1162  function get(uint index) public view returns (address) {... */\n    tag_16:\n        /* \"crowdbatch.sol\":1102:1109  address */\n      0x00\n        /* \"crowdbatch.sol\":1137:1146  campaigns */\n      dup1\n        /* \"crowdbatch.sol\":1147:1152  index */\n      dup3\n        /* \"crowdbatch.sol\":1137:1153  campaigns[index] */\n      dup2\n      sload\n      dup2\n      lt\n      tag_44\n      jumpi\n      tag_44\n      tag_45\n      jump\t// in\n    tag_44:\n      0x00\n      swap2\n      dup3\n      mstore\n      0x20\n      swap1\n      swap2\n      keccak256\n      add\n      sload\n      sub(shl(0xa0, 0x01), 0x01)\n      and\n      swap3\n        /* \"crowdbatch.sol\":1056:1162  function get(uint index) public view returns (address) {... */\n      swap2\n      pop\n      pop\n      jump\t// out\n        /* \"crowdbatch.sol\":1170:1537  function uint2str(uint _i) internal pure returns (string memory str) {... */\n    tag_29:\n        /* \"crowdbatch.sol\":1220:1237  string memory str */\n      0x60\n        /* \"crowdbatch.sol\":1254:1256  _i */\n      dup2\n        /* \"crowdbatch.sol\":1260:1261  0 */\n      0x00\n        /* \"crowdbatch.sol\":1254:1261  _i == 0 */\n      sub\n        /* \"crowdbatch.sol\":1250:1273  if (_i == 0) return \"0\" */\n      tag_48\n      jumpi\n      pop\n      pop\n        /* \"crowdbatch.sol\":1263:1273  return \"0\" */\n      0x40\n      dup1\n      mload\n      dup1\n      dup3\n      add\n      swap1\n      swap2\n      mstore\n      0x01\n      dup2\n      mstore\n      shl(0xfc, 0x03)\n      0x20\n      dup3\n      add\n      mstore\n      swap1\n        /* \"crowdbatch.sol\":1170:1537  function uint2str(uint _i) internal pure returns (string memory str) {... */\n      jump\t// out\n        /* \"crowdbatch.sol\":1250:1273  if (_i == 0) return \"0\" */\n    tag_48:\n        /* \"crowdbatch.sol\":1293:1295  _i */\n      dup2\n        /* \"crowdbatch.sol\":1284:1290  uint j */\n      0x00\n        /* \"crowdbatch.sol\":1316:1350  while (j != 0) { len++; j /= 10; } */\n    tag_49:\n        /* \"crowdbatch.sol\":1323:1329  j != 0 */\n      dup2\n      iszero\n        /* \"crowdbatch.sol\":1316:1350  while (j != 0) { len++; j /= 10; } */\n      tag_50\n      jumpi\n        /* \"crowdbatch.sol\":1333:1338  len++ */\n      dup1\n      tag_51\n      dup2\n      tag_41\n      jump\t// in\n    tag_51:\n      swap2\n      pop\n        /* \"crowdbatch.sol\":1340:1347  j /= 10 */\n      tag_52\n      swap1\n      pop\n        /* \"crowdbatch.sol\":1345:1347  10 */\n      0x0a\n        /* \"crowdbatch.sol\":1340:1347  j /= 10 */\n      dup4\n      tag_53\n      jump\t// in\n    tag_52:\n      swap2\n      pop\n        /* \"crowdbatch.sol\":1316:1350  while (j != 0) { len++; j /= 10; } */\n      jump(tag_49)\n    tag_50:\n        /* \"crowdbatch.sol\":1360:1377  bytes memory bstr */\n      0x00\n        /* \"crowdbatch.sol\":1390:1393  len */\n      dup2\n        /* \"crowdbatch.sol\":1380:1394  new bytes(len) */\n      0xffffffffffffffff\n      dup2\n      gt\n      iszero\n      tag_55\n      jumpi\n      tag_55\n      tag_56\n      jump\t// in\n    tag_55:\n      mload(0x40)\n      swap1\n      dup1\n      dup3\n      mstore\n      dup1\n      0x1f\n      add\n      not(0x1f)\n      and\n      0x20\n      add\n      dup3\n      add\n      0x40\n      mstore\n      dup1\n      iszero\n      tag_57\n      jumpi\n      0x20\n      dup3\n      add\n      dup2\n      dup1\n      calldatasize\n      dup4\n      calldatacopy\n      add\n      swap1\n      pop\n    tag_57:\n      pop\n        /* \"crowdbatch.sol\":1360:1394  bytes memory bstr = new bytes(len) */\n      swap1\n      pop\n        /* \"crowdbatch.sol\":1414:1417  len */\n      dup2\n        /* \"crowdbatch.sol\":1428:1501  while (_i != 0) { k--; bstr[k] = bytes1(uint8(48 + _i % 10)); _i /= 10; } */\n    tag_58:\n        /* \"crowdbatch.sol\":1435:1442  _i != 0 */\n      dup6\n      iszero\n        /* \"crowdbatch.sol\":1428:1501  while (_i != 0) { k--; bstr[k] = bytes1(uint8(48 + _i % 10)); _i /= 10; } */\n      tag_59\n      jumpi\n        /* \"crowdbatch.sol\":1446:1449  k-- */\n      dup1\n      tag_60\n      dup2\n      tag_61\n      jump\t// in\n    tag_60:\n      swap2\n      pop\n        /* \"crowdbatch.sol\":1479:1486  _i % 10 */\n      tag_62\n      swap1\n      pop\n        /* \"crowdbatch.sol\":1484:1486  10 */\n      0x0a\n        /* \"crowdbatch.sol\":1479:1481  _i */\n      dup8\n        /* \"crowdbatch.sol\":1479:1486  _i % 10 */\n      tag_63\n      jump\t// in\n    tag_62:\n        /* \"crowdbatch.sol\":1474:1486  48 + _i % 10 */\n      tag_64\n      swap1\n        /* \"crowdbatch.sol\":1474:1476  48 */\n      0x30\n        /* \"crowdbatch.sol\":1474:1486  48 + _i % 10 */\n      tag_65\n      jump\t// in\n    tag_64:\n        /* \"crowdbatch.sol\":1461:1488  bytes1(uint8(48 + _i % 10)) */\n      0xf8\n      shl\n        /* \"crowdbatch.sol\":1451:1455  bstr */\n      dup3\n        /* \"crowdbatch.sol\":1456:1457  k */\n      dup3\n        /* \"crowdbatch.sol\":1451:1458  bstr[k] */\n      dup2\n      mload\n      dup2\n      lt\n      tag_67\n      jumpi\n      tag_67\n      tag_45\n      jump\t// in\n    tag_67:\n      0x20\n      add\n      add\n        /* \"crowdbatch.sol\":1451:1488  bstr[k] = bytes1(uint8(48 + _i % 10)) */\n      swap1\n      not(sub(shl(0xf8, 0x01), 0x01))\n      and\n      swap1\n      dup2\n      0x00\n      byte\n      swap1\n      mstore8\n      pop\n        /* \"crowdbatch.sol\":1490:1498  _i /= 10 */\n      tag_68\n        /* \"crowdbatch.sol\":1496:1498  10 */\n      0x0a\n        /* \"crowdbatch.sol\":1490:1498  _i /= 10 */\n      dup8\n      tag_53\n      jump\t// in\n    tag_68:\n      swap6\n      pop\n        /* \"crowdbatch.sol\":1428:1501  while (_i != 0) { k--; bstr[k] = bytes1(uint8(48 + _i % 10)); _i /= 10; } */\n      jump(tag_58)\n    tag_59:\n      pop\n        /* \"crowdbatch.sol\":1524:1528  bstr */\n      swap5\n        /* \"crowdbatch.sol\":1170:1537  function uint2str(uint _i) internal pure returns (string memory str) {... */\n      swap4\n      pop\n      pop\n      pop\n      pop\n      jump\t// out\n    tag_35:\n      dataSize(sub_0)\n      dup1\n      dataOffset(sub_0)\n      dup4\n      codecopy\n      add\n      swap1\n      jump\t// out\n        /* \"#utility.yul\":14:194   */\n    tag_8:\n        /* \"#utility.yul\":73:79   */\n      0x00\n        /* \"#utility.yul\":126:128   */\n      0x20\n        /* \"#utility.yul\":114:123   */\n      dup3\n        /* \"#utility.yul\":105:112   */\n      dup5\n        /* \"#utility.yul\":101:124   */\n      sub\n        /* \"#utility.yul\":97:129   */\n      slt\n        /* \"#utility.yul\":94:146   */\n      iszero\n      tag_73\n      jumpi\n        /* \"#utility.yul\":142:143   */\n      0x00\n        /* \"#utility.yul\":139:140   */\n      dup1\n        /* \"#utility.yul\":132:144   */\n      revert\n        /* \"#utility.yul\":94:146   */\n    tag_73:\n      pop\n        /* \"#utility.yul\":165:188   */\n      calldataload\n      swap2\n        /* \"#utility.yul\":14:194   */\n      swap1\n      pop\n      jump\t// out\n        /* \"#utility.yul\":984:1436   */\n    tag_31:\n      shl(0xc1, 0x21b0b6b830b4b3b7)\n        /* \"#utility.yul\":1241:1244   */\n      dup2\n        /* \"#utility.yul\":1234:1257   */\n      mstore\n        /* \"#utility.yul\":1216:1219   */\n      0x00\n        /* \"#utility.yul\":1286:1292   */\n      dup3\n        /* \"#utility.yul\":1280:1293   */\n      mload\n        /* \"#utility.yul\":1340:1346   */\n      dup1\n        /* \"#utility.yul\":1333:1337   */\n      0x20\n        /* \"#utility.yul\":1325:1331   */\n      dup6\n        /* \"#utility.yul\":1321:1338   */\n      add\n        /* \"#utility.yul\":1317:1318   */\n      0x08\n        /* \"#utility.yul\":1312:1315   */\n      dup6\n        /* \"#utility.yul\":1308:1319   */\n      add\n        /* \"#utility.yul\":1302:1347   */\n      mcopy\n        /* \"#utility.yul\":1410:1411   */\n      0x00\n        /* \"#utility.yul\":1370:1386   */\n      swap3\n      add\n        /* \"#utility.yul\":1388:1389   */\n      0x08\n        /* \"#utility.yul\":1366:1390   */\n      add\n        /* \"#utility.yul\":1399:1412   */\n      swap2\n      dup3\n      mstore\n      pop\n        /* \"#utility.yul\":1366:1390   */\n      swap2\n        /* \"#utility.yul\":984:1436   */\n      swap1\n      pop\n      jump\t// out\n        /* \"#utility.yul\":1441:1568   */\n    tag_69:\n        /* \"#utility.yul\":1502:1512   */\n      0x4e487b71\n        /* \"#utility.yul\":1497:1500   */\n      0xe0\n        /* \"#utility.yul\":1493:1513   */\n      shl\n        /* \"#utility.yul\":1490:1491   */\n      0x00\n        /* \"#utility.yul\":1483:1514   */\n      mstore\n        /* \"#utility.yul\":1533:1537   */\n      0x11\n        /* \"#utility.yul\":1530:1531   */\n      0x04\n        /* \"#utility.yul\":1523:1538   */\n      mstore\n        /* \"#utility.yul\":1557:1561   */\n      0x24\n        /* \"#utility.yul\":1554:1555   */\n      0x00\n        /* \"#utility.yul\":1547:1562   */\n      revert\n        /* \"#utility.yul\":1573:1741   */\n    tag_33:\n        /* \"#utility.yul\":1646:1655   */\n      dup1\n      dup3\n      mul\n        /* \"#utility.yul\":1677:1686   */\n      dup2\n      iszero\n        /* \"#utility.yul\":1694:1709   */\n      dup3\n      dup3\n      div\n        /* \"#utility.yul\":1688:1710   */\n      dup5\n      eq\n        /* \"#utility.yul\":1674:1711   */\n      or\n        /* \"#utility.yul\":1664:1735   */\n      tag_81\n      jumpi\n        /* \"#utility.yul\":1715:1733   */\n      tag_81\n      tag_69\n      jump\t// in\n    tag_81:\n        /* \"#utility.yul\":1573:1741   */\n      swap3\n      swap2\n      pop\n      pop\n      jump\t// out\n        /* \"#utility.yul\":1746:2239   */\n    tag_37:\n        /* \"#utility.yul\":1923:1925   */\n      0x40\n        /* \"#utility.yul\":1912:1921   */\n      dup2\n        /* \"#utility.yul\":1905:1926   */\n      mstore\n        /* \"#utility.yul\":1886:1890   */\n      0x00\n        /* \"#utility.yul\":1955:1961   */\n      dup4\n        /* \"#utility.yul\":1949:1962   */\n      mload\n        /* \"#utility.yul\":1998:2004   */\n      dup1\n        /* \"#utility.yul\":1993:1995   */\n      0x40\n        /* \"#utility.yul\":1982:1991   */\n      dup5\n        /* \"#utility.yul\":1978:1996   */\n      add\n        /* \"#utility.yul\":1971:2005   */\n      mstore\n        /* \"#utility.yul\":2059:2065   */\n      dup1\n        /* \"#utility.yul\":2052:2056   */\n      0x20\n        /* \"#utility.yul\":2044:2050   */\n      dup7\n        /* \"#utility.yul\":2040:2057   */\n      add\n        /* \"#utility.yul\":2035:2037   */\n      0x60\n        /* \"#utility.yul\":2024:2033   */\n      dup6\n        /* \"#utility.yul\":2020:2038   */\n      add\n        /* \"#utility.yul\":2014:2066   */\n      mcopy\n        /* \"#utility.yul\":2115:2116   */\n      0x00\n        /* \"#utility.yul\":2110:2112   */\n      0x60\n        /* \"#utility.yul\":2101:2107   */\n      dup3\n        /* \"#utility.yul\":2090:2099   */\n      dup6\n        /* \"#utility.yul\":2086:2108   */\n      add\n        /* \"#utility.yul\":2082:2113   */\n      add\n        /* \"#utility.yul\":2075:2117   */\n      mstore\n        /* \"#utility.yul\":2185:2187   */\n      0x60\n        /* \"#utility.yul\":2178:2180   */\n      0x1f\n        /* \"#utility.yul\":2174:2181   */\n      not\n        /* \"#utility.yul\":2169:2171   */\n      0x1f\n        /* \"#utility.yul\":2161:2167   */\n      dup4\n        /* \"#utility.yul\":2157:2172   */\n      add\n        /* \"#utility.yul\":2153:2182   */\n      and\n        /* \"#utility.yul\":2142:2151   */\n      dup5\n        /* \"#utility.yul\":2138:2183   */\n      add\n        /* \"#utility.yul\":2134:2188   */\n      add\n        /* \"#utility.yul\":2126:2188   */\n      swap2\n      pop\n      pop\n        /* \"#utility.yul\":2226:2232   */\n      dup3\n        /* \"#utility.yul\":2219:2223   */\n      0x20\n        /* \"#utility.yul\":2208:2217   */\n      dup4\n        /* \"#utility.yul\":2204:2224   */\n      add\n        /* \"#utility.yul\":2197:2233   */\n      mstore\n        /* \"#utility.yul\":1746:2239   */\n      swap4\n      swap3\n      pop\n      pop\n      pop\n      jump\t// out\n        /* \"#utility.yul\":2244:2379   */\n    tag_41:\n        /* \"#utility.yul\":2283:2286   */\n      0x00\n        /* \"#utility.yul\":2304:2321   */\n      0x01\n      dup3\n      add\n        /* \"#utility.yul\":2301:2344   */\n      tag_85\n      jumpi\n        /* \"#utility.yul\":2324:2342   */\n      tag_85\n      tag_69\n      jump\t// in\n    tag_85:\n      pop\n        /* \"#utility.yul\":2371:2372   */\n      0x01\n        /* \"#utility.yul\":2360:2373   */\n      add\n      swap1\n        /* \"#utility.yul\":2244:2379   */\n      jump\t// out\n        /* \"#utility.yul\":2384:2511   */\n    tag_45:\n        /* \"#utility.yul\":2445:2455   */\n      0x4e487b71\n        /* \"#utility.yul\":2440:2443   */\n      0xe0\n        /* \"#utility.yul\":2436:2456   */\n      shl\n        /* \"#utility.yul\":2433:2434   */\n      0x00\n        /* \"#utility.yul\":2426:2457   */\n      mstore\n        /* \"#utility.yul\":2476:2480   */\n      0x32\n        /* \"#utility.yul\":2473:2474   */\n      0x04\n        /* \"#utility.yul\":2466:2481   */\n      mstore\n        /* \"#utility.yul\":2500:2504   */\n      0x24\n        /* \"#utility.yul\":2497:2498   */\n      0x00\n        /* \"#utility.yul\":2490:2505   */\n      revert\n        /* \"#utility.yul\":2516:2643   */\n    tag_70:\n        /* \"#utility.yul\":2577:2587   */\n      0x4e487b71\n        /* \"#utility.yul\":2572:2575   */\n      0xe0\n        /* \"#utility.yul\":2568:2588   */\n      shl\n        /* \"#utility.yul\":2565:2566   */\n      0x00\n        /* \"#utility.yul\":2558:2589   */\n      mstore\n        /* \"#utility.yul\":2608:2612   */\n      0x12\n        /* \"#utility.yul\":2605:2606   */\n      0x04\n        /* \"#utility.yul\":2598:2613   */\n      mstore\n        /* \"#utility.yul\":2632:2636   */\n      0x24\n        /* \"#utility.yul\":2629:2630   */\n      0x00\n        /* \"#utility.yul\":2622:2637   */\n      revert\n        /* \"#utility.yul\":2648:2768   */\n    tag_53:\n        /* \"#utility.yul\":2688:2689   */\n      0x00\n        /* \"#utility.yul\":2714:2715   */\n      dup3\n        /* \"#utility.yul\":2704:2739   */\n      tag_90\n      jumpi\n        /* \"#utility.yul\":2719:2737   */\n      tag_90\n      tag_70\n      jump\t// in\n    tag_90:\n      pop\n        /* \"#utility.yul\":2753:2762   */\n      div\n      swap1\n        /* \"#utility.yul\":2648:2768   */\n      jump\t// out\n        /* \"#utility.yul\":2773:2900   */\n    tag_56:\n        /* \"#utility.yul\":2834:2844   */\n      0x4e487b71\n        /* \"#utility.yul\":2829:2832   */\n      0xe0\n        /* \"#utility.yul\":2825:2845   */\n      shl\n        /* \"#utility.yul\":2822:2823   */\n      0x00\n        /* \"#utility.yul\":2815:2846   */\n      mstore\n        /* \"#utility.yul\":2865:2869   */\n      0x41\n        /* \"#utility.yul\":2862:2863   */\n      0x04\n        /* \"#utility.yul\":2855:2870   */\n      mstore\n        /* \"#utility.yul\":2889:2893   */\n      0x24\n        /* \"#utility.yul\":2886:2887   */\n      0x00\n        /* \"#utility.yul\":2879:2894   */\n      revert\n        /* \"#utility.yul\":2905:3041   */\n    tag_61:\n        /* \"#utility.yul\":2944:2947   */\n      0x00\n        /* \"#utility.yul\":2972:2977   */\n      dup2\n        /* \"#utility.yul\":2962:3001   */\n      tag_94\n      jumpi\n        /* \"#utility.yul\":2981:2999   */\n      tag_94\n      tag_69\n      jump\t// in\n    tag_94:\n      pop\n      not(0x00)\n        /* \"#utility.yul\":3017:3035   */\n      add\n      swap1\n        /* \"#utility.yul\":2905:3041   */\n      jump\t// out\n        /* \"#utility.yul\":3046:3158   */\n    tag_63:\n        /* \"#utility.yul\":3078:3079   */\n      0x00\n        /* \"#utility.yul\":3104:3105   */\n      dup3\n        /* \"#utility.yul\":3094:3129   */\n      tag_97\n      jumpi\n        /* \"#utility.yul\":3109:3127   */\n      tag_97\n      tag_70\n      jump\t// in\n    tag_97:\n      pop\n        /* \"#utility.yul\":3143:3152   */\n      mod\n      swap1\n        /* \"#utility.yul\":3046:3158   */\n      jump\t// out\n        /* \"#utility.yul\":3163:3288   */\n    tag_65:\n        /* \"#utility.yul\":3228:3237   */\n      dup1\n      dup3\n      add\n        /* \"#utility.yul\":3249:3259   */\n      dup1\n      dup3\n      gt\n        /* \"#utility.yul\":3246:3282   */\n      iszero\n      tag_81\n      jumpi\n        /* \"#utility.yul\":3262:3280   */\n      tag_81\n      tag_69\n      jump\t// in\n    stop\n\n    sub_0: assembly {\n            /* \"crowdbatch.sol\":61:609  contract Crowdfund {... */\n          mstore(0x40, 0x80)\n            /* \"crowdbatch.sol\":192:325  constructor(string memory _title, uint _goal) {... */\n          callvalue\n          dup1\n          iszero\n          tag_1\n          jumpi\n          0x00\n          dup1\n          revert\n        tag_1:\n          pop\n          mload(0x40)\n          sub(codesize, bytecodeSize)\n          dup1\n          bytecodeSize\n          dup4\n          codecopy\n          dup2\n          add\n          0x40\n          dup2\n          swap1\n          mstore\n          tag_2\n          swap2\n          tag_3\n          jump\t// in\n        tag_2:\n            /* \"crowdbatch.sol\":249:254  title */\n          0x00\n            /* \"crowdbatch.sol\":249:263  title = _title */\n          tag_6\n            /* \"crowdbatch.sol\":257:263  _title */\n          dup4\n            /* \"crowdbatch.sol\":249:254  title */\n          dup3\n            /* \"crowdbatch.sol\":249:263  title = _title */\n          tag_7\n          jump\t// in\n        tag_6:\n          pop\n            /* \"crowdbatch.sol\":274:278  goal */\n          0x02\n            /* \"crowdbatch.sol\":274:286  goal = _goal */\n          sstore\n          pop\n            /* \"crowdbatch.sol\":297:304  creator */\n          0x01\n            /* \"crowdbatch.sol\":297:317  creator = msg.sender */\n          dup1\n          sload\n          not(sub(shl(0xa0, 0x01), 0x01))\n          and\n            /* \"crowdbatch.sol\":307:317  msg.sender */\n          caller\n            /* \"crowdbatch.sol\":297:317  creator = msg.sender */\n          or\n          swap1\n          sstore\n            /* \"crowdbatch.sol\":61:609  contract Crowdfund {... */\n          jump(tag_14)\n            /* \"#utility.yul\":14:141   */\n        tag_9:\n            /* \"#utility.yul\":75:85   */\n          0x4e487b71\n            /* \"#utility.yul\":70:73   */\n          0xe0\n            /* \"#utility.yul\":66:86   */\n          shl\n            /* \"#utility.yul\":63:64   */\n          0x00\n            /* \"#utility.yul\":56:87   */\n          mstore\n            /* \"#utility.yul\":106:110   */\n          0x41\n            /* \"#utility.yul\":103:104   */\n          0x04\n            /* \"#utility.yul\":96:111   */\n          mstore\n            /* \"#utility.yul\":130:134   */\n          0x24\n            /* \"#utility.yul\":127:128   */\n          0x00\n            /* \"#utility.yul\":120:135   */\n          revert\n            /* \"#utility.yul\":146:1198   */\n        tag_3:\n            /* \"#utility.yul\":235:241   */\n          0x00\n            /* \"#utility.yul\":243:249   */\n          dup1\n            /* \"#utility.yul\":296:298   */\n          0x40\n            /* \"#utility.yul\":284:293   */\n          dup4\n            /* \"#utility.yul\":275:282   */\n          dup6\n            /* \"#utility.yul\":271:294   */\n          sub\n            /* \"#utility.yul\":267:299   */\n          slt\n            /* \"#utility.yul\":264:316   */\n          iszero\n          tag_17\n          jumpi\n            /* \"#utility.yul\":312:313   */\n          0x00\n            /* \"#utility.yul\":309:310   */\n          dup1\n            /* \"#utility.yul\":302:314   */\n          revert\n            /* \"#utility.yul\":264:316   */\n        tag_17:\n            /* \"#utility.yul\":339:355   */\n          dup3\n          mload\n          sub(shl(0x40, 0x01), 0x01)\n            /* \"#utility.yul\":367:397   */\n          dup2\n          gt\n            /* \"#utility.yul\":364:414   */\n          iszero\n          tag_18\n          jumpi\n            /* \"#utility.yul\":410:411   */\n          0x00\n            /* \"#utility.yul\":407:408   */\n          dup1\n            /* \"#utility.yul\":400:412   */\n          revert\n            /* \"#utility.yul\":364:414   */\n        tag_18:\n            /* \"#utility.yul\":433:455   */\n          dup4\n          add\n            /* \"#utility.yul\":486:490   */\n          0x1f\n            /* \"#utility.yul\":478:491   */\n          dup2\n          add\n            /* \"#utility.yul\":474:501   */\n          dup6\n          sgt\n            /* \"#utility.yul\":464:519   */\n          tag_19\n          jumpi\n            /* \"#utility.yul\":515:516   */\n          0x00\n            /* \"#utility.yul\":512:513   */\n          dup1\n            /* \"#utility.yul\":505:517   */\n          revert\n            /* \"#utility.yul\":464:519   */\n        tag_19:\n            /* \"#utility.yul\":542:551   */\n          dup1\n          mload\n          sub(shl(0x40, 0x01), 0x01)\n            /* \"#utility.yul\":563:593   */\n          dup2\n          gt\n            /* \"#utility.yul\":560:616   */\n          iszero\n          tag_21\n          jumpi\n            /* \"#utility.yul\":596:614   */\n          tag_21\n          tag_9\n          jump\t// in\n        tag_21:\n            /* \"#utility.yul\":645:647   */\n          0x40\n            /* \"#utility.yul\":639:648   */\n          mload\n            /* \"#utility.yul\":737:739   */\n          0x1f\n            /* \"#utility.yul\":699:716   */\n          dup3\n          add\n          not(0x1f)\n            /* \"#utility.yul\":695:726   */\n          swap1\n          dup2\n          and\n            /* \"#utility.yul\":728:730   */\n          0x3f\n            /* \"#utility.yul\":691:731   */\n          add\n            /* \"#utility.yul\":687:741   */\n          and\n            /* \"#utility.yul\":675:742   */\n          dup2\n          add\n          sub(shl(0x40, 0x01), 0x01)\n            /* \"#utility.yul\":757:791   */\n          dup2\n          gt\n            /* \"#utility.yul\":793:815   */\n          dup3\n          dup3\n          lt\n            /* \"#utility.yul\":754:816   */\n          or\n            /* \"#utility.yul\":751:839   */\n          iszero\n          tag_23\n          jumpi\n            /* \"#utility.yul\":819:837   */\n          tag_23\n          tag_9\n          jump\t// in\n        tag_23:\n            /* \"#utility.yul\":855:857   */\n          0x40\n            /* \"#utility.yul\":848:870   */\n          mstore\n            /* \"#utility.yul\":879:901   */\n          dup2\n          dup2\n          mstore\n            /* \"#utility.yul\":920:935   */\n          dup3\n          dup3\n          add\n            /* \"#utility.yul\":937:941   */\n          0x20\n            /* \"#utility.yul\":916:942   */\n          add\n            /* \"#utility.yul\":913:952   */\n          dup8\n          lt\n            /* \"#utility.yul\":910:969   */\n          iszero\n          tag_24\n          jumpi\n            /* \"#utility.yul\":965:966   */\n          0x00\n            /* \"#utility.yul\":962:963   */\n          dup1\n            /* \"#utility.yul\":955:967   */\n          revert\n            /* \"#utility.yul\":910:969   */\n        tag_24:\n            /* \"#utility.yul\":1018:1024   */\n          dup2\n            /* \"#utility.yul\":1011:1015   */\n          0x20\n            /* \"#utility.yul\":1007:1009   */\n          dup5\n            /* \"#utility.yul\":1003:1016   */\n          add\n            /* \"#utility.yul\":996:1000   */\n          0x20\n            /* \"#utility.yul\":988:994   */\n          dup4\n            /* \"#utility.yul\":984:1001   */\n          add\n            /* \"#utility.yul\":978:1025   */\n          mcopy\n            /* \"#utility.yul\":1073:1074   */\n          0x00\n            /* \"#utility.yul\":1066:1070   */\n          0x20\n            /* \"#utility.yul\":1045:1064   */\n          swap3\n          dup3\n          add\n            /* \"#utility.yul\":1041:1071   */\n          dup4\n          add\n            /* \"#utility.yul\":1034:1075   */\n          mstore\n            /* \"#utility.yul\":1147:1167   */\n          swap5\n          add\n            /* \"#utility.yul\":1141:1168   */\n          mload\n            /* \"#utility.yul\":1045:1064   */\n          swap4\n          swap6\n            /* \"#utility.yul\":1141:1168   */\n          swap4\n          swap5\n          pop\n          pop\n          pop\n          pop\n            /* \"#utility.yul\":146:1198   */\n          jump\t// out\n            /* \"#utility.yul\":1203:1583   */\n        tag_10:\n            /* \"#utility.yul\":1282:1283   */\n          0x01\n            /* \"#utility.yul\":1278:1290   */\n          dup2\n          dup2\n          shr\n          swap1\n            /* \"#utility.yul\":1325:1337   */\n          dup3\n          and\n          dup1\n            /* \"#utility.yul\":1346:1407   */\n          tag_26\n          jumpi\n            /* \"#utility.yul\":1400:1404   */\n          0x7f\n            /* \"#utility.yul\":1392:1398   */\n          dup3\n            /* \"#utility.yul\":1388:1405   */\n          and\n            /* \"#utility.yul\":1378:1405   */\n          swap2\n          pop\n            /* \"#utility.yul\":1346:1407   */\n        tag_26:\n            /* \"#utility.yul\":1453:1455   */\n          0x20\n            /* \"#utility.yul\":1445:1451   */\n          dup3\n            /* \"#utility.yul\":1442:1456   */\n          lt\n            /* \"#utility.yul\":1422:1440   */\n          dup2\n            /* \"#utility.yul\":1419:1457   */\n          sub\n            /* \"#utility.yul\":1416:1577   */\n          tag_27\n          jumpi\n            /* \"#utility.yul\":1499:1509   */\n          0x4e487b71\n            /* \"#utility.yul\":1494:1497   */\n          0xe0\n            /* \"#utility.yul\":1490:1510   */\n          shl\n            /* \"#utility.yul\":1487:1488   */\n          0x00\n            /* \"#utility.yul\":1480:1511   */\n          mstore\n            /* \"#utility.yul\":1534:1538   */\n          0x22\n            /* \"#utility.yul\":1531:1532   */\n          0x04\n            /* \"#utility.yul\":1524:1539   */\n          mstore\n            /* \"#utility.yul\":1562:1566   */\n          0x24\n            /* \"#utility.yul\":1559:1560   */\n          0x00\n            /* \"#utility.yul\":1552:1567   */\n          revert\n            /* \"#utility.yul\":1416:1577   */\n        tag_27:\n          pop\n            /* \"#utility.yul\":1203:1583   */\n          swap2\n          swap1\n          pop\n          jump\t// out\n            /* \"#utility.yul\":1714:2232   */\n        tag_12:\n            /* \"#utility.yul\":1816:1818   */\n          0x1f\n            /* \"#utility.yul\":1811:1814   */\n          dup3\n            /* \"#utility.yul\":1808:1819   */\n          gt\n            /* \"#utility.yul\":1805:2226   */\n          iszero\n          tag_30\n          jumpi\n            /* \"#utility.yul\":1852:1857   */\n          dup1\n            /* \"#utility.yul\":1849:1850   */\n          0x00\n            /* \"#utility.yul\":1842:1858   */\n          mstore\n            /* \"#utility.yul\":1896:1900   */\n          0x20\n            /* \"#utility.yul\":1893:1894   */\n          0x00\n            /* \"#utility.yul\":1883:1901   */\n          keccak256\n            /* \"#utility.yul\":1966:1968   */\n          0x1f\n            /* \"#utility.yul\":1954:1964   */\n          dup5\n            /* \"#utility.yul\":1950:1969   */\n          add\n            /* \"#utility.yul\":1947:1948   */\n          0x05\n            /* \"#utility.yul\":1943:1970   */\n          shr\n            /* \"#utility.yul\":1937:1941   */\n          dup2\n            /* \"#utility.yul\":1933:1971   */\n          add\n            /* \"#utility.yul\":2002:2006   */\n          0x20\n            /* \"#utility.yul\":1990:2000   */\n          dup6\n            /* \"#utility.yul\":1987:2007   */\n          lt\n            /* \"#utility.yul\":1984:2031   */\n          iszero\n          tag_31\n          jumpi\n          pop\n            /* \"#utility.yul\":2025:2029   */\n          dup1\n            /* \"#utility.yul\":1984:2031   */\n        tag_31:\n            /* \"#utility.yul\":2080:2082   */\n          0x1f\n            /* \"#utility.yul\":2075:2078   */\n          dup5\n            /* \"#utility.yul\":2071:2083   */\n          add\n            /* \"#utility.yul\":2068:2069   */\n          0x05\n            /* \"#utility.yul\":2064:2084   */\n          shr\n            /* \"#utility.yul\":2058:2062   */\n          dup3\n            /* \"#utility.yul\":2054:2085   */\n          add\n            /* \"#utility.yul\":2044:2085   */\n          swap2\n          pop\n            /* \"#utility.yul\":2135:2216   */\n        tag_32:\n            /* \"#utility.yul\":2153:2155   */\n          dup2\n            /* \"#utility.yul\":2146:2151   */\n          dup2\n            /* \"#utility.yul\":2143:2156   */\n          lt\n            /* \"#utility.yul\":2135:2216   */\n          iszero\n          tag_34\n          jumpi\n            /* \"#utility.yul\":2212:2213   */\n          0x00\n            /* \"#utility.yul\":2198:2214   */\n          dup2\n          sstore\n            /* \"#utility.yul\":2179:2180   */\n          0x01\n            /* \"#utility.yul\":2168:2181   */\n          add\n            /* \"#utility.yul\":2135:2216   */\n          jump(tag_32)\n        tag_34:\n            /* \"#utility.yul\":2139:2142   */\n          pop\n          pop\n            /* \"#utility.yul\":1805:2226   */\n        tag_30:\n            /* \"#utility.yul\":1714:2232   */\n          pop\n          pop\n          pop\n          jump\t// out\n            /* \"#utility.yul\":2408:3707   */\n        tag_7:\n            /* \"#utility.yul\":2528:2538   */\n          dup2\n          mload\n          sub(shl(0x40, 0x01), 0x01)\n            /* \"#utility.yul\":2550:2580   */\n          dup2\n          gt\n            /* \"#utility.yul\":2547:2603   */\n          iszero\n          tag_38\n          jumpi\n            /* \"#utility.yul\":2583:2601   */\n          tag_38\n          tag_9\n          jump\t// in\n        tag_38:\n            /* \"#utility.yul\":2612:2709   */\n          tag_39\n            /* \"#utility.yul\":2702:2708   */\n          dup2\n            /* \"#utility.yul\":2662:2700   */\n          tag_40\n            /* \"#utility.yul\":2694:2698   */\n          dup5\n            /* \"#utility.yul\":2688:2699   */\n          sload\n            /* \"#utility.yul\":2662:2700   */\n          tag_10\n          jump\t// in\n        tag_40:\n            /* \"#utility.yul\":2656:2660   */\n          dup5\n            /* \"#utility.yul\":2612:2709   */\n          tag_12\n          jump\t// in\n        tag_39:\n            /* \"#utility.yul\":2758:2762   */\n          0x20\n            /* \"#utility.yul\":2789:2791   */\n          0x1f\n            /* \"#utility.yul\":2778:2792   */\n          dup3\n          gt\n            /* \"#utility.yul\":2806:2807   */\n          0x01\n            /* \"#utility.yul\":2801:3450   */\n          dup2\n          eq\n          tag_42\n          jumpi\n            /* \"#utility.yul\":3494:3495   */\n          0x00\n            /* \"#utility.yul\":3511:3517   */\n          dup4\n            /* \"#utility.yul\":3508:3597   */\n          iszero\n          tag_43\n          jumpi\n          pop\n            /* \"#utility.yul\":3563:3582   */\n          dup5\n          dup3\n          add\n            /* \"#utility.yul\":3557:3583   */\n          mload\n            /* \"#utility.yul\":3508:3597   */\n        tag_43:\n          not(0x00)\n            /* \"#utility.yul\":2365:2366   */\n          0x03\n            /* \"#utility.yul\":2361:2372   */\n          dup6\n          swap1\n          shl\n            /* \"#utility.yul\":2357:2381   */\n          shr\n            /* \"#utility.yul\":2353:2382   */\n          not\n            /* \"#utility.yul\":2343:2383   */\n          and\n            /* \"#utility.yul\":2389:2390   */\n          0x01\n            /* \"#utility.yul\":2385:2396   */\n          dup5\n          swap1\n          shl\n            /* \"#utility.yul\":2340:2397   */\n          or\n            /* \"#utility.yul\":3610:3691   */\n          dup5\n          sstore\n            /* \"#utility.yul\":2771:3701   */\n          jump(tag_34)\n            /* \"#utility.yul\":2801:3450   */\n        tag_42:\n            /* \"#utility.yul\":1661:1662   */\n          0x00\n            /* \"#utility.yul\":1654:1668   */\n          dup5\n          dup2\n          mstore\n            /* \"#utility.yul\":1698:1702   */\n          0x20\n            /* \"#utility.yul\":1685:1703   */\n          dup2\n          keccak256\n          not(0x1f)\n            /* \"#utility.yul\":2837:2857   */\n          dup6\n          and\n          swap2\n            /* \"#utility.yul\":2955:3177   */\n        tag_46:\n            /* \"#utility.yul\":2969:2976   */\n          dup3\n            /* \"#utility.yul\":2966:2967   */\n          dup2\n            /* \"#utility.yul\":2963:2977   */\n          lt\n            /* \"#utility.yul\":2955:3177   */\n          iszero\n          tag_48\n          jumpi\n            /* \"#utility.yul\":3051:3070   */\n          dup8\n          dup6\n          add\n            /* \"#utility.yul\":3045:3071   */\n          mload\n            /* \"#utility.yul\":3030:3072   */\n          dup3\n          sstore\n            /* \"#utility.yul\":3158:3162   */\n          0x20\n            /* \"#utility.yul\":3143:3163   */\n          swap5\n          dup6\n          add\n          swap5\n            /* \"#utility.yul\":3111:3112   */\n          0x01\n            /* \"#utility.yul\":3099:3113   */\n          swap1\n          swap3\n          add\n          swap2\n            /* \"#utility.yul\":2985:2997   */\n          add\n            /* \"#utility.yul\":2955:3177   */\n          jump(tag_46)\n        tag_48:\n            /* \"#utility.yul\":2959:2962   */\n          pop\n            /* \"#utility.yul\":3205:3211   */\n          dup5\n            /* \"#utility.yul\":3196:3203   */\n          dup3\n            /* \"#utility.yul\":3193:3212   */\n          lt\n            /* \"#utility.yul\":3190:3391   */\n          iszero\n          tag_49\n          jumpi\n            /* \"#utility.yul\":3266:3285   */\n          dup7\n          dup5\n          add\n            /* \"#utility.yul\":3260:3286   */\n          mload\n          not(0x00)\n            /* \"#utility.yul\":3349:3350   */\n          0x03\n            /* \"#utility.yul\":3345:3359   */\n          dup8\n          swap1\n          shl\n            /* \"#utility.yul\":3361:3364   */\n          0xf8\n            /* \"#utility.yul\":3341:3365   */\n          and\n            /* \"#utility.yul\":3337:3374   */\n          shr\n            /* \"#utility.yul\":3333:3375   */\n          not\n            /* \"#utility.yul\":3318:3376   */\n          and\n            /* \"#utility.yul\":3303:3377   */\n          dup2\n          sstore\n            /* \"#utility.yul\":3190:3391   */\n        tag_49:\n          pop\n          pop\n          pop\n          pop\n            /* \"#utility.yul\":3437:3438   */\n          0x01\n            /* \"#utility.yul\":3421:3435   */\n          swap1\n          dup2\n          shl\n            /* \"#utility.yul\":3417:3439   */\n          add\n            /* \"#utility.yul\":3404:3440   */\n          swap1\n          sstore\n          pop\n            /* \"#utility.yul\":2408:3707   */\n          jump\t// out\n        tag_14:\n            /* \"crowdbatch.sol\":61:609  contract Crowdfund {... */\n          dataSize(sub_0)\n          dup1\n          dataOffset(sub_0)\n          0x00\n          codecopy\n          0x00\n          return\n        stop\n\n        sub_0: assembly {\n                /* \"crowdbatch.sol\":61:609  contract Crowdfund {... */\n              mstore(0x40, 0x80)\n              jumpi(tag_1, lt(calldatasize, 0x04))\n              shr(0xe0, calldataload(0x00))\n              dup1\n              0x02d05d3f\n              eq\n              tag_3\n              jumpi\n              dup1\n              0x3ccfd60b\n              eq\n              tag_4\n              jumpi\n              dup1\n              0x40193883\n              eq\n              tag_5\n              jumpi\n              dup1\n              0x4a79d50c\n              eq\n              tag_6\n              jumpi\n              dup1\n              0xf0ea4bfc\n              eq\n              tag_7\n              jumpi\n              0x00\n              dup1\n              revert\n            tag_1:\n              jumpi(tag_2, calldatasize)\n                /* \"crowdbatch.sol\":381:390  msg.value */\n              callvalue\n                /* \"crowdbatch.sol\":371:377  raised */\n              0x03\n              0x00\n                /* \"crowdbatch.sol\":371:390  raised += msg.value */\n              dup3\n              dup3\n              sload\n              tag_10\n              swap2\n              swap1\n              tag_11\n              jump\t// in\n            tag_10:\n              swap3\n              pop\n              pop\n              dup2\n              swap1\n              sstore\n              stop\n                /* \"crowdbatch.sol\":61:609  contract Crowdfund {... */\n            tag_2:\n              0x00\n              dup1\n              revert\n                /* \"crowdbatch.sol\":113:135  address public creator */\n            tag_3:\n              callvalue\n              dup1\n              iszero\n              tag_12\n              jumpi\n              0x00\n              dup1\n              revert\n            tag_12:\n              pop\n              sload(0x01)\n              tag_13\n              swap1\n              sub(shl(0xa0, 0x01), 0x01)\n              and\n              dup2\n              jump\n            tag_13:\n              mload(0x40)\n              sub(shl(0xa0, 0x01), 0x01)\n                /* \"#utility.yul\":405:437   */\n              swap1\n              swap2\n              and\n                /* \"#utility.yul\":387:438   */\n              dup2\n              mstore\n                /* \"#utility.yul\":375:377   */\n              0x20\n                /* \"#utility.yul\":360:378   */\n              add\n                /* \"crowdbatch.sol\":113:135  address public creator */\n            tag_15:\n              mload(0x40)\n              dup1\n              swap2\n              sub\n              swap1\n              return\n                /* \"crowdbatch.sol\":406:606  function withdraw() public {... */\n            tag_4:\n              callvalue\n              dup1\n              iszero\n              tag_17\n              jumpi\n              0x00\n              dup1\n              revert\n            tag_17:\n              pop\n              tag_18\n              tag_19\n              jump\t// in\n            tag_18:\n              stop\n                /* \"crowdbatch.sol\":142:158  uint public goal */\n            tag_5:\n              callvalue\n              dup1\n              iszero\n              tag_20\n              jumpi\n              0x00\n              dup1\n              revert\n            tag_20:\n              pop\n              tag_21\n              sload(0x02)\n              dup2\n              jump\n            tag_21:\n              mload(0x40)\n                /* \"#utility.yul\":595:620   */\n              swap1\n              dup2\n              mstore\n                /* \"#utility.yul\":583:585   */\n              0x20\n                /* \"#utility.yul\":568:586   */\n              add\n                /* \"crowdbatch.sol\":142:158  uint public goal */\n              tag_15\n                /* \"#utility.yul\":449:626   */\n              jump\n                /* \"crowdbatch.sol\":87:106  string public title */\n            tag_6:\n              callvalue\n              dup1\n              iszero\n              tag_25\n              jumpi\n              0x00\n              dup1\n              revert\n            tag_25:\n              pop\n              tag_26\n              tag_27\n              jump\t// in\n            tag_26:\n              mload(0x40)\n              tag_15\n              swap2\n              swap1\n              tag_29\n              jump\t// in\n                /* \"crowdbatch.sol\":165:183  uint public raised */\n            tag_7:\n              callvalue\n              dup1\n              iszero\n              tag_30\n              jumpi\n              0x00\n              dup1\n              revert\n            tag_30:\n              pop\n              tag_21\n              sload(0x03)\n              dup2\n              jump\n                /* \"crowdbatch.sol\":406:606  function withdraw() public {... */\n            tag_19:\n                /* \"crowdbatch.sol\":466:473  creator */\n              and(sub(shl(0xa0, 0x01), 0x01), sload(0x01))\n                /* \"crowdbatch.sol\":452:462  msg.sender */\n              caller\n                /* \"crowdbatch.sol\":452:473  msg.sender == creator */\n              eq\n                /* \"crowdbatch.sol\":444:489  require(msg.sender == creator, \"Not creator\") */\n              tag_35\n              jumpi\n              mload(0x40)\n              shl(0xe5, 0x461bcd)\n              dup2\n              mstore\n                /* \"#utility.yul\":1256:1258   */\n              0x20\n                /* \"crowdbatch.sol\":444:489  require(msg.sender == creator, \"Not creator\") */\n              0x04\n              dup3\n              add\n                /* \"#utility.yul\":1238:1259   */\n              mstore\n                /* \"#utility.yul\":1295:1297   */\n              0x0b\n                /* \"#utility.yul\":1275:1293   */\n              0x24\n              dup3\n              add\n                /* \"#utility.yul\":1268:1298   */\n              mstore\n              shl(0xa9, 0x2737ba1031b932b0ba37b9)\n                /* \"#utility.yul\":1314:1332   */\n              0x44\n              dup3\n              add\n                /* \"#utility.yul\":1307:1348   */\n              mstore\n                /* \"#utility.yul\":1365:1383   */\n              0x64\n              add\n                /* \"crowdbatch.sol\":444:489  require(msg.sender == creator, \"Not creator\") */\n            tag_36:\n              mload(0x40)\n              dup1\n              swap2\n              sub\n              swap1\n              revert\n            tag_35:\n                /* \"crowdbatch.sol\":518:522  goal */\n              sload(0x02)\n                /* \"crowdbatch.sol\":508:514  raised */\n              sload(0x03)\n                /* \"crowdbatch.sol\":508:522  raised >= goal */\n              lt\n              iszero\n                /* \"crowdbatch.sol\":500:539  require(raised >= goal, \"Goal not met\") */\n              tag_38\n              jumpi\n              mload(0x40)\n              shl(0xe5, 0x461bcd)\n              dup2\n              mstore\n                /* \"#utility.yul\":1596:1598   */\n              0x20\n                /* \"crowdbatch.sol\":500:539  require(raised >= goal, \"Goal not met\") */\n              0x04\n              dup3\n              add\n                /* \"#utility.yul\":1578:1599   */\n              mstore\n                /* \"#utility.yul\":1635:1637   */\n              0x0c\n                /* \"#utility.yul\":1615:1633   */\n              0x24\n              dup3\n              add\n                /* \"#utility.yul\":1608:1638   */\n              mstore\n              shl(0xa2, 0x11dbd85b081b9bdd081b595d)\n                /* \"#utility.yul\":1654:1672   */\n              0x44\n              dup3\n              add\n                /* \"#utility.yul\":1647:1689   */\n              mstore\n                /* \"#utility.yul\":1706:1724   */\n              0x64\n              add\n                /* \"crowdbatch.sol\":500:539  require(raised >= goal, \"Goal not met\") */\n              tag_36\n                /* \"#utility.yul\":1394:1730   */\n              jump\n                /* \"crowdbatch.sol\":500:539  require(raised >= goal, \"Goal not met\") */\n            tag_38:\n                /* \"crowdbatch.sol\":558:565  creator */\n              sload(0x01)\n                /* \"crowdbatch.sol\":550:598  payable(creator).transfer(address(this).balance) */\n              mload(0x40)\n              sub(shl(0xa0, 0x01), 0x01)\n                /* \"crowdbatch.sol\":558:565  creator */\n              swap1\n              swap2\n              and\n              swap1\n                /* \"crowdbatch.sol\":576:597  address(this).balance */\n              selfbalance\n                /* \"crowdbatch.sol\":550:598  payable(creator).transfer(address(this).balance) */\n              dup1\n              iszero\n              0x08fc\n              mul\n              swap2\n                /* \"crowdbatch.sol\":558:565  creator */\n              0x00\n                /* \"crowdbatch.sol\":550:598  payable(creator).transfer(address(this).balance) */\n              dup2\n                /* \"crowdbatch.sol\":558:565  creator */\n              dup2\n                /* \"crowdbatch.sol\":550:598  payable(creator).transfer(address(this).balance) */\n              dup2\n                /* \"crowdbatch.sol\":576:597  address(this).balance */\n              dup6\n                /* \"crowdbatch.sol\":558:565  creator */\n              dup9\n                /* \"crowdbatch.sol\":550:598  payable(creator).transfer(address(this).balance) */\n              dup9\n              call\n              swap4\n              pop\n              pop\n              pop\n              pop\n              iszero\n              dup1\n              iszero\n              tag_42\n              jumpi\n              returndatasize\n              0x00\n              dup1\n              returndatacopy\n              revert(0x00, returndatasize)\n            tag_42:\n              pop\n                /* \"crowdbatch.sol\":406:606  function withdraw() public {... */\n              jump\t// out\n                /* \"crowdbatch.sol\":87:106  string public title */\n            tag_27:\n              0x00\n              dup1\n              sload\n              tag_43\n              swap1\n              tag_44\n              jump\t// in\n            tag_43:\n              dup1\n              0x1f\n              add\n              0x20\n              dup1\n              swap2\n              div\n              mul\n              0x20\n              add\n              mload(0x40)\n              swap1\n              dup2\n              add\n              0x40\n              mstore\n              dup1\n              swap3\n              swap2\n              swap1\n              dup2\n              dup2\n              mstore\n              0x20\n              add\n              dup3\n              dup1\n              sload\n              tag_45\n              swap1\n              tag_44\n              jump\t// in\n            tag_45:\n              dup1\n              iszero\n              tag_46\n              jumpi\n              dup1\n              0x1f\n              lt\n              tag_47\n              jumpi\n              0x0100\n              dup1\n              dup4\n              sload\n              div\n              mul\n              dup4\n              mstore\n              swap2\n              0x20\n              add\n              swap2\n              jump(tag_46)\n            tag_47:\n              dup3\n              add\n              swap2\n              swap1\n              0x00\n              mstore\n              keccak256(0x00, 0x20)\n              swap1\n            tag_48:\n              dup2\n              sload\n              dup2\n              mstore\n              swap1\n              0x01\n              add\n              swap1\n              0x20\n              add\n              dup1\n              dup4\n              gt\n              tag_48\n              jumpi\n              dup3\n              swap1\n              sub\n              0x1f\n              and\n              dup3\n              add\n              swap2\n            tag_46:\n              pop\n              pop\n              pop\n              pop\n              pop\n              dup2\n              jump\t// out\n                /* \"#utility.yul\":14:236   */\n            tag_11:\n                /* \"#utility.yul\":79:88   */\n              dup1\n              dup3\n              add\n                /* \"#utility.yul\":100:110   */\n              dup1\n              dup3\n              gt\n                /* \"#utility.yul\":97:230   */\n              iszero\n              tag_51\n              jumpi\n                /* \"#utility.yul\":152:162   */\n              0x4e487b71\n                /* \"#utility.yul\":147:150   */\n              0xe0\n                /* \"#utility.yul\":143:163   */\n              shl\n                /* \"#utility.yul\":140:141   */\n              0x00\n                /* \"#utility.yul\":133:164   */\n              mstore\n                /* \"#utility.yul\":187:191   */\n              0x11\n                /* \"#utility.yul\":184:185   */\n              0x04\n                /* \"#utility.yul\":177:192   */\n              mstore\n                /* \"#utility.yul\":215:219   */\n              0x24\n                /* \"#utility.yul\":212:213   */\n              0x00\n                /* \"#utility.yul\":205:220   */\n              revert\n                /* \"#utility.yul\":97:230   */\n            tag_51:\n                /* \"#utility.yul\":14:236   */\n              swap3\n              swap2\n              pop\n              pop\n              jump\t// out\n                /* \"#utility.yul\":631:1049   */\n            tag_29:\n                /* \"#utility.yul\":780:782   */\n              0x20\n                /* \"#utility.yul\":769:778   */\n              dup2\n                /* \"#utility.yul\":762:783   */\n              mstore\n                /* \"#utility.yul\":743:747   */\n              0x00\n                /* \"#utility.yul\":812:818   */\n              dup3\n                /* \"#utility.yul\":806:819   */\n              mload\n                /* \"#utility.yul\":855:861   */\n              dup1\n                /* \"#utility.yul\":850:852   */\n              0x20\n                /* \"#utility.yul\":839:848   */\n              dup5\n                /* \"#utility.yul\":835:853   */\n              add\n                /* \"#utility.yul\":828:862   */\n              mstore\n                /* \"#utility.yul\":914:920   */\n              dup1\n                /* \"#utility.yul\":909:911   */\n              0x20\n                /* \"#utility.yul\":901:907   */\n              dup6\n                /* \"#utility.yul\":897:912   */\n              add\n                /* \"#utility.yul\":892:894   */\n              0x40\n                /* \"#utility.yul\":881:890   */\n              dup6\n                /* \"#utility.yul\":877:895   */\n              add\n                /* \"#utility.yul\":871:921   */\n              mcopy\n                /* \"#utility.yul\":970:971   */\n              0x00\n                /* \"#utility.yul\":965:967   */\n              0x40\n                /* \"#utility.yul\":956:962   */\n              dup3\n                /* \"#utility.yul\":945:954   */\n              dup6\n                /* \"#utility.yul\":941:963   */\n              add\n                /* \"#utility.yul\":937:968   */\n              add\n                /* \"#utility.yul\":930:972   */\n              mstore\n                /* \"#utility.yul\":1040:1042   */\n              0x40\n                /* \"#utility.yul\":1033:1035   */\n              0x1f\n                /* \"#utility.yul\":1029:1036   */\n              not\n                /* \"#utility.yul\":1024:1026   */\n              0x1f\n                /* \"#utility.yul\":1016:1022   */\n              dup4\n                /* \"#utility.yul\":1012:1027   */\n              add\n                /* \"#utility.yul\":1008:1037   */\n              and\n                /* \"#utility.yul\":997:1006   */\n              dup5\n                /* \"#utility.yul\":993:1038   */\n              add\n                /* \"#utility.yul\":989:1043   */\n              add\n                /* \"#utility.yul\":981:1043   */\n              swap2\n              pop\n              pop\n                /* \"#utility.yul\":631:1049   */\n              swap3\n              swap2\n              pop\n              pop\n              jump\t// out\n                /* \"#utility.yul\":1735:2115   */\n            tag_44:\n                /* \"#utility.yul\":1814:1815   */\n              0x01\n                /* \"#utility.yul\":1810:1822   */\n              dup2\n              dup2\n              shr\n              swap1\n                /* \"#utility.yul\":1857:1869   */\n              dup3\n              and\n              dup1\n                /* \"#utility.yul\":1878:1939   */\n              tag_58\n              jumpi\n                /* \"#utility.yul\":1932:1936   */\n              0x7f\n                /* \"#utility.yul\":1924:1930   */\n              dup3\n                /* \"#utility.yul\":1920:1937   */\n              and\n                /* \"#utility.yul\":1910:1937   */\n              swap2\n              pop\n                /* \"#utility.yul\":1878:1939   */\n            tag_58:\n                /* \"#utility.yul\":1985:1987   */\n              0x20\n                /* \"#utility.yul\":1977:1983   */\n              dup3\n                /* \"#utility.yul\":1974:1988   */\n              lt\n                /* \"#utility.yul\":1954:1972   */\n              dup2\n                /* \"#utility.yul\":1951:1989   */\n              sub\n                /* \"#utility.yul\":1948:2109   */\n              tag_59\n              jumpi\n                /* \"#utility.yul\":2031:2041   */\n              0x4e487b71\n                /* \"#utility.yul\":2026:2029   */\n              0xe0\n                /* \"#utility.yul\":2022:2042   */\n              shl\n                /* \"#utility.yul\":2019:2020   */\n              0x00\n                /* \"#utility.yul\":2012:2043   */\n              mstore\n                /* \"#utility.yul\":2066:2070   */\n              0x22\n                /* \"#utility.yul\":2063:2064   */\n              0x04\n                /* \"#utility.yul\":2056:2071   */\n              mstore\n                /* \"#utility.yul\":2094:2098   */\n              0x24\n                /* \"#utility.yul\":2091:2092   */\n              0x00\n                /* \"#utility.yul\":2084:2099   */\n              revert\n                /* \"#utility.yul\":1948:2109   */\n            tag_59:\n              pop\n                /* \"#utility.yul\":1735:2115   */\n              swap2\n              swap1\n              pop\n              jump\t// out\n\n            auxdata: 0xa2646970667358221220bf30a46f94811363b78fb51ca69d55c95afc986395bb08d61de43777e9be96ce64736f6c634300081a0033\n        }\n    }\n\n    auxdata: 0xa2646970667358221220ca02b841845add779bd3d1615ee4fb80b76f81679a2bfb902e82ec5cc3e89c4764736f6c634300081a0033\n}\n",
				"bytecode": {
					"linkReferences": {},
					"object": "6080604052348015600e575f80fd5b50610a478061001c5f395ff3fe608060405234801561000f575f80fd5b506004361061003f575f3560e01c8063141961bc146100435780632d823335146100725780639507d39a1461007c575b5f80fd5b610056610051366004610324565b61008f565b6040516001600160a01b03909116815260200160405180910390f35b61007a6100b6565b005b61005661008a366004610324565b6101e2565b5f818154811061009d575f80fd5b5f918252602090912001546001600160a01b0316905081565b5f54156100fc5760405162461bcd60e51b815260206004820152601060248201526f105b1c9958591e4819195c1b1bde595960821b604482015260640160405180910390fd5b60015b601e81116101df575f6101118261020f565b604051602001610121919061033b565b60408051601f1981840301815291905290505f61014683670de0b6b3a7640000610379565b90505f828260405161015790610317565b610162929190610396565b604051809103905ff08015801561017b573d5f803e3d5ffd5b505f80546001810182559080527f290decd9548b62a8d60345a988386fc84ba6bc95484008f6362f93160ef3e5630180546001600160a01b0319166001600160a01b0392909216919091179055508291506101d79050816103d2565b9150506100ff565b50565b5f8082815481106101f5576101f56103ea565b5f918252602090912001546001600160a01b031692915050565b6060815f036102355750506040805180820190915260018152600360fc1b602082015290565b815f5b811561025e5780610248816103d2565b91506102579050600a83610412565b9150610238565b5f8167ffffffffffffffff81111561027857610278610425565b6040519080825280601f01601f1916602001820160405280156102a2576020820181803683370190505b509050815b851561030e57806102b781610439565b91506102c69050600a8761044e565b6102d1906030610461565b60f81b8282815181106102e6576102e66103ea565b60200101906001600160f81b03191690815f1a905350610307600a87610412565b95506102a7565b50949350505050565b61059d8061047583390190565b5f60208284031215610334575f80fd5b5035919050565b6721b0b6b830b4b3b760c11b81525f82518060208501600885015e5f920160080191825250919050565b634e487b7160e01b5f52601160045260245ffd5b808202811582820484141761039057610390610365565b92915050565b604081525f83518060408401528060208601606085015e5f606082850101526060601f19601f8301168401019150508260208301529392505050565b5f600182016103e3576103e3610365565b5060010190565b634e487b7160e01b5f52603260045260245ffd5b634e487b7160e01b5f52601260045260245ffd5b5f82610420576104206103fe565b500490565b634e487b7160e01b5f52604160045260245ffd5b5f8161044757610447610365565b505f190190565b5f8261045c5761045c6103fe565b500690565b808201808211156103905761039061036556fe608060405234801561000f575f80fd5b5060405161059d38038061059d83398101604081905261002e91610069565b5f61003983826101a1565b5060025550600180546001600160a01b0319163317905561025b565b634e487b7160e01b5f52604160045260245ffd5b5f806040838503121561007a575f80fd5b82516001600160401b0381111561008f575f80fd5b8301601f8101851361009f575f80fd5b80516001600160401b038111156100b8576100b8610055565b604051601f8201601f19908116603f011681016001600160401b03811182821017156100e6576100e6610055565b6040528181528282016020018710156100fd575f80fd5b8160208401602083015e5f60209282018301529401519395939450505050565b600181811c9082168061013157607f821691505b60208210810361014f57634e487b7160e01b5f52602260045260245ffd5b50919050565b601f82111561019c57805f5260205f20601f840160051c8101602085101561017a5750805b601f840160051c820191505b81811015610199575f8155600101610186565b50505b505050565b81516001600160401b038111156101ba576101ba610055565b6101ce816101c8845461011d565b84610155565b6020601f821160018114610200575f83156101e95750848201515b5f19600385901b1c1916600184901b178455610199565b5f84815260208120601f198516915b8281101561022f578785015182556020948501946001909201910161020f565b508482101561024c57868401515f19600387901b60f8161c191681555b50505050600190811b01905550565b610335806102685f395ff3fe60806040526004361061004c575f3560e01c806302d05d3f1461006e5780633ccfd60b146100aa57806340193883146100c05780634a79d50c146100e3578063f0ea4bfc14610104575f80fd5b3661006a573460035f828254610062919061026d565b925050819055005b5f80fd5b348015610079575f80fd5b5060015461008d906001600160a01b031681565b6040516001600160a01b0390911681526020015b60405180910390f35b3480156100b5575f80fd5b506100be610119565b005b3480156100cb575f80fd5b506100d560025481565b6040519081526020016100a1565b3480156100ee575f80fd5b506100f76101e2565b6040516100a19190610292565b34801561010f575f80fd5b506100d560035481565b6001546001600160a01b031633146101665760405162461bcd60e51b815260206004820152600b60248201526a2737ba1031b932b0ba37b960a91b60448201526064015b60405180910390fd5b60025460035410156101a95760405162461bcd60e51b815260206004820152600c60248201526b11dbd85b081b9bdd081b595d60a21b604482015260640161015d565b6001546040516001600160a01b03909116904780156108fc02915f818181858888f193505050501580156101df573d5f803e3d5ffd5b50565b5f80546101ee906102c7565b80601f016020809104026020016040519081016040528092919081815260200182805461021a906102c7565b80156102655780601f1061023c57610100808354040283529160200191610265565b820191905f5260205f20905b81548152906001019060200180831161024857829003601f168201915b505050505081565b8082018082111561028c57634e487b7160e01b5f52601160045260245ffd5b92915050565b602081525f82518060208401528060208501604085015e5f604082850101526040601f19601f83011684010191505092915050565b600181811c908216806102db57607f821691505b6020821081036102f957634e487b7160e01b5f52602260045260245ffd5b5091905056fea2646970667358221220bf30a46f94811363b78fb51ca69d55c95afc986395bb08d61de43777e9be96ce64736f6c634300081a0033a2646970667358221220ca02b841845add779bd3d1615ee4fb80b76f81679a2bfb902e82ec5cc3e89c4764736f6c634300081a0033",
					"opcodes": "PUSH1 0x80 PUSH1 0x40 MSTORE CALLVALUE DUP1 ISZERO PUSH1 0xE JUMPI PUSH0 DUP1 REVERT JUMPDEST POP PUSH2 0xA47 DUP1 PUSH2 0x1C PUSH0 CODECOPY PUSH0 RETURN INVALID PUSH1 0x80 PUSH1 0x40 MSTORE CALLVALUE DUP1 ISZERO PUSH2 0xF JUMPI PUSH0 DUP1 REVERT JUMPDEST POP PUSH1 0x4 CALLDATASIZE LT PUSH2 0x3F JUMPI PUSH0 CALLDATALOAD PUSH1 0xE0 SHR DUP1 PUSH4 0x141961BC EQ PUSH2 0x43 JUMPI DUP1 PUSH4 0x2D823335 EQ PUSH2 0x72 JUMPI DUP1 PUSH4 0x9507D39A EQ PUSH2 0x7C JUMPI JUMPDEST PUSH0 DUP1 REVERT JUMPDEST PUSH2 0x56 PUSH2 0x51 CALLDATASIZE PUSH1 0x4 PUSH2 0x324 JUMP JUMPDEST PUSH2 0x8F JUMP JUMPDEST PUSH1 0x40 MLOAD PUSH1 0x1 PUSH1 0x1 PUSH1 0xA0 SHL SUB SWAP1 SWAP2 AND DUP2 MSTORE PUSH1 0x20 ADD PUSH1 0x40 MLOAD DUP1 SWAP2 SUB SWAP1 RETURN JUMPDEST PUSH2 0x7A PUSH2 0xB6 JUMP JUMPDEST STOP JUMPDEST PUSH2 0x56 PUSH2 0x8A CALLDATASIZE PUSH1 0x4 PUSH2 0x324 JUMP JUMPDEST PUSH2 0x1E2 JUMP JUMPDEST PUSH0 DUP2 DUP2 SLOAD DUP2 LT PUSH2 0x9D JUMPI PUSH0 DUP1 REVERT JUMPDEST PUSH0 SWAP2 DUP3 MSTORE PUSH1 0x20 SWAP1 SWAP2 KECCAK256 ADD SLOAD PUSH1 0x1 PUSH1 0x1 PUSH1 0xA0 SHL SUB AND SWAP1 POP DUP2 JUMP JUMPDEST PUSH0 SLOAD ISZERO PUSH2 0xFC JUMPI PUSH1 0x40 MLOAD PUSH3 0x461BCD PUSH1 0xE5 SHL DUP2 MSTORE PUSH1 0x20 PUSH1 0x4 DUP3 ADD MSTORE PUSH1 0x10 PUSH1 0x24 DUP3 ADD MSTORE PUSH16 0x105B1C9958591E4819195C1B1BDE5959 PUSH1 0x82 SHL PUSH1 0x44 DUP3 ADD MSTORE PUSH1 0x64 ADD PUSH1 0x40 MLOAD DUP1 SWAP2 SUB SWAP1 REVERT JUMPDEST PUSH1 0x1 JUMPDEST PUSH1 0x1E DUP2 GT PUSH2 0x1DF JUMPI PUSH0 PUSH2 0x111 DUP3 PUSH2 0x20F JUMP JUMPDEST PUSH1 0x40 MLOAD PUSH1 0x20 ADD PUSH2 0x121 SWAP2 SWAP1 PUSH2 0x33B JUMP JUMPDEST PUSH1 0x40 DUP1 MLOAD PUSH1 0x1F NOT DUP2 DUP5 SUB ADD DUP2 MSTORE SWAP2 SWAP1 MSTORE SWAP1 POP PUSH0 PUSH2 0x146 DUP4 PUSH8 0xDE0B6B3A7640000 PUSH2 0x379 JUMP JUMPDEST SWAP1 POP PUSH0 DUP3 DUP3 PUSH1 0x40 MLOAD PUSH2 0x157 SWAP1 PUSH2 0x317 JUMP JUMPDEST PUSH2 0x162 SWAP3 SWAP2 SWAP1 PUSH2 0x396 JUMP JUMPDEST PUSH1 0x40 MLOAD DUP1 SWAP2 SUB SWAP1 PUSH0 CREATE DUP1 ISZERO DUP1 ISZERO PUSH2 0x17B JUMPI RETURNDATASIZE PUSH0 DUP1 RETURNDATACOPY RETURNDATASIZE PUSH0 REVERT JUMPDEST POP PUSH0 DUP1 SLOAD PUSH1 0x1 DUP2 ADD DUP3 SSTORE SWAP1 DUP1 MSTORE PUSH32 0x290DECD9548B62A8D60345A988386FC84BA6BC95484008F6362F93160EF3E563 ADD DUP1 SLOAD PUSH1 0x1 PUSH1 0x1 PUSH1 0xA0 SHL SUB NOT AND PUSH1 0x1 PUSH1 0x1 PUSH1 0xA0 SHL SUB SWAP3 SWAP1 SWAP3 AND SWAP2 SWAP1 SWAP2 OR SWAP1 SSTORE POP DUP3 SWAP2 POP PUSH2 0x1D7 SWAP1 POP DUP2 PUSH2 0x3D2 JUMP JUMPDEST SWAP2 POP POP PUSH2 0xFF JUMP JUMPDEST POP JUMP JUMPDEST PUSH0 DUP1 DUP3 DUP2 SLOAD DUP2 LT PUSH2 0x1F5 JUMPI PUSH2 0x1F5 PUSH2 0x3EA JUMP JUMPDEST PUSH0 SWAP2 DUP3 MSTORE PUSH1 0x20 SWAP1 SWAP2 KECCAK256 ADD SLOAD PUSH1 0x1 PUSH1 0x1 PUSH1 0xA0 SHL SUB AND SWAP3 SWAP2 POP POP JUMP JUMPDEST PUSH1 0x60 DUP2 PUSH0 SUB PUSH2 0x235 JUMPI POP POP PUSH1 0x40 DUP1 MLOAD DUP1 DUP3 ADD SWAP1 SWAP2 MSTORE PUSH1 0x1 DUP2 MSTORE PUSH1 0x3 PUSH1 0xFC SHL PUSH1 0x20 DUP3 ADD MSTORE SWAP1 JUMP JUMPDEST DUP2 PUSH0 JUMPDEST DUP2 ISZERO PUSH2 0x25E JUMPI DUP1 PUSH2 0x248 DUP2 PUSH2 0x3D2 JUMP JUMPDEST SWAP2 POP PUSH2 0x257 SWAP1 POP PUSH1 0xA DUP4 PUSH2 0x412 JUMP JUMPDEST SWAP2 POP PUSH2 0x238 JUMP JUMPDEST PUSH0 DUP2 PUSH8 0xFFFFFFFFFFFFFFFF DUP2 GT ISZERO PUSH2 0x278 JUMPI PUSH2 0x278 PUSH2 0x425 JUMP JUMPDEST PUSH1 0x40 MLOAD SWAP1 DUP1 DUP3 MSTORE DUP1 PUSH1 0x1F ADD PUSH1 0x1F NOT AND PUSH1 0x20 ADD DUP3 ADD PUSH1 0x40 MSTORE DUP1 ISZERO PUSH2 0x2A2 JUMPI PUSH1 0x20 DUP3 ADD DUP2 DUP1 CALLDATASIZE DUP4 CALLDATACOPY ADD SWAP1 POP JUMPDEST POP SWAP1 POP DUP2 JUMPDEST DUP6 ISZERO PUSH2 0x30E JUMPI DUP1 PUSH2 0x2B7 DUP2 PUSH2 0x439 JUMP JUMPDEST SWAP2 POP PUSH2 0x2C6 SWAP1 POP PUSH1 0xA DUP8 PUSH2 0x44E JUMP JUMPDEST PUSH2 0x2D1 SWAP1 PUSH1 0x30 PUSH2 0x461 JUMP JUMPDEST PUSH1 0xF8 SHL DUP3 DUP3 DUP2 MLOAD DUP2 LT PUSH2 0x2E6 JUMPI PUSH2 0x2E6 PUSH2 0x3EA JUMP JUMPDEST PUSH1 0x20 ADD ADD SWAP1 PUSH1 0x1 PUSH1 0x1 PUSH1 0xF8 SHL SUB NOT AND SWAP1 DUP2 PUSH0 BYTE SWAP1 MSTORE8 POP PUSH2 0x307 PUSH1 0xA DUP8 PUSH2 0x412 JUMP JUMPDEST SWAP6 POP PUSH2 0x2A7 JUMP JUMPDEST POP SWAP5 SWAP4 POP POP POP POP JUMP JUMPDEST PUSH2 0x59D DUP1 PUSH2 0x475 DUP4 CODECOPY ADD SWAP1 JUMP JUMPDEST PUSH0 PUSH1 0x20 DUP3 DUP5 SUB SLT ISZERO PUSH2 0x334 JUMPI PUSH0 DUP1 REVERT JUMPDEST POP CALLDATALOAD SWAP2 SWAP1 POP JUMP JUMPDEST PUSH8 0x21B0B6B830B4B3B7 PUSH1 0xC1 SHL DUP2 MSTORE PUSH0 DUP3 MLOAD DUP1 PUSH1 0x20 DUP6 ADD PUSH1 0x8 DUP6 ADD MCOPY PUSH0 SWAP3 ADD PUSH1 0x8 ADD SWAP2 DUP3 MSTORE POP SWAP2 SWAP1 POP JUMP JUMPDEST PUSH4 0x4E487B71 PUSH1 0xE0 SHL PUSH0 MSTORE PUSH1 0x11 PUSH1 0x4 MSTORE PUSH1 0x24 PUSH0 REVERT JUMPDEST DUP1 DUP3 MUL DUP2 ISZERO DUP3 DUP3 DIV DUP5 EQ OR PUSH2 0x390 JUMPI PUSH2 0x390 PUSH2 0x365 JUMP JUMPDEST SWAP3 SWAP2 POP POP JUMP JUMPDEST PUSH1 0x40 DUP2 MSTORE PUSH0 DUP4 MLOAD DUP1 PUSH1 0x40 DUP5 ADD MSTORE DUP1 PUSH1 0x20 DUP7 ADD PUSH1 0x60 DUP6 ADD MCOPY PUSH0 PUSH1 0x60 DUP3 DUP6 ADD ADD MSTORE PUSH1 0x60 PUSH1 0x1F NOT PUSH1 0x1F DUP4 ADD AND DUP5 ADD ADD SWAP2 POP POP DUP3 PUSH1 0x20 DUP4 ADD MSTORE SWAP4 SWAP3 POP POP POP JUMP JUMPDEST PUSH0 PUSH1 0x1 DUP3 ADD PUSH2 0x3E3 JUMPI PUSH2 0x3E3 PUSH2 0x365 JUMP JUMPDEST POP PUSH1 0x1 ADD SWAP1 JUMP JUMPDEST PUSH4 0x4E487B71 PUSH1 0xE0 SHL PUSH0 MSTORE PUSH1 0x32 PUSH1 0x4 MSTORE PUSH1 0x24 PUSH0 REVERT JUMPDEST PUSH4 0x4E487B71 PUSH1 0xE0 SHL PUSH0 MSTORE PUSH1 0x12 PUSH1 0x4 MSTORE PUSH1 0x24 PUSH0 REVERT JUMPDEST PUSH0 DUP3 PUSH2 0x420 JUMPI PUSH2 0x420 PUSH2 0x3FE JUMP JUMPDEST POP DIV SWAP1 JUMP JUMPDEST PUSH4 0x4E487B71 PUSH1 0xE0 SHL PUSH0 MSTORE PUSH1 0x41 PUSH1 0x4 MSTORE PUSH1 0x24 PUSH0 REVERT JUMPDEST PUSH0 DUP2 PUSH2 0x447 JUMPI PUSH2 0x447 PUSH2 0x365 JUMP JUMPDEST POP PUSH0 NOT ADD SWAP1 JUMP JUMPDEST PUSH0 DUP3 PUSH2 0x45C JUMPI PUSH2 0x45C PUSH2 0x3FE JUMP JUMPDEST POP MOD SWAP1 JUMP JUMPDEST DUP1 DUP3 ADD DUP1 DUP3 GT ISZERO PUSH2 0x390 JUMPI PUSH2 0x390 PUSH2 0x365 JUMP INVALID PUSH1 0x80 PUSH1 0x40 MSTORE CALLVALUE DUP1 ISZERO PUSH2 0xF JUMPI PUSH0 DUP1 REVERT JUMPDEST POP PUSH1 0x40 MLOAD PUSH2 0x59D CODESIZE SUB DUP1 PUSH2 0x59D DUP4 CODECOPY DUP2 ADD PUSH1 0x40 DUP2 SWAP1 MSTORE PUSH2 0x2E SWAP2 PUSH2 0x69 JUMP JUMPDEST PUSH0 PUSH2 0x39 DUP4 DUP3 PUSH2 0x1A1 JUMP JUMPDEST POP PUSH1 0x2 SSTORE POP PUSH1 0x1 DUP1 SLOAD PUSH1 0x1 PUSH1 0x1 PUSH1 0xA0 SHL SUB NOT AND CALLER OR SWAP1 SSTORE PUSH2 0x25B JUMP JUMPDEST PUSH4 0x4E487B71 PUSH1 0xE0 SHL PUSH0 MSTORE PUSH1 0x41 PUSH1 0x4 MSTORE PUSH1 0x24 PUSH0 REVERT JUMPDEST PUSH0 DUP1 PUSH1 0x40 DUP4 DUP6 SUB SLT ISZERO PUSH2 0x7A JUMPI PUSH0 DUP1 REVERT JUMPDEST DUP3 MLOAD PUSH1 0x1 PUSH1 0x1 PUSH1 0x40 SHL SUB DUP2 GT ISZERO PUSH2 0x8F JUMPI PUSH0 DUP1 REVERT JUMPDEST DUP4 ADD PUSH1 0x1F DUP2 ADD DUP6 SGT PUSH2 0x9F JUMPI PUSH0 DUP1 REVERT JUMPDEST DUP1 MLOAD PUSH1 0x1 PUSH1 0x1 PUSH1 0x40 SHL SUB DUP2 GT ISZERO PUSH2 0xB8 JUMPI PUSH2 0xB8 PUSH2 0x55 JUMP JUMPDEST PUSH1 0x40 MLOAD PUSH1 0x1F DUP3 ADD PUSH1 0x1F NOT SWAP1 DUP2 AND PUSH1 0x3F ADD AND DUP2 ADD PUSH1 0x1 PUSH1 0x1 PUSH1 0x40 SHL SUB DUP2 GT DUP3 DUP3 LT OR ISZERO PUSH2 0xE6 JUMPI PUSH2 0xE6 PUSH2 0x55 JUMP JUMPDEST PUSH1 0x40 MSTORE DUP2 DUP2 MSTORE DUP3 DUP3 ADD PUSH1 0x20 ADD DUP8 LT ISZERO PUSH2 0xFD JUMPI PUSH0 DUP1 REVERT JUMPDEST DUP2 PUSH1 0x20 DUP5 ADD PUSH1 0x20 DUP4 ADD MCOPY PUSH0 PUSH1 0x20 SWAP3 DUP3 ADD DUP4 ADD MSTORE SWAP5 ADD MLOAD SWAP4 SWAP6 SWAP4 SWAP5 POP POP POP POP JUMP JUMPDEST PUSH1 0x1 DUP2 DUP2 SHR SWAP1 DUP3 AND DUP1 PUSH2 0x131 JUMPI PUSH1 0x7F DUP3 AND SWAP2 POP JUMPDEST PUSH1 0x20 DUP3 LT DUP2 SUB PUSH2 0x14F JUMPI PUSH4 0x4E487B71 PUSH1 0xE0 SHL PUSH0 MSTORE PUSH1 0x22 PUSH1 0x4 MSTORE PUSH1 0x24 PUSH0 REVERT JUMPDEST POP SWAP2 SWAP1 POP JUMP JUMPDEST PUSH1 0x1F DUP3 GT ISZERO PUSH2 0x19C JUMPI DUP1 PUSH0 MSTORE PUSH1 0x20 PUSH0 KECCAK256 PUSH1 0x1F DUP5 ADD PUSH1 0x5 SHR DUP2 ADD PUSH1 0x20 DUP6 LT ISZERO PUSH2 0x17A JUMPI POP DUP1 JUMPDEST PUSH1 0x1F DUP5 ADD PUSH1 0x5 SHR DUP3 ADD SWAP2 POP JUMPDEST DUP2 DUP2 LT ISZERO PUSH2 0x199 JUMPI PUSH0 DUP2 SSTORE PUSH1 0x1 ADD PUSH2 0x186 JUMP JUMPDEST POP POP JUMPDEST POP POP POP JUMP JUMPDEST DUP2 MLOAD PUSH1 0x1 PUSH1 0x1 PUSH1 0x40 SHL SUB DUP2 GT ISZERO PUSH2 0x1BA JUMPI PUSH2 0x1BA PUSH2 0x55 JUMP JUMPDEST PUSH2 0x1CE DUP2 PUSH2 0x1C8 DUP5 SLOAD PUSH2 0x11D JUMP JUMPDEST DUP5 PUSH2 0x155 JUMP JUMPDEST PUSH1 0x20 PUSH1 0x1F DUP3 GT PUSH1 0x1 DUP2 EQ PUSH2 0x200 JUMPI PUSH0 DUP4 ISZERO PUSH2 0x1E9 JUMPI POP DUP5 DUP3 ADD MLOAD JUMPDEST PUSH0 NOT PUSH1 0x3 DUP6 SWAP1 SHL SHR NOT AND PUSH1 0x1 DUP5 SWAP1 SHL OR DUP5 SSTORE PUSH2 0x199 JUMP JUMPDEST PUSH0 DUP5 DUP2 MSTORE PUSH1 0x20 DUP2 KECCAK256 PUSH1 0x1F NOT DUP6 AND SWAP2 JUMPDEST DUP3 DUP2 LT ISZERO PUSH2 0x22F JUMPI DUP8 DUP6 ADD MLOAD DUP3 SSTORE PUSH1 0x20 SWAP5 DUP6 ADD SWAP5 PUSH1 0x1 SWAP1 SWAP3 ADD SWAP2 ADD PUSH2 0x20F JUMP JUMPDEST POP DUP5 DUP3 LT ISZERO PUSH2 0x24C JUMPI DUP7 DUP5 ADD MLOAD PUSH0 NOT PUSH1 0x3 DUP8 SWAP1 SHL PUSH1 0xF8 AND SHR NOT AND DUP2 SSTORE JUMPDEST POP POP POP POP PUSH1 0x1 SWAP1 DUP2 SHL ADD SWAP1 SSTORE POP JUMP JUMPDEST PUSH2 0x335 DUP1 PUSH2 0x268 PUSH0 CODECOPY PUSH0 RETURN INVALID PUSH1 0x80 PUSH1 0x40 MSTORE PUSH1 0x4 CALLDATASIZE LT PUSH2 0x4C JUMPI PUSH0 CALLDATALOAD PUSH1 0xE0 SHR DUP1 PUSH4 0x2D05D3F EQ PUSH2 0x6E JUMPI DUP1 PUSH4 0x3CCFD60B EQ PUSH2 0xAA JUMPI DUP1 PUSH4 0x40193883 EQ PUSH2 0xC0 JUMPI DUP1 PUSH4 0x4A79D50C EQ PUSH2 0xE3 JUMPI DUP1 PUSH4 0xF0EA4BFC EQ PUSH2 0x104 JUMPI PUSH0 DUP1 REVERT JUMPDEST CALLDATASIZE PUSH2 0x6A JUMPI CALLVALUE PUSH1 0x3 PUSH0 DUP3 DUP3 SLOAD PUSH2 0x62 SWAP2 SWAP1 PUSH2 0x26D JUMP JUMPDEST SWAP3 POP POP DUP2 SWAP1 SSTORE STOP JUMPDEST PUSH0 DUP1 REVERT JUMPDEST CALLVALUE DUP1 ISZERO PUSH2 0x79 JUMPI PUSH0 DUP1 REVERT JUMPDEST POP PUSH1 0x1 SLOAD PUSH2 0x8D SWAP1 PUSH1 0x1 PUSH1 0x1 PUSH1 0xA0 SHL SUB AND DUP2 JUMP JUMPDEST PUSH1 0x40 MLOAD PUSH1 0x1 PUSH1 0x1 PUSH1 0xA0 SHL SUB SWAP1 SWAP2 AND DUP2 MSTORE PUSH1 0x20 ADD JUMPDEST PUSH1 0x40 MLOAD DUP1 SWAP2 SUB SWAP1 RETURN JUMPDEST CALLVALUE DUP1 ISZERO PUSH2 0xB5 JUMPI PUSH0 DUP1 REVERT JUMPDEST POP PUSH2 0xBE PUSH2 0x119 JUMP JUMPDEST STOP JUMPDEST CALLVALUE DUP1 ISZERO PUSH2 0xCB JUMPI PUSH0 DUP1 REVERT JUMPDEST POP PUSH2 0xD5 PUSH1 0x2 SLOAD DUP2 JUMP JUMPDEST PUSH1 0x40 MLOAD SWAP1 DUP2 MSTORE PUSH1 0x20 ADD PUSH2 0xA1 JUMP JUMPDEST CALLVALUE DUP1 ISZERO PUSH2 0xEE JUMPI PUSH0 DUP1 REVERT JUMPDEST POP PUSH2 0xF7 PUSH2 0x1E2 JUMP JUMPDEST PUSH1 0x40 MLOAD PUSH2 0xA1 SWAP2 SWAP1 PUSH2 0x292 JUMP JUMPDEST CALLVALUE DUP1 ISZERO PUSH2 0x10F JUMPI PUSH0 DUP1 REVERT JUMPDEST POP PUSH2 0xD5 PUSH1 0x3 SLOAD DUP2 JUMP JUMPDEST PUSH1 0x1 SLOAD PUSH1 0x1 PUSH1 0x1 PUSH1 0xA0 SHL SUB AND CALLER EQ PUSH2 0x166 JUMPI PUSH1 0x40 MLOAD PUSH3 0x461BCD PUSH1 0xE5 SHL DUP2 MSTORE PUSH1 0x20 PUSH1 0x4 DUP3 ADD MSTORE PUSH1 0xB PUSH1 0x24 DUP3 ADD MSTORE PUSH11 0x2737BA1031B932B0BA37B9 PUSH1 0xA9 SHL PUSH1 0x44 DUP3 ADD MSTORE PUSH1 0x64 ADD JUMPDEST PUSH1 0x40 MLOAD DUP1 SWAP2 SUB SWAP1 REVERT JUMPDEST PUSH1 0x2 SLOAD PUSH1 0x3 SLOAD LT ISZERO PUSH2 0x1A9 JUMPI PUSH1 0x40 MLOAD PUSH3 0x461BCD PUSH1 0xE5 SHL DUP2 MSTORE PUSH1 0x20 PUSH1 0x4 DUP3 ADD MSTORE PUSH1 0xC PUSH1 0x24 DUP3 ADD MSTORE PUSH12 0x11DBD85B081B9BDD081B595D PUSH1 0xA2 SHL PUSH1 0x44 DUP3 ADD MSTORE PUSH1 0x64 ADD PUSH2 0x15D JUMP JUMPDEST PUSH1 0x1 SLOAD PUSH1 0x40 MLOAD PUSH1 0x1 PUSH1 0x1 PUSH1 0xA0 SHL SUB SWAP1 SWAP2 AND SWAP1 SELFBALANCE DUP1 ISZERO PUSH2 0x8FC MUL SWAP2 PUSH0 DUP2 DUP2 DUP2 DUP6 DUP9 DUP9 CALL SWAP4 POP POP POP POP ISZERO DUP1 ISZERO PUSH2 0x1DF JUMPI RETURNDATASIZE PUSH0 DUP1 RETURNDATACOPY RETURNDATASIZE PUSH0 REVERT JUMPDEST POP JUMP JUMPDEST PUSH0 DUP1 SLOAD PUSH2 0x1EE SWAP1 PUSH2 0x2C7 JUMP JUMPDEST DUP1 PUSH1 0x1F ADD PUSH1 0x20 DUP1 SWAP2 DIV MUL PUSH1 0x20 ADD PUSH1 0x40 MLOAD SWAP1 DUP2 ADD PUSH1 0x40 MSTORE DUP1 SWAP3 SWAP2 SWAP1 DUP2 DUP2 MSTORE PUSH1 0x20 ADD DUP3 DUP1 SLOAD PUSH2 0x21A SWAP1 PUSH2 0x2C7 JUMP JUMPDEST DUP1 ISZERO PUSH2 0x265 JUMPI DUP1 PUSH1 0x1F LT PUSH2 0x23C JUMPI PUSH2 0x100 DUP1 DUP4 SLOAD DIV MUL DUP4 MSTORE SWAP2 PUSH1 0x20 ADD SWAP2 PUSH2 0x265 JUMP JUMPDEST DUP3 ADD SWAP2 SWAP1 PUSH0 MSTORE PUSH1 0x20 PUSH0 KECCAK256 SWAP1 JUMPDEST DUP2 SLOAD DUP2 MSTORE SWAP1 PUSH1 0x1 ADD SWAP1 PUSH1 0x20 ADD DUP1 DUP4 GT PUSH2 0x248 JUMPI DUP3 SWAP1 SUB PUSH1 0x1F AND DUP3 ADD SWAP2 JUMPDEST POP POP POP POP POP DUP2 JUMP JUMPDEST DUP1 DUP3 ADD DUP1 DUP3 GT ISZERO PUSH2 0x28C JUMPI PUSH4 0x4E487B71 PUSH1 0xE0 SHL PUSH0 MSTORE PUSH1 0x11 PUSH1 0x4 MSTORE PUSH1 0x24 PUSH0 REVERT JUMPDEST SWAP3 SWAP2 POP POP JUMP JUMPDEST PUSH1 0x20 DUP2 MSTORE PUSH0 DUP3 MLOAD DUP1 PUSH1 0x20 DUP5 ADD MSTORE DUP1 PUSH1 0x20 DUP6 ADD PUSH1 0x40 DUP6 ADD MCOPY PUSH0 PUSH1 0x40 DUP3 DUP6 ADD ADD MSTORE PUSH1 0x40 PUSH1 0x1F NOT PUSH1 0x1F DUP4 ADD AND DUP5 ADD ADD SWAP2 POP POP SWAP3 SWAP2 POP POP JUMP JUMPDEST PUSH1 0x1 DUP2 DUP2 SHR SWAP1 DUP3 AND DUP1 PUSH2 0x2DB JUMPI PUSH1 0x7F DUP3 AND SWAP2 POP JUMPDEST PUSH1 0x20 DUP3 LT DUP2 SUB PUSH2 0x2F9 JUMPI PUSH4 0x4E487B71 PUSH1 0xE0 SHL PUSH0 MSTORE PUSH1 0x22 PUSH1 0x4 MSTORE PUSH1 0x24 PUSH0 REVERT JUMPDEST POP SWAP2 SWAP1 POP JUMP INVALID LOG2 PUSH5 0x6970667358 0x22 SLT KECCAK256 0xBF ADDRESS LOG4 PUSH16 0x94811363B78FB51CA69D55C95AFC9863 SWAP6 0xBB ADDMOD 0xD6 SAR 0xE4 CALLDATACOPY PUSH24 0xE9BE96CE64736F6C634300081A0033A26469706673582212 KECCAK256 0xCA MUL 0xB8 COINBASE DUP5 GAS 0xDD PUSH24 0x9BD3D1615EE4FB80B76F81679A2BFB902E82EC5CC3E89C47 PUSH5 0x736F6C6343 STOP ADDMOD BYTE STOP CALLER "
				},
				"gasEstimates": {
					"creation": {
						"codeDepositCost": "526200",
						"executionCost": "560",
						"totalCost": "526760"
					},
					"external": {
						"campaigns(uint256)": "4576",
						"deployAll()": "infinite",
						"get(uint256)": "4625"
					},
					"internal": {
						"uint2str(uint256)": "infinite"
					}
				},
				"methodIdentifiers": {
					"campaigns(uint256)": "141961bc",
					"deployAll()": "2d823335",
					"get(uint256)": "9507d39a"
				}
			},
			"storageLayout": {
				"storage": [
					{
						"astId": 75,
						"contract": "crowdbatch.sol:BatchDeployCrowdfund",
						"label": "campaigns",
						"offset": 0,
						"slot": "0",
						"type": "t_array(t_contract(Crowdfund)71)dyn_storage"
					}
				],
				"types": {
					"t_array(t_contract(Crowdfund)71)dyn_storage": {
						"base": "t_contract(Crowdfund)71",
						"encoding": "dynamic_array",
						"label": "contract Crowdfund[]",
						"numberOfBytes": "32"
					},
					"t_contract(Crowdfund)71": {
						"encoding": "inplace",
						"label": "contract Crowdfund",
						"numberOfBytes": "20"
					}
				}
			},
			"userdoc": {
				"kind": "user",
				"methods": {},
				"version": 1
			}
		}
	}
}