{
	"auctioncontract.sol": {
		"Auction": {
			"abi": [
				{
					"inputs": [
						{
							"internalType": "string",
							"name": "_item",
							"type": "string"
						}
					],
					"stateMutability": "nonpayable",
					"type": "constructor"
				},
				{
					"inputs": [],
					"name": "bid",
					"outputs": [],
					"stateMutability": "payable",
					"type": "function"
				},
				{
					"inputs": [],
					"name": "endTime",
					"outputs": [
						{
							"internalType": "uint256",
							"name": "",
							"type": "uint256"
						}
					],
					"stateMutability": "view",
					"type": "function"
				},
				{
					"inputs": [],
					"name": "finalize",
					"outputs": [],
					"stateMutability": "nonpayable",
					"type": "function"
				},
				{
					"inputs": [],
					"name": "highestBid",
					"outputs": [
						{
							"internalType": "uint256",
							"name": "",
							"type": "uint256"
						}
					],
					"stateMutability": "view",
					"type": "function"
				},
				{
					"inputs": [],
					"name": "highestBidder",
					"outputs": [
						{
							"internalType": "address",
							"name": "",
							"type": "address"
						}
					],
					"stateMutability": "view",
					"type": "function"
				},
				{
					"inputs": [],
					"name": "item",
					"outputs": [
						{
							"internalType": "string",
							"name": "",
							"type": "string"
						}
					],
					"stateMutability": "view",
					"type": "function"
				},
				{
					"inputs": [],
					"name": "seller",
					"outputs": [
						{
							"internalType": "address",
							"name": "",
							"type": "address"
						}
					],
					"stateMutability": "view",
					"type": "function"
				}
			],
			"devdoc": {
				"kind": "dev",
				"methods": {},
				"version": 1
			},
			"evm": {
				"assembly": "    /* \"auctioncontract.sol\":61:924  contract Auction {... */\n  mstore(0x40, 0x80)\n    /* \"auctioncontract.sol\":230:369  constructor(string memory _item) {... */\n  callvalue\n  dup1\n  iszero\n  tag_1\n  jumpi\n  0x00\n  dup1\n  revert\ntag_1:\n  pop\n  mload(0x40)\n  sub(codesize, bytecodeSize)\n  dup1\n  bytecodeSize\n  dup4\n  codecopy\n  dup2\n  add\n  0x40\n  dup2\n  swap1\n  mstore\n  tag_2\n  swap2\n  tag_3\n  jump\t// in\ntag_2:\n    /* \"auctioncontract.sol\":274:278  item */\n  0x00\n    /* \"auctioncontract.sol\":274:286  item = _item */\n  tag_6\n    /* \"auctioncontract.sol\":281:286  _item */\n  dup3\n    /* \"auctioncontract.sol\":274:278  item */\n  dup3\n    /* \"auctioncontract.sol\":274:286  item = _item */\n  tag_7\n  jump\t// in\ntag_6:\n  pop\n    /* \"auctioncontract.sol\":297:303  seller */\n  0x04\n    /* \"auctioncontract.sol\":297:316  seller = msg.sender */\n  dup1\n  sload\n  not(sub(shl(0xa0, 0x01), 0x01))\n  and\n    /* \"auctioncontract.sol\":306:316  msg.sender */\n  caller\n    /* \"auctioncontract.sol\":297:316  seller = msg.sender */\n  or\n  swap1\n  sstore\n    /* \"auctioncontract.sol\":337:361  block.timestamp + 3 days */\n  tag_8\n    /* \"auctioncontract.sol\":337:352  block.timestamp */\n  timestamp\n    /* \"auctioncontract.sol\":355:361  3 days */\n  0x03f480\n    /* \"auctioncontract.sol\":337:361  block.timestamp + 3 days */\n  tag_9\n  jump\t// in\ntag_8:\n    /* \"auctioncontract.sol\":327:334  endTime */\n  0x03\n    /* \"auctioncontract.sol\":327:361  endTime = block.timestamp + 3 days */\n  sstore\n  pop\n    /* \"auctioncontract.sol\":61:924  contract Auction {... */\n  jump(tag_16)\n    /* \"#utility.yul\":14:141   */\ntag_11:\n    /* \"#utility.yul\":75:85   */\n  0x4e487b71\n    /* \"#utility.yul\":70:73   */\n  0xe0\n    /* \"#utility.yul\":66:86   */\n  shl\n    /* \"#utility.yul\":63:64   */\n  0x00\n    /* \"#utility.yul\":56:87   */\n  mstore\n    /* \"#utility.yul\":106:110   */\n  0x41\n    /* \"#utility.yul\":103:104   */\n  0x04\n    /* \"#utility.yul\":96:111   */\n  mstore\n    /* \"#utility.yul\":130:134   */\n  0x24\n    /* \"#utility.yul\":127:128   */\n  0x00\n    /* \"#utility.yul\":120:135   */\n  revert\n    /* \"#utility.yul\":146:1081   */\ntag_3:\n    /* \"#utility.yul\":226:232   */\n  0x00\n    /* \"#utility.yul\":279:281   */\n  0x20\n    /* \"#utility.yul\":267:276   */\n  dup3\n    /* \"#utility.yul\":258:265   */\n  dup5\n    /* \"#utility.yul\":254:277   */\n  sub\n    /* \"#utility.yul\":250:282   */\n  slt\n    /* \"#utility.yul\":247:299   */\n  iszero\n  tag_19\n  jumpi\n    /* \"#utility.yul\":295:296   */\n  0x00\n    /* \"#utility.yul\":292:293   */\n  dup1\n    /* \"#utility.yul\":285:297   */\n  revert\n    /* \"#utility.yul\":247:299   */\ntag_19:\n    /* \"#utility.yul\":322:338   */\n  dup2\n  mload\n  sub(shl(0x40, 0x01), 0x01)\n    /* \"#utility.yul\":350:380   */\n  dup2\n  gt\n    /* \"#utility.yul\":347:397   */\n  iszero\n  tag_20\n  jumpi\n    /* \"#utility.yul\":393:394   */\n  0x00\n    /* \"#utility.yul\":390:391   */\n  dup1\n    /* \"#utility.yul\":383:395   */\n  revert\n    /* \"#utility.yul\":347:397   */\ntag_20:\n    /* \"#utility.yul\":416:438   */\n  dup3\n  add\n    /* \"#utility.yul\":469:473   */\n  0x1f\n    /* \"#utility.yul\":461:474   */\n  dup2\n  add\n    /* \"#utility.yul\":457:484   */\n  dup5\n  sgt\n    /* \"#utility.yul\":447:502   */\n  tag_21\n  jumpi\n    /* \"#utility.yul\":498:499   */\n  0x00\n    /* \"#utility.yul\":495:496   */\n  dup1\n    /* \"#utility.yul\":488:500   */\n  revert\n    /* \"#utility.yul\":447:502   */\ntag_21:\n    /* \"#utility.yul\":525:534   */\n  dup1\n  mload\n  sub(shl(0x40, 0x01), 0x01)\n    /* \"#utility.yul\":546:576   */\n  dup2\n  gt\n    /* \"#utility.yul\":543:599   */\n  iszero\n  tag_23\n  jumpi\n    /* \"#utility.yul\":579:597   */\n  tag_23\n  tag_11\n  jump\t// in\ntag_23:\n    /* \"#utility.yul\":628:630   */\n  0x40\n    /* \"#utility.yul\":622:631   */\n  mload\n    /* \"#utility.yul\":720:722   */\n  0x1f\n    /* \"#utility.yul\":682:699   */\n  dup3\n  add\n  not(0x1f)\n    /* \"#utility.yul\":678:709   */\n  swap1\n  dup2\n  and\n    /* \"#utility.yul\":711:713   */\n  0x3f\n    /* \"#utility.yul\":674:714   */\n  add\n    /* \"#utility.yul\":670:724   */\n  and\n    /* \"#utility.yul\":658:725   */\n  dup2\n  add\n  sub(shl(0x40, 0x01), 0x01)\n    /* \"#utility.yul\":740:774   */\n  dup2\n  gt\n    /* \"#utility.yul\":776:798   */\n  dup3\n  dup3\n  lt\n    /* \"#utility.yul\":737:799   */\n  or\n    /* \"#utility.yul\":734:822   */\n  iszero\n  tag_25\n  jumpi\n    /* \"#utility.yul\":802:820   */\n  tag_25\n  tag_11\n  jump\t// in\ntag_25:\n    /* \"#utility.yul\":838:840   */\n  0x40\n    /* \"#utility.yul\":831:853   */\n  mstore\n    /* \"#utility.yul\":862:884   */\n  dup2\n  dup2\n  mstore\n    /* \"#utility.yul\":903:918   */\n  dup3\n  dup3\n  add\n    /* \"#utility.yul\":920:922   */\n  0x20\n    /* \"#utility.yul\":899:923   */\n  add\n    /* \"#utility.yul\":896:933   */\n  dup7\n  lt\n    /* \"#utility.yul\":893:950   */\n  iszero\n  tag_26\n  jumpi\n    /* \"#utility.yul\":946:947   */\n  0x00\n    /* \"#utility.yul\":943:944   */\n  dup1\n    /* \"#utility.yul\":936:948   */\n  revert\n    /* \"#utility.yul\":893:950   */\ntag_26:\n    /* \"#utility.yul\":995:1001   */\n  dup2\n    /* \"#utility.yul\":990:992   */\n  0x20\n    /* \"#utility.yul\":986:988   */\n  dup5\n    /* \"#utility.yul\":982:993   */\n  add\n    /* \"#utility.yul\":977:979   */\n  0x20\n    /* \"#utility.yul\":969:975   */\n  dup4\n    /* \"#utility.yul\":965:980   */\n  add\n    /* \"#utility.yul\":959:1002   */\n  mcopy\n    /* \"#utility.yul\":1048:1049   */\n  0x00\n    /* \"#utility.yul\":1022:1041   */\n  swap2\n  dup2\n  add\n    /* \"#utility.yul\":1043:1045   */\n  0x20\n    /* \"#utility.yul\":1018:1046   */\n  add\n    /* \"#utility.yul\":1011:1050   */\n  swap2\n  swap1\n  swap2\n  mstore\n    /* \"#utility.yul\":1026:1032   */\n  swap5\n    /* \"#utility.yul\":146:1081   */\n  swap4\n  pop\n  pop\n  pop\n  pop\n  jump\t// out\n    /* \"#utility.yul\":1086:1466   */\ntag_12:\n    /* \"#utility.yul\":1165:1166   */\n  0x01\n    /* \"#utility.yul\":1161:1173   */\n  dup2\n  dup2\n  shr\n  swap1\n    /* \"#utility.yul\":1208:1220   */\n  dup3\n  and\n  dup1\n    /* \"#utility.yul\":1229:1290   */\n  tag_28\n  jumpi\n    /* \"#utility.yul\":1283:1287   */\n  0x7f\n    /* \"#utility.yul\":1275:1281   */\n  dup3\n    /* \"#utility.yul\":1271:1288   */\n  and\n    /* \"#utility.yul\":1261:1288   */\n  swap2\n  pop\n    /* \"#utility.yul\":1229:1290   */\ntag_28:\n    /* \"#utility.yul\":1336:1338   */\n  0x20\n    /* \"#utility.yul\":1328:1334   */\n  dup3\n    /* \"#utility.yul\":1325:1339   */\n  lt\n    /* \"#utility.yul\":1305:1323   */\n  dup2\n    /* \"#utility.yul\":1302:1340   */\n  sub\n    /* \"#utility.yul\":1299:1460   */\n  tag_29\n  jumpi\n    /* \"#utility.yul\":1382:1392   */\n  0x4e487b71\n    /* \"#utility.yul\":1377:1380   */\n  0xe0\n    /* \"#utility.yul\":1373:1393   */\n  shl\n    /* \"#utility.yul\":1370:1371   */\n  0x00\n    /* \"#utility.yul\":1363:1394   */\n  mstore\n    /* \"#utility.yul\":1417:1421   */\n  0x22\n    /* \"#utility.yul\":1414:1415   */\n  0x04\n    /* \"#utility.yul\":1407:1422   */\n  mstore\n    /* \"#utility.yul\":1445:1449   */\n  0x24\n    /* \"#utility.yul\":1442:1443   */\n  0x00\n    /* \"#utility.yul\":1435:1450   */\n  revert\n    /* \"#utility.yul\":1299:1460   */\ntag_29:\n  pop\n    /* \"#utility.yul\":1086:1466   */\n  swap2\n  swap1\n  pop\n  jump\t// out\n    /* \"#utility.yul\":1597:2115   */\ntag_14:\n    /* \"#utility.yul\":1699:1701   */\n  0x1f\n    /* \"#utility.yul\":1694:1697   */\n  dup3\n    /* \"#utility.yul\":1691:1702   */\n  gt\n    /* \"#utility.yul\":1688:2109   */\n  iszero\n  tag_32\n  jumpi\n    /* \"#utility.yul\":1735:1740   */\n  dup1\n    /* \"#utility.yul\":1732:1733   */\n  0x00\n    /* \"#utility.yul\":1725:1741   */\n  mstore\n    /* \"#utility.yul\":1779:1783   */\n  0x20\n    /* \"#utility.yul\":1776:1777   */\n  0x00\n    /* \"#utility.yul\":1766:1784   */\n  keccak256\n    /* \"#utility.yul\":1849:1851   */\n  0x1f\n    /* \"#utility.yul\":1837:1847   */\n  dup5\n    /* \"#utility.yul\":1833:1852   */\n  add\n    /* \"#utility.yul\":1830:1831   */\n  0x05\n    /* \"#utility.yul\":1826:1853   */\n  shr\n    /* \"#utility.yul\":1820:1824   */\n  dup2\n    /* \"#utility.yul\":1816:1854   */\n  add\n    /* \"#utility.yul\":1885:1889   */\n  0x20\n    /* \"#utility.yul\":1873:1883   */\n  dup6\n    /* \"#utility.yul\":1870:1890   */\n  lt\n    /* \"#utility.yul\":1867:1914   */\n  iszero\n  tag_33\n  jumpi\n  pop\n    /* \"#utility.yul\":1908:1912   */\n  dup1\n    /* \"#utility.yul\":1867:1914   */\ntag_33:\n    /* \"#utility.yul\":1963:1965   */\n  0x1f\n    /* \"#utility.yul\":1958:1961   */\n  dup5\n    /* \"#utility.yul\":1954:1966   */\n  add\n    /* \"#utility.yul\":1951:1952   */\n  0x05\n    /* \"#utility.yul\":1947:1967   */\n  shr\n    /* \"#utility.yul\":1941:1945   */\n  dup3\n    /* \"#utility.yul\":1937:1968   */\n  add\n    /* \"#utility.yul\":1927:1968   */\n  swap2\n  pop\n    /* \"#utility.yul\":2018:2099   */\ntag_34:\n    /* \"#utility.yul\":2036:2038   */\n  dup2\n    /* \"#utility.yul\":2029:2034   */\n  dup2\n    /* \"#utility.yul\":2026:2039   */\n  lt\n    /* \"#utility.yul\":2018:2099   */\n  iszero\n  tag_36\n  jumpi\n    /* \"#utility.yul\":2095:2096   */\n  0x00\n    /* \"#utility.yul\":2081:2097   */\n  dup2\n  sstore\n    /* \"#utility.yul\":2062:2063   */\n  0x01\n    /* \"#utility.yul\":2051:2064   */\n  add\n    /* \"#utility.yul\":2018:2099   */\n  jump(tag_34)\ntag_36:\n    /* \"#utility.yul\":2022:2025   */\n  pop\n  pop\n    /* \"#utility.yul\":1688:2109   */\ntag_32:\n    /* \"#utility.yul\":1597:2115   */\n  pop\n  pop\n  pop\n  jump\t// out\n    /* \"#utility.yul\":2291:3590   */\ntag_7:\n    /* \"#utility.yul\":2411:2421   */\n  dup2\n  mload\n  sub(shl(0x40, 0x01), 0x01)\n    /* \"#utility.yul\":2433:2463   */\n  dup2\n  gt\n    /* \"#utility.yul\":2430:2486   */\n  iszero\n  tag_40\n  jumpi\n    /* \"#utility.yul\":2466:2484   */\n  tag_40\n  tag_11\n  jump\t// in\ntag_40:\n    /* \"#utility.yul\":2495:2592   */\n  tag_41\n    /* \"#utility.yul\":2585:2591   */\n  dup2\n    /* \"#utility.yul\":2545:2583   */\n  tag_42\n    /* \"#utility.yul\":2577:2581   */\n  dup5\n    /* \"#utility.yul\":2571:2582   */\n  sload\n    /* \"#utility.yul\":2545:2583   */\n  tag_12\n  jump\t// in\ntag_42:\n    /* \"#utility.yul\":2539:2543   */\n  dup5\n    /* \"#utility.yul\":2495:2592   */\n  tag_14\n  jump\t// in\ntag_41:\n    /* \"#utility.yul\":2641:2645   */\n  0x20\n    /* \"#utility.yul\":2672:2674   */\n  0x1f\n    /* \"#utility.yul\":2661:2675   */\n  dup3\n  gt\n    /* \"#utility.yul\":2689:2690   */\n  0x01\n    /* \"#utility.yul\":2684:3333   */\n  dup2\n  eq\n  tag_44\n  jumpi\n    /* \"#utility.yul\":3377:3378   */\n  0x00\n    /* \"#utility.yul\":3394:3400   */\n  dup4\n    /* \"#utility.yul\":3391:3480   */\n  iszero\n  tag_45\n  jumpi\n  pop\n    /* \"#utility.yul\":3446:3465   */\n  dup5\n  dup3\n  add\n    /* \"#utility.yul\":3440:3466   */\n  mload\n    /* \"#utility.yul\":3391:3480   */\ntag_45:\n  not(0x00)\n    /* \"#utility.yul\":2248:2249   */\n  0x03\n    /* \"#utility.yul\":2244:2255   */\n  dup6\n  swap1\n  shl\n    /* \"#utility.yul\":2240:2264   */\n  shr\n    /* \"#utility.yul\":2236:2265   */\n  not\n    /* \"#utility.yul\":2226:2266   */\n  and\n    /* \"#utility.yul\":2272:2273   */\n  0x01\n    /* \"#utility.yul\":2268:2279   */\n  dup5\n  swap1\n  shl\n    /* \"#utility.yul\":2223:2280   */\n  or\n    /* \"#utility.yul\":3493:3574   */\n  dup5\n  sstore\n    /* \"#utility.yul\":2654:3584   */\n  jump(tag_36)\n    /* \"#utility.yul\":2684:3333   */\ntag_44:\n    /* \"#utility.yul\":1544:1545   */\n  0x00\n    /* \"#utility.yul\":1537:1551   */\n  dup5\n  dup2\n  mstore\n    /* \"#utility.yul\":1581:1585   */\n  0x20\n    /* \"#utility.yul\":1568:1586   */\n  dup2\n  keccak256\n  not(0x1f)\n    /* \"#utility.yul\":2720:2740   */\n  dup6\n  and\n  swap2\n    /* \"#utility.yul\":2838:3060   */\ntag_48:\n    /* \"#utility.yul\":2852:2859   */\n  dup3\n    /* \"#utility.yul\":2849:2850   */\n  dup2\n    /* \"#utility.yul\":2846:2860   */\n  lt\n    /* \"#utility.yul\":2838:3060   */\n  iszero\n  tag_50\n  jumpi\n    /* \"#utility.yul\":2934:2953   */\n  dup8\n  dup6\n  add\n    /* \"#utility.yul\":2928:2954   */\n  mload\n    /* \"#utility.yul\":2913:2955   */\n  dup3\n  sstore\n    /* \"#utility.yul\":3041:3045   */\n  0x20\n    /* \"#utility.yul\":3026:3046   */\n  swap5\n  dup6\n  add\n  swap5\n    /* \"#utility.yul\":2994:2995   */\n  0x01\n    /* \"#utility.yul\":2982:2996   */\n  swap1\n  swap3\n  add\n  swap2\n    /* \"#utility.yul\":2868:2880   */\n  add\n    /* \"#utility.yul\":2838:3060   */\n  jump(tag_48)\ntag_50:\n    /* \"#utility.yul\":2842:2845   */\n  pop\n    /* \"#utility.yul\":3088:3094   */\n  dup5\n    /* \"#utility.yul\":3079:3086   */\n  dup3\n    /* \"#utility.yul\":3076:3095   */\n  lt\n    /* \"#utility.yul\":3073:3274   */\n  iszero\n  tag_51\n  jumpi\n    /* \"#utility.yul\":3149:3168   */\n  dup7\n  dup5\n  add\n    /* \"#utility.yul\":3143:3169   */\n  mload\n  not(0x00)\n    /* \"#utility.yul\":3232:3233   */\n  0x03\n    /* \"#utility.yul\":3228:3242   */\n  dup8\n  swap1\n  shl\n    /* \"#utility.yul\":3244:3247   */\n  0xf8\n    /* \"#utility.yul\":3224:3248   */\n  and\n    /* \"#utility.yul\":3220:3257   */\n  shr\n    /* \"#utility.yul\":3216:3258   */\n  not\n    /* \"#utility.yul\":3201:3259   */\n  and\n    /* \"#utility.yul\":3186:3260   */\n  dup2\n  sstore\n    /* \"#utility.yul\":3073:3274   */\ntag_51:\n  pop\n  pop\n  pop\n  pop\n    /* \"#utility.yul\":3320:3321   */\n  0x01\n    /* \"#utility.yul\":3304:3318   */\n  swap1\n  dup2\n  shl\n    /* \"#utility.yul\":3300:3322   */\n  add\n    /* \"#utility.yul\":3287:3323   */\n  swap1\n  sstore\n  pop\n    /* \"#utility.yul\":2291:3590   */\n  jump\t// out\n    /* \"#utility.yul\":3595:3817   */\ntag_9:\n    /* \"#utility.yul\":3660:3669   */\n  dup1\n  dup3\n  add\n    /* \"#utility.yul\":3681:3691   */\n  dup1\n  dup3\n  gt\n    /* \"#utility.yul\":3678:3811   */\n  iszero\n  tag_53\n  jumpi\n    /* \"#utility.yul\":3733:3743   */\n  0x4e487b71\n    /* \"#utility.yul\":3728:3731   */\n  0xe0\n    /* \"#utility.yul\":3724:3744   */\n  shl\n    /* \"#utility.yul\":3721:3722   */\n  0x00\n    /* \"#utility.yul\":3714:3745   */\n  mstore\n    /* \"#utility.yul\":3768:3772   */\n  0x11\n    /* \"#utility.yul\":3765:3766   */\n  0x04\n    /* \"#utility.yul\":3758:3773   */\n  mstore\n    /* \"#utility.yul\":3796:3800   */\n  0x24\n    /* \"#utility.yul\":3793:3794   */\n  0x00\n    /* \"#utility.yul\":3786:3801   */\n  revert\n    /* \"#utility.yul\":3678:3811   */\ntag_53:\n    /* \"#utility.yul\":3595:3817   */\n  swap3\n  swap2\n  pop\n  pop\n  jump\t// out\ntag_16:\n    /* \"auctioncontract.sol\":61:924  contract Auction {... */\n  dataSize(sub_0)\n  dup1\n  dataOffset(sub_0)\n  0x00\n  codecopy\n  0x00\n  return\nstop\n\nsub_0: assembly {\n        /* \"auctioncontract.sol\":61:924  contract Auction {... */\n      mstore(0x40, 0x80)\n      jumpi(tag_1, lt(calldatasize, 0x04))\n      shr(0xe0, calldataload(0x00))\n      dup1\n      0x4bb278f3\n      gt\n      tag_9\n      jumpi\n      dup1\n      0x4bb278f3\n      eq\n      tag_5\n      jumpi\n      dup1\n      0x91f90157\n      eq\n      tag_6\n      jumpi\n      dup1\n      0xd57bde79\n      eq\n      tag_7\n      jumpi\n      dup1\n      0xf2a4a82e\n      eq\n      tag_8\n      jumpi\n      0x00\n      dup1\n      revert\n    tag_9:\n      dup1\n      0x08551a53\n      eq\n      tag_2\n      jumpi\n      dup1\n      0x1998aeef\n      eq\n      tag_3\n      jumpi\n      dup1\n      0x3197cbb6\n      eq\n      tag_4\n      jumpi\n    tag_1:\n      0x00\n      dup1\n      revert\n        /* \"auctioncontract.sol\":200:221  address public seller */\n    tag_2:\n      callvalue\n      dup1\n      iszero\n      tag_10\n      jumpi\n      0x00\n      dup1\n      revert\n    tag_10:\n      pop\n      sload(0x04)\n      tag_11\n      swap1\n      sub(shl(0xa0, 0x01), 0x01)\n      and\n      dup2\n      jump\n    tag_11:\n      mload(0x40)\n      sub(shl(0xa0, 0x01), 0x01)\n        /* \"#utility.yul\":178:210   */\n      swap1\n      swap2\n      and\n        /* \"#utility.yul\":160:211   */\n      dup2\n      mstore\n        /* \"#utility.yul\":148:150   */\n      0x20\n        /* \"#utility.yul\":133:151   */\n      add\n        /* \"auctioncontract.sol\":200:221  address public seller */\n    tag_13:\n      mload(0x40)\n      dup1\n      swap2\n      sub\n      swap1\n      return\n        /* \"auctioncontract.sol\":377:717  function bid() public payable {... */\n    tag_3:\n      tag_15\n      tag_16\n      jump\t// in\n    tag_15:\n      stop\n        /* \"auctioncontract.sol\":174:193  uint public endTime */\n    tag_4:\n      callvalue\n      dup1\n      iszero\n      tag_17\n      jumpi\n      0x00\n      dup1\n      revert\n    tag_17:\n      pop\n      tag_18\n      sload(0x03)\n      dup2\n      jump\n    tag_18:\n      mload(0x40)\n        /* \"#utility.yul\":368:393   */\n      swap1\n      dup2\n      mstore\n        /* \"#utility.yul\":356:358   */\n      0x20\n        /* \"#utility.yul\":341:359   */\n      add\n        /* \"auctioncontract.sol\":174:193  uint public endTime */\n      tag_13\n        /* \"#utility.yul\":222:399   */\n      jump\n        /* \"auctioncontract.sol\":725:921  function finalize() public {... */\n    tag_5:\n      callvalue\n      dup1\n      iszero\n      tag_22\n      jumpi\n      0x00\n      dup1\n      revert\n    tag_22:\n      pop\n      tag_15\n      tag_24\n      jump\t// in\n        /* \"auctioncontract.sol\":110:138  address public highestBidder */\n    tag_6:\n      callvalue\n      dup1\n      iszero\n      tag_25\n      jumpi\n      0x00\n      dup1\n      revert\n    tag_25:\n      pop\n      sload(0x01)\n      tag_11\n      swap1\n      sub(shl(0xa0, 0x01), 0x01)\n      and\n      dup2\n      jump\n        /* \"auctioncontract.sol\":145:167  uint public highestBid */\n    tag_7:\n      callvalue\n      dup1\n      iszero\n      tag_29\n      jumpi\n      0x00\n      dup1\n      revert\n    tag_29:\n      pop\n      tag_18\n      sload(0x02)\n      dup2\n      jump\n        /* \"auctioncontract.sol\":85:103  string public item */\n    tag_8:\n      callvalue\n      dup1\n      iszero\n      tag_33\n      jumpi\n      0x00\n      dup1\n      revert\n    tag_33:\n      pop\n      tag_34\n      tag_35\n      jump\t// in\n    tag_34:\n      mload(0x40)\n      tag_13\n      swap2\n      swap1\n      tag_37\n      jump\t// in\n        /* \"auctioncontract.sol\":377:717  function bid() public payable {... */\n    tag_16:\n        /* \"auctioncontract.sol\":444:451  endTime */\n      sload(0x03)\n        /* \"auctioncontract.sol\":426:441  block.timestamp */\n      timestamp\n        /* \"auctioncontract.sol\":426:451  block.timestamp < endTime */\n      lt\n        /* \"auctioncontract.sol\":418:469  require(block.timestamp < endTime, \"Auction ended\") */\n      tag_39\n      jumpi\n      mload(0x40)\n      shl(0xe5, 0x461bcd)\n      dup2\n      mstore\n        /* \"#utility.yul\":1029:1031   */\n      0x20\n        /* \"auctioncontract.sol\":418:469  require(block.timestamp < endTime, \"Auction ended\") */\n      0x04\n      dup3\n      add\n        /* \"#utility.yul\":1011:1032   */\n      mstore\n        /* \"#utility.yul\":1068:1070   */\n      0x0d\n        /* \"#utility.yul\":1048:1066   */\n      0x24\n      dup3\n      add\n        /* \"#utility.yul\":1041:1071   */\n      mstore\n      shl(0x9a, 0x105d58dd1a5bdb88195b991959)\n        /* \"#utility.yul\":1087:1105   */\n      0x44\n      dup3\n      add\n        /* \"#utility.yul\":1080:1123   */\n      mstore\n        /* \"#utility.yul\":1140:1158   */\n      0x64\n      add\n        /* \"auctioncontract.sol\":418:469  require(block.timestamp < endTime, \"Auction ended\") */\n    tag_40:\n      mload(0x40)\n      dup1\n      swap2\n      sub\n      swap1\n      revert\n    tag_39:\n        /* \"auctioncontract.sol\":500:510  highestBid */\n      sload(0x02)\n        /* \"auctioncontract.sol\":488:497  msg.value */\n      callvalue\n        /* \"auctioncontract.sol\":488:510  msg.value > highestBid */\n      gt\n        /* \"auctioncontract.sol\":480:522  require(msg.value > highestBid, \"Low bid\") */\n      tag_42\n      jumpi\n      mload(0x40)\n      shl(0xe5, 0x461bcd)\n      dup2\n      mstore\n        /* \"#utility.yul\":1371:1373   */\n      0x20\n        /* \"auctioncontract.sol\":480:522  require(msg.value > highestBid, \"Low bid\") */\n      0x04\n      dup3\n      add\n        /* \"#utility.yul\":1353:1374   */\n      mstore\n        /* \"#utility.yul\":1410:1411   */\n      0x07\n        /* \"#utility.yul\":1390:1408   */\n      0x24\n      dup3\n      add\n        /* \"#utility.yul\":1383:1412   */\n      mstore\n      shl(0xca, 0x131bddc8189a59)\n        /* \"#utility.yul\":1428:1446   */\n      0x44\n      dup3\n      add\n        /* \"#utility.yul\":1421:1458   */\n      mstore\n        /* \"#utility.yul\":1475:1493   */\n      0x64\n      add\n        /* \"auctioncontract.sol\":480:522  require(msg.value > highestBid, \"Low bid\") */\n      tag_40\n        /* \"#utility.yul\":1169:1499   */\n      jump\n        /* \"auctioncontract.sol\":480:522  require(msg.value > highestBid, \"Low bid\") */\n    tag_42:\n        /* \"auctioncontract.sol\":539:552  highestBidder */\n      and(sub(shl(0xa0, 0x01), 0x01), sload(0x01))\n        /* \"auctioncontract.sol\":539:566  highestBidder != address(0) */\n      iszero\n        /* \"auctioncontract.sol\":535:638  if (highestBidder != address(0)) {... */\n      tag_45\n      jumpi\n        /* \"auctioncontract.sol\":591:604  highestBidder */\n      sload(0x01)\n        /* \"auctioncontract.sol\":615:625  highestBid */\n      sload(0x02)\n        /* \"auctioncontract.sol\":583:626  payable(highestBidder).transfer(highestBid) */\n      mload(0x40)\n      sub(shl(0xa0, 0x01), 0x01)\n        /* \"auctioncontract.sol\":591:604  highestBidder */\n      swap1\n      swap3\n      and\n      swap2\n        /* \"auctioncontract.sol\":583:626  payable(highestBidder).transfer(highestBid) */\n      dup2\n      iszero\n      0x08fc\n      mul\n      swap2\n        /* \"auctioncontract.sol\":615:625  highestBid */\n      swap1\n        /* \"auctioncontract.sol\":591:604  highestBidder */\n      0x00\n        /* \"auctioncontract.sol\":583:626  payable(highestBidder).transfer(highestBid) */\n      dup2\n        /* \"auctioncontract.sol\":591:604  highestBidder */\n      dup2\n        /* \"auctioncontract.sol\":583:626  payable(highestBidder).transfer(highestBid) */\n      dup2\n        /* \"auctioncontract.sol\":615:625  highestBid */\n      dup6\n        /* \"auctioncontract.sol\":591:604  highestBidder */\n      dup9\n        /* \"auctioncontract.sol\":583:626  payable(highestBidder).transfer(highestBid) */\n      dup9\n      call\n      swap4\n      pop\n      pop\n      pop\n      pop\n      iszero\n      dup1\n      iszero\n      tag_47\n      jumpi\n      returndatasize\n      0x00\n      dup1\n      returndatacopy\n      revert(0x00, returndatasize)\n    tag_47:\n      pop\n        /* \"auctioncontract.sol\":535:638  if (highestBidder != address(0)) {... */\n    tag_45:\n        /* \"auctioncontract.sol\":663:672  msg.value */\n      callvalue\n        /* \"auctioncontract.sol\":650:660  highestBid */\n      0x02\n        /* \"auctioncontract.sol\":650:672  highestBid = msg.value */\n      sstore\n        /* \"auctioncontract.sol\":683:696  highestBidder */\n      0x01\n        /* \"auctioncontract.sol\":683:709  highestBidder = msg.sender */\n      dup1\n      sload\n      not(sub(shl(0xa0, 0x01), 0x01))\n      and\n        /* \"auctioncontract.sol\":699:709  msg.sender */\n      caller\n        /* \"auctioncontract.sol\":683:709  highestBidder = msg.sender */\n      or\n      swap1\n      sstore\n        /* \"auctioncontract.sol\":377:717  function bid() public payable {... */\n      jump\t// out\n        /* \"auctioncontract.sol\":725:921  function finalize() public {... */\n    tag_24:\n        /* \"auctioncontract.sol\":790:797  endTime */\n      sload(0x03)\n        /* \"auctioncontract.sol\":771:786  block.timestamp */\n      timestamp\n        /* \"auctioncontract.sol\":771:797  block.timestamp >= endTime */\n      lt\n      iszero\n        /* \"auctioncontract.sol\":763:811  require(block.timestamp >= endTime, \"Too early\") */\n      tag_49\n      jumpi\n      mload(0x40)\n      shl(0xe5, 0x461bcd)\n      dup2\n      mstore\n        /* \"#utility.yul\":1706:1708   */\n      0x20\n        /* \"auctioncontract.sol\":763:811  require(block.timestamp >= endTime, \"Too early\") */\n      0x04\n      dup3\n      add\n        /* \"#utility.yul\":1688:1709   */\n      mstore\n        /* \"#utility.yul\":1745:1746   */\n      0x09\n        /* \"#utility.yul\":1725:1743   */\n      0x24\n      dup3\n      add\n        /* \"#utility.yul\":1718:1747   */\n      mstore\n      shl(0xb8, 0x546f6f206561726c79)\n        /* \"#utility.yul\":1763:1781   */\n      0x44\n      dup3\n      add\n        /* \"#utility.yul\":1756:1795   */\n      mstore\n        /* \"#utility.yul\":1812:1830   */\n      0x64\n      add\n        /* \"auctioncontract.sol\":763:811  require(block.timestamp >= endTime, \"Too early\") */\n      tag_40\n        /* \"#utility.yul\":1504:1836   */\n      jump\n        /* \"auctioncontract.sol\":763:811  require(block.timestamp >= endTime, \"Too early\") */\n    tag_49:\n        /* \"auctioncontract.sol\":844:850  seller */\n      and(sub(shl(0xa0, 0x01), 0x01), sload(0x04))\n        /* \"auctioncontract.sol\":830:840  msg.sender */\n      caller\n        /* \"auctioncontract.sol\":830:850  msg.sender == seller */\n      eq\n        /* \"auctioncontract.sol\":822:866  require(msg.sender == seller, \"Only seller\") */\n      tag_52\n      jumpi\n      mload(0x40)\n      shl(0xe5, 0x461bcd)\n      dup2\n      mstore\n        /* \"#utility.yul\":2043:2045   */\n      0x20\n        /* \"auctioncontract.sol\":822:866  require(msg.sender == seller, \"Only seller\") */\n      0x04\n      dup3\n      add\n        /* \"#utility.yul\":2025:2046   */\n      mstore\n        /* \"#utility.yul\":2082:2084   */\n      0x0b\n        /* \"#utility.yul\":2062:2080   */\n      0x24\n      dup3\n      add\n        /* \"#utility.yul\":2055:2085   */\n      mstore\n      shl(0xa9, 0x27b7363c9039b2b63632b9)\n        /* \"#utility.yul\":2101:2119   */\n      0x44\n      dup3\n      add\n        /* \"#utility.yul\":2094:2135   */\n      mstore\n        /* \"#utility.yul\":2152:2170   */\n      0x64\n      add\n        /* \"auctioncontract.sol\":822:866  require(msg.sender == seller, \"Only seller\") */\n      tag_40\n        /* \"#utility.yul\":1841:2176   */\n      jump\n        /* \"auctioncontract.sol\":822:866  require(msg.sender == seller, \"Only seller\") */\n    tag_52:\n        /* \"auctioncontract.sol\":885:891  seller */\n      sload(0x04)\n        /* \"auctioncontract.sol\":902:912  highestBid */\n      sload(0x02)\n        /* \"auctioncontract.sol\":877:913  payable(seller).transfer(highestBid) */\n      mload(0x40)\n      sub(shl(0xa0, 0x01), 0x01)\n        /* \"auctioncontract.sol\":885:891  seller */\n      swap1\n      swap3\n      and\n      swap2\n        /* \"auctioncontract.sol\":877:913  payable(seller).transfer(highestBid) */\n      dup2\n      iszero\n      0x08fc\n      mul\n      swap2\n        /* \"auctioncontract.sol\":902:912  highestBid */\n      swap1\n        /* \"auctioncontract.sol\":885:891  seller */\n      0x00\n        /* \"auctioncontract.sol\":877:913  payable(seller).transfer(highestBid) */\n      dup2\n        /* \"auctioncontract.sol\":885:891  seller */\n      dup2\n        /* \"auctioncontract.sol\":877:913  payable(seller).transfer(highestBid) */\n      dup2\n        /* \"auctioncontract.sol\":902:912  highestBid */\n      dup6\n        /* \"auctioncontract.sol\":885:891  seller */\n      dup9\n        /* \"auctioncontract.sol\":877:913  payable(seller).transfer(highestBid) */\n      dup9\n      call\n      swap4\n      pop\n      pop\n      pop\n      pop\n      iszero\n      dup1\n      iszero\n      tag_56\n      jumpi\n      returndatasize\n      0x00\n      dup1\n      returndatacopy\n      revert(0x00, returndatasize)\n    tag_56:\n      pop\n        /* \"auctioncontract.sol\":725:921  function finalize() public {... */\n      jump\t// out\n        /* \"auctioncontract.sol\":85:103  string public item */\n    tag_35:\n      0x00\n      dup1\n      sload\n      tag_57\n      swap1\n      tag_58\n      jump\t// in\n    tag_57:\n      dup1\n      0x1f\n      add\n      0x20\n      dup1\n      swap2\n      div\n      mul\n      0x20\n      add\n      mload(0x40)\n      swap1\n      dup2\n      add\n      0x40\n      mstore\n      dup1\n      swap3\n      swap2\n      swap1\n      dup2\n      dup2\n      mstore\n      0x20\n      add\n      dup3\n      dup1\n      sload\n      tag_59\n      swap1\n      tag_58\n      jump\t// in\n    tag_59:\n      dup1\n      iszero\n      tag_60\n      jumpi\n      dup1\n      0x1f\n      lt\n      tag_61\n      jumpi\n      0x0100\n      dup1\n      dup4\n      sload\n      div\n      mul\n      dup4\n      mstore\n      swap2\n      0x20\n      add\n      swap2\n      jump(tag_60)\n    tag_61:\n      dup3\n      add\n      swap2\n      swap1\n      0x00\n      mstore\n      keccak256(0x00, 0x20)\n      swap1\n    tag_62:\n      dup2\n      sload\n      dup2\n      mstore\n      swap1\n      0x01\n      add\n      swap1\n      0x20\n      add\n      dup1\n      dup4\n      gt\n      tag_62\n      jumpi\n      dup3\n      swap1\n      sub\n      0x1f\n      and\n      dup3\n      add\n      swap2\n    tag_60:\n      pop\n      pop\n      pop\n      pop\n      pop\n      dup2\n      jump\t// out\n        /* \"#utility.yul\":404:822   */\n    tag_37:\n        /* \"#utility.yul\":553:555   */\n      0x20\n        /* \"#utility.yul\":542:551   */\n      dup2\n        /* \"#utility.yul\":535:556   */\n      mstore\n        /* \"#utility.yul\":516:520   */\n      0x00\n        /* \"#utility.yul\":585:591   */\n      dup3\n        /* \"#utility.yul\":579:592   */\n      mload\n        /* \"#utility.yul\":628:634   */\n      dup1\n        /* \"#utility.yul\":623:625   */\n      0x20\n        /* \"#utility.yul\":612:621   */\n      dup5\n        /* \"#utility.yul\":608:626   */\n      add\n        /* \"#utility.yul\":601:635   */\n      mstore\n        /* \"#utility.yul\":687:693   */\n      dup1\n        /* \"#utility.yul\":682:684   */\n      0x20\n        /* \"#utility.yul\":674:680   */\n      dup6\n        /* \"#utility.yul\":670:685   */\n      add\n        /* \"#utility.yul\":665:667   */\n      0x40\n        /* \"#utility.yul\":654:663   */\n      dup6\n        /* \"#utility.yul\":650:668   */\n      add\n        /* \"#utility.yul\":644:694   */\n      mcopy\n        /* \"#utility.yul\":743:744   */\n      0x00\n        /* \"#utility.yul\":738:740   */\n      0x40\n        /* \"#utility.yul\":729:735   */\n      dup3\n        /* \"#utility.yul\":718:727   */\n      dup6\n        /* \"#utility.yul\":714:736   */\n      add\n        /* \"#utility.yul\":710:741   */\n      add\n        /* \"#utility.yul\":703:745   */\n      mstore\n        /* \"#utility.yul\":813:815   */\n      0x40\n        /* \"#utility.yul\":806:808   */\n      0x1f\n        /* \"#utility.yul\":802:809   */\n      not\n        /* \"#utility.yul\":797:799   */\n      0x1f\n        /* \"#utility.yul\":789:795   */\n      dup4\n        /* \"#utility.yul\":785:800   */\n      add\n        /* \"#utility.yul\":781:810   */\n      and\n        /* \"#utility.yul\":770:779   */\n      dup5\n        /* \"#utility.yul\":766:811   */\n      add\n        /* \"#utility.yul\":762:816   */\n      add\n        /* \"#utility.yul\":754:816   */\n      swap2\n      pop\n      pop\n        /* \"#utility.yul\":404:822   */\n      swap3\n      swap2\n      pop\n      pop\n      jump\t// out\n        /* \"#utility.yul\":2181:2561   */\n    tag_58:\n        /* \"#utility.yul\":2260:2261   */\n      0x01\n        /* \"#utility.yul\":2256:2268   */\n      dup2\n      dup2\n      shr\n      swap1\n        /* \"#utility.yul\":2303:2315   */\n      dup3\n      and\n      dup1\n        /* \"#utility.yul\":2324:2385   */\n      tag_72\n      jumpi\n        /* \"#utility.yul\":2378:2382   */\n      0x7f\n        /* \"#utility.yul\":2370:2376   */\n      dup3\n        /* \"#utility.yul\":2366:2383   */\n      and\n        /* \"#utility.yul\":2356:2383   */\n      swap2\n      pop\n        /* \"#utility.yul\":2324:2385   */\n    tag_72:\n        /* \"#utility.yul\":2431:2433   */\n      0x20\n        /* \"#utility.yul\":2423:2429   */\n      dup3\n        /* \"#utility.yul\":2420:2434   */\n      lt\n        /* \"#utility.yul\":2400:2418   */\n      dup2\n        /* \"#utility.yul\":2397:2435   */\n      sub\n        /* \"#utility.yul\":2394:2555   */\n      tag_73\n      jumpi\n        /* \"#utility.yul\":2477:2487   */\n      0x4e487b71\n        /* \"#utility.yul\":2472:2475   */\n      0xe0\n        /* \"#utility.yul\":2468:2488   */\n      shl\n        /* \"#utility.yul\":2465:2466   */\n      0x00\n        /* \"#utility.yul\":2458:2489   */\n      mstore\n        /* \"#utility.yul\":2512:2516   */\n      0x22\n        /* \"#utility.yul\":2509:2510   */\n      0x04\n        /* \"#utility.yul\":2502:2517   */\n      mstore\n        /* \"#utility.yul\":2540:2544   */\n      0x24\n        /* \"#utility.yul\":2537:2538   */\n      0x00\n        /* \"#utility.yul\":2530:2545   */\n      revert\n        /* \"#utility.yul\":2394:2555   */\n    tag_73:\n      pop\n        /* \"#utility.yul\":2181:2561   */\n      swap2\n      swap1\n      pop\n      jump\t// out\n\n    auxdata: 0xa264697066735822122044586c67d0298c72545ae87a9769c2351d624ee2f9fa1b3c64337efc8424ba5d64736f6c634300081a0033\n}\n",
				"bytecode": {
					"linkReferences": {},
					"object": "608060405234801561000f575f80fd5b506040516106af3803806106af83398101604081905261002e91610076565b5f61003982826101aa565b50600480546001600160a01b03191633179055610059426203f480610264565b60035550610289565b634e487b7160e01b5f52604160045260245ffd5b5f60208284031215610086575f80fd5b81516001600160401b0381111561009b575f80fd5b8201601f810184136100ab575f80fd5b80516001600160401b038111156100c4576100c4610062565b604051601f8201601f19908116603f011681016001600160401b03811182821017156100f2576100f2610062565b604052818152828201602001861015610109575f80fd5b8160208401602083015e5f91810160200191909152949350505050565b600181811c9082168061013a57607f821691505b60208210810361015857634e487b7160e01b5f52602260045260245ffd5b50919050565b601f8211156101a557805f5260205f20601f840160051c810160208510156101835750805b601f840160051c820191505b818110156101a2575f815560010161018f565b50505b505050565b81516001600160401b038111156101c3576101c3610062565b6101d7816101d18454610126565b8461015e565b6020601f821160018114610209575f83156101f25750848201515b5f19600385901b1c1916600184901b1784556101a2565b5f84815260208120601f198516915b828110156102385787850151825560209485019460019092019101610218565b508482101561025557868401515f19600387901b60f8161c191681555b50505050600190811b01905550565b8082018082111561028357634e487b7160e01b5f52601160045260245ffd5b92915050565b610419806102965f395ff3fe60806040526004361061006e575f3560e01c80634bb278f31161004c5780634bb278f3146100db57806391f90157146100ef578063d57bde791461010e578063f2a4a82e14610123575f80fd5b806308551a53146100725780631998aeef146100ae5780633197cbb6146100b8575b5f80fd5b34801561007d575f80fd5b50600454610091906001600160a01b031681565b6040516001600160a01b0390911681526020015b60405180910390f35b6100b6610144565b005b3480156100c3575f80fd5b506100cd60035481565b6040519081526020016100a5565b3480156100e6575f80fd5b506100b6610229565b3480156100fa575f80fd5b50600154610091906001600160a01b031681565b348015610119575f80fd5b506100cd60025481565b34801561012e575f80fd5b506101376102eb565b6040516100a59190610376565b600354421061018a5760405162461bcd60e51b815260206004820152600d60248201526c105d58dd1a5bdb88195b991959609a1b60448201526064015b60405180910390fd5b60025434116101c55760405162461bcd60e51b8152602060048201526007602482015266131bddc8189a5960ca1b6044820152606401610181565b6001546001600160a01b031615610211576001546002546040516001600160a01b039092169181156108fc0291905f818181858888f1935050505015801561020f573d5f803e3d5ffd5b505b34600255600180546001600160a01b03191633179055565b6003544210156102675760405162461bcd60e51b8152602060048201526009602482015268546f6f206561726c7960b81b6044820152606401610181565b6004546001600160a01b031633146102af5760405162461bcd60e51b815260206004820152600b60248201526a27b7363c9039b2b63632b960a91b6044820152606401610181565b6004546002546040516001600160a01b039092169181156108fc0291905f818181858888f193505050501580156102e8573d5f803e3d5ffd5b50565b5f80546102f7906103ab565b80601f0160208091040260200160405190810160405280929190818152602001828054610323906103ab565b801561036e5780601f106103455761010080835404028352916020019161036e565b820191905f5260205f20905b81548152906001019060200180831161035157829003601f168201915b505050505081565b602081525f82518060208401528060208501604085015e5f604082850101526040601f19601f83011684010191505092915050565b600181811c908216806103bf57607f821691505b6020821081036103dd57634e487b7160e01b5f52602260045260245ffd5b5091905056fea264697066735822122044586c67d0298c72545ae87a9769c2351d624ee2f9fa1b3c64337efc8424ba5d64736f6c634300081a0033",
					"opcodes": "PUSH1 0x80 PUSH1 0x40 MSTORE CALLVALUE DUP1 ISZERO PUSH2 0xF JUMPI PUSH0 DUP1 REVERT JUMPDEST POP PUSH1 0x40 MLOAD PUSH2 0x6AF CODESIZE SUB DUP1 PUSH2 0x6AF DUP4 CODECOPY DUP2 ADD PUSH1 0x40 DUP2 SWAP1 MSTORE PUSH2 0x2E SWAP2 PUSH2 0x76 JUMP JUMPDEST PUSH0 PUSH2 0x39 DUP3 DUP3 PUSH2 0x1AA JUMP JUMPDEST POP PUSH1 0x4 DUP1 SLOAD PUSH1 0x1 PUSH1 0x1 PUSH1 0xA0 SHL SUB NOT AND CALLER OR SWAP1 SSTORE PUSH2 0x59 TIMESTAMP PUSH3 0x3F480 PUSH2 0x264 JUMP JUMPDEST PUSH1 0x3 SSTORE POP PUSH2 0x289 JUMP JUMPDEST PUSH4 0x4E487B71 PUSH1 0xE0 SHL PUSH0 MSTORE PUSH1 0x41 PUSH1 0x4 MSTORE PUSH1 0x24 PUSH0 REVERT JUMPDEST PUSH0 PUSH1 0x20 DUP3 DUP5 SUB SLT ISZERO PUSH2 0x86 JUMPI PUSH0 DUP1 REVERT JUMPDEST DUP2 MLOAD PUSH1 0x1 PUSH1 0x1 PUSH1 0x40 SHL SUB DUP2 GT ISZERO PUSH2 0x9B JUMPI PUSH0 DUP1 REVERT JUMPDEST DUP3 ADD PUSH1 0x1F DUP2 ADD DUP5 SGT PUSH2 0xAB JUMPI PUSH0 DUP1 REVERT JUMPDEST DUP1 MLOAD PUSH1 0x1 PUSH1 0x1 PUSH1 0x40 SHL SUB DUP2 GT ISZERO PUSH2 0xC4 JUMPI PUSH2 0xC4 PUSH2 0x62 JUMP JUMPDEST PUSH1 0x40 MLOAD PUSH1 0x1F DUP3 ADD PUSH1 0x1F NOT SWAP1 DUP2 AND PUSH1 0x3F ADD AND DUP2 ADD PUSH1 0x1 PUSH1 0x1 PUSH1 0x40 SHL SUB DUP2 GT DUP3 DUP3 LT OR ISZERO PUSH2 0xF2 JUMPI PUSH2 0xF2 PUSH2 0x62 JUMP JUMPDEST PUSH1 0x40 MSTORE DUP2 DUP2 MSTORE DUP3 DUP3 ADD PUSH1 0x20 ADD DUP7 LT ISZERO PUSH2 0x109 JUMPI PUSH0 DUP1 REVERT JUMPDEST DUP2 PUSH1 0x20 DUP5 ADD PUSH1 0x20 DUP4 ADD MCOPY PUSH0 SWAP2 DUP2 ADD PUSH1 0x20 ADD SWAP2 SWAP1 SWAP2 MSTORE SWAP5 SWAP4 POP POP POP POP JUMP JUMPDEST PUSH1 0x1 DUP2 DUP2 SHR SWAP1 DUP3 AND DUP1 PUSH2 0x13A JUMPI PUSH1 0x7F DUP3 AND SWAP2 POP JUMPDEST PUSH1 0x20 DUP3 LT DUP2 SUB PUSH2 0x158 JUMPI PUSH4 0x4E487B71 PUSH1 0xE0 SHL PUSH0 MSTORE PUSH1 0x22 PUSH1 0x4 MSTORE PUSH1 0x24 PUSH0 REVERT JUMPDEST POP SWAP2 SWAP1 POP JUMP JUMPDEST PUSH1 0x1F DUP3 GT ISZERO PUSH2 0x1A5 JUMPI DUP1 PUSH0 MSTORE PUSH1 0x20 PUSH0 KECCAK256 PUSH1 0x1F DUP5 ADD PUSH1 0x5 SHR DUP2 ADD PUSH1 0x20 DUP6 LT ISZERO PUSH2 0x183 JUMPI POP DUP1 JUMPDEST PUSH1 0x1F DUP5 ADD PUSH1 0x5 SHR DUP3 ADD SWAP2 POP JUMPDEST DUP2 DUP2 LT ISZERO PUSH2 0x1A2 JUMPI PUSH0 DUP2 SSTORE PUSH1 0x1 ADD PUSH2 0x18F JUMP JUMPDEST POP POP JUMPDEST POP POP POP JUMP JUMPDEST DUP2 MLOAD PUSH1 0x1 PUSH1 0x1 PUSH1 0x40 SHL SUB DUP2 GT ISZERO PUSH2 0x1C3 JUMPI PUSH2 0x1C3 PUSH2 0x62 JUMP JUMPDEST PUSH2 0x1D7 DUP2 PUSH2 0x1D1 DUP5 SLOAD PUSH2 0x126 JUMP JUMPDEST DUP5 PUSH2 0x15E JUMP JUMPDEST PUSH1 0x20 PUSH1 0x1F DUP3 GT PUSH1 0x1 DUP2 EQ PUSH2 0x209 JUMPI PUSH0 DUP4 ISZERO PUSH2 0x1F2 JUMPI POP DUP5 DUP3 ADD MLOAD JUMPDEST PUSH0 NOT PUSH1 0x3 DUP6 SWAP1 SHL SHR NOT AND PUSH1 0x1 DUP5 SWAP1 SHL OR DUP5 SSTORE PUSH2 0x1A2 JUMP JUMPDEST PUSH0 DUP5 DUP2 MSTORE PUSH1 0x20 DUP2 KECCAK256 PUSH1 0x1F NOT DUP6 AND SWAP2 JUMPDEST DUP3 DUP2 LT ISZERO PUSH2 0x238 JUMPI DUP8 DUP6 ADD MLOAD DUP3 SSTORE PUSH1 0x20 SWAP5 DUP6 ADD SWAP5 PUSH1 0x1 SWAP1 SWAP3 ADD SWAP2 ADD PUSH2 0x218 JUMP JUMPDEST POP DUP5 DUP3 LT ISZERO PUSH2 0x255 JUMPI DUP7 DUP5 ADD MLOAD PUSH0 NOT PUSH1 0x3 DUP8 SWAP1 SHL PUSH1 0xF8 AND SHR NOT AND DUP2 SSTORE JUMPDEST POP POP POP POP PUSH1 0x1 SWAP1 DUP2 SHL ADD SWAP1 SSTORE POP JUMP JUMPDEST DUP1 DUP3 ADD DUP1 DUP3 GT ISZERO PUSH2 0x283 JUMPI PUSH4 0x4E487B71 PUSH1 0xE0 SHL PUSH0 MSTORE PUSH1 0x11 PUSH1 0x4 MSTORE PUSH1 0x24 PUSH0 REVERT JUMPDEST SWAP3 SWAP2 POP POP JUMP JUMPDEST PUSH2 0x419 DUP1 PUSH2 0x296 PUSH0 CODECOPY PUSH0 RETURN INVALID PUSH1 0x80 PUSH1 0x40 MSTORE PUSH1 0x4 CALLDATASIZE LT PUSH2 0x6E JUMPI PUSH0 CALLDATALOAD PUSH1 0xE0 SHR DUP1 PUSH4 0x4BB278F3 GT PUSH2 0x4C JUMPI DUP1 PUSH4 0x4BB278F3 EQ PUSH2 0xDB JUMPI DUP1 PUSH4 0x91F90157 EQ PUSH2 0xEF JUMPI DUP1 PUSH4 0xD57BDE79 EQ PUSH2 0x10E JUMPI DUP1 PUSH4 0xF2A4A82E EQ PUSH2 0x123 JUMPI PUSH0 DUP1 REVERT JUMPDEST DUP1 PUSH4 0x8551A53 EQ PUSH2 0x72 JUMPI DUP1 PUSH4 0x1998AEEF EQ PUSH2 0xAE JUMPI DUP1 PUSH4 0x3197CBB6 EQ PUSH2 0xB8 JUMPI JUMPDEST PUSH0 DUP1 REVERT JUMPDEST CALLVALUE DUP1 ISZERO PUSH2 0x7D JUMPI PUSH0 DUP1 REVERT JUMPDEST POP PUSH1 0x4 SLOAD PUSH2 0x91 SWAP1 PUSH1 0x1 PUSH1 0x1 PUSH1 0xA0 SHL SUB AND DUP2 JUMP JUMPDEST PUSH1 0x40 MLOAD PUSH1 0x1 PUSH1 0x1 PUSH1 0xA0 SHL SUB SWAP1 SWAP2 AND DUP2 MSTORE PUSH1 0x20 ADD JUMPDEST PUSH1 0x40 MLOAD DUP1 SWAP2 SUB SWAP1 RETURN JUMPDEST PUSH2 0xB6 PUSH2 0x144 JUMP JUMPDEST STOP JUMPDEST CALLVALUE DUP1 ISZERO PUSH2 0xC3 JUMPI PUSH0 DUP1 REVERT JUMPDEST POP PUSH2 0xCD PUSH1 0x3 SLOAD DUP2 JUMP JUMPDEST PUSH1 0x40 MLOAD SWAP1 DUP2 MSTORE PUSH1 0x20 ADD PUSH2 0xA5 JUMP JUMPDEST CALLVALUE DUP1 ISZERO PUSH2 0xE6 JUMPI PUSH0 DUP1 REVERT JUMPDEST POP PUSH2 0xB6 PUSH2 0x229 JUMP JUMPDEST CALLVALUE DUP1 ISZERO PUSH2 0xFA JUMPI PUSH0 DUP1 REVERT JUMPDEST POP PUSH1 0x1 SLOAD PUSH2 0x91 SWAP1 PUSH1 0x1 PUSH1 0x1 PUSH1 0xA0 SHL SUB AND DUP2 JUMP JUMPDEST CALLVALUE DUP1 ISZERO PUSH2 0x119 JUMPI PUSH0 DUP1 REVERT JUMPDEST POP PUSH2 0xCD PUSH1 0x2 SLOAD DUP2 JUMP JUMPDEST CALLVALUE DUP1 ISZERO PUSH2 0x12E JUMPI PUSH0 DUP1 REVERT JUMPDEST POP PUSH2 0x137 PUSH2 0x2EB JUMP JUMPDEST PUSH1 0x40 MLOAD PUSH2 0xA5 SWAP2 SWAP1 PUSH2 0x376 JUMP JUMPDEST PUSH1 0x3 SLOAD TIMESTAMP LT PUSH2 0x18A JUMPI PUSH1 0x40 MLOAD PUSH3 0x461BCD PUSH1 0xE5 SHL DUP2 MSTORE PUSH1 0x20 PUSH1 0x4 DUP3 ADD MSTORE PUSH1 0xD PUSH1 0x24 DUP3 ADD MSTORE PUSH13 0x105D58DD1A5BDB88195B991959 PUSH1 0x9A SHL PUSH1 0x44 DUP3 ADD MSTORE PUSH1 0x64 ADD JUMPDEST PUSH1 0x40 MLOAD DUP1 SWAP2 SUB SWAP1 REVERT JUMPDEST PUSH1 0x2 SLOAD CALLVALUE GT PUSH2 0x1C5 JUMPI PUSH1 0x40 MLOAD PUSH3 0x461BCD PUSH1 0xE5 SHL DUP2 MSTORE PUSH1 0x20 PUSH1 0x4 DUP3 ADD MSTORE PUSH1 0x7 PUSH1 0x24 DUP3 ADD MSTORE PUSH7 0x131BDDC8189A59 PUSH1 0xCA SHL PUSH1 0x44 DUP3 ADD MSTORE PUSH1 0x64 ADD PUSH2 0x181 JUMP JUMPDEST PUSH1 0x1 SLOAD PUSH1 0x1 PUSH1 0x1 PUSH1 0xA0 SHL SUB AND ISZERO PUSH2 0x211 JUMPI PUSH1 0x1 SLOAD PUSH1 0x2 SLOAD PUSH1 0x40 MLOAD PUSH1 0x1 PUSH1 0x1 PUSH1 0xA0 SHL SUB SWAP1 SWAP3 AND SWAP2 DUP2 ISZERO PUSH2 0x8FC MUL SWAP2 SWAP1 PUSH0 DUP2 DUP2 DUP2 DUP6 DUP9 DUP9 CALL SWAP4 POP POP POP POP ISZERO DUP1 ISZERO PUSH2 0x20F JUMPI RETURNDATASIZE PUSH0 DUP1 RETURNDATACOPY RETURNDATASIZE PUSH0 REVERT JUMPDEST POP JUMPDEST CALLVALUE PUSH1 0x2 SSTORE PUSH1 0x1 DUP1 SLOAD PUSH1 0x1 PUSH1 0x1 PUSH1 0xA0 SHL SUB NOT AND CALLER OR SWAP1 SSTORE JUMP JUMPDEST PUSH1 0x3 SLOAD TIMESTAMP LT ISZERO PUSH2 0x267 JUMPI PUSH1 0x40 MLOAD PUSH3 0x461BCD PUSH1 0xE5 SHL DUP2 MSTORE PUSH1 0x20 PUSH1 0x4 DUP3 ADD MSTORE PUSH1 0x9 PUSH1 0x24 DUP3 ADD MSTORE PUSH9 0x546F6F206561726C79 PUSH1 0xB8 SHL PUSH1 0x44 DUP3 ADD MSTORE PUSH1 0x64 ADD PUSH2 0x181 JUMP JUMPDEST PUSH1 0x4 SLOAD PUSH1 0x1 PUSH1 0x1 PUSH1 0xA0 SHL SUB AND CALLER EQ PUSH2 0x2AF JUMPI PUSH1 0x40 MLOAD PUSH3 0x461BCD PUSH1 0xE5 SHL DUP2 MSTORE PUSH1 0x20 PUSH1 0x4 DUP3 ADD MSTORE PUSH1 0xB PUSH1 0x24 DUP3 ADD MSTORE PUSH11 0x27B7363C9039B2B63632B9 PUSH1 0xA9 SHL PUSH1 0x44 DUP3 ADD MSTORE PUSH1 0x64 ADD PUSH2 0x181 JUMP JUMPDEST PUSH1 0x4 SLOAD PUSH1 0x2 SLOAD PUSH1 0x40 MLOAD PUSH1 0x1 PUSH1 0x1 PUSH1 0xA0 SHL SUB SWAP1 SWAP3 AND SWAP2 DUP2 ISZERO PUSH2 0x8FC MUL SWAP2 SWAP1 PUSH0 DUP2 DUP2 DUP2 DUP6 DUP9 DUP9 CALL SWAP4 POP POP POP POP ISZERO DUP1 ISZERO PUSH2 0x2E8 JUMPI RETURNDATASIZE PUSH0 DUP1 RETURNDATACOPY RETURNDATASIZE PUSH0 REVERT JUMPDEST POP JUMP JUMPDEST PUSH0 DUP1 SLOAD PUSH2 0x2F7 SWAP1 PUSH2 0x3AB JUMP JUMPDEST DUP1 PUSH1 0x1F ADD PUSH1 0x20 DUP1 SWAP2 DIV MUL PUSH1 0x20 ADD PUSH1 0x40 MLOAD SWAP1 DUP2 ADD PUSH1 0x40 MSTORE DUP1 SWAP3 SWAP2 SWAP1 DUP2 DUP2 MSTORE PUSH1 0x20 ADD DUP3 DUP1 SLOAD PUSH2 0x323 SWAP1 PUSH2 0x3AB JUMP JUMPDEST DUP1 ISZERO PUSH2 0x36E JUMPI DUP1 PUSH1 0x1F LT PUSH2 0x345 JUMPI PUSH2 0x100 DUP1 DUP4 SLOAD DIV MUL DUP4 MSTORE SWAP2 PUSH1 0x20 ADD SWAP2 PUSH2 0x36E JUMP JUMPDEST DUP3 ADD SWAP2 SWAP1 PUSH0 MSTORE PUSH1 0x20 PUSH0 KECCAK256 SWAP1 JUMPDEST DUP2 SLOAD DUP2 MSTORE SWAP1 PUSH1 0x1 ADD SWAP1 PUSH1 0x20 ADD DUP1 DUP4 GT PUSH2 0x351 JUMPI DUP3 SWAP1 SUB PUSH1 0x1F AND DUP3 ADD SWAP2 JUMPDEST POP POP POP POP POP DUP2 JUMP JUMPDEST PUSH1 0x20 DUP2 MSTORE PUSH0 DUP3 MLOAD DUP1 PUSH1 0x20 DUP5 ADD MSTORE DUP1 PUSH1 0x20 DUP6 ADD PUSH1 0x40 DUP6 ADD MCOPY PUSH0 PUSH1 0x40 DUP3 DUP6 ADD ADD MSTORE PUSH1 0x40 PUSH1 0x1F NOT PUSH1 0x1F DUP4 ADD AND DUP5 ADD ADD SWAP2 POP POP SWAP3 SWAP2 POP POP JUMP JUMPDEST PUSH1 0x1 DUP2 DUP2 SHR SWAP1 DUP3 AND DUP1 PUSH2 0x3BF JUMPI PUSH1 0x7F DUP3 AND SWAP2 POP JUMPDEST PUSH1 0x20 DUP3 LT DUP2 SUB PUSH2 0x3DD JUMPI PUSH4 0x4E487B71 PUSH1 0xE0 SHL PUSH0 MSTORE PUSH1 0x22 PUSH1 0x4 MSTORE PUSH1 0x24 PUSH0 REVERT JUMPDEST POP SWAP2 SWAP1 POP JUMP INVALID LOG2 PUSH5 0x6970667358 0x22 SLT KECCAK256 PREVRANDAO PC PUSH13 0x67D0298C72545AE87A9769C235 SAR PUSH3 0x4EE2F9 STATICCALL SHL EXTCODECOPY PUSH5 0x337EFC8424 0xBA TSTORE PUSH5 0x736F6C6343 STOP ADDMOD BYTE STOP CALLER "
				},
				"gasEstimates": {
					"creation": {
						"codeDepositCost": "209800",
						"executionCost": "infinite",
						"totalCost": "infinite"
					},
					"external": {
						"bid()": "infinite",
						"endTime()": "2339",
						"finalize()": "infinite",
						"highestBid()": "2338",
						"highestBidder()": "2347",
						"item()": "infinite",
						"seller()": "2326"
					}
				},
				"methodIdentifiers": {
					"bid()": "1998aeef",
					"endTime()": "3197cbb6",
					"finalize()": "4bb278f3",
					"highestBid()": "d57bde79",
					"highestBidder()": "91f90157",
					"item()": "f2a4a82e",
					"seller()": "08551a53"
				}
			},
			"storageLayout": {
				"storage": [
					{
						"astId": 3,
						"contract": "auctioncontract.sol:Auction",
						"label": "item",
						"offset": 0,
						"slot": "0",
						"type": "t_string_storage"
					},
					{
						"astId": 5,
						"contract": "auctioncontract.sol:Auction",
						"label": "highestBidder",
						"offset": 0,
						"slot": "1",
						"type": "t_address"
					},
					{
						"astId": 7,
						"contract": "auctioncontract.sol:Auction",
						"label": "highestBid",
						"offset": 0,
						"slot": "2",
						"type": "t_uint256"
					},
					{
						"astId": 9,
						"contract": "auctioncontract.sol:Auction",
						"label": "endTime",
						"offset": 0,
						"slot": "3",
						"type": "t_uint256"
					},
					{
						"astId": 11,
						"contract": "auctioncontract.sol:Auction",
						"label": "seller",
						"offset": 0,
						"slot": "4",
						"type": "t_address"
					}
				],
				"types": {
					"t_address": {
						"encoding": "inplace",
						"label": "address",
						"numberOfBytes": "20"
					},
					"t_string_storage": {
						"encoding": "bytes",
						"label": "string",
						"numberOfBytes": "32"
					},
					"t_uint256": {
						"encoding": "inplace",
						"label": "uint256",
						"numberOfBytes": "32"
					}
				}
			},
			"userdoc": {
				"kind": "user",
				"methods": {},
				"version": 1
			}
		}
	}
}