{
	"auctioncontract.sol": {
		"Deploy30Auctions": {
			"abi": [
				{
					"inputs": [
						{
							"internalType": "uint256",
							"name": "",
							"type": "uint256"
						}
					],
					"name": "auctions",
					"outputs": [
						{
							"internalType": "contract Auction",
							"name": "",
							"type": "address"
						}
					],
					"stateMutability": "view",
					"type": "function"
				},
				{
					"inputs": [],
					"name": "deployAll",
					"outputs": [],
					"stateMutability": "nonpayable",
					"type": "function"
				},
				{
					"inputs": [
						{
							"internalType": "uint256",
							"name": "index",
							"type": "uint256"
						}
					],
					"name": "get",
					"outputs": [
						{
							"internalType": "address",
							"name": "",
							"type": "address"
						}
					],
					"stateMutability": "view",
					"type": "function"
				}
			],
			"devdoc": {
				"kind": "dev",
				"methods": {},
				"version": 1
			},
			"evm": {
				"assembly": "    /* \"auctioncontract.sol\":928:1767  contract Deploy30Auctions {... */\n  mstore(0x40, 0x80)\n  callvalue\n  dup1\n  iszero\n  tag_1\n  jumpi\n  0x00\n  dup1\n  revert\ntag_1:\n  pop\n  dataSize(sub_0)\n  dup1\n  dataOffset(sub_0)\n  0x00\n  codecopy\n  0x00\n  return\nstop\n\nsub_0: assembly {\n        /* \"auctioncontract.sol\":928:1767  contract Deploy30Auctions {... */\n      mstore(0x40, 0x80)\n      callvalue\n      dup1\n      iszero\n      tag_1\n      jumpi\n      0x00\n      dup1\n      revert\n    tag_1:\n      pop\n      jumpi(tag_2, lt(calldatasize, 0x04))\n      shr(0xe0, calldataload(0x00))\n      dup1\n      0x2d823335\n      eq\n      tag_3\n      jumpi\n      dup1\n      0x571a26a0\n      eq\n      tag_4\n      jumpi\n      dup1\n      0x9507d39a\n      eq\n      tag_5\n      jumpi\n    tag_2:\n      0x00\n      dup1\n      revert\n        /* \"auctioncontract.sol\":995:1260  function deployAll() public {... */\n    tag_3:\n      tag_6\n      tag_7\n      jump\t// in\n    tag_6:\n      stop\n        /* \"auctioncontract.sol\":961:986  Auction[] public auctions */\n    tag_4:\n      tag_8\n      tag_9\n      calldatasize\n      0x04\n      tag_10\n      jump\t// in\n    tag_9:\n      tag_11\n      jump\t// in\n    tag_8:\n      mload(0x40)\n      sub(shl(0xa0, 0x01), 0x01)\n        /* \"#utility.yul\":378:410   */\n      swap1\n      swap2\n      and\n        /* \"#utility.yul\":360:411   */\n      dup2\n      mstore\n        /* \"#utility.yul\":348:350   */\n      0x20\n        /* \"#utility.yul\":333:351   */\n      add\n        /* \"auctioncontract.sol\":961:986  Auction[] public auctions */\n      mload(0x40)\n      dup1\n      swap2\n      sub\n      swap1\n      return\n        /* \"auctioncontract.sol\":1268:1416  function get(uint index) public view returns (address) {... */\n    tag_5:\n      tag_8\n      tag_15\n      calldatasize\n      0x04\n      tag_10\n      jump\t// in\n    tag_15:\n      tag_16\n      jump\t// in\n        /* \"auctioncontract.sol\":995:1260  function deployAll() public {... */\n    tag_7:\n        /* \"auctioncontract.sol\":1042:1050  auctions */\n      0x00\n        /* \"auctioncontract.sol\":1042:1057  auctions.length */\n      sload\n        /* \"auctioncontract.sol\":1042:1062  auctions.length == 0 */\n      iszero\n        /* \"auctioncontract.sol\":1034:1083  require(auctions.length == 0, \"Already deployed\") */\n      tag_20\n      jumpi\n      mload(0x40)\n      shl(0xe5, 0x461bcd)\n      dup2\n      mstore\n        /* \"#utility.yul\":832:834   */\n      0x20\n        /* \"auctioncontract.sol\":1034:1083  require(auctions.length == 0, \"Already deployed\") */\n      0x04\n      dup3\n      add\n        /* \"#utility.yul\":814:835   */\n      mstore\n        /* \"#utility.yul\":871:873   */\n      0x10\n        /* \"#utility.yul\":851:869   */\n      0x24\n      dup3\n      add\n        /* \"#utility.yul\":844:874   */\n      mstore\n      shl(0x82, 0x105b1c9958591e4819195c1b1bde5959)\n        /* \"#utility.yul\":890:908   */\n      0x44\n      dup3\n      add\n        /* \"#utility.yul\":883:929   */\n      mstore\n        /* \"#utility.yul\":946:964   */\n      0x64\n      add\n        /* \"auctioncontract.sol\":1034:1083  require(auctions.length == 0, \"Already deployed\") */\n      mload(0x40)\n      dup1\n      swap2\n      sub\n      swap1\n      revert\n    tag_20:\n        /* \"auctioncontract.sol\":1108:1109  1 */\n      0x01\n        /* \"auctioncontract.sol\":1094:1253  for (uint i = 1; i <= 30; i++) {... */\n    tag_23:\n        /* \"auctioncontract.sol\":1116:1118  30 */\n      0x1e\n        /* \"auctioncontract.sol\":1111:1112  i */\n      dup2\n        /* \"auctioncontract.sol\":1111:1118  i <= 30 */\n      gt\n        /* \"auctioncontract.sol\":1094:1253  for (uint i = 1; i <= 30; i++) {... */\n      tag_24\n      jumpi\n        /* \"auctioncontract.sol\":1140:1149  Auction a */\n      0x00\n        /* \"auctioncontract.sol\":1196:1207  uint2str(i) */\n      tag_26\n        /* \"auctioncontract.sol\":1205:1206  i */\n      dup3\n        /* \"auctioncontract.sol\":1196:1204  uint2str */\n      tag_27\n        /* \"auctioncontract.sol\":1196:1207  uint2str(i) */\n      jump\t// in\n    tag_26:\n        /* \"auctioncontract.sol\":1171:1208  abi.encodePacked(\"Item\", uint2str(i)) */\n      add(0x20, mload(0x40))\n      tag_28\n      swap2\n      swap1\n      tag_29\n      jump\t// in\n    tag_28:\n      mload(0x40)\n      0x20\n      dup2\n      dup4\n      sub\n      sub\n      dup2\n      mstore\n      swap1\n      0x40\n      mstore\n        /* \"auctioncontract.sol\":1152:1210  new Auction(string(abi.encodePacked(\"Item\", uint2str(i)))) */\n      mload(0x40)\n      tag_30\n      swap1\n      tag_31\n      jump\t// in\n    tag_30:\n      tag_32\n      swap2\n      swap1\n      tag_33\n      jump\t// in\n    tag_32:\n      mload(0x40)\n      dup1\n      swap2\n      sub\n      swap1\n      0x00\n      create\n      dup1\n      iszero\n      dup1\n      iszero\n      tag_34\n      jumpi\n      returndatasize\n      0x00\n      dup1\n      returndatacopy\n      revert(0x00, returndatasize)\n    tag_34:\n      pop\n        /* \"auctioncontract.sol\":1225:1233  auctions */\n      0x00\n        /* \"auctioncontract.sol\":1225:1241  auctions.push(a) */\n      dup1\n      sload\n      0x01\n      dup2\n      add\n      dup3\n      sstore\n      swap1\n      dup1\n      mstore\n      0x290decd9548b62a8d60345a988386fc84ba6bc95484008f6362f93160ef3e563\n      add\n      dup1\n      sload\n      not(sub(shl(0xa0, 0x01), 0x01))\n      and\n      sub(shl(0xa0, 0x01), 0x01)\n      swap3\n      swap1\n      swap3\n      and\n      swap2\n      swap1\n      swap2\n      or\n      swap1\n      sstore\n      pop\n        /* \"auctioncontract.sol\":1120:1123  i++ */\n      dup1\n      tag_36\n      dup2\n      tag_37\n      jump\t// in\n    tag_36:\n      swap2\n      pop\n      pop\n        /* \"auctioncontract.sol\":1094:1253  for (uint i = 1; i <= 30; i++) {... */\n      jump(tag_23)\n    tag_24:\n      pop\n        /* \"auctioncontract.sol\":995:1260  function deployAll() public {... */\n      jump\t// out\n        /* \"auctioncontract.sol\":961:986  Auction[] public auctions */\n    tag_11:\n      0x00\n      dup2\n      dup2\n      sload\n      dup2\n      lt\n      tag_38\n      jumpi\n      0x00\n      dup1\n      revert\n    tag_38:\n      0x00\n      swap2\n      dup3\n      mstore\n      0x20\n      swap1\n      swap2\n      keccak256\n      add\n      sload\n      sub(shl(0xa0, 0x01), 0x01)\n      and\n      swap1\n      pop\n      dup2\n      jump\t// out\n        /* \"auctioncontract.sol\":1268:1416  function get(uint index) public view returns (address) {... */\n    tag_16:\n        /* \"auctioncontract.sol\":1314:1321  address */\n      0x00\n        /* \"auctioncontract.sol\":1350:1365  auctions.length */\n      dup1\n      sload\n        /* \"auctioncontract.sol\":1342:1365  index < auctions.length */\n      dup3\n      lt\n        /* \"auctioncontract.sol\":1334:1366  require(index < auctions.length) */\n      tag_41\n      jumpi\n      0x00\n      dup1\n      revert\n    tag_41:\n        /* \"auctioncontract.sol\":1392:1400  auctions */\n      0x00\n        /* \"auctioncontract.sol\":1401:1406  index */\n      dup3\n        /* \"auctioncontract.sol\":1392:1407  auctions[index] */\n      dup2\n      sload\n      dup2\n      lt\n      tag_43\n      jumpi\n      tag_43\n      tag_44\n      jump\t// in\n    tag_43:\n      0x00\n      swap2\n      dup3\n      mstore\n      0x20\n      swap1\n      swap2\n      keccak256\n      add\n      sload\n      sub(shl(0xa0, 0x01), 0x01)\n      and\n      swap3\n        /* \"auctioncontract.sol\":1268:1416  function get(uint index) public view returns (address) {... */\n      swap2\n      pop\n      pop\n      jump\t// out\n        /* \"auctioncontract.sol\":1424:1764  function uint2str(uint _i) internal pure returns (string memory) {... */\n    tag_27:\n        /* \"auctioncontract.sol\":1474:1487  string memory */\n      0x60\n        /* \"auctioncontract.sol\":1504:1506  _i */\n      dup2\n        /* \"auctioncontract.sol\":1510:1511  0 */\n      0x00\n        /* \"auctioncontract.sol\":1504:1511  _i == 0 */\n      sub\n        /* \"auctioncontract.sol\":1500:1523  if (_i == 0) return \"0\" */\n      tag_47\n      jumpi\n      pop\n      pop\n        /* \"auctioncontract.sol\":1513:1523  return \"0\" */\n      0x40\n      dup1\n      mload\n      dup1\n      dup3\n      add\n      swap1\n      swap2\n      mstore\n      0x01\n      dup2\n      mstore\n      shl(0xfc, 0x03)\n      0x20\n      dup3\n      add\n      mstore\n      swap1\n        /* \"auctioncontract.sol\":1424:1764  function uint2str(uint _i) internal pure returns (string memory) {... */\n      jump\t// out\n        /* \"auctioncontract.sol\":1500:1523  if (_i == 0) return \"0\" */\n    tag_47:\n        /* \"auctioncontract.sol\":1543:1545  _i */\n      dup2\n        /* \"auctioncontract.sol\":1534:1540  uint j */\n      0x00\n        /* \"auctioncontract.sol\":1566:1600  while (j != 0) { len++; j /= 10; } */\n    tag_48:\n        /* \"auctioncontract.sol\":1573:1579  j != 0 */\n      dup2\n      iszero\n        /* \"auctioncontract.sol\":1566:1600  while (j != 0) { len++; j /= 10; } */\n      tag_49\n      jumpi\n        /* \"auctioncontract.sol\":1583:1588  len++ */\n      dup1\n      tag_50\n      dup2\n      tag_37\n      jump\t// in\n    tag_50:\n      swap2\n      pop\n        /* \"auctioncontract.sol\":1590:1597  j /= 10 */\n      tag_51\n      swap1\n      pop\n        /* \"auctioncontract.sol\":1595:1597  10 */\n      0x0a\n        /* \"auctioncontract.sol\":1590:1597  j /= 10 */\n      dup4\n      tag_52\n      jump\t// in\n    tag_51:\n      swap2\n      pop\n        /* \"auctioncontract.sol\":1566:1600  while (j != 0) { len++; j /= 10; } */\n      jump(tag_48)\n    tag_49:\n        /* \"auctioncontract.sol\":1610:1627  bytes memory bstr */\n      0x00\n        /* \"auctioncontract.sol\":1640:1643  len */\n      dup2\n        /* \"auctioncontract.sol\":1630:1644  new bytes(len) */\n      0xffffffffffffffff\n      dup2\n      gt\n      iszero\n      tag_54\n      jumpi\n      tag_54\n      tag_55\n      jump\t// in\n    tag_54:\n      mload(0x40)\n      swap1\n      dup1\n      dup3\n      mstore\n      dup1\n      0x1f\n      add\n      not(0x1f)\n      and\n      0x20\n      add\n      dup3\n      add\n      0x40\n      mstore\n      dup1\n      iszero\n      tag_56\n      jumpi\n      0x20\n      dup3\n      add\n      dup2\n      dup1\n      calldatasize\n      dup4\n      calldatacopy\n      add\n      swap1\n      pop\n    tag_56:\n      pop\n        /* \"auctioncontract.sol\":1610:1644  bytes memory bstr = new bytes(len) */\n      swap1\n      pop\n        /* \"auctioncontract.sol\":1655:1727  while (_i != 0) { bstr[--len] = bytes1(uint8(48 + _i % 10)); _i /= 10; } */\n    tag_57:\n        /* \"auctioncontract.sol\":1662:1669  _i != 0 */\n      dup5\n      iszero\n        /* \"auctioncontract.sol\":1655:1727  while (_i != 0) { bstr[--len] = bytes1(uint8(48 + _i % 10)); _i /= 10; } */\n      tag_58\n      jumpi\n        /* \"auctioncontract.sol\":1705:1712  _i % 10 */\n      tag_59\n        /* \"auctioncontract.sol\":1710:1712  10 */\n      0x0a\n        /* \"auctioncontract.sol\":1705:1707  _i */\n      dup7\n        /* \"auctioncontract.sol\":1705:1712  _i % 10 */\n      tag_60\n      jump\t// in\n    tag_59:\n        /* \"auctioncontract.sol\":1700:1712  48 + _i % 10 */\n      tag_61\n      swap1\n        /* \"auctioncontract.sol\":1700:1702  48 */\n      0x30\n        /* \"auctioncontract.sol\":1700:1712  48 + _i % 10 */\n      tag_62\n      jump\t// in\n    tag_61:\n        /* \"auctioncontract.sol\":1687:1714  bytes1(uint8(48 + _i % 10)) */\n      0xf8\n      shl\n        /* \"auctioncontract.sol\":1673:1677  bstr */\n      dup2\n        /* \"auctioncontract.sol\":1678:1683  --len */\n      tag_63\n      dup5\n      tag_64\n      jump\t// in\n    tag_63:\n      swap4\n      pop\n      dup4\n        /* \"auctioncontract.sol\":1673:1684  bstr[--len] */\n      dup2\n      mload\n      dup2\n      lt\n      tag_66\n      jumpi\n      tag_66\n      tag_44\n      jump\t// in\n    tag_66:\n      0x20\n      add\n      add\n        /* \"auctioncontract.sol\":1673:1714  bstr[--len] = bytes1(uint8(48 + _i % 10)) */\n      swap1\n      not(sub(shl(0xf8, 0x01), 0x01))\n      and\n      swap1\n      dup2\n      0x00\n      byte\n      swap1\n      mstore8\n      pop\n        /* \"auctioncontract.sol\":1716:1724  _i /= 10 */\n      tag_67\n        /* \"auctioncontract.sol\":1722:1724  10 */\n      0x0a\n        /* \"auctioncontract.sol\":1716:1724  _i /= 10 */\n      dup7\n      tag_52\n      jump\t// in\n    tag_67:\n      swap5\n      pop\n        /* \"auctioncontract.sol\":1655:1727  while (_i != 0) { bstr[--len] = bytes1(uint8(48 + _i % 10)); _i /= 10; } */\n      jump(tag_57)\n    tag_58:\n        /* \"auctioncontract.sol\":1751:1755  bstr */\n      swap5\n        /* \"auctioncontract.sol\":1424:1764  function uint2str(uint _i) internal pure returns (string memory) {... */\n      swap4\n      pop\n      pop\n      pop\n      pop\n      jump\t// out\n    tag_31:\n      dataSize(sub_0)\n      dup1\n      dataOffset(sub_0)\n      dup4\n      codecopy\n      add\n      swap1\n      jump\t// out\n        /* \"#utility.yul\":14:194   */\n    tag_10:\n        /* \"#utility.yul\":73:79   */\n      0x00\n        /* \"#utility.yul\":126:128   */\n      0x20\n        /* \"#utility.yul\":114:123   */\n      dup3\n        /* \"#utility.yul\":105:112   */\n      dup5\n        /* \"#utility.yul\":101:124   */\n      sub\n        /* \"#utility.yul\":97:129   */\n      slt\n        /* \"#utility.yul\":94:146   */\n      iszero\n      tag_72\n      jumpi\n        /* \"#utility.yul\":142:143   */\n      0x00\n        /* \"#utility.yul\":139:140   */\n      dup1\n        /* \"#utility.yul\":132:144   */\n      revert\n        /* \"#utility.yul\":94:146   */\n    tag_72:\n      pop\n        /* \"#utility.yul\":165:188   */\n      calldataload\n      swap2\n        /* \"#utility.yul\":14:194   */\n      swap1\n      pop\n      jump\t// out\n        /* \"#utility.yul\":975:1423   */\n    tag_29:\n      shl(0xe0, 0x4974656d)\n        /* \"#utility.yul\":1232:1235   */\n      dup2\n        /* \"#utility.yul\":1225:1244   */\n      mstore\n        /* \"#utility.yul\":1207:1210   */\n      0x00\n        /* \"#utility.yul\":1273:1279   */\n      dup3\n        /* \"#utility.yul\":1267:1280   */\n      mload\n        /* \"#utility.yul\":1327:1333   */\n      dup1\n        /* \"#utility.yul\":1320:1324   */\n      0x20\n        /* \"#utility.yul\":1312:1318   */\n      dup6\n        /* \"#utility.yul\":1308:1325   */\n      add\n        /* \"#utility.yul\":1304:1305   */\n      0x04\n        /* \"#utility.yul\":1299:1302   */\n      dup6\n        /* \"#utility.yul\":1295:1306   */\n      add\n        /* \"#utility.yul\":1289:1334   */\n      mcopy\n        /* \"#utility.yul\":1397:1398   */\n      0x00\n        /* \"#utility.yul\":1357:1373   */\n      swap3\n      add\n        /* \"#utility.yul\":1375:1376   */\n      0x04\n        /* \"#utility.yul\":1353:1377   */\n      add\n        /* \"#utility.yul\":1386:1399   */\n      swap2\n      dup3\n      mstore\n      pop\n        /* \"#utility.yul\":1353:1377   */\n      swap2\n        /* \"#utility.yul\":975:1423   */\n      swap1\n      pop\n      jump\t// out\n        /* \"#utility.yul\":1428:1846   */\n    tag_33:\n        /* \"#utility.yul\":1577:1579   */\n      0x20\n        /* \"#utility.yul\":1566:1575   */\n      dup2\n        /* \"#utility.yul\":1559:1580   */\n      mstore\n        /* \"#utility.yul\":1540:1544   */\n      0x00\n        /* \"#utility.yul\":1609:1615   */\n      dup3\n        /* \"#utility.yul\":1603:1616   */\n      mload\n        /* \"#utility.yul\":1652:1658   */\n      dup1\n        /* \"#utility.yul\":1647:1649   */\n      0x20\n        /* \"#utility.yul\":1636:1645   */\n      dup5\n        /* \"#utility.yul\":1632:1650   */\n      add\n        /* \"#utility.yul\":1625:1659   */\n      mstore\n        /* \"#utility.yul\":1711:1717   */\n      dup1\n        /* \"#utility.yul\":1706:1708   */\n      0x20\n        /* \"#utility.yul\":1698:1704   */\n      dup6\n        /* \"#utility.yul\":1694:1709   */\n      add\n        /* \"#utility.yul\":1689:1691   */\n      0x40\n        /* \"#utility.yul\":1678:1687   */\n      dup6\n        /* \"#utility.yul\":1674:1692   */\n      add\n        /* \"#utility.yul\":1668:1718   */\n      mcopy\n        /* \"#utility.yul\":1767:1768   */\n      0x00\n        /* \"#utility.yul\":1762:1764   */\n      0x40\n        /* \"#utility.yul\":1753:1759   */\n      dup3\n        /* \"#utility.yul\":1742:1751   */\n      dup6\n        /* \"#utility.yul\":1738:1760   */\n      add\n        /* \"#utility.yul\":1734:1765   */\n      add\n        /* \"#utility.yul\":1727:1769   */\n      mstore\n        /* \"#utility.yul\":1837:1839   */\n      0x40\n        /* \"#utility.yul\":1830:1832   */\n      0x1f\n        /* \"#utility.yul\":1826:1833   */\n      not\n        /* \"#utility.yul\":1821:1823   */\n      0x1f\n        /* \"#utility.yul\":1813:1819   */\n      dup4\n        /* \"#utility.yul\":1809:1824   */\n      add\n        /* \"#utility.yul\":1805:1834   */\n      and\n        /* \"#utility.yul\":1794:1803   */\n      dup5\n        /* \"#utility.yul\":1790:1835   */\n      add\n        /* \"#utility.yul\":1786:1840   */\n      add\n        /* \"#utility.yul\":1778:1840   */\n      swap2\n      pop\n      pop\n        /* \"#utility.yul\":1428:1846   */\n      swap3\n      swap2\n      pop\n      pop\n      jump\t// out\n        /* \"#utility.yul\":1851:1978   */\n    tag_68:\n        /* \"#utility.yul\":1912:1922   */\n      0x4e487b71\n        /* \"#utility.yul\":1907:1910   */\n      0xe0\n        /* \"#utility.yul\":1903:1923   */\n      shl\n        /* \"#utility.yul\":1900:1901   */\n      0x00\n        /* \"#utility.yul\":1893:1924   */\n      mstore\n        /* \"#utility.yul\":1943:1947   */\n      0x11\n        /* \"#utility.yul\":1940:1941   */\n      0x04\n        /* \"#utility.yul\":1933:1948   */\n      mstore\n        /* \"#utility.yul\":1967:1971   */\n      0x24\n        /* \"#utility.yul\":1964:1965   */\n      0x00\n        /* \"#utility.yul\":1957:1972   */\n      revert\n        /* \"#utility.yul\":1983:2118   */\n    tag_37:\n        /* \"#utility.yul\":2022:2025   */\n      0x00\n        /* \"#utility.yul\":2043:2060   */\n      0x01\n      dup3\n      add\n        /* \"#utility.yul\":2040:2083   */\n      tag_81\n      jumpi\n        /* \"#utility.yul\":2063:2081   */\n      tag_81\n      tag_68\n      jump\t// in\n    tag_81:\n      pop\n        /* \"#utility.yul\":2110:2111   */\n      0x01\n        /* \"#utility.yul\":2099:2112   */\n      add\n      swap1\n        /* \"#utility.yul\":1983:2118   */\n      jump\t// out\n        /* \"#utility.yul\":2123:2250   */\n    tag_44:\n        /* \"#utility.yul\":2184:2194   */\n      0x4e487b71\n        /* \"#utility.yul\":2179:2182   */\n      0xe0\n        /* \"#utility.yul\":2175:2195   */\n      shl\n        /* \"#utility.yul\":2172:2173   */\n      0x00\n        /* \"#utility.yul\":2165:2196   */\n      mstore\n        /* \"#utility.yul\":2215:2219   */\n      0x32\n        /* \"#utility.yul\":2212:2213   */\n      0x04\n        /* \"#utility.yul\":2205:2220   */\n      mstore\n        /* \"#utility.yul\":2239:2243   */\n      0x24\n        /* \"#utility.yul\":2236:2237   */\n      0x00\n        /* \"#utility.yul\":2229:2244   */\n      revert\n        /* \"#utility.yul\":2255:2382   */\n    tag_69:\n        /* \"#utility.yul\":2316:2326   */\n      0x4e487b71\n        /* \"#utility.yul\":2311:2314   */\n      0xe0\n        /* \"#utility.yul\":2307:2327   */\n      shl\n        /* \"#utility.yul\":2304:2305   */\n      0x00\n        /* \"#utility.yul\":2297:2328   */\n      mstore\n        /* \"#utility.yul\":2347:2351   */\n      0x12\n        /* \"#utility.yul\":2344:2345   */\n      0x04\n        /* \"#utility.yul\":2337:2352   */\n      mstore\n        /* \"#utility.yul\":2371:2375   */\n      0x24\n        /* \"#utility.yul\":2368:2369   */\n      0x00\n        /* \"#utility.yul\":2361:2376   */\n      revert\n        /* \"#utility.yul\":2387:2507   */\n    tag_52:\n        /* \"#utility.yul\":2427:2428   */\n      0x00\n        /* \"#utility.yul\":2453:2454   */\n      dup3\n        /* \"#utility.yul\":2443:2478   */\n      tag_86\n      jumpi\n        /* \"#utility.yul\":2458:2476   */\n      tag_86\n      tag_69\n      jump\t// in\n    tag_86:\n      pop\n        /* \"#utility.yul\":2492:2501   */\n      div\n      swap1\n        /* \"#utility.yul\":2387:2507   */\n      jump\t// out\n        /* \"#utility.yul\":2512:2639   */\n    tag_55:\n        /* \"#utility.yul\":2573:2583   */\n      0x4e487b71\n        /* \"#utility.yul\":2568:2571   */\n      0xe0\n        /* \"#utility.yul\":2564:2584   */\n      shl\n        /* \"#utility.yul\":2561:2562   */\n      0x00\n        /* \"#utility.yul\":2554:2585   */\n      mstore\n        /* \"#utility.yul\":2604:2608   */\n      0x41\n        /* \"#utility.yul\":2601:2602   */\n      0x04\n        /* \"#utility.yul\":2594:2609   */\n      mstore\n        /* \"#utility.yul\":2628:2632   */\n      0x24\n        /* \"#utility.yul\":2625:2626   */\n      0x00\n        /* \"#utility.yul\":2618:2633   */\n      revert\n        /* \"#utility.yul\":2644:2756   */\n    tag_60:\n        /* \"#utility.yul\":2676:2677   */\n      0x00\n        /* \"#utility.yul\":2702:2703   */\n      dup3\n        /* \"#utility.yul\":2692:2727   */\n      tag_90\n      jumpi\n        /* \"#utility.yul\":2707:2725   */\n      tag_90\n      tag_69\n      jump\t// in\n    tag_90:\n      pop\n        /* \"#utility.yul\":2741:2750   */\n      mod\n      swap1\n        /* \"#utility.yul\":2644:2756   */\n      jump\t// out\n        /* \"#utility.yul\":2761:2886   */\n    tag_62:\n        /* \"#utility.yul\":2826:2835   */\n      dup1\n      dup3\n      add\n        /* \"#utility.yul\":2847:2857   */\n      dup1\n      dup3\n      gt\n        /* \"#utility.yul\":2844:2880   */\n      iszero\n      tag_93\n      jumpi\n        /* \"#utility.yul\":2860:2878   */\n      tag_93\n      tag_68\n      jump\t// in\n    tag_93:\n        /* \"#utility.yul\":2761:2886   */\n      swap3\n      swap2\n      pop\n      pop\n      jump\t// out\n        /* \"#utility.yul\":2891:3027   */\n    tag_64:\n        /* \"#utility.yul\":2930:2933   */\n      0x00\n        /* \"#utility.yul\":2958:2963   */\n      dup2\n        /* \"#utility.yul\":2948:2987   */\n      tag_96\n      jumpi\n        /* \"#utility.yul\":2967:2985   */\n      tag_96\n      tag_68\n      jump\t// in\n    tag_96:\n      pop\n      not(0x00)\n        /* \"#utility.yul\":3003:3021   */\n      add\n      swap1\n        /* \"#utility.yul\":2891:3027   */\n      jump\t// out\n    stop\n\n    sub_0: assembly {\n            /* \"auctioncontract.sol\":61:924  contract Auction {... */\n          mstore(0x40, 0x80)\n            /* \"auctioncontract.sol\":230:369  constructor(string memory _item) {... */\n          callvalue\n          dup1\n          iszero\n          tag_1\n          jumpi\n          0x00\n          dup1\n          revert\n        tag_1:\n          pop\n          mload(0x40)\n          sub(codesize, bytecodeSize)\n          dup1\n          bytecodeSize\n          dup4\n          codecopy\n          dup2\n          add\n          0x40\n          dup2\n          swap1\n          mstore\n          tag_2\n          swap2\n          tag_3\n          jump\t// in\n        tag_2:\n            /* \"auctioncontract.sol\":274:278  item */\n          0x00\n            /* \"auctioncontract.sol\":274:286  item = _item */\n          tag_6\n            /* \"auctioncontract.sol\":281:286  _item */\n          dup3\n            /* \"auctioncontract.sol\":274:278  item */\n          dup3\n            /* \"auctioncontract.sol\":274:286  item = _item */\n          tag_7\n          jump\t// in\n        tag_6:\n          pop\n            /* \"auctioncontract.sol\":297:303  seller */\n          0x04\n            /* \"auctioncontract.sol\":297:316  seller = msg.sender */\n          dup1\n          sload\n          not(sub(shl(0xa0, 0x01), 0x01))\n          and\n            /* \"auctioncontract.sol\":306:316  msg.sender */\n          caller\n            /* \"auctioncontract.sol\":297:316  seller = msg.sender */\n          or\n          swap1\n          sstore\n            /* \"auctioncontract.sol\":337:361  block.timestamp + 3 days */\n          tag_8\n            /* \"auctioncontract.sol\":337:352  block.timestamp */\n          timestamp\n            /* \"auctioncontract.sol\":355:361  3 days */\n          0x03f480\n            /* \"auctioncontract.sol\":337:361  block.timestamp + 3 days */\n          tag_9\n          jump\t// in\n        tag_8:\n            /* \"auctioncontract.sol\":327:334  endTime */\n          0x03\n            /* \"auctioncontract.sol\":327:361  endTime = block.timestamp + 3 days */\n          sstore\n          pop\n            /* \"auctioncontract.sol\":61:924  contract Auction {... */\n          jump(tag_16)\n            /* \"#utility.yul\":14:141   */\n        tag_11:\n            /* \"#utility.yul\":75:85   */\n          0x4e487b71\n            /* \"#utility.yul\":70:73   */\n          0xe0\n            /* \"#utility.yul\":66:86   */\n          shl\n            /* \"#utility.yul\":63:64   */\n          0x00\n            /* \"#utility.yul\":56:87   */\n          mstore\n            /* \"#utility.yul\":106:110   */\n          0x41\n            /* \"#utility.yul\":103:104   */\n          0x04\n            /* \"#utility.yul\":96:111   */\n          mstore\n            /* \"#utility.yul\":130:134   */\n          0x24\n            /* \"#utility.yul\":127:128   */\n          0x00\n            /* \"#utility.yul\":120:135   */\n          revert\n            /* \"#utility.yul\":146:1081   */\n        tag_3:\n            /* \"#utility.yul\":226:232   */\n          0x00\n            /* \"#utility.yul\":279:281   */\n          0x20\n            /* \"#utility.yul\":267:276   */\n          dup3\n            /* \"#utility.yul\":258:265   */\n          dup5\n            /* \"#utility.yul\":254:277   */\n          sub\n            /* \"#utility.yul\":250:282   */\n          slt\n            /* \"#utility.yul\":247:299   */\n          iszero\n          tag_19\n          jumpi\n            /* \"#utility.yul\":295:296   */\n          0x00\n            /* \"#utility.yul\":292:293   */\n          dup1\n            /* \"#utility.yul\":285:297   */\n          revert\n            /* \"#utility.yul\":247:299   */\n        tag_19:\n            /* \"#utility.yul\":322:338   */\n          dup2\n          mload\n          sub(shl(0x40, 0x01), 0x01)\n            /* \"#utility.yul\":350:380   */\n          dup2\n          gt\n            /* \"#utility.yul\":347:397   */\n          iszero\n          tag_20\n          jumpi\n            /* \"#utility.yul\":393:394   */\n          0x00\n            /* \"#utility.yul\":390:391   */\n          dup1\n            /* \"#utility.yul\":383:395   */\n          revert\n            /* \"#utility.yul\":347:397   */\n        tag_20:\n            /* \"#utility.yul\":416:438   */\n          dup3\n          add\n            /* \"#utility.yul\":469:473   */\n          0x1f\n            /* \"#utility.yul\":461:474   */\n          dup2\n          add\n            /* \"#utility.yul\":457:484   */\n          dup5\n          sgt\n            /* \"#utility.yul\":447:502   */\n          tag_21\n          jumpi\n            /* \"#utility.yul\":498:499   */\n          0x00\n            /* \"#utility.yul\":495:496   */\n          dup1\n            /* \"#utility.yul\":488:500   */\n          revert\n            /* \"#utility.yul\":447:502   */\n        tag_21:\n            /* \"#utility.yul\":525:534   */\n          dup1\n          mload\n          sub(shl(0x40, 0x01), 0x01)\n            /* \"#utility.yul\":546:576   */\n          dup2\n          gt\n            /* \"#utility.yul\":543:599   */\n          iszero\n          tag_23\n          jumpi\n            /* \"#utility.yul\":579:597   */\n          tag_23\n          tag_11\n          jump\t// in\n        tag_23:\n            /* \"#utility.yul\":628:630   */\n          0x40\n            /* \"#utility.yul\":622:631   */\n          mload\n            /* \"#utility.yul\":720:722   */\n          0x1f\n            /* \"#utility.yul\":682:699   */\n          dup3\n          add\n          not(0x1f)\n            /* \"#utility.yul\":678:709   */\n          swap1\n          dup2\n          and\n            /* \"#utility.yul\":711:713   */\n          0x3f\n            /* \"#utility.yul\":674:714   */\n          add\n            /* \"#utility.yul\":670:724   */\n          and\n            /* \"#utility.yul\":658:725   */\n          dup2\n          add\n          sub(shl(0x40, 0x01), 0x01)\n            /* \"#utility.yul\":740:774   */\n          dup2\n          gt\n            /* \"#utility.yul\":776:798   */\n          dup3\n          dup3\n          lt\n            /* \"#utility.yul\":737:799   */\n          or\n            /* \"#utility.yul\":734:822   */\n          iszero\n          tag_25\n          jumpi\n            /* \"#utility.yul\":802:820   */\n          tag_25\n          tag_11\n          jump\t// in\n        tag_25:\n            /* \"#utility.yul\":838:840   */\n          0x40\n            /* \"#utility.yul\":831:853   */\n          mstore\n            /* \"#utility.yul\":862:884   */\n          dup2\n          dup2\n          mstore\n            /* \"#utility.yul\":903:918   */\n          dup3\n          dup3\n          add\n            /* \"#utility.yul\":920:922   */\n          0x20\n            /* \"#utility.yul\":899:923   */\n          add\n            /* \"#utility.yul\":896:933   */\n          dup7\n          lt\n            /* \"#utility.yul\":893:950   */\n          iszero\n          tag_26\n          jumpi\n            /* \"#utility.yul\":946:947   */\n          0x00\n            /* \"#utility.yul\":943:944   */\n          dup1\n            /* \"#utility.yul\":936:948   */\n          revert\n            /* \"#utility.yul\":893:950   */\n        tag_26:\n            /* \"#utility.yul\":995:1001   */\n          dup2\n            /* \"#utility.yul\":990:992   */\n          0x20\n            /* \"#utility.yul\":986:988   */\n          dup5\n            /* \"#utility.yul\":982:993   */\n          add\n            /* \"#utility.yul\":977:979   */\n          0x20\n            /* \"#utility.yul\":969:975   */\n          dup4\n            /* \"#utility.yul\":965:980   */\n          add\n            /* \"#utility.yul\":959:1002   */\n          mcopy\n            /* \"#utility.yul\":1048:1049   */\n          0x00\n            /* \"#utility.yul\":1022:1041   */\n          swap2\n          dup2\n          add\n            /* \"#utility.yul\":1043:1045   */\n          0x20\n            /* \"#utility.yul\":1018:1046   */\n          add\n            /* \"#utility.yul\":1011:1050   */\n          swap2\n          swap1\n          swap2\n          mstore\n            /* \"#utility.yul\":1026:1032   */\n          swap5\n            /* \"#utility.yul\":146:1081   */\n          swap4\n          pop\n          pop\n          pop\n          pop\n          jump\t// out\n            /* \"#utility.yul\":1086:1466   */\n        tag_12:\n            /* \"#utility.yul\":1165:1166   */\n          0x01\n            /* \"#utility.yul\":1161:1173   */\n          dup2\n          dup2\n          shr\n          swap1\n            /* \"#utility.yul\":1208:1220   */\n          dup3\n          and\n          dup1\n            /* \"#utility.yul\":1229:1290   */\n          tag_28\n          jumpi\n            /* \"#utility.yul\":1283:1287   */\n          0x7f\n            /* \"#utility.yul\":1275:1281   */\n          dup3\n            /* \"#utility.yul\":1271:1288   */\n          and\n            /* \"#utility.yul\":1261:1288   */\n          swap2\n          pop\n            /* \"#utility.yul\":1229:1290   */\n        tag_28:\n            /* \"#utility.yul\":1336:1338   */\n          0x20\n            /* \"#utility.yul\":1328:1334   */\n          dup3\n            /* \"#utility.yul\":1325:1339   */\n          lt\n            /* \"#utility.yul\":1305:1323   */\n          dup2\n            /* \"#utility.yul\":1302:1340   */\n          sub\n            /* \"#utility.yul\":1299:1460   */\n          tag_29\n          jumpi\n            /* \"#utility.yul\":1382:1392   */\n          0x4e487b71\n            /* \"#utility.yul\":1377:1380   */\n          0xe0\n            /* \"#utility.yul\":1373:1393   */\n          shl\n            /* \"#utility.yul\":1370:1371   */\n          0x00\n            /* \"#utility.yul\":1363:1394   */\n          mstore\n            /* \"#utility.yul\":1417:1421   */\n          0x22\n            /* \"#utility.yul\":1414:1415   */\n          0x04\n            /* \"#utility.yul\":1407:1422   */\n          mstore\n            /* \"#utility.yul\":1445:1449   */\n          0x24\n            /* \"#utility.yul\":1442:1443   */\n          0x00\n            /* \"#utility.yul\":1435:1450   */\n          revert\n            /* \"#utility.yul\":1299:1460   */\n        tag_29:\n          pop\n            /* \"#utility.yul\":1086:1466   */\n          swap2\n          swap1\n          pop\n          jump\t// out\n            /* \"#utility.yul\":1597:2115   */\n        tag_14:\n            /* \"#utility.yul\":1699:1701   */\n          0x1f\n            /* \"#utility.yul\":1694:1697   */\n          dup3\n            /* \"#utility.yul\":1691:1702   */\n          gt\n            /* \"#utility.yul\":1688:2109   */\n          iszero\n          tag_32\n          jumpi\n            /* \"#utility.yul\":1735:1740   */\n          dup1\n            /* \"#utility.yul\":1732:1733   */\n          0x00\n            /* \"#utility.yul\":1725:1741   */\n          mstore\n            /* \"#utility.yul\":1779:1783   */\n          0x20\n            /* \"#utility.yul\":1776:1777   */\n          0x00\n            /* \"#utility.yul\":1766:1784   */\n          keccak256\n            /* \"#utility.yul\":1849:1851   */\n          0x1f\n            /* \"#utility.yul\":1837:1847   */\n          dup5\n            /* \"#utility.yul\":1833:1852   */\n          add\n            /* \"#utility.yul\":1830:1831   */\n          0x05\n            /* \"#utility.yul\":1826:1853   */\n          shr\n            /* \"#utility.yul\":1820:1824   */\n          dup2\n            /* \"#utility.yul\":1816:1854   */\n          add\n            /* \"#utility.yul\":1885:1889   */\n          0x20\n            /* \"#utility.yul\":1873:1883   */\n          dup6\n            /* \"#utility.yul\":1870:1890   */\n          lt\n            /* \"#utility.yul\":1867:1914   */\n          iszero\n          tag_33\n          jumpi\n          pop\n            /* \"#utility.yul\":1908:1912   */\n          dup1\n            /* \"#utility.yul\":1867:1914   */\n        tag_33:\n            /* \"#utility.yul\":1963:1965   */\n          0x1f\n            /* \"#utility.yul\":1958:1961   */\n          dup5\n            /* \"#utility.yul\":1954:1966   */\n          add\n            /* \"#utility.yul\":1951:1952   */\n          0x05\n            /* \"#utility.yul\":1947:1967   */\n          shr\n            /* \"#utility.yul\":1941:1945   */\n          dup3\n            /* \"#utility.yul\":1937:1968   */\n          add\n            /* \"#utility.yul\":1927:1968   */\n          swap2\n          pop\n            /* \"#utility.yul\":2018:2099   */\n        tag_34:\n            /* \"#utility.yul\":2036:2038   */\n          dup2\n            /* \"#utility.yul\":2029:2034   */\n          dup2\n            /* \"#utility.yul\":2026:2039   */\n          lt\n            /* \"#utility.yul\":2018:2099   */\n          iszero\n          tag_36\n          jumpi\n            /* \"#utility.yul\":2095:2096   */\n          0x00\n            /* \"#utility.yul\":2081:2097   */\n          dup2\n          sstore\n            /* \"#utility.yul\":2062:2063   */\n          0x01\n            /* \"#utility.yul\":2051:2064   */\n          add\n            /* \"#utility.yul\":2018:2099   */\n          jump(tag_34)\n        tag_36:\n            /* \"#utility.yul\":2022:2025   */\n          pop\n          pop\n            /* \"#utility.yul\":1688:2109   */\n        tag_32:\n            /* \"#utility.yul\":1597:2115   */\n          pop\n          pop\n          pop\n          jump\t// out\n            /* \"#utility.yul\":2291:3590   */\n        tag_7:\n            /* \"#utility.yul\":2411:2421   */\n          dup2\n          mload\n          sub(shl(0x40, 0x01), 0x01)\n            /* \"#utility.yul\":2433:2463   */\n          dup2\n          gt\n            /* \"#utility.yul\":2430:2486   */\n          iszero\n          tag_40\n          jumpi\n            /* \"#utility.yul\":2466:2484   */\n          tag_40\n          tag_11\n          jump\t// in\n        tag_40:\n            /* \"#utility.yul\":2495:2592   */\n          tag_41\n            /* \"#utility.yul\":2585:2591   */\n          dup2\n            /* \"#utility.yul\":2545:2583   */\n          tag_42\n            /* \"#utility.yul\":2577:2581   */\n          dup5\n            /* \"#utility.yul\":2571:2582   */\n          sload\n            /* \"#utility.yul\":2545:2583   */\n          tag_12\n          jump\t// in\n        tag_42:\n            /* \"#utility.yul\":2539:2543   */\n          dup5\n            /* \"#utility.yul\":2495:2592   */\n          tag_14\n          jump\t// in\n        tag_41:\n            /* \"#utility.yul\":2641:2645   */\n          0x20\n            /* \"#utility.yul\":2672:2674   */\n          0x1f\n            /* \"#utility.yul\":2661:2675   */\n          dup3\n          gt\n            /* \"#utility.yul\":2689:2690   */\n          0x01\n            /* \"#utility.yul\":2684:3333   */\n          dup2\n          eq\n          tag_44\n          jumpi\n            /* \"#utility.yul\":3377:3378   */\n          0x00\n            /* \"#utility.yul\":3394:3400   */\n          dup4\n            /* \"#utility.yul\":3391:3480   */\n          iszero\n          tag_45\n          jumpi\n          pop\n            /* \"#utility.yul\":3446:3465   */\n          dup5\n          dup3\n          add\n            /* \"#utility.yul\":3440:3466   */\n          mload\n            /* \"#utility.yul\":3391:3480   */\n        tag_45:\n          not(0x00)\n            /* \"#utility.yul\":2248:2249   */\n          0x03\n            /* \"#utility.yul\":2244:2255   */\n          dup6\n          swap1\n          shl\n            /* \"#utility.yul\":2240:2264   */\n          shr\n            /* \"#utility.yul\":2236:2265   */\n          not\n            /* \"#utility.yul\":2226:2266   */\n          and\n            /* \"#utility.yul\":2272:2273   */\n          0x01\n            /* \"#utility.yul\":2268:2279   */\n          dup5\n          swap1\n          shl\n            /* \"#utility.yul\":2223:2280   */\n          or\n            /* \"#utility.yul\":3493:3574   */\n          dup5\n          sstore\n            /* \"#utility.yul\":2654:3584   */\n          jump(tag_36)\n            /* \"#utility.yul\":2684:3333   */\n        tag_44:\n            /* \"#utility.yul\":1544:1545   */\n          0x00\n            /* \"#utility.yul\":1537:1551   */\n          dup5\n          dup2\n          mstore\n            /* \"#utility.yul\":1581:1585   */\n          0x20\n            /* \"#utility.yul\":1568:1586   */\n          dup2\n          keccak256\n          not(0x1f)\n            /* \"#utility.yul\":2720:2740   */\n          dup6\n          and\n          swap2\n            /* \"#utility.yul\":2838:3060   */\n        tag_48:\n            /* \"#utility.yul\":2852:2859   */\n          dup3\n            /* \"#utility.yul\":2849:2850   */\n          dup2\n            /* \"#utility.yul\":2846:2860   */\n          lt\n            /* \"#utility.yul\":2838:3060   */\n          iszero\n          tag_50\n          jumpi\n            /* \"#utility.yul\":2934:2953   */\n          dup8\n          dup6\n          add\n            /* \"#utility.yul\":2928:2954   */\n          mload\n            /* \"#utility.yul\":2913:2955   */\n          dup3\n          sstore\n            /* \"#utility.yul\":3041:3045   */\n          0x20\n            /* \"#utility.yul\":3026:3046   */\n          swap5\n          dup6\n          add\n          swap5\n            /* \"#utility.yul\":2994:2995   */\n          0x01\n            /* \"#utility.yul\":2982:2996   */\n          swap1\n          swap3\n          add\n          swap2\n            /* \"#utility.yul\":2868:2880   */\n          add\n            /* \"#utility.yul\":2838:3060   */\n          jump(tag_48)\n        tag_50:\n            /* \"#utility.yul\":2842:2845   */\n          pop\n            /* \"#utility.yul\":3088:3094   */\n          dup5\n            /* \"#utility.yul\":3079:3086   */\n          dup3\n            /* \"#utility.yul\":3076:3095   */\n          lt\n            /* \"#utility.yul\":3073:3274   */\n          iszero\n          tag_51\n          jumpi\n            /* \"#utility.yul\":3149:3168   */\n          dup7\n          dup5\n          add\n            /* \"#utility.yul\":3143:3169   */\n          mload\n          not(0x00)\n            /* \"#utility.yul\":3232:3233   */\n          0x03\n            /* \"#utility.yul\":3228:3242   */\n          dup8\n          swap1\n          shl\n            /* \"#utility.yul\":3244:3247   */\n          0xf8\n            /* \"#utility.yul\":3224:3248   */\n          and\n            /* \"#utility.yul\":3220:3257   */\n          shr\n            /* \"#utility.yul\":3216:3258   */\n          not\n            /* \"#utility.yul\":3201:3259   */\n          and\n            /* \"#utility.yul\":3186:3260   */\n          dup2\n          sstore\n            /* \"#utility.yul\":3073:3274   */\n        tag_51:\n          pop\n          pop\n          pop\n          pop\n            /* \"#utility.yul\":3320:3321   */\n          0x01\n            /* \"#utility.yul\":3304:3318   */\n          swap1\n          dup2\n          shl\n            /* \"#utility.yul\":3300:3322   */\n          add\n            /* \"#utility.yul\":3287:3323   */\n          swap1\n          sstore\n          pop\n            /* \"#utility.yul\":2291:3590   */\n          jump\t// out\n            /* \"#utility.yul\":3595:3817   */\n        tag_9:\n            /* \"#utility.yul\":3660:3669   */\n          dup1\n          dup3\n          add\n            /* \"#utility.yul\":3681:3691   */\n          dup1\n          dup3\n          gt\n            /* \"#utility.yul\":3678:3811   */\n          iszero\n          tag_53\n          jumpi\n            /* \"#utility.yul\":3733:3743   */\n          0x4e487b71\n            /* \"#utility.yul\":3728:3731   */\n          0xe0\n            /* \"#utility.yul\":3724:3744   */\n          shl\n            /* \"#utility.yul\":3721:3722   */\n          0x00\n            /* \"#utility.yul\":3714:3745   */\n          mstore\n            /* \"#utility.yul\":3768:3772   */\n          0x11\n            /* \"#utility.yul\":3765:3766   */\n          0x04\n            /* \"#utility.yul\":3758:3773   */\n          mstore\n            /* \"#utility.yul\":3796:3800   */\n          0x24\n            /* \"#utility.yul\":3793:3794   */\n          0x00\n            /* \"#utility.yul\":3786:3801   */\n          revert\n            /* \"#utility.yul\":3678:3811   */\n        tag_53:\n            /* \"#utility.yul\":3595:3817   */\n          swap3\n          swap2\n          pop\n          pop\n          jump\t// out\n        tag_16:\n            /* \"auctioncontract.sol\":61:924  contract Auction {... */\n          dataSize(sub_0)\n          dup1\n          dataOffset(sub_0)\n          0x00\n          codecopy\n          0x00\n          return\n        stop\n\n        sub_0: assembly {\n                /* \"auctioncontract.sol\":61:924  contract Auction {... */\n              mstore(0x40, 0x80)\n              jumpi(tag_1, lt(calldatasize, 0x04))\n              shr(0xe0, calldataload(0x00))\n              dup1\n              0x4bb278f3\n              gt\n              tag_9\n              jumpi\n              dup1\n              0x4bb278f3\n              eq\n              tag_5\n              jumpi\n              dup1\n              0x91f90157\n              eq\n              tag_6\n              jumpi\n              dup1\n              0xd57bde79\n              eq\n              tag_7\n              jumpi\n              dup1\n              0xf2a4a82e\n              eq\n              tag_8\n              jumpi\n              0x00\n              dup1\n              revert\n            tag_9:\n              dup1\n              0x08551a53\n              eq\n              tag_2\n              jumpi\n              dup1\n              0x1998aeef\n              eq\n              tag_3\n              jumpi\n              dup1\n              0x3197cbb6\n              eq\n              tag_4\n              jumpi\n            tag_1:\n              0x00\n              dup1\n              revert\n                /* \"auctioncontract.sol\":200:221  address public seller */\n            tag_2:\n              callvalue\n              dup1\n              iszero\n              tag_10\n              jumpi\n              0x00\n              dup1\n              revert\n            tag_10:\n              pop\n              sload(0x04)\n              tag_11\n              swap1\n              sub(shl(0xa0, 0x01), 0x01)\n              and\n              dup2\n              jump\n            tag_11:\n              mload(0x40)\n              sub(shl(0xa0, 0x01), 0x01)\n                /* \"#utility.yul\":178:210   */\n              swap1\n              swap2\n              and\n                /* \"#utility.yul\":160:211   */\n              dup2\n              mstore\n                /* \"#utility.yul\":148:150   */\n              0x20\n                /* \"#utility.yul\":133:151   */\n              add\n                /* \"auctioncontract.sol\":200:221  address public seller */\n            tag_13:\n              mload(0x40)\n              dup1\n              swap2\n              sub\n              swap1\n              return\n                /* \"auctioncontract.sol\":377:717  function bid() public payable {... */\n            tag_3:\n              tag_15\n              tag_16\n              jump\t// in\n            tag_15:\n              stop\n                /* \"auctioncontract.sol\":174:193  uint public endTime */\n            tag_4:\n              callvalue\n              dup1\n              iszero\n              tag_17\n              jumpi\n              0x00\n              dup1\n              revert\n            tag_17:\n              pop\n              tag_18\n              sload(0x03)\n              dup2\n              jump\n            tag_18:\n              mload(0x40)\n                /* \"#utility.yul\":368:393   */\n              swap1\n              dup2\n              mstore\n                /* \"#utility.yul\":356:358   */\n              0x20\n                /* \"#utility.yul\":341:359   */\n              add\n                /* \"auctioncontract.sol\":174:193  uint public endTime */\n              tag_13\n                /* \"#utility.yul\":222:399   */\n              jump\n                /* \"auctioncontract.sol\":725:921  function finalize() public {... */\n            tag_5:\n              callvalue\n              dup1\n              iszero\n              tag_22\n              jumpi\n              0x00\n              dup1\n              revert\n            tag_22:\n              pop\n              tag_15\n              tag_24\n              jump\t// in\n                /* \"auctioncontract.sol\":110:138  address public highestBidder */\n            tag_6:\n              callvalue\n              dup1\n              iszero\n              tag_25\n              jumpi\n              0x00\n              dup1\n              revert\n            tag_25:\n              pop\n              sload(0x01)\n              tag_11\n              swap1\n              sub(shl(0xa0, 0x01), 0x01)\n              and\n              dup2\n              jump\n                /* \"auctioncontract.sol\":145:167  uint public highestBid */\n            tag_7:\n              callvalue\n              dup1\n              iszero\n              tag_29\n              jumpi\n              0x00\n              dup1\n              revert\n            tag_29:\n              pop\n              tag_18\n              sload(0x02)\n              dup2\n              jump\n                /* \"auctioncontract.sol\":85:103  string public item */\n            tag_8:\n              callvalue\n              dup1\n              iszero\n              tag_33\n              jumpi\n              0x00\n              dup1\n              revert\n            tag_33:\n              pop\n              tag_34\n              tag_35\n              jump\t// in\n            tag_34:\n              mload(0x40)\n              tag_13\n              swap2\n              swap1\n              tag_37\n              jump\t// in\n                /* \"auctioncontract.sol\":377:717  function bid() public payable {... */\n            tag_16:\n                /* \"auctioncontract.sol\":444:451  endTime */\n              sload(0x03)\n                /* \"auctioncontract.sol\":426:441  block.timestamp */\n              timestamp\n                /* \"auctioncontract.sol\":426:451  block.timestamp < endTime */\n              lt\n                /* \"auctioncontract.sol\":418:469  require(block.timestamp < endTime, \"Auction ended\") */\n              tag_39\n              jumpi\n              mload(0x40)\n              shl(0xe5, 0x461bcd)\n              dup2\n              mstore\n                /* \"#utility.yul\":1029:1031   */\n              0x20\n                /* \"auctioncontract.sol\":418:469  require(block.timestamp < endTime, \"Auction ended\") */\n              0x04\n              dup3\n              add\n                /* \"#utility.yul\":1011:1032   */\n              mstore\n                /* \"#utility.yul\":1068:1070   */\n              0x0d\n                /* \"#utility.yul\":1048:1066   */\n              0x24\n              dup3\n              add\n                /* \"#utility.yul\":1041:1071   */\n              mstore\n              shl(0x9a, 0x105d58dd1a5bdb88195b991959)\n                /* \"#utility.yul\":1087:1105   */\n              0x44\n              dup3\n              add\n                /* \"#utility.yul\":1080:1123   */\n              mstore\n                /* \"#utility.yul\":1140:1158   */\n              0x64\n              add\n                /* \"auctioncontract.sol\":418:469  require(block.timestamp < endTime, \"Auction ended\") */\n            tag_40:\n              mload(0x40)\n              dup1\n              swap2\n              sub\n              swap1\n              revert\n            tag_39:\n                /* \"auctioncontract.sol\":500:510  highestBid */\n              sload(0x02)\n                /* \"auctioncontract.sol\":488:497  msg.value */\n              callvalue\n                /* \"auctioncontract.sol\":488:510  msg.value > highestBid */\n              gt\n                /* \"auctioncontract.sol\":480:522  require(msg.value > highestBid, \"Low bid\") */\n              tag_42\n              jumpi\n              mload(0x40)\n              shl(0xe5, 0x461bcd)\n              dup2\n              mstore\n                /* \"#utility.yul\":1371:1373   */\n              0x20\n                /* \"auctioncontract.sol\":480:522  require(msg.value > highestBid, \"Low bid\") */\n              0x04\n              dup3\n              add\n                /* \"#utility.yul\":1353:1374   */\n              mstore\n                /* \"#utility.yul\":1410:1411   */\n              0x07\n                /* \"#utility.yul\":1390:1408   */\n              0x24\n              dup3\n              add\n                /* \"#utility.yul\":1383:1412   */\n              mstore\n              shl(0xca, 0x131bddc8189a59)\n                /* \"#utility.yul\":1428:1446   */\n              0x44\n              dup3\n              add\n                /* \"#utility.yul\":1421:1458   */\n              mstore\n                /* \"#utility.yul\":1475:1493   */\n              0x64\n              add\n                /* \"auctioncontract.sol\":480:522  require(msg.value > highestBid, \"Low bid\") */\n              tag_40\n                /* \"#utility.yul\":1169:1499   */\n              jump\n                /* \"auctioncontract.sol\":480:522  require(msg.value > highestBid, \"Low bid\") */\n            tag_42:\n                /* \"auctioncontract.sol\":539:552  highestBidder */\n              and(sub(shl(0xa0, 0x01), 0x01), sload(0x01))\n                /* \"auctioncontract.sol\":539:566  highestBidder != address(0) */\n              iszero\n                /* \"auctioncontract.sol\":535:638  if (highestBidder != address(0)) {... */\n              tag_45\n              jumpi\n                /* \"auctioncontract.sol\":591:604  highestBidder */\n              sload(0x01)\n                /* \"auctioncontract.sol\":615:625  highestBid */\n              sload(0x02)\n                /* \"auctioncontract.sol\":583:626  payable(highestBidder).transfer(highestBid) */\n              mload(0x40)\n              sub(shl(0xa0, 0x01), 0x01)\n                /* \"auctioncontract.sol\":591:604  highestBidder */\n              swap1\n              swap3\n              and\n              swap2\n                /* \"auctioncontract.sol\":583:626  payable(highestBidder).transfer(highestBid) */\n              dup2\n              iszero\n              0x08fc\n              mul\n              swap2\n                /* \"auctioncontract.sol\":615:625  highestBid */\n              swap1\n                /* \"auctioncontract.sol\":591:604  highestBidder */\n              0x00\n                /* \"auctioncontract.sol\":583:626  payable(highestBidder).transfer(highestBid) */\n              dup2\n                /* \"auctioncontract.sol\":591:604  highestBidder */\n              dup2\n                /* \"auctioncontract.sol\":583:626  payable(highestBidder).transfer(highestBid) */\n              dup2\n                /* \"auctioncontract.sol\":615:625  highestBid */\n              dup6\n                /* \"auctioncontract.sol\":591:604  highestBidder */\n              dup9\n                /* \"auctioncontract.sol\":583:626  payable(highestBidder).transfer(highestBid) */\n              dup9\n              call\n              swap4\n              pop\n              pop\n              pop\n              pop\n              iszero\n              dup1\n              iszero\n              tag_47\n              jumpi\n              returndatasize\n              0x00\n              dup1\n              returndatacopy\n              revert(0x00, returndatasize)\n            tag_47:\n              pop\n                /* \"auctioncontract.sol\":535:638  if (highestBidder != address(0)) {... */\n            tag_45:\n                /* \"auctioncontract.sol\":663:672  msg.value */\n              callvalue\n                /* \"auctioncontract.sol\":650:660  highestBid */\n              0x02\n                /* \"auctioncontract.sol\":650:672  highestBid = msg.value */\n              sstore\n                /* \"auctioncontract.sol\":683:696  highestBidder */\n              0x01\n                /* \"auctioncontract.sol\":683:709  highestBidder = msg.sender */\n              dup1\n              sload\n              not(sub(shl(0xa0, 0x01), 0x01))\n              and\n                /* \"auctioncontract.sol\":699:709  msg.sender */\n              caller\n                /* \"auctioncontract.sol\":683:709  highestBidder = msg.sender */\n              or\n              swap1\n              sstore\n                /* \"auctioncontract.sol\":377:717  function bid() public payable {... */\n              jump\t// out\n                /* \"auctioncontract.sol\":725:921  function finalize() public {... */\n            tag_24:\n                /* \"auctioncontract.sol\":790:797  endTime */\n              sload(0x03)\n                /* \"auctioncontract.sol\":771:786  block.timestamp */\n              timestamp\n                /* \"auctioncontract.sol\":771:797  block.timestamp >= endTime */\n              lt\n              iszero\n                /* \"auctioncontract.sol\":763:811  require(block.timestamp >= endTime, \"Too early\") */\n              tag_49\n              jumpi\n              mload(0x40)\n              shl(0xe5, 0x461bcd)\n              dup2\n              mstore\n                /* \"#utility.yul\":1706:1708   */\n              0x20\n                /* \"auctioncontract.sol\":763:811  require(block.timestamp >= endTime, \"Too early\") */\n              0x04\n              dup3\n              add\n                /* \"#utility.yul\":1688:1709   */\n              mstore\n                /* \"#utility.yul\":1745:1746   */\n              0x09\n                /* \"#utility.yul\":1725:1743   */\n              0x24\n              dup3\n              add\n                /* \"#utility.yul\":1718:1747   */\n              mstore\n              shl(0xb8, 0x546f6f206561726c79)\n                /* \"#utility.yul\":1763:1781   */\n              0x44\n              dup3\n              add\n                /* \"#utility.yul\":1756:1795   */\n              mstore\n                /* \"#utility.yul\":1812:1830   */\n              0x64\n              add\n                /* \"auctioncontract.sol\":763:811  require(block.timestamp >= endTime, \"Too early\") */\n              tag_40\n                /* \"#utility.yul\":1504:1836   */\n              jump\n                /* \"auctioncontract.sol\":763:811  require(block.timestamp >= endTime, \"Too early\") */\n            tag_49:\n                /* \"auctioncontract.sol\":844:850  seller */\n              and(sub(shl(0xa0, 0x01), 0x01), sload(0x04))\n                /* \"auctioncontract.sol\":830:840  msg.sender */\n              caller\n                /* \"auctioncontract.sol\":830:850  msg.sender == seller */\n              eq\n                /* \"auctioncontract.sol\":822:866  require(msg.sender == seller, \"Only seller\") */\n              tag_52\n              jumpi\n              mload(0x40)\n              shl(0xe5, 0x461bcd)\n              dup2\n              mstore\n                /* \"#utility.yul\":2043:2045   */\n              0x20\n                /* \"auctioncontract.sol\":822:866  require(msg.sender == seller, \"Only seller\") */\n              0x04\n              dup3\n              add\n                /* \"#utility.yul\":2025:2046   */\n              mstore\n                /* \"#utility.yul\":2082:2084   */\n              0x0b\n                /* \"#utility.yul\":2062:2080   */\n              0x24\n              dup3\n              add\n                /* \"#utility.yul\":2055:2085   */\n              mstore\n              shl(0xa9, 0x27b7363c9039b2b63632b9)\n                /* \"#utility.yul\":2101:2119   */\n              0x44\n              dup3\n              add\n                /* \"#utility.yul\":2094:2135   */\n              mstore\n                /* \"#utility.yul\":2152:2170   */\n              0x64\n              add\n                /* \"auctioncontract.sol\":822:866  require(msg.sender == seller, \"Only seller\") */\n              tag_40\n                /* \"#utility.yul\":1841:2176   */\n              jump\n                /* \"auctioncontract.sol\":822:866  require(msg.sender == seller, \"Only seller\") */\n            tag_52:\n                /* \"auctioncontract.sol\":885:891  seller */\n              sload(0x04)\n                /* \"auctioncontract.sol\":902:912  highestBid */\n              sload(0x02)\n                /* \"auctioncontract.sol\":877:913  payable(seller).transfer(highestBid) */\n              mload(0x40)\n              sub(shl(0xa0, 0x01), 0x01)\n                /* \"auctioncontract.sol\":885:891  seller */\n              swap1\n              swap3\n              and\n              swap2\n                /* \"auctioncontract.sol\":877:913  payable(seller).transfer(highestBid) */\n              dup2\n              iszero\n              0x08fc\n              mul\n              swap2\n                /* \"auctioncontract.sol\":902:912  highestBid */\n              swap1\n                /* \"auctioncontract.sol\":885:891  seller */\n              0x00\n                /* \"auctioncontract.sol\":877:913  payable(seller).transfer(highestBid) */\n              dup2\n                /* \"auctioncontract.sol\":885:891  seller */\n              dup2\n                /* \"auctioncontract.sol\":877:913  payable(seller).transfer(highestBid) */\n              dup2\n                /* \"auctioncontract.sol\":902:912  highestBid */\n              dup6\n                /* \"auctioncontract.sol\":885:891  seller */\n              dup9\n                /* \"auctioncontract.sol\":877:913  payable(seller).transfer(highestBid) */\n              dup9\n              call\n              swap4\n              pop\n              pop\n              pop\n              pop\n              iszero\n              dup1\n              iszero\n              tag_56\n              jumpi\n              returndatasize\n              0x00\n              dup1\n              returndatacopy\n              revert(0x00, returndatasize)\n            tag_56:\n              pop\n                /* \"auctioncontract.sol\":725:921  function finalize() public {... */\n              jump\t// out\n                /* \"auctioncontract.sol\":85:103  string public item */\n            tag_35:\n              0x00\n              dup1\n              sload\n              tag_57\n              swap1\n              tag_58\n              jump\t// in\n            tag_57:\n              dup1\n              0x1f\n              add\n              0x20\n              dup1\n              swap2\n              div\n              mul\n              0x20\n              add\n              mload(0x40)\n              swap1\n              dup2\n              add\n              0x40\n              mstore\n              dup1\n              swap3\n              swap2\n              swap1\n              dup2\n              dup2\n              mstore\n              0x20\n              add\n              dup3\n              dup1\n              sload\n              tag_59\n              swap1\n              tag_58\n              jump\t// in\n            tag_59:\n              dup1\n              iszero\n              tag_60\n              jumpi\n              dup1\n              0x1f\n              lt\n              tag_61\n              jumpi\n              0x0100\n              dup1\n              dup4\n              sload\n              div\n              mul\n              dup4\n              mstore\n              swap2\n              0x20\n              add\n              swap2\n              jump(tag_60)\n            tag_61:\n              dup3\n              add\n              swap2\n              swap1\n              0x00\n              mstore\n              keccak256(0x00, 0x20)\n              swap1\n            tag_62:\n              dup2\n              sload\n              dup2\n              mstore\n              swap1\n              0x01\n              add\n              swap1\n              0x20\n              add\n              dup1\n              dup4\n              gt\n              tag_62\n              jumpi\n              dup3\n              swap1\n              sub\n              0x1f\n              and\n              dup3\n              add\n              swap2\n            tag_60:\n              pop\n              pop\n              pop\n              pop\n              pop\n              dup2\n              jump\t// out\n                /* \"#utility.yul\":404:822   */\n            tag_37:\n                /* \"#utility.yul\":553:555   */\n              0x20\n                /* \"#utility.yul\":542:551   */\n              dup2\n                /* \"#utility.yul\":535:556   */\n              mstore\n                /* \"#utility.yul\":516:520   */\n              0x00\n                /* \"#utility.yul\":585:591   */\n              dup3\n                /* \"#utility.yul\":579:592   */\n              mload\n                /* \"#utility.yul\":628:634   */\n              dup1\n                /* \"#utility.yul\":623:625   */\n              0x20\n                /* \"#utility.yul\":612:621   */\n              dup5\n                /* \"#utility.yul\":608:626   */\n              add\n                /* \"#utility.yul\":601:635   */\n              mstore\n                /* \"#utility.yul\":687:693   */\n              dup1\n                /* \"#utility.yul\":682:684   */\n              0x20\n                /* \"#utility.yul\":674:680   */\n              dup6\n                /* \"#utility.yul\":670:685   */\n              add\n                /* \"#utility.yul\":665:667   */\n              0x40\n                /* \"#utility.yul\":654:663   */\n              dup6\n                /* \"#utility.yul\":650:668   */\n              add\n                /* \"#utility.yul\":644:694   */\n              mcopy\n                /* \"#utility.yul\":743:744   */\n              0x00\n                /* \"#utility.yul\":738:740   */\n              0x40\n                /* \"#utility.yul\":729:735   */\n              dup3\n                /* \"#utility.yul\":718:727   */\n              dup6\n                /* \"#utility.yul\":714:736   */\n              add\n                /* \"#utility.yul\":710:741   */\n              add\n                /* \"#utility.yul\":703:745   */\n              mstore\n                /* \"#utility.yul\":813:815   */\n              0x40\n                /* \"#utility.yul\":806:808   */\n              0x1f\n                /* \"#utility.yul\":802:809   */\n              not\n                /* \"#utility.yul\":797:799   */\n              0x1f\n                /* \"#utility.yul\":789:795   */\n              dup4\n                /* \"#utility.yul\":785:800   */\n              add\n                /* \"#utility.yul\":781:810   */\n              and\n                /* \"#utility.yul\":770:779   */\n              dup5\n                /* \"#utility.yul\":766:811   */\n              add\n                /* \"#utility.yul\":762:816   */\n              add\n                /* \"#utility.yul\":754:816   */\n              swap2\n              pop\n              pop\n                /* \"#utility.yul\":404:822   */\n              swap3\n              swap2\n              pop\n              pop\n              jump\t// out\n                /* \"#utility.yul\":2181:2561   */\n            tag_58:\n                /* \"#utility.yul\":2260:2261   */\n              0x01\n                /* \"#utility.yul\":2256:2268   */\n              dup2\n              dup2\n              shr\n              swap1\n                /* \"#utility.yul\":2303:2315   */\n              dup3\n              and\n              dup1\n                /* \"#utility.yul\":2324:2385   */\n              tag_72\n              jumpi\n                /* \"#utility.yul\":2378:2382   */\n              0x7f\n                /* \"#utility.yul\":2370:2376   */\n              dup3\n                /* \"#utility.yul\":2366:2383   */\n              and\n                /* \"#utility.yul\":2356:2383   */\n              swap2\n              pop\n                /* \"#utility.yul\":2324:2385   */\n            tag_72:\n                /* \"#utility.yul\":2431:2433   */\n              0x20\n                /* \"#utility.yul\":2423:2429   */\n              dup3\n                /* \"#utility.yul\":2420:2434   */\n              lt\n                /* \"#utility.yul\":2400:2418   */\n              dup2\n                /* \"#utility.yul\":2397:2435   */\n              sub\n                /* \"#utility.yul\":2394:2555   */\n              tag_73\n              jumpi\n                /* \"#utility.yul\":2477:2487   */\n              0x4e487b71\n                /* \"#utility.yul\":2472:2475   */\n              0xe0\n                /* \"#utility.yul\":2468:2488   */\n              shl\n                /* \"#utility.yul\":2465:2466   */\n              0x00\n                /* \"#utility.yul\":2458:2489   */\n              mstore\n                /* \"#utility.yul\":2512:2516   */\n              0x22\n                /* \"#utility.yul\":2509:2510   */\n              0x04\n                /* \"#utility.yul\":2502:2517   */\n              mstore\n                /* \"#utility.yul\":2540:2544   */\n              0x24\n                /* \"#utility.yul\":2537:2538   */\n              0x00\n                /* \"#utility.yul\":2530:2545   */\n              revert\n                /* \"#utility.yul\":2394:2555   */\n            tag_73:\n              pop\n                /* \"#utility.yul\":2181:2561   */\n              swap2\n              swap1\n              pop\n              jump\t// out\n\n            auxdata: 0xa264697066735822122044586c67d0298c72545ae87a9769c2351d624ee2f9fa1b3c64337efc8424ba5d64736f6c634300081a0033\n        }\n    }\n\n    auxdata: 0xa2646970667358221220e16f4fb41e9e65464062dafb666b9539e8799d65d0eb620890d7515259bd448e64736f6c634300081a0033\n}\n",
				"bytecode": {
					"linkReferences": {},
					"object": "6080604052348015600e575f80fd5b50610b1e8061001c5f395ff3fe608060405234801561000f575f80fd5b506004361061003f575f3560e01c80632d82333514610043578063571a26a01461004d5780639507d39a1461007c575b5f80fd5b61004b61008f565b005b61006061005b36600461030b565b61019b565b6040516001600160a01b03909116815260200160405180910390f35b61006061008a36600461030b565b6101c2565b5f54156100d55760405162461bcd60e51b815260206004820152601060248201526f105b1c9958591e4819195c1b1bde595960821b604482015260640160405180910390fd5b60015b601e8111610198575f6100ea826101fb565b6040516020016100fa9190610322565b604051602081830303815290604052604051610115906102fe565b61011f9190610348565b604051809103905ff080158015610138573d5f803e3d5ffd5b505f80546001810182559080527f290decd9548b62a8d60345a988386fc84ba6bc95484008f6362f93160ef3e5630180546001600160a01b0319166001600160a01b0392909216919091179055508061019081610391565b9150506100d8565b50565b5f81815481106101a9575f80fd5b5f918252602090912001546001600160a01b0316905081565b5f805482106101cf575f80fd5b5f82815481106101e1576101e16103a9565b5f918252602090912001546001600160a01b031692915050565b6060815f036102215750506040805180820190915260018152600360fc1b602082015290565b815f5b811561024a578061023481610391565b91506102439050600a836103d1565b9150610224565b5f8167ffffffffffffffff811115610264576102646103e4565b6040519080825280601f01601f19166020018201604052801561028e576020820181803683370190505b5090505b84156102f6576102a3600a866103f8565b6102ae90603061040b565b60f81b816102bb84610424565b935083815181106102ce576102ce6103a9565b60200101906001600160f81b03191690815f1a9053506102ef600a866103d1565b9450610292565b949350505050565b6106af8061043a83390190565b5f6020828403121561031b575f80fd5b5035919050565b634974656d60e01b81525f82518060208501600485015e5f920160040191825250919050565b602081525f82518060208401528060208501604085015e5f604082850101526040601f19601f83011684010191505092915050565b634e487b7160e01b5f52601160045260245ffd5b5f600182016103a2576103a261037d565b5060010190565b634e487b7160e01b5f52603260045260245ffd5b634e487b7160e01b5f52601260045260245ffd5b5f826103df576103df6103bd565b500490565b634e487b7160e01b5f52604160045260245ffd5b5f82610406576104066103bd565b500690565b8082018082111561041e5761041e61037d565b92915050565b5f816104325761043261037d565b505f19019056fe608060405234801561000f575f80fd5b506040516106af3803806106af83398101604081905261002e91610076565b5f61003982826101aa565b50600480546001600160a01b03191633179055610059426203f480610264565b60035550610289565b634e487b7160e01b5f52604160045260245ffd5b5f60208284031215610086575f80fd5b81516001600160401b0381111561009b575f80fd5b8201601f810184136100ab575f80fd5b80516001600160401b038111156100c4576100c4610062565b604051601f8201601f19908116603f011681016001600160401b03811182821017156100f2576100f2610062565b604052818152828201602001861015610109575f80fd5b8160208401602083015e5f91810160200191909152949350505050565b600181811c9082168061013a57607f821691505b60208210810361015857634e487b7160e01b5f52602260045260245ffd5b50919050565b601f8211156101a557805f5260205f20601f840160051c810160208510156101835750805b601f840160051c820191505b818110156101a2575f815560010161018f565b50505b505050565b81516001600160401b038111156101c3576101c3610062565b6101d7816101d18454610126565b8461015e565b6020601f821160018114610209575f83156101f25750848201515b5f19600385901b1c1916600184901b1784556101a2565b5f84815260208120601f198516915b828110156102385787850151825560209485019460019092019101610218565b508482101561025557868401515f19600387901b60f8161c191681555b50505050600190811b01905550565b8082018082111561028357634e487b7160e01b5f52601160045260245ffd5b92915050565b610419806102965f395ff3fe60806040526004361061006e575f3560e01c80634bb278f31161004c5780634bb278f3146100db57806391f90157146100ef578063d57bde791461010e578063f2a4a82e14610123575f80fd5b806308551a53146100725780631998aeef146100ae5780633197cbb6146100b8575b5f80fd5b34801561007d575f80fd5b50600454610091906001600160a01b031681565b6040516001600160a01b0390911681526020015b60405180910390f35b6100b6610144565b005b3480156100c3575f80fd5b506100cd60035481565b6040519081526020016100a5565b3480156100e6575f80fd5b506100b6610229565b3480156100fa575f80fd5b50600154610091906001600160a01b031681565b348015610119575f80fd5b506100cd60025481565b34801561012e575f80fd5b506101376102eb565b6040516100a59190610376565b600354421061018a5760405162461bcd60e51b815260206004820152600d60248201526c105d58dd1a5bdb88195b991959609a1b60448201526064015b60405180910390fd5b60025434116101c55760405162461bcd60e51b8152602060048201526007602482015266131bddc8189a5960ca1b6044820152606401610181565b6001546001600160a01b031615610211576001546002546040516001600160a01b039092169181156108fc0291905f818181858888f1935050505015801561020f573d5f803e3d5ffd5b505b34600255600180546001600160a01b03191633179055565b6003544210156102675760405162461bcd60e51b8152602060048201526009602482015268546f6f206561726c7960b81b6044820152606401610181565b6004546001600160a01b031633146102af5760405162461bcd60e51b815260206004820152600b60248201526a27b7363c9039b2b63632b960a91b6044820152606401610181565b6004546002546040516001600160a01b039092169181156108fc0291905f818181858888f193505050501580156102e8573d5f803e3d5ffd5b50565b5f80546102f7906103ab565b80601f0160208091040260200160405190810160405280929190818152602001828054610323906103ab565b801561036e5780601f106103455761010080835404028352916020019161036e565b820191905f5260205f20905b81548152906001019060200180831161035157829003601f168201915b505050505081565b602081525f82518060208401528060208501604085015e5f604082850101526040601f19601f83011684010191505092915050565b600181811c908216806103bf57607f821691505b6020821081036103dd57634e487b7160e01b5f52602260045260245ffd5b5091905056fea264697066735822122044586c67d0298c72545ae87a9769c2351d624ee2f9fa1b3c64337efc8424ba5d64736f6c634300081a0033a2646970667358221220e16f4fb41e9e65464062dafb666b9539e8799d65d0eb620890d7515259bd448e64736f6c634300081a0033",
					"opcodes": "PUSH1 0x80 PUSH1 0x40 MSTORE CALLVALUE DUP1 ISZERO PUSH1 0xE JUMPI PUSH0 DUP1 REVERT JUMPDEST POP PUSH2 0xB1E DUP1 PUSH2 0x1C PUSH0 CODECOPY PUSH0 RETURN INVALID PUSH1 0x80 PUSH1 0x40 MSTORE CALLVALUE DUP1 ISZERO PUSH2 0xF JUMPI PUSH0 DUP1 REVERT JUMPDEST POP PUSH1 0x4 CALLDATASIZE LT PUSH2 0x3F JUMPI PUSH0 CALLDATALOAD PUSH1 0xE0 SHR DUP1 PUSH4 0x2D823335 EQ PUSH2 0x43 JUMPI DUP1 PUSH4 0x571A26A0 EQ PUSH2 0x4D JUMPI DUP1 PUSH4 0x9507D39A EQ PUSH2 0x7C JUMPI JUMPDEST PUSH0 DUP1 REVERT JUMPDEST PUSH2 0x4B PUSH2 0x8F JUMP JUMPDEST STOP JUMPDEST PUSH2 0x60 PUSH2 0x5B CALLDATASIZE PUSH1 0x4 PUSH2 0x30B JUMP JUMPDEST PUSH2 0x19B JUMP JUMPDEST PUSH1 0x40 MLOAD PUSH1 0x1 PUSH1 0x1 PUSH1 0xA0 SHL SUB SWAP1 SWAP2 AND DUP2 MSTORE PUSH1 0x20 ADD PUSH1 0x40 MLOAD DUP1 SWAP2 SUB SWAP1 RETURN JUMPDEST PUSH2 0x60 PUSH2 0x8A CALLDATASIZE PUSH1 0x4 PUSH2 0x30B JUMP JUMPDEST PUSH2 0x1C2 JUMP JUMPDEST PUSH0 SLOAD ISZERO PUSH2 0xD5 JUMPI PUSH1 0x40 MLOAD PUSH3 0x461BCD PUSH1 0xE5 SHL DUP2 MSTORE PUSH1 0x20 PUSH1 0x4 DUP3 ADD MSTORE PUSH1 0x10 PUSH1 0x24 DUP3 ADD MSTORE PUSH16 0x105B1C9958591E4819195C1B1BDE5959 PUSH1 0x82 SHL PUSH1 0x44 DUP3 ADD MSTORE PUSH1 0x64 ADD PUSH1 0x40 MLOAD DUP1 SWAP2 SUB SWAP1 REVERT JUMPDEST PUSH1 0x1 JUMPDEST PUSH1 0x1E DUP2 GT PUSH2 0x198 JUMPI PUSH0 PUSH2 0xEA DUP3 PUSH2 0x1FB JUMP JUMPDEST PUSH1 0x40 MLOAD PUSH1 0x20 ADD PUSH2 0xFA SWAP2 SWAP1 PUSH2 0x322 JUMP JUMPDEST PUSH1 0x40 MLOAD PUSH1 0x20 DUP2 DUP4 SUB SUB DUP2 MSTORE SWAP1 PUSH1 0x40 MSTORE PUSH1 0x40 MLOAD PUSH2 0x115 SWAP1 PUSH2 0x2FE JUMP JUMPDEST PUSH2 0x11F SWAP2 SWAP1 PUSH2 0x348 JUMP JUMPDEST PUSH1 0x40 MLOAD DUP1 SWAP2 SUB SWAP1 PUSH0 CREATE DUP1 ISZERO DUP1 ISZERO PUSH2 0x138 JUMPI RETURNDATASIZE PUSH0 DUP1 RETURNDATACOPY RETURNDATASIZE PUSH0 REVERT JUMPDEST POP PUSH0 DUP1 SLOAD PUSH1 0x1 DUP2 ADD DUP3 SSTORE SWAP1 DUP1 MSTORE PUSH32 0x290DECD9548B62A8D60345A988386FC84BA6BC95484008F6362F93160EF3E563 ADD DUP1 SLOAD PUSH1 0x1 PUSH1 0x1 PUSH1 0xA0 SHL SUB NOT AND PUSH1 0x1 PUSH1 0x1 PUSH1 0xA0 SHL SUB SWAP3 SWAP1 SWAP3 AND SWAP2 SWAP1 SWAP2 OR SWAP1 SSTORE POP DUP1 PUSH2 0x190 DUP2 PUSH2 0x391 JUMP JUMPDEST SWAP2 POP POP PUSH2 0xD8 JUMP JUMPDEST POP JUMP JUMPDEST PUSH0 DUP2 DUP2 SLOAD DUP2 LT PUSH2 0x1A9 JUMPI PUSH0 DUP1 REVERT JUMPDEST PUSH0 SWAP2 DUP3 MSTORE PUSH1 0x20 SWAP1 SWAP2 KECCAK256 ADD SLOAD PUSH1 0x1 PUSH1 0x1 PUSH1 0xA0 SHL SUB AND SWAP1 POP DUP2 JUMP JUMPDEST PUSH0 DUP1 SLOAD DUP3 LT PUSH2 0x1CF JUMPI PUSH0 DUP1 REVERT JUMPDEST PUSH0 DUP3 DUP2 SLOAD DUP2 LT PUSH2 0x1E1 JUMPI PUSH2 0x1E1 PUSH2 0x3A9 JUMP JUMPDEST PUSH0 SWAP2 DUP3 MSTORE PUSH1 0x20 SWAP1 SWAP2 KECCAK256 ADD SLOAD PUSH1 0x1 PUSH1 0x1 PUSH1 0xA0 SHL SUB AND SWAP3 SWAP2 POP POP JUMP JUMPDEST PUSH1 0x60 DUP2 PUSH0 SUB PUSH2 0x221 JUMPI POP POP PUSH1 0x40 DUP1 MLOAD DUP1 DUP3 ADD SWAP1 SWAP2 MSTORE PUSH1 0x1 DUP2 MSTORE PUSH1 0x3 PUSH1 0xFC SHL PUSH1 0x20 DUP3 ADD MSTORE SWAP1 JUMP JUMPDEST DUP2 PUSH0 JUMPDEST DUP2 ISZERO PUSH2 0x24A JUMPI DUP1 PUSH2 0x234 DUP2 PUSH2 0x391 JUMP JUMPDEST SWAP2 POP PUSH2 0x243 SWAP1 POP PUSH1 0xA DUP4 PUSH2 0x3D1 JUMP JUMPDEST SWAP2 POP PUSH2 0x224 JUMP JUMPDEST PUSH0 DUP2 PUSH8 0xFFFFFFFFFFFFFFFF DUP2 GT ISZERO PUSH2 0x264 JUMPI PUSH2 0x264 PUSH2 0x3E4 JUMP JUMPDEST PUSH1 0x40 MLOAD SWAP1 DUP1 DUP3 MSTORE DUP1 PUSH1 0x1F ADD PUSH1 0x1F NOT AND PUSH1 0x20 ADD DUP3 ADD PUSH1 0x40 MSTORE DUP1 ISZERO PUSH2 0x28E JUMPI PUSH1 0x20 DUP3 ADD DUP2 DUP1 CALLDATASIZE DUP4 CALLDATACOPY ADD SWAP1 POP JUMPDEST POP SWAP1 POP JUMPDEST DUP5 ISZERO PUSH2 0x2F6 JUMPI PUSH2 0x2A3 PUSH1 0xA DUP7 PUSH2 0x3F8 JUMP JUMPDEST PUSH2 0x2AE SWAP1 PUSH1 0x30 PUSH2 0x40B JUMP JUMPDEST PUSH1 0xF8 SHL DUP2 PUSH2 0x2BB DUP5 PUSH2 0x424 JUMP JUMPDEST SWAP4 POP DUP4 DUP2 MLOAD DUP2 LT PUSH2 0x2CE JUMPI PUSH2 0x2CE PUSH2 0x3A9 JUMP JUMPDEST PUSH1 0x20 ADD ADD SWAP1 PUSH1 0x1 PUSH1 0x1 PUSH1 0xF8 SHL SUB NOT AND SWAP1 DUP2 PUSH0 BYTE SWAP1 MSTORE8 POP PUSH2 0x2EF PUSH1 0xA DUP7 PUSH2 0x3D1 JUMP JUMPDEST SWAP5 POP PUSH2 0x292 JUMP JUMPDEST SWAP5 SWAP4 POP POP POP POP JUMP JUMPDEST PUSH2 0x6AF DUP1 PUSH2 0x43A DUP4 CODECOPY ADD SWAP1 JUMP JUMPDEST PUSH0 PUSH1 0x20 DUP3 DUP5 SUB SLT ISZERO PUSH2 0x31B JUMPI PUSH0 DUP1 REVERT JUMPDEST POP CALLDATALOAD SWAP2 SWAP1 POP JUMP JUMPDEST PUSH4 0x4974656D PUSH1 0xE0 SHL DUP2 MSTORE PUSH0 DUP3 MLOAD DUP1 PUSH1 0x20 DUP6 ADD PUSH1 0x4 DUP6 ADD MCOPY PUSH0 SWAP3 ADD PUSH1 0x4 ADD SWAP2 DUP3 MSTORE POP SWAP2 SWAP1 POP JUMP JUMPDEST PUSH1 0x20 DUP2 MSTORE PUSH0 DUP3 MLOAD DUP1 PUSH1 0x20 DUP5 ADD MSTORE DUP1 PUSH1 0x20 DUP6 ADD PUSH1 0x40 DUP6 ADD MCOPY PUSH0 PUSH1 0x40 DUP3 DUP6 ADD ADD MSTORE PUSH1 0x40 PUSH1 0x1F NOT PUSH1 0x1F DUP4 ADD AND DUP5 ADD ADD SWAP2 POP POP SWAP3 SWAP2 POP POP JUMP JUMPDEST PUSH4 0x4E487B71 PUSH1 0xE0 SHL PUSH0 MSTORE PUSH1 0x11 PUSH1 0x4 MSTORE PUSH1 0x24 PUSH0 REVERT JUMPDEST PUSH0 PUSH1 0x1 DUP3 ADD PUSH2 0x3A2 JUMPI PUSH2 0x3A2 PUSH2 0x37D JUMP JUMPDEST POP PUSH1 0x1 ADD SWAP1 JUMP JUMPDEST PUSH4 0x4E487B71 PUSH1 0xE0 SHL PUSH0 MSTORE PUSH1 0x32 PUSH1 0x4 MSTORE PUSH1 0x24 PUSH0 REVERT JUMPDEST PUSH4 0x4E487B71 PUSH1 0xE0 SHL PUSH0 MSTORE PUSH1 0x12 PUSH1 0x4 MSTORE PUSH1 0x24 PUSH0 REVERT JUMPDEST PUSH0 DUP3 PUSH2 0x3DF JUMPI PUSH2 0x3DF PUSH2 0x3BD JUMP JUMPDEST POP DIV SWAP1 JUMP JUMPDEST PUSH4 0x4E487B71 PUSH1 0xE0 SHL PUSH0 MSTORE PUSH1 0x41 PUSH1 0x4 MSTORE PUSH1 0x24 PUSH0 REVERT JUMPDEST PUSH0 DUP3 PUSH2 0x406 JUMPI PUSH2 0x406 PUSH2 0x3BD JUMP JUMPDEST POP MOD SWAP1 JUMP JUMPDEST DUP1 DUP3 ADD DUP1 DUP3 GT ISZERO PUSH2 0x41E JUMPI PUSH2 0x41E PUSH2 0x37D JUMP JUMPDEST SWAP3 SWAP2 POP POP JUMP JUMPDEST PUSH0 DUP2 PUSH2 0x432 JUMPI PUSH2 0x432 PUSH2 0x37D JUMP JUMPDEST POP PUSH0 NOT ADD SWAP1 JUMP INVALID PUSH1 0x80 PUSH1 0x40 MSTORE CALLVALUE DUP1 ISZERO PUSH2 0xF JUMPI PUSH0 DUP1 REVERT JUMPDEST POP PUSH1 0x40 MLOAD PUSH2 0x6AF CODESIZE SUB DUP1 PUSH2 0x6AF DUP4 CODECOPY DUP2 ADD PUSH1 0x40 DUP2 SWAP1 MSTORE PUSH2 0x2E SWAP2 PUSH2 0x76 JUMP JUMPDEST PUSH0 PUSH2 0x39 DUP3 DUP3 PUSH2 0x1AA JUMP JUMPDEST POP PUSH1 0x4 DUP1 SLOAD PUSH1 0x1 PUSH1 0x1 PUSH1 0xA0 SHL SUB NOT AND CALLER OR SWAP1 SSTORE PUSH2 0x59 TIMESTAMP PUSH3 0x3F480 PUSH2 0x264 JUMP JUMPDEST PUSH1 0x3 SSTORE POP PUSH2 0x289 JUMP JUMPDEST PUSH4 0x4E487B71 PUSH1 0xE0 SHL PUSH0 MSTORE PUSH1 0x41 PUSH1 0x4 MSTORE PUSH1 0x24 PUSH0 REVERT JUMPDEST PUSH0 PUSH1 0x20 DUP3 DUP5 SUB SLT ISZERO PUSH2 0x86 JUMPI PUSH0 DUP1 REVERT JUMPDEST DUP2 MLOAD PUSH1 0x1 PUSH1 0x1 PUSH1 0x40 SHL SUB DUP2 GT ISZERO PUSH2 0x9B JUMPI PUSH0 DUP1 REVERT JUMPDEST DUP3 ADD PUSH1 0x1F DUP2 ADD DUP5 SGT PUSH2 0xAB JUMPI PUSH0 DUP1 REVERT JUMPDEST DUP1 MLOAD PUSH1 0x1 PUSH1 0x1 PUSH1 0x40 SHL SUB DUP2 GT ISZERO PUSH2 0xC4 JUMPI PUSH2 0xC4 PUSH2 0x62 JUMP JUMPDEST PUSH1 0x40 MLOAD PUSH1 0x1F DUP3 ADD PUSH1 0x1F NOT SWAP1 DUP2 AND PUSH1 0x3F ADD AND DUP2 ADD PUSH1 0x1 PUSH1 0x1 PUSH1 0x40 SHL SUB DUP2 GT DUP3 DUP3 LT OR ISZERO PUSH2 0xF2 JUMPI PUSH2 0xF2 PUSH2 0x62 JUMP JUMPDEST PUSH1 0x40 MSTORE DUP2 DUP2 MSTORE DUP3 DUP3 ADD PUSH1 0x20 ADD DUP7 LT ISZERO PUSH2 0x109 JUMPI PUSH0 DUP1 REVERT JUMPDEST DUP2 PUSH1 0x20 DUP5 ADD PUSH1 0x20 DUP4 ADD MCOPY PUSH0 SWAP2 DUP2 ADD PUSH1 0x20 ADD SWAP2 SWAP1 SWAP2 MSTORE SWAP5 SWAP4 POP POP POP POP JUMP JUMPDEST PUSH1 0x1 DUP2 DUP2 SHR SWAP1 DUP3 AND DUP1 PUSH2 0x13A JUMPI PUSH1 0x7F DUP3 AND SWAP2 POP JUMPDEST PUSH1 0x20 DUP3 LT DUP2 SUB PUSH2 0x158 JUMPI PUSH4 0x4E487B71 PUSH1 0xE0 SHL PUSH0 MSTORE PUSH1 0x22 PUSH1 0x4 MSTORE PUSH1 0x24 PUSH0 REVERT JUMPDEST POP SWAP2 SWAP1 POP JUMP JUMPDEST PUSH1 0x1F DUP3 GT ISZERO PUSH2 0x1A5 JUMPI DUP1 PUSH0 MSTORE PUSH1 0x20 PUSH0 KECCAK256 PUSH1 0x1F DUP5 ADD PUSH1 0x5 SHR DUP2 ADD PUSH1 0x20 DUP6 LT ISZERO PUSH2 0x183 JUMPI POP DUP1 JUMPDEST PUSH1 0x1F DUP5 ADD PUSH1 0x5 SHR DUP3 ADD SWAP2 POP JUMPDEST DUP2 DUP2 LT ISZERO PUSH2 0x1A2 JUMPI PUSH0 DUP2 SSTORE PUSH1 0x1 ADD PUSH2 0x18F JUMP JUMPDEST POP POP JUMPDEST POP POP POP JUMP JUMPDEST DUP2 MLOAD PUSH1 0x1 PUSH1 0x1 PUSH1 0x40 SHL SUB DUP2 GT ISZERO PUSH2 0x1C3 JUMPI PUSH2 0x1C3 PUSH2 0x62 JUMP JUMPDEST PUSH2 0x1D7 DUP2 PUSH2 0x1D1 DUP5 SLOAD PUSH2 0x126 JUMP JUMPDEST DUP5 PUSH2 0x15E JUMP JUMPDEST PUSH1 0x20 PUSH1 0x1F DUP3 GT PUSH1 0x1 DUP2 EQ PUSH2 0x209 JUMPI PUSH0 DUP4 ISZERO PUSH2 0x1F2 JUMPI POP DUP5 DUP3 ADD MLOAD JUMPDEST PUSH0 NOT PUSH1 0x3 DUP6 SWAP1 SHL SHR NOT AND PUSH1 0x1 DUP5 SWAP1 SHL OR DUP5 SSTORE PUSH2 0x1A2 JUMP JUMPDEST PUSH0 DUP5 DUP2 MSTORE PUSH1 0x20 DUP2 KECCAK256 PUSH1 0x1F NOT DUP6 AND SWAP2 JUMPDEST DUP3 DUP2 LT ISZERO PUSH2 0x238 JUMPI DUP8 DUP6 ADD MLOAD DUP3 SSTORE PUSH1 0x20 SWAP5 DUP6 ADD SWAP5 PUSH1 0x1 SWAP1 SWAP3 ADD SWAP2 ADD PUSH2 0x218 JUMP JUMPDEST POP DUP5 DUP3 LT ISZERO PUSH2 0x255 JUMPI DUP7 DUP5 ADD MLOAD PUSH0 NOT PUSH1 0x3 DUP8 SWAP1 SHL PUSH1 0xF8 AND SHR NOT AND DUP2 SSTORE JUMPDEST POP POP POP POP PUSH1 0x1 SWAP1 DUP2 SHL ADD SWAP1 SSTORE POP JUMP JUMPDEST DUP1 DUP3 ADD DUP1 DUP3 GT ISZERO PUSH2 0x283 JUMPI PUSH4 0x4E487B71 PUSH1 0xE0 SHL PUSH0 MSTORE PUSH1 0x11 PUSH1 0x4 MSTORE PUSH1 0x24 PUSH0 REVERT JUMPDEST SWAP3 SWAP2 POP POP JUMP JUMPDEST PUSH2 0x419 DUP1 PUSH2 0x296 PUSH0 CODECOPY PUSH0 RETURN INVALID PUSH1 0x80 PUSH1 0x40 MSTORE PUSH1 0x4 CALLDATASIZE LT PUSH2 0x6E JUMPI PUSH0 CALLDATALOAD PUSH1 0xE0 SHR DUP1 PUSH4 0x4BB278F3 GT PUSH2 0x4C JUMPI DUP1 PUSH4 0x4BB278F3 EQ PUSH2 0xDB JUMPI DUP1 PUSH4 0x91F90157 EQ PUSH2 0xEF JUMPI DUP1 PUSH4 0xD57BDE79 EQ PUSH2 0x10E JUMPI DUP1 PUSH4 0xF2A4A82E EQ PUSH2 0x123 JUMPI PUSH0 DUP1 REVERT JUMPDEST DUP1 PUSH4 0x8551A53 EQ PUSH2 0x72 JUMPI DUP1 PUSH4 0x1998AEEF EQ PUSH2 0xAE JUMPI DUP1 PUSH4 0x3197CBB6 EQ PUSH2 0xB8 JUMPI JUMPDEST PUSH0 DUP1 REVERT JUMPDEST CALLVALUE DUP1 ISZERO PUSH2 0x7D JUMPI PUSH0 DUP1 REVERT JUMPDEST POP PUSH1 0x4 SLOAD PUSH2 0x91 SWAP1 PUSH1 0x1 PUSH1 0x1 PUSH1 0xA0 SHL SUB AND DUP2 JUMP JUMPDEST PUSH1 0x40 MLOAD PUSH1 0x1 PUSH1 0x1 PUSH1 0xA0 SHL SUB SWAP1 SWAP2 AND DUP2 MSTORE PUSH1 0x20 ADD JUMPDEST PUSH1 0x40 MLOAD DUP1 SWAP2 SUB SWAP1 RETURN JUMPDEST PUSH2 0xB6 PUSH2 0x144 JUMP JUMPDEST STOP JUMPDEST CALLVALUE DUP1 ISZERO PUSH2 0xC3 JUMPI PUSH0 DUP1 REVERT JUMPDEST POP PUSH2 0xCD PUSH1 0x3 SLOAD DUP2 JUMP JUMPDEST PUSH1 0x40 MLOAD SWAP1 DUP2 MSTORE PUSH1 0x20 ADD PUSH2 0xA5 JUMP JUMPDEST CALLVALUE DUP1 ISZERO PUSH2 0xE6 JUMPI PUSH0 DUP1 REVERT JUMPDEST POP PUSH2 0xB6 PUSH2 0x229 JUMP JUMPDEST CALLVALUE DUP1 ISZERO PUSH2 0xFA JUMPI PUSH0 DUP1 REVERT JUMPDEST POP PUSH1 0x1 SLOAD PUSH2 0x91 SWAP1 PUSH1 0x1 PUSH1 0x1 PUSH1 0xA0 SHL SUB AND DUP2 JUMP JUMPDEST CALLVALUE DUP1 ISZERO PUSH2 0x119 JUMPI PUSH0 DUP1 REVERT JUMPDEST POP PUSH2 0xCD PUSH1 0x2 SLOAD DUP2 JUMP JUMPDEST CALLVALUE DUP1 ISZERO PUSH2 0x12E JUMPI PUSH0 DUP1 REVERT JUMPDEST POP PUSH2 0x137 PUSH2 0x2EB JUMP JUMPDEST PUSH1 0x40 MLOAD PUSH2 0xA5 SWAP2 SWAP1 PUSH2 0x376 JUMP JUMPDEST PUSH1 0x3 SLOAD TIMESTAMP LT PUSH2 0x18A JUMPI PUSH1 0x40 MLOAD PUSH3 0x461BCD PUSH1 0xE5 SHL DUP2 MSTORE PUSH1 0x20 PUSH1 0x4 DUP3 ADD MSTORE PUSH1 0xD PUSH1 0x24 DUP3 ADD MSTORE PUSH13 0x105D58DD1A5BDB88195B991959 PUSH1 0x9A SHL PUSH1 0x44 DUP3 ADD MSTORE PUSH1 0x64 ADD JUMPDEST PUSH1 0x40 MLOAD DUP1 SWAP2 SUB SWAP1 REVERT JUMPDEST PUSH1 0x2 SLOAD CALLVALUE GT PUSH2 0x1C5 JUMPI PUSH1 0x40 MLOAD PUSH3 0x461BCD PUSH1 0xE5 SHL DUP2 MSTORE PUSH1 0x20 PUSH1 0x4 DUP3 ADD MSTORE PUSH1 0x7 PUSH1 0x24 DUP3 ADD MSTORE PUSH7 0x131BDDC8189A59 PUSH1 0xCA SHL PUSH1 0x44 DUP3 ADD MSTORE PUSH1 0x64 ADD PUSH2 0x181 JUMP JUMPDEST PUSH1 0x1 SLOAD PUSH1 0x1 PUSH1 0x1 PUSH1 0xA0 SHL SUB AND ISZERO PUSH2 0x211 JUMPI PUSH1 0x1 SLOAD PUSH1 0x2 SLOAD PUSH1 0x40 MLOAD PUSH1 0x1 PUSH1 0x1 PUSH1 0xA0 SHL SUB SWAP1 SWAP3 AND SWAP2 DUP2 ISZERO PUSH2 0x8FC MUL SWAP2 SWAP1 PUSH0 DUP2 DUP2 DUP2 DUP6 DUP9 DUP9 CALL SWAP4 POP POP POP POP ISZERO DUP1 ISZERO PUSH2 0x20F JUMPI RETURNDATASIZE PUSH0 DUP1 RETURNDATACOPY RETURNDATASIZE PUSH0 REVERT JUMPDEST POP JUMPDEST CALLVALUE PUSH1 0x2 SSTORE PUSH1 0x1 DUP1 SLOAD PUSH1 0x1 PUSH1 0x1 PUSH1 0xA0 SHL SUB NOT AND CALLER OR SWAP1 SSTORE JUMP JUMPDEST PUSH1 0x3 SLOAD TIMESTAMP LT ISZERO PUSH2 0x267 JUMPI PUSH1 0x40 MLOAD PUSH3 0x461BCD PUSH1 0xE5 SHL DUP2 MSTORE PUSH1 0x20 PUSH1 0x4 DUP3 ADD MSTORE PUSH1 0x9 PUSH1 0x24 DUP3 ADD MSTORE PUSH9 0x546F6F206561726C79 PUSH1 0xB8 SHL PUSH1 0x44 DUP3 ADD MSTORE PUSH1 0x64 ADD PUSH2 0x181 JUMP JUMPDEST PUSH1 0x4 SLOAD PUSH1 0x1 PUSH1 0x1 PUSH1 0xA0 SHL SUB AND CALLER EQ PUSH2 0x2AF JUMPI PUSH1 0x40 MLOAD PUSH3 0x461BCD PUSH1 0xE5 SHL DUP2 MSTORE PUSH1 0x20 PUSH1 0x4 DUP3 ADD MSTORE PUSH1 0xB PUSH1 0x24 DUP3 ADD MSTORE PUSH11 0x27B7363C9039B2B63632B9 PUSH1 0xA9 SHL PUSH1 0x44 DUP3 ADD MSTORE PUSH1 0x64 ADD PUSH2 0x181 JUMP JUMPDEST PUSH1 0x4 SLOAD PUSH1 0x2 SLOAD PUSH1 0x40 MLOAD PUSH1 0x1 PUSH1 0x1 PUSH1 0xA0 SHL SUB SWAP1 SWAP3 AND SWAP2 DUP2 ISZERO PUSH2 0x8FC MUL SWAP2 SWAP1 PUSH0 DUP2 DUP2 DUP2 DUP6 DUP9 DUP9 CALL SWAP4 POP POP POP POP ISZERO DUP1 ISZERO PUSH2 0x2E8 JUMPI RETURNDATASIZE PUSH0 DUP1 RETURNDATACOPY RETURNDATASIZE PUSH0 REVERT JUMPDEST POP JUMP JUMPDEST PUSH0 DUP1 SLOAD PUSH2 0x2F7 SWAP1 PUSH2 0x3AB JUMP JUMPDEST DUP1 PUSH1 0x1F ADD PUSH1 0x20 DUP1 SWAP2 DIV MUL PUSH1 0x20 ADD PUSH1 0x40 MLOAD SWAP1 DUP2 ADD PUSH1 0x40 MSTORE DUP1 SWAP3 SWAP2 SWAP1 DUP2 DUP2 MSTORE PUSH1 0x20 ADD DUP3 DUP1 SLOAD PUSH2 0x323 SWAP1 PUSH2 0x3AB JUMP JUMPDEST DUP1 ISZERO PUSH2 0x36E JUMPI DUP1 PUSH1 0x1F LT PUSH2 0x345 JUMPI PUSH2 0x100 DUP1 DUP4 SLOAD DIV MUL DUP4 MSTORE SWAP2 PUSH1 0x20 ADD SWAP2 PUSH2 0x36E JUMP JUMPDEST DUP3 ADD SWAP2 SWAP1 PUSH0 MSTORE PUSH1 0x20 PUSH0 KECCAK256 SWAP1 JUMPDEST DUP2 SLOAD DUP2 MSTORE SWAP1 PUSH1 0x1 ADD SWAP1 PUSH1 0x20 ADD DUP1 DUP4 GT PUSH2 0x351 JUMPI DUP3 SWAP1 SUB PUSH1 0x1F AND DUP3 ADD SWAP2 JUMPDEST POP POP POP POP POP DUP2 JUMP JUMPDEST PUSH1 0x20 DUP2 MSTORE PUSH0 DUP3 MLOAD DUP1 PUSH1 0x20 DUP5 ADD MSTORE DUP1 PUSH1 0x20 DUP6 ADD PUSH1 0x40 DUP6 ADD MCOPY PUSH0 PUSH1 0x40 DUP3 DUP6 ADD ADD MSTORE PUSH1 0x40 PUSH1 0x1F NOT PUSH1 0x1F DUP4 ADD AND DUP5 ADD ADD SWAP2 POP POP SWAP3 SWAP2 POP POP JUMP JUMPDEST PUSH1 0x1 DUP2 DUP2 SHR SWAP1 DUP3 AND DUP1 PUSH2 0x3BF JUMPI PUSH1 0x7F DUP3 AND SWAP2 POP JUMPDEST PUSH1 0x20 DUP3 LT DUP2 SUB PUSH2 0x3DD JUMPI PUSH4 0x4E487B71 PUSH1 0xE0 SHL PUSH0 MSTORE PUSH1 0x22 PUSH1 0x4 MSTORE PUSH1 0x24 PUSH0 REVERT JUMPDEST POP SWAP2 SWAP1 POP JUMP INVALID LOG2 PUSH5 0x6970667358 0x22 SLT KECCAK256 PREVRANDAO PC PUSH13 0x67D0298C72545AE87A9769C235 SAR PUSH3 0x4EE2F9 STATICCALL SHL EXTCODECOPY PUSH5 0x337EFC8424 0xBA TSTORE PUSH5 0x736F6C6343 STOP ADDMOD BYTE STOP CALLER LOG2 PUSH5 0x6970667358 0x22 SLT KECCAK256 0xE1 PUSH16 0x4FB41E9E65464062DAFB666B9539E879 SWAP14 PUSH6 0xD0EB620890D7 MLOAD MSTORE MSIZE 0xBD PREVRANDAO DUP15 PUSH5 0x736F6C6343 STOP ADDMOD BYTE STOP CALLER "
				},
				"gasEstimates": {
					"creation": {
						"codeDepositCost": "569200",
						"executionCost": "598",
						"totalCost": "569798"
					},
					"external": {
						"auctions(uint256)": "4598",
						"deployAll()": "infinite",
						"get(uint256)": "6747"
					},
					"internal": {
						"uint2str(uint256)": "infinite"
					}
				},
				"methodIdentifiers": {
					"auctions(uint256)": "571a26a0",
					"deployAll()": "2d823335",
					"get(uint256)": "9507d39a"
				}
			},
			"storageLayout": {
				"storage": [
					{
						"astId": 112,
						"contract": "auctioncontract.sol:Deploy30Auctions",
						"label": "auctions",
						"offset": 0,
						"slot": "0",
						"type": "t_array(t_contract(Auction)108)dyn_storage"
					}
				],
				"types": {
					"t_array(t_contract(Auction)108)dyn_storage": {
						"base": "t_contract(Auction)108",
						"encoding": "dynamic_array",
						"label": "contract Auction[]",
						"numberOfBytes": "32"
					},
					"t_contract(Auction)108": {
						"encoding": "inplace",
						"label": "contract Auction",
						"numberOfBytes": "20"
					}
				}
			},
			"userdoc": {
				"kind": "user",
				"methods": {},
				"version": 1
			}
		}
	}
}