{
	"newbatch.sol": {
		"Vote": {
			"abi": [
				{
					"inputs": [
						{
							"internalType": "string",
							"name": "_title",
							"type": "string"
						}
					],
					"stateMutability": "nonpayable",
					"type": "constructor"
				},
				{
					"inputs": [],
					"name": "creator",
					"outputs": [
						{
							"internalType": "address",
							"name": "",
							"type": "address"
						}
					],
					"stateMutability": "view",
					"type": "function"
				},
				{
					"inputs": [],
					"name": "getVotes",
					"outputs": [
						{
							"internalType": "uint256",
							"name": "yes",
							"type": "uint256"
						},
						{
							"internalType": "uint256",
							"name": "no",
							"type": "uint256"
						}
					],
					"stateMutability": "view",
					"type": "function"
				},
				{
					"inputs": [
						{
							"internalType": "address",
							"name": "",
							"type": "address"
						}
					],
					"name": "hasVoted",
					"outputs": [
						{
							"internalType": "bool",
							"name": "",
							"type": "bool"
						}
					],
					"stateMutability": "view",
					"type": "function"
				},
				{
					"inputs": [],
					"name": "noVotes",
					"outputs": [
						{
							"internalType": "uint256",
							"name": "",
							"type": "uint256"
						}
					],
					"stateMutability": "view",
					"type": "function"
				},
				{
					"inputs": [],
					"name": "title",
					"outputs": [
						{
							"internalType": "string",
							"name": "",
							"type": "string"
						}
					],
					"stateMutability": "view",
					"type": "function"
				},
				{
					"inputs": [
						{
							"internalType": "bool",
							"name": "_yes",
							"type": "bool"
						}
					],
					"name": "vote",
					"outputs": [],
					"stateMutability": "nonpayable",
					"type": "function"
				},
				{
					"inputs": [],
					"name": "yesVotes",
					"outputs": [
						{
							"internalType": "uint256",
							"name": "",
							"type": "uint256"
						}
					],
					"stateMutability": "view",
					"type": "function"
				}
			],
			"devdoc": {
				"kind": "dev",
				"methods": {},
				"version": 1
			},
			"evm": {
				"assembly": "    /* \"newbatch.sol\":61:698  contract Vote {... */\n  mstore(0x40, 0x80)\n    /* \"newbatch.sol\":239:337  constructor(string memory _title) {... */\n  callvalue\n  dup1\n  iszero\n  tag_1\n  jumpi\n  0x00\n  dup1\n  revert\ntag_1:\n  pop\n  mload(0x40)\n  sub(codesize, bytecodeSize)\n  dup1\n  bytecodeSize\n  dup4\n  codecopy\n  dup2\n  add\n  0x40\n  dup2\n  swap1\n  mstore\n  tag_2\n  swap2\n  tag_3\n  jump\t// in\ntag_2:\n    /* \"newbatch.sol\":284:289  title */\n  0x00\n    /* \"newbatch.sol\":284:298  title = _title */\n  tag_6\n    /* \"newbatch.sol\":292:298  _title */\n  dup3\n    /* \"newbatch.sol\":284:289  title */\n  dup3\n    /* \"newbatch.sol\":284:298  title = _title */\n  tag_7\n  jump\t// in\ntag_6:\n  pop\n  pop\n    /* \"newbatch.sol\":309:316  creator */\n  0x01\n    /* \"newbatch.sol\":309:329  creator = msg.sender */\n  dup1\n  sload\n  not(sub(shl(0xa0, 0x01), 0x01))\n  and\n    /* \"newbatch.sol\":319:329  msg.sender */\n  caller\n    /* \"newbatch.sol\":309:329  creator = msg.sender */\n  or\n  swap1\n  sstore\n    /* \"newbatch.sol\":61:698  contract Vote {... */\n  jump(tag_14)\n    /* \"#utility.yul\":14:141   */\ntag_9:\n    /* \"#utility.yul\":75:85   */\n  0x4e487b71\n    /* \"#utility.yul\":70:73   */\n  0xe0\n    /* \"#utility.yul\":66:86   */\n  shl\n    /* \"#utility.yul\":63:64   */\n  0x00\n    /* \"#utility.yul\":56:87   */\n  mstore\n    /* \"#utility.yul\":106:110   */\n  0x41\n    /* \"#utility.yul\":103:104   */\n  0x04\n    /* \"#utility.yul\":96:111   */\n  mstore\n    /* \"#utility.yul\":130:134   */\n  0x24\n    /* \"#utility.yul\":127:128   */\n  0x00\n    /* \"#utility.yul\":120:135   */\n  revert\n    /* \"#utility.yul\":146:1081   */\ntag_3:\n    /* \"#utility.yul\":226:232   */\n  0x00\n    /* \"#utility.yul\":279:281   */\n  0x20\n    /* \"#utility.yul\":267:276   */\n  dup3\n    /* \"#utility.yul\":258:265   */\n  dup5\n    /* \"#utility.yul\":254:277   */\n  sub\n    /* \"#utility.yul\":250:282   */\n  slt\n    /* \"#utility.yul\":247:299   */\n  iszero\n  tag_17\n  jumpi\n    /* \"#utility.yul\":295:296   */\n  0x00\n    /* \"#utility.yul\":292:293   */\n  dup1\n    /* \"#utility.yul\":285:297   */\n  revert\n    /* \"#utility.yul\":247:299   */\ntag_17:\n    /* \"#utility.yul\":322:338   */\n  dup2\n  mload\n  sub(shl(0x40, 0x01), 0x01)\n    /* \"#utility.yul\":350:380   */\n  dup2\n  gt\n    /* \"#utility.yul\":347:397   */\n  iszero\n  tag_18\n  jumpi\n    /* \"#utility.yul\":393:394   */\n  0x00\n    /* \"#utility.yul\":390:391   */\n  dup1\n    /* \"#utility.yul\":383:395   */\n  revert\n    /* \"#utility.yul\":347:397   */\ntag_18:\n    /* \"#utility.yul\":416:438   */\n  dup3\n  add\n    /* \"#utility.yul\":469:473   */\n  0x1f\n    /* \"#utility.yul\":461:474   */\n  dup2\n  add\n    /* \"#utility.yul\":457:484   */\n  dup5\n  sgt\n    /* \"#utility.yul\":447:502   */\n  tag_19\n  jumpi\n    /* \"#utility.yul\":498:499   */\n  0x00\n    /* \"#utility.yul\":495:496   */\n  dup1\n    /* \"#utility.yul\":488:500   */\n  revert\n    /* \"#utility.yul\":447:502   */\ntag_19:\n    /* \"#utility.yul\":525:534   */\n  dup1\n  mload\n  sub(shl(0x40, 0x01), 0x01)\n    /* \"#utility.yul\":546:576   */\n  dup2\n  gt\n    /* \"#utility.yul\":543:599   */\n  iszero\n  tag_21\n  jumpi\n    /* \"#utility.yul\":579:597   */\n  tag_21\n  tag_9\n  jump\t// in\ntag_21:\n    /* \"#utility.yul\":628:630   */\n  0x40\n    /* \"#utility.yul\":622:631   */\n  mload\n    /* \"#utility.yul\":720:722   */\n  0x1f\n    /* \"#utility.yul\":682:699   */\n  dup3\n  add\n  not(0x1f)\n    /* \"#utility.yul\":678:709   */\n  swap1\n  dup2\n  and\n    /* \"#utility.yul\":711:713   */\n  0x3f\n    /* \"#utility.yul\":674:714   */\n  add\n    /* \"#utility.yul\":670:724   */\n  and\n    /* \"#utility.yul\":658:725   */\n  dup2\n  add\n  sub(shl(0x40, 0x01), 0x01)\n    /* \"#utility.yul\":740:774   */\n  dup2\n  gt\n    /* \"#utility.yul\":776:798   */\n  dup3\n  dup3\n  lt\n    /* \"#utility.yul\":737:799   */\n  or\n    /* \"#utility.yul\":734:822   */\n  iszero\n  tag_23\n  jumpi\n    /* \"#utility.yul\":802:820   */\n  tag_23\n  tag_9\n  jump\t// in\ntag_23:\n    /* \"#utility.yul\":838:840   */\n  0x40\n    /* \"#utility.yul\":831:853   */\n  mstore\n    /* \"#utility.yul\":862:884   */\n  dup2\n  dup2\n  mstore\n    /* \"#utility.yul\":903:918   */\n  dup3\n  dup3\n  add\n    /* \"#utility.yul\":920:922   */\n  0x20\n    /* \"#utility.yul\":899:923   */\n  add\n    /* \"#utility.yul\":896:933   */\n  dup7\n  lt\n    /* \"#utility.yul\":893:950   */\n  iszero\n  tag_24\n  jumpi\n    /* \"#utility.yul\":946:947   */\n  0x00\n    /* \"#utility.yul\":943:944   */\n  dup1\n    /* \"#utility.yul\":936:948   */\n  revert\n    /* \"#utility.yul\":893:950   */\ntag_24:\n    /* \"#utility.yul\":995:1001   */\n  dup2\n    /* \"#utility.yul\":990:992   */\n  0x20\n    /* \"#utility.yul\":986:988   */\n  dup5\n    /* \"#utility.yul\":982:993   */\n  add\n    /* \"#utility.yul\":977:979   */\n  0x20\n    /* \"#utility.yul\":969:975   */\n  dup4\n    /* \"#utility.yul\":965:980   */\n  add\n    /* \"#utility.yul\":959:1002   */\n  mcopy\n    /* \"#utility.yul\":1048:1049   */\n  0x00\n    /* \"#utility.yul\":1022:1041   */\n  swap2\n  dup2\n  add\n    /* \"#utility.yul\":1043:1045   */\n  0x20\n    /* \"#utility.yul\":1018:1046   */\n  add\n    /* \"#utility.yul\":1011:1050   */\n  swap2\n  swap1\n  swap2\n  mstore\n    /* \"#utility.yul\":1026:1032   */\n  swap5\n    /* \"#utility.yul\":146:1081   */\n  swap4\n  pop\n  pop\n  pop\n  pop\n  jump\t// out\n    /* \"#utility.yul\":1086:1466   */\ntag_10:\n    /* \"#utility.yul\":1165:1166   */\n  0x01\n    /* \"#utility.yul\":1161:1173   */\n  dup2\n  dup2\n  shr\n  swap1\n    /* \"#utility.yul\":1208:1220   */\n  dup3\n  and\n  dup1\n    /* \"#utility.yul\":1229:1290   */\n  tag_26\n  jumpi\n    /* \"#utility.yul\":1283:1287   */\n  0x7f\n    /* \"#utility.yul\":1275:1281   */\n  dup3\n    /* \"#utility.yul\":1271:1288   */\n  and\n    /* \"#utility.yul\":1261:1288   */\n  swap2\n  pop\n    /* \"#utility.yul\":1229:1290   */\ntag_26:\n    /* \"#utility.yul\":1336:1338   */\n  0x20\n    /* \"#utility.yul\":1328:1334   */\n  dup3\n    /* \"#utility.yul\":1325:1339   */\n  lt\n    /* \"#utility.yul\":1305:1323   */\n  dup2\n    /* \"#utility.yul\":1302:1340   */\n  sub\n    /* \"#utility.yul\":1299:1460   */\n  tag_27\n  jumpi\n    /* \"#utility.yul\":1382:1392   */\n  0x4e487b71\n    /* \"#utility.yul\":1377:1380   */\n  0xe0\n    /* \"#utility.yul\":1373:1393   */\n  shl\n    /* \"#utility.yul\":1370:1371   */\n  0x00\n    /* \"#utility.yul\":1363:1394   */\n  mstore\n    /* \"#utility.yul\":1417:1421   */\n  0x22\n    /* \"#utility.yul\":1414:1415   */\n  0x04\n    /* \"#utility.yul\":1407:1422   */\n  mstore\n    /* \"#utility.yul\":1445:1449   */\n  0x24\n    /* \"#utility.yul\":1442:1443   */\n  0x00\n    /* \"#utility.yul\":1435:1450   */\n  revert\n    /* \"#utility.yul\":1299:1460   */\ntag_27:\n  pop\n    /* \"#utility.yul\":1086:1466   */\n  swap2\n  swap1\n  pop\n  jump\t// out\n    /* \"#utility.yul\":1597:2115   */\ntag_12:\n    /* \"#utility.yul\":1699:1701   */\n  0x1f\n    /* \"#utility.yul\":1694:1697   */\n  dup3\n    /* \"#utility.yul\":1691:1702   */\n  gt\n    /* \"#utility.yul\":1688:2109   */\n  iszero\n  tag_30\n  jumpi\n    /* \"#utility.yul\":1735:1740   */\n  dup1\n    /* \"#utility.yul\":1732:1733   */\n  0x00\n    /* \"#utility.yul\":1725:1741   */\n  mstore\n    /* \"#utility.yul\":1779:1783   */\n  0x20\n    /* \"#utility.yul\":1776:1777   */\n  0x00\n    /* \"#utility.yul\":1766:1784   */\n  keccak256\n    /* \"#utility.yul\":1849:1851   */\n  0x1f\n    /* \"#utility.yul\":1837:1847   */\n  dup5\n    /* \"#utility.yul\":1833:1852   */\n  add\n    /* \"#utility.yul\":1830:1831   */\n  0x05\n    /* \"#utility.yul\":1826:1853   */\n  shr\n    /* \"#utility.yul\":1820:1824   */\n  dup2\n    /* \"#utility.yul\":1816:1854   */\n  add\n    /* \"#utility.yul\":1885:1889   */\n  0x20\n    /* \"#utility.yul\":1873:1883   */\n  dup6\n    /* \"#utility.yul\":1870:1890   */\n  lt\n    /* \"#utility.yul\":1867:1914   */\n  iszero\n  tag_31\n  jumpi\n  pop\n    /* \"#utility.yul\":1908:1912   */\n  dup1\n    /* \"#utility.yul\":1867:1914   */\ntag_31:\n    /* \"#utility.yul\":1963:1965   */\n  0x1f\n    /* \"#utility.yul\":1958:1961   */\n  dup5\n    /* \"#utility.yul\":1954:1966   */\n  add\n    /* \"#utility.yul\":1951:1952   */\n  0x05\n    /* \"#utility.yul\":1947:1967   */\n  shr\n    /* \"#utility.yul\":1941:1945   */\n  dup3\n    /* \"#utility.yul\":1937:1968   */\n  add\n    /* \"#utility.yul\":1927:1968   */\n  swap2\n  pop\n    /* \"#utility.yul\":2018:2099   */\ntag_32:\n    /* \"#utility.yul\":2036:2038   */\n  dup2\n    /* \"#utility.yul\":2029:2034   */\n  dup2\n    /* \"#utility.yul\":2026:2039   */\n  lt\n    /* \"#utility.yul\":2018:2099   */\n  iszero\n  tag_34\n  jumpi\n    /* \"#utility.yul\":2095:2096   */\n  0x00\n    /* \"#utility.yul\":2081:2097   */\n  dup2\n  sstore\n    /* \"#utility.yul\":2062:2063   */\n  0x01\n    /* \"#utility.yul\":2051:2064   */\n  add\n    /* \"#utility.yul\":2018:2099   */\n  jump(tag_32)\ntag_34:\n    /* \"#utility.yul\":2022:2025   */\n  pop\n  pop\n    /* \"#utility.yul\":1688:2109   */\ntag_30:\n    /* \"#utility.yul\":1597:2115   */\n  pop\n  pop\n  pop\n  jump\t// out\n    /* \"#utility.yul\":2291:3590   */\ntag_7:\n    /* \"#utility.yul\":2411:2421   */\n  dup2\n  mload\n  sub(shl(0x40, 0x01), 0x01)\n    /* \"#utility.yul\":2433:2463   */\n  dup2\n  gt\n    /* \"#utility.yul\":2430:2486   */\n  iszero\n  tag_38\n  jumpi\n    /* \"#utility.yul\":2466:2484   */\n  tag_38\n  tag_9\n  jump\t// in\ntag_38:\n    /* \"#utility.yul\":2495:2592   */\n  tag_39\n    /* \"#utility.yul\":2585:2591   */\n  dup2\n    /* \"#utility.yul\":2545:2583   */\n  tag_40\n    /* \"#utility.yul\":2577:2581   */\n  dup5\n    /* \"#utility.yul\":2571:2582   */\n  sload\n    /* \"#utility.yul\":2545:2583   */\n  tag_10\n  jump\t// in\ntag_40:\n    /* \"#utility.yul\":2539:2543   */\n  dup5\n    /* \"#utility.yul\":2495:2592   */\n  tag_12\n  jump\t// in\ntag_39:\n    /* \"#utility.yul\":2641:2645   */\n  0x20\n    /* \"#utility.yul\":2672:2674   */\n  0x1f\n    /* \"#utility.yul\":2661:2675   */\n  dup3\n  gt\n    /* \"#utility.yul\":2689:2690   */\n  0x01\n    /* \"#utility.yul\":2684:3333   */\n  dup2\n  eq\n  tag_42\n  jumpi\n    /* \"#utility.yul\":3377:3378   */\n  0x00\n    /* \"#utility.yul\":3394:3400   */\n  dup4\n    /* \"#utility.yul\":3391:3480   */\n  iszero\n  tag_43\n  jumpi\n  pop\n    /* \"#utility.yul\":3446:3465   */\n  dup5\n  dup3\n  add\n    /* \"#utility.yul\":3440:3466   */\n  mload\n    /* \"#utility.yul\":3391:3480   */\ntag_43:\n  not(0x00)\n    /* \"#utility.yul\":2248:2249   */\n  0x03\n    /* \"#utility.yul\":2244:2255   */\n  dup6\n  swap1\n  shl\n    /* \"#utility.yul\":2240:2264   */\n  shr\n    /* \"#utility.yul\":2236:2265   */\n  not\n    /* \"#utility.yul\":2226:2266   */\n  and\n    /* \"#utility.yul\":2272:2273   */\n  0x01\n    /* \"#utility.yul\":2268:2279   */\n  dup5\n  swap1\n  shl\n    /* \"#utility.yul\":2223:2280   */\n  or\n    /* \"#utility.yul\":3493:3574   */\n  dup5\n  sstore\n    /* \"#utility.yul\":2654:3584   */\n  jump(tag_34)\n    /* \"#utility.yul\":2684:3333   */\ntag_42:\n    /* \"#utility.yul\":1544:1545   */\n  0x00\n    /* \"#utility.yul\":1537:1551   */\n  dup5\n  dup2\n  mstore\n    /* \"#utility.yul\":1581:1585   */\n  0x20\n    /* \"#utility.yul\":1568:1586   */\n  dup2\n  keccak256\n  not(0x1f)\n    /* \"#utility.yul\":2720:2740   */\n  dup6\n  and\n  swap2\n    /* \"#utility.yul\":2838:3060   */\ntag_46:\n    /* \"#utility.yul\":2852:2859   */\n  dup3\n    /* \"#utility.yul\":2849:2850   */\n  dup2\n    /* \"#utility.yul\":2846:2860   */\n  lt\n    /* \"#utility.yul\":2838:3060   */\n  iszero\n  tag_48\n  jumpi\n    /* \"#utility.yul\":2934:2953   */\n  dup8\n  dup6\n  add\n    /* \"#utility.yul\":2928:2954   */\n  mload\n    /* \"#utility.yul\":2913:2955   */\n  dup3\n  sstore\n    /* \"#utility.yul\":3041:3045   */\n  0x20\n    /* \"#utility.yul\":3026:3046   */\n  swap5\n  dup6\n  add\n  swap5\n    /* \"#utility.yul\":2994:2995   */\n  0x01\n    /* \"#utility.yul\":2982:2996   */\n  swap1\n  swap3\n  add\n  swap2\n    /* \"#utility.yul\":2868:2880   */\n  add\n    /* \"#utility.yul\":2838:3060   */\n  jump(tag_46)\ntag_48:\n    /* \"#utility.yul\":2842:2845   */\n  pop\n    /* \"#utility.yul\":3088:3094   */\n  dup5\n    /* \"#utility.yul\":3079:3086   */\n  dup3\n    /* \"#utility.yul\":3076:3095   */\n  lt\n    /* \"#utility.yul\":3073:3274   */\n  iszero\n  tag_49\n  jumpi\n    /* \"#utility.yul\":3149:3168   */\n  dup7\n  dup5\n  add\n    /* \"#utility.yul\":3143:3169   */\n  mload\n  not(0x00)\n    /* \"#utility.yul\":3232:3233   */\n  0x03\n    /* \"#utility.yul\":3228:3242   */\n  dup8\n  swap1\n  shl\n    /* \"#utility.yul\":3244:3247   */\n  0xf8\n    /* \"#utility.yul\":3224:3248   */\n  and\n    /* \"#utility.yul\":3220:3257   */\n  shr\n    /* \"#utility.yul\":3216:3258   */\n  not\n    /* \"#utility.yul\":3201:3259   */\n  and\n    /* \"#utility.yul\":3186:3260   */\n  dup2\n  sstore\n    /* \"#utility.yul\":3073:3274   */\ntag_49:\n  pop\n  pop\n  pop\n  pop\n    /* \"#utility.yul\":3320:3321   */\n  0x01\n    /* \"#utility.yul\":3304:3318   */\n  swap1\n  dup2\n  shl\n    /* \"#utility.yul\":3300:3322   */\n  add\n    /* \"#utility.yul\":3287:3323   */\n  swap1\n  sstore\n  pop\n    /* \"#utility.yul\":2291:3590   */\n  jump\t// out\ntag_14:\n    /* \"newbatch.sol\":61:698  contract Vote {... */\n  dataSize(sub_0)\n  dup1\n  dataOffset(sub_0)\n  0x00\n  codecopy\n  0x00\n  return\nstop\n\nsub_0: assembly {\n        /* \"newbatch.sol\":61:698  contract Vote {... */\n      mstore(0x40, 0x80)\n      callvalue\n      dup1\n      iszero\n      tag_1\n      jumpi\n      0x00\n      dup1\n      revert\n    tag_1:\n      pop\n      jumpi(tag_2, lt(calldatasize, 0x04))\n      shr(0xe0, calldataload(0x00))\n      dup1\n      0x4a79d50c\n      gt\n      tag_10\n      jumpi\n      dup1\n      0x4a79d50c\n      eq\n      tag_6\n      jumpi\n      dup1\n      0x4b9f5c98\n      eq\n      tag_7\n      jumpi\n      dup1\n      0xb5b47f42\n      eq\n      tag_8\n      jumpi\n      dup1\n      0xfb286c65\n      eq\n      tag_9\n      jumpi\n      0x00\n      dup1\n      revert\n    tag_10:\n      dup1\n      0x02d05d3f\n      eq\n      tag_3\n      jumpi\n      dup1\n      0x09eef43e\n      eq\n      tag_4\n      jumpi\n      dup1\n      0x0dc96015\n      eq\n      tag_5\n      jumpi\n    tag_2:\n      0x00\n      dup1\n      revert\n        /* \"newbatch.sol\":108:130  address public creator */\n    tag_3:\n      sload(0x01)\n      tag_11\n      swap1\n      sub(shl(0xa0, 0x01), 0x01)\n      and\n      dup2\n      jump\n    tag_11:\n      mload(0x40)\n      sub(shl(0xa0, 0x01), 0x01)\n        /* \"#utility.yul\":178:210   */\n      swap1\n      swap2\n      and\n        /* \"#utility.yul\":160:211   */\n      dup2\n      mstore\n        /* \"#utility.yul\":148:150   */\n      0x20\n        /* \"#utility.yul\":133:151   */\n      add\n        /* \"newbatch.sol\":108:130  address public creator */\n    tag_13:\n      mload(0x40)\n      dup1\n      swap2\n      sub\n      swap1\n      return\n        /* \"newbatch.sol\":137:177  mapping(address => bool) public hasVoted */\n    tag_4:\n      tag_15\n      tag_16\n      calldatasize\n      0x04\n      tag_17\n      jump\t// in\n    tag_16:\n      mstore(0x20, 0x02)\n      0x00\n      swap1\n      dup2\n      mstore\n      0x40\n      swap1\n      keccak256\n      sload\n      0xff\n      and\n      dup2\n      jump\n    tag_15:\n      mload(0x40)\n        /* \"#utility.yul\":678:692   */\n      swap1\n      iszero\n        /* \"#utility.yul\":671:693   */\n      iszero\n        /* \"#utility.yul\":653:694   */\n      dup2\n      mstore\n        /* \"#utility.yul\":641:643   */\n      0x20\n        /* \"#utility.yul\":626:644   */\n      add\n        /* \"newbatch.sol\":137:177  mapping(address => bool) public hasVoted */\n      tag_13\n        /* \"#utility.yul\":513:700   */\n      jump\n        /* \"newbatch.sol\":590:695  function getVotes() public view returns (uint yes, uint no) {... */\n    tag_5:\n        /* \"newbatch.sol\":669:677  yesVotes */\n      sload(0x03)\n        /* \"newbatch.sol\":679:686  noVotes */\n      sload(0x04)\n        /* \"newbatch.sol\":590:695  function getVotes() public view returns (uint yes, uint no) {... */\n      0x40\n      dup1\n      mload\n        /* \"#utility.yul\":879:904   */\n      swap3\n      dup4\n      mstore\n        /* \"#utility.yul\":935:937   */\n      0x20\n        /* \"#utility.yul\":920:938   */\n      dup4\n      add\n        /* \"#utility.yul\":913:947   */\n      swap2\n      swap1\n      swap2\n      mstore\n        /* \"#utility.yul\":852:870   */\n      add\n        /* \"newbatch.sol\":590:695  function getVotes() public view returns (uint yes, uint no) {... */\n      tag_13\n        /* \"#utility.yul\":705:953   */\n      jump\n        /* \"newbatch.sol\":82:101  string public title */\n    tag_6:\n      tag_25\n      tag_26\n      jump\t// in\n    tag_25:\n      mload(0x40)\n      tag_13\n      swap2\n      swap1\n      tag_28\n      jump\t// in\n        /* \"newbatch.sol\":345:582  function vote(bool _yes) public {... */\n    tag_7:\n      tag_29\n      tag_30\n      calldatasize\n      0x04\n      tag_31\n      jump\t// in\n    tag_30:\n      tag_32\n      jump\t// in\n    tag_29:\n      stop\n        /* \"newbatch.sol\":211:230  uint public noVotes */\n    tag_8:\n      tag_33\n      sload(0x04)\n      dup2\n      jump\n    tag_33:\n      mload(0x40)\n        /* \"#utility.yul\":1805:1830   */\n      swap1\n      dup2\n      mstore\n        /* \"#utility.yul\":1793:1795   */\n      0x20\n        /* \"#utility.yul\":1778:1796   */\n      add\n        /* \"newbatch.sol\":211:230  uint public noVotes */\n      tag_13\n        /* \"#utility.yul\":1659:1836   */\n      jump\n        /* \"newbatch.sol\":184:204  uint public yesVotes */\n    tag_9:\n      tag_33\n      sload(0x03)\n      dup2\n      jump\n        /* \"newbatch.sol\":82:101  string public title */\n    tag_26:\n      0x00\n      dup1\n      sload\n      tag_41\n      swap1\n      tag_42\n      jump\t// in\n    tag_41:\n      dup1\n      0x1f\n      add\n      0x20\n      dup1\n      swap2\n      div\n      mul\n      0x20\n      add\n      mload(0x40)\n      swap1\n      dup2\n      add\n      0x40\n      mstore\n      dup1\n      swap3\n      swap2\n      swap1\n      dup2\n      dup2\n      mstore\n      0x20\n      add\n      dup3\n      dup1\n      sload\n      tag_43\n      swap1\n      tag_42\n      jump\t// in\n    tag_43:\n      dup1\n      iszero\n      tag_44\n      jumpi\n      dup1\n      0x1f\n      lt\n      tag_45\n      jumpi\n      0x0100\n      dup1\n      dup4\n      sload\n      div\n      mul\n      dup4\n      mstore\n      swap2\n      0x20\n      add\n      swap2\n      jump(tag_44)\n    tag_45:\n      dup3\n      add\n      swap2\n      swap1\n      0x00\n      mstore\n      keccak256(0x00, 0x20)\n      swap1\n    tag_46:\n      dup2\n      sload\n      dup2\n      mstore\n      swap1\n      0x01\n      add\n      swap1\n      0x20\n      add\n      dup1\n      dup4\n      gt\n      tag_46\n      jumpi\n      dup3\n      swap1\n      sub\n      0x1f\n      and\n      dup3\n      add\n      swap2\n    tag_44:\n      pop\n      pop\n      pop\n      pop\n      pop\n      dup2\n      jump\t// out\n        /* \"newbatch.sol\":345:582  function vote(bool _yes) public {... */\n    tag_32:\n        /* \"newbatch.sol\":406:416  msg.sender */\n      caller\n        /* \"newbatch.sol\":397:417  hasVoted[msg.sender] */\n      0x00\n      swap1\n      dup2\n      mstore\n        /* \"newbatch.sol\":397:405  hasVoted */\n      0x02\n        /* \"newbatch.sol\":397:417  hasVoted[msg.sender] */\n      0x20\n      mstore\n      0x40\n      swap1\n      keccak256\n      sload\n      0xff\n      and\n        /* \"newbatch.sol\":396:417  !hasVoted[msg.sender] */\n      iszero\n        /* \"newbatch.sol\":388:435  require(!hasVoted[msg.sender], \"Already voted\") */\n      tag_48\n      jumpi\n      mload(0x40)\n      shl(0xe5, 0x461bcd)\n      dup2\n      mstore\n        /* \"#utility.yul\":2428:2430   */\n      0x20\n        /* \"newbatch.sol\":388:435  require(!hasVoted[msg.sender], \"Already voted\") */\n      0x04\n      dup3\n      add\n        /* \"#utility.yul\":2410:2431   */\n      mstore\n        /* \"#utility.yul\":2467:2469   */\n      0x0d\n        /* \"#utility.yul\":2447:2465   */\n      0x24\n      dup3\n      add\n        /* \"#utility.yul\":2440:2470   */\n      mstore\n      shl(0x9a, 0x105b1c9958591e481d9bdd1959)\n        /* \"#utility.yul\":2486:2504   */\n      0x44\n      dup3\n      add\n        /* \"#utility.yul\":2479:2522   */\n      mstore\n        /* \"#utility.yul\":2539:2557   */\n      0x64\n      add\n        /* \"newbatch.sol\":388:435  require(!hasVoted[msg.sender], \"Already voted\") */\n      mload(0x40)\n      dup1\n      swap2\n      sub\n      swap1\n      revert\n    tag_48:\n        /* \"newbatch.sol\":455:465  msg.sender */\n      caller\n        /* \"newbatch.sol\":446:466  hasVoted[msg.sender] */\n      0x00\n      swap1\n      dup2\n      mstore\n        /* \"newbatch.sol\":446:454  hasVoted */\n      0x02\n        /* \"newbatch.sol\":446:466  hasVoted[msg.sender] */\n      0x20\n      mstore\n      0x40\n      swap1\n      keccak256\n        /* \"newbatch.sol\":446:473  hasVoted[msg.sender] = true */\n      dup1\n      sload\n      not(0xff)\n      and\n        /* \"newbatch.sol\":469:473  true */\n      0x01\n        /* \"newbatch.sol\":446:473  hasVoted[msg.sender] = true */\n      or\n      swap1\n      sstore\n        /* \"newbatch.sol\":486:575  if (_yes) {... */\n      dup1\n      iszero\n      tag_51\n      jumpi\n        /* \"newbatch.sol\":511:519  yesVotes */\n      0x03\n        /* \"newbatch.sol\":511:521  yesVotes++ */\n      dup1\n      sload\n      swap1\n        /* \"newbatch.sol\":511:519  yesVotes */\n      0x00\n        /* \"newbatch.sol\":511:521  yesVotes++ */\n      tag_52\n      dup4\n      tag_53\n      jump\t// in\n    tag_52:\n      swap2\n      swap1\n      pop\n      sstore\n      pop\n        /* \"newbatch.sol\":345:582  function vote(bool _yes) public {... */\n      pop\n      jump\t// out\n        /* \"newbatch.sol\":486:575  if (_yes) {... */\n    tag_51:\n        /* \"newbatch.sol\":554:561  noVotes */\n      0x04\n        /* \"newbatch.sol\":554:563  noVotes++ */\n      dup1\n      sload\n      swap1\n        /* \"newbatch.sol\":554:561  noVotes */\n      0x00\n        /* \"newbatch.sol\":554:563  noVotes++ */\n      tag_52\n      dup4\n      tag_53\n      jump\t// in\n        /* \"#utility.yul\":222:508   */\n    tag_17:\n        /* \"#utility.yul\":281:287   */\n      0x00\n        /* \"#utility.yul\":334:336   */\n      0x20\n        /* \"#utility.yul\":322:331   */\n      dup3\n        /* \"#utility.yul\":313:320   */\n      dup5\n        /* \"#utility.yul\":309:332   */\n      sub\n        /* \"#utility.yul\":305:337   */\n      slt\n        /* \"#utility.yul\":302:354   */\n      iszero\n      tag_59\n      jumpi\n        /* \"#utility.yul\":350:351   */\n      0x00\n        /* \"#utility.yul\":347:348   */\n      dup1\n        /* \"#utility.yul\":340:352   */\n      revert\n        /* \"#utility.yul\":302:354   */\n    tag_59:\n        /* \"#utility.yul\":376:399   */\n      dup2\n      calldataload\n      sub(shl(0xa0, 0x01), 0x01)\n        /* \"#utility.yul\":428:459   */\n      dup2\n      and\n        /* \"#utility.yul\":418:460   */\n      dup2\n      eq\n        /* \"#utility.yul\":408:478   */\n      tag_60\n      jumpi\n        /* \"#utility.yul\":474:475   */\n      0x00\n        /* \"#utility.yul\":471:472   */\n      dup1\n        /* \"#utility.yul\":464:476   */\n      revert\n        /* \"#utility.yul\":408:478   */\n    tag_60:\n        /* \"#utility.yul\":497:502   */\n      swap4\n        /* \"#utility.yul\":222:508   */\n      swap3\n      pop\n      pop\n      pop\n      jump\t// out\n        /* \"#utility.yul\":958:1376   */\n    tag_28:\n        /* \"#utility.yul\":1107:1109   */\n      0x20\n        /* \"#utility.yul\":1096:1105   */\n      dup2\n        /* \"#utility.yul\":1089:1110   */\n      mstore\n        /* \"#utility.yul\":1070:1074   */\n      0x00\n        /* \"#utility.yul\":1139:1145   */\n      dup3\n        /* \"#utility.yul\":1133:1146   */\n      mload\n        /* \"#utility.yul\":1182:1188   */\n      dup1\n        /* \"#utility.yul\":1177:1179   */\n      0x20\n        /* \"#utility.yul\":1166:1175   */\n      dup5\n        /* \"#utility.yul\":1162:1180   */\n      add\n        /* \"#utility.yul\":1155:1189   */\n      mstore\n        /* \"#utility.yul\":1241:1247   */\n      dup1\n        /* \"#utility.yul\":1236:1238   */\n      0x20\n        /* \"#utility.yul\":1228:1234   */\n      dup6\n        /* \"#utility.yul\":1224:1239   */\n      add\n        /* \"#utility.yul\":1219:1221   */\n      0x40\n        /* \"#utility.yul\":1208:1217   */\n      dup6\n        /* \"#utility.yul\":1204:1222   */\n      add\n        /* \"#utility.yul\":1198:1248   */\n      mcopy\n        /* \"#utility.yul\":1297:1298   */\n      0x00\n        /* \"#utility.yul\":1292:1294   */\n      0x40\n        /* \"#utility.yul\":1283:1289   */\n      dup3\n        /* \"#utility.yul\":1272:1281   */\n      dup6\n        /* \"#utility.yul\":1268:1290   */\n      add\n        /* \"#utility.yul\":1264:1295   */\n      add\n        /* \"#utility.yul\":1257:1299   */\n      mstore\n        /* \"#utility.yul\":1367:1369   */\n      0x40\n        /* \"#utility.yul\":1360:1362   */\n      0x1f\n        /* \"#utility.yul\":1356:1363   */\n      not\n        /* \"#utility.yul\":1351:1353   */\n      0x1f\n        /* \"#utility.yul\":1343:1349   */\n      dup4\n        /* \"#utility.yul\":1339:1354   */\n      add\n        /* \"#utility.yul\":1335:1364   */\n      and\n        /* \"#utility.yul\":1324:1333   */\n      dup5\n        /* \"#utility.yul\":1320:1365   */\n      add\n        /* \"#utility.yul\":1316:1370   */\n      add\n        /* \"#utility.yul\":1308:1370   */\n      swap2\n      pop\n      pop\n        /* \"#utility.yul\":958:1376   */\n      swap3\n      swap2\n      pop\n      pop\n      jump\t// out\n        /* \"#utility.yul\":1381:1654   */\n    tag_31:\n        /* \"#utility.yul\":1437:1443   */\n      0x00\n        /* \"#utility.yul\":1490:1492   */\n      0x20\n        /* \"#utility.yul\":1478:1487   */\n      dup3\n        /* \"#utility.yul\":1469:1476   */\n      dup5\n        /* \"#utility.yul\":1465:1488   */\n      sub\n        /* \"#utility.yul\":1461:1493   */\n      slt\n        /* \"#utility.yul\":1458:1510   */\n      iszero\n      tag_65\n      jumpi\n        /* \"#utility.yul\":1506:1507   */\n      0x00\n        /* \"#utility.yul\":1503:1504   */\n      dup1\n        /* \"#utility.yul\":1496:1508   */\n      revert\n        /* \"#utility.yul\":1458:1510   */\n    tag_65:\n        /* \"#utility.yul\":1545:1554   */\n      dup2\n        /* \"#utility.yul\":1532:1555   */\n      calldataload\n        /* \"#utility.yul\":1598:1603   */\n      dup1\n        /* \"#utility.yul\":1591:1604   */\n      iszero\n        /* \"#utility.yul\":1584:1605   */\n      iszero\n        /* \"#utility.yul\":1577:1582   */\n      dup2\n        /* \"#utility.yul\":1574:1606   */\n      eq\n        /* \"#utility.yul\":1564:1624   */\n      tag_60\n      jumpi\n        /* \"#utility.yul\":1620:1621   */\n      0x00\n        /* \"#utility.yul\":1617:1618   */\n      dup1\n        /* \"#utility.yul\":1610:1622   */\n      revert\n        /* \"#utility.yul\":1841:2221   */\n    tag_42:\n        /* \"#utility.yul\":1920:1921   */\n      0x01\n        /* \"#utility.yul\":1916:1928   */\n      dup2\n      dup2\n      shr\n      swap1\n        /* \"#utility.yul\":1963:1975   */\n      dup3\n      and\n      dup1\n        /* \"#utility.yul\":1984:2045   */\n      tag_69\n      jumpi\n        /* \"#utility.yul\":2038:2042   */\n      0x7f\n        /* \"#utility.yul\":2030:2036   */\n      dup3\n        /* \"#utility.yul\":2026:2043   */\n      and\n        /* \"#utility.yul\":2016:2043   */\n      swap2\n      pop\n        /* \"#utility.yul\":1984:2045   */\n    tag_69:\n        /* \"#utility.yul\":2091:2093   */\n      0x20\n        /* \"#utility.yul\":2083:2089   */\n      dup3\n        /* \"#utility.yul\":2080:2094   */\n      lt\n        /* \"#utility.yul\":2060:2078   */\n      dup2\n        /* \"#utility.yul\":2057:2095   */\n      sub\n        /* \"#utility.yul\":2054:2215   */\n      tag_70\n      jumpi\n        /* \"#utility.yul\":2137:2147   */\n      0x4e487b71\n        /* \"#utility.yul\":2132:2135   */\n      0xe0\n        /* \"#utility.yul\":2128:2148   */\n      shl\n        /* \"#utility.yul\":2125:2126   */\n      0x00\n        /* \"#utility.yul\":2118:2149   */\n      mstore\n        /* \"#utility.yul\":2172:2176   */\n      0x22\n        /* \"#utility.yul\":2169:2170   */\n      0x04\n        /* \"#utility.yul\":2162:2177   */\n      mstore\n        /* \"#utility.yul\":2200:2204   */\n      0x24\n        /* \"#utility.yul\":2197:2198   */\n      0x00\n        /* \"#utility.yul\":2190:2205   */\n      revert\n        /* \"#utility.yul\":2054:2215   */\n    tag_70:\n      pop\n        /* \"#utility.yul\":1841:2221   */\n      swap2\n      swap1\n      pop\n      jump\t// out\n        /* \"#utility.yul\":2568:2800   */\n    tag_53:\n        /* \"#utility.yul\":2607:2610   */\n      0x00\n        /* \"#utility.yul\":2628:2645   */\n      0x01\n      dup3\n      add\n        /* \"#utility.yul\":2625:2765   */\n      tag_73\n      jumpi\n        /* \"#utility.yul\":2687:2697   */\n      0x4e487b71\n        /* \"#utility.yul\":2682:2685   */\n      0xe0\n        /* \"#utility.yul\":2678:2698   */\n      shl\n        /* \"#utility.yul\":2675:2676   */\n      0x00\n        /* \"#utility.yul\":2668:2699   */\n      mstore\n        /* \"#utility.yul\":2722:2726   */\n      0x11\n        /* \"#utility.yul\":2719:2720   */\n      0x04\n        /* \"#utility.yul\":2712:2727   */\n      mstore\n        /* \"#utility.yul\":2750:2754   */\n      0x24\n        /* \"#utility.yul\":2747:2748   */\n      0x00\n        /* \"#utility.yul\":2740:2755   */\n      revert\n        /* \"#utility.yul\":2625:2765   */\n    tag_73:\n      pop\n        /* \"#utility.yul\":2792:2793   */\n      0x01\n        /* \"#utility.yul\":2781:2794   */\n      add\n      swap1\n        /* \"#utility.yul\":2568:2800   */\n      jump\t// out\n\n    auxdata: 0xa2646970667358221220a2362898118ca14afadafac227f4c44317af82215fa80284f626ce5e31f1f49e64736f6c634300081a0033\n}\n",
				"bytecode": {
					"linkReferences": {},
					"object": "608060405234801561000f575f80fd5b506040516105dc3803806105dc83398101604081905261002e91610066565b5f610039828261019a565b5050600180546001600160a01b03191633179055610254565b634e487b7160e01b5f52604160045260245ffd5b5f60208284031215610076575f80fd5b81516001600160401b0381111561008b575f80fd5b8201601f8101841361009b575f80fd5b80516001600160401b038111156100b4576100b4610052565b604051601f8201601f19908116603f011681016001600160401b03811182821017156100e2576100e2610052565b6040528181528282016020018610156100f9575f80fd5b8160208401602083015e5f91810160200191909152949350505050565b600181811c9082168061012a57607f821691505b60208210810361014857634e487b7160e01b5f52602260045260245ffd5b50919050565b601f82111561019557805f5260205f20601f840160051c810160208510156101735750805b601f840160051c820191505b81811015610192575f815560010161017f565b50505b505050565b81516001600160401b038111156101b3576101b3610052565b6101c7816101c18454610116565b8461014e565b6020601f8211600181146101f9575f83156101e25750848201515b5f19600385901b1c1916600184901b178455610192565b5f84815260208120601f198516915b828110156102285787850151825560209485019460019092019101610208565b508482101561024557868401515f19600387901b60f8161c191681555b50505050600190811b01905550565b61037b806102615f395ff3fe608060405234801561000f575f80fd5b506004361061007a575f3560e01c80634a79d50c116100585780634a79d50c146100fb5780634b9f5c9814610110578063b5b47f4214610125578063fb286c651461013c575f80fd5b806302d05d3f1461007e57806309eef43e146100ae5780630dc96015146100e0575b5f80fd5b600154610091906001600160a01b031681565b6040516001600160a01b0390911681526020015b60405180910390f35b6100d06100bc366004610268565b60026020525f908152604090205460ff1681565b60405190151581526020016100a5565b600354600454604080519283526020830191909152016100a5565b610103610145565b6040516100a59190610295565b61012361011e3660046102ca565b6101d0565b005b61012e60045481565b6040519081526020016100a5565b61012e60035481565b5f8054610151906102e9565b80601f016020809104026020016040519081016040528092919081815260200182805461017d906102e9565b80156101c85780601f1061019f576101008083540402835291602001916101c8565b820191905f5260205f20905b8154815290600101906020018083116101ab57829003601f168201915b505050505081565b335f9081526002602052604090205460ff16156102235760405162461bcd60e51b815260206004820152600d60248201526c105b1c9958591e481d9bdd1959609a1b604482015260640160405180910390fd5b335f908152600260205260409020805460ff1916600117905580156102595760038054905f61025183610321565b919050555050565b60048054905f61025183610321565b5f60208284031215610278575f80fd5b81356001600160a01b038116811461028e575f80fd5b9392505050565b602081525f82518060208401528060208501604085015e5f604082850101526040601f19601f83011684010191505092915050565b5f602082840312156102da575f80fd5b8135801515811461028e575f80fd5b600181811c908216806102fd57607f821691505b60208210810361031b57634e487b7160e01b5f52602260045260245ffd5b50919050565b5f6001820161033e57634e487b7160e01b5f52601160045260245ffd5b506001019056fea2646970667358221220a2362898118ca14afadafac227f4c44317af82215fa80284f626ce5e31f1f49e64736f6c634300081a0033",
					"opcodes": "PUSH1 0x80 PUSH1 0x40 MSTORE CALLVALUE DUP1 ISZERO PUSH2 0xF JUMPI PUSH0 DUP1 REVERT JUMPDEST POP PUSH1 0x40 MLOAD PUSH2 0x5DC CODESIZE SUB DUP1 PUSH2 0x5DC DUP4 CODECOPY DUP2 ADD PUSH1 0x40 DUP2 SWAP1 MSTORE PUSH2 0x2E SWAP2 PUSH2 0x66 JUMP JUMPDEST PUSH0 PUSH2 0x39 DUP3 DUP3 PUSH2 0x19A JUMP JUMPDEST POP POP PUSH1 0x1 DUP1 SLOAD PUSH1 0x1 PUSH1 0x1 PUSH1 0xA0 SHL SUB NOT AND CALLER OR SWAP1 SSTORE PUSH2 0x254 JUMP JUMPDEST PUSH4 0x4E487B71 PUSH1 0xE0 SHL PUSH0 MSTORE PUSH1 0x41 PUSH1 0x4 MSTORE PUSH1 0x24 PUSH0 REVERT JUMPDEST PUSH0 PUSH1 0x20 DUP3 DUP5 SUB SLT ISZERO PUSH2 0x76 JUMPI PUSH0 DUP1 REVERT JUMPDEST DUP2 MLOAD PUSH1 0x1 PUSH1 0x1 PUSH1 0x40 SHL SUB DUP2 GT ISZERO PUSH2 0x8B JUMPI PUSH0 DUP1 REVERT JUMPDEST DUP3 ADD PUSH1 0x1F DUP2 ADD DUP5 SGT PUSH2 0x9B JUMPI PUSH0 DUP1 REVERT JUMPDEST DUP1 MLOAD PUSH1 0x1 PUSH1 0x1 PUSH1 0x40 SHL SUB DUP2 GT ISZERO PUSH2 0xB4 JUMPI PUSH2 0xB4 PUSH2 0x52 JUMP JUMPDEST PUSH1 0x40 MLOAD PUSH1 0x1F DUP3 ADD PUSH1 0x1F NOT SWAP1 DUP2 AND PUSH1 0x3F ADD AND DUP2 ADD PUSH1 0x1 PUSH1 0x1 PUSH1 0x40 SHL SUB DUP2 GT DUP3 DUP3 LT OR ISZERO PUSH2 0xE2 JUMPI PUSH2 0xE2 PUSH2 0x52 JUMP JUMPDEST PUSH1 0x40 MSTORE DUP2 DUP2 MSTORE DUP3 DUP3 ADD PUSH1 0x20 ADD DUP7 LT ISZERO PUSH2 0xF9 JUMPI PUSH0 DUP1 REVERT JUMPDEST DUP2 PUSH1 0x20 DUP5 ADD PUSH1 0x20 DUP4 ADD MCOPY PUSH0 SWAP2 DUP2 ADD PUSH1 0x20 ADD SWAP2 SWAP1 SWAP2 MSTORE SWAP5 SWAP4 POP POP POP POP JUMP JUMPDEST PUSH1 0x1 DUP2 DUP2 SHR SWAP1 DUP3 AND DUP1 PUSH2 0x12A JUMPI PUSH1 0x7F DUP3 AND SWAP2 POP JUMPDEST PUSH1 0x20 DUP3 LT DUP2 SUB PUSH2 0x148 JUMPI PUSH4 0x4E487B71 PUSH1 0xE0 SHL PUSH0 MSTORE PUSH1 0x22 PUSH1 0x4 MSTORE PUSH1 0x24 PUSH0 REVERT JUMPDEST POP SWAP2 SWAP1 POP JUMP JUMPDEST PUSH1 0x1F DUP3 GT ISZERO PUSH2 0x195 JUMPI DUP1 PUSH0 MSTORE PUSH1 0x20 PUSH0 KECCAK256 PUSH1 0x1F DUP5 ADD PUSH1 0x5 SHR DUP2 ADD PUSH1 0x20 DUP6 LT ISZERO PUSH2 0x173 JUMPI POP DUP1 JUMPDEST PUSH1 0x1F DUP5 ADD PUSH1 0x5 SHR DUP3 ADD SWAP2 POP JUMPDEST DUP2 DUP2 LT ISZERO PUSH2 0x192 JUMPI PUSH0 DUP2 SSTORE PUSH1 0x1 ADD PUSH2 0x17F JUMP JUMPDEST POP POP JUMPDEST POP POP POP JUMP JUMPDEST DUP2 MLOAD PUSH1 0x1 PUSH1 0x1 PUSH1 0x40 SHL SUB DUP2 GT ISZERO PUSH2 0x1B3 JUMPI PUSH2 0x1B3 PUSH2 0x52 JUMP JUMPDEST PUSH2 0x1C7 DUP2 PUSH2 0x1C1 DUP5 SLOAD PUSH2 0x116 JUMP JUMPDEST DUP5 PUSH2 0x14E JUMP JUMPDEST PUSH1 0x20 PUSH1 0x1F DUP3 GT PUSH1 0x1 DUP2 EQ PUSH2 0x1F9 JUMPI PUSH0 DUP4 ISZERO PUSH2 0x1E2 JUMPI POP DUP5 DUP3 ADD MLOAD JUMPDEST PUSH0 NOT PUSH1 0x3 DUP6 SWAP1 SHL SHR NOT AND PUSH1 0x1 DUP5 SWAP1 SHL OR DUP5 SSTORE PUSH2 0x192 JUMP JUMPDEST PUSH0 DUP5 DUP2 MSTORE PUSH1 0x20 DUP2 KECCAK256 PUSH1 0x1F NOT DUP6 AND SWAP2 JUMPDEST DUP3 DUP2 LT ISZERO PUSH2 0x228 JUMPI DUP8 DUP6 ADD MLOAD DUP3 SSTORE PUSH1 0x20 SWAP5 DUP6 ADD SWAP5 PUSH1 0x1 SWAP1 SWAP3 ADD SWAP2 ADD PUSH2 0x208 JUMP JUMPDEST POP DUP5 DUP3 LT ISZERO PUSH2 0x245 JUMPI DUP7 DUP5 ADD MLOAD PUSH0 NOT PUSH1 0x3 DUP8 SWAP1 SHL PUSH1 0xF8 AND SHR NOT AND DUP2 SSTORE JUMPDEST POP POP POP POP PUSH1 0x1 SWAP1 DUP2 SHL ADD SWAP1 SSTORE POP JUMP JUMPDEST PUSH2 0x37B DUP1 PUSH2 0x261 PUSH0 CODECOPY PUSH0 RETURN INVALID PUSH1 0x80 PUSH1 0x40 MSTORE CALLVALUE DUP1 ISZERO PUSH2 0xF JUMPI PUSH0 DUP1 REVERT JUMPDEST POP PUSH1 0x4 CALLDATASIZE LT PUSH2 0x7A JUMPI PUSH0 CALLDATALOAD PUSH1 0xE0 SHR DUP1 PUSH4 0x4A79D50C GT PUSH2 0x58 JUMPI DUP1 PUSH4 0x4A79D50C EQ PUSH2 0xFB JUMPI DUP1 PUSH4 0x4B9F5C98 EQ PUSH2 0x110 JUMPI DUP1 PUSH4 0xB5B47F42 EQ PUSH2 0x125 JUMPI DUP1 PUSH4 0xFB286C65 EQ PUSH2 0x13C JUMPI PUSH0 DUP1 REVERT JUMPDEST DUP1 PUSH4 0x2D05D3F EQ PUSH2 0x7E JUMPI DUP1 PUSH4 0x9EEF43E EQ PUSH2 0xAE JUMPI DUP1 PUSH4 0xDC96015 EQ PUSH2 0xE0 JUMPI JUMPDEST PUSH0 DUP1 REVERT JUMPDEST PUSH1 0x1 SLOAD PUSH2 0x91 SWAP1 PUSH1 0x1 PUSH1 0x1 PUSH1 0xA0 SHL SUB AND DUP2 JUMP JUMPDEST PUSH1 0x40 MLOAD PUSH1 0x1 PUSH1 0x1 PUSH1 0xA0 SHL SUB SWAP1 SWAP2 AND DUP2 MSTORE PUSH1 0x20 ADD JUMPDEST PUSH1 0x40 MLOAD DUP1 SWAP2 SUB SWAP1 RETURN JUMPDEST PUSH2 0xD0 PUSH2 0xBC CALLDATASIZE PUSH1 0x4 PUSH2 0x268 JUMP JUMPDEST PUSH1 0x2 PUSH1 0x20 MSTORE PUSH0 SWAP1 DUP2 MSTORE PUSH1 0x40 SWAP1 KECCAK256 SLOAD PUSH1 0xFF AND DUP2 JUMP JUMPDEST PUSH1 0x40 MLOAD SWAP1 ISZERO ISZERO DUP2 MSTORE PUSH1 0x20 ADD PUSH2 0xA5 JUMP JUMPDEST PUSH1 0x3 SLOAD PUSH1 0x4 SLOAD PUSH1 0x40 DUP1 MLOAD SWAP3 DUP4 MSTORE PUSH1 0x20 DUP4 ADD SWAP2 SWAP1 SWAP2 MSTORE ADD PUSH2 0xA5 JUMP JUMPDEST PUSH2 0x103 PUSH2 0x145 JUMP JUMPDEST PUSH1 0x40 MLOAD PUSH2 0xA5 SWAP2 SWAP1 PUSH2 0x295 JUMP JUMPDEST PUSH2 0x123 PUSH2 0x11E CALLDATASIZE PUSH1 0x4 PUSH2 0x2CA JUMP JUMPDEST PUSH2 0x1D0 JUMP JUMPDEST STOP JUMPDEST PUSH2 0x12E PUSH1 0x4 SLOAD DUP2 JUMP JUMPDEST PUSH1 0x40 MLOAD SWAP1 DUP2 MSTORE PUSH1 0x20 ADD PUSH2 0xA5 JUMP JUMPDEST PUSH2 0x12E PUSH1 0x3 SLOAD DUP2 JUMP JUMPDEST PUSH0 DUP1 SLOAD PUSH2 0x151 SWAP1 PUSH2 0x2E9 JUMP JUMPDEST DUP1 PUSH1 0x1F ADD PUSH1 0x20 DUP1 SWAP2 DIV MUL PUSH1 0x20 ADD PUSH1 0x40 MLOAD SWAP1 DUP2 ADD PUSH1 0x40 MSTORE DUP1 SWAP3 SWAP2 SWAP1 DUP2 DUP2 MSTORE PUSH1 0x20 ADD DUP3 DUP1 SLOAD PUSH2 0x17D SWAP1 PUSH2 0x2E9 JUMP JUMPDEST DUP1 ISZERO PUSH2 0x1C8 JUMPI DUP1 PUSH1 0x1F LT PUSH2 0x19F JUMPI PUSH2 0x100 DUP1 DUP4 SLOAD DIV MUL DUP4 MSTORE SWAP2 PUSH1 0x20 ADD SWAP2 PUSH2 0x1C8 JUMP JUMPDEST DUP3 ADD SWAP2 SWAP1 PUSH0 MSTORE PUSH1 0x20 PUSH0 KECCAK256 SWAP1 JUMPDEST DUP2 SLOAD DUP2 MSTORE SWAP1 PUSH1 0x1 ADD SWAP1 PUSH1 0x20 ADD DUP1 DUP4 GT PUSH2 0x1AB JUMPI DUP3 SWAP1 SUB PUSH1 0x1F AND DUP3 ADD SWAP2 JUMPDEST POP POP POP POP POP DUP2 JUMP JUMPDEST CALLER PUSH0 SWAP1 DUP2 MSTORE PUSH1 0x2 PUSH1 0x20 MSTORE PUSH1 0x40 SWAP1 KECCAK256 SLOAD PUSH1 0xFF AND ISZERO PUSH2 0x223 JUMPI PUSH1 0x40 MLOAD PUSH3 0x461BCD PUSH1 0xE5 SHL DUP2 MSTORE PUSH1 0x20 PUSH1 0x4 DUP3 ADD MSTORE PUSH1 0xD PUSH1 0x24 DUP3 ADD MSTORE PUSH13 0x105B1C9958591E481D9BDD1959 PUSH1 0x9A SHL PUSH1 0x44 DUP3 ADD MSTORE PUSH1 0x64 ADD PUSH1 0x40 MLOAD DUP1 SWAP2 SUB SWAP1 REVERT JUMPDEST CALLER PUSH0 SWAP1 DUP2 MSTORE PUSH1 0x2 PUSH1 0x20 MSTORE PUSH1 0x40 SWAP1 KECCAK256 DUP1 SLOAD PUSH1 0xFF NOT AND PUSH1 0x1 OR SWAP1 SSTORE DUP1 ISZERO PUSH2 0x259 JUMPI PUSH1 0x3 DUP1 SLOAD SWAP1 PUSH0 PUSH2 0x251 DUP4 PUSH2 0x321 JUMP JUMPDEST SWAP2 SWAP1 POP SSTORE POP POP JUMP JUMPDEST PUSH1 0x4 DUP1 SLOAD SWAP1 PUSH0 PUSH2 0x251 DUP4 PUSH2 0x321 JUMP JUMPDEST PUSH0 PUSH1 0x20 DUP3 DUP5 SUB SLT ISZERO PUSH2 0x278 JUMPI PUSH0 DUP1 REVERT JUMPDEST DUP2 CALLDATALOAD PUSH1 0x1 PUSH1 0x1 PUSH1 0xA0 SHL SUB DUP2 AND DUP2 EQ PUSH2 0x28E JUMPI PUSH0 DUP1 REVERT JUMPDEST SWAP4 SWAP3 POP POP POP JUMP JUMPDEST PUSH1 0x20 DUP2 MSTORE PUSH0 DUP3 MLOAD DUP1 PUSH1 0x20 DUP5 ADD MSTORE DUP1 PUSH1 0x20 DUP6 ADD PUSH1 0x40 DUP6 ADD MCOPY PUSH0 PUSH1 0x40 DUP3 DUP6 ADD ADD MSTORE PUSH1 0x40 PUSH1 0x1F NOT PUSH1 0x1F DUP4 ADD AND DUP5 ADD ADD SWAP2 POP POP SWAP3 SWAP2 POP POP JUMP JUMPDEST PUSH0 PUSH1 0x20 DUP3 DUP5 SUB SLT ISZERO PUSH2 0x2DA JUMPI PUSH0 DUP1 REVERT JUMPDEST DUP2 CALLDATALOAD DUP1 ISZERO ISZERO DUP2 EQ PUSH2 0x28E JUMPI PUSH0 DUP1 REVERT JUMPDEST PUSH1 0x1 DUP2 DUP2 SHR SWAP1 DUP3 AND DUP1 PUSH2 0x2FD JUMPI PUSH1 0x7F DUP3 AND SWAP2 POP JUMPDEST PUSH1 0x20 DUP3 LT DUP2 SUB PUSH2 0x31B JUMPI PUSH4 0x4E487B71 PUSH1 0xE0 SHL PUSH0 MSTORE PUSH1 0x22 PUSH1 0x4 MSTORE PUSH1 0x24 PUSH0 REVERT JUMPDEST POP SWAP2 SWAP1 POP JUMP JUMPDEST PUSH0 PUSH1 0x1 DUP3 ADD PUSH2 0x33E JUMPI PUSH4 0x4E487B71 PUSH1 0xE0 SHL PUSH0 MSTORE PUSH1 0x11 PUSH1 0x4 MSTORE PUSH1 0x24 PUSH0 REVERT JUMPDEST POP PUSH1 0x1 ADD SWAP1 JUMP INVALID LOG2 PUSH5 0x6970667358 0x22 SLT KECCAK256 LOG2 CALLDATASIZE 0x28 SWAP9 GT DUP13 LOG1 BLOBBASEFEE STATICCALL 0xDA STATICCALL 0xC2 0x27 DELEGATECALL 0xC4 NUMBER OR 0xAF DUP3 0x21 PUSH0 0xA8 MUL DUP5 0xF6 0x26 0xCE MCOPY BALANCE CALL DELEGATECALL SWAP15 PUSH5 0x736F6C6343 STOP ADDMOD BYTE STOP CALLER "
				},
				"gasEstimates": {
					"creation": {
						"codeDepositCost": "178200",
						"executionCost": "infinite",
						"totalCost": "infinite"
					},
					"external": {
						"creator()": "2326",
						"getVotes()": "4451",
						"hasVoted(address)": "2516",
						"noVotes()": "2338",
						"title()": "infinite",
						"vote(bool)": "51065",
						"yesVotes()": "2360"
					}
				},
				"methodIdentifiers": {
					"creator()": "02d05d3f",
					"getVotes()": "0dc96015",
					"hasVoted(address)": "09eef43e",
					"noVotes()": "b5b47f42",
					"title()": "4a79d50c",
					"vote(bool)": "4b9f5c98",
					"yesVotes()": "fb286c65"
				}
			},
			"storageLayout": {
				"storage": [
					{
						"astId": 3,
						"contract": "newbatch.sol:Vote",
						"label": "title",
						"offset": 0,
						"slot": "0",
						"type": "t_string_storage"
					},
					{
						"astId": 5,
						"contract": "newbatch.sol:Vote",
						"label": "creator",
						"offset": 0,
						"slot": "1",
						"type": "t_address"
					},
					{
						"astId": 9,
						"contract": "newbatch.sol:Vote",
						"label": "hasVoted",
						"offset": 0,
						"slot": "2",
						"type": "t_mapping(t_address,t_bool)"
					},
					{
						"astId": 11,
						"contract": "newbatch.sol:Vote",
						"label": "yesVotes",
						"offset": 0,
						"slot": "3",
						"type": "t_uint256"
					},
					{
						"astId": 13,
						"contract": "newbatch.sol:Vote",
						"label": "noVotes",
						"offset": 0,
						"slot": "4",
						"type": "t_uint256"
					}
				],
				"types": {
					"t_address": {
						"encoding": "inplace",
						"label": "address",
						"numberOfBytes": "20"
					},
					"t_bool": {
						"encoding": "inplace",
						"label": "bool",
						"numberOfBytes": "1"
					},
					"t_mapping(t_address,t_bool)": {
						"encoding": "mapping",
						"key": "t_address",
						"label": "mapping(address => bool)",
						"numberOfBytes": "32",
						"value": "t_bool"
					},
					"t_string_storage": {
						"encoding": "bytes",
						"label": "string",
						"numberOfBytes": "32"
					},
					"t_uint256": {
						"encoding": "inplace",
						"label": "uint256",
						"numberOfBytes": "32"
					}
				}
			},
			"userdoc": {
				"kind": "user",
				"methods": {},
				"version": 1
			}
		}
	}
}