{
	"quality-unique-contracts/DonationTracker.sol": {
		"DonationTracker": {
			"abi": [
				{
					"anonymous": false,
					"inputs": [
						{
							"indexed": true,
							"internalType": "address",
							"name": "donor",
							"type": "address"
						},
						{
							"indexed": false,
							"internalType": "uint256",
							"name": "amount",
							"type": "uint256"
						}
					],
					"name": "Donated",
					"type": "event"
				},
				{
					"inputs": [
						{
							"internalType": "address",
							"name": "",
							"type": "address"
						}
					],
					"name": "donations",
					"outputs": [
						{
							"internalType": "uint256",
							"name": "",
							"type": "uint256"
						}
					],
					"stateMutability": "view",
					"type": "function"
				},
				{
					"inputs": [],
					"name": "totalDonated",
					"outputs": [
						{
							"internalType": "uint256",
							"name": "",
							"type": "uint256"
						}
					],
					"stateMutability": "view",
					"type": "function"
				},
				{
					"stateMutability": "payable",
					"type": "receive"
				}
			],
			"devdoc": {
				"kind": "dev",
				"methods": {},
				"version": 1
			},
			"evm": {
				"assembly": "    /* \"quality-unique-contracts/DonationTracker.sol\":59:430  contract DonationTracker {... */\n  mstore(0x40, 0x80)\n  callvalue\n  dup1\n  iszero\n  tag_1\n  jumpi\n  0x00\n  dup1\n  revert\ntag_1:\n  pop\n  dataSize(sub_0)\n  dup1\n  dataOffset(sub_0)\n  0x00\n  codecopy\n  0x00\n  return\nstop\n\nsub_0: assembly {\n        /* \"quality-unique-contracts/DonationTracker.sol\":59:430  contract DonationTracker {... */\n      mstore(0x40, 0x80)\n      jumpi(tag_1, lt(calldatasize, 0x04))\n      shr(0xe0, calldataload(0x00))\n      dup1\n      0xb37044\n      eq\n      tag_3\n      jumpi\n      dup1\n      0xcc6cb19a\n      eq\n      tag_4\n      jumpi\n      0x00\n      dup1\n      revert\n    tag_1:\n      jumpi(tag_2, calldatasize)\n        /* \"quality-unique-contracts/DonationTracker.sol\":247:257  msg.sender */\n      caller\n        /* \"quality-unique-contracts/DonationTracker.sol\":237:246  donations */\n      0x00\n        /* \"quality-unique-contracts/DonationTracker.sol\":237:258  donations[msg.sender] */\n      swap1\n      dup2\n      mstore\n      0x20\n      dup2\n      swap1\n      mstore\n      0x40\n      dup2\n      keccak256\n        /* \"quality-unique-contracts/DonationTracker.sol\":237:271  donations[msg.sender] += msg.value */\n      dup1\n      sload\n        /* \"quality-unique-contracts/DonationTracker.sol\":262:271  msg.value */\n      callvalue\n      swap3\n        /* \"quality-unique-contracts/DonationTracker.sol\":237:246  donations */\n      swap1\n        /* \"quality-unique-contracts/DonationTracker.sol\":237:271  donations[msg.sender] += msg.value */\n      tag_7\n      swap1\n        /* \"quality-unique-contracts/DonationTracker.sol\":262:271  msg.value */\n      dup5\n      swap1\n        /* \"quality-unique-contracts/DonationTracker.sol\":237:271  donations[msg.sender] += msg.value */\n      tag_8\n      jump\t// in\n    tag_7:\n      swap1\n      swap2\n      sstore\n      pop\n      pop\n        /* \"quality-unique-contracts/DonationTracker.sol\":286:316  Donated(msg.sender, msg.value) */\n      mload(0x40)\n        /* \"quality-unique-contracts/DonationTracker.sol\":306:315  msg.value */\n      callvalue\n        /* \"#utility.yul\":387:412   */\n      dup2\n      mstore\n        /* \"quality-unique-contracts/DonationTracker.sol\":294:304  msg.sender */\n      caller\n      swap1\n        /* \"quality-unique-contracts/DonationTracker.sol\":286:316  Donated(msg.sender, msg.value) */\n      0x2a01595cddf097c90216094025db714da3f4e5bd8877b56ba86a24ecead8e543\n      swap1\n        /* \"#utility.yul\":375:377   */\n      0x20\n        /* \"#utility.yul\":360:378   */\n      add\n        /* \"quality-unique-contracts/DonationTracker.sol\":286:316  Donated(msg.sender, msg.value) */\n      mload(0x40)\n      dup1\n      swap2\n      sub\n      swap1\n      log2\n        /* \"quality-unique-contracts/DonationTracker.sol\":59:430  contract DonationTracker {... */\n      stop\n    tag_2:\n      0x00\n      dup1\n      revert\n        /* \"quality-unique-contracts/DonationTracker.sol\":329:428  function totalDonated() public view returns (uint256) {... */\n    tag_3:\n      callvalue\n      dup1\n      iszero\n      tag_11\n      jumpi\n      0x00\n      dup1\n      revert\n    tag_11:\n      pop\n        /* \"quality-unique-contracts/DonationTracker.sol\":400:421  address(this).balance */\n      selfbalance\n        /* \"quality-unique-contracts/DonationTracker.sol\":329:428  function totalDonated() public view returns (uint256) {... */\n    tag_12:\n      mload(0x40)\n        /* \"#utility.yul\":387:412   */\n      swap1\n      dup2\n      mstore\n        /* \"#utility.yul\":375:377   */\n      0x20\n        /* \"#utility.yul\":360:378   */\n      add\n        /* \"quality-unique-contracts/DonationTracker.sol\":329:428  function totalDonated() public view returns (uint256) {... */\n      mload(0x40)\n      dup1\n      swap2\n      sub\n      swap1\n      return\n        /* \"quality-unique-contracts/DonationTracker.sol\":90:134  mapping(address => uint256) public donations */\n    tag_4:\n      callvalue\n      dup1\n      iszero\n      tag_15\n      jumpi\n      0x00\n      dup1\n      revert\n    tag_15:\n      pop\n      tag_12\n      tag_17\n      calldatasize\n      0x04\n      tag_18\n      jump\t// in\n    tag_17:\n      0x00\n      0x20\n      dup2\n      swap1\n      mstore\n      swap1\n      dup2\n      mstore\n      0x40\n      swap1\n      keccak256\n      sload\n      dup2\n      jump\n        /* \"#utility.yul\":14:236   */\n    tag_8:\n        /* \"#utility.yul\":79:88   */\n      dup1\n      dup3\n      add\n        /* \"#utility.yul\":100:110   */\n      dup1\n      dup3\n      gt\n        /* \"#utility.yul\":97:230   */\n      iszero\n      tag_24\n      jumpi\n        /* \"#utility.yul\":152:162   */\n      0x4e487b71\n        /* \"#utility.yul\":147:150   */\n      0xe0\n        /* \"#utility.yul\":143:163   */\n      shl\n        /* \"#utility.yul\":140:141   */\n      0x00\n        /* \"#utility.yul\":133:164   */\n      mstore\n        /* \"#utility.yul\":187:191   */\n      0x11\n        /* \"#utility.yul\":184:185   */\n      0x04\n        /* \"#utility.yul\":177:192   */\n      mstore\n        /* \"#utility.yul\":215:219   */\n      0x24\n        /* \"#utility.yul\":212:213   */\n      0x00\n        /* \"#utility.yul\":205:220   */\n      revert\n        /* \"#utility.yul\":97:230   */\n    tag_24:\n        /* \"#utility.yul\":14:236   */\n      swap3\n      swap2\n      pop\n      pop\n      jump\t// out\n        /* \"#utility.yul\":423:709   */\n    tag_18:\n        /* \"#utility.yul\":482:488   */\n      0x00\n        /* \"#utility.yul\":535:537   */\n      0x20\n        /* \"#utility.yul\":523:532   */\n      dup3\n        /* \"#utility.yul\":514:521   */\n      dup5\n        /* \"#utility.yul\":510:533   */\n      sub\n        /* \"#utility.yul\":506:538   */\n      slt\n        /* \"#utility.yul\":503:555   */\n      iszero\n      tag_27\n      jumpi\n        /* \"#utility.yul\":551:552   */\n      0x00\n        /* \"#utility.yul\":548:549   */\n      dup1\n        /* \"#utility.yul\":541:553   */\n      revert\n        /* \"#utility.yul\":503:555   */\n    tag_27:\n        /* \"#utility.yul\":577:600   */\n      dup2\n      calldataload\n      sub(shl(0xa0, 0x01), 0x01)\n        /* \"#utility.yul\":629:660   */\n      dup2\n      and\n        /* \"#utility.yul\":619:661   */\n      dup2\n      eq\n        /* \"#utility.yul\":609:679   */\n      tag_28\n      jumpi\n        /* \"#utility.yul\":675:676   */\n      0x00\n        /* \"#utility.yul\":672:673   */\n      dup1\n        /* \"#utility.yul\":665:677   */\n      revert\n        /* \"#utility.yul\":609:679   */\n    tag_28:\n        /* \"#utility.yul\":698:703   */\n      swap4\n        /* \"#utility.yul\":423:709   */\n      swap3\n      pop\n      pop\n      pop\n      jump\t// out\n\n    auxdata: 0xa26469706673582212205a8a93c66391acf69d892ab248c6587198035cca5999203c2b8f76457c10a28764736f6c634300081a0033\n}\n",
				"bytecode": {
					"linkReferences": {},
					"object": "6080604052348015600e575f80fd5b506101608061001c5f395ff3fe60806040526004361061002a575f3560e01c8062b370441461008d578063cc6cb19a146100ad575f80fd5b3661008957335f908152602081905260408120805434929061004d9084906100d8565b909155505060405134815233907f2a01595cddf097c90216094025db714da3f4e5bd8877b56ba86a24ecead8e5439060200160405180910390a2005b5f80fd5b348015610098575f80fd5b50475b60405190815260200160405180910390f35b3480156100b8575f80fd5b5061009b6100c73660046100fd565b5f6020819052908152604090205481565b808201808211156100f757634e487b7160e01b5f52601160045260245ffd5b92915050565b5f6020828403121561010d575f80fd5b81356001600160a01b0381168114610123575f80fd5b939250505056fea26469706673582212205a8a93c66391acf69d892ab248c6587198035cca5999203c2b8f76457c10a28764736f6c634300081a0033",
					"opcodes": "PUSH1 0x80 PUSH1 0x40 MSTORE CALLVALUE DUP1 ISZERO PUSH1 0xE JUMPI PUSH0 DUP1 REVERT JUMPDEST POP PUSH2 0x160 DUP1 PUSH2 0x1C PUSH0 CODECOPY PUSH0 RETURN INVALID PUSH1 0x80 PUSH1 0x40 MSTORE PUSH1 0x4 CALLDATASIZE LT PUSH2 0x2A JUMPI PUSH0 CALLDATALOAD PUSH1 0xE0 SHR DUP1 PUSH3 0xB37044 EQ PUSH2 0x8D JUMPI DUP1 PUSH4 0xCC6CB19A EQ PUSH2 0xAD JUMPI PUSH0 DUP1 REVERT JUMPDEST CALLDATASIZE PUSH2 0x89 JUMPI CALLER PUSH0 SWAP1 DUP2 MSTORE PUSH1 0x20 DUP2 SWAP1 MSTORE PUSH1 0x40 DUP2 KECCAK256 DUP1 SLOAD CALLVALUE SWAP3 SWAP1 PUSH2 0x4D SWAP1 DUP5 SWAP1 PUSH2 0xD8 JUMP JUMPDEST SWAP1 SWAP2 SSTORE POP POP PUSH1 0x40 MLOAD CALLVALUE DUP2 MSTORE CALLER SWAP1 PUSH32 0x2A01595CDDF097C90216094025DB714DA3F4E5BD8877B56BA86A24ECEAD8E543 SWAP1 PUSH1 0x20 ADD PUSH1 0x40 MLOAD DUP1 SWAP2 SUB SWAP1 LOG2 STOP JUMPDEST PUSH0 DUP1 REVERT JUMPDEST CALLVALUE DUP1 ISZERO PUSH2 0x98 JUMPI PUSH0 DUP1 REVERT JUMPDEST POP SELFBALANCE JUMPDEST PUSH1 0x40 MLOAD SWAP1 DUP2 MSTORE PUSH1 0x20 ADD PUSH1 0x40 MLOAD DUP1 SWAP2 SUB SWAP1 RETURN JUMPDEST CALLVALUE DUP1 ISZERO PUSH2 0xB8 JUMPI PUSH0 DUP1 REVERT JUMPDEST POP PUSH2 0x9B PUSH2 0xC7 CALLDATASIZE PUSH1 0x4 PUSH2 0xFD JUMP JUMPDEST PUSH0 PUSH1 0x20 DUP2 SWAP1 MSTORE SWAP1 DUP2 MSTORE PUSH1 0x40 SWAP1 KECCAK256 SLOAD DUP2 JUMP JUMPDEST DUP1 DUP3 ADD DUP1 DUP3 GT ISZERO PUSH2 0xF7 JUMPI PUSH4 0x4E487B71 PUSH1 0xE0 SHL PUSH0 MSTORE PUSH1 0x11 PUSH1 0x4 MSTORE PUSH1 0x24 PUSH0 REVERT JUMPDEST SWAP3 SWAP2 POP POP JUMP JUMPDEST PUSH0 PUSH1 0x20 DUP3 DUP5 SUB SLT ISZERO PUSH2 0x10D JUMPI PUSH0 DUP1 REVERT JUMPDEST DUP2 CALLDATALOAD PUSH1 0x1 PUSH1 0x1 PUSH1 0xA0 SHL SUB DUP2 AND DUP2 EQ PUSH2 0x123 JUMPI PUSH0 DUP1 REVERT JUMPDEST SWAP4 SWAP3 POP POP POP JUMP INVALID LOG2 PUSH5 0x6970667358 0x22 SLT KECCAK256 GAS DUP11 SWAP4 0xC6 PUSH4 0x91ACF69D DUP10 0x2A 0xB2 BASEFEE 0xC6 PC PUSH18 0x98035CCA5999203C2B8F76457C10A2876473 PUSH16 0x6C634300081A00330000000000000000 "
				},
				"gasEstimates": {
					"creation": {
						"codeDepositCost": "70400",
						"executionCost": "115",
						"totalCost": "70515"
					},
					"external": {
						"donations(address)": "2472",
						"totalDonated()": "148"
					}
				},
				"methodIdentifiers": {
					"donations(address)": "cc6cb19a",
					"totalDonated()": "00b37044"
				}
			},
			"storageLayout": {
				"storage": [
					{
						"astId": 5,
						"contract": "quality-unique-contracts/DonationTracker.sol:DonationTracker",
						"label": "donations",
						"offset": 0,
						"slot": "0",
						"type": "t_mapping(t_address,t_uint256)"
					}
				],
				"types": {
					"t_address": {
						"encoding": "inplace",
						"label": "address",
						"numberOfBytes": "20"
					},
					"t_mapping(t_address,t_uint256)": {
						"encoding": "mapping",
						"key": "t_address",
						"label": "mapping(address => uint256)",
						"numberOfBytes": "32",
						"value": "t_uint256"
					},
					"t_uint256": {
						"encoding": "inplace",
						"label": "uint256",
						"numberOfBytes": "32"
					}
				}
			},
			"userdoc": {
				"kind": "user",
				"methods": {},
				"version": 1
			}
		}
	}
}