{
	"hard.sol": {
		"Deploy30": {
			"abi": [
				{
					"inputs": [],
					"name": "deployAll",
					"outputs": [],
					"stateMutability": "nonpayable",
					"type": "function"
				},
				{
					"inputs": [
						{
							"internalType": "uint256",
							"name": "",
							"type": "uint256"
						}
					],
					"name": "deployedContracts",
					"outputs": [
						{
							"internalType": "contract Token",
							"name": "",
							"type": "address"
						}
					],
					"stateMutability": "view",
					"type": "function"
				},
				{
					"inputs": [
						{
							"internalType": "uint256",
							"name": "index",
							"type": "uint256"
						}
					],
					"name": "getDeployed",
					"outputs": [
						{
							"internalType": "address",
							"name": "",
							"type": "address"
						}
					],
					"stateMutability": "view",
					"type": "function"
				}
			],
			"devdoc": {
				"kind": "dev",
				"methods": {},
				"version": 1
			},
			"evm": {
				"assembly": "    /* \"hard.sol\":814:2030  contract Deploy30 {... */\n  mstore(0x40, 0x80)\n  callvalue\n  dup1\n  iszero\n  tag_1\n  jumpi\n  0x00\n  dup1\n  revert\ntag_1:\n  pop\n  dataSize(sub_0)\n  dup1\n  dataOffset(sub_0)\n  0x00\n  codecopy\n  0x00\n  return\nstop\n\nsub_0: assembly {\n        /* \"hard.sol\":814:2030  contract Deploy30 {... */\n      mstore(0x40, 0x80)\n      callvalue\n      dup1\n      iszero\n      tag_1\n      jumpi\n      0x00\n      dup1\n      revert\n    tag_1:\n      pop\n      jumpi(tag_2, lt(calldatasize, 0x04))\n      shr(0xe0, calldataload(0x00))\n      dup1\n      0x0680d1b8\n      eq\n      tag_3\n      jumpi\n      dup1\n      0x2d823335\n      eq\n      tag_4\n      jumpi\n      dup1\n      0x9ad1ee10\n      eq\n      tag_5\n      jumpi\n    tag_2:\n      0x00\n      dup1\n      revert\n        /* \"hard.sol\":1363:1554  function getDeployed(uint index) public view returns (address) {... */\n    tag_3:\n      tag_6\n      tag_7\n      calldatasize\n      0x04\n      tag_8\n      jump\t// in\n    tag_7:\n      tag_9\n      jump\t// in\n    tag_6:\n      mload(0x40)\n      sub(shl(0xa0, 0x01), 0x01)\n        /* \"#utility.yul\":363:395   */\n      swap1\n      swap2\n      and\n        /* \"#utility.yul\":345:396   */\n      dup2\n      mstore\n        /* \"#utility.yul\":333:335   */\n      0x20\n        /* \"#utility.yul\":318:336   */\n      add\n        /* \"hard.sol\":1363:1554  function getDeployed(uint index) public view returns (address) {... */\n      mload(0x40)\n      dup1\n      swap2\n      sub\n      swap1\n      return\n        /* \"hard.sol\":880:1355  function deployAll() public {... */\n    tag_4:\n      tag_12\n      tag_13\n      jump\t// in\n    tag_12:\n      stop\n        /* \"hard.sol\":839:871  Token[] public deployedContracts */\n    tag_5:\n      tag_6\n      tag_15\n      calldatasize\n      0x04\n      tag_8\n      jump\t// in\n    tag_15:\n      tag_16\n      jump\t// in\n        /* \"hard.sol\":1363:1554  function getDeployed(uint index) public view returns (address) {... */\n    tag_9:\n        /* \"hard.sol\":1417:1424  address */\n      0x00\n        /* \"hard.sol\":1453:1477  deployedContracts.length */\n      dup1\n      sload\n        /* \"hard.sol\":1445:1477  index < deployedContracts.length */\n      dup3\n      lt\n        /* \"hard.sol\":1437:1495  require(index < deployedContracts.length, \"Out of bounds\") */\n      tag_20\n      jumpi\n      mload(0x40)\n      shl(0xe5, 0x461bcd)\n      dup2\n      mstore\n        /* \"#utility.yul\":829:831   */\n      0x20\n        /* \"hard.sol\":1437:1495  require(index < deployedContracts.length, \"Out of bounds\") */\n      0x04\n      dup3\n      add\n        /* \"#utility.yul\":811:832   */\n      mstore\n        /* \"#utility.yul\":868:870   */\n      0x0d\n        /* \"#utility.yul\":848:866   */\n      0x24\n      dup3\n      add\n        /* \"#utility.yul\":841:871   */\n      mstore\n      shl(0x98, 0x4f7574206f6620626f756e6473)\n        /* \"#utility.yul\":887:905   */\n      0x44\n      dup3\n      add\n        /* \"#utility.yul\":880:923   */\n      mstore\n        /* \"#utility.yul\":940:958   */\n      0x64\n      add\n        /* \"hard.sol\":1437:1495  require(index < deployedContracts.length, \"Out of bounds\") */\n    tag_21:\n      mload(0x40)\n      dup1\n      swap2\n      sub\n      swap1\n      revert\n    tag_20:\n        /* \"hard.sol\":1521:1538  deployedContracts */\n      0x00\n        /* \"hard.sol\":1539:1544  index */\n      dup3\n        /* \"hard.sol\":1521:1545  deployedContracts[index] */\n      dup2\n      sload\n      dup2\n      lt\n      tag_24\n      jumpi\n      tag_24\n      tag_25\n      jump\t// in\n    tag_24:\n      0x00\n      swap2\n      dup3\n      mstore\n      0x20\n      swap1\n      swap2\n      keccak256\n      add\n      sload\n      sub(shl(0xa0, 0x01), 0x01)\n      and\n      swap3\n        /* \"hard.sol\":1363:1554  function getDeployed(uint index) public view returns (address) {... */\n      swap2\n      pop\n      pop\n      jump\t// out\n        /* \"hard.sol\":880:1355  function deployAll() public {... */\n    tag_13:\n        /* \"hard.sol\":927:944  deployedContracts */\n      0x00\n        /* \"hard.sol\":927:951  deployedContracts.length */\n      sload\n        /* \"hard.sol\":927:956  deployedContracts.length == 0 */\n      iszero\n        /* \"hard.sol\":919:977  require(deployedContracts.length == 0, \"Already deployed\") */\n      tag_28\n      jumpi\n      mload(0x40)\n      shl(0xe5, 0x461bcd)\n      dup2\n      mstore\n        /* \"#utility.yul\":1303:1305   */\n      0x20\n        /* \"hard.sol\":919:977  require(deployedContracts.length == 0, \"Already deployed\") */\n      0x04\n      dup3\n      add\n        /* \"#utility.yul\":1285:1306   */\n      mstore\n        /* \"#utility.yul\":1342:1344   */\n      0x10\n        /* \"#utility.yul\":1322:1340   */\n      0x24\n      dup3\n      add\n        /* \"#utility.yul\":1315:1345   */\n      mstore\n      shl(0x82, 0x105b1c9958591e4819195c1b1bde5959)\n        /* \"#utility.yul\":1361:1379   */\n      0x44\n      dup3\n      add\n        /* \"#utility.yul\":1354:1400   */\n      mstore\n        /* \"#utility.yul\":1417:1435   */\n      0x64\n      add\n        /* \"hard.sol\":919:977  require(deployedContracts.length == 0, \"Already deployed\") */\n      tag_21\n        /* \"#utility.yul\":1101:1441   */\n      jump\n        /* \"hard.sol\":919:977  require(deployedContracts.length == 0, \"Already deployed\") */\n    tag_28:\n        /* \"hard.sol\":1004:1005  1 */\n      0x01\n        /* \"hard.sol\":990:1348  for (uint i = 1; i <= 90; i++) {... */\n    tag_31:\n        /* \"hard.sol\":1012:1014  90 */\n      0x5a\n        /* \"hard.sol\":1007:1008  i */\n      dup2\n        /* \"hard.sol\":1007:1014  i <= 90 */\n      gt\n        /* \"hard.sol\":990:1348  for (uint i = 1; i <= 90; i++) {... */\n      tag_32\n      jumpi\n        /* \"hard.sol\":1036:1054  string memory name */\n      0x00\n        /* \"hard.sol\":1090:1101  uint2str(i) */\n      tag_34\n        /* \"hard.sol\":1099:1100  i */\n      dup3\n        /* \"hard.sol\":1090:1098  uint2str */\n      tag_35\n        /* \"hard.sol\":1090:1101  uint2str(i) */\n      jump\t// in\n    tag_34:\n        /* \"hard.sol\":1064:1102  abi.encodePacked(\"Token\", uint2str(i)) */\n      add(0x20, mload(0x40))\n      tag_36\n      swap2\n      swap1\n      tag_37\n      jump\t// in\n    tag_36:\n      mload(0x40)\n      0x20\n      dup2\n      dup4\n      sub\n      sub\n      dup2\n      mstore\n      swap1\n      0x40\n      mstore\n        /* \"hard.sol\":1036:1103  string memory name = string(abi.encodePacked(\"Token\", uint2str(i))) */\n      swap1\n      pop\n        /* \"hard.sol\":1118:1138  string memory symbol */\n      0x00\n        /* \"hard.sol\":1171:1182  uint2str(i) */\n      tag_38\n        /* \"hard.sol\":1180:1181  i */\n      dup4\n        /* \"hard.sol\":1171:1179  uint2str */\n      tag_35\n        /* \"hard.sol\":1171:1182  uint2str(i) */\n      jump\t// in\n    tag_38:\n        /* \"hard.sol\":1148:1183  abi.encodePacked(\"TK\", uint2str(i)) */\n      add(0x20, mload(0x40))\n      tag_39\n      swap2\n      swap1\n      tag_40\n      jump\t// in\n    tag_39:\n      0x40\n      dup1\n      mload\n      not(0x1f)\n      dup2\n      dup5\n      sub\n      add\n      dup2\n      mstore\n      swap2\n      swap1\n      mstore\n      swap1\n      pop\n        /* \"hard.sol\":1199:1213  uint256 supply */\n      0x00\n        /* \"hard.sol\":1216:1230  i * 1000 ether */\n      tag_41\n        /* \"hard.sol\":1216:1217  i */\n      dup5\n        /* \"hard.sol\":1220:1230  1000 ether */\n      0x3635c9adc5dea00000\n        /* \"hard.sol\":1216:1230  i * 1000 ether */\n      tag_42\n      jump\t// in\n    tag_41:\n        /* \"hard.sol\":1199:1230  uint256 supply = i * 1000 ether */\n      swap1\n      pop\n        /* \"hard.sol\":1247:1258  Token token */\n      0x00\n        /* \"hard.sol\":1271:1275  name */\n      dup4\n        /* \"hard.sol\":1277:1283  symbol */\n      dup4\n        /* \"hard.sol\":1285:1291  supply */\n      dup4\n        /* \"hard.sol\":1261:1292  new Token(name, symbol, supply) */\n      mload(0x40)\n      tag_43\n      swap1\n      tag_44\n      jump\t// in\n    tag_43:\n      tag_45\n      swap4\n      swap3\n      swap2\n      swap1\n      tag_46\n      jump\t// in\n    tag_45:\n      mload(0x40)\n      dup1\n      swap2\n      sub\n      swap1\n      0x00\n      create\n      dup1\n      iszero\n      dup1\n      iszero\n      tag_47\n      jumpi\n      returndatasize\n      0x00\n      dup1\n      returndatacopy\n      revert(0x00, returndatasize)\n    tag_47:\n      pop\n        /* \"hard.sol\":1307:1324  deployedContracts */\n      0x00\n        /* \"hard.sol\":1307:1336  deployedContracts.push(token) */\n      dup1\n      sload\n      0x01\n      dup2\n      add\n      dup3\n      sstore\n      swap1\n      dup1\n      mstore\n      0x290decd9548b62a8d60345a988386fc84ba6bc95484008f6362f93160ef3e563\n      add\n      dup1\n      sload\n      not(sub(shl(0xa0, 0x01), 0x01))\n      and\n      sub(shl(0xa0, 0x01), 0x01)\n      swap3\n      swap1\n      swap3\n      and\n      swap2\n      swap1\n      swap2\n      or\n      swap1\n      sstore\n      pop\n        /* \"hard.sol\":1016:1019  i++ */\n      dup4\n      swap3\n      pop\n      tag_49\n      swap2\n      pop\n      dup3\n      swap1\n      pop\n      tag_50\n      jump\t// in\n    tag_49:\n      swap2\n      pop\n      pop\n        /* \"hard.sol\":990:1348  for (uint i = 1; i <= 90; i++) {... */\n      jump(tag_31)\n    tag_32:\n      pop\n        /* \"hard.sol\":880:1355  function deployAll() public {... */\n      jump\t// out\n        /* \"hard.sol\":839:871  Token[] public deployedContracts */\n    tag_16:\n      0x00\n      dup2\n      dup2\n      sload\n      dup2\n      lt\n      tag_51\n      jumpi\n      0x00\n      dup1\n      revert\n    tag_51:\n      0x00\n      swap2\n      dup3\n      mstore\n      0x20\n      swap1\n      swap2\n      keccak256\n      add\n      sload\n      sub(shl(0xa0, 0x01), 0x01)\n      and\n      swap1\n      pop\n      dup2\n      jump\t// out\n        /* \"hard.sol\":1562:2027  function uint2str(uint _i) internal pure returns (string memory str) {... */\n    tag_35:\n        /* \"hard.sol\":1612:1629  string memory str */\n      0x60\n        /* \"hard.sol\":1646:1648  _i */\n      dup2\n        /* \"hard.sol\":1652:1653  0 */\n      0x00\n        /* \"hard.sol\":1646:1653  _i == 0 */\n      sub\n        /* \"hard.sol\":1642:1665  if (_i == 0) return \"0\" */\n      tag_54\n      jumpi\n      pop\n      pop\n        /* \"hard.sol\":1655:1665  return \"0\" */\n      0x40\n      dup1\n      mload\n      dup1\n      dup3\n      add\n      swap1\n      swap2\n      mstore\n      0x01\n      dup2\n      mstore\n      shl(0xfc, 0x03)\n      0x20\n      dup3\n      add\n      mstore\n      swap1\n        /* \"hard.sol\":1562:2027  function uint2str(uint _i) internal pure returns (string memory str) {... */\n      jump\t// out\n        /* \"hard.sol\":1642:1665  if (_i == 0) return \"0\" */\n    tag_54:\n        /* \"hard.sol\":1685:1687  _i */\n      dup2\n        /* \"hard.sol\":1676:1682  uint j */\n      0x00\n        /* \"hard.sol\":1717:1786  while (j != 0) {... */\n    tag_55:\n        /* \"hard.sol\":1724:1730  j != 0 */\n      dup2\n      iszero\n        /* \"hard.sol\":1717:1786  while (j != 0) {... */\n      tag_56\n      jumpi\n        /* \"hard.sol\":1747:1752  len++ */\n      dup1\n      tag_57\n      dup2\n      tag_50\n      jump\t// in\n    tag_57:\n      swap2\n      pop\n        /* \"hard.sol\":1767:1774  j /= 10 */\n      tag_58\n      swap1\n      pop\n        /* \"hard.sol\":1772:1774  10 */\n      0x0a\n        /* \"hard.sol\":1767:1774  j /= 10 */\n      dup4\n      tag_59\n      jump\t// in\n    tag_58:\n      swap2\n      pop\n        /* \"hard.sol\":1717:1786  while (j != 0) {... */\n      jump(tag_55)\n    tag_56:\n        /* \"hard.sol\":1796:1813  bytes memory bstr */\n      0x00\n        /* \"hard.sol\":1826:1829  len */\n      dup2\n        /* \"hard.sol\":1816:1830  new bytes(len) */\n      0xffffffffffffffff\n      dup2\n      gt\n      iszero\n      tag_61\n      jumpi\n      tag_61\n      tag_62\n      jump\t// in\n    tag_61:\n      mload(0x40)\n      swap1\n      dup1\n      dup3\n      mstore\n      dup1\n      0x1f\n      add\n      not(0x1f)\n      and\n      0x20\n      add\n      dup3\n      add\n      0x40\n      mstore\n      dup1\n      iszero\n      tag_63\n      jumpi\n      0x20\n      dup3\n      add\n      dup2\n      dup1\n      calldatasize\n      dup4\n      calldatacopy\n      add\n      swap1\n      pop\n    tag_63:\n      pop\n        /* \"hard.sol\":1796:1830  bytes memory bstr = new bytes(len) */\n      swap1\n      pop\n        /* \"hard.sol\":1850:1853  len */\n      dup2\n        /* \"hard.sol\":1864:1991  while (_i != 0) {... */\n    tag_64:\n        /* \"hard.sol\":1871:1878  _i != 0 */\n      dup6\n      iszero\n        /* \"hard.sol\":1864:1991  while (_i != 0) {... */\n      tag_65\n      jumpi\n        /* \"hard.sol\":1899:1904  k - 1 */\n      tag_66\n        /* \"hard.sol\":1903:1904  1 */\n      0x01\n        /* \"hard.sol\":1899:1900  k */\n      dup3\n        /* \"hard.sol\":1899:1904  k - 1 */\n      tag_67\n      jump\t// in\n    tag_66:\n        /* \"hard.sol\":1895:1904  k = k - 1 */\n      swap1\n      pop\n        /* \"hard.sol\":1947:1954  _i % 10 */\n      tag_68\n        /* \"hard.sol\":1952:1954  10 */\n      0x0a\n        /* \"hard.sol\":1947:1949  _i */\n      dup8\n        /* \"hard.sol\":1947:1954  _i % 10 */\n      tag_69\n      jump\t// in\n    tag_68:\n        /* \"hard.sol\":1942:1954  48 + _i % 10 */\n      tag_70\n      swap1\n        /* \"hard.sol\":1942:1944  48 */\n      0x30\n        /* \"hard.sol\":1942:1954  48 + _i % 10 */\n      tag_71\n      jump\t// in\n    tag_70:\n        /* \"hard.sol\":1929:1956  bytes1(uint8(48 + _i % 10)) */\n      0xf8\n      shl\n        /* \"hard.sol\":1919:1923  bstr */\n      dup3\n        /* \"hard.sol\":1924:1925  k */\n      dup3\n        /* \"hard.sol\":1919:1926  bstr[k] */\n      dup2\n      mload\n      dup2\n      lt\n      tag_73\n      jumpi\n      tag_73\n      tag_25\n      jump\t// in\n    tag_73:\n      0x20\n      add\n      add\n        /* \"hard.sol\":1919:1956  bstr[k] = bytes1(uint8(48 + _i % 10)) */\n      swap1\n      not(sub(shl(0xf8, 0x01), 0x01))\n      and\n      swap1\n      dup2\n      0x00\n      byte\n      swap1\n      mstore8\n      pop\n        /* \"hard.sol\":1971:1979  _i /= 10 */\n      tag_74\n        /* \"hard.sol\":1977:1979  10 */\n      0x0a\n        /* \"hard.sol\":1971:1979  _i /= 10 */\n      dup8\n      tag_59\n      jump\t// in\n    tag_74:\n      swap6\n      pop\n        /* \"hard.sol\":1864:1991  while (_i != 0) {... */\n      jump(tag_64)\n    tag_65:\n      pop\n        /* \"hard.sol\":2014:2018  bstr */\n      swap5\n        /* \"hard.sol\":1562:2027  function uint2str(uint _i) internal pure returns (string memory str) {... */\n      swap4\n      pop\n      pop\n      pop\n      pop\n      jump\t// out\n    tag_44:\n      dataSize(sub_0)\n      dup1\n      dataOffset(sub_0)\n      dup4\n      codecopy\n      add\n      swap1\n      jump\t// out\n        /* \"#utility.yul\":14:194   */\n    tag_8:\n        /* \"#utility.yul\":73:79   */\n      0x00\n        /* \"#utility.yul\":126:128   */\n      0x20\n        /* \"#utility.yul\":114:123   */\n      dup3\n        /* \"#utility.yul\":105:112   */\n      dup5\n        /* \"#utility.yul\":101:124   */\n      sub\n        /* \"#utility.yul\":97:129   */\n      slt\n        /* \"#utility.yul\":94:146   */\n      iszero\n      tag_81\n      jumpi\n        /* \"#utility.yul\":142:143   */\n      0x00\n        /* \"#utility.yul\":139:140   */\n      dup1\n        /* \"#utility.yul\":132:144   */\n      revert\n        /* \"#utility.yul\":94:146   */\n    tag_81:\n      pop\n        /* \"#utility.yul\":165:188   */\n      calldataload\n      swap2\n        /* \"#utility.yul\":14:194   */\n      swap1\n      pop\n      jump\t// out\n        /* \"#utility.yul\":969:1096   */\n    tag_25:\n        /* \"#utility.yul\":1030:1040   */\n      0x4e487b71\n        /* \"#utility.yul\":1025:1028   */\n      0xe0\n        /* \"#utility.yul\":1021:1041   */\n      shl\n        /* \"#utility.yul\":1018:1019   */\n      0x00\n        /* \"#utility.yul\":1011:1042   */\n      mstore\n        /* \"#utility.yul\":1061:1065   */\n      0x32\n        /* \"#utility.yul\":1058:1059   */\n      0x04\n        /* \"#utility.yul\":1051:1066   */\n      mstore\n        /* \"#utility.yul\":1085:1089   */\n      0x24\n        /* \"#utility.yul\":1082:1083   */\n      0x00\n        /* \"#utility.yul\":1075:1090   */\n      revert\n        /* \"#utility.yul\":1446:1658   */\n    tag_75:\n        /* \"#utility.yul\":1488:1491   */\n      0x00\n        /* \"#utility.yul\":1526:1531   */\n      dup2\n        /* \"#utility.yul\":1520:1532   */\n      mload\n        /* \"#utility.yul\":1570:1576   */\n      dup1\n        /* \"#utility.yul\":1563:1567   */\n      0x20\n        /* \"#utility.yul\":1556:1561   */\n      dup5\n        /* \"#utility.yul\":1552:1568   */\n      add\n        /* \"#utility.yul\":1547:1550   */\n      dup6\n        /* \"#utility.yul\":1541:1577   */\n      mcopy\n        /* \"#utility.yul\":1632:1633   */\n      0x00\n        /* \"#utility.yul\":1596:1612   */\n      swap4\n      add\n        /* \"#utility.yul\":1621:1634   */\n      swap3\n      dup4\n      mstore\n      pop\n        /* \"#utility.yul\":1596:1612   */\n      swap1\n      swap2\n        /* \"#utility.yul\":1446:1658   */\n      swap1\n      pop\n      jump\t// out\n        /* \"#utility.yul\":1663:1993   */\n    tag_37:\n      shl(0xd9, 0x2a37b5b2b7)\n        /* \"#utility.yul\":1920:1923   */\n      dup2\n        /* \"#utility.yul\":1913:1933   */\n      mstore\n        /* \"#utility.yul\":1895:1898   */\n      0x00\n        /* \"#utility.yul\":1949:1987   */\n      tag_89\n        /* \"#utility.yul\":1984:1985   */\n      0x05\n        /* \"#utility.yul\":1979:1982   */\n      dup4\n        /* \"#utility.yul\":1975:1986   */\n      add\n        /* \"#utility.yul\":1967:1973   */\n      dup5\n        /* \"#utility.yul\":1949:1987   */\n      tag_75\n      jump\t// in\n    tag_89:\n        /* \"#utility.yul\":1942:1987   */\n      swap4\n        /* \"#utility.yul\":1663:1993   */\n      swap3\n      pop\n      pop\n      pop\n      jump\t// out\n        /* \"#utility.yul\":1998:2325   */\n    tag_40:\n      shl(0xf0, 0x544b)\n        /* \"#utility.yul\":2255:2258   */\n      dup2\n        /* \"#utility.yul\":2248:2265   */\n      mstore\n        /* \"#utility.yul\":2230:2233   */\n      0x00\n        /* \"#utility.yul\":2281:2319   */\n      tag_89\n        /* \"#utility.yul\":2316:2317   */\n      0x02\n        /* \"#utility.yul\":2311:2314   */\n      dup4\n        /* \"#utility.yul\":2307:2318   */\n      add\n        /* \"#utility.yul\":2299:2305   */\n      dup5\n        /* \"#utility.yul\":2281:2319   */\n      tag_75\n      jump\t// in\n        /* \"#utility.yul\":2330:2457   */\n    tag_76:\n        /* \"#utility.yul\":2391:2401   */\n      0x4e487b71\n        /* \"#utility.yul\":2386:2389   */\n      0xe0\n        /* \"#utility.yul\":2382:2402   */\n      shl\n        /* \"#utility.yul\":2379:2380   */\n      0x00\n        /* \"#utility.yul\":2372:2403   */\n      mstore\n        /* \"#utility.yul\":2422:2426   */\n      0x11\n        /* \"#utility.yul\":2419:2420   */\n      0x04\n        /* \"#utility.yul\":2412:2427   */\n      mstore\n        /* \"#utility.yul\":2446:2450   */\n      0x24\n        /* \"#utility.yul\":2443:2444   */\n      0x00\n        /* \"#utility.yul\":2436:2451   */\n      revert\n        /* \"#utility.yul\":2462:2630   */\n    tag_42:\n        /* \"#utility.yul\":2535:2544   */\n      dup1\n      dup3\n      mul\n        /* \"#utility.yul\":2566:2575   */\n      dup2\n      iszero\n        /* \"#utility.yul\":2583:2598   */\n      dup3\n      dup3\n      div\n        /* \"#utility.yul\":2577:2599   */\n      dup5\n      eq\n        /* \"#utility.yul\":2563:2600   */\n      or\n        /* \"#utility.yul\":2553:2624   */\n      tag_95\n      jumpi\n        /* \"#utility.yul\":2604:2622   */\n      tag_95\n      tag_76\n      jump\t// in\n    tag_95:\n        /* \"#utility.yul\":2462:2630   */\n      swap3\n      swap2\n      pop\n      pop\n      jump\t// out\n        /* \"#utility.yul\":2635:2935   */\n    tag_77:\n        /* \"#utility.yul\":2688:2691   */\n      0x00\n        /* \"#utility.yul\":2726:2731   */\n      dup2\n        /* \"#utility.yul\":2720:2732   */\n      mload\n        /* \"#utility.yul\":2753:2759   */\n      dup1\n        /* \"#utility.yul\":2748:2751   */\n      dup5\n        /* \"#utility.yul\":2741:2760   */\n      mstore\n        /* \"#utility.yul\":2809:2815   */\n      dup1\n        /* \"#utility.yul\":2802:2806   */\n      0x20\n        /* \"#utility.yul\":2795:2800   */\n      dup5\n        /* \"#utility.yul\":2791:2807   */\n      add\n        /* \"#utility.yul\":2784:2788   */\n      0x20\n        /* \"#utility.yul\":2779:2782   */\n      dup7\n        /* \"#utility.yul\":2775:2789   */\n      add\n        /* \"#utility.yul\":2769:2816   */\n      mcopy\n        /* \"#utility.yul\":2861:2862   */\n      0x00\n        /* \"#utility.yul\":2854:2858   */\n      0x20\n        /* \"#utility.yul\":2845:2851   */\n      dup3\n        /* \"#utility.yul\":2840:2843   */\n      dup7\n        /* \"#utility.yul\":2836:2852   */\n      add\n        /* \"#utility.yul\":2832:2859   */\n      add\n        /* \"#utility.yul\":2825:2863   */\n      mstore\n        /* \"#utility.yul\":2924:2928   */\n      0x20\n        /* \"#utility.yul\":2917:2919   */\n      0x1f\n        /* \"#utility.yul\":2913:2920   */\n      not\n        /* \"#utility.yul\":2908:2910   */\n      0x1f\n        /* \"#utility.yul\":2900:2906   */\n      dup4\n        /* \"#utility.yul\":2896:2911   */\n      add\n        /* \"#utility.yul\":2892:2921   */\n      and\n        /* \"#utility.yul\":2887:2890   */\n      dup6\n        /* \"#utility.yul\":2883:2922   */\n      add\n        /* \"#utility.yul\":2879:2929   */\n      add\n        /* \"#utility.yul\":2872:2929   */\n      swap2\n      pop\n      pop\n        /* \"#utility.yul\":2635:2935   */\n      swap3\n      swap2\n      pop\n      pop\n      jump\t// out\n        /* \"#utility.yul\":2940:3416   */\n    tag_46:\n        /* \"#utility.yul\":3165:3167   */\n      0x60\n        /* \"#utility.yul\":3154:3163   */\n      dup2\n        /* \"#utility.yul\":3147:3168   */\n      mstore\n        /* \"#utility.yul\":3128:3132   */\n      0x00\n        /* \"#utility.yul\":3191:3247   */\n      tag_98\n        /* \"#utility.yul\":3243:3245   */\n      0x60\n        /* \"#utility.yul\":3232:3241   */\n      dup4\n        /* \"#utility.yul\":3228:3246   */\n      add\n        /* \"#utility.yul\":3220:3226   */\n      dup7\n        /* \"#utility.yul\":3191:3247   */\n      tag_77\n      jump\t// in\n    tag_98:\n        /* \"#utility.yul\":3295:3304   */\n      dup3\n        /* \"#utility.yul\":3287:3293   */\n      dup2\n        /* \"#utility.yul\":3283:3305   */\n      sub\n        /* \"#utility.yul\":3278:3280   */\n      0x20\n        /* \"#utility.yul\":3267:3276   */\n      dup5\n        /* \"#utility.yul\":3263:3281   */\n      add\n        /* \"#utility.yul\":3256:3306   */\n      mstore\n        /* \"#utility.yul\":3323:3367   */\n      tag_99\n        /* \"#utility.yul\":3360:3366   */\n      dup2\n        /* \"#utility.yul\":3352:3358   */\n      dup7\n        /* \"#utility.yul\":3323:3367   */\n      tag_77\n      jump\t// in\n    tag_99:\n        /* \"#utility.yul\":3315:3367   */\n      swap2\n      pop\n      pop\n        /* \"#utility.yul\":3403:3409   */\n      dup3\n        /* \"#utility.yul\":3398:3400   */\n      0x40\n        /* \"#utility.yul\":3387:3396   */\n      dup4\n        /* \"#utility.yul\":3383:3401   */\n      add\n        /* \"#utility.yul\":3376:3410   */\n      mstore\n        /* \"#utility.yul\":2940:3416   */\n      swap5\n      swap4\n      pop\n      pop\n      pop\n      pop\n      jump\t// out\n        /* \"#utility.yul\":3421:3556   */\n    tag_50:\n        /* \"#utility.yul\":3460:3463   */\n      0x00\n        /* \"#utility.yul\":3481:3498   */\n      0x01\n      dup3\n      add\n        /* \"#utility.yul\":3478:3521   */\n      tag_102\n      jumpi\n        /* \"#utility.yul\":3501:3519   */\n      tag_102\n      tag_76\n      jump\t// in\n    tag_102:\n      pop\n        /* \"#utility.yul\":3548:3549   */\n      0x01\n        /* \"#utility.yul\":3537:3550   */\n      add\n      swap1\n        /* \"#utility.yul\":3421:3556   */\n      jump\t// out\n        /* \"#utility.yul\":3561:3688   */\n    tag_78:\n        /* \"#utility.yul\":3622:3632   */\n      0x4e487b71\n        /* \"#utility.yul\":3617:3620   */\n      0xe0\n        /* \"#utility.yul\":3613:3633   */\n      shl\n        /* \"#utility.yul\":3610:3611   */\n      0x00\n        /* \"#utility.yul\":3603:3634   */\n      mstore\n        /* \"#utility.yul\":3653:3657   */\n      0x12\n        /* \"#utility.yul\":3650:3651   */\n      0x04\n        /* \"#utility.yul\":3643:3658   */\n      mstore\n        /* \"#utility.yul\":3677:3681   */\n      0x24\n        /* \"#utility.yul\":3674:3675   */\n      0x00\n        /* \"#utility.yul\":3667:3682   */\n      revert\n        /* \"#utility.yul\":3693:3813   */\n    tag_59:\n        /* \"#utility.yul\":3733:3734   */\n      0x00\n        /* \"#utility.yul\":3759:3760   */\n      dup3\n        /* \"#utility.yul\":3749:3784   */\n      tag_106\n      jumpi\n        /* \"#utility.yul\":3764:3782   */\n      tag_106\n      tag_78\n      jump\t// in\n    tag_106:\n      pop\n        /* \"#utility.yul\":3798:3807   */\n      div\n      swap1\n        /* \"#utility.yul\":3693:3813   */\n      jump\t// out\n        /* \"#utility.yul\":3818:3945   */\n    tag_62:\n        /* \"#utility.yul\":3879:3889   */\n      0x4e487b71\n        /* \"#utility.yul\":3874:3877   */\n      0xe0\n        /* \"#utility.yul\":3870:3890   */\n      shl\n        /* \"#utility.yul\":3867:3868   */\n      0x00\n        /* \"#utility.yul\":3860:3891   */\n      mstore\n        /* \"#utility.yul\":3910:3914   */\n      0x41\n        /* \"#utility.yul\":3907:3908   */\n      0x04\n        /* \"#utility.yul\":3900:3915   */\n      mstore\n        /* \"#utility.yul\":3934:3938   */\n      0x24\n        /* \"#utility.yul\":3931:3932   */\n      0x00\n        /* \"#utility.yul\":3924:3939   */\n      revert\n        /* \"#utility.yul\":3950:4078   */\n    tag_67:\n        /* \"#utility.yul\":4017:4026   */\n      dup2\n      dup2\n      sub\n        /* \"#utility.yul\":4038:4049   */\n      dup2\n      dup2\n      gt\n        /* \"#utility.yul\":4035:4072   */\n      iszero\n      tag_95\n      jumpi\n        /* \"#utility.yul\":4052:4070   */\n      tag_95\n      tag_76\n      jump\t// in\n        /* \"#utility.yul\":4083:4195   */\n    tag_69:\n        /* \"#utility.yul\":4115:4116   */\n      0x00\n        /* \"#utility.yul\":4141:4142   */\n      dup3\n        /* \"#utility.yul\":4131:4166   */\n      tag_113\n      jumpi\n        /* \"#utility.yul\":4146:4164   */\n      tag_113\n      tag_78\n      jump\t// in\n    tag_113:\n      pop\n        /* \"#utility.yul\":4180:4189   */\n      mod\n      swap1\n        /* \"#utility.yul\":4083:4195   */\n      jump\t// out\n        /* \"#utility.yul\":4200:4325   */\n    tag_71:\n        /* \"#utility.yul\":4265:4274   */\n      dup1\n      dup3\n      add\n        /* \"#utility.yul\":4286:4296   */\n      dup1\n      dup3\n      gt\n        /* \"#utility.yul\":4283:4319   */\n      iszero\n      tag_95\n      jumpi\n        /* \"#utility.yul\":4299:4317   */\n      tag_95\n      tag_76\n      jump\t// in\n    stop\n\n    sub_0: assembly {\n            /* \"hard.sol\":61:810  contract Token {... */\n          mstore(0x40, 0x80)\n            /* \"hard.sol\":220:424  constructor(string memory _name, string memory _symbol, uint256 _supply) {... */\n          callvalue\n          dup1\n          iszero\n          tag_1\n          jumpi\n          0x00\n          dup1\n          revert\n        tag_1:\n          pop\n          mload(0x40)\n          sub(codesize, bytecodeSize)\n          dup1\n          bytecodeSize\n          dup4\n          codecopy\n          dup2\n          add\n          0x40\n          dup2\n          swap1\n          mstore\n          tag_2\n          swap2\n          tag_3\n          jump\t// in\n        tag_2:\n            /* \"hard.sol\":304:308  name */\n          0x00\n            /* \"hard.sol\":304:316  name = _name */\n          tag_6\n            /* \"hard.sol\":311:316  _name */\n          dup5\n            /* \"hard.sol\":304:308  name */\n          dup3\n            /* \"hard.sol\":304:316  name = _name */\n          tag_7\n          jump\t// in\n        tag_6:\n          pop\n            /* \"hard.sol\":327:333  symbol */\n          0x01\n            /* \"hard.sol\":327:343  symbol = _symbol */\n          tag_8\n            /* \"hard.sol\":336:343  _symbol */\n          dup4\n            /* \"hard.sol\":327:333  symbol */\n          dup3\n            /* \"hard.sol\":327:343  symbol = _symbol */\n          tag_7\n          jump\t// in\n        tag_8:\n          pop\n            /* \"hard.sol\":354:365  totalSupply */\n          0x02\n            /* \"hard.sol\":354:375  totalSupply = _supply */\n          dup2\n          swap1\n          sstore\n            /* \"hard.sol\":395:405  msg.sender */\n          caller\n            /* \"hard.sol\":386:406  balances[msg.sender] */\n          0x00\n          swap1\n          dup2\n          mstore\n            /* \"hard.sol\":386:394  balances */\n          0x03\n            /* \"hard.sol\":386:406  balances[msg.sender] */\n          0x20\n          mstore\n          0x40\n          swap1\n          keccak256\n            /* \"hard.sol\":386:416  balances[msg.sender] = _supply */\n          sstore\n          pop\n            /* \"hard.sol\":61:810  contract Token {... */\n          tag_16\n          swap1\n          pop\n          jump\n            /* \"#utility.yul\":14:141   */\n        tag_10:\n            /* \"#utility.yul\":75:85   */\n          0x4e487b71\n            /* \"#utility.yul\":70:73   */\n          0xe0\n            /* \"#utility.yul\":66:86   */\n          shl\n            /* \"#utility.yul\":63:64   */\n          0x00\n            /* \"#utility.yul\":56:87   */\n          mstore\n            /* \"#utility.yul\":106:110   */\n          0x41\n            /* \"#utility.yul\":103:104   */\n          0x04\n            /* \"#utility.yul\":96:111   */\n          mstore\n            /* \"#utility.yul\":130:134   */\n          0x24\n            /* \"#utility.yul\":127:128   */\n          0x00\n            /* \"#utility.yul\":120:135   */\n          revert\n            /* \"#utility.yul\":146:869   */\n        tag_11:\n            /* \"#utility.yul\":200:205   */\n          0x00\n            /* \"#utility.yul\":253:256   */\n          dup3\n            /* \"#utility.yul\":246:250   */\n          0x1f\n            /* \"#utility.yul\":238:244   */\n          dup4\n            /* \"#utility.yul\":234:251   */\n          add\n            /* \"#utility.yul\":230:257   */\n          slt\n            /* \"#utility.yul\":220:275   */\n          tag_19\n          jumpi\n            /* \"#utility.yul\":271:272   */\n          0x00\n            /* \"#utility.yul\":268:269   */\n          dup1\n            /* \"#utility.yul\":261:273   */\n          revert\n            /* \"#utility.yul\":220:275   */\n        tag_19:\n            /* \"#utility.yul\":298:311   */\n          dup2\n          mload\n          sub(shl(0x40, 0x01), 0x01)\n            /* \"#utility.yul\":323:353   */\n          dup2\n          gt\n            /* \"#utility.yul\":320:376   */\n          iszero\n          tag_21\n          jumpi\n            /* \"#utility.yul\":356:374   */\n          tag_21\n          tag_10\n          jump\t// in\n        tag_21:\n            /* \"#utility.yul\":405:407   */\n          0x40\n            /* \"#utility.yul\":399:408   */\n          mload\n            /* \"#utility.yul\":497:499   */\n          0x1f\n            /* \"#utility.yul\":459:476   */\n          dup3\n          add\n          not(0x1f)\n            /* \"#utility.yul\":455:486   */\n          swap1\n          dup2\n          and\n            /* \"#utility.yul\":488:490   */\n          0x3f\n            /* \"#utility.yul\":451:491   */\n          add\n            /* \"#utility.yul\":447:501   */\n          and\n            /* \"#utility.yul\":435:502   */\n          dup2\n          add\n          sub(shl(0x40, 0x01), 0x01)\n            /* \"#utility.yul\":517:551   */\n          dup2\n          gt\n            /* \"#utility.yul\":553:575   */\n          dup3\n          dup3\n          lt\n            /* \"#utility.yul\":514:576   */\n          or\n            /* \"#utility.yul\":511:599   */\n          iszero\n          tag_23\n          jumpi\n            /* \"#utility.yul\":579:597   */\n          tag_23\n          tag_10\n          jump\t// in\n        tag_23:\n            /* \"#utility.yul\":615:617   */\n          0x40\n            /* \"#utility.yul\":608:630   */\n          mstore\n            /* \"#utility.yul\":639:661   */\n          dup2\n          dup2\n          mstore\n            /* \"#utility.yul\":680:699   */\n          dup4\n          dup3\n          add\n            /* \"#utility.yul\":701:705   */\n          0x20\n            /* \"#utility.yul\":676:706   */\n          add\n            /* \"#utility.yul\":673:712   */\n          dup6\n          lt\n            /* \"#utility.yul\":670:729   */\n          iszero\n          tag_24\n          jumpi\n            /* \"#utility.yul\":725:726   */\n          0x00\n            /* \"#utility.yul\":722:723   */\n          dup1\n            /* \"#utility.yul\":715:727   */\n          revert\n            /* \"#utility.yul\":670:729   */\n        tag_24:\n            /* \"#utility.yul\":782:788   */\n          dup2\n            /* \"#utility.yul\":775:779   */\n          0x20\n            /* \"#utility.yul\":767:773   */\n          dup6\n            /* \"#utility.yul\":763:780   */\n          add\n            /* \"#utility.yul\":756:760   */\n          0x20\n            /* \"#utility.yul\":748:754   */\n          dup4\n            /* \"#utility.yul\":744:761   */\n          add\n            /* \"#utility.yul\":738:789   */\n          mcopy\n            /* \"#utility.yul\":837:838   */\n          0x00\n            /* \"#utility.yul\":809:828   */\n          swap2\n          dup2\n          add\n            /* \"#utility.yul\":830:834   */\n          0x20\n            /* \"#utility.yul\":805:835   */\n          add\n            /* \"#utility.yul\":798:839   */\n          swap2\n          swap1\n          swap2\n          mstore\n            /* \"#utility.yul\":813:819   */\n          swap4\n            /* \"#utility.yul\":146:869   */\n          swap3\n          pop\n          pop\n          pop\n          jump\t// out\n            /* \"#utility.yul\":874:1492   */\n        tag_3:\n            /* \"#utility.yul\":982:988   */\n          0x00\n            /* \"#utility.yul\":990:996   */\n          dup1\n            /* \"#utility.yul\":998:1004   */\n          0x00\n            /* \"#utility.yul\":1051:1053   */\n          0x60\n            /* \"#utility.yul\":1039:1048   */\n          dup5\n            /* \"#utility.yul\":1030:1037   */\n          dup7\n            /* \"#utility.yul\":1026:1049   */\n          sub\n            /* \"#utility.yul\":1022:1054   */\n          slt\n            /* \"#utility.yul\":1019:1071   */\n          iszero\n          tag_26\n          jumpi\n            /* \"#utility.yul\":1067:1068   */\n          0x00\n            /* \"#utility.yul\":1064:1065   */\n          dup1\n            /* \"#utility.yul\":1057:1069   */\n          revert\n            /* \"#utility.yul\":1019:1071   */\n        tag_26:\n            /* \"#utility.yul\":1094:1110   */\n          dup4\n          mload\n          sub(shl(0x40, 0x01), 0x01)\n            /* \"#utility.yul\":1122:1152   */\n          dup2\n          gt\n            /* \"#utility.yul\":1119:1169   */\n          iszero\n          tag_27\n          jumpi\n            /* \"#utility.yul\":1165:1166   */\n          0x00\n            /* \"#utility.yul\":1162:1163   */\n          dup1\n            /* \"#utility.yul\":1155:1167   */\n          revert\n            /* \"#utility.yul\":1119:1169   */\n        tag_27:\n            /* \"#utility.yul\":1188:1249   */\n          tag_28\n            /* \"#utility.yul\":1241:1248   */\n          dup7\n            /* \"#utility.yul\":1232:1238   */\n          dup3\n            /* \"#utility.yul\":1221:1230   */\n          dup8\n            /* \"#utility.yul\":1217:1239   */\n          add\n            /* \"#utility.yul\":1188:1249   */\n          tag_11\n          jump\t// in\n        tag_28:\n            /* \"#utility.yul\":1295:1297   */\n          0x20\n            /* \"#utility.yul\":1280:1298   */\n          dup7\n          add\n            /* \"#utility.yul\":1274:1299   */\n          mload\n            /* \"#utility.yul\":1178:1249   */\n          swap1\n          swap5\n          pop\n            /* \"#utility.yul\":1274:1299   */\n          swap1\n          pop\n          sub(shl(0x40, 0x01), 0x01)\n            /* \"#utility.yul\":1311:1343   */\n          dup2\n          gt\n            /* \"#utility.yul\":1308:1360   */\n          iszero\n          tag_29\n          jumpi\n            /* \"#utility.yul\":1356:1357   */\n          0x00\n            /* \"#utility.yul\":1353:1354   */\n          dup1\n            /* \"#utility.yul\":1346:1358   */\n          revert\n            /* \"#utility.yul\":1308:1360   */\n        tag_29:\n            /* \"#utility.yul\":1379:1442   */\n          tag_30\n            /* \"#utility.yul\":1434:1441   */\n          dup7\n            /* \"#utility.yul\":1423:1431   */\n          dup3\n            /* \"#utility.yul\":1412:1421   */\n          dup8\n            /* \"#utility.yul\":1408:1432   */\n          add\n            /* \"#utility.yul\":1379:1442   */\n          tag_11\n          jump\t// in\n        tag_30:\n            /* \"#utility.yul\":1369:1442   */\n          swap3\n          pop\n          pop\n            /* \"#utility.yul\":1482:1484   */\n          0x40\n            /* \"#utility.yul\":1471:1480   */\n          dup5\n            /* \"#utility.yul\":1467:1485   */\n          add\n            /* \"#utility.yul\":1461:1486   */\n          mload\n            /* \"#utility.yul\":1451:1486   */\n          swap1\n          pop\n            /* \"#utility.yul\":874:1492   */\n          swap3\n          pop\n          swap3\n          pop\n          swap3\n          jump\t// out\n            /* \"#utility.yul\":1497:1877   */\n        tag_12:\n            /* \"#utility.yul\":1576:1577   */\n          0x01\n            /* \"#utility.yul\":1572:1584   */\n          dup2\n          dup2\n          shr\n          swap1\n            /* \"#utility.yul\":1619:1631   */\n          dup3\n          and\n          dup1\n            /* \"#utility.yul\":1640:1701   */\n          tag_32\n          jumpi\n            /* \"#utility.yul\":1694:1698   */\n          0x7f\n            /* \"#utility.yul\":1686:1692   */\n          dup3\n            /* \"#utility.yul\":1682:1699   */\n          and\n            /* \"#utility.yul\":1672:1699   */\n          swap2\n          pop\n            /* \"#utility.yul\":1640:1701   */\n        tag_32:\n            /* \"#utility.yul\":1747:1749   */\n          0x20\n            /* \"#utility.yul\":1739:1745   */\n          dup3\n            /* \"#utility.yul\":1736:1750   */\n          lt\n            /* \"#utility.yul\":1716:1734   */\n          dup2\n            /* \"#utility.yul\":1713:1751   */\n          sub\n            /* \"#utility.yul\":1710:1871   */\n          tag_33\n          jumpi\n            /* \"#utility.yul\":1793:1803   */\n          0x4e487b71\n            /* \"#utility.yul\":1788:1791   */\n          0xe0\n            /* \"#utility.yul\":1784:1804   */\n          shl\n            /* \"#utility.yul\":1781:1782   */\n          0x00\n            /* \"#utility.yul\":1774:1805   */\n          mstore\n            /* \"#utility.yul\":1828:1832   */\n          0x22\n            /* \"#utility.yul\":1825:1826   */\n          0x04\n            /* \"#utility.yul\":1818:1833   */\n          mstore\n            /* \"#utility.yul\":1856:1860   */\n          0x24\n            /* \"#utility.yul\":1853:1854   */\n          0x00\n            /* \"#utility.yul\":1846:1861   */\n          revert\n            /* \"#utility.yul\":1710:1871   */\n        tag_33:\n          pop\n            /* \"#utility.yul\":1497:1877   */\n          swap2\n          swap1\n          pop\n          jump\t// out\n            /* \"#utility.yul\":2008:2526   */\n        tag_14:\n            /* \"#utility.yul\":2110:2112   */\n          0x1f\n            /* \"#utility.yul\":2105:2108   */\n          dup3\n            /* \"#utility.yul\":2102:2113   */\n          gt\n            /* \"#utility.yul\":2099:2520   */\n          iszero\n          tag_36\n          jumpi\n            /* \"#utility.yul\":2146:2151   */\n          dup1\n            /* \"#utility.yul\":2143:2144   */\n          0x00\n            /* \"#utility.yul\":2136:2152   */\n          mstore\n            /* \"#utility.yul\":2190:2194   */\n          0x20\n            /* \"#utility.yul\":2187:2188   */\n          0x00\n            /* \"#utility.yul\":2177:2195   */\n          keccak256\n            /* \"#utility.yul\":2260:2262   */\n          0x1f\n            /* \"#utility.yul\":2248:2258   */\n          dup5\n            /* \"#utility.yul\":2244:2263   */\n          add\n            /* \"#utility.yul\":2241:2242   */\n          0x05\n            /* \"#utility.yul\":2237:2264   */\n          shr\n            /* \"#utility.yul\":2231:2235   */\n          dup2\n            /* \"#utility.yul\":2227:2265   */\n          add\n            /* \"#utility.yul\":2296:2300   */\n          0x20\n            /* \"#utility.yul\":2284:2294   */\n          dup6\n            /* \"#utility.yul\":2281:2301   */\n          lt\n            /* \"#utility.yul\":2278:2325   */\n          iszero\n          tag_37\n          jumpi\n          pop\n            /* \"#utility.yul\":2319:2323   */\n          dup1\n            /* \"#utility.yul\":2278:2325   */\n        tag_37:\n            /* \"#utility.yul\":2374:2376   */\n          0x1f\n            /* \"#utility.yul\":2369:2372   */\n          dup5\n            /* \"#utility.yul\":2365:2377   */\n          add\n            /* \"#utility.yul\":2362:2363   */\n          0x05\n            /* \"#utility.yul\":2358:2378   */\n          shr\n            /* \"#utility.yul\":2352:2356   */\n          dup3\n            /* \"#utility.yul\":2348:2379   */\n          add\n            /* \"#utility.yul\":2338:2379   */\n          swap2\n          pop\n            /* \"#utility.yul\":2429:2510   */\n        tag_38:\n            /* \"#utility.yul\":2447:2449   */\n          dup2\n            /* \"#utility.yul\":2440:2445   */\n          dup2\n            /* \"#utility.yul\":2437:2450   */\n          lt\n            /* \"#utility.yul\":2429:2510   */\n          iszero\n          tag_40\n          jumpi\n            /* \"#utility.yul\":2506:2507   */\n          0x00\n            /* \"#utility.yul\":2492:2508   */\n          dup2\n          sstore\n            /* \"#utility.yul\":2473:2474   */\n          0x01\n            /* \"#utility.yul\":2462:2475   */\n          add\n            /* \"#utility.yul\":2429:2510   */\n          jump(tag_38)\n        tag_40:\n            /* \"#utility.yul\":2433:2436   */\n          pop\n          pop\n            /* \"#utility.yul\":2099:2520   */\n        tag_36:\n            /* \"#utility.yul\":2008:2526   */\n          pop\n          pop\n          pop\n          jump\t// out\n            /* \"#utility.yul\":2702:4001   */\n        tag_7:\n            /* \"#utility.yul\":2822:2832   */\n          dup2\n          mload\n          sub(shl(0x40, 0x01), 0x01)\n            /* \"#utility.yul\":2844:2874   */\n          dup2\n          gt\n            /* \"#utility.yul\":2841:2897   */\n          iszero\n          tag_44\n          jumpi\n            /* \"#utility.yul\":2877:2895   */\n          tag_44\n          tag_10\n          jump\t// in\n        tag_44:\n            /* \"#utility.yul\":2906:3003   */\n          tag_45\n            /* \"#utility.yul\":2996:3002   */\n          dup2\n            /* \"#utility.yul\":2956:2994   */\n          tag_46\n            /* \"#utility.yul\":2988:2992   */\n          dup5\n            /* \"#utility.yul\":2982:2993   */\n          sload\n            /* \"#utility.yul\":2956:2994   */\n          tag_12\n          jump\t// in\n        tag_46:\n            /* \"#utility.yul\":2950:2954   */\n          dup5\n            /* \"#utility.yul\":2906:3003   */\n          tag_14\n          jump\t// in\n        tag_45:\n            /* \"#utility.yul\":3052:3056   */\n          0x20\n            /* \"#utility.yul\":3083:3085   */\n          0x1f\n            /* \"#utility.yul\":3072:3086   */\n          dup3\n          gt\n            /* \"#utility.yul\":3100:3101   */\n          0x01\n            /* \"#utility.yul\":3095:3744   */\n          dup2\n          eq\n          tag_48\n          jumpi\n            /* \"#utility.yul\":3788:3789   */\n          0x00\n            /* \"#utility.yul\":3805:3811   */\n          dup4\n            /* \"#utility.yul\":3802:3891   */\n          iszero\n          tag_49\n          jumpi\n          pop\n            /* \"#utility.yul\":3857:3876   */\n          dup5\n          dup3\n          add\n            /* \"#utility.yul\":3851:3877   */\n          mload\n            /* \"#utility.yul\":3802:3891   */\n        tag_49:\n          not(0x00)\n            /* \"#utility.yul\":2659:2660   */\n          0x03\n            /* \"#utility.yul\":2655:2666   */\n          dup6\n          swap1\n          shl\n            /* \"#utility.yul\":2651:2675   */\n          shr\n            /* \"#utility.yul\":2647:2676   */\n          not\n            /* \"#utility.yul\":2637:2677   */\n          and\n            /* \"#utility.yul\":2683:2684   */\n          0x01\n            /* \"#utility.yul\":2679:2690   */\n          dup5\n          swap1\n          shl\n            /* \"#utility.yul\":2634:2691   */\n          or\n            /* \"#utility.yul\":3904:3985   */\n          dup5\n          sstore\n            /* \"#utility.yul\":3065:3995   */\n          jump(tag_40)\n            /* \"#utility.yul\":3095:3744   */\n        tag_48:\n            /* \"#utility.yul\":1955:1956   */\n          0x00\n            /* \"#utility.yul\":1948:1962   */\n          dup5\n          dup2\n          mstore\n            /* \"#utility.yul\":1992:1996   */\n          0x20\n            /* \"#utility.yul\":1979:1997   */\n          dup2\n          keccak256\n          not(0x1f)\n            /* \"#utility.yul\":3131:3151   */\n          dup6\n          and\n          swap2\n            /* \"#utility.yul\":3249:3471   */\n        tag_52:\n            /* \"#utility.yul\":3263:3270   */\n          dup3\n            /* \"#utility.yul\":3260:3261   */\n          dup2\n            /* \"#utility.yul\":3257:3271   */\n          lt\n            /* \"#utility.yul\":3249:3471   */\n          iszero\n          tag_54\n          jumpi\n            /* \"#utility.yul\":3345:3364   */\n          dup8\n          dup6\n          add\n            /* \"#utility.yul\":3339:3365   */\n          mload\n            /* \"#utility.yul\":3324:3366   */\n          dup3\n          sstore\n            /* \"#utility.yul\":3452:3456   */\n          0x20\n            /* \"#utility.yul\":3437:3457   */\n          swap5\n          dup6\n          add\n          swap5\n            /* \"#utility.yul\":3405:3406   */\n          0x01\n            /* \"#utility.yul\":3393:3407   */\n          swap1\n          swap3\n          add\n          swap2\n            /* \"#utility.yul\":3279:3291   */\n          add\n            /* \"#utility.yul\":3249:3471   */\n          jump(tag_52)\n        tag_54:\n            /* \"#utility.yul\":3253:3256   */\n          pop\n            /* \"#utility.yul\":3499:3505   */\n          dup5\n            /* \"#utility.yul\":3490:3497   */\n          dup3\n            /* \"#utility.yul\":3487:3506   */\n          lt\n            /* \"#utility.yul\":3484:3685   */\n          iszero\n          tag_55\n          jumpi\n            /* \"#utility.yul\":3560:3579   */\n          dup7\n          dup5\n          add\n            /* \"#utility.yul\":3554:3580   */\n          mload\n          not(0x00)\n            /* \"#utility.yul\":3643:3644   */\n          0x03\n            /* \"#utility.yul\":3639:3653   */\n          dup8\n          swap1\n          shl\n            /* \"#utility.yul\":3655:3658   */\n          0xf8\n            /* \"#utility.yul\":3635:3659   */\n          and\n            /* \"#utility.yul\":3631:3668   */\n          shr\n            /* \"#utility.yul\":3627:3669   */\n          not\n            /* \"#utility.yul\":3612:3670   */\n          and\n            /* \"#utility.yul\":3597:3671   */\n          dup2\n          sstore\n            /* \"#utility.yul\":3484:3685   */\n        tag_55:\n          pop\n          pop\n          pop\n          pop\n            /* \"#utility.yul\":3731:3732   */\n          0x01\n            /* \"#utility.yul\":3715:3729   */\n          swap1\n          dup2\n          shl\n            /* \"#utility.yul\":3711:3733   */\n          add\n            /* \"#utility.yul\":3698:3734   */\n          swap1\n          sstore\n          pop\n            /* \"#utility.yul\":2702:4001   */\n          jump\t// out\n        tag_16:\n            /* \"hard.sol\":61:810  contract Token {... */\n          dataSize(sub_0)\n          dup1\n          dataOffset(sub_0)\n          0x00\n          codecopy\n          0x00\n          return\n        stop\n\n        sub_0: assembly {\n                /* \"hard.sol\":61:810  contract Token {... */\n              mstore(0x40, 0x80)\n              callvalue\n              dup1\n              iszero\n              tag_1\n              jumpi\n              0x00\n              dup1\n              revert\n            tag_1:\n              pop\n              jumpi(tag_2, lt(calldatasize, 0x04))\n              shr(0xe0, calldataload(0x00))\n              dup1\n              0x06fdde03\n              eq\n              tag_3\n              jumpi\n              dup1\n              0x18160ddd\n              eq\n              tag_4\n              jumpi\n              dup1\n              0x27e235e3\n              eq\n              tag_5\n              jumpi\n              dup1\n              0x70a08231\n              eq\n              tag_6\n              jumpi\n              dup1\n              0x95d89b41\n              eq\n              tag_7\n              jumpi\n              dup1\n              0xa9059cbb\n              eq\n              tag_8\n              jumpi\n            tag_2:\n              0x00\n              dup1\n              revert\n                /* \"hard.sol\":83:101  string public name */\n            tag_3:\n              tag_9\n              tag_10\n              jump\t// in\n            tag_9:\n              mload(0x40)\n              tag_11\n              swap2\n              swap1\n              tag_12\n              jump\t// in\n            tag_11:\n              mload(0x40)\n              dup1\n              swap2\n              sub\n              swap1\n              return\n                /* \"hard.sol\":135:161  uint256 public totalSupply */\n            tag_4:\n              tag_13\n              sload(0x02)\n              dup2\n              jump\n            tag_13:\n              mload(0x40)\n                /* \"#utility.yul\":583:608   */\n              swap1\n              dup2\n              mstore\n                /* \"#utility.yul\":571:573   */\n              0x20\n                /* \"#utility.yul\":556:574   */\n              add\n                /* \"hard.sol\":135:161  uint256 public totalSupply */\n              tag_11\n                /* \"#utility.yul\":437:614   */\n              jump\n                /* \"hard.sol\":168:211  mapping(address => uint256) public balances */\n            tag_5:\n              tag_13\n              tag_18\n              calldatasize\n              0x04\n              tag_19\n              jump\t// in\n            tag_18:\n              mstore(0x20, 0x03)\n              0x00\n              swap1\n              dup2\n              mstore\n              0x40\n              swap1\n              keccak256\n              sload\n              dup2\n              jump\n                /* \"hard.sol\":432:541  function balanceOf(address account) public view returns (uint256) {... */\n            tag_6:\n              tag_13\n              tag_23\n              calldatasize\n              0x04\n              tag_19\n              jump\t// in\n            tag_23:\n              sub(shl(0xa0, 0x01), 0x01)\n                /* \"hard.sol\":516:533  balances[account] */\n              and\n                /* \"hard.sol\":489:496  uint256 */\n              0x00\n                /* \"hard.sol\":516:533  balances[account] */\n              swap1\n              dup2\n              mstore\n                /* \"hard.sol\":516:524  balances */\n              0x03\n                /* \"hard.sol\":516:533  balances[account] */\n              0x20\n              mstore\n              0x40\n              swap1\n              keccak256\n              sload\n              swap1\n                /* \"hard.sol\":432:541  function balanceOf(address account) public view returns (uint256) {... */\n              jump\n                /* \"hard.sol\":108:128  string public symbol */\n            tag_7:\n              tag_9\n              tag_27\n              jump\t// in\n                /* \"hard.sol\":549:807  function transfer(address recipient, uint256 amount) public returns (bool) {... */\n            tag_8:\n              tag_29\n              tag_30\n              calldatasize\n              0x04\n              tag_31\n              jump\t// in\n            tag_30:\n              tag_32\n              jump\t// in\n            tag_29:\n              mload(0x40)\n                /* \"#utility.yul\":1412:1426   */\n              swap1\n              iszero\n                /* \"#utility.yul\":1405:1427   */\n              iszero\n                /* \"#utility.yul\":1387:1428   */\n              dup2\n              mstore\n                /* \"#utility.yul\":1375:1377   */\n              0x20\n                /* \"#utility.yul\":1360:1378   */\n              add\n                /* \"hard.sol\":549:807  function transfer(address recipient, uint256 amount) public returns (bool) {... */\n              tag_11\n                /* \"#utility.yul\":1247:1434   */\n              jump\n                /* \"hard.sol\":83:101  string public name */\n            tag_10:\n              0x00\n              dup1\n              sload\n              tag_35\n              swap1\n              tag_36\n              jump\t// in\n            tag_35:\n              dup1\n              0x1f\n              add\n              0x20\n              dup1\n              swap2\n              div\n              mul\n              0x20\n              add\n              mload(0x40)\n              swap1\n              dup2\n              add\n              0x40\n              mstore\n              dup1\n              swap3\n              swap2\n              swap1\n              dup2\n              dup2\n              mstore\n              0x20\n              add\n              dup3\n              dup1\n              sload\n              tag_37\n              swap1\n              tag_36\n              jump\t// in\n            tag_37:\n              dup1\n              iszero\n              tag_38\n              jumpi\n              dup1\n              0x1f\n              lt\n              tag_39\n              jumpi\n              0x0100\n              dup1\n              dup4\n              sload\n              div\n              mul\n              dup4\n              mstore\n              swap2\n              0x20\n              add\n              swap2\n              jump(tag_38)\n            tag_39:\n              dup3\n              add\n              swap2\n              swap1\n              0x00\n              mstore\n              keccak256(0x00, 0x20)\n              swap1\n            tag_40:\n              dup2\n              sload\n              dup2\n              mstore\n              swap1\n              0x01\n              add\n              swap1\n              0x20\n              add\n              dup1\n              dup4\n              gt\n              tag_40\n              jumpi\n              dup3\n              swap1\n              sub\n              0x1f\n              and\n              dup3\n              add\n              swap2\n            tag_38:\n              pop\n              pop\n              pop\n              pop\n              pop\n              dup2\n              jump\t// out\n                /* \"hard.sol\":108:128  string public symbol */\n            tag_27:\n              0x01\n              dup1\n              sload\n              tag_35\n              swap1\n              tag_36\n              jump\t// in\n                /* \"hard.sol\":549:807  function transfer(address recipient, uint256 amount) public returns (bool) {... */\n            tag_32:\n                /* \"hard.sol\":652:662  msg.sender */\n              caller\n                /* \"hard.sol\":618:622  bool */\n              0x00\n                /* \"hard.sol\":643:663  balances[msg.sender] */\n              swap1\n              dup2\n              mstore\n                /* \"hard.sol\":643:651  balances */\n              0x03\n                /* \"hard.sol\":643:663  balances[msg.sender] */\n              0x20\n              mstore\n              0x40\n              dup2\n              keccak256\n              sload\n                /* \"hard.sol\":643:673  balances[msg.sender] >= amount */\n              dup3\n              gt\n              iszero\n                /* \"hard.sol\":635:696  require(balances[msg.sender] >= amount, \"Not enough balance\") */\n              tag_48\n              jumpi\n              mload(0x40)\n              shl(0xe5, 0x461bcd)\n              dup2\n              mstore\n                /* \"#utility.yul\":2026:2028   */\n              0x20\n                /* \"hard.sol\":635:696  require(balances[msg.sender] >= amount, \"Not enough balance\") */\n              0x04\n              dup3\n              add\n                /* \"#utility.yul\":2008:2029   */\n              mstore\n                /* \"#utility.yul\":2065:2067   */\n              0x12\n                /* \"#utility.yul\":2045:2063   */\n              0x24\n              dup3\n              add\n                /* \"#utility.yul\":2038:2068   */\n              mstore\n              shl(0x70, 0x4e6f7420656e6f7567682062616c616e6365)\n                /* \"#utility.yul\":2084:2102   */\n              0x44\n              dup3\n              add\n                /* \"#utility.yul\":2077:2125   */\n              mstore\n                /* \"#utility.yul\":2142:2160   */\n              0x64\n              add\n                /* \"hard.sol\":635:696  require(balances[msg.sender] >= amount, \"Not enough balance\") */\n              mload(0x40)\n              dup1\n              swap2\n              sub\n              swap1\n              revert\n            tag_48:\n                /* \"hard.sol\":716:726  msg.sender */\n              caller\n                /* \"hard.sol\":707:727  balances[msg.sender] */\n              0x00\n              swap1\n              dup2\n              mstore\n                /* \"hard.sol\":707:715  balances */\n              0x03\n                /* \"hard.sol\":707:727  balances[msg.sender] */\n              0x20\n              mstore\n              0x40\n              dup2\n              keccak256\n                /* \"hard.sol\":707:737  balances[msg.sender] -= amount */\n              dup1\n              sload\n                /* \"hard.sol\":731:737  amount */\n              dup5\n              swap3\n                /* \"hard.sol\":707:727  balances[msg.sender] */\n              swap1\n                /* \"hard.sol\":707:737  balances[msg.sender] -= amount */\n              tag_51\n              swap1\n                /* \"hard.sol\":731:737  amount */\n              dup5\n              swap1\n                /* \"hard.sol\":707:737  balances[msg.sender] -= amount */\n              tag_52\n              jump\t// in\n            tag_51:\n              swap1\n              swap2\n              sstore\n              pop\n              pop\n              sub(shl(0xa0, 0x01), 0x01)\n                /* \"hard.sol\":748:767  balances[recipient] */\n              dup4\n              and\n              0x00\n              swap1\n              dup2\n              mstore\n                /* \"hard.sol\":748:756  balances */\n              0x03\n                /* \"hard.sol\":748:767  balances[recipient] */\n              0x20\n              mstore\n              0x40\n              dup2\n              keccak256\n                /* \"hard.sol\":748:777  balances[recipient] += amount */\n              dup1\n              sload\n                /* \"hard.sol\":771:777  amount */\n              dup5\n              swap3\n                /* \"hard.sol\":748:767  balances[recipient] */\n              swap1\n                /* \"hard.sol\":748:777  balances[recipient] += amount */\n              tag_53\n              swap1\n                /* \"hard.sol\":771:777  amount */\n              dup5\n              swap1\n                /* \"hard.sol\":748:777  balances[recipient] += amount */\n              tag_54\n              jump\t// in\n            tag_53:\n              swap1\n              swap2\n              sstore\n              pop\n                /* \"hard.sol\":795:799  true */\n              0x01\n              swap2\n              pop\n              pop\n                /* \"hard.sol\":549:807  function transfer(address recipient, uint256 amount) public returns (bool) {... */\n            tag_47:\n              swap3\n              swap2\n              pop\n              pop\n              jump\t// out\n                /* \"#utility.yul\":14:432   */\n            tag_12:\n                /* \"#utility.yul\":163:165   */\n              0x20\n                /* \"#utility.yul\":152:161   */\n              dup2\n                /* \"#utility.yul\":145:166   */\n              mstore\n                /* \"#utility.yul\":126:130   */\n              0x00\n                /* \"#utility.yul\":195:201   */\n              dup3\n                /* \"#utility.yul\":189:202   */\n              mload\n                /* \"#utility.yul\":238:244   */\n              dup1\n                /* \"#utility.yul\":233:235   */\n              0x20\n                /* \"#utility.yul\":222:231   */\n              dup5\n                /* \"#utility.yul\":218:236   */\n              add\n                /* \"#utility.yul\":211:245   */\n              mstore\n                /* \"#utility.yul\":297:303   */\n              dup1\n                /* \"#utility.yul\":292:294   */\n              0x20\n                /* \"#utility.yul\":284:290   */\n              dup6\n                /* \"#utility.yul\":280:295   */\n              add\n                /* \"#utility.yul\":275:277   */\n              0x40\n                /* \"#utility.yul\":264:273   */\n              dup6\n                /* \"#utility.yul\":260:278   */\n              add\n                /* \"#utility.yul\":254:304   */\n              mcopy\n                /* \"#utility.yul\":353:354   */\n              0x00\n                /* \"#utility.yul\":348:350   */\n              0x40\n                /* \"#utility.yul\":339:345   */\n              dup3\n                /* \"#utility.yul\":328:337   */\n              dup6\n                /* \"#utility.yul\":324:346   */\n              add\n                /* \"#utility.yul\":320:351   */\n              add\n                /* \"#utility.yul\":313:355   */\n              mstore\n                /* \"#utility.yul\":423:425   */\n              0x40\n                /* \"#utility.yul\":416:418   */\n              0x1f\n                /* \"#utility.yul\":412:419   */\n              not\n                /* \"#utility.yul\":407:409   */\n              0x1f\n                /* \"#utility.yul\":399:405   */\n              dup4\n                /* \"#utility.yul\":395:410   */\n              add\n                /* \"#utility.yul\":391:420   */\n              and\n                /* \"#utility.yul\":380:389   */\n              dup5\n                /* \"#utility.yul\":376:421   */\n              add\n                /* \"#utility.yul\":372:426   */\n              add\n                /* \"#utility.yul\":364:426   */\n              swap2\n              pop\n              pop\n                /* \"#utility.yul\":14:432   */\n              swap3\n              swap2\n              pop\n              pop\n              jump\t// out\n                /* \"#utility.yul\":619:792   */\n            tag_55:\n                /* \"#utility.yul\":687:707   */\n              dup1\n              calldataload\n              sub(shl(0xa0, 0x01), 0x01)\n                /* \"#utility.yul\":736:767   */\n              dup2\n              and\n                /* \"#utility.yul\":726:768   */\n              dup2\n              eq\n                /* \"#utility.yul\":716:786   */\n              tag_61\n              jumpi\n                /* \"#utility.yul\":782:783   */\n              0x00\n                /* \"#utility.yul\":779:780   */\n              dup1\n                /* \"#utility.yul\":772:784   */\n              revert\n                /* \"#utility.yul\":716:786   */\n            tag_61:\n                /* \"#utility.yul\":619:792   */\n              swap2\n              swap1\n              pop\n              jump\t// out\n                /* \"#utility.yul\":797:983   */\n            tag_19:\n                /* \"#utility.yul\":856:862   */\n              0x00\n                /* \"#utility.yul\":909:911   */\n              0x20\n                /* \"#utility.yul\":897:906   */\n              dup3\n                /* \"#utility.yul\":888:895   */\n              dup5\n                /* \"#utility.yul\":884:907   */\n              sub\n                /* \"#utility.yul\":880:912   */\n              slt\n                /* \"#utility.yul\":877:929   */\n              iszero\n              tag_63\n              jumpi\n                /* \"#utility.yul\":925:926   */\n              0x00\n                /* \"#utility.yul\":922:923   */\n              dup1\n                /* \"#utility.yul\":915:927   */\n              revert\n                /* \"#utility.yul\":877:929   */\n            tag_63:\n                /* \"#utility.yul\":948:977   */\n              tag_64\n                /* \"#utility.yul\":967:976   */\n              dup3\n                /* \"#utility.yul\":948:977   */\n              tag_55\n              jump\t// in\n            tag_64:\n                /* \"#utility.yul\":938:977   */\n              swap4\n                /* \"#utility.yul\":797:983   */\n              swap3\n              pop\n              pop\n              pop\n              jump\t// out\n                /* \"#utility.yul\":988:1242   */\n            tag_31:\n                /* \"#utility.yul\":1056:1062   */\n              0x00\n                /* \"#utility.yul\":1064:1070   */\n              dup1\n                /* \"#utility.yul\":1117:1119   */\n              0x40\n                /* \"#utility.yul\":1105:1114   */\n              dup4\n                /* \"#utility.yul\":1096:1103   */\n              dup6\n                /* \"#utility.yul\":1092:1115   */\n              sub\n                /* \"#utility.yul\":1088:1120   */\n              slt\n                /* \"#utility.yul\":1085:1137   */\n              iszero\n              tag_66\n              jumpi\n                /* \"#utility.yul\":1133:1134   */\n              0x00\n                /* \"#utility.yul\":1130:1131   */\n              dup1\n                /* \"#utility.yul\":1123:1135   */\n              revert\n                /* \"#utility.yul\":1085:1137   */\n            tag_66:\n                /* \"#utility.yul\":1156:1185   */\n              tag_67\n                /* \"#utility.yul\":1175:1184   */\n              dup4\n                /* \"#utility.yul\":1156:1185   */\n              tag_55\n              jump\t// in\n            tag_67:\n                /* \"#utility.yul\":1146:1185   */\n              swap5\n                /* \"#utility.yul\":1232:1234   */\n              0x20\n                /* \"#utility.yul\":1217:1235   */\n              swap4\n              swap1\n              swap4\n              add\n                /* \"#utility.yul\":1204:1236   */\n              calldataload\n              swap4\n              pop\n              pop\n              pop\n                /* \"#utility.yul\":988:1242   */\n              jump\t// out\n                /* \"#utility.yul\":1439:1819   */\n            tag_36:\n                /* \"#utility.yul\":1518:1519   */\n              0x01\n                /* \"#utility.yul\":1514:1526   */\n              dup2\n              dup2\n              shr\n              swap1\n                /* \"#utility.yul\":1561:1573   */\n              dup3\n              and\n              dup1\n                /* \"#utility.yul\":1582:1643   */\n              tag_70\n              jumpi\n                /* \"#utility.yul\":1636:1640   */\n              0x7f\n                /* \"#utility.yul\":1628:1634   */\n              dup3\n                /* \"#utility.yul\":1624:1641   */\n              and\n                /* \"#utility.yul\":1614:1641   */\n              swap2\n              pop\n                /* \"#utility.yul\":1582:1643   */\n            tag_70:\n                /* \"#utility.yul\":1689:1691   */\n              0x20\n                /* \"#utility.yul\":1681:1687   */\n              dup3\n                /* \"#utility.yul\":1678:1692   */\n              lt\n                /* \"#utility.yul\":1658:1676   */\n              dup2\n                /* \"#utility.yul\":1655:1693   */\n              sub\n                /* \"#utility.yul\":1652:1813   */\n              tag_71\n              jumpi\n                /* \"#utility.yul\":1735:1745   */\n              0x4e487b71\n                /* \"#utility.yul\":1730:1733   */\n              0xe0\n                /* \"#utility.yul\":1726:1746   */\n              shl\n                /* \"#utility.yul\":1723:1724   */\n              0x00\n                /* \"#utility.yul\":1716:1747   */\n              mstore\n                /* \"#utility.yul\":1770:1774   */\n              0x22\n                /* \"#utility.yul\":1767:1768   */\n              0x04\n                /* \"#utility.yul\":1760:1775   */\n              mstore\n                /* \"#utility.yul\":1798:1802   */\n              0x24\n                /* \"#utility.yul\":1795:1796   */\n              0x00\n                /* \"#utility.yul\":1788:1803   */\n              revert\n                /* \"#utility.yul\":1652:1813   */\n            tag_71:\n              pop\n                /* \"#utility.yul\":1439:1819   */\n              swap2\n              swap1\n              pop\n              jump\t// out\n                /* \"#utility.yul\":2171:2298   */\n            tag_56:\n                /* \"#utility.yul\":2232:2242   */\n              0x4e487b71\n                /* \"#utility.yul\":2227:2230   */\n              0xe0\n                /* \"#utility.yul\":2223:2243   */\n              shl\n                /* \"#utility.yul\":2220:2221   */\n              0x00\n                /* \"#utility.yul\":2213:2244   */\n              mstore\n                /* \"#utility.yul\":2263:2267   */\n              0x11\n                /* \"#utility.yul\":2260:2261   */\n              0x04\n                /* \"#utility.yul\":2253:2268   */\n              mstore\n                /* \"#utility.yul\":2287:2291   */\n              0x24\n                /* \"#utility.yul\":2284:2285   */\n              0x00\n                /* \"#utility.yul\":2277:2292   */\n              revert\n                /* \"#utility.yul\":2303:2431   */\n            tag_52:\n                /* \"#utility.yul\":2370:2379   */\n              dup2\n              dup2\n              sub\n                /* \"#utility.yul\":2391:2402   */\n              dup2\n              dup2\n              gt\n                /* \"#utility.yul\":2388:2425   */\n              iszero\n              tag_47\n              jumpi\n                /* \"#utility.yul\":2405:2423   */\n              tag_47\n              tag_56\n              jump\t// in\n                /* \"#utility.yul\":2436:2561   */\n            tag_54:\n                /* \"#utility.yul\":2501:2510   */\n              dup1\n              dup3\n              add\n                /* \"#utility.yul\":2522:2532   */\n              dup1\n              dup3\n              gt\n                /* \"#utility.yul\":2519:2555   */\n              iszero\n              tag_47\n              jumpi\n                /* \"#utility.yul\":2535:2553   */\n              tag_47\n              tag_56\n              jump\t// in\n\n            auxdata: 0xa2646970667358221220b16e68e90f81776d06380609f43111ca04b26323601a616caecb7d362acbdc1464736f6c634300081a0033\n        }\n    }\n\n    auxdata: 0xa2646970667358221220ac582e3b3d9782ab04ea5a4f8e53a59fe850aeba3266e17fd114b2b16b0456f964736f6c634300081a0033\n}\n",
				"bytecode": {
					"linkReferences": {},
					"object": "6080604052348015600e575f80fd5b50610bae8061001c5f395ff3fe608060405234801561000f575f80fd5b506004361061003f575f3560e01c80630680d1b8146100435780632d823335146100725780639ad1ee101461007c575b5f80fd5b610056610051366004610394565b61008f565b6040516001600160a01b03909116815260200160405180910390f35b61007a610101565b005b61005661008a366004610394565b610259565b5f805482106100d55760405162461bcd60e51b815260206004820152600d60248201526c4f7574206f6620626f756e647360981b60448201526064015b60405180910390fd5b5f82815481106100e7576100e76103ab565b5f918252602090912001546001600160a01b031692915050565b5f54156101435760405162461bcd60e51b815260206004820152601060248201526f105b1c9958591e4819195c1b1bde595960821b60448201526064016100cc565b60015b605a8111610256575f61015882610280565b60405160200161016891906103d6565b60405160208183030381529060405290505f61018383610280565b60405160200161019391906103f6565b60408051601f1981840301815291905290505f6101b984683635c9adc5dea00000610420565b90505f8383836040516101cb90610387565b6101d79392919061046b565b604051809103905ff0801580156101f0573d5f803e3d5ffd5b505f80546001810182559080527f290decd9548b62a8d60345a988386fc84ba6bc95484008f6362f93160ef3e5630180546001600160a01b0319166001600160a01b03929092169190911790555083925061024e91508290506104a0565b915050610146565b50565b5f8181548110610267575f80fd5b5f918252602090912001546001600160a01b0316905081565b6060815f036102a65750506040805180820190915260018152600360fc1b602082015290565b815f5b81156102cf57806102b9816104a0565b91506102c89050600a836104cc565b91506102a9565b5f8167ffffffffffffffff8111156102e9576102e96104df565b6040519080825280601f01601f191660200182016040528015610313576020820181803683370190505b509050815b851561037e576103296001826104f3565b9050610336600a87610506565b610341906030610519565b60f81b828281518110610356576103566103ab565b60200101906001600160f81b03191690815f1a905350610377600a876104cc565b9550610318565b50949350505050565b61064c8061052d83390190565b5f602082840312156103a4575f80fd5b5035919050565b634e487b7160e01b5f52603260045260245ffd5b5f81518060208401855e5f93019283525090919050565b642a37b5b2b760d91b81525f6103ef60058301846103bf565b9392505050565b61544b60f01b81525f6103ef60028301846103bf565b634e487b7160e01b5f52601160045260245ffd5b80820281158282048414176104375761043761040c565b92915050565b5f81518084528060208401602086015e5f602082860101526020601f19601f83011685010191505092915050565b606081525f61047d606083018661043d565b828103602084015261048f818661043d565b915050826040830152949350505050565b5f600182016104b1576104b161040c565b5060010190565b634e487b7160e01b5f52601260045260245ffd5b5f826104da576104da6104b8565b500490565b634e487b7160e01b5f52604160045260245ffd5b818103818111156104375761043761040c565b5f82610514576105146104b8565b500690565b808201808211156104375761043761040c56fe608060405234801561000f575f80fd5b5060405161064c38038061064c83398101604081905261002e91610100565b5f61003984826101f1565b50600161004683826101f1565b506002819055335f90815260036020526040902055506102ab9050565b634e487b7160e01b5f52604160045260245ffd5b5f82601f830112610086575f80fd5b81516001600160401b0381111561009f5761009f610063565b604051601f8201601f19908116603f011681016001600160401b03811182821017156100cd576100cd610063565b6040528181528382016020018510156100e4575f80fd5b8160208501602083015e5f918101602001919091529392505050565b5f805f60608486031215610112575f80fd5b83516001600160401b03811115610127575f80fd5b61013386828701610077565b602086015190945090506001600160401b03811115610150575f80fd5b61015c86828701610077565b925050604084015190509250925092565b600181811c9082168061018157607f821691505b60208210810361019f57634e487b7160e01b5f52602260045260245ffd5b50919050565b601f8211156101ec57805f5260205f20601f840160051c810160208510156101ca5750805b601f840160051c820191505b818110156101e9575f81556001016101d6565b50505b505050565b81516001600160401b0381111561020a5761020a610063565b61021e81610218845461016d565b846101a5565b6020601f821160018114610250575f83156102395750848201515b5f19600385901b1c1916600184901b1784556101e9565b5f84815260208120601f198516915b8281101561027f578785015182556020948501946001909201910161025f565b508482101561029c57868401515f19600387901b60f8161c191681555b50505050600190811b01905550565b610394806102b85f395ff3fe608060405234801561000f575f80fd5b5060043610610060575f3560e01c806306fdde031461006457806318160ddd1461008257806327e235e31461009957806370a08231146100b857806395d89b41146100e0578063a9059cbb146100e8575b5f80fd5b61006c61010b565b6040516100799190610254565b60405180910390f35b61008b60025481565b604051908152602001610079565b61008b6100a73660046102a4565b60036020525f908152604090205481565b61008b6100c63660046102a4565b6001600160a01b03165f9081526003602052604090205490565b61006c610196565b6100fb6100f63660046102c4565b6101a3565b6040519015158152602001610079565b5f8054610117906102ec565b80601f0160208091040260200160405190810160405280929190818152602001828054610143906102ec565b801561018e5780601f106101655761010080835404028352916020019161018e565b820191905f5260205f20905b81548152906001019060200180831161017157829003601f168201915b505050505081565b60018054610117906102ec565b335f908152600360205260408120548211156101fa5760405162461bcd60e51b81526020600482015260126024820152714e6f7420656e6f7567682062616c616e636560701b604482015260640160405180910390fd5b335f9081526003602052604081208054849290610218908490610338565b90915550506001600160a01b0383165f908152600360205260408120805484929061024490849061034b565b9091555060019150505b92915050565b602081525f82518060208401528060208501604085015e5f604082850101526040601f19601f83011684010191505092915050565b80356001600160a01b038116811461029f575f80fd5b919050565b5f602082840312156102b4575f80fd5b6102bd82610289565b9392505050565b5f80604083850312156102d5575f80fd5b6102de83610289565b946020939093013593505050565b600181811c9082168061030057607f821691505b60208210810361031e57634e487b7160e01b5f52602260045260245ffd5b50919050565b634e487b7160e01b5f52601160045260245ffd5b8181038181111561024e5761024e610324565b8082018082111561024e5761024e61032456fea2646970667358221220b16e68e90f81776d06380609f43111ca04b26323601a616caecb7d362acbdc1464736f6c634300081a0033a2646970667358221220ac582e3b3d9782ab04ea5a4f8e53a59fe850aeba3266e17fd114b2b16b0456f964736f6c634300081a0033",
					"opcodes": "PUSH1 0x80 PUSH1 0x40 MSTORE CALLVALUE DUP1 ISZERO PUSH1 0xE JUMPI PUSH0 DUP1 REVERT JUMPDEST POP PUSH2 0xBAE DUP1 PUSH2 0x1C PUSH0 CODECOPY PUSH0 RETURN INVALID PUSH1 0x80 PUSH1 0x40 MSTORE CALLVALUE DUP1 ISZERO PUSH2 0xF JUMPI PUSH0 DUP1 REVERT JUMPDEST POP PUSH1 0x4 CALLDATASIZE LT PUSH2 0x3F JUMPI PUSH0 CALLDATALOAD PUSH1 0xE0 SHR DUP1 PUSH4 0x680D1B8 EQ PUSH2 0x43 JUMPI DUP1 PUSH4 0x2D823335 EQ PUSH2 0x72 JUMPI DUP1 PUSH4 0x9AD1EE10 EQ PUSH2 0x7C JUMPI JUMPDEST PUSH0 DUP1 REVERT JUMPDEST PUSH2 0x56 PUSH2 0x51 CALLDATASIZE PUSH1 0x4 PUSH2 0x394 JUMP JUMPDEST PUSH2 0x8F JUMP JUMPDEST PUSH1 0x40 MLOAD PUSH1 0x1 PUSH1 0x1 PUSH1 0xA0 SHL SUB SWAP1 SWAP2 AND DUP2 MSTORE PUSH1 0x20 ADD PUSH1 0x40 MLOAD DUP1 SWAP2 SUB SWAP1 RETURN JUMPDEST PUSH2 0x7A PUSH2 0x101 JUMP JUMPDEST STOP JUMPDEST PUSH2 0x56 PUSH2 0x8A CALLDATASIZE PUSH1 0x4 PUSH2 0x394 JUMP JUMPDEST PUSH2 0x259 JUMP JUMPDEST PUSH0 DUP1 SLOAD DUP3 LT PUSH2 0xD5 JUMPI PUSH1 0x40 MLOAD PUSH3 0x461BCD PUSH1 0xE5 SHL DUP2 MSTORE PUSH1 0x20 PUSH1 0x4 DUP3 ADD MSTORE PUSH1 0xD PUSH1 0x24 DUP3 ADD MSTORE PUSH13 0x4F7574206F6620626F756E6473 PUSH1 0x98 SHL PUSH1 0x44 DUP3 ADD MSTORE PUSH1 0x64 ADD JUMPDEST PUSH1 0x40 MLOAD DUP1 SWAP2 SUB SWAP1 REVERT JUMPDEST PUSH0 DUP3 DUP2 SLOAD DUP2 LT PUSH2 0xE7 JUMPI PUSH2 0xE7 PUSH2 0x3AB JUMP JUMPDEST PUSH0 SWAP2 DUP3 MSTORE PUSH1 0x20 SWAP1 SWAP2 KECCAK256 ADD SLOAD PUSH1 0x1 PUSH1 0x1 PUSH1 0xA0 SHL SUB AND SWAP3 SWAP2 POP POP JUMP JUMPDEST PUSH0 SLOAD ISZERO PUSH2 0x143 JUMPI PUSH1 0x40 MLOAD PUSH3 0x461BCD PUSH1 0xE5 SHL DUP2 MSTORE PUSH1 0x20 PUSH1 0x4 DUP3 ADD MSTORE PUSH1 0x10 PUSH1 0x24 DUP3 ADD MSTORE PUSH16 0x105B1C9958591E4819195C1B1BDE5959 PUSH1 0x82 SHL PUSH1 0x44 DUP3 ADD MSTORE PUSH1 0x64 ADD PUSH2 0xCC JUMP JUMPDEST PUSH1 0x1 JUMPDEST PUSH1 0x5A DUP2 GT PUSH2 0x256 JUMPI PUSH0 PUSH2 0x158 DUP3 PUSH2 0x280 JUMP JUMPDEST PUSH1 0x40 MLOAD PUSH1 0x20 ADD PUSH2 0x168 SWAP2 SWAP1 PUSH2 0x3D6 JUMP JUMPDEST PUSH1 0x40 MLOAD PUSH1 0x20 DUP2 DUP4 SUB SUB DUP2 MSTORE SWAP1 PUSH1 0x40 MSTORE SWAP1 POP PUSH0 PUSH2 0x183 DUP4 PUSH2 0x280 JUMP JUMPDEST PUSH1 0x40 MLOAD PUSH1 0x20 ADD PUSH2 0x193 SWAP2 SWAP1 PUSH2 0x3F6 JUMP JUMPDEST PUSH1 0x40 DUP1 MLOAD PUSH1 0x1F NOT DUP2 DUP5 SUB ADD DUP2 MSTORE SWAP2 SWAP1 MSTORE SWAP1 POP PUSH0 PUSH2 0x1B9 DUP5 PUSH9 0x3635C9ADC5DEA00000 PUSH2 0x420 JUMP JUMPDEST SWAP1 POP PUSH0 DUP4 DUP4 DUP4 PUSH1 0x40 MLOAD PUSH2 0x1CB SWAP1 PUSH2 0x387 JUMP JUMPDEST PUSH2 0x1D7 SWAP4 SWAP3 SWAP2 SWAP1 PUSH2 0x46B JUMP JUMPDEST PUSH1 0x40 MLOAD DUP1 SWAP2 SUB SWAP1 PUSH0 CREATE DUP1 ISZERO DUP1 ISZERO PUSH2 0x1F0 JUMPI RETURNDATASIZE PUSH0 DUP1 RETURNDATACOPY RETURNDATASIZE PUSH0 REVERT JUMPDEST POP PUSH0 DUP1 SLOAD PUSH1 0x1 DUP2 ADD DUP3 SSTORE SWAP1 DUP1 MSTORE PUSH32 0x290DECD9548B62A8D60345A988386FC84BA6BC95484008F6362F93160EF3E563 ADD DUP1 SLOAD PUSH1 0x1 PUSH1 0x1 PUSH1 0xA0 SHL SUB NOT AND PUSH1 0x1 PUSH1 0x1 PUSH1 0xA0 SHL SUB SWAP3 SWAP1 SWAP3 AND SWAP2 SWAP1 SWAP2 OR SWAP1 SSTORE POP DUP4 SWAP3 POP PUSH2 0x24E SWAP2 POP DUP3 SWAP1 POP PUSH2 0x4A0 JUMP JUMPDEST SWAP2 POP POP PUSH2 0x146 JUMP JUMPDEST POP JUMP JUMPDEST PUSH0 DUP2 DUP2 SLOAD DUP2 LT PUSH2 0x267 JUMPI PUSH0 DUP1 REVERT JUMPDEST PUSH0 SWAP2 DUP3 MSTORE PUSH1 0x20 SWAP1 SWAP2 KECCAK256 ADD SLOAD PUSH1 0x1 PUSH1 0x1 PUSH1 0xA0 SHL SUB AND SWAP1 POP DUP2 JUMP JUMPDEST PUSH1 0x60 DUP2 PUSH0 SUB PUSH2 0x2A6 JUMPI POP POP PUSH1 0x40 DUP1 MLOAD DUP1 DUP3 ADD SWAP1 SWAP2 MSTORE PUSH1 0x1 DUP2 MSTORE PUSH1 0x3 PUSH1 0xFC SHL PUSH1 0x20 DUP3 ADD MSTORE SWAP1 JUMP JUMPDEST DUP2 PUSH0 JUMPDEST DUP2 ISZERO PUSH2 0x2CF JUMPI DUP1 PUSH2 0x2B9 DUP2 PUSH2 0x4A0 JUMP JUMPDEST SWAP2 POP PUSH2 0x2C8 SWAP1 POP PUSH1 0xA DUP4 PUSH2 0x4CC JUMP JUMPDEST SWAP2 POP PUSH2 0x2A9 JUMP JUMPDEST PUSH0 DUP2 PUSH8 0xFFFFFFFFFFFFFFFF DUP2 GT ISZERO PUSH2 0x2E9 JUMPI PUSH2 0x2E9 PUSH2 0x4DF JUMP JUMPDEST PUSH1 0x40 MLOAD SWAP1 DUP1 DUP3 MSTORE DUP1 PUSH1 0x1F ADD PUSH1 0x1F NOT AND PUSH1 0x20 ADD DUP3 ADD PUSH1 0x40 MSTORE DUP1 ISZERO PUSH2 0x313 JUMPI PUSH1 0x20 DUP3 ADD DUP2 DUP1 CALLDATASIZE DUP4 CALLDATACOPY ADD SWAP1 POP JUMPDEST POP SWAP1 POP DUP2 JUMPDEST DUP6 ISZERO PUSH2 0x37E JUMPI PUSH2 0x329 PUSH1 0x1 DUP3 PUSH2 0x4F3 JUMP JUMPDEST SWAP1 POP PUSH2 0x336 PUSH1 0xA DUP8 PUSH2 0x506 JUMP JUMPDEST PUSH2 0x341 SWAP1 PUSH1 0x30 PUSH2 0x519 JUMP JUMPDEST PUSH1 0xF8 SHL DUP3 DUP3 DUP2 MLOAD DUP2 LT PUSH2 0x356 JUMPI PUSH2 0x356 PUSH2 0x3AB JUMP JUMPDEST PUSH1 0x20 ADD ADD SWAP1 PUSH1 0x1 PUSH1 0x1 PUSH1 0xF8 SHL SUB NOT AND SWAP1 DUP2 PUSH0 BYTE SWAP1 MSTORE8 POP PUSH2 0x377 PUSH1 0xA DUP8 PUSH2 0x4CC JUMP JUMPDEST SWAP6 POP PUSH2 0x318 JUMP JUMPDEST POP SWAP5 SWAP4 POP POP POP POP JUMP JUMPDEST PUSH2 0x64C DUP1 PUSH2 0x52D DUP4 CODECOPY ADD SWAP1 JUMP JUMPDEST PUSH0 PUSH1 0x20 DUP3 DUP5 SUB SLT ISZERO PUSH2 0x3A4 JUMPI PUSH0 DUP1 REVERT JUMPDEST POP CALLDATALOAD SWAP2 SWAP1 POP JUMP JUMPDEST PUSH4 0x4E487B71 PUSH1 0xE0 SHL PUSH0 MSTORE PUSH1 0x32 PUSH1 0x4 MSTORE PUSH1 0x24 PUSH0 REVERT JUMPDEST PUSH0 DUP2 MLOAD DUP1 PUSH1 0x20 DUP5 ADD DUP6 MCOPY PUSH0 SWAP4 ADD SWAP3 DUP4 MSTORE POP SWAP1 SWAP2 SWAP1 POP JUMP JUMPDEST PUSH5 0x2A37B5B2B7 PUSH1 0xD9 SHL DUP2 MSTORE PUSH0 PUSH2 0x3EF PUSH1 0x5 DUP4 ADD DUP5 PUSH2 0x3BF JUMP JUMPDEST SWAP4 SWAP3 POP POP POP JUMP JUMPDEST PUSH2 0x544B PUSH1 0xF0 SHL DUP2 MSTORE PUSH0 PUSH2 0x3EF PUSH1 0x2 DUP4 ADD DUP5 PUSH2 0x3BF JUMP JUMPDEST PUSH4 0x4E487B71 PUSH1 0xE0 SHL PUSH0 MSTORE PUSH1 0x11 PUSH1 0x4 MSTORE PUSH1 0x24 PUSH0 REVERT JUMPDEST DUP1 DUP3 MUL DUP2 ISZERO DUP3 DUP3 DIV DUP5 EQ OR PUSH2 0x437 JUMPI PUSH2 0x437 PUSH2 0x40C JUMP JUMPDEST SWAP3 SWAP2 POP POP JUMP JUMPDEST PUSH0 DUP2 MLOAD DUP1 DUP5 MSTORE DUP1 PUSH1 0x20 DUP5 ADD PUSH1 0x20 DUP7 ADD MCOPY PUSH0 PUSH1 0x20 DUP3 DUP7 ADD ADD MSTORE PUSH1 0x20 PUSH1 0x1F NOT PUSH1 0x1F DUP4 ADD AND DUP6 ADD ADD SWAP2 POP POP SWAP3 SWAP2 POP POP JUMP JUMPDEST PUSH1 0x60 DUP2 MSTORE PUSH0 PUSH2 0x47D PUSH1 0x60 DUP4 ADD DUP7 PUSH2 0x43D JUMP JUMPDEST DUP3 DUP2 SUB PUSH1 0x20 DUP5 ADD MSTORE PUSH2 0x48F DUP2 DUP7 PUSH2 0x43D JUMP JUMPDEST SWAP2 POP POP DUP3 PUSH1 0x40 DUP4 ADD MSTORE SWAP5 SWAP4 POP POP POP POP JUMP JUMPDEST PUSH0 PUSH1 0x1 DUP3 ADD PUSH2 0x4B1 JUMPI PUSH2 0x4B1 PUSH2 0x40C JUMP JUMPDEST POP PUSH1 0x1 ADD SWAP1 JUMP JUMPDEST PUSH4 0x4E487B71 PUSH1 0xE0 SHL PUSH0 MSTORE PUSH1 0x12 PUSH1 0x4 MSTORE PUSH1 0x24 PUSH0 REVERT JUMPDEST PUSH0 DUP3 PUSH2 0x4DA JUMPI PUSH2 0x4DA PUSH2 0x4B8 JUMP JUMPDEST POP DIV SWAP1 JUMP JUMPDEST PUSH4 0x4E487B71 PUSH1 0xE0 SHL PUSH0 MSTORE PUSH1 0x41 PUSH1 0x4 MSTORE PUSH1 0x24 PUSH0 REVERT JUMPDEST DUP2 DUP2 SUB DUP2 DUP2 GT ISZERO PUSH2 0x437 JUMPI PUSH2 0x437 PUSH2 0x40C JUMP JUMPDEST PUSH0 DUP3 PUSH2 0x514 JUMPI PUSH2 0x514 PUSH2 0x4B8 JUMP JUMPDEST POP MOD SWAP1 JUMP JUMPDEST DUP1 DUP3 ADD DUP1 DUP3 GT ISZERO PUSH2 0x437 JUMPI PUSH2 0x437 PUSH2 0x40C JUMP INVALID PUSH1 0x80 PUSH1 0x40 MSTORE CALLVALUE DUP1 ISZERO PUSH2 0xF JUMPI PUSH0 DUP1 REVERT JUMPDEST POP PUSH1 0x40 MLOAD PUSH2 0x64C CODESIZE SUB DUP1 PUSH2 0x64C DUP4 CODECOPY DUP2 ADD PUSH1 0x40 DUP2 SWAP1 MSTORE PUSH2 0x2E SWAP2 PUSH2 0x100 JUMP JUMPDEST PUSH0 PUSH2 0x39 DUP5 DUP3 PUSH2 0x1F1 JUMP JUMPDEST POP PUSH1 0x1 PUSH2 0x46 DUP4 DUP3 PUSH2 0x1F1 JUMP JUMPDEST POP PUSH1 0x2 DUP2 SWAP1 SSTORE CALLER PUSH0 SWAP1 DUP2 MSTORE PUSH1 0x3 PUSH1 0x20 MSTORE PUSH1 0x40 SWAP1 KECCAK256 SSTORE POP PUSH2 0x2AB SWAP1 POP JUMP JUMPDEST PUSH4 0x4E487B71 PUSH1 0xE0 SHL PUSH0 MSTORE PUSH1 0x41 PUSH1 0x4 MSTORE PUSH1 0x24 PUSH0 REVERT JUMPDEST PUSH0 DUP3 PUSH1 0x1F DUP4 ADD SLT PUSH2 0x86 JUMPI PUSH0 DUP1 REVERT JUMPDEST DUP2 MLOAD PUSH1 0x1 PUSH1 0x1 PUSH1 0x40 SHL SUB DUP2 GT ISZERO PUSH2 0x9F JUMPI PUSH2 0x9F PUSH2 0x63 JUMP JUMPDEST PUSH1 0x40 MLOAD PUSH1 0x1F DUP3 ADD PUSH1 0x1F NOT SWAP1 DUP2 AND PUSH1 0x3F ADD AND DUP2 ADD PUSH1 0x1 PUSH1 0x1 PUSH1 0x40 SHL SUB DUP2 GT DUP3 DUP3 LT OR ISZERO PUSH2 0xCD JUMPI PUSH2 0xCD PUSH2 0x63 JUMP JUMPDEST PUSH1 0x40 MSTORE DUP2 DUP2 MSTORE DUP4 DUP3 ADD PUSH1 0x20 ADD DUP6 LT ISZERO PUSH2 0xE4 JUMPI PUSH0 DUP1 REVERT JUMPDEST DUP2 PUSH1 0x20 DUP6 ADD PUSH1 0x20 DUP4 ADD MCOPY PUSH0 SWAP2 DUP2 ADD PUSH1 0x20 ADD SWAP2 SWAP1 SWAP2 MSTORE SWAP4 SWAP3 POP POP POP JUMP JUMPDEST PUSH0 DUP1 PUSH0 PUSH1 0x60 DUP5 DUP7 SUB SLT ISZERO PUSH2 0x112 JUMPI PUSH0 DUP1 REVERT JUMPDEST DUP4 MLOAD PUSH1 0x1 PUSH1 0x1 PUSH1 0x40 SHL SUB DUP2 GT ISZERO PUSH2 0x127 JUMPI PUSH0 DUP1 REVERT JUMPDEST PUSH2 0x133 DUP7 DUP3 DUP8 ADD PUSH2 0x77 JUMP JUMPDEST PUSH1 0x20 DUP7 ADD MLOAD SWAP1 SWAP5 POP SWAP1 POP PUSH1 0x1 PUSH1 0x1 PUSH1 0x40 SHL SUB DUP2 GT ISZERO PUSH2 0x150 JUMPI PUSH0 DUP1 REVERT JUMPDEST PUSH2 0x15C DUP7 DUP3 DUP8 ADD PUSH2 0x77 JUMP JUMPDEST SWAP3 POP POP PUSH1 0x40 DUP5 ADD MLOAD SWAP1 POP SWAP3 POP SWAP3 POP SWAP3 JUMP JUMPDEST PUSH1 0x1 DUP2 DUP2 SHR SWAP1 DUP3 AND DUP1 PUSH2 0x181 JUMPI PUSH1 0x7F DUP3 AND SWAP2 POP JUMPDEST PUSH1 0x20 DUP3 LT DUP2 SUB PUSH2 0x19F JUMPI PUSH4 0x4E487B71 PUSH1 0xE0 SHL PUSH0 MSTORE PUSH1 0x22 PUSH1 0x4 MSTORE PUSH1 0x24 PUSH0 REVERT JUMPDEST POP SWAP2 SWAP1 POP JUMP JUMPDEST PUSH1 0x1F DUP3 GT ISZERO PUSH2 0x1EC JUMPI DUP1 PUSH0 MSTORE PUSH1 0x20 PUSH0 KECCAK256 PUSH1 0x1F DUP5 ADD PUSH1 0x5 SHR DUP2 ADD PUSH1 0x20 DUP6 LT ISZERO PUSH2 0x1CA JUMPI POP DUP1 JUMPDEST PUSH1 0x1F DUP5 ADD PUSH1 0x5 SHR DUP3 ADD SWAP2 POP JUMPDEST DUP2 DUP2 LT ISZERO PUSH2 0x1E9 JUMPI PUSH0 DUP2 SSTORE PUSH1 0x1 ADD PUSH2 0x1D6 JUMP JUMPDEST POP POP JUMPDEST POP POP POP JUMP JUMPDEST DUP2 MLOAD PUSH1 0x1 PUSH1 0x1 PUSH1 0x40 SHL SUB DUP2 GT ISZERO PUSH2 0x20A JUMPI PUSH2 0x20A PUSH2 0x63 JUMP JUMPDEST PUSH2 0x21E DUP2 PUSH2 0x218 DUP5 SLOAD PUSH2 0x16D JUMP JUMPDEST DUP5 PUSH2 0x1A5 JUMP JUMPDEST PUSH1 0x20 PUSH1 0x1F DUP3 GT PUSH1 0x1 DUP2 EQ PUSH2 0x250 JUMPI PUSH0 DUP4 ISZERO PUSH2 0x239 JUMPI POP DUP5 DUP3 ADD MLOAD JUMPDEST PUSH0 NOT PUSH1 0x3 DUP6 SWAP1 SHL SHR NOT AND PUSH1 0x1 DUP5 SWAP1 SHL OR DUP5 SSTORE PUSH2 0x1E9 JUMP JUMPDEST PUSH0 DUP5 DUP2 MSTORE PUSH1 0x20 DUP2 KECCAK256 PUSH1 0x1F NOT DUP6 AND SWAP2 JUMPDEST DUP3 DUP2 LT ISZERO PUSH2 0x27F JUMPI DUP8 DUP6 ADD MLOAD DUP3 SSTORE PUSH1 0x20 SWAP5 DUP6 ADD SWAP5 PUSH1 0x1 SWAP1 SWAP3 ADD SWAP2 ADD PUSH2 0x25F JUMP JUMPDEST POP DUP5 DUP3 LT ISZERO PUSH2 0x29C JUMPI DUP7 DUP5 ADD MLOAD PUSH0 NOT PUSH1 0x3 DUP8 SWAP1 SHL PUSH1 0xF8 AND SHR NOT AND DUP2 SSTORE JUMPDEST POP POP POP POP PUSH1 0x1 SWAP1 DUP2 SHL ADD SWAP1 SSTORE POP JUMP JUMPDEST PUSH2 0x394 DUP1 PUSH2 0x2B8 PUSH0 CODECOPY PUSH0 RETURN INVALID PUSH1 0x80 PUSH1 0x40 MSTORE CALLVALUE DUP1 ISZERO PUSH2 0xF JUMPI PUSH0 DUP1 REVERT JUMPDEST POP PUSH1 0x4 CALLDATASIZE LT PUSH2 0x60 JUMPI PUSH0 CALLDATALOAD PUSH1 0xE0 SHR DUP1 PUSH4 0x6FDDE03 EQ PUSH2 0x64 JUMPI DUP1 PUSH4 0x18160DDD EQ PUSH2 0x82 JUMPI DUP1 PUSH4 0x27E235E3 EQ PUSH2 0x99 JUMPI DUP1 PUSH4 0x70A08231 EQ PUSH2 0xB8 JUMPI DUP1 PUSH4 0x95D89B41 EQ PUSH2 0xE0 JUMPI DUP1 PUSH4 0xA9059CBB EQ PUSH2 0xE8 JUMPI JUMPDEST PUSH0 DUP1 REVERT JUMPDEST PUSH2 0x6C PUSH2 0x10B JUMP JUMPDEST PUSH1 0x40 MLOAD PUSH2 0x79 SWAP2 SWAP1 PUSH2 0x254 JUMP JUMPDEST PUSH1 0x40 MLOAD DUP1 SWAP2 SUB SWAP1 RETURN JUMPDEST PUSH2 0x8B PUSH1 0x2 SLOAD DUP2 JUMP JUMPDEST PUSH1 0x40 MLOAD SWAP1 DUP2 MSTORE PUSH1 0x20 ADD PUSH2 0x79 JUMP JUMPDEST PUSH2 0x8B PUSH2 0xA7 CALLDATASIZE PUSH1 0x4 PUSH2 0x2A4 JUMP JUMPDEST PUSH1 0x3 PUSH1 0x20 MSTORE PUSH0 SWAP1 DUP2 MSTORE PUSH1 0x40 SWAP1 KECCAK256 SLOAD DUP2 JUMP JUMPDEST PUSH2 0x8B PUSH2 0xC6 CALLDATASIZE PUSH1 0x4 PUSH2 0x2A4 JUMP JUMPDEST PUSH1 0x1 PUSH1 0x1 PUSH1 0xA0 SHL SUB AND PUSH0 SWAP1 DUP2 MSTORE PUSH1 0x3 PUSH1 0x20 MSTORE PUSH1 0x40 SWAP1 KECCAK256 SLOAD SWAP1 JUMP JUMPDEST PUSH2 0x6C PUSH2 0x196 JUMP JUMPDEST PUSH2 0xFB PUSH2 0xF6 CALLDATASIZE PUSH1 0x4 PUSH2 0x2C4 JUMP JUMPDEST PUSH2 0x1A3 JUMP JUMPDEST PUSH1 0x40 MLOAD SWAP1 ISZERO ISZERO DUP2 MSTORE PUSH1 0x20 ADD PUSH2 0x79 JUMP JUMPDEST PUSH0 DUP1 SLOAD PUSH2 0x117 SWAP1 PUSH2 0x2EC JUMP JUMPDEST DUP1 PUSH1 0x1F ADD PUSH1 0x20 DUP1 SWAP2 DIV MUL PUSH1 0x20 ADD PUSH1 0x40 MLOAD SWAP1 DUP2 ADD PUSH1 0x40 MSTORE DUP1 SWAP3 SWAP2 SWAP1 DUP2 DUP2 MSTORE PUSH1 0x20 ADD DUP3 DUP1 SLOAD PUSH2 0x143 SWAP1 PUSH2 0x2EC JUMP JUMPDEST DUP1 ISZERO PUSH2 0x18E JUMPI DUP1 PUSH1 0x1F LT PUSH2 0x165 JUMPI PUSH2 0x100 DUP1 DUP4 SLOAD DIV MUL DUP4 MSTORE SWAP2 PUSH1 0x20 ADD SWAP2 PUSH2 0x18E JUMP JUMPDEST DUP3 ADD SWAP2 SWAP1 PUSH0 MSTORE PUSH1 0x20 PUSH0 KECCAK256 SWAP1 JUMPDEST DUP2 SLOAD DUP2 MSTORE SWAP1 PUSH1 0x1 ADD SWAP1 PUSH1 0x20 ADD DUP1 DUP4 GT PUSH2 0x171 JUMPI DUP3 SWAP1 SUB PUSH1 0x1F AND DUP3 ADD SWAP2 JUMPDEST POP POP POP POP POP DUP2 JUMP JUMPDEST PUSH1 0x1 DUP1 SLOAD PUSH2 0x117 SWAP1 PUSH2 0x2EC JUMP JUMPDEST CALLER PUSH0 SWAP1 DUP2 MSTORE PUSH1 0x3 PUSH1 0x20 MSTORE PUSH1 0x40 DUP2 KECCAK256 SLOAD DUP3 GT ISZERO PUSH2 0x1FA JUMPI PUSH1 0x40 MLOAD PUSH3 0x461BCD PUSH1 0xE5 SHL DUP2 MSTORE PUSH1 0x20 PUSH1 0x4 DUP3 ADD MSTORE PUSH1 0x12 PUSH1 0x24 DUP3 ADD MSTORE PUSH18 0x4E6F7420656E6F7567682062616C616E6365 PUSH1 0x70 SHL PUSH1 0x44 DUP3 ADD MSTORE PUSH1 0x64 ADD PUSH1 0x40 MLOAD DUP1 SWAP2 SUB SWAP1 REVERT JUMPDEST CALLER PUSH0 SWAP1 DUP2 MSTORE PUSH1 0x3 PUSH1 0x20 MSTORE PUSH1 0x40 DUP2 KECCAK256 DUP1 SLOAD DUP5 SWAP3 SWAP1 PUSH2 0x218 SWAP1 DUP5 SWAP1 PUSH2 0x338 JUMP JUMPDEST SWAP1 SWAP2 SSTORE POP POP PUSH1 0x1 PUSH1 0x1 PUSH1 0xA0 SHL SUB DUP4 AND PUSH0 SWAP1 DUP2 MSTORE PUSH1 0x3 PUSH1 0x20 MSTORE PUSH1 0x40 DUP2 KECCAK256 DUP1 SLOAD DUP5 SWAP3 SWAP1 PUSH2 0x244 SWAP1 DUP5 SWAP1 PUSH2 0x34B JUMP JUMPDEST SWAP1 SWAP2 SSTORE POP PUSH1 0x1 SWAP2 POP POP JUMPDEST SWAP3 SWAP2 POP POP JUMP JUMPDEST PUSH1 0x20 DUP2 MSTORE PUSH0 DUP3 MLOAD DUP1 PUSH1 0x20 DUP5 ADD MSTORE DUP1 PUSH1 0x20 DUP6 ADD PUSH1 0x40 DUP6 ADD MCOPY PUSH0 PUSH1 0x40 DUP3 DUP6 ADD ADD MSTORE PUSH1 0x40 PUSH1 0x1F NOT PUSH1 0x1F DUP4 ADD AND DUP5 ADD ADD SWAP2 POP POP SWAP3 SWAP2 POP POP JUMP JUMPDEST DUP1 CALLDATALOAD PUSH1 0x1 PUSH1 0x1 PUSH1 0xA0 SHL SUB DUP2 AND DUP2 EQ PUSH2 0x29F JUMPI PUSH0 DUP1 REVERT JUMPDEST SWAP2 SWAP1 POP JUMP JUMPDEST PUSH0 PUSH1 0x20 DUP3 DUP5 SUB SLT ISZERO PUSH2 0x2B4 JUMPI PUSH0 DUP1 REVERT JUMPDEST PUSH2 0x2BD DUP3 PUSH2 0x289 JUMP JUMPDEST SWAP4 SWAP3 POP POP POP JUMP JUMPDEST PUSH0 DUP1 PUSH1 0x40 DUP4 DUP6 SUB SLT ISZERO PUSH2 0x2D5 JUMPI PUSH0 DUP1 REVERT JUMPDEST PUSH2 0x2DE DUP4 PUSH2 0x289 JUMP JUMPDEST SWAP5 PUSH1 0x20 SWAP4 SWAP1 SWAP4 ADD CALLDATALOAD SWAP4 POP POP POP JUMP JUMPDEST PUSH1 0x1 DUP2 DUP2 SHR SWAP1 DUP3 AND DUP1 PUSH2 0x300 JUMPI PUSH1 0x7F DUP3 AND SWAP2 POP JUMPDEST PUSH1 0x20 DUP3 LT DUP2 SUB PUSH2 0x31E JUMPI PUSH4 0x4E487B71 PUSH1 0xE0 SHL PUSH0 MSTORE PUSH1 0x22 PUSH1 0x4 MSTORE PUSH1 0x24 PUSH0 REVERT JUMPDEST POP SWAP2 SWAP1 POP JUMP JUMPDEST PUSH4 0x4E487B71 PUSH1 0xE0 SHL PUSH0 MSTORE PUSH1 0x11 PUSH1 0x4 MSTORE PUSH1 0x24 PUSH0 REVERT JUMPDEST DUP2 DUP2 SUB DUP2 DUP2 GT ISZERO PUSH2 0x24E JUMPI PUSH2 0x24E PUSH2 0x324 JUMP JUMPDEST DUP1 DUP3 ADD DUP1 DUP3 GT ISZERO PUSH2 0x24E JUMPI PUSH2 0x24E PUSH2 0x324 JUMP INVALID LOG2 PUSH5 0x6970667358 0x22 SLT KECCAK256 0xB1 PUSH15 0x68E90F81776D06380609F43111CA04 0xB2 PUSH4 0x23601A61 PUSH13 0xAECB7D362ACBDC1464736F6C63 NUMBER STOP ADDMOD BYTE STOP CALLER LOG2 PUSH5 0x6970667358 0x22 SLT KECCAK256 0xAC PC 0x2E EXTCODESIZE RETURNDATASIZE SWAP8 DUP3 0xAB DIV 0xEA GAS 0x4F DUP15 MSTORE8 0xA5 SWAP16 0xE8 POP 0xAE 0xBA ORIGIN PUSH7 0xE17FD114B2B16B DIV JUMP 0xF9 PUSH5 0x736F6C6343 STOP ADDMOD BYTE STOP CALLER "
				},
				"gasEstimates": {
					"creation": {
						"codeDepositCost": "598000",
						"executionCost": "630",
						"totalCost": "598630"
					},
					"external": {
						"deployAll()": "infinite",
						"deployedContracts(uint256)": "4620",
						"getDeployed(uint256)": "6703"
					},
					"internal": {
						"uint2str(uint256)": "infinite"
					}
				},
				"methodIdentifiers": {
					"deployAll()": "2d823335",
					"deployedContracts(uint256)": "9ad1ee10",
					"getDeployed(uint256)": "0680d1b8"
				}
			},
			"storageLayout": {
				"storage": [
					{
						"astId": 92,
						"contract": "hard.sol:Deploy30",
						"label": "deployedContracts",
						"offset": 0,
						"slot": "0",
						"type": "t_array(t_contract(Token)88)dyn_storage"
					}
				],
				"types": {
					"t_array(t_contract(Token)88)dyn_storage": {
						"base": "t_contract(Token)88",
						"encoding": "dynamic_array",
						"label": "contract Token[]",
						"numberOfBytes": "32"
					},
					"t_contract(Token)88": {
						"encoding": "inplace",
						"label": "contract Token",
						"numberOfBytes": "20"
					}
				}
			},
			"userdoc": {
				"kind": "user",
				"methods": {},
				"version": 1
			}
		}
	}
}