{
	"auctionbatchnew.sol": {
		"BatchDeployAuction": {
			"abi": [
				{
					"inputs": [],
					"stateMutability": "nonpayable",
					"type": "constructor"
				},
				{
					"inputs": [
						{
							"internalType": "uint256",
							"name": "",
							"type": "uint256"
						}
					],
					"name": "auctions",
					"outputs": [
						{
							"internalType": "contract Auction",
							"name": "",
							"type": "address"
						}
					],
					"stateMutability": "view",
					"type": "function"
				},
				{
					"inputs": [],
					"name": "auctionsCount",
					"outputs": [
						{
							"internalType": "uint256",
							"name": "",
							"type": "uint256"
						}
					],
					"stateMutability": "view",
					"type": "function"
				},
				{
					"inputs": [
						{
							"internalType": "uint256",
							"name": "index",
							"type": "uint256"
						}
					],
					"name": "deleteAuction",
					"outputs": [],
					"stateMutability": "nonpayable",
					"type": "function"
				},
				{
					"inputs": [
						{
							"internalType": "uint256",
							"name": "count",
							"type": "uint256"
						}
					],
					"name": "deployAll",
					"outputs": [],
					"stateMutability": "nonpayable",
					"type": "function"
				},
				{
					"inputs": [
						{
							"internalType": "string",
							"name": "name",
							"type": "string"
						}
					],
					"name": "deploySingle",
					"outputs": [],
					"stateMutability": "nonpayable",
					"type": "function"
				},
				{
					"inputs": [
						{
							"internalType": "uint256",
							"name": "index",
							"type": "uint256"
						}
					],
					"name": "get",
					"outputs": [
						{
							"internalType": "address",
							"name": "",
							"type": "address"
						}
					],
					"stateMutability": "view",
					"type": "function"
				},
				{
					"inputs": [],
					"name": "getAll",
					"outputs": [
						{
							"internalType": "address[]",
							"name": "",
							"type": "address[]"
						}
					],
					"stateMutability": "view",
					"type": "function"
				},
				{
					"inputs": [],
					"name": "owner",
					"outputs": [
						{
							"internalType": "address",
							"name": "",
							"type": "address"
						}
					],
					"stateMutability": "view",
					"type": "function"
				}
			],
			"devdoc": {
				"kind": "dev",
				"methods": {},
				"version": 1
			},
			"evm": {
				"assembly": "    /* \"auctionbatchnew.sol\":2135:3999  contract BatchDeployAuction {... */\n  mstore(0x40, 0x80)\n    /* \"auctionbatchnew.sol\":2332:2383  constructor() {... */\n  callvalue\n  dup1\n  iszero\n  tag_1\n  jumpi\n  0x00\n  dup1\n  revert\ntag_1:\n  pop\n    /* \"auctionbatchnew.sol\":2357:2362  owner */\n  0x01\n    /* \"auctionbatchnew.sol\":2357:2375  owner = msg.sender */\n  dup1\n  sload\n  not(sub(shl(0xa0, 0x01), 0x01))\n  and\n    /* \"auctionbatchnew.sol\":2365:2375  msg.sender */\n  caller\n    /* \"auctionbatchnew.sol\":2357:2375  owner = msg.sender */\n  or\n  swap1\n  sstore\n    /* \"auctionbatchnew.sol\":2135:3999  contract BatchDeployAuction {... */\n  dataSize(sub_0)\n  dup1\n  dataOffset(sub_0)\n  0x00\n  codecopy\n  0x00\n  return\nstop\n\nsub_0: assembly {\n        /* \"auctionbatchnew.sol\":2135:3999  contract BatchDeployAuction {... */\n      mstore(0x40, 0x80)\n      callvalue\n      dup1\n      iszero\n      tag_1\n      jumpi\n      0x00\n      dup1\n      revert\n    tag_1:\n      pop\n      jumpi(tag_2, lt(calldatasize, 0x04))\n      shr(0xe0, calldataload(0x00))\n      dup1\n      0x9507d39a\n      gt\n      tag_11\n      jumpi\n      dup1\n      0x9507d39a\n      eq\n      tag_7\n      jumpi\n      dup1\n      0xb3ef8e16\n      eq\n      tag_8\n      jumpi\n      dup1\n      0xb78d8dd5\n      eq\n      tag_9\n      jumpi\n      dup1\n      0xb830620a\n      eq\n      tag_10\n      jumpi\n      0x00\n      dup1\n      revert\n    tag_11:\n      dup1\n      0x53ed5143\n      eq\n      tag_3\n      jumpi\n      dup1\n      0x571a26a0\n      eq\n      tag_4\n      jumpi\n      dup1\n      0x7a32f291\n      eq\n      tag_5\n      jumpi\n      dup1\n      0x8da5cb5b\n      eq\n      tag_6\n      jumpi\n    tag_2:\n      0x00\n      dup1\n      revert\n        /* \"auctionbatchnew.sol\":3041:3309  function getAll() public view returns (address[] memory) {... */\n    tag_3:\n      tag_12\n      tag_13\n      jump\t// in\n    tag_12:\n      mload(0x40)\n      tag_14\n      swap2\n      swap1\n      tag_15\n      jump\t// in\n    tag_14:\n      mload(0x40)\n      dup1\n      swap2\n      sub\n      swap1\n      return\n        /* \"auctionbatchnew.sol\":2170:2195  Auction[] public auctions */\n    tag_4:\n      tag_16\n      tag_17\n      calldatasize\n      0x04\n      tag_18\n      jump\t// in\n    tag_17:\n      tag_19\n      jump\t// in\n    tag_16:\n      mload(0x40)\n      sub(shl(0xa0, 0x01), 0x01)\n        /* \"#utility.yul\":1020:1052   */\n      swap1\n      swap2\n      and\n        /* \"#utility.yul\":1002:1053   */\n      dup2\n      mstore\n        /* \"#utility.yul\":990:992   */\n      0x20\n        /* \"#utility.yul\":975:993   */\n      add\n        /* \"auctionbatchnew.sol\":2170:2195  Auction[] public auctions */\n      tag_14\n        /* \"#utility.yul\":841:1059   */\n      jump\n        /* \"auctionbatchnew.sol\":3317:3520  function deleteAuction(uint index) public onlyOwner {... */\n    tag_5:\n      tag_22\n      tag_23\n      calldatasize\n      0x04\n      tag_18\n      jump\t// in\n    tag_23:\n      tag_24\n      jump\t// in\n    tag_22:\n      stop\n        /* \"auctionbatchnew.sol\":2202:2222  address public owner */\n    tag_6:\n      sload(0x01)\n      tag_16\n      swap1\n      sub(shl(0xa0, 0x01), 0x01)\n      and\n      dup2\n      jump\n        /* \"auctionbatchnew.sol\":2868:3033  function get(uint index) public view returns (address) {... */\n    tag_7:\n      tag_16\n      tag_30\n      calldatasize\n      0x04\n      tag_18\n      jump\t// in\n    tag_30:\n      tag_31\n      jump\t// in\n        /* \"auctionbatchnew.sol\":2391:2718  function deployAll(uint count) public onlyOwner {... */\n    tag_8:\n      tag_22\n      tag_34\n      calldatasize\n      0x04\n      tag_18\n      jump\t// in\n    tag_34:\n      tag_35\n      jump\t// in\n        /* \"auctionbatchnew.sol\":2726:2860  function deploySingle(string memory name) public onlyOwner {... */\n    tag_9:\n      tag_22\n      tag_37\n      calldatasize\n      0x04\n      tag_38\n      jump\t// in\n    tag_37:\n      tag_39\n      jump\t// in\n        /* \"auctionbatchnew.sol\":3528:3621  function auctionsCount() public view returns (uint) {... */\n    tag_10:\n        /* \"auctionbatchnew.sol\":3574:3578  uint */\n      0x00\n        /* \"auctionbatchnew.sol\":3598:3613  auctions.length */\n      sload\n        /* \"auctionbatchnew.sol\":3528:3621  function auctionsCount() public view returns (uint) {... */\n      mload(0x40)\n        /* \"#utility.yul\":2500:2525   */\n      swap1\n      dup2\n      mstore\n        /* \"#utility.yul\":2488:2490   */\n      0x20\n        /* \"#utility.yul\":2473:2491   */\n      add\n        /* \"auctionbatchnew.sol\":3528:3621  function auctionsCount() public view returns (uint) {... */\n      tag_14\n        /* \"#utility.yul\":2354:2531   */\n      jump\n        /* \"auctionbatchnew.sol\":3041:3309  function getAll() public view returns (address[] memory) {... */\n    tag_13:\n        /* \"auctionbatchnew.sol\":3109:3132  address[] memory result */\n      0x00\n        /* \"auctionbatchnew.sol\":3149:3164  auctions.length */\n      dup1\n      sload\n        /* \"auctionbatchnew.sol\":3080:3096  address[] memory */\n      0x60\n      swap2\n        /* \"auctionbatchnew.sol\":3109:3132  address[] memory result */\n      swap1\n        /* \"auctionbatchnew.sol\":3135:3165  new address[](auctions.length) */\n      0xffffffffffffffff\n      dup2\n      gt\n      iszero\n      tag_46\n      jumpi\n      tag_46\n      tag_47\n      jump\t// in\n    tag_46:\n      mload(0x40)\n      swap1\n      dup1\n      dup3\n      mstore\n      dup1\n      0x20\n      mul\n      0x20\n      add\n      dup3\n      add\n      0x40\n      mstore\n      dup1\n      iszero\n      tag_48\n      jumpi\n      dup2\n      0x20\n      add\n      0x20\n      dup3\n      mul\n      dup1\n      calldatasize\n      dup4\n      calldatacopy\n      add\n      swap1\n      pop\n    tag_48:\n      pop\n        /* \"auctionbatchnew.sol\":3109:3165  address[] memory result = new address[](auctions.length) */\n      swap1\n      pop\n        /* \"auctionbatchnew.sol\":3181:3187  uint i */\n      0x00\n        /* \"auctionbatchnew.sol\":3176:3278  for (uint i = 0; i < auctions.length; i++) {... */\n    tag_49:\n        /* \"auctionbatchnew.sol\":3197:3205  auctions */\n      0x00\n        /* \"auctionbatchnew.sol\":3197:3212  auctions.length */\n      sload\n        /* \"auctionbatchnew.sol\":3193:3212  i < auctions.length */\n      dup2\n      lt\n        /* \"auctionbatchnew.sol\":3176:3278  for (uint i = 0; i < auctions.length; i++) {... */\n      iszero\n      tag_50\n      jumpi\n        /* \"auctionbatchnew.sol\":3254:3262  auctions */\n      0x00\n        /* \"auctionbatchnew.sol\":3263:3264  i */\n      dup2\n        /* \"auctionbatchnew.sol\":3254:3265  auctions[i] */\n      dup2\n      sload\n      dup2\n      lt\n      tag_53\n      jumpi\n      tag_53\n      tag_54\n      jump\t// in\n    tag_53:\n      swap1\n      0x00\n      mstore\n      keccak256(0x00, 0x20)\n      add\n      0x00\n      swap1\n      sload\n      swap1\n      0x0100\n      exp\n      swap1\n      div\n      sub(shl(0xa0, 0x01), 0x01)\n      and\n        /* \"auctionbatchnew.sol\":3234:3240  result */\n      dup3\n        /* \"auctionbatchnew.sol\":3241:3242  i */\n      dup3\n        /* \"auctionbatchnew.sol\":3234:3243  result[i] */\n      dup2\n      mload\n      dup2\n      lt\n      tag_57\n      jumpi\n      tag_57\n      tag_54\n      jump\t// in\n    tag_57:\n      sub(shl(0xa0, 0x01), 0x01)\n        /* \"auctionbatchnew.sol\":3234:3266  result[i] = address(auctions[i]) */\n      swap1\n      swap3\n      and\n        /* \"auctionbatchnew.sol\":3234:3243  result[i] */\n      0x20\n      swap3\n      dup4\n      mul\n      swap2\n      swap1\n      swap2\n      add\n      swap1\n      swap2\n      add\n        /* \"auctionbatchnew.sol\":3234:3266  result[i] = address(auctions[i]) */\n      mstore\n        /* \"auctionbatchnew.sol\":3214:3217  i++ */\n      0x01\n      add\n        /* \"auctionbatchnew.sol\":3176:3278  for (uint i = 0; i < auctions.length; i++) {... */\n      jump(tag_49)\n    tag_50:\n      pop\n        /* \"auctionbatchnew.sol\":3295:3301  result */\n      swap2\n        /* \"auctionbatchnew.sol\":3041:3309  function getAll() public view returns (address[] memory) {... */\n      swap1\n      pop\n      jump\t// out\n        /* \"auctionbatchnew.sol\":2170:2195  Auction[] public auctions */\n    tag_19:\n      0x00\n      dup2\n      dup2\n      sload\n      dup2\n      lt\n      tag_58\n      jumpi\n      0x00\n      dup1\n      revert\n    tag_58:\n      0x00\n      swap2\n      dup3\n      mstore\n      0x20\n      swap1\n      swap2\n      keccak256\n      add\n      sload\n      sub(shl(0xa0, 0x01), 0x01)\n      and\n      swap1\n      pop\n      dup2\n      jump\t// out\n        /* \"auctionbatchnew.sol\":3317:3520  function deleteAuction(uint index) public onlyOwner {... */\n    tag_24:\n        /* \"auctionbatchnew.sol\":2285:2290  owner */\n      and(sub(shl(0xa0, 0x01), 0x01), sload(0x01))\n        /* \"auctionbatchnew.sol\":2271:2281  msg.sender */\n      caller\n        /* \"auctionbatchnew.sol\":2271:2290  msg.sender == owner */\n      eq\n        /* \"auctionbatchnew.sol\":2263:2304  require(msg.sender == owner, \"Not owner\") */\n      tag_61\n      jumpi\n      mload(0x40)\n      shl(0xe5, 0x461bcd)\n      dup2\n      mstore\n      0x04\n      add\n      tag_62\n      swap1\n      tag_63\n      jump\t// in\n    tag_62:\n      mload(0x40)\n      dup1\n      swap2\n      sub\n      swap1\n      revert\n    tag_61:\n        /* \"auctionbatchnew.sol\":3396:3404  auctions */\n      0x00\n        /* \"auctionbatchnew.sol\":3396:3411  auctions.length */\n      sload\n        /* \"auctionbatchnew.sol\":3388:3411  index < auctions.length */\n      dup2\n      lt\n        /* \"auctionbatchnew.sol\":3380:3429  require(index < auctions.length, \"Invalid index\") */\n      tag_65\n      jumpi\n      mload(0x40)\n      shl(0xe5, 0x461bcd)\n      dup2\n      mstore\n        /* \"#utility.yul\":3207:3209   */\n      0x20\n        /* \"auctionbatchnew.sol\":3380:3429  require(index < auctions.length, \"Invalid index\") */\n      0x04\n      dup3\n      add\n        /* \"#utility.yul\":3189:3210   */\n      mstore\n        /* \"#utility.yul\":3246:3248   */\n      0x0d\n        /* \"#utility.yul\":3226:3244   */\n      0x24\n      dup3\n      add\n        /* \"#utility.yul\":3219:3249   */\n      mstore\n      shl(0x9b, 0x092dcecc2d8d2c840d2dcc8caf)\n        /* \"#utility.yul\":3265:3283   */\n      0x44\n      dup3\n      add\n        /* \"#utility.yul\":3258:3301   */\n      mstore\n        /* \"#utility.yul\":3318:3336   */\n      0x64\n      add\n        /* \"auctionbatchnew.sol\":3380:3429  require(index < auctions.length, \"Invalid index\") */\n      tag_62\n        /* \"#utility.yul\":3005:3342   */\n      jump\n        /* \"auctionbatchnew.sol\":3380:3429  require(index < auctions.length, \"Invalid index\") */\n    tag_65:\n        /* \"auctionbatchnew.sol\":3458:3466  auctions */\n      0x00\n        /* \"auctionbatchnew.sol\":3467:3482  auctions.length */\n      dup1\n      sload\n        /* \"auctionbatchnew.sol\":3467:3486  auctions.length - 1 */\n      tag_68\n      swap1\n        /* \"auctionbatchnew.sol\":3485:3486  1 */\n      0x01\n      swap1\n        /* \"auctionbatchnew.sol\":3467:3486  auctions.length - 1 */\n      tag_69\n      jump\t// in\n    tag_68:\n        /* \"auctionbatchnew.sol\":3458:3487  auctions[auctions.length - 1] */\n      dup2\n      sload\n      dup2\n      lt\n      tag_71\n      jumpi\n      tag_71\n      tag_54\n      jump\t// in\n    tag_71:\n      0x00\n      swap2\n      dup3\n      mstore\n      0x20\n      dup3\n      keccak256\n      add\n      sload\n        /* \"auctionbatchnew.sol\":3440:3455  auctions[index] */\n      dup2\n      sload\n      sub(shl(0xa0, 0x01), 0x01)\n        /* \"auctionbatchnew.sol\":3458:3487  auctions[auctions.length - 1] */\n      swap1\n      swap2\n      and\n      swap2\n      swap1\n        /* \"auctionbatchnew.sol\":3449:3454  index */\n      dup4\n      swap1\n        /* \"auctionbatchnew.sol\":3440:3455  auctions[index] */\n      dup2\n      lt\n      tag_74\n      jumpi\n      tag_74\n      tag_54\n      jump\t// in\n    tag_74:\n      0x00\n      swap2\n      dup3\n      mstore\n      0x20\n      dup3\n      keccak256\n      add\n        /* \"auctionbatchnew.sol\":3440:3487  auctions[index] = auctions[auctions.length - 1] */\n      dup1\n      sload\n      not(sub(shl(0xa0, 0x01), 0x01))\n      and\n      sub(shl(0xa0, 0x01), 0x01)\n      swap4\n      swap1\n      swap4\n      and\n      swap3\n      swap1\n      swap3\n      or\n      swap1\n      swap2\n      sstore\n        /* \"auctionbatchnew.sol\":3498:3512  auctions.pop() */\n      dup1\n      sload\n      dup1\n      tag_77\n      jumpi\n      tag_77\n      tag_78\n      jump\t// in\n    tag_77:\n      0x00\n      dup3\n      dup2\n      mstore\n      0x20\n      swap1\n      keccak256\n      dup2\n      add\n      not(0x00)\n      swap1\n      dup2\n      add\n      dup1\n      sload\n      not(sub(shl(0xa0, 0x01), 0x01))\n      and\n      swap1\n      sstore\n      add\n      swap1\n      sstore\n      pop\n        /* \"auctionbatchnew.sol\":3317:3520  function deleteAuction(uint index) public onlyOwner {... */\n      jump\t// out\n        /* \"auctionbatchnew.sol\":2868:3033  function get(uint index) public view returns (address) {... */\n    tag_31:\n        /* \"auctionbatchnew.sol\":2914:2921  address */\n      0x00\n        /* \"auctionbatchnew.sol\":2950:2965  auctions.length */\n      dup1\n      sload\n        /* \"auctionbatchnew.sol\":2942:2965  index < auctions.length */\n      dup3\n      lt\n        /* \"auctionbatchnew.sol\":2934:2983  require(index < auctions.length, \"Invalid index\") */\n      tag_81\n      jumpi\n      mload(0x40)\n      shl(0xe5, 0x461bcd)\n      dup2\n      mstore\n        /* \"#utility.yul\":3207:3209   */\n      0x20\n        /* \"auctionbatchnew.sol\":2934:2983  require(index < auctions.length, \"Invalid index\") */\n      0x04\n      dup3\n      add\n        /* \"#utility.yul\":3189:3210   */\n      mstore\n        /* \"#utility.yul\":3246:3248   */\n      0x0d\n        /* \"#utility.yul\":3226:3244   */\n      0x24\n      dup3\n      add\n        /* \"#utility.yul\":3219:3249   */\n      mstore\n      shl(0x9b, 0x092dcecc2d8d2c840d2dcc8caf)\n        /* \"#utility.yul\":3265:3283   */\n      0x44\n      dup3\n      add\n        /* \"#utility.yul\":3258:3301   */\n      mstore\n        /* \"#utility.yul\":3318:3336   */\n      0x64\n      add\n        /* \"auctionbatchnew.sol\":2934:2983  require(index < auctions.length, \"Invalid index\") */\n      tag_62\n        /* \"#utility.yul\":3005:3342   */\n      jump\n        /* \"auctionbatchnew.sol\":2934:2983  require(index < auctions.length, \"Invalid index\") */\n    tag_81:\n        /* \"auctionbatchnew.sol\":3009:3017  auctions */\n      0x00\n        /* \"auctionbatchnew.sol\":3018:3023  index */\n      dup3\n        /* \"auctionbatchnew.sol\":3009:3024  auctions[index] */\n      dup2\n      sload\n      dup2\n      lt\n      tag_84\n      jumpi\n      tag_84\n      tag_54\n      jump\t// in\n    tag_84:\n      0x00\n      swap2\n      dup3\n      mstore\n      0x20\n      swap1\n      swap2\n      keccak256\n      add\n      sload\n      sub(shl(0xa0, 0x01), 0x01)\n      and\n      swap3\n        /* \"auctionbatchnew.sol\":2868:3033  function get(uint index) public view returns (address) {... */\n      swap2\n      pop\n      pop\n      jump\t// out\n        /* \"auctionbatchnew.sol\":2391:2718  function deployAll(uint count) public onlyOwner {... */\n    tag_35:\n        /* \"auctionbatchnew.sol\":2285:2290  owner */\n      and(sub(shl(0xa0, 0x01), 0x01), sload(0x01))\n        /* \"auctionbatchnew.sol\":2271:2281  msg.sender */\n      caller\n        /* \"auctionbatchnew.sol\":2271:2290  msg.sender == owner */\n      eq\n        /* \"auctionbatchnew.sol\":2263:2304  require(msg.sender == owner, \"Not owner\") */\n      tag_87\n      jumpi\n      mload(0x40)\n      shl(0xe5, 0x461bcd)\n      dup2\n      mstore\n      0x04\n      add\n      tag_62\n      swap1\n      tag_63\n      jump\t// in\n    tag_87:\n        /* \"auctionbatchnew.sol\":2466:2467  0 */\n      0x00\n        /* \"auctionbatchnew.sol\":2458:2463  count */\n      dup2\n        /* \"auctionbatchnew.sol\":2458:2467  count > 0 */\n      gt\n        /* \"auctionbatchnew.sol\":2450:2489  require(count > 0, \"Count must be > 0\") */\n      tag_90\n      jumpi\n      mload(0x40)\n      shl(0xe5, 0x461bcd)\n      dup2\n      mstore\n        /* \"#utility.yul\":3946:3948   */\n      0x20\n        /* \"auctionbatchnew.sol\":2450:2489  require(count > 0, \"Count must be > 0\") */\n      0x04\n      dup3\n      add\n        /* \"#utility.yul\":3928:3949   */\n      mstore\n        /* \"#utility.yul\":3985:3987   */\n      0x11\n        /* \"#utility.yul\":3965:3983   */\n      0x24\n      dup3\n      add\n        /* \"#utility.yul\":3958:3988   */\n      mstore\n      shl(0x7c, 0x0436f756e74206d757374206265203e203)\n        /* \"#utility.yul\":4004:4022   */\n      0x44\n      dup3\n      add\n        /* \"#utility.yul\":3997:4044   */\n      mstore\n        /* \"#utility.yul\":4061:4079   */\n      0x64\n      add\n        /* \"auctionbatchnew.sol\":2450:2489  require(count > 0, \"Count must be > 0\") */\n      tag_62\n        /* \"#utility.yul\":3744:4085   */\n      jump\n        /* \"auctionbatchnew.sol\":2450:2489  require(count > 0, \"Count must be > 0\") */\n    tag_90:\n        /* \"auctionbatchnew.sol\":2514:2515  1 */\n      0x01\n        /* \"auctionbatchnew.sol\":2500:2711  for (uint i = 1; i <= count; i++) {... */\n    tag_93:\n        /* \"auctionbatchnew.sol\":2522:2527  count */\n      dup2\n        /* \"auctionbatchnew.sol\":2517:2518  i */\n      dup2\n        /* \"auctionbatchnew.sol\":2517:2527  i <= count */\n      gt\n        /* \"auctionbatchnew.sol\":2500:2711  for (uint i = 1; i <= count; i++) {... */\n      tag_94\n      jumpi\n        /* \"auctionbatchnew.sol\":2549:2571  string memory itemName */\n      0x00\n        /* \"auctionbatchnew.sol\":2607:2618  uint2str(i) */\n      tag_96\n        /* \"auctionbatchnew.sol\":2616:2617  i */\n      dup3\n        /* \"auctionbatchnew.sol\":2607:2615  uint2str */\n      tag_97\n        /* \"auctionbatchnew.sol\":2607:2618  uint2str(i) */\n      jump\t// in\n    tag_96:\n        /* \"auctionbatchnew.sol\":2581:2619  abi.encodePacked(\"Item_\", uint2str(i)) */\n      add(0x20, mload(0x40))\n      tag_98\n      swap2\n      swap1\n      tag_99\n      jump\t// in\n    tag_98:\n      mload(0x40)\n      0x20\n      dup2\n      dup4\n      sub\n      sub\n      dup2\n      mstore\n      swap1\n      0x40\n      mstore\n        /* \"auctionbatchnew.sol\":2549:2620  string memory itemName = string(abi.encodePacked(\"Item_\", uint2str(i))) */\n      swap1\n      pop\n        /* \"auctionbatchnew.sol\":2635:2644  Auction a */\n      0x00\n        /* \"auctionbatchnew.sol\":2659:2667  itemName */\n      dup2\n        /* \"auctionbatchnew.sol\":2647:2668  new Auction(itemName) */\n      mload(0x40)\n      tag_100\n      swap1\n      tag_101\n      jump\t// in\n    tag_100:\n      tag_102\n      swap2\n      swap1\n      tag_103\n      jump\t// in\n    tag_102:\n      mload(0x40)\n      dup1\n      swap2\n      sub\n      swap1\n      0x00\n      create\n      dup1\n      iszero\n      dup1\n      iszero\n      tag_104\n      jumpi\n      returndatasize\n      0x00\n      dup1\n      returndatacopy\n      revert(0x00, returndatasize)\n    tag_104:\n      pop\n        /* \"auctionbatchnew.sol\":2683:2691  auctions */\n      0x00\n        /* \"auctionbatchnew.sol\":2683:2699  auctions.push(a) */\n      dup1\n      sload\n      0x01\n      dup2\n      add\n      dup3\n      sstore\n      swap1\n      dup1\n      mstore\n      0x290decd9548b62a8d60345a988386fc84ba6bc95484008f6362f93160ef3e563\n      add\n      dup1\n      sload\n      not(sub(shl(0xa0, 0x01), 0x01))\n      and\n      sub(shl(0xa0, 0x01), 0x01)\n      swap3\n      swap1\n      swap3\n      and\n      swap2\n      swap1\n      swap2\n      or\n      swap1\n      sstore\n      pop\n        /* \"auctionbatchnew.sol\":2529:2532  i++ */\n      dup2\n      swap1\n      pop\n      tag_106\n      dup2\n      tag_107\n      jump\t// in\n    tag_106:\n      swap2\n      pop\n      pop\n        /* \"auctionbatchnew.sol\":2500:2711  for (uint i = 1; i <= count; i++) {... */\n      jump(tag_93)\n    tag_94:\n      pop\n        /* \"auctionbatchnew.sol\":2391:2718  function deployAll(uint count) public onlyOwner {... */\n      pop\n      jump\t// out\n        /* \"auctionbatchnew.sol\":2726:2860  function deploySingle(string memory name) public onlyOwner {... */\n    tag_39:\n        /* \"auctionbatchnew.sol\":2285:2290  owner */\n      and(sub(shl(0xa0, 0x01), 0x01), sload(0x01))\n        /* \"auctionbatchnew.sol\":2271:2281  msg.sender */\n      caller\n        /* \"auctionbatchnew.sol\":2271:2290  msg.sender == owner */\n      eq\n        /* \"auctionbatchnew.sol\":2263:2304  require(msg.sender == owner, \"Not owner\") */\n      tag_109\n      jumpi\n      mload(0x40)\n      shl(0xe5, 0x461bcd)\n      dup2\n      mstore\n      0x04\n      add\n      tag_62\n      swap1\n      tag_63\n      jump\t// in\n    tag_109:\n        /* \"auctionbatchnew.sol\":2796:2805  Auction a */\n      0x00\n        /* \"auctionbatchnew.sol\":2820:2824  name */\n      dup2\n        /* \"auctionbatchnew.sol\":2808:2825  new Auction(name) */\n      mload(0x40)\n      tag_112\n      swap1\n      tag_101\n      jump\t// in\n    tag_112:\n      tag_113\n      swap2\n      swap1\n      tag_103\n      jump\t// in\n    tag_113:\n      mload(0x40)\n      dup1\n      swap2\n      sub\n      swap1\n      0x00\n      create\n      dup1\n      iszero\n      dup1\n      iszero\n      tag_114\n      jumpi\n      returndatasize\n      0x00\n      dup1\n      returndatacopy\n      revert(0x00, returndatasize)\n    tag_114:\n      pop\n        /* \"auctionbatchnew.sol\":2836:2844  auctions */\n      0x00\n        /* \"auctionbatchnew.sol\":2836:2852  auctions.push(a) */\n      dup1\n      sload\n      0x01\n      dup2\n      add\n      dup3\n      sstore\n      swap1\n      dup1\n      mstore\n      0x290decd9548b62a8d60345a988386fc84ba6bc95484008f6362f93160ef3e563\n      add\n      dup1\n      sload\n      not(sub(shl(0xa0, 0x01), 0x01))\n      and\n      sub(shl(0xa0, 0x01), 0x01)\n      swap3\n      swap1\n      swap3\n      and\n      swap2\n      swap1\n      swap2\n      or\n      swap1\n      sstore\n      pop\n      pop\n        /* \"auctionbatchnew.sol\":2726:2860  function deploySingle(string memory name) public onlyOwner {... */\n      jump\t// out\n        /* \"auctionbatchnew.sol\":3629:3996  function uint2str(uint _i) internal pure returns (string memory str) {... */\n    tag_97:\n        /* \"auctionbatchnew.sol\":3679:3696  string memory str */\n      0x60\n        /* \"auctionbatchnew.sol\":3713:3715  _i */\n      dup2\n        /* \"auctionbatchnew.sol\":3719:3720  0 */\n      0x00\n        /* \"auctionbatchnew.sol\":3713:3720  _i == 0 */\n      sub\n        /* \"auctionbatchnew.sol\":3709:3732  if (_i == 0) return \"0\" */\n      tag_118\n      jumpi\n      pop\n      pop\n        /* \"auctionbatchnew.sol\":3722:3732  return \"0\" */\n      0x40\n      dup1\n      mload\n      dup1\n      dup3\n      add\n      swap1\n      swap2\n      mstore\n      0x01\n      dup2\n      mstore\n      shl(0xfc, 0x03)\n      0x20\n      dup3\n      add\n      mstore\n      swap1\n        /* \"auctionbatchnew.sol\":3629:3996  function uint2str(uint _i) internal pure returns (string memory str) {... */\n      jump\t// out\n        /* \"auctionbatchnew.sol\":3709:3732  if (_i == 0) return \"0\" */\n    tag_118:\n        /* \"auctionbatchnew.sol\":3752:3754  _i */\n      dup2\n        /* \"auctionbatchnew.sol\":3743:3749  uint j */\n      0x00\n        /* \"auctionbatchnew.sol\":3775:3809  while (j != 0) { len++; j /= 10; } */\n    tag_119:\n        /* \"auctionbatchnew.sol\":3782:3788  j != 0 */\n      dup2\n      iszero\n        /* \"auctionbatchnew.sol\":3775:3809  while (j != 0) { len++; j /= 10; } */\n      tag_120\n      jumpi\n        /* \"auctionbatchnew.sol\":3792:3797  len++ */\n      dup1\n      tag_121\n      dup2\n      tag_107\n      jump\t// in\n    tag_121:\n      swap2\n      pop\n        /* \"auctionbatchnew.sol\":3799:3806  j /= 10 */\n      tag_122\n      swap1\n      pop\n        /* \"auctionbatchnew.sol\":3804:3806  10 */\n      0x0a\n        /* \"auctionbatchnew.sol\":3799:3806  j /= 10 */\n      dup4\n      tag_123\n      jump\t// in\n    tag_122:\n      swap2\n      pop\n        /* \"auctionbatchnew.sol\":3775:3809  while (j != 0) { len++; j /= 10; } */\n      jump(tag_119)\n    tag_120:\n        /* \"auctionbatchnew.sol\":3819:3836  bytes memory bstr */\n      0x00\n        /* \"auctionbatchnew.sol\":3849:3852  len */\n      dup2\n        /* \"auctionbatchnew.sol\":3839:3853  new bytes(len) */\n      0xffffffffffffffff\n      dup2\n      gt\n      iszero\n      tag_125\n      jumpi\n      tag_125\n      tag_47\n      jump\t// in\n    tag_125:\n      mload(0x40)\n      swap1\n      dup1\n      dup3\n      mstore\n      dup1\n      0x1f\n      add\n      not(0x1f)\n      and\n      0x20\n      add\n      dup3\n      add\n      0x40\n      mstore\n      dup1\n      iszero\n      tag_126\n      jumpi\n      0x20\n      dup3\n      add\n      dup2\n      dup1\n      calldatasize\n      dup4\n      calldatacopy\n      add\n      swap1\n      pop\n    tag_126:\n      pop\n        /* \"auctionbatchnew.sol\":3819:3853  bytes memory bstr = new bytes(len) */\n      swap1\n      pop\n        /* \"auctionbatchnew.sol\":3873:3876  len */\n      dup2\n        /* \"auctionbatchnew.sol\":3887:3960  while (_i != 0) { k--; bstr[k] = bytes1(uint8(48 + _i % 10)); _i /= 10; } */\n    tag_127:\n        /* \"auctionbatchnew.sol\":3894:3901  _i != 0 */\n      dup6\n      iszero\n        /* \"auctionbatchnew.sol\":3887:3960  while (_i != 0) { k--; bstr[k] = bytes1(uint8(48 + _i % 10)); _i /= 10; } */\n      tag_128\n      jumpi\n        /* \"auctionbatchnew.sol\":3905:3908  k-- */\n      dup1\n      tag_129\n      dup2\n      tag_130\n      jump\t// in\n    tag_129:\n      swap2\n      pop\n        /* \"auctionbatchnew.sol\":3938:3945  _i % 10 */\n      tag_131\n      swap1\n      pop\n        /* \"auctionbatchnew.sol\":3943:3945  10 */\n      0x0a\n        /* \"auctionbatchnew.sol\":3938:3940  _i */\n      dup8\n        /* \"auctionbatchnew.sol\":3938:3945  _i % 10 */\n      tag_132\n      jump\t// in\n    tag_131:\n        /* \"auctionbatchnew.sol\":3933:3945  48 + _i % 10 */\n      tag_133\n      swap1\n        /* \"auctionbatchnew.sol\":3933:3935  48 */\n      0x30\n        /* \"auctionbatchnew.sol\":3933:3945  48 + _i % 10 */\n      tag_134\n      jump\t// in\n    tag_133:\n        /* \"auctionbatchnew.sol\":3920:3947  bytes1(uint8(48 + _i % 10)) */\n      0xf8\n      shl\n        /* \"auctionbatchnew.sol\":3910:3914  bstr */\n      dup3\n        /* \"auctionbatchnew.sol\":3915:3916  k */\n      dup3\n        /* \"auctionbatchnew.sol\":3910:3917  bstr[k] */\n      dup2\n      mload\n      dup2\n      lt\n      tag_136\n      jumpi\n      tag_136\n      tag_54\n      jump\t// in\n    tag_136:\n      0x20\n      add\n      add\n        /* \"auctionbatchnew.sol\":3910:3947  bstr[k] = bytes1(uint8(48 + _i % 10)) */\n      swap1\n      not(sub(shl(0xf8, 0x01), 0x01))\n      and\n      swap1\n      dup2\n      0x00\n      byte\n      swap1\n      mstore8\n      pop\n        /* \"auctionbatchnew.sol\":3949:3957  _i /= 10 */\n      tag_137\n        /* \"auctionbatchnew.sol\":3955:3957  10 */\n      0x0a\n        /* \"auctionbatchnew.sol\":3949:3957  _i /= 10 */\n      dup8\n      tag_123\n      jump\t// in\n    tag_137:\n      swap6\n      pop\n        /* \"auctionbatchnew.sol\":3887:3960  while (_i != 0) { k--; bstr[k] = bytes1(uint8(48 + _i % 10)); _i /= 10; } */\n      jump(tag_127)\n    tag_128:\n      pop\n        /* \"auctionbatchnew.sol\":3983:3987  bstr */\n      swap5\n        /* \"auctionbatchnew.sol\":3629:3996  function uint2str(uint _i) internal pure returns (string memory str) {... */\n      swap4\n      pop\n      pop\n      pop\n      pop\n      jump\t// out\n    tag_101:\n      dataSize(sub_0)\n      dup1\n      dataOffset(sub_0)\n      dup4\n      codecopy\n      add\n      swap1\n      jump\t// out\n        /* \"#utility.yul\":14:651   */\n    tag_15:\n        /* \"#utility.yul\":204:206   */\n      0x20\n        /* \"#utility.yul\":216:237   */\n      dup1\n      dup3\n      mstore\n        /* \"#utility.yul\":286:299   */\n      dup3\n      mload\n        /* \"#utility.yul\":189:207   */\n      dup3\n      dup3\n      add\n        /* \"#utility.yul\":308:330   */\n      dup2\n      swap1\n      mstore\n        /* \"#utility.yul\":156:160   */\n      0x00\n      swap2\n        /* \"#utility.yul\":387:402   */\n      dup5\n      add\n      swap1\n        /* \"#utility.yul\":361:363   */\n      0x40\n        /* \"#utility.yul\":346:364   */\n      dup5\n      add\n      swap1\n        /* \"#utility.yul\":156:160   */\n      dup4\n        /* \"#utility.yul\":430:625   */\n    tag_142:\n        /* \"#utility.yul\":444:450   */\n      dup2\n        /* \"#utility.yul\":441:442   */\n      dup2\n        /* \"#utility.yul\":438:451   */\n      lt\n        /* \"#utility.yul\":430:625   */\n      iszero\n      tag_144\n      jumpi\n        /* \"#utility.yul\":509:522   */\n      dup4\n      mload\n      sub(shl(0xa0, 0x01), 0x01)\n        /* \"#utility.yul\":505:544   */\n      and\n        /* \"#utility.yul\":493:545   */\n      dup4\n      mstore\n        /* \"#utility.yul\":574:576   */\n      0x20\n        /* \"#utility.yul\":600:615   */\n      swap4\n      dup5\n      add\n      swap4\n        /* \"#utility.yul\":565:577   */\n      swap1\n      swap3\n      add\n      swap2\n        /* \"#utility.yul\":541:542   */\n      0x01\n        /* \"#utility.yul\":459:468   */\n      add\n        /* \"#utility.yul\":430:625   */\n      jump(tag_142)\n    tag_144:\n      pop\n        /* \"#utility.yul\":642:645   */\n      swap1\n      swap6\n        /* \"#utility.yul\":14:651   */\n      swap5\n      pop\n      pop\n      pop\n      pop\n      pop\n      jump\t// out\n        /* \"#utility.yul\":656:836   */\n    tag_18:\n        /* \"#utility.yul\":715:721   */\n      0x00\n        /* \"#utility.yul\":768:770   */\n      0x20\n        /* \"#utility.yul\":756:765   */\n      dup3\n        /* \"#utility.yul\":747:754   */\n      dup5\n        /* \"#utility.yul\":743:766   */\n      sub\n        /* \"#utility.yul\":739:771   */\n      slt\n        /* \"#utility.yul\":736:788   */\n      iszero\n      tag_146\n      jumpi\n        /* \"#utility.yul\":784:785   */\n      0x00\n        /* \"#utility.yul\":781:782   */\n      dup1\n        /* \"#utility.yul\":774:786   */\n      revert\n        /* \"#utility.yul\":736:788   */\n    tag_146:\n      pop\n        /* \"#utility.yul\":807:830   */\n      calldataload\n      swap2\n        /* \"#utility.yul\":656:836   */\n      swap1\n      pop\n      jump\t// out\n        /* \"#utility.yul\":1272:1399   */\n    tag_47:\n        /* \"#utility.yul\":1333:1343   */\n      0x4e487b71\n        /* \"#utility.yul\":1328:1331   */\n      0xe0\n        /* \"#utility.yul\":1324:1344   */\n      shl\n        /* \"#utility.yul\":1321:1322   */\n      0x00\n        /* \"#utility.yul\":1314:1345   */\n      mstore\n        /* \"#utility.yul\":1364:1368   */\n      0x41\n        /* \"#utility.yul\":1361:1362   */\n      0x04\n        /* \"#utility.yul\":1354:1369   */\n      mstore\n        /* \"#utility.yul\":1388:1392   */\n      0x24\n        /* \"#utility.yul\":1385:1386   */\n      0x00\n        /* \"#utility.yul\":1378:1393   */\n      revert\n        /* \"#utility.yul\":1404:2349   */\n    tag_38:\n        /* \"#utility.yul\":1473:1479   */\n      0x00\n        /* \"#utility.yul\":1526:1528   */\n      0x20\n        /* \"#utility.yul\":1514:1523   */\n      dup3\n        /* \"#utility.yul\":1505:1512   */\n      dup5\n        /* \"#utility.yul\":1501:1524   */\n      sub\n        /* \"#utility.yul\":1497:1529   */\n      slt\n        /* \"#utility.yul\":1494:1546   */\n      iszero\n      tag_151\n      jumpi\n        /* \"#utility.yul\":1542:1543   */\n      0x00\n        /* \"#utility.yul\":1539:1540   */\n      dup1\n        /* \"#utility.yul\":1532:1544   */\n      revert\n        /* \"#utility.yul\":1494:1546   */\n    tag_151:\n        /* \"#utility.yul\":1582:1591   */\n      dup2\n        /* \"#utility.yul\":1569:1592   */\n      calldataload\n        /* \"#utility.yul\":1615:1633   */\n      0xffffffffffffffff\n        /* \"#utility.yul\":1607:1613   */\n      dup2\n        /* \"#utility.yul\":1604:1634   */\n      gt\n        /* \"#utility.yul\":1601:1651   */\n      iszero\n      tag_152\n      jumpi\n        /* \"#utility.yul\":1647:1648   */\n      0x00\n        /* \"#utility.yul\":1644:1645   */\n      dup1\n        /* \"#utility.yul\":1637:1649   */\n      revert\n        /* \"#utility.yul\":1601:1651   */\n    tag_152:\n        /* \"#utility.yul\":1670:1692   */\n      dup3\n      add\n        /* \"#utility.yul\":1723:1727   */\n      0x1f\n        /* \"#utility.yul\":1715:1728   */\n      dup2\n      add\n        /* \"#utility.yul\":1711:1738   */\n      dup5\n      sgt\n        /* \"#utility.yul\":1701:1756   */\n      tag_153\n      jumpi\n        /* \"#utility.yul\":1752:1753   */\n      0x00\n        /* \"#utility.yul\":1749:1750   */\n      dup1\n        /* \"#utility.yul\":1742:1754   */\n      revert\n        /* \"#utility.yul\":1701:1756   */\n    tag_153:\n        /* \"#utility.yul\":1792:1794   */\n      dup1\n        /* \"#utility.yul\":1779:1795   */\n      calldataload\n        /* \"#utility.yul\":1818:1836   */\n      0xffffffffffffffff\n        /* \"#utility.yul\":1810:1816   */\n      dup2\n        /* \"#utility.yul\":1807:1837   */\n      gt\n        /* \"#utility.yul\":1804:1860   */\n      iszero\n      tag_155\n      jumpi\n        /* \"#utility.yul\":1840:1858   */\n      tag_155\n      tag_47\n      jump\t// in\n    tag_155:\n        /* \"#utility.yul\":1889:1891   */\n      0x40\n        /* \"#utility.yul\":1883:1892   */\n      mload\n        /* \"#utility.yul\":1981:1983   */\n      0x1f\n        /* \"#utility.yul\":1943:1960   */\n      dup3\n      add\n      not(0x1f)\n        /* \"#utility.yul\":1939:1970   */\n      swap1\n      dup2\n      and\n        /* \"#utility.yul\":1972:1974   */\n      0x3f\n        /* \"#utility.yul\":1935:1975   */\n      add\n        /* \"#utility.yul\":1931:1985   */\n      and\n        /* \"#utility.yul\":1919:1986   */\n      dup2\n      add\n        /* \"#utility.yul\":2016:2034   */\n      0xffffffffffffffff\n        /* \"#utility.yul\":2001:2035   */\n      dup2\n      gt\n        /* \"#utility.yul\":2037:2059   */\n      dup3\n      dup3\n      lt\n        /* \"#utility.yul\":1998:2060   */\n      or\n        /* \"#utility.yul\":1995:2083   */\n      iszero\n      tag_157\n      jumpi\n        /* \"#utility.yul\":2063:2081   */\n      tag_157\n      tag_47\n      jump\t// in\n    tag_157:\n        /* \"#utility.yul\":2099:2101   */\n      0x40\n        /* \"#utility.yul\":2092:2114   */\n      mstore\n        /* \"#utility.yul\":2123:2145   */\n      dup2\n      dup2\n      mstore\n        /* \"#utility.yul\":2164:2179   */\n      dup3\n      dup3\n      add\n        /* \"#utility.yul\":2181:2183   */\n      0x20\n        /* \"#utility.yul\":2160:2184   */\n      add\n        /* \"#utility.yul\":2157:2194   */\n      dup7\n      lt\n        /* \"#utility.yul\":2154:2211   */\n      iszero\n      tag_158\n      jumpi\n        /* \"#utility.yul\":2207:2208   */\n      0x00\n        /* \"#utility.yul\":2204:2205   */\n      dup1\n        /* \"#utility.yul\":2197:2209   */\n      revert\n        /* \"#utility.yul\":2154:2211   */\n    tag_158:\n        /* \"#utility.yul\":2263:2269   */\n      dup2\n        /* \"#utility.yul\":2258:2260   */\n      0x20\n        /* \"#utility.yul\":2254:2256   */\n      dup5\n        /* \"#utility.yul\":2250:2261   */\n      add\n        /* \"#utility.yul\":2245:2247   */\n      0x20\n        /* \"#utility.yul\":2237:2243   */\n      dup4\n        /* \"#utility.yul\":2233:2248   */\n      add\n        /* \"#utility.yul\":2220:2270   */\n      calldatacopy\n        /* \"#utility.yul\":2316:2317   */\n      0x00\n        /* \"#utility.yul\":2290:2309   */\n      swap2\n      dup2\n      add\n        /* \"#utility.yul\":2311:2313   */\n      0x20\n        /* \"#utility.yul\":2286:2314   */\n      add\n        /* \"#utility.yul\":2279:2318   */\n      swap2\n      swap1\n      swap2\n      mstore\n        /* \"#utility.yul\":2294:2300   */\n      swap5\n        /* \"#utility.yul\":1404:2349   */\n      swap4\n      pop\n      pop\n      pop\n      pop\n      jump\t// out\n        /* \"#utility.yul\":2536:2663   */\n    tag_54:\n        /* \"#utility.yul\":2597:2607   */\n      0x4e487b71\n        /* \"#utility.yul\":2592:2595   */\n      0xe0\n        /* \"#utility.yul\":2588:2608   */\n      shl\n        /* \"#utility.yul\":2585:2586   */\n      0x00\n        /* \"#utility.yul\":2578:2609   */\n      mstore\n        /* \"#utility.yul\":2628:2632   */\n      0x32\n        /* \"#utility.yul\":2625:2626   */\n      0x04\n        /* \"#utility.yul\":2618:2633   */\n      mstore\n        /* \"#utility.yul\":2652:2656   */\n      0x24\n        /* \"#utility.yul\":2649:2650   */\n      0x00\n        /* \"#utility.yul\":2642:2657   */\n      revert\n        /* \"#utility.yul\":2668:3000   */\n    tag_63:\n        /* \"#utility.yul\":2870:2872   */\n      0x20\n        /* \"#utility.yul\":2852:2873   */\n      dup1\n      dup3\n      mstore\n        /* \"#utility.yul\":2909:2910   */\n      0x09\n        /* \"#utility.yul\":2889:2907   */\n      swap1\n      dup3\n      add\n        /* \"#utility.yul\":2882:2911   */\n      mstore\n      shl(0xb9, 0x2737ba1037bbb732b9)\n        /* \"#utility.yul\":2942:2944   */\n      0x40\n        /* \"#utility.yul\":2927:2945   */\n      dup3\n      add\n        /* \"#utility.yul\":2920:2959   */\n      mstore\n        /* \"#utility.yul\":2991:2993   */\n      0x60\n        /* \"#utility.yul\":2976:2994   */\n      add\n      swap1\n        /* \"#utility.yul\":2668:3000   */\n      jump\t// out\n        /* \"#utility.yul\":3347:3474   */\n    tag_138:\n        /* \"#utility.yul\":3408:3418   */\n      0x4e487b71\n        /* \"#utility.yul\":3403:3406   */\n      0xe0\n        /* \"#utility.yul\":3399:3419   */\n      shl\n        /* \"#utility.yul\":3396:3397   */\n      0x00\n        /* \"#utility.yul\":3389:3420   */\n      mstore\n        /* \"#utility.yul\":3439:3443   */\n      0x11\n        /* \"#utility.yul\":3436:3437   */\n      0x04\n        /* \"#utility.yul\":3429:3444   */\n      mstore\n        /* \"#utility.yul\":3463:3467   */\n      0x24\n        /* \"#utility.yul\":3460:3461   */\n      0x00\n        /* \"#utility.yul\":3453:3468   */\n      revert\n        /* \"#utility.yul\":3479:3607   */\n    tag_69:\n        /* \"#utility.yul\":3546:3555   */\n      dup2\n      dup2\n      sub\n        /* \"#utility.yul\":3567:3578   */\n      dup2\n      dup2\n      gt\n        /* \"#utility.yul\":3564:3601   */\n      iszero\n      tag_166\n      jumpi\n        /* \"#utility.yul\":3581:3599   */\n      tag_166\n      tag_138\n      jump\t// in\n    tag_166:\n        /* \"#utility.yul\":3479:3607   */\n      swap3\n      swap2\n      pop\n      pop\n      jump\t// out\n        /* \"#utility.yul\":3612:3739   */\n    tag_78:\n        /* \"#utility.yul\":3673:3683   */\n      0x4e487b71\n        /* \"#utility.yul\":3668:3671   */\n      0xe0\n        /* \"#utility.yul\":3664:3684   */\n      shl\n        /* \"#utility.yul\":3661:3662   */\n      0x00\n        /* \"#utility.yul\":3654:3685   */\n      mstore\n        /* \"#utility.yul\":3704:3708   */\n      0x31\n        /* \"#utility.yul\":3701:3702   */\n      0x04\n        /* \"#utility.yul\":3694:3709   */\n      mstore\n        /* \"#utility.yul\":3728:3732   */\n      0x24\n        /* \"#utility.yul\":3725:3726   */\n      0x00\n        /* \"#utility.yul\":3718:3733   */\n      revert\n        /* \"#utility.yul\":4090:4539   */\n    tag_99:\n      shl(0xd8, 0x4974656d5f)\n        /* \"#utility.yul\":4347:4350   */\n      dup2\n        /* \"#utility.yul\":4340:4360   */\n      mstore\n        /* \"#utility.yul\":4322:4325   */\n      0x00\n        /* \"#utility.yul\":4389:4395   */\n      dup3\n        /* \"#utility.yul\":4383:4396   */\n      mload\n        /* \"#utility.yul\":4443:4449   */\n      dup1\n        /* \"#utility.yul\":4436:4440   */\n      0x20\n        /* \"#utility.yul\":4428:4434   */\n      dup6\n        /* \"#utility.yul\":4424:4441   */\n      add\n        /* \"#utility.yul\":4420:4421   */\n      0x05\n        /* \"#utility.yul\":4415:4418   */\n      dup6\n        /* \"#utility.yul\":4411:4422   */\n      add\n        /* \"#utility.yul\":4405:4450   */\n      mcopy\n        /* \"#utility.yul\":4513:4514   */\n      0x00\n        /* \"#utility.yul\":4473:4489   */\n      swap3\n      add\n        /* \"#utility.yul\":4491:4492   */\n      0x05\n        /* \"#utility.yul\":4469:4493   */\n      add\n        /* \"#utility.yul\":4502:4515   */\n      swap2\n      dup3\n      mstore\n      pop\n        /* \"#utility.yul\":4469:4493   */\n      swap2\n        /* \"#utility.yul\":4090:4539   */\n      swap1\n      pop\n      jump\t// out\n        /* \"#utility.yul\":4544:4962   */\n    tag_103:\n        /* \"#utility.yul\":4693:4695   */\n      0x20\n        /* \"#utility.yul\":4682:4691   */\n      dup2\n        /* \"#utility.yul\":4675:4696   */\n      mstore\n        /* \"#utility.yul\":4656:4660   */\n      0x00\n        /* \"#utility.yul\":4725:4731   */\n      dup3\n        /* \"#utility.yul\":4719:4732   */\n      mload\n        /* \"#utility.yul\":4768:4774   */\n      dup1\n        /* \"#utility.yul\":4763:4765   */\n      0x20\n        /* \"#utility.yul\":4752:4761   */\n      dup5\n        /* \"#utility.yul\":4748:4766   */\n      add\n        /* \"#utility.yul\":4741:4775   */\n      mstore\n        /* \"#utility.yul\":4827:4833   */\n      dup1\n        /* \"#utility.yul\":4822:4824   */\n      0x20\n        /* \"#utility.yul\":4814:4820   */\n      dup6\n        /* \"#utility.yul\":4810:4825   */\n      add\n        /* \"#utility.yul\":4805:4807   */\n      0x40\n        /* \"#utility.yul\":4794:4803   */\n      dup6\n        /* \"#utility.yul\":4790:4808   */\n      add\n        /* \"#utility.yul\":4784:4834   */\n      mcopy\n        /* \"#utility.yul\":4883:4884   */\n      0x00\n        /* \"#utility.yul\":4878:4880   */\n      0x40\n        /* \"#utility.yul\":4869:4875   */\n      dup3\n        /* \"#utility.yul\":4858:4867   */\n      dup6\n        /* \"#utility.yul\":4854:4876   */\n      add\n        /* \"#utility.yul\":4850:4881   */\n      add\n        /* \"#utility.yul\":4843:4885   */\n      mstore\n        /* \"#utility.yul\":4953:4955   */\n      0x40\n        /* \"#utility.yul\":4946:4948   */\n      0x1f\n        /* \"#utility.yul\":4942:4949   */\n      not\n        /* \"#utility.yul\":4937:4939   */\n      0x1f\n        /* \"#utility.yul\":4929:4935   */\n      dup4\n        /* \"#utility.yul\":4925:4940   */\n      add\n        /* \"#utility.yul\":4921:4950   */\n      and\n        /* \"#utility.yul\":4910:4919   */\n      dup5\n        /* \"#utility.yul\":4906:4951   */\n      add\n        /* \"#utility.yul\":4902:4956   */\n      add\n        /* \"#utility.yul\":4894:4956   */\n      swap2\n      pop\n      pop\n        /* \"#utility.yul\":4544:4962   */\n      swap3\n      swap2\n      pop\n      pop\n      jump\t// out\n        /* \"#utility.yul\":4967:5102   */\n    tag_107:\n        /* \"#utility.yul\":5006:5009   */\n      0x00\n        /* \"#utility.yul\":5027:5044   */\n      0x01\n      dup3\n      add\n        /* \"#utility.yul\":5024:5067   */\n      tag_173\n      jumpi\n        /* \"#utility.yul\":5047:5065   */\n      tag_173\n      tag_138\n      jump\t// in\n    tag_173:\n      pop\n        /* \"#utility.yul\":5094:5095   */\n      0x01\n        /* \"#utility.yul\":5083:5096   */\n      add\n      swap1\n        /* \"#utility.yul\":4967:5102   */\n      jump\t// out\n        /* \"#utility.yul\":5107:5234   */\n    tag_139:\n        /* \"#utility.yul\":5168:5178   */\n      0x4e487b71\n        /* \"#utility.yul\":5163:5166   */\n      0xe0\n        /* \"#utility.yul\":5159:5179   */\n      shl\n        /* \"#utility.yul\":5156:5157   */\n      0x00\n        /* \"#utility.yul\":5149:5180   */\n      mstore\n        /* \"#utility.yul\":5199:5203   */\n      0x12\n        /* \"#utility.yul\":5196:5197   */\n      0x04\n        /* \"#utility.yul\":5189:5204   */\n      mstore\n        /* \"#utility.yul\":5223:5227   */\n      0x24\n        /* \"#utility.yul\":5220:5221   */\n      0x00\n        /* \"#utility.yul\":5213:5228   */\n      revert\n        /* \"#utility.yul\":5239:5359   */\n    tag_123:\n        /* \"#utility.yul\":5279:5280   */\n      0x00\n        /* \"#utility.yul\":5305:5306   */\n      dup3\n        /* \"#utility.yul\":5295:5330   */\n      tag_177\n      jumpi\n        /* \"#utility.yul\":5310:5328   */\n      tag_177\n      tag_139\n      jump\t// in\n    tag_177:\n      pop\n        /* \"#utility.yul\":5344:5353   */\n      div\n      swap1\n        /* \"#utility.yul\":5239:5359   */\n      jump\t// out\n        /* \"#utility.yul\":5364:5500   */\n    tag_130:\n        /* \"#utility.yul\":5403:5406   */\n      0x00\n        /* \"#utility.yul\":5431:5436   */\n      dup2\n        /* \"#utility.yul\":5421:5460   */\n      tag_180\n      jumpi\n        /* \"#utility.yul\":5440:5458   */\n      tag_180\n      tag_138\n      jump\t// in\n    tag_180:\n      pop\n      not(0x00)\n        /* \"#utility.yul\":5476:5494   */\n      add\n      swap1\n        /* \"#utility.yul\":5364:5500   */\n      jump\t// out\n        /* \"#utility.yul\":5505:5617   */\n    tag_132:\n        /* \"#utility.yul\":5537:5538   */\n      0x00\n        /* \"#utility.yul\":5563:5564   */\n      dup3\n        /* \"#utility.yul\":5553:5588   */\n      tag_183\n      jumpi\n        /* \"#utility.yul\":5568:5586   */\n      tag_183\n      tag_139\n      jump\t// in\n    tag_183:\n      pop\n        /* \"#utility.yul\":5602:5611   */\n      mod\n      swap1\n        /* \"#utility.yul\":5505:5617   */\n      jump\t// out\n        /* \"#utility.yul\":5622:5747   */\n    tag_134:\n        /* \"#utility.yul\":5687:5696   */\n      dup1\n      dup3\n      add\n        /* \"#utility.yul\":5708:5718   */\n      dup1\n      dup3\n      gt\n        /* \"#utility.yul\":5705:5741   */\n      iszero\n      tag_166\n      jumpi\n        /* \"#utility.yul\":5721:5739   */\n      tag_166\n      tag_138\n      jump\t// in\n    stop\n\n    sub_0: assembly {\n            /* \"auctionbatchnew.sol\":61:2131  contract Auction {... */\n          mstore(0x40, 0x80)\n            /* \"auctionbatchnew.sol\":604:742  constructor(string memory _item) {... */\n          callvalue\n          dup1\n          iszero\n          tag_1\n          jumpi\n          0x00\n          dup1\n          revert\n        tag_1:\n          pop\n          mload(0x40)\n          sub(codesize, bytecodeSize)\n          dup1\n          bytecodeSize\n          dup4\n          codecopy\n          dup2\n          add\n          0x40\n          dup2\n          swap1\n          mstore\n          tag_2\n          swap2\n          tag_3\n          jump\t// in\n        tag_2:\n            /* \"auctionbatchnew.sol\":648:652  item */\n          0x00\n            /* \"auctionbatchnew.sol\":648:660  item = _item */\n          tag_6\n            /* \"auctionbatchnew.sol\":655:660  _item */\n          dup3\n            /* \"auctionbatchnew.sol\":648:652  item */\n          dup3\n            /* \"auctionbatchnew.sol\":648:660  item = _item */\n          tag_7\n          jump\t// in\n        tag_6:\n          pop\n            /* \"auctionbatchnew.sol\":671:676  owner */\n          0x02\n            /* \"auctionbatchnew.sol\":671:689  owner = msg.sender */\n          dup1\n          sload\n          not(sub(shl(0xa0, 0x01), 0x01))\n          and\n            /* \"auctionbatchnew.sol\":679:689  msg.sender */\n          caller\n            /* \"auctionbatchnew.sol\":671:689  owner = msg.sender */\n          or\n          swap1\n          sstore\n            /* \"auctionbatchnew.sol\":710:734  block.timestamp + 3 days */\n          tag_8\n            /* \"auctionbatchnew.sol\":710:725  block.timestamp */\n          timestamp\n            /* \"auctionbatchnew.sol\":728:734  3 days */\n          0x03f480\n            /* \"auctionbatchnew.sol\":710:734  block.timestamp + 3 days */\n          tag_9\n          jump\t// in\n        tag_8:\n            /* \"auctionbatchnew.sol\":700:707  endTime */\n          0x01\n            /* \"auctionbatchnew.sol\":700:734  endTime = block.timestamp + 3 days */\n          sstore\n          pop\n            /* \"auctionbatchnew.sol\":61:2131  contract Auction {... */\n          jump(tag_16)\n            /* \"#utility.yul\":14:141   */\n        tag_11:\n            /* \"#utility.yul\":75:85   */\n          0x4e487b71\n            /* \"#utility.yul\":70:73   */\n          0xe0\n            /* \"#utility.yul\":66:86   */\n          shl\n            /* \"#utility.yul\":63:64   */\n          0x00\n            /* \"#utility.yul\":56:87   */\n          mstore\n            /* \"#utility.yul\":106:110   */\n          0x41\n            /* \"#utility.yul\":103:104   */\n          0x04\n            /* \"#utility.yul\":96:111   */\n          mstore\n            /* \"#utility.yul\":130:134   */\n          0x24\n            /* \"#utility.yul\":127:128   */\n          0x00\n            /* \"#utility.yul\":120:135   */\n          revert\n            /* \"#utility.yul\":146:1081   */\n        tag_3:\n            /* \"#utility.yul\":226:232   */\n          0x00\n            /* \"#utility.yul\":279:281   */\n          0x20\n            /* \"#utility.yul\":267:276   */\n          dup3\n            /* \"#utility.yul\":258:265   */\n          dup5\n            /* \"#utility.yul\":254:277   */\n          sub\n            /* \"#utility.yul\":250:282   */\n          slt\n            /* \"#utility.yul\":247:299   */\n          iszero\n          tag_19\n          jumpi\n            /* \"#utility.yul\":295:296   */\n          0x00\n            /* \"#utility.yul\":292:293   */\n          dup1\n            /* \"#utility.yul\":285:297   */\n          revert\n            /* \"#utility.yul\":247:299   */\n        tag_19:\n            /* \"#utility.yul\":322:338   */\n          dup2\n          mload\n          sub(shl(0x40, 0x01), 0x01)\n            /* \"#utility.yul\":350:380   */\n          dup2\n          gt\n            /* \"#utility.yul\":347:397   */\n          iszero\n          tag_20\n          jumpi\n            /* \"#utility.yul\":393:394   */\n          0x00\n            /* \"#utility.yul\":390:391   */\n          dup1\n            /* \"#utility.yul\":383:395   */\n          revert\n            /* \"#utility.yul\":347:397   */\n        tag_20:\n            /* \"#utility.yul\":416:438   */\n          dup3\n          add\n            /* \"#utility.yul\":469:473   */\n          0x1f\n            /* \"#utility.yul\":461:474   */\n          dup2\n          add\n            /* \"#utility.yul\":457:484   */\n          dup5\n          sgt\n            /* \"#utility.yul\":447:502   */\n          tag_21\n          jumpi\n            /* \"#utility.yul\":498:499   */\n          0x00\n            /* \"#utility.yul\":495:496   */\n          dup1\n            /* \"#utility.yul\":488:500   */\n          revert\n            /* \"#utility.yul\":447:502   */\n        tag_21:\n            /* \"#utility.yul\":525:534   */\n          dup1\n          mload\n          sub(shl(0x40, 0x01), 0x01)\n            /* \"#utility.yul\":546:576   */\n          dup2\n          gt\n            /* \"#utility.yul\":543:599   */\n          iszero\n          tag_23\n          jumpi\n            /* \"#utility.yul\":579:597   */\n          tag_23\n          tag_11\n          jump\t// in\n        tag_23:\n            /* \"#utility.yul\":628:630   */\n          0x40\n            /* \"#utility.yul\":622:631   */\n          mload\n            /* \"#utility.yul\":720:722   */\n          0x1f\n            /* \"#utility.yul\":682:699   */\n          dup3\n          add\n          not(0x1f)\n            /* \"#utility.yul\":678:709   */\n          swap1\n          dup2\n          and\n            /* \"#utility.yul\":711:713   */\n          0x3f\n            /* \"#utility.yul\":674:714   */\n          add\n            /* \"#utility.yul\":670:724   */\n          and\n            /* \"#utility.yul\":658:725   */\n          dup2\n          add\n          sub(shl(0x40, 0x01), 0x01)\n            /* \"#utility.yul\":740:774   */\n          dup2\n          gt\n            /* \"#utility.yul\":776:798   */\n          dup3\n          dup3\n          lt\n            /* \"#utility.yul\":737:799   */\n          or\n            /* \"#utility.yul\":734:822   */\n          iszero\n          tag_25\n          jumpi\n            /* \"#utility.yul\":802:820   */\n          tag_25\n          tag_11\n          jump\t// in\n        tag_25:\n            /* \"#utility.yul\":838:840   */\n          0x40\n            /* \"#utility.yul\":831:853   */\n          mstore\n            /* \"#utility.yul\":862:884   */\n          dup2\n          dup2\n          mstore\n            /* \"#utility.yul\":903:918   */\n          dup3\n          dup3\n          add\n            /* \"#utility.yul\":920:922   */\n          0x20\n            /* \"#utility.yul\":899:923   */\n          add\n            /* \"#utility.yul\":896:933   */\n          dup7\n          lt\n            /* \"#utility.yul\":893:950   */\n          iszero\n          tag_26\n          jumpi\n            /* \"#utility.yul\":946:947   */\n          0x00\n            /* \"#utility.yul\":943:944   */\n          dup1\n            /* \"#utility.yul\":936:948   */\n          revert\n            /* \"#utility.yul\":893:950   */\n        tag_26:\n            /* \"#utility.yul\":995:1001   */\n          dup2\n            /* \"#utility.yul\":990:992   */\n          0x20\n            /* \"#utility.yul\":986:988   */\n          dup5\n            /* \"#utility.yul\":982:993   */\n          add\n            /* \"#utility.yul\":977:979   */\n          0x20\n            /* \"#utility.yul\":969:975   */\n          dup4\n            /* \"#utility.yul\":965:980   */\n          add\n            /* \"#utility.yul\":959:1002   */\n          mcopy\n            /* \"#utility.yul\":1048:1049   */\n          0x00\n            /* \"#utility.yul\":1022:1041   */\n          swap2\n          dup2\n          add\n            /* \"#utility.yul\":1043:1045   */\n          0x20\n            /* \"#utility.yul\":1018:1046   */\n          add\n            /* \"#utility.yul\":1011:1050   */\n          swap2\n          swap1\n          swap2\n          mstore\n            /* \"#utility.yul\":1026:1032   */\n          swap5\n            /* \"#utility.yul\":146:1081   */\n          swap4\n          pop\n          pop\n          pop\n          pop\n          jump\t// out\n            /* \"#utility.yul\":1086:1466   */\n        tag_12:\n            /* \"#utility.yul\":1165:1166   */\n          0x01\n            /* \"#utility.yul\":1161:1173   */\n          dup2\n          dup2\n          shr\n          swap1\n            /* \"#utility.yul\":1208:1220   */\n          dup3\n          and\n          dup1\n            /* \"#utility.yul\":1229:1290   */\n          tag_28\n          jumpi\n            /* \"#utility.yul\":1283:1287   */\n          0x7f\n            /* \"#utility.yul\":1275:1281   */\n          dup3\n            /* \"#utility.yul\":1271:1288   */\n          and\n            /* \"#utility.yul\":1261:1288   */\n          swap2\n          pop\n            /* \"#utility.yul\":1229:1290   */\n        tag_28:\n            /* \"#utility.yul\":1336:1338   */\n          0x20\n            /* \"#utility.yul\":1328:1334   */\n          dup3\n            /* \"#utility.yul\":1325:1339   */\n          lt\n            /* \"#utility.yul\":1305:1323   */\n          dup2\n            /* \"#utility.yul\":1302:1340   */\n          sub\n            /* \"#utility.yul\":1299:1460   */\n          tag_29\n          jumpi\n            /* \"#utility.yul\":1382:1392   */\n          0x4e487b71\n            /* \"#utility.yul\":1377:1380   */\n          0xe0\n            /* \"#utility.yul\":1373:1393   */\n          shl\n            /* \"#utility.yul\":1370:1371   */\n          0x00\n            /* \"#utility.yul\":1363:1394   */\n          mstore\n            /* \"#utility.yul\":1417:1421   */\n          0x22\n            /* \"#utility.yul\":1414:1415   */\n          0x04\n            /* \"#utility.yul\":1407:1422   */\n          mstore\n            /* \"#utility.yul\":1445:1449   */\n          0x24\n            /* \"#utility.yul\":1442:1443   */\n          0x00\n            /* \"#utility.yul\":1435:1450   */\n          revert\n            /* \"#utility.yul\":1299:1460   */\n        tag_29:\n          pop\n            /* \"#utility.yul\":1086:1466   */\n          swap2\n          swap1\n          pop\n          jump\t// out\n            /* \"#utility.yul\":1597:2115   */\n        tag_14:\n            /* \"#utility.yul\":1699:1701   */\n          0x1f\n            /* \"#utility.yul\":1694:1697   */\n          dup3\n            /* \"#utility.yul\":1691:1702   */\n          gt\n            /* \"#utility.yul\":1688:2109   */\n          iszero\n          tag_32\n          jumpi\n            /* \"#utility.yul\":1735:1740   */\n          dup1\n            /* \"#utility.yul\":1732:1733   */\n          0x00\n            /* \"#utility.yul\":1725:1741   */\n          mstore\n            /* \"#utility.yul\":1779:1783   */\n          0x20\n            /* \"#utility.yul\":1776:1777   */\n          0x00\n            /* \"#utility.yul\":1766:1784   */\n          keccak256\n            /* \"#utility.yul\":1849:1851   */\n          0x1f\n            /* \"#utility.yul\":1837:1847   */\n          dup5\n            /* \"#utility.yul\":1833:1852   */\n          add\n            /* \"#utility.yul\":1830:1831   */\n          0x05\n            /* \"#utility.yul\":1826:1853   */\n          shr\n            /* \"#utility.yul\":1820:1824   */\n          dup2\n            /* \"#utility.yul\":1816:1854   */\n          add\n            /* \"#utility.yul\":1885:1889   */\n          0x20\n            /* \"#utility.yul\":1873:1883   */\n          dup6\n            /* \"#utility.yul\":1870:1890   */\n          lt\n            /* \"#utility.yul\":1867:1914   */\n          iszero\n          tag_33\n          jumpi\n          pop\n            /* \"#utility.yul\":1908:1912   */\n          dup1\n            /* \"#utility.yul\":1867:1914   */\n        tag_33:\n            /* \"#utility.yul\":1963:1965   */\n          0x1f\n            /* \"#utility.yul\":1958:1961   */\n          dup5\n            /* \"#utility.yul\":1954:1966   */\n          add\n            /* \"#utility.yul\":1951:1952   */\n          0x05\n            /* \"#utility.yul\":1947:1967   */\n          shr\n            /* \"#utility.yul\":1941:1945   */\n          dup3\n            /* \"#utility.yul\":1937:1968   */\n          add\n            /* \"#utility.yul\":1927:1968   */\n          swap2\n          pop\n            /* \"#utility.yul\":2018:2099   */\n        tag_34:\n            /* \"#utility.yul\":2036:2038   */\n          dup2\n            /* \"#utility.yul\":2029:2034   */\n          dup2\n            /* \"#utility.yul\":2026:2039   */\n          lt\n            /* \"#utility.yul\":2018:2099   */\n          iszero\n          tag_36\n          jumpi\n            /* \"#utility.yul\":2095:2096   */\n          0x00\n            /* \"#utility.yul\":2081:2097   */\n          dup2\n          sstore\n            /* \"#utility.yul\":2062:2063   */\n          0x01\n            /* \"#utility.yul\":2051:2064   */\n          add\n            /* \"#utility.yul\":2018:2099   */\n          jump(tag_34)\n        tag_36:\n            /* \"#utility.yul\":2022:2025   */\n          pop\n          pop\n            /* \"#utility.yul\":1688:2109   */\n        tag_32:\n            /* \"#utility.yul\":1597:2115   */\n          pop\n          pop\n          pop\n          jump\t// out\n            /* \"#utility.yul\":2291:3590   */\n        tag_7:\n            /* \"#utility.yul\":2411:2421   */\n          dup2\n          mload\n          sub(shl(0x40, 0x01), 0x01)\n            /* \"#utility.yul\":2433:2463   */\n          dup2\n          gt\n            /* \"#utility.yul\":2430:2486   */\n          iszero\n          tag_40\n          jumpi\n            /* \"#utility.yul\":2466:2484   */\n          tag_40\n          tag_11\n          jump\t// in\n        tag_40:\n            /* \"#utility.yul\":2495:2592   */\n          tag_41\n            /* \"#utility.yul\":2585:2591   */\n          dup2\n            /* \"#utility.yul\":2545:2583   */\n          tag_42\n            /* \"#utility.yul\":2577:2581   */\n          dup5\n            /* \"#utility.yul\":2571:2582   */\n          sload\n            /* \"#utility.yul\":2545:2583   */\n          tag_12\n          jump\t// in\n        tag_42:\n            /* \"#utility.yul\":2539:2543   */\n          dup5\n            /* \"#utility.yul\":2495:2592   */\n          tag_14\n          jump\t// in\n        tag_41:\n            /* \"#utility.yul\":2641:2645   */\n          0x20\n            /* \"#utility.yul\":2672:2674   */\n          0x1f\n            /* \"#utility.yul\":2661:2675   */\n          dup3\n          gt\n            /* \"#utility.yul\":2689:2690   */\n          0x01\n            /* \"#utility.yul\":2684:3333   */\n          dup2\n          eq\n          tag_44\n          jumpi\n            /* \"#utility.yul\":3377:3378   */\n          0x00\n            /* \"#utility.yul\":3394:3400   */\n          dup4\n            /* \"#utility.yul\":3391:3480   */\n          iszero\n          tag_45\n          jumpi\n          pop\n            /* \"#utility.yul\":3446:3465   */\n          dup5\n          dup3\n          add\n            /* \"#utility.yul\":3440:3466   */\n          mload\n            /* \"#utility.yul\":3391:3480   */\n        tag_45:\n          not(0x00)\n            /* \"#utility.yul\":2248:2249   */\n          0x03\n            /* \"#utility.yul\":2244:2255   */\n          dup6\n          swap1\n          shl\n            /* \"#utility.yul\":2240:2264   */\n          shr\n            /* \"#utility.yul\":2236:2265   */\n          not\n            /* \"#utility.yul\":2226:2266   */\n          and\n            /* \"#utility.yul\":2272:2273   */\n          0x01\n            /* \"#utility.yul\":2268:2279   */\n          dup5\n          swap1\n          shl\n            /* \"#utility.yul\":2223:2280   */\n          or\n            /* \"#utility.yul\":3493:3574   */\n          dup5\n          sstore\n            /* \"#utility.yul\":2654:3584   */\n          jump(tag_36)\n            /* \"#utility.yul\":2684:3333   */\n        tag_44:\n            /* \"#utility.yul\":1544:1545   */\n          0x00\n            /* \"#utility.yul\":1537:1551   */\n          dup5\n          dup2\n          mstore\n            /* \"#utility.yul\":1581:1585   */\n          0x20\n            /* \"#utility.yul\":1568:1586   */\n          dup2\n          keccak256\n          not(0x1f)\n            /* \"#utility.yul\":2720:2740   */\n          dup6\n          and\n          swap2\n            /* \"#utility.yul\":2838:3060   */\n        tag_48:\n            /* \"#utility.yul\":2852:2859   */\n          dup3\n            /* \"#utility.yul\":2849:2850   */\n          dup2\n            /* \"#utility.yul\":2846:2860   */\n          lt\n            /* \"#utility.yul\":2838:3060   */\n          iszero\n          tag_50\n          jumpi\n            /* \"#utility.yul\":2934:2953   */\n          dup8\n          dup6\n          add\n            /* \"#utility.yul\":2928:2954   */\n          mload\n            /* \"#utility.yul\":2913:2955   */\n          dup3\n          sstore\n            /* \"#utility.yul\":3041:3045   */\n          0x20\n            /* \"#utility.yul\":3026:3046   */\n          swap5\n          dup6\n          add\n          swap5\n            /* \"#utility.yul\":2994:2995   */\n          0x01\n            /* \"#utility.yul\":2982:2996   */\n          swap1\n          swap3\n          add\n          swap2\n            /* \"#utility.yul\":2868:2880   */\n          add\n            /* \"#utility.yul\":2838:3060   */\n          jump(tag_48)\n        tag_50:\n            /* \"#utility.yul\":2842:2845   */\n          pop\n            /* \"#utility.yul\":3088:3094   */\n          dup5\n            /* \"#utility.yul\":3079:3086   */\n          dup3\n            /* \"#utility.yul\":3076:3095   */\n          lt\n            /* \"#utility.yul\":3073:3274   */\n          iszero\n          tag_51\n          jumpi\n            /* \"#utility.yul\":3149:3168   */\n          dup7\n          dup5\n          add\n            /* \"#utility.yul\":3143:3169   */\n          mload\n          not(0x00)\n            /* \"#utility.yul\":3232:3233   */\n          0x03\n            /* \"#utility.yul\":3228:3242   */\n          dup8\n          swap1\n          shl\n            /* \"#utility.yul\":3244:3247   */\n          0xf8\n            /* \"#utility.yul\":3224:3248   */\n          and\n            /* \"#utility.yul\":3220:3257   */\n          shr\n            /* \"#utility.yul\":3216:3258   */\n          not\n            /* \"#utility.yul\":3201:3259   */\n          and\n            /* \"#utility.yul\":3186:3260   */\n          dup2\n          sstore\n            /* \"#utility.yul\":3073:3274   */\n        tag_51:\n          pop\n          pop\n          pop\n          pop\n            /* \"#utility.yul\":3320:3321   */\n          0x01\n            /* \"#utility.yul\":3304:3318   */\n          swap1\n          dup2\n          shl\n            /* \"#utility.yul\":3300:3322   */\n          add\n            /* \"#utility.yul\":3287:3323   */\n          swap1\n          sstore\n          pop\n            /* \"#utility.yul\":2291:3590   */\n          jump\t// out\n            /* \"#utility.yul\":3595:3817   */\n        tag_9:\n            /* \"#utility.yul\":3660:3669   */\n          dup1\n          dup3\n          add\n            /* \"#utility.yul\":3681:3691   */\n          dup1\n          dup3\n          gt\n            /* \"#utility.yul\":3678:3811   */\n          iszero\n          tag_53\n          jumpi\n            /* \"#utility.yul\":3733:3743   */\n          0x4e487b71\n            /* \"#utility.yul\":3728:3731   */\n          0xe0\n            /* \"#utility.yul\":3724:3744   */\n          shl\n            /* \"#utility.yul\":3721:3722   */\n          0x00\n            /* \"#utility.yul\":3714:3745   */\n          mstore\n            /* \"#utility.yul\":3768:3772   */\n          0x11\n            /* \"#utility.yul\":3765:3766   */\n          0x04\n            /* \"#utility.yul\":3758:3773   */\n          mstore\n            /* \"#utility.yul\":3796:3800   */\n          0x24\n            /* \"#utility.yul\":3793:3794   */\n          0x00\n            /* \"#utility.yul\":3786:3801   */\n          revert\n            /* \"#utility.yul\":3678:3811   */\n        tag_53:\n            /* \"#utility.yul\":3595:3817   */\n          swap3\n          swap2\n          pop\n          pop\n          jump\t// out\n        tag_16:\n            /* \"auctionbatchnew.sol\":61:2131  contract Auction {... */\n          dataSize(sub_0)\n          dup1\n          dataOffset(sub_0)\n          0x00\n          codecopy\n          0x00\n          return\n        stop\n\n        sub_0: assembly {\n                /* \"auctionbatchnew.sol\":61:2131  contract Auction {... */\n              mstore(0x40, 0x80)\n              jumpi(tag_1, lt(calldatasize, 0x04))\n              shr(0xe0, calldataload(0x00))\n              dup1\n              0x91f90157\n              gt\n              tag_15\n              jumpi\n              dup1\n              0xcff29dfd\n              gt\n              tag_16\n              jumpi\n              dup1\n              0xcff29dfd\n              eq\n              tag_11\n              jumpi\n              dup1\n              0xd57bde79\n              eq\n              tag_12\n              jumpi\n              dup1\n              0xf2a4a82e\n              eq\n              tag_13\n              jumpi\n              dup1\n              0xfe67a54b\n              eq\n              tag_14\n              jumpi\n              0x00\n              dup1\n              revert\n            tag_16:\n              dup1\n              0x91f90157\n              eq\n              tag_8\n              jumpi\n              dup1\n              0xc7e284b8\n              eq\n              tag_9\n              jumpi\n              dup1\n              0xcb6632ef\n              eq\n              tag_10\n              jumpi\n              0x00\n              dup1\n              revert\n            tag_15:\n              dup1\n              0x12fa6feb\n              eq\n              tag_2\n              jumpi\n              dup1\n              0x1998aeef\n              eq\n              tag_3\n              jumpi\n              dup1\n              0x3197cbb6\n              eq\n              tag_4\n              jumpi\n              dup1\n              0x3ccfd60b\n              eq\n              tag_5\n              jumpi\n              dup1\n              0x62ea82db\n              eq\n              tag_6\n              jumpi\n              dup1\n              0x8da5cb5b\n              eq\n              tag_7\n              jumpi\n            tag_1:\n              0x00\n              dup1\n              revert\n                /* \"auctionbatchnew.sol\":227:244  bool public ended */\n            tag_2:\n              callvalue\n              dup1\n              iszero\n              tag_17\n              jumpi\n              0x00\n              dup1\n              revert\n            tag_17:\n              pop\n              sload(0x05)\n              tag_18\n              swap1\n              0xff\n              and\n              dup2\n              jump\n            tag_18:\n              mload(0x40)\n                /* \"#utility.yul\":179:193   */\n              swap1\n              iszero\n                /* \"#utility.yul\":172:194   */\n              iszero\n                /* \"#utility.yul\":154:195   */\n              dup2\n              mstore\n                /* \"#utility.yul\":142:144   */\n              0x20\n                /* \"#utility.yul\":127:145   */\n              add\n                /* \"auctionbatchnew.sol\":227:244  bool public ended */\n            tag_20:\n              mload(0x40)\n              dup1\n              swap2\n              sub\n              swap1\n              return\n                /* \"auctionbatchnew.sol\":750:1168  function bid() external payable {... */\n            tag_3:\n              tag_22\n              tag_23\n              jump\t// in\n            tag_22:\n              stop\n                /* \"auctionbatchnew.sol\":110:129  uint public endTime */\n            tag_4:\n              callvalue\n              dup1\n              iszero\n              tag_24\n              jumpi\n              0x00\n              dup1\n              revert\n            tag_24:\n              pop\n              tag_25\n              sload(0x01)\n              dup2\n              jump\n            tag_25:\n              mload(0x40)\n                /* \"#utility.yul\":352:377   */\n              swap1\n              dup2\n              mstore\n                /* \"#utility.yul\":340:342   */\n              0x20\n                /* \"#utility.yul\":325:343   */\n              add\n                /* \"auctionbatchnew.sol\":110:129  uint public endTime */\n              tag_20\n                /* \"#utility.yul\":206:383   */\n              jump\n                /* \"auctionbatchnew.sol\":1176:1503  function withdraw() external {... */\n            tag_5:\n              callvalue\n              dup1\n              iszero\n              tag_29\n              jumpi\n              0x00\n              dup1\n              revert\n            tag_29:\n              pop\n              tag_22\n              tag_31\n              jump\t// in\n                /* \"auctionbatchnew.sol\":253:289  mapping(address => uint) public bids */\n            tag_6:\n              callvalue\n              dup1\n              iszero\n              tag_32\n              jumpi\n              0x00\n              dup1\n              revert\n            tag_32:\n              pop\n              tag_25\n              tag_34\n              calldatasize\n              0x04\n              tag_35\n              jump\t// in\n            tag_34:\n              mstore(0x20, 0x06)\n              0x00\n              swap1\n              dup2\n              mstore\n              0x40\n              swap1\n              keccak256\n              sload\n              dup2\n              jump\n                /* \"auctionbatchnew.sol\":136:156  address public owner */\n            tag_7:\n              callvalue\n              dup1\n              iszero\n              tag_38\n              jumpi\n              0x00\n              dup1\n              revert\n            tag_38:\n              pop\n              sload(0x02)\n              tag_39\n              swap1\n              sub(shl(0xa0, 0x01), 0x01)\n              and\n              dup2\n              jump\n            tag_39:\n              mload(0x40)\n              sub(shl(0xa0, 0x01), 0x01)\n                /* \"#utility.yul\":843:875   */\n              swap1\n              swap2\n              and\n                /* \"#utility.yul\":825:876   */\n              dup2\n              mstore\n                /* \"#utility.yul\":813:815   */\n              0x20\n                /* \"#utility.yul\":798:816   */\n              add\n                /* \"auctionbatchnew.sol\":136:156  address public owner */\n              tag_20\n                /* \"#utility.yul\":679:882   */\n              jump\n                /* \"auctionbatchnew.sol\":163:191  address public highestBidder */\n            tag_8:\n              callvalue\n              dup1\n              iszero\n              tag_43\n              jumpi\n              0x00\n              dup1\n              revert\n            tag_43:\n              pop\n              sload(0x03)\n              tag_39\n              swap1\n              sub(shl(0xa0, 0x01), 0x01)\n              and\n              dup2\n              jump\n                /* \"auctionbatchnew.sol\":1870:2024  function getTimeLeft() external view returns (uint) {... */\n            tag_9:\n              callvalue\n              dup1\n              iszero\n              tag_47\n              jumpi\n              0x00\n              dup1\n              revert\n            tag_47:\n              pop\n              tag_25\n              tag_49\n              jump\t// in\n                /* \"auctionbatchnew.sol\":2032:2128  function getBidders() external view returns (address[] memory) {... */\n            tag_10:\n              callvalue\n              dup1\n              iszero\n              tag_51\n              jumpi\n              0x00\n              dup1\n              revert\n            tag_51:\n              pop\n              tag_52\n              tag_53\n              jump\t// in\n            tag_52:\n              mload(0x40)\n              tag_20\n              swap2\n              swap1\n              tag_55\n              jump\t// in\n                /* \"auctionbatchnew.sol\":296:320  address[] public bidders */\n            tag_11:\n              callvalue\n              dup1\n              iszero\n              tag_56\n              jumpi\n              0x00\n              dup1\n              revert\n            tag_56:\n              pop\n              tag_39\n              tag_58\n              calldatasize\n              0x04\n              tag_59\n              jump\t// in\n            tag_58:\n              tag_60\n              jump\t// in\n                /* \"auctionbatchnew.sol\":198:220  uint public highestBid */\n            tag_12:\n              callvalue\n              dup1\n              iszero\n              tag_62\n              jumpi\n              0x00\n              dup1\n              revert\n            tag_62:\n              pop\n              tag_25\n              sload(0x04)\n              dup2\n              jump\n                /* \"auctionbatchnew.sol\":85:103  string public item */\n            tag_13:\n              callvalue\n              dup1\n              iszero\n              tag_66\n              jumpi\n              0x00\n              dup1\n              revert\n            tag_66:\n              pop\n              tag_67\n              tag_68\n              jump\t// in\n            tag_67:\n              mload(0x40)\n              tag_20\n              swap2\n              swap1\n              tag_70\n              jump\t// in\n                /* \"auctionbatchnew.sol\":1511:1862  function endAuction() external onlyOwner {... */\n            tag_14:\n              callvalue\n              dup1\n              iszero\n              tag_71\n              jumpi\n              0x00\n              dup1\n              revert\n            tag_71:\n              pop\n              tag_22\n              tag_73\n              jump\t// in\n                /* \"auctionbatchnew.sol\":750:1168  function bid() external payable {... */\n            tag_23:\n                /* \"auctionbatchnew.sol\":819:826  endTime */\n              sload(0x01)\n                /* \"auctionbatchnew.sol\":801:816  block.timestamp */\n              timestamp\n                /* \"auctionbatchnew.sol\":801:826  block.timestamp < endTime */\n              lt\n                /* \"auctionbatchnew.sol\":793:844  require(block.timestamp < endTime, \"Auction ended\") */\n              tag_75\n              jumpi\n              mload(0x40)\n              shl(0xe5, 0x461bcd)\n              dup2\n              mstore\n                /* \"#utility.yul\":2339:2341   */\n              0x20\n                /* \"auctionbatchnew.sol\":793:844  require(block.timestamp < endTime, \"Auction ended\") */\n              0x04\n              dup3\n              add\n                /* \"#utility.yul\":2321:2342   */\n              mstore\n                /* \"#utility.yul\":2378:2380   */\n              0x0d\n                /* \"#utility.yul\":2358:2376   */\n              0x24\n              dup3\n              add\n                /* \"#utility.yul\":2351:2381   */\n              mstore\n              shl(0x9a, 0x105d58dd1a5bdb88195b991959)\n                /* \"#utility.yul\":2397:2415   */\n              0x44\n              dup3\n              add\n                /* \"#utility.yul\":2390:2433   */\n              mstore\n                /* \"#utility.yul\":2450:2468   */\n              0x64\n              add\n                /* \"auctionbatchnew.sol\":793:844  require(block.timestamp < endTime, \"Auction ended\") */\n            tag_76:\n              mload(0x40)\n              dup1\n              swap2\n              sub\n              swap1\n              revert\n            tag_75:\n                /* \"auctionbatchnew.sol\":875:885  highestBid */\n              sload(0x04)\n                /* \"auctionbatchnew.sol\":863:872  msg.value */\n              callvalue\n                /* \"auctionbatchnew.sol\":863:885  msg.value > highestBid */\n              gt\n                /* \"auctionbatchnew.sol\":855:901  require(msg.value > highestBid, \"Bid too low\") */\n              tag_78\n              jumpi\n              mload(0x40)\n              shl(0xe5, 0x461bcd)\n              dup2\n              mstore\n                /* \"#utility.yul\":2681:2683   */\n              0x20\n                /* \"auctionbatchnew.sol\":855:901  require(msg.value > highestBid, \"Bid too low\") */\n              0x04\n              dup3\n              add\n                /* \"#utility.yul\":2663:2684   */\n              mstore\n                /* \"#utility.yul\":2720:2722   */\n              0x0b\n                /* \"#utility.yul\":2700:2718   */\n              0x24\n              dup3\n              add\n                /* \"#utility.yul\":2693:2723   */\n              mstore\n              shl(0xa8, 0x42696420746f6f206c6f77)\n                /* \"#utility.yul\":2739:2757   */\n              0x44\n              dup3\n              add\n                /* \"#utility.yul\":2732:2773   */\n              mstore\n                /* \"#utility.yul\":2790:2808   */\n              0x64\n              add\n                /* \"auctionbatchnew.sol\":855:901  require(msg.value > highestBid, \"Bid too low\") */\n              tag_76\n                /* \"#utility.yul\":2479:2814   */\n              jump\n                /* \"auctionbatchnew.sol\":855:901  require(msg.value > highestBid, \"Bid too low\") */\n            tag_78:\n                /* \"auctionbatchnew.sol\":923:933  msg.sender */\n              caller\n                /* \"auctionbatchnew.sol\":918:934  bids[msg.sender] */\n              0x00\n              swap1\n              dup2\n              mstore\n                /* \"auctionbatchnew.sol\":918:922  bids */\n              0x06\n                /* \"auctionbatchnew.sol\":918:934  bids[msg.sender] */\n              0x20\n              mstore\n              0x40\n              dup2\n              keccak256\n              sload\n                /* \"auctionbatchnew.sol\":918:939  bids[msg.sender] == 0 */\n              swap1\n              sub\n                /* \"auctionbatchnew.sol\":914:992  if (bids[msg.sender] == 0) {... */\n              tag_81\n              jumpi\n                /* \"auctionbatchnew.sol\":956:963  bidders */\n              0x07\n                /* \"auctionbatchnew.sol\":956:980  bidders.push(msg.sender) */\n              dup1\n              sload\n              0x01\n              dup2\n              add\n              dup3\n              sstore\n              0x00\n              swap2\n              swap1\n              swap2\n              mstore\n              0xa66cc928b5edb82af9bd49922954155ab7b0942694bea4ce44661d9a8736c688\n              add\n              dup1\n              sload\n              not(sub(shl(0xa0, 0x01), 0x01))\n              and\n                /* \"auctionbatchnew.sol\":969:979  msg.sender */\n              caller\n                /* \"auctionbatchnew.sol\":956:980  bidders.push(msg.sender) */\n              or\n              swap1\n              sstore\n                /* \"auctionbatchnew.sol\":914:992  if (bids[msg.sender] == 0) {... */\n            tag_81:\n                /* \"auctionbatchnew.sol\":1009:1019  msg.sender */\n              caller\n                /* \"auctionbatchnew.sol\":1004:1020  bids[msg.sender] */\n              0x00\n              swap1\n              dup2\n              mstore\n                /* \"auctionbatchnew.sol\":1004:1008  bids */\n              0x06\n                /* \"auctionbatchnew.sol\":1004:1020  bids[msg.sender] */\n              0x20\n              mstore\n              0x40\n              dup2\n              keccak256\n                /* \"auctionbatchnew.sol\":1004:1033  bids[msg.sender] += msg.value */\n              dup1\n              sload\n                /* \"auctionbatchnew.sol\":1024:1033  msg.value */\n              callvalue\n              swap3\n                /* \"auctionbatchnew.sol\":1004:1020  bids[msg.sender] */\n              swap1\n                /* \"auctionbatchnew.sol\":1004:1033  bids[msg.sender] += msg.value */\n              tag_83\n              swap1\n                /* \"auctionbatchnew.sol\":1024:1033  msg.value */\n              dup5\n              swap1\n                /* \"auctionbatchnew.sol\":1004:1033  bids[msg.sender] += msg.value */\n              tag_84\n              jump\t// in\n            tag_83:\n              swap1\n              swap2\n              sstore\n              pop\n              pop\n                /* \"auctionbatchnew.sol\":1062:1072  msg.sender */\n              caller\n                /* \"auctionbatchnew.sol\":1057:1073  bids[msg.sender] */\n              0x00\n              dup2\n              dup2\n              mstore\n                /* \"auctionbatchnew.sol\":1057:1061  bids */\n              0x06\n                /* \"auctionbatchnew.sol\":1057:1073  bids[msg.sender] */\n              0x20\n              mstore\n              0x40\n              swap1\n              dup2\n              swap1\n              keccak256\n              sload\n                /* \"auctionbatchnew.sol\":1044:1054  highestBid */\n              0x04\n                /* \"auctionbatchnew.sol\":1044:1073  highestBid = bids[msg.sender] */\n              sstore\n                /* \"auctionbatchnew.sol\":1084:1097  highestBidder */\n              0x03\n                /* \"auctionbatchnew.sol\":1084:1110  highestBidder = msg.sender */\n              dup1\n              sload\n              not(sub(shl(0xa0, 0x01), 0x01))\n              and\n              dup4\n              or\n              swap1\n              sstore\n                /* \"auctionbatchnew.sol\":1128:1160  BidPlaced(msg.sender, msg.value) */\n              mload\n              0x3fabff0a9c3ecd6814702e247fa9733e5d0aa69e3a38590f92cb18f623a2254d\n              swap1\n              tag_85\n              swap1\n                /* \"auctionbatchnew.sol\":1150:1159  msg.value */\n              callvalue\n                /* \"#utility.yul\":352:377   */\n              dup2\n              mstore\n                /* \"#utility.yul\":340:342   */\n              0x20\n                /* \"#utility.yul\":325:343   */\n              add\n              swap1\n                /* \"#utility.yul\":206:383   */\n              jump\n                /* \"auctionbatchnew.sol\":1128:1160  BidPlaced(msg.sender, msg.value) */\n            tag_85:\n              mload(0x40)\n              dup1\n              swap2\n              sub\n              swap1\n              log2\n                /* \"auctionbatchnew.sol\":750:1168  function bid() external payable {... */\n              jump\t// out\n                /* \"auctionbatchnew.sol\":1176:1503  function withdraw() external {... */\n            tag_31:\n                /* \"auctionbatchnew.sol\":1238:1251  highestBidder */\n              and(sub(shl(0xa0, 0x01), 0x01), sload(0x03))\n                /* \"auctionbatchnew.sol\":1224:1234  msg.sender */\n              caller\n                /* \"auctionbatchnew.sol\":1224:1251  msg.sender != highestBidder */\n              sub\n                /* \"auctionbatchnew.sol\":1216:1278  require(msg.sender != highestBidder, \"Winner cannot withdraw\") */\n              tag_87\n              jumpi\n              mload(0x40)\n              shl(0xe5, 0x461bcd)\n              dup2\n              mstore\n                /* \"#utility.yul\":3283:3285   */\n              0x20\n                /* \"auctionbatchnew.sol\":1216:1278  require(msg.sender != highestBidder, \"Winner cannot withdraw\") */\n              0x04\n              dup3\n              add\n                /* \"#utility.yul\":3265:3286   */\n              mstore\n                /* \"#utility.yul\":3322:3324   */\n              0x16\n                /* \"#utility.yul\":3302:3320   */\n              0x24\n              dup3\n              add\n                /* \"#utility.yul\":3295:3325   */\n              mstore\n              shl(0x50, 0x57696e6e65722063616e6e6f74207769746864726177)\n                /* \"#utility.yul\":3341:3359   */\n              0x44\n              dup3\n              add\n                /* \"#utility.yul\":3334:3386   */\n              mstore\n                /* \"#utility.yul\":3403:3421   */\n              0x64\n              add\n                /* \"auctionbatchnew.sol\":1216:1278  require(msg.sender != highestBidder, \"Winner cannot withdraw\") */\n              tag_76\n                /* \"#utility.yul\":3081:3427   */\n              jump\n                /* \"auctionbatchnew.sol\":1216:1278  require(msg.sender != highestBidder, \"Winner cannot withdraw\") */\n            tag_87:\n                /* \"auctionbatchnew.sol\":1308:1318  msg.sender */\n              caller\n                /* \"auctionbatchnew.sol\":1289:1300  uint amount */\n              0x00\n                /* \"auctionbatchnew.sol\":1303:1319  bids[msg.sender] */\n              swap1\n              dup2\n              mstore\n                /* \"auctionbatchnew.sol\":1303:1307  bids */\n              0x06\n                /* \"auctionbatchnew.sol\":1303:1319  bids[msg.sender] */\n              0x20\n              mstore\n              0x40\n              swap1\n              keccak256\n              sload\n                /* \"auctionbatchnew.sol\":1338:1348  amount > 0 */\n              dup1\n                /* \"auctionbatchnew.sol\":1330:1372  require(amount > 0, \"Nothing to withdraw\") */\n              tag_90\n              jumpi\n              mload(0x40)\n              shl(0xe5, 0x461bcd)\n              dup2\n              mstore\n                /* \"#utility.yul\":3634:3636   */\n              0x20\n                /* \"auctionbatchnew.sol\":1330:1372  require(amount > 0, \"Nothing to withdraw\") */\n              0x04\n              dup3\n              add\n                /* \"#utility.yul\":3616:3637   */\n              mstore\n                /* \"#utility.yul\":3673:3675   */\n              0x13\n                /* \"#utility.yul\":3653:3671   */\n              0x24\n              dup3\n              add\n                /* \"#utility.yul\":3646:3676   */\n              mstore\n              shl(0x68, 0x4e6f7468696e6720746f207769746864726177)\n                /* \"#utility.yul\":3692:3710   */\n              0x44\n              dup3\n              add\n                /* \"#utility.yul\":3685:3734   */\n              mstore\n                /* \"#utility.yul\":3751:3769   */\n              0x64\n              add\n                /* \"auctionbatchnew.sol\":1330:1372  require(amount > 0, \"Nothing to withdraw\") */\n              tag_76\n                /* \"#utility.yul\":3432:3775   */\n              jump\n                /* \"auctionbatchnew.sol\":1330:1372  require(amount > 0, \"Nothing to withdraw\") */\n            tag_90:\n                /* \"auctionbatchnew.sol\":1388:1398  msg.sender */\n              caller\n                /* \"auctionbatchnew.sol\":1402:1403  0 */\n              0x00\n                /* \"auctionbatchnew.sol\":1383:1399  bids[msg.sender] */\n              dup2\n              dup2\n              mstore\n                /* \"auctionbatchnew.sol\":1383:1387  bids */\n              0x06\n                /* \"auctionbatchnew.sol\":1383:1399  bids[msg.sender] */\n              0x20\n              mstore\n              0x40\n              dup1\n              dup3\n              keccak256\n                /* \"auctionbatchnew.sol\":1383:1403  bids[msg.sender] = 0 */\n              dup3\n              swap1\n              sstore\n                /* \"auctionbatchnew.sol\":1414:1450  payable(msg.sender).transfer(amount) */\n              mload\n              dup4\n              iszero\n              0x08fc\n              mul\n              swap2\n                /* \"auctionbatchnew.sol\":1443:1449  amount */\n              dup5\n              swap2\n                /* \"auctionbatchnew.sol\":1414:1450  payable(msg.sender).transfer(amount) */\n              swap1\n              dup2\n                /* \"auctionbatchnew.sol\":1402:1403  0 */\n              dup2\n                /* \"auctionbatchnew.sol\":1414:1450  payable(msg.sender).transfer(amount) */\n              dup2\n                /* \"auctionbatchnew.sol\":1443:1449  amount */\n              dup6\n                /* \"auctionbatchnew.sol\":1388:1398  msg.sender */\n              dup9\n                /* \"auctionbatchnew.sol\":1414:1450  payable(msg.sender).transfer(amount) */\n              dup9\n              call\n              swap4\n              pop\n              pop\n              pop\n              pop\n              iszero\n              dup1\n              iszero\n              tag_94\n              jumpi\n              returndatasize\n              0x00\n              dup1\n              returndatacopy\n              revert(0x00, returndatasize)\n            tag_94:\n              pop\n                /* \"auctionbatchnew.sol\":1466:1495  Withdrawn(msg.sender, amount) */\n              mload(0x40)\n                /* \"#utility.yul\":352:377   */\n              dup2\n              dup2\n              mstore\n                /* \"auctionbatchnew.sol\":1476:1486  msg.sender */\n              caller\n              swap1\n                /* \"auctionbatchnew.sol\":1466:1495  Withdrawn(msg.sender, amount) */\n              0x7084f5476618d8e60b11ef0d7d3f06914655adb8793e28ff7f018d4c76d505d5\n              swap1\n                /* \"#utility.yul\":340:342   */\n              0x20\n                /* \"#utility.yul\":325:343   */\n              add\n                /* \"auctionbatchnew.sol\":1466:1495  Withdrawn(msg.sender, amount) */\n              mload(0x40)\n              dup1\n              swap2\n              sub\n              swap1\n              log2\n                /* \"auctionbatchnew.sol\":1205:1503  {... */\n              pop\n                /* \"auctionbatchnew.sol\":1176:1503  function withdraw() external {... */\n              jump\t// out\n                /* \"auctionbatchnew.sol\":1870:2024  function getTimeLeft() external view returns (uint) {... */\n            tag_49:\n                /* \"auctionbatchnew.sol\":1916:1920  uint */\n              0x00\n                /* \"auctionbatchnew.sol\":1956:1963  endTime */\n              sload(0x01)\n                /* \"auctionbatchnew.sol\":1937:1952  block.timestamp */\n              timestamp\n                /* \"auctionbatchnew.sol\":1937:1963  block.timestamp >= endTime */\n              lt\n                /* \"auctionbatchnew.sol\":1933:1973  if (block.timestamp >= endTime) return 0 */\n              tag_97\n              jumpi\n              pop\n                /* \"auctionbatchnew.sol\":1972:1973  0 */\n              0x00\n              swap1\n                /* \"auctionbatchnew.sol\":1870:2024  function getTimeLeft() external view returns (uint) {... */\n              jump\t// out\n                /* \"auctionbatchnew.sol\":1933:1973  if (block.timestamp >= endTime) return 0 */\n            tag_97:\n                /* \"auctionbatchnew.sol\":2001:2016  block.timestamp */\n              timestamp\n                /* \"auctionbatchnew.sol\":1991:1998  endTime */\n              sload(0x01)\n                /* \"auctionbatchnew.sol\":1991:2016  endTime - block.timestamp */\n              tag_98\n              swap2\n              swap1\n              tag_99\n              jump\t// in\n            tag_98:\n                /* \"auctionbatchnew.sol\":1984:2016  return endTime - block.timestamp */\n              swap1\n              pop\n                /* \"auctionbatchnew.sol\":1870:2024  function getTimeLeft() external view returns (uint) {... */\n              swap1\n              jump\t// out\n                /* \"auctionbatchnew.sol\":2032:2128  function getBidders() external view returns (address[] memory) {... */\n            tag_53:\n                /* \"auctionbatchnew.sol\":2077:2093  address[] memory */\n              0x60\n                /* \"auctionbatchnew.sol\":2113:2120  bidders */\n              0x07\n                /* \"auctionbatchnew.sol\":2106:2120  return bidders */\n              dup1\n              sload\n              dup1\n              0x20\n              mul\n              0x20\n              add\n              mload(0x40)\n              swap1\n              dup2\n              add\n              0x40\n              mstore\n              dup1\n              swap3\n              swap2\n              swap1\n              dup2\n              dup2\n              mstore\n              0x20\n              add\n              dup3\n              dup1\n              sload\n              dup1\n              iszero\n              tag_101\n              jumpi\n              0x20\n              mul\n              dup3\n              add\n              swap2\n              swap1\n              0x00\n              mstore\n              keccak256(0x00, 0x20)\n              swap1\n            tag_102:\n              dup2\n              sload\n              sub(shl(0xa0, 0x01), 0x01)\n              and\n              dup2\n              mstore\n              0x01\n              swap1\n              swap2\n              add\n              swap1\n              0x20\n              add\n              dup1\n              dup4\n              gt\n              tag_102\n              jumpi\n            tag_101:\n              pop\n              pop\n              pop\n              pop\n              pop\n              swap1\n              pop\n                /* \"auctionbatchnew.sol\":2032:2128  function getBidders() external view returns (address[] memory) {... */\n              swap1\n              jump\t// out\n                /* \"auctionbatchnew.sol\":296:320  address[] public bidders */\n            tag_60:\n              0x07\n              dup2\n              dup2\n              sload\n              dup2\n              lt\n              tag_103\n              jumpi\n              0x00\n              dup1\n              revert\n            tag_103:\n              0x00\n              swap2\n              dup3\n              mstore\n              0x20\n              swap1\n              swap2\n              keccak256\n              add\n              sload\n              sub(shl(0xa0, 0x01), 0x01)\n              and\n              swap1\n              pop\n              dup2\n              jump\t// out\n                /* \"auctionbatchnew.sol\":85:103  string public item */\n            tag_68:\n              0x00\n              dup1\n              sload\n              tag_105\n              swap1\n              tag_106\n              jump\t// in\n            tag_105:\n              dup1\n              0x1f\n              add\n              0x20\n              dup1\n              swap2\n              div\n              mul\n              0x20\n              add\n              mload(0x40)\n              swap1\n              dup2\n              add\n              0x40\n              mstore\n              dup1\n              swap3\n              swap2\n              swap1\n              dup2\n              dup2\n              mstore\n              0x20\n              add\n              dup3\n              dup1\n              sload\n              tag_107\n              swap1\n              tag_106\n              jump\t// in\n            tag_107:\n              dup1\n              iszero\n              tag_108\n              jumpi\n              dup1\n              0x1f\n              lt\n              tag_109\n              jumpi\n              0x0100\n              dup1\n              dup4\n              sload\n              div\n              mul\n              dup4\n              mstore\n              swap2\n              0x20\n              add\n              swap2\n              jump(tag_108)\n            tag_109:\n              dup3\n              add\n              swap2\n              swap1\n              0x00\n              mstore\n              keccak256(0x00, 0x20)\n              swap1\n            tag_110:\n              dup2\n              sload\n              dup2\n              mstore\n              swap1\n              0x01\n              add\n              swap1\n              0x20\n              add\n              dup1\n              dup4\n              gt\n              tag_110\n              jumpi\n              dup3\n              swap1\n              sub\n              0x1f\n              and\n              dup3\n              add\n              swap2\n            tag_108:\n              pop\n              pop\n              pop\n              pop\n              pop\n              dup2\n              jump\t// out\n                /* \"auctionbatchnew.sol\":1511:1862  function endAuction() external onlyOwner {... */\n            tag_73:\n                /* \"auctionbatchnew.sol\":557:562  owner */\n              and(sub(shl(0xa0, 0x01), 0x01), sload(0x02))\n                /* \"auctionbatchnew.sol\":543:553  msg.sender */\n              caller\n                /* \"auctionbatchnew.sol\":543:562  msg.sender == owner */\n              eq\n                /* \"auctionbatchnew.sol\":535:576  require(msg.sender == owner, \"Not owner\") */\n              tag_112\n              jumpi\n              mload(0x40)\n              shl(0xe5, 0x461bcd)\n              dup2\n              mstore\n                /* \"#utility.yul\":4500:4502   */\n              0x20\n                /* \"auctionbatchnew.sol\":535:576  require(msg.sender == owner, \"Not owner\") */\n              0x04\n              dup3\n              add\n                /* \"#utility.yul\":4482:4503   */\n              mstore\n                /* \"#utility.yul\":4539:4540   */\n              0x09\n                /* \"#utility.yul\":4519:4537   */\n              0x24\n              dup3\n              add\n                /* \"#utility.yul\":4512:4541   */\n              mstore\n              shl(0xb9, 0x2737ba1037bbb732b9)\n                /* \"#utility.yul\":4557:4575   */\n              0x44\n              dup3\n              add\n                /* \"#utility.yul\":4550:4589   */\n              mstore\n                /* \"#utility.yul\":4606:4624   */\n              0x64\n              add\n                /* \"auctionbatchnew.sol\":535:576  require(msg.sender == owner, \"Not owner\") */\n              tag_76\n                /* \"#utility.yul\":4298:4630   */\n              jump\n                /* \"auctionbatchnew.sol\":535:576  require(msg.sender == owner, \"Not owner\") */\n            tag_112:\n                /* \"auctionbatchnew.sol\":1572:1577  ended */\n              and(0xff, sload(0x05))\n                /* \"auctionbatchnew.sol\":1571:1577  !ended */\n              iszero\n                /* \"auctionbatchnew.sol\":1563:1595  require(!ended, \"Already ended\") */\n              tag_116\n              jumpi\n              mload(0x40)\n              shl(0xe5, 0x461bcd)\n              dup2\n              mstore\n                /* \"#utility.yul\":4837:4839   */\n              0x20\n                /* \"auctionbatchnew.sol\":1563:1595  require(!ended, \"Already ended\") */\n              0x04\n              dup3\n              add\n                /* \"#utility.yul\":4819:4840   */\n              mstore\n                /* \"#utility.yul\":4876:4878   */\n              0x0d\n                /* \"#utility.yul\":4856:4874   */\n              0x24\n              dup3\n              add\n                /* \"#utility.yul\":4849:4879   */\n              mstore\n              shl(0x9a, 0x105b1c9958591e48195b991959)\n                /* \"#utility.yul\":4895:4913   */\n              0x44\n              dup3\n              add\n                /* \"#utility.yul\":4888:4931   */\n              mstore\n                /* \"#utility.yul\":4948:4966   */\n              0x64\n              add\n                /* \"auctionbatchnew.sol\":1563:1595  require(!ended, \"Already ended\") */\n              tag_76\n                /* \"#utility.yul\":4635:4972   */\n              jump\n                /* \"auctionbatchnew.sol\":1563:1595  require(!ended, \"Already ended\") */\n            tag_116:\n                /* \"auctionbatchnew.sol\":1633:1640  endTime */\n              sload(0x01)\n                /* \"auctionbatchnew.sol\":1614:1629  block.timestamp */\n              timestamp\n                /* \"auctionbatchnew.sol\":1614:1640  block.timestamp >= endTime */\n              lt\n              iszero\n                /* \"auctionbatchnew.sol\":1606:1665  require(block.timestamp >= endTime, \"Auction not over yet\") */\n              tag_119\n              jumpi\n              mload(0x40)\n              shl(0xe5, 0x461bcd)\n              dup2\n              mstore\n                /* \"#utility.yul\":5179:5181   */\n              0x20\n                /* \"auctionbatchnew.sol\":1606:1665  require(block.timestamp >= endTime, \"Auction not over yet\") */\n              0x04\n              dup3\n              add\n                /* \"#utility.yul\":5161:5182   */\n              mstore\n                /* \"#utility.yul\":5218:5220   */\n              0x14\n                /* \"#utility.yul\":5198:5216   */\n              0x24\n              dup3\n              add\n                /* \"#utility.yul\":5191:5221   */\n              mstore\n              shl(0x62, 0x105d58dd1a5bdb881b9bdd081bdd995c881e595d)\n                /* \"#utility.yul\":5237:5255   */\n              0x44\n              dup3\n              add\n                /* \"#utility.yul\":5230:5280   */\n              mstore\n                /* \"#utility.yul\":5297:5315   */\n              0x64\n              add\n                /* \"auctionbatchnew.sol\":1606:1665  require(block.timestamp >= endTime, \"Auction not over yet\") */\n              tag_76\n                /* \"#utility.yul\":4977:5321   */\n              jump\n                /* \"auctionbatchnew.sol\":1606:1665  require(block.timestamp >= endTime, \"Auction not over yet\") */\n            tag_119:\n                /* \"auctionbatchnew.sol\":1676:1681  ended */\n              0x05\n                /* \"auctionbatchnew.sol\":1676:1688  ended = true */\n              dup1\n              sload\n              not(0xff)\n              and\n                /* \"auctionbatchnew.sol\":1684:1688  true */\n              0x01\n                /* \"auctionbatchnew.sol\":1676:1688  ended = true */\n              or\n              swap1\n              sstore\n                /* \"auctionbatchnew.sol\":1705:1718  highestBidder */\n              and(sub(shl(0xa0, 0x01), 0x01), sload(0x03))\n                /* \"auctionbatchnew.sol\":1705:1732  highestBidder != address(0) */\n              iszero\n                /* \"auctionbatchnew.sol\":1701:1855  if (highestBidder != address(0)) {... */\n              tag_122\n              jumpi\n                /* \"auctionbatchnew.sol\":1757:1762  owner */\n              sload(0x02)\n                /* \"auctionbatchnew.sol\":1773:1783  highestBid */\n              sload(0x04)\n                /* \"auctionbatchnew.sol\":1749:1784  payable(owner).transfer(highestBid) */\n              mload(0x40)\n              sub(shl(0xa0, 0x01), 0x01)\n                /* \"auctionbatchnew.sol\":1757:1762  owner */\n              swap1\n              swap3\n              and\n              swap2\n                /* \"auctionbatchnew.sol\":1749:1784  payable(owner).transfer(highestBid) */\n              dup2\n              iszero\n              0x08fc\n              mul\n              swap2\n                /* \"auctionbatchnew.sol\":1773:1783  highestBid */\n              swap1\n                /* \"auctionbatchnew.sol\":1757:1762  owner */\n              0x00\n                /* \"auctionbatchnew.sol\":1749:1784  payable(owner).transfer(highestBid) */\n              dup2\n                /* \"auctionbatchnew.sol\":1757:1762  owner */\n              dup2\n                /* \"auctionbatchnew.sol\":1749:1784  payable(owner).transfer(highestBid) */\n              dup2\n                /* \"auctionbatchnew.sol\":1773:1783  highestBid */\n              dup6\n                /* \"auctionbatchnew.sol\":1757:1762  owner */\n              dup9\n                /* \"auctionbatchnew.sol\":1749:1784  payable(owner).transfer(highestBid) */\n              dup9\n              call\n              swap4\n              pop\n              pop\n              pop\n              pop\n              iszero\n              dup1\n              iszero\n              tag_124\n              jumpi\n              returndatasize\n              0x00\n              dup1\n              returndatacopy\n              revert(0x00, returndatasize)\n            tag_124:\n              pop\n                /* \"auctionbatchnew.sol\":1817:1830  highestBidder */\n              sload(0x03)\n                /* \"auctionbatchnew.sol\":1832:1842  highestBid */\n              sload(0x04)\n                /* \"auctionbatchnew.sol\":1804:1843  AuctionEnded(highestBidder, highestBid) */\n              0x40\n              dup1\n              mload\n              sub(shl(0xa0, 0x01), 0x01)\n                /* \"auctionbatchnew.sol\":1817:1830  highestBidder */\n              swap1\n              swap4\n              and\n                /* \"#utility.yul\":5500:5551   */\n              dup4\n              mstore\n                /* \"#utility.yul\":5582:5584   */\n              0x20\n                /* \"#utility.yul\":5567:5585   */\n              dup4\n              add\n                /* \"#utility.yul\":5560:5594   */\n              swap2\n              swap1\n              swap2\n              mstore\n                /* \"auctionbatchnew.sol\":1804:1843  AuctionEnded(highestBidder, highestBid) */\n              0xdaec4582d5d9595688c8c98545fdd1c696d41c6aeaeb636737e84ed2f5c00eda\n              swap2\n                /* \"#utility.yul\":5473:5491   */\n              add\n                /* \"auctionbatchnew.sol\":1804:1843  AuctionEnded(highestBidder, highestBid) */\n              mload(0x40)\n              dup1\n              swap2\n              sub\n              swap1\n              log1\n                /* \"auctionbatchnew.sol\":1701:1855  if (highestBidder != address(0)) {... */\n            tag_122:\n                /* \"auctionbatchnew.sol\":1511:1862  function endAuction() external onlyOwner {... */\n              jump\t// out\n                /* \"#utility.yul\":388:674   */\n            tag_35:\n                /* \"#utility.yul\":447:453   */\n              0x00\n                /* \"#utility.yul\":500:502   */\n              0x20\n                /* \"#utility.yul\":488:497   */\n              dup3\n                /* \"#utility.yul\":479:486   */\n              dup5\n                /* \"#utility.yul\":475:498   */\n              sub\n                /* \"#utility.yul\":471:503   */\n              slt\n                /* \"#utility.yul\":468:520   */\n              iszero\n              tag_132\n              jumpi\n                /* \"#utility.yul\":516:517   */\n              0x00\n                /* \"#utility.yul\":513:514   */\n              dup1\n                /* \"#utility.yul\":506:518   */\n              revert\n                /* \"#utility.yul\":468:520   */\n            tag_132:\n                /* \"#utility.yul\":542:565   */\n              dup2\n              calldataload\n              sub(shl(0xa0, 0x01), 0x01)\n                /* \"#utility.yul\":594:625   */\n              dup2\n              and\n                /* \"#utility.yul\":584:626   */\n              dup2\n              eq\n                /* \"#utility.yul\":574:644   */\n              tag_133\n              jumpi\n                /* \"#utility.yul\":640:641   */\n              0x00\n                /* \"#utility.yul\":637:638   */\n              dup1\n                /* \"#utility.yul\":630:642   */\n              revert\n                /* \"#utility.yul\":574:644   */\n            tag_133:\n                /* \"#utility.yul\":663:668   */\n              swap4\n                /* \"#utility.yul\":388:674   */\n              swap3\n              pop\n              pop\n              pop\n              jump\t// out\n                /* \"#utility.yul\":887:1524   */\n            tag_55:\n                /* \"#utility.yul\":1077:1079   */\n              0x20\n                /* \"#utility.yul\":1089:1110   */\n              dup1\n              dup3\n              mstore\n                /* \"#utility.yul\":1159:1172   */\n              dup3\n              mload\n                /* \"#utility.yul\":1062:1080   */\n              dup3\n              dup3\n              add\n                /* \"#utility.yul\":1181:1203   */\n              dup2\n              swap1\n              mstore\n                /* \"#utility.yul\":1029:1033   */\n              0x00\n              swap2\n                /* \"#utility.yul\":1260:1275   */\n              dup5\n              add\n              swap1\n                /* \"#utility.yul\":1234:1236   */\n              0x40\n                /* \"#utility.yul\":1219:1237   */\n              dup5\n              add\n              swap1\n                /* \"#utility.yul\":1029:1033   */\n              dup4\n                /* \"#utility.yul\":1303:1498   */\n            tag_136:\n                /* \"#utility.yul\":1317:1323   */\n              dup2\n                /* \"#utility.yul\":1314:1315   */\n              dup2\n                /* \"#utility.yul\":1311:1324   */\n              lt\n                /* \"#utility.yul\":1303:1498   */\n              iszero\n              tag_138\n              jumpi\n                /* \"#utility.yul\":1382:1395   */\n              dup4\n              mload\n              sub(shl(0xa0, 0x01), 0x01)\n                /* \"#utility.yul\":1378:1417   */\n              and\n                /* \"#utility.yul\":1366:1418   */\n              dup4\n              mstore\n                /* \"#utility.yul\":1447:1449   */\n              0x20\n                /* \"#utility.yul\":1473:1488   */\n              swap4\n              dup5\n              add\n              swap4\n                /* \"#utility.yul\":1438:1450   */\n              swap1\n              swap3\n              add\n              swap2\n                /* \"#utility.yul\":1414:1415   */\n              0x01\n                /* \"#utility.yul\":1332:1341   */\n              add\n                /* \"#utility.yul\":1303:1498   */\n              jump(tag_136)\n            tag_138:\n              pop\n                /* \"#utility.yul\":1515:1518   */\n              swap1\n              swap6\n                /* \"#utility.yul\":887:1524   */\n              swap5\n              pop\n              pop\n              pop\n              pop\n              pop\n              jump\t// out\n                /* \"#utility.yul\":1529:1709   */\n            tag_59:\n                /* \"#utility.yul\":1588:1594   */\n              0x00\n                /* \"#utility.yul\":1641:1643   */\n              0x20\n                /* \"#utility.yul\":1629:1638   */\n              dup3\n                /* \"#utility.yul\":1620:1627   */\n              dup5\n                /* \"#utility.yul\":1616:1639   */\n              sub\n                /* \"#utility.yul\":1612:1644   */\n              slt\n                /* \"#utility.yul\":1609:1661   */\n              iszero\n              tag_140\n              jumpi\n                /* \"#utility.yul\":1657:1658   */\n              0x00\n                /* \"#utility.yul\":1654:1655   */\n              dup1\n                /* \"#utility.yul\":1647:1659   */\n              revert\n                /* \"#utility.yul\":1609:1661   */\n            tag_140:\n              pop\n                /* \"#utility.yul\":1680:1703   */\n              calldataload\n              swap2\n                /* \"#utility.yul\":1529:1709   */\n              swap1\n              pop\n              jump\t// out\n                /* \"#utility.yul\":1714:2132   */\n            tag_70:\n                /* \"#utility.yul\":1863:1865   */\n              0x20\n                /* \"#utility.yul\":1852:1861   */\n              dup2\n                /* \"#utility.yul\":1845:1866   */\n              mstore\n                /* \"#utility.yul\":1826:1830   */\n              0x00\n                /* \"#utility.yul\":1895:1901   */\n              dup3\n                /* \"#utility.yul\":1889:1902   */\n              mload\n                /* \"#utility.yul\":1938:1944   */\n              dup1\n                /* \"#utility.yul\":1933:1935   */\n              0x20\n                /* \"#utility.yul\":1922:1931   */\n              dup5\n                /* \"#utility.yul\":1918:1936   */\n              add\n                /* \"#utility.yul\":1911:1945   */\n              mstore\n                /* \"#utility.yul\":1997:2003   */\n              dup1\n                /* \"#utility.yul\":1992:1994   */\n              0x20\n                /* \"#utility.yul\":1984:1990   */\n              dup6\n                /* \"#utility.yul\":1980:1995   */\n              add\n                /* \"#utility.yul\":1975:1977   */\n              0x40\n                /* \"#utility.yul\":1964:1973   */\n              dup6\n                /* \"#utility.yul\":1960:1978   */\n              add\n                /* \"#utility.yul\":1954:2004   */\n              mcopy\n                /* \"#utility.yul\":2053:2054   */\n              0x00\n                /* \"#utility.yul\":2048:2050   */\n              0x40\n                /* \"#utility.yul\":2039:2045   */\n              dup3\n                /* \"#utility.yul\":2028:2037   */\n              dup6\n                /* \"#utility.yul\":2024:2046   */\n              add\n                /* \"#utility.yul\":2020:2051   */\n              add\n                /* \"#utility.yul\":2013:2055   */\n              mstore\n                /* \"#utility.yul\":2123:2125   */\n              0x40\n                /* \"#utility.yul\":2116:2118   */\n              0x1f\n                /* \"#utility.yul\":2112:2119   */\n              not\n                /* \"#utility.yul\":2107:2109   */\n              0x1f\n                /* \"#utility.yul\":2099:2105   */\n              dup4\n                /* \"#utility.yul\":2095:2110   */\n              add\n                /* \"#utility.yul\":2091:2120   */\n              and\n                /* \"#utility.yul\":2080:2089   */\n              dup5\n                /* \"#utility.yul\":2076:2121   */\n              add\n                /* \"#utility.yul\":2072:2126   */\n              add\n                /* \"#utility.yul\":2064:2126   */\n              swap2\n              pop\n              pop\n                /* \"#utility.yul\":1714:2132   */\n              swap3\n              swap2\n              pop\n              pop\n              jump\t// out\n                /* \"#utility.yul\":2819:2946   */\n            tag_127:\n                /* \"#utility.yul\":2880:2890   */\n              0x4e487b71\n                /* \"#utility.yul\":2875:2878   */\n              0xe0\n                /* \"#utility.yul\":2871:2891   */\n              shl\n                /* \"#utility.yul\":2868:2869   */\n              0x00\n                /* \"#utility.yul\":2861:2892   */\n              mstore\n                /* \"#utility.yul\":2911:2915   */\n              0x11\n                /* \"#utility.yul\":2908:2909   */\n              0x04\n                /* \"#utility.yul\":2901:2916   */\n              mstore\n                /* \"#utility.yul\":2935:2939   */\n              0x24\n                /* \"#utility.yul\":2932:2933   */\n              0x00\n                /* \"#utility.yul\":2925:2940   */\n              revert\n                /* \"#utility.yul\":2951:3076   */\n            tag_84:\n                /* \"#utility.yul\":3016:3025   */\n              dup1\n              dup3\n              add\n                /* \"#utility.yul\":3037:3047   */\n              dup1\n              dup3\n              gt\n                /* \"#utility.yul\":3034:3070   */\n              iszero\n              tag_147\n              jumpi\n                /* \"#utility.yul\":3050:3068   */\n              tag_147\n              tag_127\n              jump\t// in\n            tag_147:\n                /* \"#utility.yul\":2951:3076   */\n              swap3\n              swap2\n              pop\n              pop\n              jump\t// out\n                /* \"#utility.yul\":3780:3908   */\n            tag_99:\n                /* \"#utility.yul\":3847:3856   */\n              dup2\n              dup2\n              sub\n                /* \"#utility.yul\":3868:3879   */\n              dup2\n              dup2\n              gt\n                /* \"#utility.yul\":3865:3902   */\n              iszero\n              tag_147\n              jumpi\n                /* \"#utility.yul\":3882:3900   */\n              tag_147\n              tag_127\n              jump\t// in\n                /* \"#utility.yul\":3913:4293   */\n            tag_106:\n                /* \"#utility.yul\":3992:3993   */\n              0x01\n                /* \"#utility.yul\":3988:4000   */\n              dup2\n              dup2\n              shr\n              swap1\n                /* \"#utility.yul\":4035:4047   */\n              dup3\n              and\n              dup1\n                /* \"#utility.yul\":4056:4117   */\n              tag_154\n              jumpi\n                /* \"#utility.yul\":4110:4114   */\n              0x7f\n                /* \"#utility.yul\":4102:4108   */\n              dup3\n                /* \"#utility.yul\":4098:4115   */\n              and\n                /* \"#utility.yul\":4088:4115   */\n              swap2\n              pop\n                /* \"#utility.yul\":4056:4117   */\n            tag_154:\n                /* \"#utility.yul\":4163:4165   */\n              0x20\n                /* \"#utility.yul\":4155:4161   */\n              dup3\n                /* \"#utility.yul\":4152:4166   */\n              lt\n                /* \"#utility.yul\":4132:4150   */\n              dup2\n                /* \"#utility.yul\":4129:4167   */\n              sub\n                /* \"#utility.yul\":4126:4287   */\n              tag_155\n              jumpi\n                /* \"#utility.yul\":4209:4219   */\n              0x4e487b71\n                /* \"#utility.yul\":4204:4207   */\n              0xe0\n                /* \"#utility.yul\":4200:4220   */\n              shl\n                /* \"#utility.yul\":4197:4198   */\n              0x00\n                /* \"#utility.yul\":4190:4221   */\n              mstore\n                /* \"#utility.yul\":4244:4248   */\n              0x22\n                /* \"#utility.yul\":4241:4242   */\n              0x04\n                /* \"#utility.yul\":4234:4249   */\n              mstore\n                /* \"#utility.yul\":4272:4276   */\n              0x24\n                /* \"#utility.yul\":4269:4270   */\n              0x00\n                /* \"#utility.yul\":4262:4277   */\n              revert\n                /* \"#utility.yul\":4126:4287   */\n            tag_155:\n              pop\n                /* \"#utility.yul\":3913:4293   */\n              swap2\n              swap1\n              pop\n              jump\t// out\n\n            auxdata: 0xa2646970667358221220f3ceaf84dd382f2b13c0070c287f375ffbd85f593db9ac1cebc2aeb750371cc564736f6c634300081a0033\n        }\n    }\n\n    auxdata: 0xa2646970667358221220dfcdcae8706a0c6a6f52ce6abb881478339ef3cf1ea3bd27ac84681e661feb2d64736f6c634300081a0033\n}\n",
				"bytecode": {
					"linkReferences": {},
					"object": "6080604052348015600e575f80fd5b50600180546001600160a01b031916331790556114c88061002e5f395ff3fe608060405234801561000f575f80fd5b5060043610610085575f3560e01c80639507d39a116100585780639507d39a146100fa578063b3ef8e161461010d578063b78d8dd514610120578063b830620a14610133575f80fd5b806353ed514314610089578063571a26a0146100a75780637a32f291146100d25780638da5cb5b146100e7575b5f80fd5b610091610143565b60405161009e91906106a1565b60405180910390f35b6100ba6100b53660046106ec565b6101fe565b6040516001600160a01b03909116815260200161009e565b6100e56100e03660046106ec565b610225565b005b6001546100ba906001600160a01b031681565b6100ba6101083660046106ec565b61033a565b6100e561011b3660046106ec565b6103a7565b6100e561012e366004610717565b6104e0565b5f5460405190815260200161009e565b5f80546060919067ffffffffffffffff81111561016257610162610703565b60405190808252806020026020018201604052801561018b578160200160208202803683370190505b5090505f5b5f548110156101f8575f81815481106101ab576101ab6107ca565b905f5260205f20015f9054906101000a90046001600160a01b03168282815181106101d8576101d86107ca565b6001600160a01b0390921660209283029190910190910152600101610190565b50919050565b5f818154811061020c575f80fd5b5f918252602090912001546001600160a01b0316905081565b6001546001600160a01b031633146102585760405162461bcd60e51b815260040161024f906107de565b60405180910390fd5b5f5481106102985760405162461bcd60e51b815260206004820152600d60248201526c092dcecc2d8d2c840d2dcc8caf609b1b604482015260640161024f565b5f80546102a790600190610815565b815481106102b7576102b76107ca565b5f91825260208220015481546001600160a01b039091169190839081106102e0576102e06107ca565b5f918252602082200180546001600160a01b0319166001600160a01b0393909316929092179091558054806103175761031761082e565b5f8281526020902081015f1990810180546001600160a01b031916905501905550565b5f8054821061037b5760405162461bcd60e51b815260206004820152600d60248201526c092dcecc2d8d2c840d2dcc8caf609b1b604482015260640161024f565b5f828154811061038d5761038d6107ca565b5f918252602090912001546001600160a01b031692915050565b6001546001600160a01b031633146103d15760405162461bcd60e51b815260040161024f906107de565b5f81116104145760405162461bcd60e51b81526020600482015260116024820152700436f756e74206d757374206265203e203607c1b604482015260640161024f565b60015b8181116104dc575f6104288261058c565b6040516020016104389190610842565b60405160208183030381529060405290505f8160405161045790610694565b6104619190610869565b604051809103905ff08015801561047a573d5f803e3d5ffd5b505f80546001810182559080527f290decd9548b62a8d60345a988386fc84ba6bc95484008f6362f93160ef3e5630180546001600160a01b0319166001600160a01b0392909216919091179055508190506104d48161089e565b915050610417565b5050565b6001546001600160a01b0316331461050a5760405162461bcd60e51b815260040161024f906107de565b5f8160405161051890610694565b6105229190610869565b604051809103905ff08015801561053b573d5f803e3d5ffd5b505f80546001810182559080527f290decd9548b62a8d60345a988386fc84ba6bc95484008f6362f93160ef3e5630180546001600160a01b0319166001600160a01b03929092169190911790555050565b6060815f036105b25750506040805180820190915260018152600360fc1b602082015290565b815f5b81156105db57806105c58161089e565b91506105d49050600a836108ca565b91506105b5565b5f8167ffffffffffffffff8111156105f5576105f5610703565b6040519080825280601f01601f19166020018201604052801561061f576020820181803683370190505b509050815b851561068b5780610634816108dd565b91506106439050600a876108f2565b61064e906030610905565b60f81b828281518110610663576106636107ca565b60200101906001600160f81b03191690815f1a905350610684600a876108ca565b9550610624565b50949350505050565b610b7a8061091983390190565b602080825282518282018190525f918401906040840190835b818110156106e15783516001600160a01b03168352602093840193909201916001016106ba565b509095945050505050565b5f602082840312156106fc575f80fd5b5035919050565b634e487b7160e01b5f52604160045260245ffd5b5f60208284031215610727575f80fd5b813567ffffffffffffffff81111561073d575f80fd5b8201601f8101841361074d575f80fd5b803567ffffffffffffffff81111561076757610767610703565b604051601f8201601f19908116603f0116810167ffffffffffffffff8111828210171561079657610796610703565b6040528181528282016020018610156107ad575f80fd5b816020840160208301375f91810160200191909152949350505050565b634e487b7160e01b5f52603260045260245ffd5b6020808252600990820152682737ba1037bbb732b960b91b604082015260600190565b634e487b7160e01b5f52601160045260245ffd5b8181038181111561082857610828610801565b92915050565b634e487b7160e01b5f52603160045260245ffd5b644974656d5f60d81b81525f82518060208501600585015e5f920160050191825250919050565b602081525f82518060208401528060208501604085015e5f604082850101526040601f19601f83011684010191505092915050565b5f600182016108af576108af610801565b5060010190565b634e487b7160e01b5f52601260045260245ffd5b5f826108d8576108d86108b6565b500490565b5f816108eb576108eb610801565b505f190190565b5f82610900576109006108b6565b500690565b808201808211156108285761082861080156fe608060405234801561000f575f80fd5b50604051610b7a380380610b7a83398101604081905261002e91610076565b5f61003982826101aa565b50600280546001600160a01b03191633179055610059426203f480610264565b60015550610289565b634e487b7160e01b5f52604160045260245ffd5b5f60208284031215610086575f80fd5b81516001600160401b0381111561009b575f80fd5b8201601f810184136100ab575f80fd5b80516001600160401b038111156100c4576100c4610062565b604051601f8201601f19908116603f011681016001600160401b03811182821017156100f2576100f2610062565b604052818152828201602001861015610109575f80fd5b8160208401602083015e5f91810160200191909152949350505050565b600181811c9082168061013a57607f821691505b60208210810361015857634e487b7160e01b5f52602260045260245ffd5b50919050565b601f8211156101a557805f5260205f20601f840160051c810160208510156101835750805b601f840160051c820191505b818110156101a2575f815560010161018f565b50505b505050565b81516001600160401b038111156101c3576101c3610062565b6101d7816101d18454610126565b8461015e565b6020601f821160018114610209575f83156101f25750848201515b5f19600385901b1c1916600184901b1784556101a2565b5f84815260208120601f198516915b828110156102385787850151825560209485019460019092019101610218565b508482101561025557868401515f19600387901b60f8161c191681555b50505050600190811b01905550565b8082018082111561028357634e487b7160e01b5f52601160045260245ffd5b92915050565b6108e4806102965f395ff3fe6080604052600436106100bf575f3560e01c806391f901571161007c578063cff29dfd11610057578063cff29dfd146101e8578063d57bde7914610207578063f2a4a82e1461021c578063fe67a54b1461023d575f80fd5b806391f9015714610194578063c7e284b8146101b3578063cb6632ef146101c7575f80fd5b806312fa6feb146100c35780631998aeef146100f15780633197cbb6146100fb5780633ccfd60b1461011e57806362ea82db146101325780638da5cb5b1461015d575b5f80fd5b3480156100ce575f80fd5b506005546100dc9060ff1681565b60405190151581526020015b60405180910390f35b6100f9610251565b005b348015610106575f80fd5b5061011060015481565b6040519081526020016100e8565b348015610129575f80fd5b506100f96103b0565b34801561013d575f80fd5b5061011061014c366004610772565b60066020525f908152604090205481565b348015610168575f80fd5b5060025461017c906001600160a01b031681565b6040516001600160a01b0390911681526020016100e8565b34801561019f575f80fd5b5060035461017c906001600160a01b031681565b3480156101be575f80fd5b506101106104c6565b3480156101d2575f80fd5b506101db6104e8565b6040516100e8919061079f565b3480156101f3575f80fd5b5061017c6102023660046107ea565b610548565b348015610212575f80fd5b5061011060045481565b348015610227575f80fd5b50610230610570565b6040516100e89190610801565b348015610248575f80fd5b506100f96105fb565b60015442106102975760405162461bcd60e51b815260206004820152600d60248201526c105d58dd1a5bdb88195b991959609a1b60448201526064015b60405180910390fd5b60045434116102d65760405162461bcd60e51b815260206004820152600b60248201526a42696420746f6f206c6f7760a81b604482015260640161028e565b335f90815260066020526040812054900361032d57600780546001810182555f919091527fa66cc928b5edb82af9bd49922954155ab7b0942694bea4ce44661d9a8736c6880180546001600160a01b031916331790555b335f908152600660205260408120805434929061034b90849061084a565b9091555050335f818152600660205260409081902054600455600380546001600160a01b03191683179055517f3fabff0a9c3ecd6814702e247fa9733e5d0aa69e3a38590f92cb18f623a2254d906103a69034815260200190565b60405180910390a2565b6003546001600160a01b031633036104035760405162461bcd60e51b815260206004820152601660248201527557696e6e65722063616e6e6f7420776974686472617760501b604482015260640161028e565b335f90815260066020526040902054806104555760405162461bcd60e51b81526020600482015260136024820152724e6f7468696e6720746f20776974686472617760681b604482015260640161028e565b335f818152600660205260408082208290555183156108fc0291849190818181858888f1935050505015801561048d573d5f803e3d5ffd5b5060405181815233907f7084f5476618d8e60b11ef0d7d3f06914655adb8793e28ff7f018d4c76d505d59060200160405180910390a250565b5f60015442106104d557505f90565b426001546104e39190610863565b905090565b6060600780548060200260200160405190810160405280929190818152602001828054801561053e57602002820191905f5260205f20905b81546001600160a01b03168152600190910190602001808311610520575b5050505050905090565b60078181548110610557575f80fd5b5f918252602090912001546001600160a01b0316905081565b5f805461057c90610876565b80601f01602080910402602001604051908101604052809291908181526020018280546105a890610876565b80156105f35780601f106105ca576101008083540402835291602001916105f3565b820191905f5260205f20905b8154815290600101906020018083116105d657829003601f168201915b505050505081565b6002546001600160a01b031633146106415760405162461bcd60e51b81526020600482015260096024820152682737ba1037bbb732b960b91b604482015260640161028e565b60055460ff16156106845760405162461bcd60e51b815260206004820152600d60248201526c105b1c9958591e48195b991959609a1b604482015260640161028e565b6001544210156106cd5760405162461bcd60e51b8152602060048201526014602482015273105d58dd1a5bdb881b9bdd081bdd995c881e595d60621b604482015260640161028e565b6005805460ff191660011790556003546001600160a01b031615610770576002546004546040516001600160a01b039092169181156108fc0291905f818181858888f19350505050158015610724573d5f803e3d5ffd5b50600354600454604080516001600160a01b03909316835260208301919091527fdaec4582d5d9595688c8c98545fdd1c696d41c6aeaeb636737e84ed2f5c00eda910160405180910390a15b565b5f60208284031215610782575f80fd5b81356001600160a01b0381168114610798575f80fd5b9392505050565b602080825282518282018190525f918401906040840190835b818110156107df5783516001600160a01b03168352602093840193909201916001016107b8565b509095945050505050565b5f602082840312156107fa575f80fd5b5035919050565b602081525f82518060208401528060208501604085015e5f604082850101526040601f19601f83011684010191505092915050565b634e487b7160e01b5f52601160045260245ffd5b8082018082111561085d5761085d610836565b92915050565b8181038181111561085d5761085d610836565b600181811c9082168061088a57607f821691505b6020821081036108a857634e487b7160e01b5f52602260045260245ffd5b5091905056fea2646970667358221220f3ceaf84dd382f2b13c0070c287f375ffbd85f593db9ac1cebc2aeb750371cc564736f6c634300081a0033a2646970667358221220dfcdcae8706a0c6a6f52ce6abb881478339ef3cf1ea3bd27ac84681e661feb2d64736f6c634300081a0033",
					"opcodes": "PUSH1 0x80 PUSH1 0x40 MSTORE CALLVALUE DUP1 ISZERO PUSH1 0xE JUMPI PUSH0 DUP1 REVERT JUMPDEST POP PUSH1 0x1 DUP1 SLOAD PUSH1 0x1 PUSH1 0x1 PUSH1 0xA0 SHL SUB NOT AND CALLER OR SWAP1 SSTORE PUSH2 0x14C8 DUP1 PUSH2 0x2E PUSH0 CODECOPY PUSH0 RETURN INVALID PUSH1 0x80 PUSH1 0x40 MSTORE CALLVALUE DUP1 ISZERO PUSH2 0xF JUMPI PUSH0 DUP1 REVERT JUMPDEST POP PUSH1 0x4 CALLDATASIZE LT PUSH2 0x85 JUMPI PUSH0 CALLDATALOAD PUSH1 0xE0 SHR DUP1 PUSH4 0x9507D39A GT PUSH2 0x58 JUMPI DUP1 PUSH4 0x9507D39A EQ PUSH2 0xFA JUMPI DUP1 PUSH4 0xB3EF8E16 EQ PUSH2 0x10D JUMPI DUP1 PUSH4 0xB78D8DD5 EQ PUSH2 0x120 JUMPI DUP1 PUSH4 0xB830620A EQ PUSH2 0x133 JUMPI PUSH0 DUP1 REVERT JUMPDEST DUP1 PUSH4 0x53ED5143 EQ PUSH2 0x89 JUMPI DUP1 PUSH4 0x571A26A0 EQ PUSH2 0xA7 JUMPI DUP1 PUSH4 0x7A32F291 EQ PUSH2 0xD2 JUMPI DUP1 PUSH4 0x8DA5CB5B EQ PUSH2 0xE7 JUMPI JUMPDEST PUSH0 DUP1 REVERT JUMPDEST PUSH2 0x91 PUSH2 0x143 JUMP JUMPDEST PUSH1 0x40 MLOAD PUSH2 0x9E SWAP2 SWAP1 PUSH2 0x6A1 JUMP JUMPDEST PUSH1 0x40 MLOAD DUP1 SWAP2 SUB SWAP1 RETURN JUMPDEST PUSH2 0xBA PUSH2 0xB5 CALLDATASIZE PUSH1 0x4 PUSH2 0x6EC JUMP JUMPDEST PUSH2 0x1FE JUMP JUMPDEST PUSH1 0x40 MLOAD PUSH1 0x1 PUSH1 0x1 PUSH1 0xA0 SHL SUB SWAP1 SWAP2 AND DUP2 MSTORE PUSH1 0x20 ADD PUSH2 0x9E JUMP JUMPDEST PUSH2 0xE5 PUSH2 0xE0 CALLDATASIZE PUSH1 0x4 PUSH2 0x6EC JUMP JUMPDEST PUSH2 0x225 JUMP JUMPDEST STOP JUMPDEST PUSH1 0x1 SLOAD PUSH2 0xBA SWAP1 PUSH1 0x1 PUSH1 0x1 PUSH1 0xA0 SHL SUB AND DUP2 JUMP JUMPDEST PUSH2 0xBA PUSH2 0x108 CALLDATASIZE PUSH1 0x4 PUSH2 0x6EC JUMP JUMPDEST PUSH2 0x33A JUMP JUMPDEST PUSH2 0xE5 PUSH2 0x11B CALLDATASIZE PUSH1 0x4 PUSH2 0x6EC JUMP JUMPDEST PUSH2 0x3A7 JUMP JUMPDEST PUSH2 0xE5 PUSH2 0x12E CALLDATASIZE PUSH1 0x4 PUSH2 0x717 JUMP JUMPDEST PUSH2 0x4E0 JUMP JUMPDEST PUSH0 SLOAD PUSH1 0x40 MLOAD SWAP1 DUP2 MSTORE PUSH1 0x20 ADD PUSH2 0x9E JUMP JUMPDEST PUSH0 DUP1 SLOAD PUSH1 0x60 SWAP2 SWAP1 PUSH8 0xFFFFFFFFFFFFFFFF DUP2 GT ISZERO PUSH2 0x162 JUMPI PUSH2 0x162 PUSH2 0x703 JUMP JUMPDEST PUSH1 0x40 MLOAD SWAP1 DUP1 DUP3 MSTORE DUP1 PUSH1 0x20 MUL PUSH1 0x20 ADD DUP3 ADD PUSH1 0x40 MSTORE DUP1 ISZERO PUSH2 0x18B JUMPI DUP2 PUSH1 0x20 ADD PUSH1 0x20 DUP3 MUL DUP1 CALLDATASIZE DUP4 CALLDATACOPY ADD SWAP1 POP JUMPDEST POP SWAP1 POP PUSH0 JUMPDEST PUSH0 SLOAD DUP2 LT ISZERO PUSH2 0x1F8 JUMPI PUSH0 DUP2 DUP2 SLOAD DUP2 LT PUSH2 0x1AB JUMPI PUSH2 0x1AB PUSH2 0x7CA JUMP JUMPDEST SWAP1 PUSH0 MSTORE PUSH1 0x20 PUSH0 KECCAK256 ADD PUSH0 SWAP1 SLOAD SWAP1 PUSH2 0x100 EXP SWAP1 DIV PUSH1 0x1 PUSH1 0x1 PUSH1 0xA0 SHL SUB AND DUP3 DUP3 DUP2 MLOAD DUP2 LT PUSH2 0x1D8 JUMPI PUSH2 0x1D8 PUSH2 0x7CA JUMP JUMPDEST PUSH1 0x1 PUSH1 0x1 PUSH1 0xA0 SHL SUB SWAP1 SWAP3 AND PUSH1 0x20 SWAP3 DUP4 MUL SWAP2 SWAP1 SWAP2 ADD SWAP1 SWAP2 ADD MSTORE PUSH1 0x1 ADD PUSH2 0x190 JUMP JUMPDEST POP SWAP2 SWAP1 POP JUMP JUMPDEST PUSH0 DUP2 DUP2 SLOAD DUP2 LT PUSH2 0x20C JUMPI PUSH0 DUP1 REVERT JUMPDEST PUSH0 SWAP2 DUP3 MSTORE PUSH1 0x20 SWAP1 SWAP2 KECCAK256 ADD SLOAD PUSH1 0x1 PUSH1 0x1 PUSH1 0xA0 SHL SUB AND SWAP1 POP DUP2 JUMP JUMPDEST PUSH1 0x1 SLOAD PUSH1 0x1 PUSH1 0x1 PUSH1 0xA0 SHL SUB AND CALLER EQ PUSH2 0x258 JUMPI PUSH1 0x40 MLOAD PUSH3 0x461BCD PUSH1 0xE5 SHL DUP2 MSTORE PUSH1 0x4 ADD PUSH2 0x24F SWAP1 PUSH2 0x7DE JUMP JUMPDEST PUSH1 0x40 MLOAD DUP1 SWAP2 SUB SWAP1 REVERT JUMPDEST PUSH0 SLOAD DUP2 LT PUSH2 0x298 JUMPI PUSH1 0x40 MLOAD PUSH3 0x461BCD PUSH1 0xE5 SHL DUP2 MSTORE PUSH1 0x20 PUSH1 0x4 DUP3 ADD MSTORE PUSH1 0xD PUSH1 0x24 DUP3 ADD MSTORE PUSH13 0x92DCECC2D8D2C840D2DCC8CAF PUSH1 0x9B SHL PUSH1 0x44 DUP3 ADD MSTORE PUSH1 0x64 ADD PUSH2 0x24F JUMP JUMPDEST PUSH0 DUP1 SLOAD PUSH2 0x2A7 SWAP1 PUSH1 0x1 SWAP1 PUSH2 0x815 JUMP JUMPDEST DUP2 SLOAD DUP2 LT PUSH2 0x2B7 JUMPI PUSH2 0x2B7 PUSH2 0x7CA JUMP JUMPDEST PUSH0 SWAP2 DUP3 MSTORE PUSH1 0x20 DUP3 KECCAK256 ADD SLOAD DUP2 SLOAD PUSH1 0x1 PUSH1 0x1 PUSH1 0xA0 SHL SUB SWAP1 SWAP2 AND SWAP2 SWAP1 DUP4 SWAP1 DUP2 LT PUSH2 0x2E0 JUMPI PUSH2 0x2E0 PUSH2 0x7CA JUMP JUMPDEST PUSH0 SWAP2 DUP3 MSTORE PUSH1 0x20 DUP3 KECCAK256 ADD DUP1 SLOAD PUSH1 0x1 PUSH1 0x1 PUSH1 0xA0 SHL SUB NOT AND PUSH1 0x1 PUSH1 0x1 PUSH1 0xA0 SHL SUB SWAP4 SWAP1 SWAP4 AND SWAP3 SWAP1 SWAP3 OR SWAP1 SWAP2 SSTORE DUP1 SLOAD DUP1 PUSH2 0x317 JUMPI PUSH2 0x317 PUSH2 0x82E JUMP JUMPDEST PUSH0 DUP3 DUP2 MSTORE PUSH1 0x20 SWAP1 KECCAK256 DUP2 ADD PUSH0 NOT SWAP1 DUP2 ADD DUP1 SLOAD PUSH1 0x1 PUSH1 0x1 PUSH1 0xA0 SHL SUB NOT AND SWAP1 SSTORE ADD SWAP1 SSTORE POP JUMP JUMPDEST PUSH0 DUP1 SLOAD DUP3 LT PUSH2 0x37B JUMPI PUSH1 0x40 MLOAD PUSH3 0x461BCD PUSH1 0xE5 SHL DUP2 MSTORE PUSH1 0x20 PUSH1 0x4 DUP3 ADD MSTORE PUSH1 0xD PUSH1 0x24 DUP3 ADD MSTORE PUSH13 0x92DCECC2D8D2C840D2DCC8CAF PUSH1 0x9B SHL PUSH1 0x44 DUP3 ADD MSTORE PUSH1 0x64 ADD PUSH2 0x24F JUMP JUMPDEST PUSH0 DUP3 DUP2 SLOAD DUP2 LT PUSH2 0x38D JUMPI PUSH2 0x38D PUSH2 0x7CA JUMP JUMPDEST PUSH0 SWAP2 DUP3 MSTORE PUSH1 0x20 SWAP1 SWAP2 KECCAK256 ADD SLOAD PUSH1 0x1 PUSH1 0x1 PUSH1 0xA0 SHL SUB AND SWAP3 SWAP2 POP POP JUMP JUMPDEST PUSH1 0x1 SLOAD PUSH1 0x1 PUSH1 0x1 PUSH1 0xA0 SHL SUB AND CALLER EQ PUSH2 0x3D1 JUMPI PUSH1 0x40 MLOAD PUSH3 0x461BCD PUSH1 0xE5 SHL DUP2 MSTORE PUSH1 0x4 ADD PUSH2 0x24F SWAP1 PUSH2 0x7DE JUMP JUMPDEST PUSH0 DUP2 GT PUSH2 0x414 JUMPI PUSH1 0x40 MLOAD PUSH3 0x461BCD PUSH1 0xE5 SHL DUP2 MSTORE PUSH1 0x20 PUSH1 0x4 DUP3 ADD MSTORE PUSH1 0x11 PUSH1 0x24 DUP3 ADD MSTORE PUSH17 0x436F756E74206D757374206265203E203 PUSH1 0x7C SHL PUSH1 0x44 DUP3 ADD MSTORE PUSH1 0x64 ADD PUSH2 0x24F JUMP JUMPDEST PUSH1 0x1 JUMPDEST DUP2 DUP2 GT PUSH2 0x4DC JUMPI PUSH0 PUSH2 0x428 DUP3 PUSH2 0x58C JUMP JUMPDEST PUSH1 0x40 MLOAD PUSH1 0x20 ADD PUSH2 0x438 SWAP2 SWAP1 PUSH2 0x842 JUMP JUMPDEST PUSH1 0x40 MLOAD PUSH1 0x20 DUP2 DUP4 SUB SUB DUP2 MSTORE SWAP1 PUSH1 0x40 MSTORE SWAP1 POP PUSH0 DUP2 PUSH1 0x40 MLOAD PUSH2 0x457 SWAP1 PUSH2 0x694 JUMP JUMPDEST PUSH2 0x461 SWAP2 SWAP1 PUSH2 0x869 JUMP JUMPDEST PUSH1 0x40 MLOAD DUP1 SWAP2 SUB SWAP1 PUSH0 CREATE DUP1 ISZERO DUP1 ISZERO PUSH2 0x47A JUMPI RETURNDATASIZE PUSH0 DUP1 RETURNDATACOPY RETURNDATASIZE PUSH0 REVERT JUMPDEST POP PUSH0 DUP1 SLOAD PUSH1 0x1 DUP2 ADD DUP3 SSTORE SWAP1 DUP1 MSTORE PUSH32 0x290DECD9548B62A8D60345A988386FC84BA6BC95484008F6362F93160EF3E563 ADD DUP1 SLOAD PUSH1 0x1 PUSH1 0x1 PUSH1 0xA0 SHL SUB NOT AND PUSH1 0x1 PUSH1 0x1 PUSH1 0xA0 SHL SUB SWAP3 SWAP1 SWAP3 AND SWAP2 SWAP1 SWAP2 OR SWAP1 SSTORE POP DUP2 SWAP1 POP PUSH2 0x4D4 DUP2 PUSH2 0x89E JUMP JUMPDEST SWAP2 POP POP PUSH2 0x417 JUMP JUMPDEST POP POP JUMP JUMPDEST PUSH1 0x1 SLOAD PUSH1 0x1 PUSH1 0x1 PUSH1 0xA0 SHL SUB AND CALLER EQ PUSH2 0x50A JUMPI PUSH1 0x40 MLOAD PUSH3 0x461BCD PUSH1 0xE5 SHL DUP2 MSTORE PUSH1 0x4 ADD PUSH2 0x24F SWAP1 PUSH2 0x7DE JUMP JUMPDEST PUSH0 DUP2 PUSH1 0x40 MLOAD PUSH2 0x518 SWAP1 PUSH2 0x694 JUMP JUMPDEST PUSH2 0x522 SWAP2 SWAP1 PUSH2 0x869 JUMP JUMPDEST PUSH1 0x40 MLOAD DUP1 SWAP2 SUB SWAP1 PUSH0 CREATE DUP1 ISZERO DUP1 ISZERO PUSH2 0x53B JUMPI RETURNDATASIZE PUSH0 DUP1 RETURNDATACOPY RETURNDATASIZE PUSH0 REVERT JUMPDEST POP PUSH0 DUP1 SLOAD PUSH1 0x1 DUP2 ADD DUP3 SSTORE SWAP1 DUP1 MSTORE PUSH32 0x290DECD9548B62A8D60345A988386FC84BA6BC95484008F6362F93160EF3E563 ADD DUP1 SLOAD PUSH1 0x1 PUSH1 0x1 PUSH1 0xA0 SHL SUB NOT AND PUSH1 0x1 PUSH1 0x1 PUSH1 0xA0 SHL SUB SWAP3 SWAP1 SWAP3 AND SWAP2 SWAP1 SWAP2 OR SWAP1 SSTORE POP POP JUMP JUMPDEST PUSH1 0x60 DUP2 PUSH0 SUB PUSH2 0x5B2 JUMPI POP POP PUSH1 0x40 DUP1 MLOAD DUP1 DUP3 ADD SWAP1 SWAP2 MSTORE PUSH1 0x1 DUP2 MSTORE PUSH1 0x3 PUSH1 0xFC SHL PUSH1 0x20 DUP3 ADD MSTORE SWAP1 JUMP JUMPDEST DUP2 PUSH0 JUMPDEST DUP2 ISZERO PUSH2 0x5DB JUMPI DUP1 PUSH2 0x5C5 DUP2 PUSH2 0x89E JUMP JUMPDEST SWAP2 POP PUSH2 0x5D4 SWAP1 POP PUSH1 0xA DUP4 PUSH2 0x8CA JUMP JUMPDEST SWAP2 POP PUSH2 0x5B5 JUMP JUMPDEST PUSH0 DUP2 PUSH8 0xFFFFFFFFFFFFFFFF DUP2 GT ISZERO PUSH2 0x5F5 JUMPI PUSH2 0x5F5 PUSH2 0x703 JUMP JUMPDEST PUSH1 0x40 MLOAD SWAP1 DUP1 DUP3 MSTORE DUP1 PUSH1 0x1F ADD PUSH1 0x1F NOT AND PUSH1 0x20 ADD DUP3 ADD PUSH1 0x40 MSTORE DUP1 ISZERO PUSH2 0x61F JUMPI PUSH1 0x20 DUP3 ADD DUP2 DUP1 CALLDATASIZE DUP4 CALLDATACOPY ADD SWAP1 POP JUMPDEST POP SWAP1 POP DUP2 JUMPDEST DUP6 ISZERO PUSH2 0x68B JUMPI DUP1 PUSH2 0x634 DUP2 PUSH2 0x8DD JUMP JUMPDEST SWAP2 POP PUSH2 0x643 SWAP1 POP PUSH1 0xA DUP8 PUSH2 0x8F2 JUMP JUMPDEST PUSH2 0x64E SWAP1 PUSH1 0x30 PUSH2 0x905 JUMP JUMPDEST PUSH1 0xF8 SHL DUP3 DUP3 DUP2 MLOAD DUP2 LT PUSH2 0x663 JUMPI PUSH2 0x663 PUSH2 0x7CA JUMP JUMPDEST PUSH1 0x20 ADD ADD SWAP1 PUSH1 0x1 PUSH1 0x1 PUSH1 0xF8 SHL SUB NOT AND SWAP1 DUP2 PUSH0 BYTE SWAP1 MSTORE8 POP PUSH2 0x684 PUSH1 0xA DUP8 PUSH2 0x8CA JUMP JUMPDEST SWAP6 POP PUSH2 0x624 JUMP JUMPDEST POP SWAP5 SWAP4 POP POP POP POP JUMP JUMPDEST PUSH2 0xB7A DUP1 PUSH2 0x919 DUP4 CODECOPY ADD SWAP1 JUMP JUMPDEST PUSH1 0x20 DUP1 DUP3 MSTORE DUP3 MLOAD DUP3 DUP3 ADD DUP2 SWAP1 MSTORE PUSH0 SWAP2 DUP5 ADD SWAP1 PUSH1 0x40 DUP5 ADD SWAP1 DUP4 JUMPDEST DUP2 DUP2 LT ISZERO PUSH2 0x6E1 JUMPI DUP4 MLOAD PUSH1 0x1 PUSH1 0x1 PUSH1 0xA0 SHL SUB AND DUP4 MSTORE PUSH1 0x20 SWAP4 DUP5 ADD SWAP4 SWAP1 SWAP3 ADD SWAP2 PUSH1 0x1 ADD PUSH2 0x6BA JUMP JUMPDEST POP SWAP1 SWAP6 SWAP5 POP POP POP POP POP JUMP JUMPDEST PUSH0 PUSH1 0x20 DUP3 DUP5 SUB SLT ISZERO PUSH2 0x6FC JUMPI PUSH0 DUP1 REVERT JUMPDEST POP CALLDATALOAD SWAP2 SWAP1 POP JUMP JUMPDEST PUSH4 0x4E487B71 PUSH1 0xE0 SHL PUSH0 MSTORE PUSH1 0x41 PUSH1 0x4 MSTORE PUSH1 0x24 PUSH0 REVERT JUMPDEST PUSH0 PUSH1 0x20 DUP3 DUP5 SUB SLT ISZERO PUSH2 0x727 JUMPI PUSH0 DUP1 REVERT JUMPDEST DUP2 CALLDATALOAD PUSH8 0xFFFFFFFFFFFFFFFF DUP2 GT ISZERO PUSH2 0x73D JUMPI PUSH0 DUP1 REVERT JUMPDEST DUP3 ADD PUSH1 0x1F DUP2 ADD DUP5 SGT PUSH2 0x74D JUMPI PUSH0 DUP1 REVERT JUMPDEST DUP1 CALLDATALOAD PUSH8 0xFFFFFFFFFFFFFFFF DUP2 GT ISZERO PUSH2 0x767 JUMPI PUSH2 0x767 PUSH2 0x703 JUMP JUMPDEST PUSH1 0x40 MLOAD PUSH1 0x1F DUP3 ADD PUSH1 0x1F NOT SWAP1 DUP2 AND PUSH1 0x3F ADD AND DUP2 ADD PUSH8 0xFFFFFFFFFFFFFFFF DUP2 GT DUP3 DUP3 LT OR ISZERO PUSH2 0x796 JUMPI PUSH2 0x796 PUSH2 0x703 JUMP JUMPDEST PUSH1 0x40 MSTORE DUP2 DUP2 MSTORE DUP3 DUP3 ADD PUSH1 0x20 ADD DUP7 LT ISZERO PUSH2 0x7AD JUMPI PUSH0 DUP1 REVERT JUMPDEST DUP2 PUSH1 0x20 DUP5 ADD PUSH1 0x20 DUP4 ADD CALLDATACOPY PUSH0 SWAP2 DUP2 ADD PUSH1 0x20 ADD SWAP2 SWAP1 SWAP2 MSTORE SWAP5 SWAP4 POP POP POP POP JUMP JUMPDEST PUSH4 0x4E487B71 PUSH1 0xE0 SHL PUSH0 MSTORE PUSH1 0x32 PUSH1 0x4 MSTORE PUSH1 0x24 PUSH0 REVERT JUMPDEST PUSH1 0x20 DUP1 DUP3 MSTORE PUSH1 0x9 SWAP1 DUP3 ADD MSTORE PUSH9 0x2737BA1037BBB732B9 PUSH1 0xB9 SHL PUSH1 0x40 DUP3 ADD MSTORE PUSH1 0x60 ADD SWAP1 JUMP JUMPDEST PUSH4 0x4E487B71 PUSH1 0xE0 SHL PUSH0 MSTORE PUSH1 0x11 PUSH1 0x4 MSTORE PUSH1 0x24 PUSH0 REVERT JUMPDEST DUP2 DUP2 SUB DUP2 DUP2 GT ISZERO PUSH2 0x828 JUMPI PUSH2 0x828 PUSH2 0x801 JUMP JUMPDEST SWAP3 SWAP2 POP POP JUMP JUMPDEST PUSH4 0x4E487B71 PUSH1 0xE0 SHL PUSH0 MSTORE PUSH1 0x31 PUSH1 0x4 MSTORE PUSH1 0x24 PUSH0 REVERT JUMPDEST PUSH5 0x4974656D5F PUSH1 0xD8 SHL DUP2 MSTORE PUSH0 DUP3 MLOAD DUP1 PUSH1 0x20 DUP6 ADD PUSH1 0x5 DUP6 ADD MCOPY PUSH0 SWAP3 ADD PUSH1 0x5 ADD SWAP2 DUP3 MSTORE POP SWAP2 SWAP1 POP JUMP JUMPDEST PUSH1 0x20 DUP2 MSTORE PUSH0 DUP3 MLOAD DUP1 PUSH1 0x20 DUP5 ADD MSTORE DUP1 PUSH1 0x20 DUP6 ADD PUSH1 0x40 DUP6 ADD MCOPY PUSH0 PUSH1 0x40 DUP3 DUP6 ADD ADD MSTORE PUSH1 0x40 PUSH1 0x1F NOT PUSH1 0x1F DUP4 ADD AND DUP5 ADD ADD SWAP2 POP POP SWAP3 SWAP2 POP POP JUMP JUMPDEST PUSH0 PUSH1 0x1 DUP3 ADD PUSH2 0x8AF JUMPI PUSH2 0x8AF PUSH2 0x801 JUMP JUMPDEST POP PUSH1 0x1 ADD SWAP1 JUMP JUMPDEST PUSH4 0x4E487B71 PUSH1 0xE0 SHL PUSH0 MSTORE PUSH1 0x12 PUSH1 0x4 MSTORE PUSH1 0x24 PUSH0 REVERT JUMPDEST PUSH0 DUP3 PUSH2 0x8D8 JUMPI PUSH2 0x8D8 PUSH2 0x8B6 JUMP JUMPDEST POP DIV SWAP1 JUMP JUMPDEST PUSH0 DUP2 PUSH2 0x8EB JUMPI PUSH2 0x8EB PUSH2 0x801 JUMP JUMPDEST POP PUSH0 NOT ADD SWAP1 JUMP JUMPDEST PUSH0 DUP3 PUSH2 0x900 JUMPI PUSH2 0x900 PUSH2 0x8B6 JUMP JUMPDEST POP MOD SWAP1 JUMP JUMPDEST DUP1 DUP3 ADD DUP1 DUP3 GT ISZERO PUSH2 0x828 JUMPI PUSH2 0x828 PUSH2 0x801 JUMP INVALID PUSH1 0x80 PUSH1 0x40 MSTORE CALLVALUE DUP1 ISZERO PUSH2 0xF JUMPI PUSH0 DUP1 REVERT JUMPDEST POP PUSH1 0x40 MLOAD PUSH2 0xB7A CODESIZE SUB DUP1 PUSH2 0xB7A DUP4 CODECOPY DUP2 ADD PUSH1 0x40 DUP2 SWAP1 MSTORE PUSH2 0x2E SWAP2 PUSH2 0x76 JUMP JUMPDEST PUSH0 PUSH2 0x39 DUP3 DUP3 PUSH2 0x1AA JUMP JUMPDEST POP PUSH1 0x2 DUP1 SLOAD PUSH1 0x1 PUSH1 0x1 PUSH1 0xA0 SHL SUB NOT AND CALLER OR SWAP1 SSTORE PUSH2 0x59 TIMESTAMP PUSH3 0x3F480 PUSH2 0x264 JUMP JUMPDEST PUSH1 0x1 SSTORE POP PUSH2 0x289 JUMP JUMPDEST PUSH4 0x4E487B71 PUSH1 0xE0 SHL PUSH0 MSTORE PUSH1 0x41 PUSH1 0x4 MSTORE PUSH1 0x24 PUSH0 REVERT JUMPDEST PUSH0 PUSH1 0x20 DUP3 DUP5 SUB SLT ISZERO PUSH2 0x86 JUMPI PUSH0 DUP1 REVERT JUMPDEST DUP2 MLOAD PUSH1 0x1 PUSH1 0x1 PUSH1 0x40 SHL SUB DUP2 GT ISZERO PUSH2 0x9B JUMPI PUSH0 DUP1 REVERT JUMPDEST DUP3 ADD PUSH1 0x1F DUP2 ADD DUP5 SGT PUSH2 0xAB JUMPI PUSH0 DUP1 REVERT JUMPDEST DUP1 MLOAD PUSH1 0x1 PUSH1 0x1 PUSH1 0x40 SHL SUB DUP2 GT ISZERO PUSH2 0xC4 JUMPI PUSH2 0xC4 PUSH2 0x62 JUMP JUMPDEST PUSH1 0x40 MLOAD PUSH1 0x1F DUP3 ADD PUSH1 0x1F NOT SWAP1 DUP2 AND PUSH1 0x3F ADD AND DUP2 ADD PUSH1 0x1 PUSH1 0x1 PUSH1 0x40 SHL SUB DUP2 GT DUP3 DUP3 LT OR ISZERO PUSH2 0xF2 JUMPI PUSH2 0xF2 PUSH2 0x62 JUMP JUMPDEST PUSH1 0x40 MSTORE DUP2 DUP2 MSTORE DUP3 DUP3 ADD PUSH1 0x20 ADD DUP7 LT ISZERO PUSH2 0x109 JUMPI PUSH0 DUP1 REVERT JUMPDEST DUP2 PUSH1 0x20 DUP5 ADD PUSH1 0x20 DUP4 ADD MCOPY PUSH0 SWAP2 DUP2 ADD PUSH1 0x20 ADD SWAP2 SWAP1 SWAP2 MSTORE SWAP5 SWAP4 POP POP POP POP JUMP JUMPDEST PUSH1 0x1 DUP2 DUP2 SHR SWAP1 DUP3 AND DUP1 PUSH2 0x13A JUMPI PUSH1 0x7F DUP3 AND SWAP2 POP JUMPDEST PUSH1 0x20 DUP3 LT DUP2 SUB PUSH2 0x158 JUMPI PUSH4 0x4E487B71 PUSH1 0xE0 SHL PUSH0 MSTORE PUSH1 0x22 PUSH1 0x4 MSTORE PUSH1 0x24 PUSH0 REVERT JUMPDEST POP SWAP2 SWAP1 POP JUMP JUMPDEST PUSH1 0x1F DUP3 GT ISZERO PUSH2 0x1A5 JUMPI DUP1 PUSH0 MSTORE PUSH1 0x20 PUSH0 KECCAK256 PUSH1 0x1F DUP5 ADD PUSH1 0x5 SHR DUP2 ADD PUSH1 0x20 DUP6 LT ISZERO PUSH2 0x183 JUMPI POP DUP1 JUMPDEST PUSH1 0x1F DUP5 ADD PUSH1 0x5 SHR DUP3 ADD SWAP2 POP JUMPDEST DUP2 DUP2 LT ISZERO PUSH2 0x1A2 JUMPI PUSH0 DUP2 SSTORE PUSH1 0x1 ADD PUSH2 0x18F JUMP JUMPDEST POP POP JUMPDEST POP POP POP JUMP JUMPDEST DUP2 MLOAD PUSH1 0x1 PUSH1 0x1 PUSH1 0x40 SHL SUB DUP2 GT ISZERO PUSH2 0x1C3 JUMPI PUSH2 0x1C3 PUSH2 0x62 JUMP JUMPDEST PUSH2 0x1D7 DUP2 PUSH2 0x1D1 DUP5 SLOAD PUSH2 0x126 JUMP JUMPDEST DUP5 PUSH2 0x15E JUMP JUMPDEST PUSH1 0x20 PUSH1 0x1F DUP3 GT PUSH1 0x1 DUP2 EQ PUSH2 0x209 JUMPI PUSH0 DUP4 ISZERO PUSH2 0x1F2 JUMPI POP DUP5 DUP3 ADD MLOAD JUMPDEST PUSH0 NOT PUSH1 0x3 DUP6 SWAP1 SHL SHR NOT AND PUSH1 0x1 DUP5 SWAP1 SHL OR DUP5 SSTORE PUSH2 0x1A2 JUMP JUMPDEST PUSH0 DUP5 DUP2 MSTORE PUSH1 0x20 DUP2 KECCAK256 PUSH1 0x1F NOT DUP6 AND SWAP2 JUMPDEST DUP3 DUP2 LT ISZERO PUSH2 0x238 JUMPI DUP8 DUP6 ADD MLOAD DUP3 SSTORE PUSH1 0x20 SWAP5 DUP6 ADD SWAP5 PUSH1 0x1 SWAP1 SWAP3 ADD SWAP2 ADD PUSH2 0x218 JUMP JUMPDEST POP DUP5 DUP3 LT ISZERO PUSH2 0x255 JUMPI DUP7 DUP5 ADD MLOAD PUSH0 NOT PUSH1 0x3 DUP8 SWAP1 SHL PUSH1 0xF8 AND SHR NOT AND DUP2 SSTORE JUMPDEST POP POP POP POP PUSH1 0x1 SWAP1 DUP2 SHL ADD SWAP1 SSTORE POP JUMP JUMPDEST DUP1 DUP3 ADD DUP1 DUP3 GT ISZERO PUSH2 0x283 JUMPI PUSH4 0x4E487B71 PUSH1 0xE0 SHL PUSH0 MSTORE PUSH1 0x11 PUSH1 0x4 MSTORE PUSH1 0x24 PUSH0 REVERT JUMPDEST SWAP3 SWAP2 POP POP JUMP JUMPDEST PUSH2 0x8E4 DUP1 PUSH2 0x296 PUSH0 CODECOPY PUSH0 RETURN INVALID PUSH1 0x80 PUSH1 0x40 MSTORE PUSH1 0x4 CALLDATASIZE LT PUSH2 0xBF JUMPI PUSH0 CALLDATALOAD PUSH1 0xE0 SHR DUP1 PUSH4 0x91F90157 GT PUSH2 0x7C JUMPI DUP1 PUSH4 0xCFF29DFD GT PUSH2 0x57 JUMPI DUP1 PUSH4 0xCFF29DFD EQ PUSH2 0x1E8 JUMPI DUP1 PUSH4 0xD57BDE79 EQ PUSH2 0x207 JUMPI DUP1 PUSH4 0xF2A4A82E EQ PUSH2 0x21C JUMPI DUP1 PUSH4 0xFE67A54B EQ PUSH2 0x23D JUMPI PUSH0 DUP1 REVERT JUMPDEST DUP1 PUSH4 0x91F90157 EQ PUSH2 0x194 JUMPI DUP1 PUSH4 0xC7E284B8 EQ PUSH2 0x1B3 JUMPI DUP1 PUSH4 0xCB6632EF EQ PUSH2 0x1C7 JUMPI PUSH0 DUP1 REVERT JUMPDEST DUP1 PUSH4 0x12FA6FEB EQ PUSH2 0xC3 JUMPI DUP1 PUSH4 0x1998AEEF EQ PUSH2 0xF1 JUMPI DUP1 PUSH4 0x3197CBB6 EQ PUSH2 0xFB JUMPI DUP1 PUSH4 0x3CCFD60B EQ PUSH2 0x11E JUMPI DUP1 PUSH4 0x62EA82DB EQ PUSH2 0x132 JUMPI DUP1 PUSH4 0x8DA5CB5B EQ PUSH2 0x15D JUMPI JUMPDEST PUSH0 DUP1 REVERT JUMPDEST CALLVALUE DUP1 ISZERO PUSH2 0xCE JUMPI PUSH0 DUP1 REVERT JUMPDEST POP PUSH1 0x5 SLOAD PUSH2 0xDC SWAP1 PUSH1 0xFF AND DUP2 JUMP JUMPDEST PUSH1 0x40 MLOAD SWAP1 ISZERO ISZERO DUP2 MSTORE PUSH1 0x20 ADD JUMPDEST PUSH1 0x40 MLOAD DUP1 SWAP2 SUB SWAP1 RETURN JUMPDEST PUSH2 0xF9 PUSH2 0x251 JUMP JUMPDEST STOP JUMPDEST CALLVALUE DUP1 ISZERO PUSH2 0x106 JUMPI PUSH0 DUP1 REVERT JUMPDEST POP PUSH2 0x110 PUSH1 0x1 SLOAD DUP2 JUMP JUMPDEST PUSH1 0x40 MLOAD SWAP1 DUP2 MSTORE PUSH1 0x20 ADD PUSH2 0xE8 JUMP JUMPDEST CALLVALUE DUP1 ISZERO PUSH2 0x129 JUMPI PUSH0 DUP1 REVERT JUMPDEST POP PUSH2 0xF9 PUSH2 0x3B0 JUMP JUMPDEST CALLVALUE DUP1 ISZERO PUSH2 0x13D JUMPI PUSH0 DUP1 REVERT JUMPDEST POP PUSH2 0x110 PUSH2 0x14C CALLDATASIZE PUSH1 0x4 PUSH2 0x772 JUMP JUMPDEST PUSH1 0x6 PUSH1 0x20 MSTORE PUSH0 SWAP1 DUP2 MSTORE PUSH1 0x40 SWAP1 KECCAK256 SLOAD DUP2 JUMP JUMPDEST CALLVALUE DUP1 ISZERO PUSH2 0x168 JUMPI PUSH0 DUP1 REVERT JUMPDEST POP PUSH1 0x2 SLOAD PUSH2 0x17C SWAP1 PUSH1 0x1 PUSH1 0x1 PUSH1 0xA0 SHL SUB AND DUP2 JUMP JUMPDEST PUSH1 0x40 MLOAD PUSH1 0x1 PUSH1 0x1 PUSH1 0xA0 SHL SUB SWAP1 SWAP2 AND DUP2 MSTORE PUSH1 0x20 ADD PUSH2 0xE8 JUMP JUMPDEST CALLVALUE DUP1 ISZERO PUSH2 0x19F JUMPI PUSH0 DUP1 REVERT JUMPDEST POP PUSH1 0x3 SLOAD PUSH2 0x17C SWAP1 PUSH1 0x1 PUSH1 0x1 PUSH1 0xA0 SHL SUB AND DUP2 JUMP JUMPDEST CALLVALUE DUP1 ISZERO PUSH2 0x1BE JUMPI PUSH0 DUP1 REVERT JUMPDEST POP PUSH2 0x110 PUSH2 0x4C6 JUMP JUMPDEST CALLVALUE DUP1 ISZERO PUSH2 0x1D2 JUMPI PUSH0 DUP1 REVERT JUMPDEST POP PUSH2 0x1DB PUSH2 0x4E8 JUMP JUMPDEST PUSH1 0x40 MLOAD PUSH2 0xE8 SWAP2 SWAP1 PUSH2 0x79F JUMP JUMPDEST CALLVALUE DUP1 ISZERO PUSH2 0x1F3 JUMPI PUSH0 DUP1 REVERT JUMPDEST POP PUSH2 0x17C PUSH2 0x202 CALLDATASIZE PUSH1 0x4 PUSH2 0x7EA JUMP JUMPDEST PUSH2 0x548 JUMP JUMPDEST CALLVALUE DUP1 ISZERO PUSH2 0x212 JUMPI PUSH0 DUP1 REVERT JUMPDEST POP PUSH2 0x110 PUSH1 0x4 SLOAD DUP2 JUMP JUMPDEST CALLVALUE DUP1 ISZERO PUSH2 0x227 JUMPI PUSH0 DUP1 REVERT JUMPDEST POP PUSH2 0x230 PUSH2 0x570 JUMP JUMPDEST PUSH1 0x40 MLOAD PUSH2 0xE8 SWAP2 SWAP1 PUSH2 0x801 JUMP JUMPDEST CALLVALUE DUP1 ISZERO PUSH2 0x248 JUMPI PUSH0 DUP1 REVERT JUMPDEST POP PUSH2 0xF9 PUSH2 0x5FB JUMP JUMPDEST PUSH1 0x1 SLOAD TIMESTAMP LT PUSH2 0x297 JUMPI PUSH1 0x40 MLOAD PUSH3 0x461BCD PUSH1 0xE5 SHL DUP2 MSTORE PUSH1 0x20 PUSH1 0x4 DUP3 ADD MSTORE PUSH1 0xD PUSH1 0x24 DUP3 ADD MSTORE PUSH13 0x105D58DD1A5BDB88195B991959 PUSH1 0x9A SHL PUSH1 0x44 DUP3 ADD MSTORE PUSH1 0x64 ADD JUMPDEST PUSH1 0x40 MLOAD DUP1 SWAP2 SUB SWAP1 REVERT JUMPDEST PUSH1 0x4 SLOAD CALLVALUE GT PUSH2 0x2D6 JUMPI PUSH1 0x40 MLOAD PUSH3 0x461BCD PUSH1 0xE5 SHL DUP2 MSTORE PUSH1 0x20 PUSH1 0x4 DUP3 ADD MSTORE PUSH1 0xB PUSH1 0x24 DUP3 ADD MSTORE PUSH11 0x42696420746F6F206C6F77 PUSH1 0xA8 SHL PUSH1 0x44 DUP3 ADD MSTORE PUSH1 0x64 ADD PUSH2 0x28E JUMP JUMPDEST CALLER PUSH0 SWAP1 DUP2 MSTORE PUSH1 0x6 PUSH1 0x20 MSTORE PUSH1 0x40 DUP2 KECCAK256 SLOAD SWAP1 SUB PUSH2 0x32D JUMPI PUSH1 0x7 DUP1 SLOAD PUSH1 0x1 DUP2 ADD DUP3 SSTORE PUSH0 SWAP2 SWAP1 SWAP2 MSTORE PUSH32 0xA66CC928B5EDB82AF9BD49922954155AB7B0942694BEA4CE44661D9A8736C688 ADD DUP1 SLOAD PUSH1 0x1 PUSH1 0x1 PUSH1 0xA0 SHL SUB NOT AND CALLER OR SWAP1 SSTORE JUMPDEST CALLER PUSH0 SWAP1 DUP2 MSTORE PUSH1 0x6 PUSH1 0x20 MSTORE PUSH1 0x40 DUP2 KECCAK256 DUP1 SLOAD CALLVALUE SWAP3 SWAP1 PUSH2 0x34B SWAP1 DUP5 SWAP1 PUSH2 0x84A JUMP JUMPDEST SWAP1 SWAP2 SSTORE POP POP CALLER PUSH0 DUP2 DUP2 MSTORE PUSH1 0x6 PUSH1 0x20 MSTORE PUSH1 0x40 SWAP1 DUP2 SWAP1 KECCAK256 SLOAD PUSH1 0x4 SSTORE PUSH1 0x3 DUP1 SLOAD PUSH1 0x1 PUSH1 0x1 PUSH1 0xA0 SHL SUB NOT AND DUP4 OR SWAP1 SSTORE MLOAD PUSH32 0x3FABFF0A9C3ECD6814702E247FA9733E5D0AA69E3A38590F92CB18F623A2254D SWAP1 PUSH2 0x3A6 SWAP1 CALLVALUE DUP2 MSTORE PUSH1 0x20 ADD SWAP1 JUMP JUMPDEST PUSH1 0x40 MLOAD DUP1 SWAP2 SUB SWAP1 LOG2 JUMP JUMPDEST PUSH1 0x3 SLOAD PUSH1 0x1 PUSH1 0x1 PUSH1 0xA0 SHL SUB AND CALLER SUB PUSH2 0x403 JUMPI PUSH1 0x40 MLOAD PUSH3 0x461BCD PUSH1 0xE5 SHL DUP2 MSTORE PUSH1 0x20 PUSH1 0x4 DUP3 ADD MSTORE PUSH1 0x16 PUSH1 0x24 DUP3 ADD MSTORE PUSH22 0x57696E6E65722063616E6E6F74207769746864726177 PUSH1 0x50 SHL PUSH1 0x44 DUP3 ADD MSTORE PUSH1 0x64 ADD PUSH2 0x28E JUMP JUMPDEST CALLER PUSH0 SWAP1 DUP2 MSTORE PUSH1 0x6 PUSH1 0x20 MSTORE PUSH1 0x40 SWAP1 KECCAK256 SLOAD DUP1 PUSH2 0x455 JUMPI PUSH1 0x40 MLOAD PUSH3 0x461BCD PUSH1 0xE5 SHL DUP2 MSTORE PUSH1 0x20 PUSH1 0x4 DUP3 ADD MSTORE PUSH1 0x13 PUSH1 0x24 DUP3 ADD MSTORE PUSH19 0x4E6F7468696E6720746F207769746864726177 PUSH1 0x68 SHL PUSH1 0x44 DUP3 ADD MSTORE PUSH1 0x64 ADD PUSH2 0x28E JUMP JUMPDEST CALLER PUSH0 DUP2 DUP2 MSTORE PUSH1 0x6 PUSH1 0x20 MSTORE PUSH1 0x40 DUP1 DUP3 KECCAK256 DUP3 SWAP1 SSTORE MLOAD DUP4 ISZERO PUSH2 0x8FC MUL SWAP2 DUP5 SWAP2 SWAP1 DUP2 DUP2 DUP2 DUP6 DUP9 DUP9 CALL SWAP4 POP POP POP POP ISZERO DUP1 ISZERO PUSH2 0x48D JUMPI RETURNDATASIZE PUSH0 DUP1 RETURNDATACOPY RETURNDATASIZE PUSH0 REVERT JUMPDEST POP PUSH1 0x40 MLOAD DUP2 DUP2 MSTORE CALLER SWAP1 PUSH32 0x7084F5476618D8E60B11EF0D7D3F06914655ADB8793E28FF7F018D4C76D505D5 SWAP1 PUSH1 0x20 ADD PUSH1 0x40 MLOAD DUP1 SWAP2 SUB SWAP1 LOG2 POP JUMP JUMPDEST PUSH0 PUSH1 0x1 SLOAD TIMESTAMP LT PUSH2 0x4D5 JUMPI POP PUSH0 SWAP1 JUMP JUMPDEST TIMESTAMP PUSH1 0x1 SLOAD PUSH2 0x4E3 SWAP2 SWAP1 PUSH2 0x863 JUMP JUMPDEST SWAP1 POP SWAP1 JUMP JUMPDEST PUSH1 0x60 PUSH1 0x7 DUP1 SLOAD DUP1 PUSH1 0x20 MUL PUSH1 0x20 ADD PUSH1 0x40 MLOAD SWAP1 DUP2 ADD PUSH1 0x40 MSTORE DUP1 SWAP3 SWAP2 SWAP1 DUP2 DUP2 MSTORE PUSH1 0x20 ADD DUP3 DUP1 SLOAD DUP1 ISZERO PUSH2 0x53E JUMPI PUSH1 0x20 MUL DUP3 ADD SWAP2 SWAP1 PUSH0 MSTORE PUSH1 0x20 PUSH0 KECCAK256 SWAP1 JUMPDEST DUP2 SLOAD PUSH1 0x1 PUSH1 0x1 PUSH1 0xA0 SHL SUB AND DUP2 MSTORE PUSH1 0x1 SWAP1 SWAP2 ADD SWAP1 PUSH1 0x20 ADD DUP1 DUP4 GT PUSH2 0x520 JUMPI JUMPDEST POP POP POP POP POP SWAP1 POP SWAP1 JUMP JUMPDEST PUSH1 0x7 DUP2 DUP2 SLOAD DUP2 LT PUSH2 0x557 JUMPI PUSH0 DUP1 REVERT JUMPDEST PUSH0 SWAP2 DUP3 MSTORE PUSH1 0x20 SWAP1 SWAP2 KECCAK256 ADD SLOAD PUSH1 0x1 PUSH1 0x1 PUSH1 0xA0 SHL SUB AND SWAP1 POP DUP2 JUMP JUMPDEST PUSH0 DUP1 SLOAD PUSH2 0x57C SWAP1 PUSH2 0x876 JUMP JUMPDEST DUP1 PUSH1 0x1F ADD PUSH1 0x20 DUP1 SWAP2 DIV MUL PUSH1 0x20 ADD PUSH1 0x40 MLOAD SWAP1 DUP2 ADD PUSH1 0x40 MSTORE DUP1 SWAP3 SWAP2 SWAP1 DUP2 DUP2 MSTORE PUSH1 0x20 ADD DUP3 DUP1 SLOAD PUSH2 0x5A8 SWAP1 PUSH2 0x876 JUMP JUMPDEST DUP1 ISZERO PUSH2 0x5F3 JUMPI DUP1 PUSH1 0x1F LT PUSH2 0x5CA JUMPI PUSH2 0x100 DUP1 DUP4 SLOAD DIV MUL DUP4 MSTORE SWAP2 PUSH1 0x20 ADD SWAP2 PUSH2 0x5F3 JUMP JUMPDEST DUP3 ADD SWAP2 SWAP1 PUSH0 MSTORE PUSH1 0x20 PUSH0 KECCAK256 SWAP1 JUMPDEST DUP2 SLOAD DUP2 MSTORE SWAP1 PUSH1 0x1 ADD SWAP1 PUSH1 0x20 ADD DUP1 DUP4 GT PUSH2 0x5D6 JUMPI DUP3 SWAP1 SUB PUSH1 0x1F AND DUP3 ADD SWAP2 JUMPDEST POP POP POP POP POP DUP2 JUMP JUMPDEST PUSH1 0x2 SLOAD PUSH1 0x1 PUSH1 0x1 PUSH1 0xA0 SHL SUB AND CALLER EQ PUSH2 0x641 JUMPI PUSH1 0x40 MLOAD PUSH3 0x461BCD PUSH1 0xE5 SHL DUP2 MSTORE PUSH1 0x20 PUSH1 0x4 DUP3 ADD MSTORE PUSH1 0x9 PUSH1 0x24 DUP3 ADD MSTORE PUSH9 0x2737BA1037BBB732B9 PUSH1 0xB9 SHL PUSH1 0x44 DUP3 ADD MSTORE PUSH1 0x64 ADD PUSH2 0x28E JUMP JUMPDEST PUSH1 0x5 SLOAD PUSH1 0xFF AND ISZERO PUSH2 0x684 JUMPI PUSH1 0x40 MLOAD PUSH3 0x461BCD PUSH1 0xE5 SHL DUP2 MSTORE PUSH1 0x20 PUSH1 0x4 DUP3 ADD MSTORE PUSH1 0xD PUSH1 0x24 DUP3 ADD MSTORE PUSH13 0x105B1C9958591E48195B991959 PUSH1 0x9A SHL PUSH1 0x44 DUP3 ADD MSTORE PUSH1 0x64 ADD PUSH2 0x28E JUMP JUMPDEST PUSH1 0x1 SLOAD TIMESTAMP LT ISZERO PUSH2 0x6CD JUMPI PUSH1 0x40 MLOAD PUSH3 0x461BCD PUSH1 0xE5 SHL DUP2 MSTORE PUSH1 0x20 PUSH1 0x4 DUP3 ADD MSTORE PUSH1 0x14 PUSH1 0x24 DUP3 ADD MSTORE PUSH20 0x105D58DD1A5BDB881B9BDD081BDD995C881E595D PUSH1 0x62 SHL PUSH1 0x44 DUP3 ADD MSTORE PUSH1 0x64 ADD PUSH2 0x28E JUMP JUMPDEST PUSH1 0x5 DUP1 SLOAD PUSH1 0xFF NOT AND PUSH1 0x1 OR SWAP1 SSTORE PUSH1 0x3 SLOAD PUSH1 0x1 PUSH1 0x1 PUSH1 0xA0 SHL SUB AND ISZERO PUSH2 0x770 JUMPI PUSH1 0x2 SLOAD PUSH1 0x4 SLOAD PUSH1 0x40 MLOAD PUSH1 0x1 PUSH1 0x1 PUSH1 0xA0 SHL SUB SWAP1 SWAP3 AND SWAP2 DUP2 ISZERO PUSH2 0x8FC MUL SWAP2 SWAP1 PUSH0 DUP2 DUP2 DUP2 DUP6 DUP9 DUP9 CALL SWAP4 POP POP POP POP ISZERO DUP1 ISZERO PUSH2 0x724 JUMPI RETURNDATASIZE PUSH0 DUP1 RETURNDATACOPY RETURNDATASIZE PUSH0 REVERT JUMPDEST POP PUSH1 0x3 SLOAD PUSH1 0x4 SLOAD PUSH1 0x40 DUP1 MLOAD PUSH1 0x1 PUSH1 0x1 PUSH1 0xA0 SHL SUB SWAP1 SWAP4 AND DUP4 MSTORE PUSH1 0x20 DUP4 ADD SWAP2 SWAP1 SWAP2 MSTORE PUSH32 0xDAEC4582D5D9595688C8C98545FDD1C696D41C6AEAEB636737E84ED2F5C00EDA SWAP2 ADD PUSH1 0x40 MLOAD DUP1 SWAP2 SUB SWAP1 LOG1 JUMPDEST JUMP JUMPDEST PUSH0 PUSH1 0x20 DUP3 DUP5 SUB SLT ISZERO PUSH2 0x782 JUMPI PUSH0 DUP1 REVERT JUMPDEST DUP2 CALLDATALOAD PUSH1 0x1 PUSH1 0x1 PUSH1 0xA0 SHL SUB DUP2 AND DUP2 EQ PUSH2 0x798 JUMPI PUSH0 DUP1 REVERT JUMPDEST SWAP4 SWAP3 POP POP POP JUMP JUMPDEST PUSH1 0x20 DUP1 DUP3 MSTORE DUP3 MLOAD DUP3 DUP3 ADD DUP2 SWAP1 MSTORE PUSH0 SWAP2 DUP5 ADD SWAP1 PUSH1 0x40 DUP5 ADD SWAP1 DUP4 JUMPDEST DUP2 DUP2 LT ISZERO PUSH2 0x7DF JUMPI DUP4 MLOAD PUSH1 0x1 PUSH1 0x1 PUSH1 0xA0 SHL SUB AND DUP4 MSTORE PUSH1 0x20 SWAP4 DUP5 ADD SWAP4 SWAP1 SWAP3 ADD SWAP2 PUSH1 0x1 ADD PUSH2 0x7B8 JUMP JUMPDEST POP SWAP1 SWAP6 SWAP5 POP POP POP POP POP JUMP JUMPDEST PUSH0 PUSH1 0x20 DUP3 DUP5 SUB SLT ISZERO PUSH2 0x7FA JUMPI PUSH0 DUP1 REVERT JUMPDEST POP CALLDATALOAD SWAP2 SWAP1 POP JUMP JUMPDEST PUSH1 0x20 DUP2 MSTORE PUSH0 DUP3 MLOAD DUP1 PUSH1 0x20 DUP5 ADD MSTORE DUP1 PUSH1 0x20 DUP6 ADD PUSH1 0x40 DUP6 ADD MCOPY PUSH0 PUSH1 0x40 DUP3 DUP6 ADD ADD MSTORE PUSH1 0x40 PUSH1 0x1F NOT PUSH1 0x1F DUP4 ADD AND DUP5 ADD ADD SWAP2 POP POP SWAP3 SWAP2 POP POP JUMP JUMPDEST PUSH4 0x4E487B71 PUSH1 0xE0 SHL PUSH0 MSTORE PUSH1 0x11 PUSH1 0x4 MSTORE PUSH1 0x24 PUSH0 REVERT JUMPDEST DUP1 DUP3 ADD DUP1 DUP3 GT ISZERO PUSH2 0x85D JUMPI PUSH2 0x85D PUSH2 0x836 JUMP JUMPDEST SWAP3 SWAP2 POP POP JUMP JUMPDEST DUP2 DUP2 SUB DUP2 DUP2 GT ISZERO PUSH2 0x85D JUMPI PUSH2 0x85D PUSH2 0x836 JUMP JUMPDEST PUSH1 0x1 DUP2 DUP2 SHR SWAP1 DUP3 AND DUP1 PUSH2 0x88A JUMPI PUSH1 0x7F DUP3 AND SWAP2 POP JUMPDEST PUSH1 0x20 DUP3 LT DUP2 SUB PUSH2 0x8A8 JUMPI PUSH4 0x4E487B71 PUSH1 0xE0 SHL PUSH0 MSTORE PUSH1 0x22 PUSH1 0x4 MSTORE PUSH1 0x24 PUSH0 REVERT JUMPDEST POP SWAP2 SWAP1 POP JUMP INVALID LOG2 PUSH5 0x6970667358 0x22 SLT KECCAK256 RETURN 0xCE 0xAF DUP5 0xDD CODESIZE 0x2F 0x2B SGT 0xC0 SMOD 0xC 0x28 PUSH32 0x375FFBD85F593DB9AC1CEBC2AEB750371CC564736F6C634300081A0033A26469 PUSH17 0x667358221220DFCDCAE8706A0C6A6F52CE PUSH11 0xBB881478339EF3CF1EA3BD 0x27 0xAC DUP5 PUSH9 0x1E661FEB2D64736F6C PUSH4 0x4300081A STOP CALLER "
				},
				"gasEstimates": {
					"creation": {
						"codeDepositCost": "1064000",
						"executionCost": "25340",
						"totalCost": "1089340"
					},
					"external": {
						"auctions(uint256)": "4633",
						"auctionsCount()": "2344",
						"deleteAuction(uint256)": "86000",
						"deployAll(uint256)": "infinite",
						"deploySingle(string)": "infinite",
						"get(uint256)": "6737",
						"getAll()": "infinite",
						"owner()": "2403"
					},
					"internal": {
						"uint2str(uint256)": "infinite"
					}
				},
				"methodIdentifiers": {
					"auctions(uint256)": "571a26a0",
					"auctionsCount()": "b830620a",
					"deleteAuction(uint256)": "7a32f291",
					"deployAll(uint256)": "b3ef8e16",
					"deploySingle(string)": "b78d8dd5",
					"get(uint256)": "9507d39a",
					"getAll()": "53ed5143",
					"owner()": "8da5cb5b"
				}
			},
			"storageLayout": {
				"storage": [
					{
						"astId": 259,
						"contract": "auctionbatchnew.sol:BatchDeployAuction",
						"label": "auctions",
						"offset": 0,
						"slot": "0",
						"type": "t_array(t_contract(Auction)255)dyn_storage"
					},
					{
						"astId": 261,
						"contract": "auctionbatchnew.sol:BatchDeployAuction",
						"label": "owner",
						"offset": 0,
						"slot": "1",
						"type": "t_address"
					}
				],
				"types": {
					"t_address": {
						"encoding": "inplace",
						"label": "address",
						"numberOfBytes": "20"
					},
					"t_array(t_contract(Auction)255)dyn_storage": {
						"base": "t_contract(Auction)255",
						"encoding": "dynamic_array",
						"label": "contract Auction[]",
						"numberOfBytes": "32"
					},
					"t_contract(Auction)255": {
						"encoding": "inplace",
						"label": "contract Auction",
						"numberOfBytes": "20"
					}
				}
			},
			"userdoc": {
				"kind": "user",
				"methods": {},
				"version": 1
			}
		}
	}
}