{
	"contract.sol": {
		"BatchDeployCrowdfund": {
			"abi": [
				{
					"inputs": [
						{
							"internalType": "uint256",
							"name": "",
							"type": "uint256"
						}
					],
					"name": "campaigns",
					"outputs": [
						{
							"internalType": "contract Crowdfund",
							"name": "",
							"type": "address"
						}
					],
					"stateMutability": "view",
					"type": "function"
				},
				{
					"inputs": [],
					"name": "campaignsCount",
					"outputs": [
						{
							"internalType": "uint256",
							"name": "",
							"type": "uint256"
						}
					],
					"stateMutability": "view",
					"type": "function"
				},
				{
					"inputs": [],
					"name": "deployAll",
					"outputs": [],
					"stateMutability": "nonpayable",
					"type": "function"
				},
				{
					"inputs": [
						{
							"internalType": "string",
							"name": "_title",
							"type": "string"
						},
						{
							"internalType": "uint256",
							"name": "_goal",
							"type": "uint256"
						},
						{
							"internalType": "uint256",
							"name": "_days",
							"type": "uint256"
						}
					],
					"name": "deploySingle",
					"outputs": [],
					"stateMutability": "nonpayable",
					"type": "function"
				},
				{
					"inputs": [
						{
							"internalType": "uint256",
							"name": "index",
							"type": "uint256"
						}
					],
					"name": "get",
					"outputs": [
						{
							"internalType": "address",
							"name": "",
							"type": "address"
						}
					],
					"stateMutability": "view",
					"type": "function"
				}
			],
			"devdoc": {
				"kind": "dev",
				"methods": {},
				"version": 1
			},
			"evm": {
				"assembly": "    /* \"contract.sol\":2102:3338  contract BatchDeployCrowdfund {... */\n  mstore(0x40, 0x80)\n  callvalue\n  dup1\n  iszero\n  tag_1\n  jumpi\n  0x00\n  dup1\n  revert\ntag_1:\n  pop\n  dataSize(sub_0)\n  dup1\n  dataOffset(sub_0)\n  0x00\n  codecopy\n  0x00\n  return\nstop\n\nsub_0: assembly {\n        /* \"contract.sol\":2102:3338  contract BatchDeployCrowdfund {... */\n      mstore(0x40, 0x80)\n      callvalue\n      dup1\n      iszero\n      tag_1\n      jumpi\n      0x00\n      dup1\n      revert\n    tag_1:\n      pop\n      jumpi(tag_2, lt(calldatasize, 0x04))\n      shr(0xe0, calldataload(0x00))\n      dup1\n      0x141961bc\n      eq\n      tag_3\n      jumpi\n      dup1\n      0x2d823335\n      eq\n      tag_4\n      jumpi\n      dup1\n      0x431ec44b\n      eq\n      tag_5\n      jumpi\n      dup1\n      0x44c89b65\n      eq\n      tag_6\n      jumpi\n      dup1\n      0x9507d39a\n      eq\n      tag_7\n      jumpi\n    tag_2:\n      0x00\n      dup1\n      revert\n        /* \"contract.sol\":2138:2166  Crowdfund[] public campaigns */\n    tag_3:\n      tag_8\n      tag_9\n      calldatasize\n      0x04\n      tag_10\n      jump\t// in\n    tag_9:\n      tag_11\n      jump\t// in\n    tag_8:\n      mload(0x40)\n      sub(shl(0xa0, 0x01), 0x01)\n        /* \"#utility.yul\":434:466   */\n      swap1\n      swap2\n      and\n        /* \"#utility.yul\":416:467   */\n      dup2\n      mstore\n        /* \"#utility.yul\":404:406   */\n      0x20\n        /* \"#utility.yul\":389:407   */\n      add\n        /* \"contract.sol\":2138:2166  Crowdfund[] public campaigns */\n    tag_12:\n      mload(0x40)\n      dup1\n      swap2\n      sub\n      swap1\n      return\n        /* \"contract.sol\":2173:2548  function deployAll() public {... */\n    tag_4:\n      tag_14\n      tag_15\n      jump\t// in\n    tag_14:\n      stop\n        /* \"contract.sol\":2554:2722  function deploySingle(string memory _title, uint _goal, uint _days) public {... */\n    tag_5:\n      tag_14\n      tag_17\n      calldatasize\n      0x04\n      tag_18\n      jump\t// in\n    tag_17:\n      tag_19\n      jump\t// in\n        /* \"contract.sol\":2838:2931  function campaignsCount() public view returns (uint) {... */\n    tag_6:\n        /* \"contract.sol\":2885:2889  uint */\n      0x00\n        /* \"contract.sol\":2908:2924  campaigns.length */\n      sload\n        /* \"contract.sol\":2838:2931  function campaignsCount() public view returns (uint) {... */\n      mload(0x40)\n        /* \"#utility.yul\":1950:1975   */\n      swap1\n      dup2\n      mstore\n        /* \"#utility.yul\":1938:1940   */\n      0x20\n        /* \"#utility.yul\":1923:1941   */\n      add\n        /* \"contract.sol\":2838:2931  function campaignsCount() public view returns (uint) {... */\n      tag_12\n        /* \"#utility.yul\":1804:1981   */\n      jump\n        /* \"contract.sol\":2728:2832  function get(uint index) public view returns (address) {... */\n    tag_7:\n      tag_8\n      tag_25\n      calldatasize\n      0x04\n      tag_10\n      jump\t// in\n    tag_25:\n      tag_26\n      jump\t// in\n        /* \"contract.sol\":2138:2166  Crowdfund[] public campaigns */\n    tag_11:\n      0x00\n      dup2\n      dup2\n      sload\n      dup2\n      lt\n      tag_29\n      jumpi\n      0x00\n      dup1\n      revert\n    tag_29:\n      0x00\n      swap2\n      dup3\n      mstore\n      0x20\n      swap1\n      swap2\n      keccak256\n      add\n      sload\n      sub(shl(0xa0, 0x01), 0x01)\n      and\n      swap1\n      pop\n      dup2\n      jump\t// out\n        /* \"contract.sol\":2173:2548  function deployAll() public {... */\n    tag_15:\n        /* \"contract.sol\":2219:2228  campaigns */\n      0x00\n        /* \"contract.sol\":2219:2235  campaigns.length */\n      sload\n        /* \"contract.sol\":2219:2240  campaigns.length == 0 */\n      iszero\n        /* \"contract.sol\":2211:2261  require(campaigns.length == 0, \"Already deployed\") */\n      tag_32\n      jumpi\n      mload(0x40)\n      shl(0xe5, 0x461bcd)\n      dup2\n      mstore\n        /* \"#utility.yul\":2396:2398   */\n      0x20\n        /* \"contract.sol\":2211:2261  require(campaigns.length == 0, \"Already deployed\") */\n      0x04\n      dup3\n      add\n        /* \"#utility.yul\":2378:2399   */\n      mstore\n        /* \"#utility.yul\":2435:2437   */\n      0x10\n        /* \"#utility.yul\":2415:2433   */\n      0x24\n      dup3\n      add\n        /* \"#utility.yul\":2408:2438   */\n      mstore\n      shl(0x82, 0x105b1c9958591e4819195c1b1bde5959)\n        /* \"#utility.yul\":2454:2472   */\n      0x44\n      dup3\n      add\n        /* \"#utility.yul\":2447:2493   */\n      mstore\n        /* \"#utility.yul\":2510:2528   */\n      0x64\n      add\n        /* \"contract.sol\":2211:2261  require(campaigns.length == 0, \"Already deployed\") */\n      mload(0x40)\n      dup1\n      swap2\n      sub\n      swap1\n      revert\n    tag_32:\n        /* \"contract.sol\":2285:2286  1 */\n      0x01\n        /* \"contract.sol\":2271:2542  for (uint i = 1; i <= 35; i++) {... */\n    tag_35:\n        /* \"contract.sol\":2293:2295  35 */\n      0x23\n        /* \"contract.sol\":2288:2289  i */\n      dup2\n        /* \"contract.sol\":2288:2295  i <= 35 */\n      gt\n        /* \"contract.sol\":2271:2542  for (uint i = 1; i <= 35; i++) {... */\n      tag_36\n      jumpi\n        /* \"contract.sol\":2316:2334  string memory name */\n      0x00\n        /* \"contract.sol\":2373:2384  uint2str(i) */\n      tag_38\n        /* \"contract.sol\":2382:2383  i */\n      dup3\n        /* \"contract.sol\":2373:2381  uint2str */\n      tag_39\n        /* \"contract.sol\":2373:2384  uint2str(i) */\n      jump\t// in\n    tag_38:\n        /* \"contract.sol\":2344:2385  abi.encodePacked(\"Campaign\", uint2str(i)) */\n      add(0x20, mload(0x40))\n      tag_40\n      swap2\n      swap1\n      tag_41\n      jump\t// in\n    tag_40:\n      0x40\n      dup1\n      mload\n      not(0x1f)\n      dup2\n      dup5\n      sub\n      add\n      dup2\n      mstore\n      swap2\n      swap1\n      mstore\n      swap1\n      pop\n        /* \"contract.sol\":2400:2409  uint goal */\n      0x00\n        /* \"contract.sol\":2412:2423  i * 1 ether */\n      tag_42\n        /* \"contract.sol\":2412:2413  i */\n      dup4\n        /* \"contract.sol\":2416:2423  1 ether */\n      0x0de0b6b3a7640000\n        /* \"contract.sol\":2412:2423  i * 1 ether */\n      tag_43\n      jump\t// in\n    tag_42:\n        /* \"contract.sol\":2400:2423  uint goal = i * 1 ether */\n      swap1\n      pop\n        /* \"contract.sol\":2437:2448  Crowdfund c */\n      0x00\n        /* \"contract.sol\":2465:2469  name */\n      dup3\n        /* \"contract.sol\":2471:2475  goal */\n      dup3\n        /* \"contract.sol\":2477:2479  10 */\n      0x0a\n        /* \"contract.sol\":2451:2480  new Crowdfund(name, goal, 10) */\n      mload(0x40)\n      tag_44\n      swap1\n      tag_45\n      jump\t// in\n    tag_44:\n      tag_46\n      swap4\n      swap3\n      swap2\n      swap1\n      tag_47\n      jump\t// in\n    tag_46:\n      mload(0x40)\n      dup1\n      swap2\n      sub\n      swap1\n      0x00\n      create\n      dup1\n      iszero\n      dup1\n      iszero\n      tag_48\n      jumpi\n      returndatasize\n      0x00\n      dup1\n      returndatacopy\n      revert(0x00, returndatasize)\n    tag_48:\n      pop\n        /* \"contract.sol\":2514:2523  campaigns */\n      0x00\n        /* \"contract.sol\":2514:2531  campaigns.push(c) */\n      dup1\n      sload\n      0x01\n      dup2\n      add\n      dup3\n      sstore\n      swap1\n      dup1\n      mstore\n      0x290decd9548b62a8d60345a988386fc84ba6bc95484008f6362f93160ef3e563\n      add\n      dup1\n      sload\n      not(sub(shl(0xa0, 0x01), 0x01))\n      and\n      sub(shl(0xa0, 0x01), 0x01)\n      swap3\n      swap1\n      swap3\n      and\n      swap2\n      swap1\n      swap2\n      or\n      swap1\n      sstore\n      pop\n        /* \"contract.sol\":2297:2300  i++ */\n      dup3\n      swap2\n      pop\n      tag_50\n      swap1\n      pop\n      dup2\n      tag_51\n      jump\t// in\n    tag_50:\n      swap2\n      pop\n      pop\n        /* \"contract.sol\":2271:2542  for (uint i = 1; i <= 35; i++) {... */\n      jump(tag_35)\n    tag_36:\n      pop\n        /* \"contract.sol\":2173:2548  function deployAll() public {... */\n      jump\t// out\n        /* \"contract.sol\":2554:2722  function deploySingle(string memory _title, uint _goal, uint _days) public {... */\n    tag_19:\n        /* \"contract.sol\":2639:2650  Crowdfund c */\n      0x00\n        /* \"contract.sol\":2667:2673  _title */\n      dup4\n        /* \"contract.sol\":2675:2680  _goal */\n      dup4\n        /* \"contract.sol\":2682:2687  _days */\n      dup4\n        /* \"contract.sol\":2653:2688  new Crowdfund(_title, _goal, _days) */\n      mload(0x40)\n      tag_53\n      swap1\n      tag_45\n      jump\t// in\n    tag_53:\n      tag_54\n      swap4\n      swap3\n      swap2\n      swap1\n      tag_47\n      jump\t// in\n    tag_54:\n      mload(0x40)\n      dup1\n      swap2\n      sub\n      swap1\n      0x00\n      create\n      dup1\n      iszero\n      dup1\n      iszero\n      tag_56\n      jumpi\n      returndatasize\n      0x00\n      dup1\n      returndatacopy\n      revert(0x00, returndatasize)\n    tag_56:\n      pop\n        /* \"contract.sol\":2698:2707  campaigns */\n      0x00\n        /* \"contract.sol\":2698:2715  campaigns.push(c) */\n      dup1\n      sload\n      0x01\n      dup2\n      add\n      dup3\n      sstore\n      swap1\n      dup1\n      mstore\n      0x290decd9548b62a8d60345a988386fc84ba6bc95484008f6362f93160ef3e563\n      add\n      dup1\n      sload\n      not(sub(shl(0xa0, 0x01), 0x01))\n      and\n      sub(shl(0xa0, 0x01), 0x01)\n      swap3\n      swap1\n      swap3\n      and\n      swap2\n      swap1\n      swap2\n      or\n      swap1\n      sstore\n      pop\n      pop\n      pop\n      pop\n        /* \"contract.sol\":2554:2722  function deploySingle(string memory _title, uint _goal, uint _days) public {... */\n      jump\t// out\n        /* \"contract.sol\":2728:2832  function get(uint index) public view returns (address) {... */\n    tag_26:\n        /* \"contract.sol\":2774:2781  address */\n      0x00\n        /* \"contract.sol\":2808:2817  campaigns */\n      dup1\n        /* \"contract.sol\":2818:2823  index */\n      dup3\n        /* \"contract.sol\":2808:2824  campaigns[index] */\n      dup2\n      sload\n      dup2\n      lt\n      tag_61\n      jumpi\n      tag_61\n      tag_62\n      jump\t// in\n    tag_61:\n      0x00\n      swap2\n      dup3\n      mstore\n      0x20\n      swap1\n      swap2\n      keccak256\n      add\n      sload\n      sub(shl(0xa0, 0x01), 0x01)\n      and\n      swap3\n        /* \"contract.sol\":2728:2832  function get(uint index) public view returns (address) {... */\n      swap2\n      pop\n      pop\n      jump\t// out\n        /* \"contract.sol\":2937:3336  function uint2str(uint _i) internal pure returns (string memory str) {... */\n    tag_39:\n        /* \"contract.sol\":2987:3004  string memory str */\n      0x60\n        /* \"contract.sol\":3020:3022  _i */\n      dup2\n        /* \"contract.sol\":3026:3027  0 */\n      0x00\n        /* \"contract.sol\":3020:3027  _i == 0 */\n      sub\n        /* \"contract.sol\":3016:3039  if (_i == 0) return \"0\" */\n      tag_65\n      jumpi\n      pop\n      pop\n        /* \"contract.sol\":3029:3039  return \"0\" */\n      0x40\n      dup1\n      mload\n      dup1\n      dup3\n      add\n      swap1\n      swap2\n      mstore\n      0x01\n      dup2\n      mstore\n      shl(0xfc, 0x03)\n      0x20\n      dup3\n      add\n      mstore\n      swap1\n        /* \"contract.sol\":2937:3336  function uint2str(uint _i) internal pure returns (string memory str) {... */\n      jump\t// out\n        /* \"contract.sol\":3016:3039  if (_i == 0) return \"0\" */\n    tag_65:\n        /* \"contract.sol\":3058:3060  _i */\n      dup2\n        /* \"contract.sol\":3049:3055  uint j */\n      0x00\n        /* \"contract.sol\":3088:3122  while (j != 0) { len++; j /= 10; } */\n    tag_66:\n        /* \"contract.sol\":3095:3101  j != 0 */\n      dup2\n      iszero\n        /* \"contract.sol\":3088:3122  while (j != 0) { len++; j /= 10; } */\n      tag_67\n      jumpi\n        /* \"contract.sol\":3105:3110  len++ */\n      dup1\n      tag_68\n      dup2\n      tag_51\n      jump\t// in\n    tag_68:\n      swap2\n      pop\n        /* \"contract.sol\":3112:3119  j /= 10 */\n      tag_69\n      swap1\n      pop\n        /* \"contract.sol\":3117:3119  10 */\n      0x0a\n        /* \"contract.sol\":3112:3119  j /= 10 */\n      dup4\n      tag_70\n      jump\t// in\n    tag_69:\n      swap2\n      pop\n        /* \"contract.sol\":3088:3122  while (j != 0) { len++; j /= 10; } */\n      jump(tag_66)\n    tag_67:\n        /* \"contract.sol\":3131:3148  bytes memory bstr */\n      0x00\n        /* \"contract.sol\":3161:3164  len */\n      dup2\n        /* \"contract.sol\":3151:3165  new bytes(len) */\n      0xffffffffffffffff\n      dup2\n      gt\n      iszero\n      tag_72\n      jumpi\n      tag_72\n      tag_73\n      jump\t// in\n    tag_72:\n      mload(0x40)\n      swap1\n      dup1\n      dup3\n      mstore\n      dup1\n      0x1f\n      add\n      not(0x1f)\n      and\n      0x20\n      add\n      dup3\n      add\n      0x40\n      mstore\n      dup1\n      iszero\n      tag_74\n      jumpi\n      0x20\n      dup3\n      add\n      dup2\n      dup1\n      calldatasize\n      dup4\n      calldatacopy\n      add\n      swap1\n      pop\n    tag_74:\n      pop\n        /* \"contract.sol\":3131:3165  bytes memory bstr = new bytes(len) */\n      swap1\n      pop\n        /* \"contract.sol\":3184:3187  len */\n      dup2\n        /* \"contract.sol\":3197:3302  while (_i != 0) { k--;... */\n    tag_75:\n        /* \"contract.sol\":3204:3211  _i != 0 */\n      dup6\n      iszero\n        /* \"contract.sol\":3197:3302  while (_i != 0) { k--;... */\n      tag_76\n      jumpi\n        /* \"contract.sol\":3215:3218  k-- */\n      dup1\n      tag_77\n      dup2\n      tag_78\n      jump\t// in\n    tag_77:\n      swap2\n      pop\n        /* \"contract.sol\":3260:3267  _i % 10 */\n      tag_79\n      swap1\n      pop\n        /* \"contract.sol\":3265:3267  10 */\n      0x0a\n        /* \"contract.sol\":3260:3262  _i */\n      dup8\n        /* \"contract.sol\":3260:3267  _i % 10 */\n      tag_80\n      jump\t// in\n    tag_79:\n        /* \"contract.sol\":3255:3267  48 + _i % 10 */\n      tag_81\n      swap1\n        /* \"contract.sol\":3255:3257  48 */\n      0x30\n        /* \"contract.sol\":3255:3267  48 + _i % 10 */\n      tag_82\n      jump\t// in\n    tag_81:\n        /* \"contract.sol\":3242:3269  bytes1(uint8(48 + _i % 10)) */\n      0xf8\n      shl\n        /* \"contract.sol\":3232:3236  bstr */\n      dup3\n        /* \"contract.sol\":3237:3238  k */\n      dup3\n        /* \"contract.sol\":3232:3239  bstr[k] */\n      dup2\n      mload\n      dup2\n      lt\n      tag_84\n      jumpi\n      tag_84\n      tag_62\n      jump\t// in\n    tag_84:\n      0x20\n      add\n      add\n        /* \"contract.sol\":3232:3269  bstr[k] = bytes1(uint8(48 + _i % 10)) */\n      swap1\n      not(sub(shl(0xf8, 0x01), 0x01))\n      and\n      swap1\n      dup2\n      0x00\n      byte\n      swap1\n      mstore8\n      pop\n        /* \"contract.sol\":3283:3291  _i /= 10 */\n      tag_85\n        /* \"contract.sol\":3289:3291  10 */\n      0x0a\n        /* \"contract.sol\":3283:3291  _i /= 10 */\n      dup8\n      tag_70\n      jump\t// in\n    tag_85:\n      swap6\n      pop\n        /* \"contract.sol\":3197:3302  while (_i != 0) { k--;... */\n      jump(tag_75)\n    tag_76:\n      pop\n        /* \"contract.sol\":3324:3328  bstr */\n      swap5\n        /* \"contract.sol\":2937:3336  function uint2str(uint _i) internal pure returns (string memory str) {... */\n      swap4\n      pop\n      pop\n      pop\n      pop\n      jump\t// out\n    tag_45:\n      dataSize(sub_0)\n      dup1\n      dataOffset(sub_0)\n      dup4\n      codecopy\n      add\n      swap1\n      jump\t// out\n        /* \"#utility.yul\":14:240   */\n    tag_10:\n        /* \"#utility.yul\":73:79   */\n      0x00\n        /* \"#utility.yul\":126:128   */\n      0x20\n        /* \"#utility.yul\":114:123   */\n      dup3\n        /* \"#utility.yul\":105:112   */\n      dup5\n        /* \"#utility.yul\":101:124   */\n      sub\n        /* \"#utility.yul\":97:129   */\n      slt\n        /* \"#utility.yul\":94:146   */\n      iszero\n      tag_91\n      jumpi\n        /* \"#utility.yul\":142:143   */\n      0x00\n        /* \"#utility.yul\":139:140   */\n      dup1\n        /* \"#utility.yul\":132:144   */\n      revert\n        /* \"#utility.yul\":94:146   */\n    tag_91:\n      pop\n        /* \"#utility.yul\":187:210   */\n      calldataload\n      swap2\n        /* \"#utility.yul\":14:240   */\n      swap1\n      pop\n      jump\t// out\n        /* \"#utility.yul\":478:605   */\n    tag_73:\n        /* \"#utility.yul\":539:549   */\n      0x4e487b71\n        /* \"#utility.yul\":534:537   */\n      0xe0\n        /* \"#utility.yul\":530:550   */\n      shl\n        /* \"#utility.yul\":527:528   */\n      0x00\n        /* \"#utility.yul\":520:551   */\n      mstore\n        /* \"#utility.yul\":570:574   */\n      0x41\n        /* \"#utility.yul\":567:568   */\n      0x04\n        /* \"#utility.yul\":560:575   */\n      mstore\n        /* \"#utility.yul\":594:598   */\n      0x24\n        /* \"#utility.yul\":591:592   */\n      0x00\n        /* \"#utility.yul\":584:599   */\n      revert\n        /* \"#utility.yul\":610:1799   */\n    tag_18:\n        /* \"#utility.yul\":697:703   */\n      0x00\n        /* \"#utility.yul\":705:711   */\n      dup1\n        /* \"#utility.yul\":713:719   */\n      0x00\n        /* \"#utility.yul\":766:768   */\n      0x60\n        /* \"#utility.yul\":754:763   */\n      dup5\n        /* \"#utility.yul\":745:752   */\n      dup7\n        /* \"#utility.yul\":741:764   */\n      sub\n        /* \"#utility.yul\":737:769   */\n      slt\n        /* \"#utility.yul\":734:786   */\n      iszero\n      tag_95\n      jumpi\n        /* \"#utility.yul\":782:783   */\n      0x00\n        /* \"#utility.yul\":779:780   */\n      dup1\n        /* \"#utility.yul\":772:784   */\n      revert\n        /* \"#utility.yul\":734:786   */\n    tag_95:\n        /* \"#utility.yul\":822:831   */\n      dup4\n        /* \"#utility.yul\":809:832   */\n      calldataload\n        /* \"#utility.yul\":855:873   */\n      0xffffffffffffffff\n        /* \"#utility.yul\":847:853   */\n      dup2\n        /* \"#utility.yul\":844:874   */\n      gt\n        /* \"#utility.yul\":841:891   */\n      iszero\n      tag_96\n      jumpi\n        /* \"#utility.yul\":887:888   */\n      0x00\n        /* \"#utility.yul\":884:885   */\n      dup1\n        /* \"#utility.yul\":877:889   */\n      revert\n        /* \"#utility.yul\":841:891   */\n    tag_96:\n        /* \"#utility.yul\":910:932   */\n      dup5\n      add\n        /* \"#utility.yul\":963:967   */\n      0x1f\n        /* \"#utility.yul\":955:968   */\n      dup2\n      add\n        /* \"#utility.yul\":951:978   */\n      dup7\n      sgt\n        /* \"#utility.yul\":941:996   */\n      tag_97\n      jumpi\n        /* \"#utility.yul\":992:993   */\n      0x00\n        /* \"#utility.yul\":989:990   */\n      dup1\n        /* \"#utility.yul\":982:994   */\n      revert\n        /* \"#utility.yul\":941:996   */\n    tag_97:\n        /* \"#utility.yul\":1032:1034   */\n      dup1\n        /* \"#utility.yul\":1019:1035   */\n      calldataload\n        /* \"#utility.yul\":1058:1076   */\n      0xffffffffffffffff\n        /* \"#utility.yul\":1050:1056   */\n      dup2\n        /* \"#utility.yul\":1047:1077   */\n      gt\n        /* \"#utility.yul\":1044:1100   */\n      iszero\n      tag_99\n      jumpi\n        /* \"#utility.yul\":1080:1098   */\n      tag_99\n      tag_73\n      jump\t// in\n    tag_99:\n        /* \"#utility.yul\":1129:1131   */\n      0x40\n        /* \"#utility.yul\":1123:1132   */\n      mload\n        /* \"#utility.yul\":1221:1223   */\n      0x1f\n        /* \"#utility.yul\":1183:1200   */\n      dup3\n      add\n      not(0x1f)\n        /* \"#utility.yul\":1179:1210   */\n      swap1\n      dup2\n      and\n        /* \"#utility.yul\":1212:1214   */\n      0x3f\n        /* \"#utility.yul\":1175:1215   */\n      add\n        /* \"#utility.yul\":1171:1225   */\n      and\n        /* \"#utility.yul\":1159:1226   */\n      dup2\n      add\n        /* \"#utility.yul\":1256:1274   */\n      0xffffffffffffffff\n        /* \"#utility.yul\":1241:1275   */\n      dup2\n      gt\n        /* \"#utility.yul\":1277:1299   */\n      dup3\n      dup3\n      lt\n        /* \"#utility.yul\":1238:1300   */\n      or\n        /* \"#utility.yul\":1235:1323   */\n      iszero\n      tag_101\n      jumpi\n        /* \"#utility.yul\":1303:1321   */\n      tag_101\n      tag_73\n      jump\t// in\n    tag_101:\n        /* \"#utility.yul\":1339:1341   */\n      0x40\n        /* \"#utility.yul\":1332:1354   */\n      mstore\n        /* \"#utility.yul\":1363:1385   */\n      dup2\n      dup2\n      mstore\n        /* \"#utility.yul\":1404:1419   */\n      dup3\n      dup3\n      add\n        /* \"#utility.yul\":1421:1425   */\n      0x20\n        /* \"#utility.yul\":1400:1426   */\n      add\n        /* \"#utility.yul\":1397:1436   */\n      dup9\n      lt\n        /* \"#utility.yul\":1394:1453   */\n      iszero\n      tag_102\n      jumpi\n        /* \"#utility.yul\":1449:1450   */\n      0x00\n        /* \"#utility.yul\":1446:1447   */\n      dup1\n        /* \"#utility.yul\":1439:1451   */\n      revert\n        /* \"#utility.yul\":1394:1453   */\n    tag_102:\n        /* \"#utility.yul\":1509:1515   */\n      dup2\n        /* \"#utility.yul\":1502:1506   */\n      0x20\n        /* \"#utility.yul\":1498:1500   */\n      dup5\n        /* \"#utility.yul\":1494:1507   */\n      add\n        /* \"#utility.yul\":1487:1491   */\n      0x20\n        /* \"#utility.yul\":1479:1485   */\n      dup4\n        /* \"#utility.yul\":1475:1492   */\n      add\n        /* \"#utility.yul\":1462:1516   */\n      calldatacopy\n        /* \"#utility.yul\":1564:1565   */\n      0x00\n        /* \"#utility.yul\":1557:1561   */\n      0x20\n        /* \"#utility.yul\":1536:1555   */\n      swap3\n      dup3\n      add\n        /* \"#utility.yul\":1532:1562   */\n      dup4\n      add\n        /* \"#utility.yul\":1525:1566   */\n      mstore\n        /* \"#utility.yul\":1536:1555   */\n      swap8\n        /* \"#utility.yul\":1645:1665   */\n      swap1\n      dup7\n      add\n        /* \"#utility.yul\":1632:1666   */\n      calldataload\n      swap7\n      pop\n        /* \"#utility.yul\":1763:1765   */\n      0x40\n        /* \"#utility.yul\":1748:1766   */\n      swap1\n      swap6\n      add\n        /* \"#utility.yul\":1735:1767   */\n      calldataload\n      swap5\n        /* \"#utility.yul\":1540:1546   */\n      swap4\n      pop\n      pop\n      pop\n      pop\n        /* \"#utility.yul\":610:1799   */\n      jump\t// out\n        /* \"#utility.yul\":2539:2991   */\n    tag_41:\n      shl(0xc1, 0x21b0b6b830b4b3b7)\n        /* \"#utility.yul\":2796:2799   */\n      dup2\n        /* \"#utility.yul\":2789:2812   */\n      mstore\n        /* \"#utility.yul\":2771:2774   */\n      0x00\n        /* \"#utility.yul\":2841:2847   */\n      dup3\n        /* \"#utility.yul\":2835:2848   */\n      mload\n        /* \"#utility.yul\":2895:2901   */\n      dup1\n        /* \"#utility.yul\":2888:2892   */\n      0x20\n        /* \"#utility.yul\":2880:2886   */\n      dup6\n        /* \"#utility.yul\":2876:2893   */\n      add\n        /* \"#utility.yul\":2872:2873   */\n      0x08\n        /* \"#utility.yul\":2867:2870   */\n      dup6\n        /* \"#utility.yul\":2863:2874   */\n      add\n        /* \"#utility.yul\":2857:2902   */\n      mcopy\n        /* \"#utility.yul\":2965:2966   */\n      0x00\n        /* \"#utility.yul\":2925:2941   */\n      swap3\n      add\n        /* \"#utility.yul\":2943:2944   */\n      0x08\n        /* \"#utility.yul\":2921:2945   */\n      add\n        /* \"#utility.yul\":2954:2967   */\n      swap2\n      dup3\n      mstore\n      pop\n        /* \"#utility.yul\":2921:2945   */\n      swap2\n        /* \"#utility.yul\":2539:2991   */\n      swap1\n      pop\n      jump\t// out\n        /* \"#utility.yul\":2996:3123   */\n    tag_86:\n        /* \"#utility.yul\":3057:3067   */\n      0x4e487b71\n        /* \"#utility.yul\":3052:3055   */\n      0xe0\n        /* \"#utility.yul\":3048:3068   */\n      shl\n        /* \"#utility.yul\":3045:3046   */\n      0x00\n        /* \"#utility.yul\":3038:3069   */\n      mstore\n        /* \"#utility.yul\":3088:3092   */\n      0x11\n        /* \"#utility.yul\":3085:3086   */\n      0x04\n        /* \"#utility.yul\":3078:3093   */\n      mstore\n        /* \"#utility.yul\":3112:3116   */\n      0x24\n        /* \"#utility.yul\":3109:3110   */\n      0x00\n        /* \"#utility.yul\":3102:3117   */\n      revert\n        /* \"#utility.yul\":3128:3296   */\n    tag_43:\n        /* \"#utility.yul\":3201:3210   */\n      dup1\n      dup3\n      mul\n        /* \"#utility.yul\":3232:3241   */\n      dup2\n      iszero\n        /* \"#utility.yul\":3249:3264   */\n      dup3\n      dup3\n      div\n        /* \"#utility.yul\":3243:3265   */\n      dup5\n      eq\n        /* \"#utility.yul\":3229:3266   */\n      or\n        /* \"#utility.yul\":3219:3290   */\n      tag_110\n      jumpi\n        /* \"#utility.yul\":3270:3288   */\n      tag_110\n      tag_86\n      jump\t// in\n    tag_110:\n        /* \"#utility.yul\":3128:3296   */\n      swap3\n      swap2\n      pop\n      pop\n      jump\t// out\n        /* \"#utility.yul\":3301:3590   */\n    tag_87:\n        /* \"#utility.yul\":3343:3346   */\n      0x00\n        /* \"#utility.yul\":3381:3386   */\n      dup2\n        /* \"#utility.yul\":3375:3387   */\n      mload\n        /* \"#utility.yul\":3408:3414   */\n      dup1\n        /* \"#utility.yul\":3403:3406   */\n      dup5\n        /* \"#utility.yul\":3396:3415   */\n      mstore\n        /* \"#utility.yul\":3464:3470   */\n      dup1\n        /* \"#utility.yul\":3457:3461   */\n      0x20\n        /* \"#utility.yul\":3450:3455   */\n      dup5\n        /* \"#utility.yul\":3446:3462   */\n      add\n        /* \"#utility.yul\":3439:3443   */\n      0x20\n        /* \"#utility.yul\":3434:3437   */\n      dup7\n        /* \"#utility.yul\":3430:3444   */\n      add\n        /* \"#utility.yul\":3424:3471   */\n      mcopy\n        /* \"#utility.yul\":3516:3517   */\n      0x00\n        /* \"#utility.yul\":3509:3513   */\n      0x20\n        /* \"#utility.yul\":3500:3506   */\n      dup3\n        /* \"#utility.yul\":3495:3498   */\n      dup7\n        /* \"#utility.yul\":3491:3507   */\n      add\n        /* \"#utility.yul\":3487:3514   */\n      add\n        /* \"#utility.yul\":3480:3518   */\n      mstore\n        /* \"#utility.yul\":3579:3583   */\n      0x20\n        /* \"#utility.yul\":3572:3574   */\n      0x1f\n        /* \"#utility.yul\":3568:3575   */\n      not\n        /* \"#utility.yul\":3563:3565   */\n      0x1f\n        /* \"#utility.yul\":3555:3561   */\n      dup4\n        /* \"#utility.yul\":3551:3566   */\n      add\n        /* \"#utility.yul\":3547:3576   */\n      and\n        /* \"#utility.yul\":3542:3545   */\n      dup6\n        /* \"#utility.yul\":3538:3577   */\n      add\n        /* \"#utility.yul\":3534:3584   */\n      add\n        /* \"#utility.yul\":3527:3584   */\n      swap2\n      pop\n      pop\n        /* \"#utility.yul\":3301:3590   */\n      swap3\n      swap2\n      pop\n      pop\n      jump\t// out\n        /* \"#utility.yul\":3595:3966   */\n    tag_47:\n        /* \"#utility.yul\":3809:3811   */\n      0x60\n        /* \"#utility.yul\":3798:3807   */\n      dup2\n        /* \"#utility.yul\":3791:3812   */\n      mstore\n        /* \"#utility.yul\":3772:3776   */\n      0x00\n        /* \"#utility.yul\":3829:3874   */\n      tag_113\n        /* \"#utility.yul\":3870:3872   */\n      0x60\n        /* \"#utility.yul\":3859:3868   */\n      dup4\n        /* \"#utility.yul\":3855:3873   */\n      add\n        /* \"#utility.yul\":3847:3853   */\n      dup7\n        /* \"#utility.yul\":3829:3874   */\n      tag_87\n      jump\t// in\n    tag_113:\n        /* \"#utility.yul\":3905:3907   */\n      0x20\n        /* \"#utility.yul\":3890:3908   */\n      dup4\n      add\n        /* \"#utility.yul\":3883:3917   */\n      swap5\n      swap1\n      swap5\n      mstore\n      pop\n        /* \"#utility.yul\":3948:3950   */\n      0x40\n        /* \"#utility.yul\":3933:3951   */\n      add\n        /* \"#utility.yul\":3926:3960   */\n      mstore\n        /* \"#utility.yul\":3821:3874   */\n      swap2\n        /* \"#utility.yul\":3595:3966   */\n      swap1\n      pop\n      jump\t// out\n        /* \"#utility.yul\":3971:4106   */\n    tag_51:\n        /* \"#utility.yul\":4010:4013   */\n      0x00\n        /* \"#utility.yul\":4031:4048   */\n      0x01\n      dup3\n      add\n        /* \"#utility.yul\":4028:4071   */\n      tag_116\n      jumpi\n        /* \"#utility.yul\":4051:4069   */\n      tag_116\n      tag_86\n      jump\t// in\n    tag_116:\n      pop\n        /* \"#utility.yul\":4098:4099   */\n      0x01\n        /* \"#utility.yul\":4087:4100   */\n      add\n      swap1\n        /* \"#utility.yul\":3971:4106   */\n      jump\t// out\n        /* \"#utility.yul\":4478:4605   */\n    tag_62:\n        /* \"#utility.yul\":4539:4549   */\n      0x4e487b71\n        /* \"#utility.yul\":4534:4537   */\n      0xe0\n        /* \"#utility.yul\":4530:4550   */\n      shl\n        /* \"#utility.yul\":4527:4528   */\n      0x00\n        /* \"#utility.yul\":4520:4551   */\n      mstore\n        /* \"#utility.yul\":4570:4574   */\n      0x32\n        /* \"#utility.yul\":4567:4568   */\n      0x04\n        /* \"#utility.yul\":4560:4575   */\n      mstore\n        /* \"#utility.yul\":4594:4598   */\n      0x24\n        /* \"#utility.yul\":4591:4592   */\n      0x00\n        /* \"#utility.yul\":4584:4599   */\n      revert\n        /* \"#utility.yul\":4610:4737   */\n    tag_88:\n        /* \"#utility.yul\":4671:4681   */\n      0x4e487b71\n        /* \"#utility.yul\":4666:4669   */\n      0xe0\n        /* \"#utility.yul\":4662:4682   */\n      shl\n        /* \"#utility.yul\":4659:4660   */\n      0x00\n        /* \"#utility.yul\":4652:4683   */\n      mstore\n        /* \"#utility.yul\":4702:4706   */\n      0x12\n        /* \"#utility.yul\":4699:4700   */\n      0x04\n        /* \"#utility.yul\":4692:4707   */\n      mstore\n        /* \"#utility.yul\":4726:4730   */\n      0x24\n        /* \"#utility.yul\":4723:4724   */\n      0x00\n        /* \"#utility.yul\":4716:4731   */\n      revert\n        /* \"#utility.yul\":4742:4862   */\n    tag_70:\n        /* \"#utility.yul\":4782:4783   */\n      0x00\n        /* \"#utility.yul\":4808:4809   */\n      dup3\n        /* \"#utility.yul\":4798:4833   */\n      tag_123\n      jumpi\n        /* \"#utility.yul\":4813:4831   */\n      tag_123\n      tag_88\n      jump\t// in\n    tag_123:\n      pop\n        /* \"#utility.yul\":4847:4856   */\n      div\n      swap1\n        /* \"#utility.yul\":4742:4862   */\n      jump\t// out\n        /* \"#utility.yul\":4867:5003   */\n    tag_78:\n        /* \"#utility.yul\":4906:4909   */\n      0x00\n        /* \"#utility.yul\":4934:4939   */\n      dup2\n        /* \"#utility.yul\":4924:4963   */\n      tag_126\n      jumpi\n        /* \"#utility.yul\":4943:4961   */\n      tag_126\n      tag_86\n      jump\t// in\n    tag_126:\n      pop\n      not(0x00)\n        /* \"#utility.yul\":4979:4997   */\n      add\n      swap1\n        /* \"#utility.yul\":4867:5003   */\n      jump\t// out\n        /* \"#utility.yul\":5008:5120   */\n    tag_80:\n        /* \"#utility.yul\":5040:5041   */\n      0x00\n        /* \"#utility.yul\":5066:5067   */\n      dup3\n        /* \"#utility.yul\":5056:5091   */\n      tag_129\n      jumpi\n        /* \"#utility.yul\":5071:5089   */\n      tag_129\n      tag_88\n      jump\t// in\n    tag_129:\n      pop\n        /* \"#utility.yul\":5105:5114   */\n      mod\n      swap1\n        /* \"#utility.yul\":5008:5120   */\n      jump\t// out\n        /* \"#utility.yul\":5125:5250   */\n    tag_82:\n        /* \"#utility.yul\":5190:5199   */\n      dup1\n      dup3\n      add\n        /* \"#utility.yul\":5211:5221   */\n      dup1\n      dup3\n      gt\n        /* \"#utility.yul\":5208:5244   */\n      iszero\n      tag_110\n      jumpi\n        /* \"#utility.yul\":5224:5242   */\n      tag_110\n      tag_86\n      jump\t// in\n    stop\n\n    sub_0: assembly {\n            /* \"contract.sol\":58:2100  contract Crowdfund {... */\n          mstore(0x40, 0x80)\n            /* \"contract.sol\":488:700  constructor(string memory _title, uint _goal, uint _durationDays) {... */\n          callvalue\n          dup1\n          iszero\n          tag_1\n          jumpi\n          0x00\n          dup1\n          revert\n        tag_1:\n          pop\n          mload(0x40)\n          sub(codesize, bytecodeSize)\n          dup1\n          bytecodeSize\n          dup4\n          codecopy\n          dup2\n          add\n          0x40\n          dup2\n          swap1\n          mstore\n          tag_2\n          swap2\n          tag_3\n          jump\t// in\n        tag_2:\n            /* \"contract.sol\":564:569  title */\n          0x00\n            /* \"contract.sol\":564:578  title = _title */\n          tag_6\n            /* \"contract.sol\":572:578  _title */\n          dup5\n            /* \"contract.sol\":564:569  title */\n          dup3\n            /* \"contract.sol\":564:578  title = _title */\n          tag_7\n          jump\t// in\n        tag_6:\n          pop\n            /* \"contract.sol\":588:592  goal */\n          0x02\n            /* \"contract.sol\":588:600  goal = _goal */\n          dup3\n          swap1\n          sstore\n            /* \"contract.sol\":610:617  creator */\n          0x01\n            /* \"contract.sol\":610:630  creator = msg.sender */\n          dup1\n          sload\n          not(sub(shl(0xa0, 0x01), 0x01))\n          and\n            /* \"contract.sol\":620:630  msg.sender */\n          caller\n            /* \"contract.sol\":610:630  creator = msg.sender */\n          or\n          swap1\n          sstore\n            /* \"contract.sol\":670:692  _durationDays * 1 days */\n          tag_8\n            /* \"contract.sol\":670:683  _durationDays */\n          dup2\n            /* \"contract.sol\":686:692  1 days */\n          0x015180\n            /* \"contract.sol\":670:692  _durationDays * 1 days */\n          tag_9\n          jump\t// in\n        tag_8:\n            /* \"contract.sol\":651:693  block.timestamp + (_durationDays * 1 days) */\n          tag_10\n          swap1\n            /* \"contract.sol\":651:666  block.timestamp */\n          timestamp\n            /* \"contract.sol\":651:693  block.timestamp + (_durationDays * 1 days) */\n          tag_11\n          jump\t// in\n        tag_10:\n            /* \"contract.sol\":640:648  deadline */\n          0x04\n            /* \"contract.sol\":640:693  deadline = block.timestamp + (_durationDays * 1 days) */\n          sstore\n          pop\n            /* \"contract.sol\":58:2100  contract Crowdfund {... */\n          tag_19\n          swap2\n          pop\n          pop\n          jump\n            /* \"#utility.yul\":14:141   */\n        tag_13:\n            /* \"#utility.yul\":75:85   */\n          0x4e487b71\n            /* \"#utility.yul\":70:73   */\n          0xe0\n            /* \"#utility.yul\":66:86   */\n          shl\n            /* \"#utility.yul\":63:64   */\n          0x00\n            /* \"#utility.yul\":56:87   */\n          mstore\n            /* \"#utility.yul\":106:110   */\n          0x41\n            /* \"#utility.yul\":103:104   */\n          0x04\n            /* \"#utility.yul\":96:111   */\n          mstore\n            /* \"#utility.yul\":130:134   */\n          0x24\n            /* \"#utility.yul\":127:128   */\n          0x00\n            /* \"#utility.yul\":120:135   */\n          revert\n            /* \"#utility.yul\":146:1311   */\n        tag_3:\n            /* \"#utility.yul\":244:250   */\n          0x00\n            /* \"#utility.yul\":252:258   */\n          dup1\n            /* \"#utility.yul\":260:266   */\n          0x00\n            /* \"#utility.yul\":313:315   */\n          0x60\n            /* \"#utility.yul\":301:310   */\n          dup5\n            /* \"#utility.yul\":292:299   */\n          dup7\n            /* \"#utility.yul\":288:311   */\n          sub\n            /* \"#utility.yul\":284:316   */\n          slt\n            /* \"#utility.yul\":281:333   */\n          iszero\n          tag_22\n          jumpi\n            /* \"#utility.yul\":329:330   */\n          0x00\n            /* \"#utility.yul\":326:327   */\n          dup1\n            /* \"#utility.yul\":319:331   */\n          revert\n            /* \"#utility.yul\":281:333   */\n        tag_22:\n            /* \"#utility.yul\":356:372   */\n          dup4\n          mload\n          sub(shl(0x40, 0x01), 0x01)\n            /* \"#utility.yul\":384:414   */\n          dup2\n          gt\n            /* \"#utility.yul\":381:431   */\n          iszero\n          tag_23\n          jumpi\n            /* \"#utility.yul\":427:428   */\n          0x00\n            /* \"#utility.yul\":424:425   */\n          dup1\n            /* \"#utility.yul\":417:429   */\n          revert\n            /* \"#utility.yul\":381:431   */\n        tag_23:\n            /* \"#utility.yul\":450:472   */\n          dup5\n          add\n            /* \"#utility.yul\":503:507   */\n          0x1f\n            /* \"#utility.yul\":495:508   */\n          dup2\n          add\n            /* \"#utility.yul\":491:518   */\n          dup7\n          sgt\n            /* \"#utility.yul\":481:536   */\n          tag_24\n          jumpi\n            /* \"#utility.yul\":532:533   */\n          0x00\n            /* \"#utility.yul\":529:530   */\n          dup1\n            /* \"#utility.yul\":522:534   */\n          revert\n            /* \"#utility.yul\":481:536   */\n        tag_24:\n            /* \"#utility.yul\":559:568   */\n          dup1\n          mload\n          sub(shl(0x40, 0x01), 0x01)\n            /* \"#utility.yul\":580:610   */\n          dup2\n          gt\n            /* \"#utility.yul\":577:633   */\n          iszero\n          tag_26\n          jumpi\n            /* \"#utility.yul\":613:631   */\n          tag_26\n          tag_13\n          jump\t// in\n        tag_26:\n            /* \"#utility.yul\":662:664   */\n          0x40\n            /* \"#utility.yul\":656:665   */\n          mload\n            /* \"#utility.yul\":754:756   */\n          0x1f\n            /* \"#utility.yul\":716:733   */\n          dup3\n          add\n          not(0x1f)\n            /* \"#utility.yul\":712:743   */\n          swap1\n          dup2\n          and\n            /* \"#utility.yul\":745:747   */\n          0x3f\n            /* \"#utility.yul\":708:748   */\n          add\n            /* \"#utility.yul\":704:758   */\n          and\n            /* \"#utility.yul\":692:759   */\n          dup2\n          add\n          sub(shl(0x40, 0x01), 0x01)\n            /* \"#utility.yul\":774:808   */\n          dup2\n          gt\n            /* \"#utility.yul\":810:832   */\n          dup3\n          dup3\n          lt\n            /* \"#utility.yul\":771:833   */\n          or\n            /* \"#utility.yul\":768:856   */\n          iszero\n          tag_28\n          jumpi\n            /* \"#utility.yul\":836:854   */\n          tag_28\n          tag_13\n          jump\t// in\n        tag_28:\n            /* \"#utility.yul\":872:874   */\n          0x40\n            /* \"#utility.yul\":865:887   */\n          mstore\n            /* \"#utility.yul\":896:918   */\n          dup2\n          dup2\n          mstore\n            /* \"#utility.yul\":937:952   */\n          dup3\n          dup3\n          add\n            /* \"#utility.yul\":954:958   */\n          0x20\n            /* \"#utility.yul\":933:959   */\n          add\n            /* \"#utility.yul\":930:969   */\n          dup9\n          lt\n            /* \"#utility.yul\":927:986   */\n          iszero\n          tag_29\n          jumpi\n            /* \"#utility.yul\":982:983   */\n          0x00\n            /* \"#utility.yul\":979:980   */\n          dup1\n            /* \"#utility.yul\":972:984   */\n          revert\n            /* \"#utility.yul\":927:986   */\n        tag_29:\n            /* \"#utility.yul\":1035:1041   */\n          dup2\n            /* \"#utility.yul\":1028:1032   */\n          0x20\n            /* \"#utility.yul\":1024:1026   */\n          dup5\n            /* \"#utility.yul\":1020:1033   */\n          add\n            /* \"#utility.yul\":1013:1017   */\n          0x20\n            /* \"#utility.yul\":1005:1011   */\n          dup4\n            /* \"#utility.yul\":1001:1018   */\n          add\n            /* \"#utility.yul\":995:1042   */\n          mcopy\n            /* \"#utility.yul\":1090:1091   */\n          0x00\n            /* \"#utility.yul\":1083:1087   */\n          0x20\n            /* \"#utility.yul\":1062:1081   */\n          swap3\n          dup3\n          add\n            /* \"#utility.yul\":1058:1088   */\n          dup4\n          add\n            /* \"#utility.yul\":1051:1092   */\n          mstore\n            /* \"#utility.yul\":1164:1184   */\n          swap1\n          dup7\n          add\n            /* \"#utility.yul\":1158:1185   */\n          mload\n            /* \"#utility.yul\":1275:1277   */\n          0x40\n            /* \"#utility.yul\":1260:1278   */\n          swap1\n          swap7\n          add\n            /* \"#utility.yul\":1254:1279   */\n          mload\n            /* \"#utility.yul\":1062:1081   */\n          swap1\n          swap8\n            /* \"#utility.yul\":1158:1185   */\n          swap6\n          swap7\n          pop\n            /* \"#utility.yul\":1254:1279   */\n          swap5\n            /* \"#utility.yul\":1066:1072   */\n          swap4\n          pop\n          pop\n          pop\n          pop\n            /* \"#utility.yul\":146:1311   */\n          jump\t// out\n            /* \"#utility.yul\":1316:1696   */\n        tag_14:\n            /* \"#utility.yul\":1395:1396   */\n          0x01\n            /* \"#utility.yul\":1391:1403   */\n          dup2\n          dup2\n          shr\n          swap1\n            /* \"#utility.yul\":1438:1450   */\n          dup3\n          and\n          dup1\n            /* \"#utility.yul\":1459:1520   */\n          tag_31\n          jumpi\n            /* \"#utility.yul\":1513:1517   */\n          0x7f\n            /* \"#utility.yul\":1505:1511   */\n          dup3\n            /* \"#utility.yul\":1501:1518   */\n          and\n            /* \"#utility.yul\":1491:1518   */\n          swap2\n          pop\n            /* \"#utility.yul\":1459:1520   */\n        tag_31:\n            /* \"#utility.yul\":1566:1568   */\n          0x20\n            /* \"#utility.yul\":1558:1564   */\n          dup3\n            /* \"#utility.yul\":1555:1569   */\n          lt\n            /* \"#utility.yul\":1535:1553   */\n          dup2\n            /* \"#utility.yul\":1532:1570   */\n          sub\n            /* \"#utility.yul\":1529:1690   */\n          tag_32\n          jumpi\n            /* \"#utility.yul\":1612:1622   */\n          0x4e487b71\n            /* \"#utility.yul\":1607:1610   */\n          0xe0\n            /* \"#utility.yul\":1603:1623   */\n          shl\n            /* \"#utility.yul\":1600:1601   */\n          0x00\n            /* \"#utility.yul\":1593:1624   */\n          mstore\n            /* \"#utility.yul\":1647:1651   */\n          0x22\n            /* \"#utility.yul\":1644:1645   */\n          0x04\n            /* \"#utility.yul\":1637:1652   */\n          mstore\n            /* \"#utility.yul\":1675:1679   */\n          0x24\n            /* \"#utility.yul\":1672:1673   */\n          0x00\n            /* \"#utility.yul\":1665:1680   */\n          revert\n            /* \"#utility.yul\":1529:1690   */\n        tag_32:\n          pop\n            /* \"#utility.yul\":1316:1696   */\n          swap2\n          swap1\n          pop\n          jump\t// out\n            /* \"#utility.yul\":1827:2345   */\n        tag_16:\n            /* \"#utility.yul\":1929:1931   */\n          0x1f\n            /* \"#utility.yul\":1924:1927   */\n          dup3\n            /* \"#utility.yul\":1921:1932   */\n          gt\n            /* \"#utility.yul\":1918:2339   */\n          iszero\n          tag_35\n          jumpi\n            /* \"#utility.yul\":1965:1970   */\n          dup1\n            /* \"#utility.yul\":1962:1963   */\n          0x00\n            /* \"#utility.yul\":1955:1971   */\n          mstore\n            /* \"#utility.yul\":2009:2013   */\n          0x20\n            /* \"#utility.yul\":2006:2007   */\n          0x00\n            /* \"#utility.yul\":1996:2014   */\n          keccak256\n            /* \"#utility.yul\":2079:2081   */\n          0x1f\n            /* \"#utility.yul\":2067:2077   */\n          dup5\n            /* \"#utility.yul\":2063:2082   */\n          add\n            /* \"#utility.yul\":2060:2061   */\n          0x05\n            /* \"#utility.yul\":2056:2083   */\n          shr\n            /* \"#utility.yul\":2050:2054   */\n          dup2\n            /* \"#utility.yul\":2046:2084   */\n          add\n            /* \"#utility.yul\":2115:2119   */\n          0x20\n            /* \"#utility.yul\":2103:2113   */\n          dup6\n            /* \"#utility.yul\":2100:2120   */\n          lt\n            /* \"#utility.yul\":2097:2144   */\n          iszero\n          tag_36\n          jumpi\n          pop\n            /* \"#utility.yul\":2138:2142   */\n          dup1\n            /* \"#utility.yul\":2097:2144   */\n        tag_36:\n            /* \"#utility.yul\":2193:2195   */\n          0x1f\n            /* \"#utility.yul\":2188:2191   */\n          dup5\n            /* \"#utility.yul\":2184:2196   */\n          add\n            /* \"#utility.yul\":2181:2182   */\n          0x05\n            /* \"#utility.yul\":2177:2197   */\n          shr\n            /* \"#utility.yul\":2171:2175   */\n          dup3\n            /* \"#utility.yul\":2167:2198   */\n          add\n            /* \"#utility.yul\":2157:2198   */\n          swap2\n          pop\n            /* \"#utility.yul\":2248:2329   */\n        tag_37:\n            /* \"#utility.yul\":2266:2268   */\n          dup2\n            /* \"#utility.yul\":2259:2264   */\n          dup2\n            /* \"#utility.yul\":2256:2269   */\n          lt\n            /* \"#utility.yul\":2248:2329   */\n          iszero\n          tag_39\n          jumpi\n            /* \"#utility.yul\":2325:2326   */\n          0x00\n            /* \"#utility.yul\":2311:2327   */\n          dup2\n          sstore\n            /* \"#utility.yul\":2292:2293   */\n          0x01\n            /* \"#utility.yul\":2281:2294   */\n          add\n            /* \"#utility.yul\":2248:2329   */\n          jump(tag_37)\n        tag_39:\n            /* \"#utility.yul\":2252:2255   */\n          pop\n          pop\n            /* \"#utility.yul\":1918:2339   */\n        tag_35:\n            /* \"#utility.yul\":1827:2345   */\n          pop\n          pop\n          pop\n          jump\t// out\n            /* \"#utility.yul\":2521:3820   */\n        tag_7:\n            /* \"#utility.yul\":2641:2651   */\n          dup2\n          mload\n          sub(shl(0x40, 0x01), 0x01)\n            /* \"#utility.yul\":2663:2693   */\n          dup2\n          gt\n            /* \"#utility.yul\":2660:2716   */\n          iszero\n          tag_43\n          jumpi\n            /* \"#utility.yul\":2696:2714   */\n          tag_43\n          tag_13\n          jump\t// in\n        tag_43:\n            /* \"#utility.yul\":2725:2822   */\n          tag_44\n            /* \"#utility.yul\":2815:2821   */\n          dup2\n            /* \"#utility.yul\":2775:2813   */\n          tag_45\n            /* \"#utility.yul\":2807:2811   */\n          dup5\n            /* \"#utility.yul\":2801:2812   */\n          sload\n            /* \"#utility.yul\":2775:2813   */\n          tag_14\n          jump\t// in\n        tag_45:\n            /* \"#utility.yul\":2769:2773   */\n          dup5\n            /* \"#utility.yul\":2725:2822   */\n          tag_16\n          jump\t// in\n        tag_44:\n            /* \"#utility.yul\":2871:2875   */\n          0x20\n            /* \"#utility.yul\":2902:2904   */\n          0x1f\n            /* \"#utility.yul\":2891:2905   */\n          dup3\n          gt\n            /* \"#utility.yul\":2919:2920   */\n          0x01\n            /* \"#utility.yul\":2914:3563   */\n          dup2\n          eq\n          tag_47\n          jumpi\n            /* \"#utility.yul\":3607:3608   */\n          0x00\n            /* \"#utility.yul\":3624:3630   */\n          dup4\n            /* \"#utility.yul\":3621:3710   */\n          iszero\n          tag_48\n          jumpi\n          pop\n            /* \"#utility.yul\":3676:3695   */\n          dup5\n          dup3\n          add\n            /* \"#utility.yul\":3670:3696   */\n          mload\n            /* \"#utility.yul\":3621:3710   */\n        tag_48:\n          not(0x00)\n            /* \"#utility.yul\":2478:2479   */\n          0x03\n            /* \"#utility.yul\":2474:2485   */\n          dup6\n          swap1\n          shl\n            /* \"#utility.yul\":2470:2494   */\n          shr\n            /* \"#utility.yul\":2466:2495   */\n          not\n            /* \"#utility.yul\":2456:2496   */\n          and\n            /* \"#utility.yul\":2502:2503   */\n          0x01\n            /* \"#utility.yul\":2498:2509   */\n          dup5\n          swap1\n          shl\n            /* \"#utility.yul\":2453:2510   */\n          or\n            /* \"#utility.yul\":3723:3804   */\n          dup5\n          sstore\n            /* \"#utility.yul\":2884:3814   */\n          jump(tag_39)\n            /* \"#utility.yul\":2914:3563   */\n        tag_47:\n            /* \"#utility.yul\":1774:1775   */\n          0x00\n            /* \"#utility.yul\":1767:1781   */\n          dup5\n          dup2\n          mstore\n            /* \"#utility.yul\":1811:1815   */\n          0x20\n            /* \"#utility.yul\":1798:1816   */\n          dup2\n          keccak256\n          not(0x1f)\n            /* \"#utility.yul\":2950:2970   */\n          dup6\n          and\n          swap2\n            /* \"#utility.yul\":3068:3290   */\n        tag_51:\n            /* \"#utility.yul\":3082:3089   */\n          dup3\n            /* \"#utility.yul\":3079:3080   */\n          dup2\n            /* \"#utility.yul\":3076:3090   */\n          lt\n            /* \"#utility.yul\":3068:3290   */\n          iszero\n          tag_53\n          jumpi\n            /* \"#utility.yul\":3164:3183   */\n          dup8\n          dup6\n          add\n            /* \"#utility.yul\":3158:3184   */\n          mload\n            /* \"#utility.yul\":3143:3185   */\n          dup3\n          sstore\n            /* \"#utility.yul\":3271:3275   */\n          0x20\n            /* \"#utility.yul\":3256:3276   */\n          swap5\n          dup6\n          add\n          swap5\n            /* \"#utility.yul\":3224:3225   */\n          0x01\n            /* \"#utility.yul\":3212:3226   */\n          swap1\n          swap3\n          add\n          swap2\n            /* \"#utility.yul\":3098:3110   */\n          add\n            /* \"#utility.yul\":3068:3290   */\n          jump(tag_51)\n        tag_53:\n            /* \"#utility.yul\":3072:3075   */\n          pop\n            /* \"#utility.yul\":3318:3324   */\n          dup5\n            /* \"#utility.yul\":3309:3316   */\n          dup3\n            /* \"#utility.yul\":3306:3325   */\n          lt\n            /* \"#utility.yul\":3303:3504   */\n          iszero\n          tag_54\n          jumpi\n            /* \"#utility.yul\":3379:3398   */\n          dup7\n          dup5\n          add\n            /* \"#utility.yul\":3373:3399   */\n          mload\n          not(0x00)\n            /* \"#utility.yul\":3462:3463   */\n          0x03\n            /* \"#utility.yul\":3458:3472   */\n          dup8\n          swap1\n          shl\n            /* \"#utility.yul\":3474:3477   */\n          0xf8\n            /* \"#utility.yul\":3454:3478   */\n          and\n            /* \"#utility.yul\":3450:3487   */\n          shr\n            /* \"#utility.yul\":3446:3488   */\n          not\n            /* \"#utility.yul\":3431:3489   */\n          and\n            /* \"#utility.yul\":3416:3490   */\n          dup2\n          sstore\n            /* \"#utility.yul\":3303:3504   */\n        tag_54:\n          pop\n          pop\n          pop\n          pop\n            /* \"#utility.yul\":3550:3551   */\n          0x01\n            /* \"#utility.yul\":3534:3548   */\n          swap1\n          dup2\n          shl\n            /* \"#utility.yul\":3530:3552   */\n          add\n            /* \"#utility.yul\":3517:3553   */\n          swap1\n          sstore\n          pop\n            /* \"#utility.yul\":2521:3820   */\n          jump\t// out\n            /* \"#utility.yul\":3825:3952   */\n        tag_18:\n            /* \"#utility.yul\":3886:3896   */\n          0x4e487b71\n            /* \"#utility.yul\":3881:3884   */\n          0xe0\n            /* \"#utility.yul\":3877:3897   */\n          shl\n            /* \"#utility.yul\":3874:3875   */\n          0x00\n            /* \"#utility.yul\":3867:3898   */\n          mstore\n            /* \"#utility.yul\":3917:3921   */\n          0x11\n            /* \"#utility.yul\":3914:3915   */\n          0x04\n            /* \"#utility.yul\":3907:3922   */\n          mstore\n            /* \"#utility.yul\":3941:3945   */\n          0x24\n            /* \"#utility.yul\":3938:3939   */\n          0x00\n            /* \"#utility.yul\":3931:3946   */\n          revert\n            /* \"#utility.yul\":3957:4125   */\n        tag_9:\n            /* \"#utility.yul\":4030:4039   */\n          dup1\n          dup3\n          mul\n            /* \"#utility.yul\":4061:4070   */\n          dup2\n          iszero\n            /* \"#utility.yul\":4078:4093   */\n          dup3\n          dup3\n          div\n            /* \"#utility.yul\":4072:4094   */\n          dup5\n          eq\n            /* \"#utility.yul\":4058:4095   */\n          or\n            /* \"#utility.yul\":4048:4119   */\n          tag_58\n          jumpi\n            /* \"#utility.yul\":4099:4117   */\n          tag_58\n          tag_18\n          jump\t// in\n        tag_58:\n            /* \"#utility.yul\":3957:4125   */\n          swap3\n          swap2\n          pop\n          pop\n          jump\t// out\n            /* \"#utility.yul\":4130:4255   */\n        tag_11:\n            /* \"#utility.yul\":4195:4204   */\n          dup1\n          dup3\n          add\n            /* \"#utility.yul\":4216:4226   */\n          dup1\n          dup3\n          gt\n            /* \"#utility.yul\":4213:4249   */\n          iszero\n          tag_58\n          jumpi\n            /* \"#utility.yul\":4229:4247   */\n          tag_58\n          tag_18\n          jump\t// in\n            /* \"#utility.yul\":4130:4255   */\n        tag_19:\n            /* \"contract.sol\":58:2100  contract Crowdfund {... */\n          dataSize(sub_0)\n          dup1\n          dataOffset(sub_0)\n          0x00\n          codecopy\n          0x00\n          return\n        stop\n\n        sub_0: assembly {\n                /* \"contract.sol\":58:2100  contract Crowdfund {... */\n              mstore(0x40, 0x80)\n              jumpi(tag_1, lt(calldatasize, 0x04))\n              shr(0xe0, calldataload(0x00))\n              dup1\n              0x4a79d50c\n              gt\n              tag_14\n              jumpi\n              dup1\n              0x4a79d50c\n              eq\n              tag_8\n              jumpi\n              dup1\n              0x590e1ae3\n              eq\n              tag_9\n              jumpi\n              dup1\n              0x5a9b0b89\n              eq\n              tag_10\n              jumpi\n              dup1\n              0xc80ec522\n              eq\n              tag_11\n              jumpi\n              dup1\n              0xd7bb99ba\n              eq\n              tag_12\n              jumpi\n              dup1\n              0xf0ea4bfc\n              eq\n              tag_13\n              jumpi\n              0x00\n              dup1\n              revert\n            tag_14:\n              dup1\n              0x02d05d3f\n              eq\n              tag_3\n              jumpi\n              dup1\n              0x29dcb0cf\n              eq\n              tag_4\n              jumpi\n              dup1\n              0x3ccfd60b\n              eq\n              tag_5\n              jumpi\n              dup1\n              0x40193883\n              eq\n              tag_6\n              jumpi\n              dup1\n              0x42e94c90\n              eq\n              tag_7\n              jumpi\n              0x00\n              dup1\n              revert\n            tag_1:\n              jumpi(tag_2, calldatasize)\n                /* \"contract.sol\":743:755  contribute() */\n              tag_17\n                /* \"contract.sol\":743:753  contribute */\n              tag_18\n                /* \"contract.sol\":743:755  contribute() */\n              jump\t// in\n            tag_17:\n                /* \"contract.sol\":58:2100  contract Crowdfund {... */\n              stop\n            tag_2:\n              0x00\n              dup1\n              revert\n                /* \"contract.sol\":108:130  address public creator */\n            tag_3:\n              callvalue\n              dup1\n              iszero\n              tag_19\n              jumpi\n              0x00\n              dup1\n              revert\n            tag_19:\n              pop\n              sload(0x01)\n              tag_20\n              swap1\n              sub(shl(0xa0, 0x01), 0x01)\n              and\n              dup2\n              jump\n            tag_20:\n              mload(0x40)\n              sub(shl(0xa0, 0x01), 0x01)\n                /* \"#utility.yul\":178:210   */\n              swap1\n              swap2\n              and\n                /* \"#utility.yul\":160:211   */\n              dup2\n              mstore\n                /* \"#utility.yul\":148:150   */\n              0x20\n                /* \"#utility.yul\":133:151   */\n              add\n                /* \"contract.sol\":108:130  address public creator */\n            tag_22:\n              mload(0x40)\n              dup1\n              swap2\n              sub\n              swap1\n              return\n                /* \"contract.sol\":182:202  uint public deadline */\n            tag_4:\n              callvalue\n              dup1\n              iszero\n              tag_24\n              jumpi\n              0x00\n              dup1\n              revert\n            tag_24:\n              pop\n              tag_25\n              sload(0x04)\n              dup2\n              jump\n            tag_25:\n              mload(0x40)\n                /* \"#utility.yul\":368:393   */\n              swap1\n              dup2\n              mstore\n                /* \"#utility.yul\":356:358   */\n              0x20\n                /* \"#utility.yul\":341:359   */\n              add\n                /* \"contract.sol\":182:202  uint public deadline */\n              tag_22\n                /* \"#utility.yul\":222:399   */\n              jump\n                /* \"contract.sol\":1065:1413  function withdraw() public {... */\n            tag_5:\n              callvalue\n              dup1\n              iszero\n              tag_29\n              jumpi\n              0x00\n              dup1\n              revert\n            tag_29:\n              pop\n              tag_17\n              tag_31\n              jump\t// in\n                /* \"contract.sol\":136:152  uint public goal */\n            tag_6:\n              callvalue\n              dup1\n              iszero\n              tag_32\n              jumpi\n              0x00\n              dup1\n              revert\n            tag_32:\n              pop\n              tag_25\n              sload(0x02)\n              dup2\n              jump\n                /* \"contract.sol\":208:253  mapping(address => uint) public contributions */\n            tag_7:\n              callvalue\n              dup1\n              iszero\n              tag_36\n              jumpi\n              0x00\n              dup1\n              revert\n            tag_36:\n              pop\n              tag_25\n              tag_38\n              calldatasize\n              0x04\n              tag_39\n              jump\t// in\n            tag_38:\n              mstore(0x20, 0x05)\n              0x00\n              swap1\n              dup2\n              mstore\n              0x40\n              swap1\n              keccak256\n              sload\n              dup2\n              jump\n                /* \"contract.sol\":83:102  string public title */\n            tag_8:\n              callvalue\n              dup1\n              iszero\n              tag_42\n              jumpi\n              0x00\n              dup1\n              revert\n            tag_42:\n              pop\n              tag_43\n              tag_44\n              jump\t// in\n            tag_43:\n              mload(0x40)\n              tag_22\n              swap2\n              swap1\n              tag_46\n              jump\t// in\n                /* \"contract.sol\":1419:1824  function refund() public {... */\n            tag_9:\n              callvalue\n              dup1\n              iszero\n              tag_47\n              jumpi\n              0x00\n              dup1\n              revert\n            tag_47:\n              pop\n              tag_17\n              tag_49\n              jump\t// in\n                /* \"contract.sol\":1830:2098  function getInfo() public view returns (... */\n            tag_10:\n              callvalue\n              dup1\n              iszero\n              tag_50\n              jumpi\n              0x00\n              dup1\n              revert\n            tag_50:\n              pop\n              tag_51\n              tag_52\n              jump\t// in\n            tag_51:\n              mload(0x40)\n              tag_22\n              swap7\n              swap6\n              swap5\n              swap4\n              swap3\n              swap2\n              swap1\n              tag_54\n              jump\t// in\n                /* \"contract.sol\":259:280  bool public withdrawn */\n            tag_11:\n              callvalue\n              dup1\n              iszero\n              tag_55\n              jumpi\n              0x00\n              dup1\n              revert\n            tag_55:\n              pop\n              sload(0x06)\n              tag_56\n              swap1\n              0xff\n              and\n              dup2\n              jump\n            tag_56:\n              mload(0x40)\n                /* \"#utility.yul\":1999:2013   */\n              swap1\n              iszero\n                /* \"#utility.yul\":1992:2014   */\n              iszero\n                /* \"#utility.yul\":1974:2015   */\n              dup2\n              mstore\n                /* \"#utility.yul\":1962:1964   */\n              0x20\n                /* \"#utility.yul\":1947:1965   */\n              add\n                /* \"contract.sol\":259:280  bool public withdrawn */\n              tag_22\n                /* \"#utility.yul\":1834:2021   */\n              jump\n                /* \"contract.sol\":768:1059  function contribute() public payable {... */\n            tag_12:\n              tag_17\n              tag_18\n              jump\t// in\n                /* \"contract.sol\":158:176  uint public raised */\n            tag_13:\n              callvalue\n              dup1\n              iszero\n              tag_61\n              jumpi\n              0x00\n              dup1\n              revert\n            tag_61:\n              pop\n              tag_25\n              sload(0x03)\n              dup2\n              jump\n                /* \"contract.sol\":768:1059  function contribute() public payable {... */\n            tag_18:\n                /* \"contract.sol\":841:849  deadline */\n              sload(0x04)\n                /* \"contract.sol\":823:838  block.timestamp */\n              timestamp\n                /* \"contract.sol\":823:849  block.timestamp < deadline */\n              lt\n                /* \"contract.sol\":815:868  require(block.timestamp < deadline, \"Campaign ended\") */\n              tag_66\n              jumpi\n              mload(0x40)\n              shl(0xe5, 0x461bcd)\n              dup2\n              mstore\n                /* \"#utility.yul\":2228:2230   */\n              0x20\n                /* \"contract.sol\":815:868  require(block.timestamp < deadline, \"Campaign ended\") */\n              0x04\n              dup3\n              add\n                /* \"#utility.yul\":2210:2231   */\n              mstore\n                /* \"#utility.yul\":2267:2269   */\n              0x0e\n                /* \"#utility.yul\":2247:2265   */\n              0x24\n              dup3\n              add\n                /* \"#utility.yul\":2240:2270   */\n              mstore\n              shl(0x92, 0x10d85b5c185a59db88195b991959)\n                /* \"#utility.yul\":2286:2304   */\n              0x44\n              dup3\n              add\n                /* \"#utility.yul\":2279:2323   */\n              mstore\n                /* \"#utility.yul\":2340:2358   */\n              0x64\n              add\n                /* \"contract.sol\":815:868  require(block.timestamp < deadline, \"Campaign ended\") */\n            tag_67:\n              mload(0x40)\n              dup1\n              swap2\n              sub\n              swap1\n              revert\n            tag_66:\n                /* \"contract.sol\":898:899  0 */\n              0x00\n                /* \"contract.sol\":886:895  msg.value */\n              callvalue\n                /* \"contract.sol\":886:899  msg.value > 0 */\n              gt\n                /* \"contract.sol\":878:917  require(msg.value > 0, \"Must send ETH\") */\n              tag_69\n              jumpi\n              mload(0x40)\n              shl(0xe5, 0x461bcd)\n              dup2\n              mstore\n                /* \"#utility.yul\":2571:2573   */\n              0x20\n                /* \"contract.sol\":878:917  require(msg.value > 0, \"Must send ETH\") */\n              0x04\n              dup3\n              add\n                /* \"#utility.yul\":2553:2574   */\n              mstore\n                /* \"#utility.yul\":2610:2612   */\n              0x0d\n                /* \"#utility.yul\":2590:2608   */\n              0x24\n              dup3\n              add\n                /* \"#utility.yul\":2583:2613   */\n              mstore\n              shl(0x9b, 0x09aeae6e840e6cadcc8408aa89)\n                /* \"#utility.yul\":2629:2647   */\n              0x44\n              dup3\n              add\n                /* \"#utility.yul\":2622:2665   */\n              mstore\n                /* \"#utility.yul\":2682:2700   */\n              0x64\n              add\n                /* \"contract.sol\":878:917  require(msg.value > 0, \"Must send ETH\") */\n              tag_67\n                /* \"#utility.yul\":2369:2706   */\n              jump\n                /* \"contract.sol\":878:917  require(msg.value > 0, \"Must send ETH\") */\n            tag_69:\n                /* \"contract.sol\":941:951  msg.sender */\n              caller\n                /* \"contract.sol\":927:952  contributions[msg.sender] */\n              0x00\n              swap1\n              dup2\n              mstore\n                /* \"contract.sol\":927:940  contributions */\n              0x05\n                /* \"contract.sol\":927:952  contributions[msg.sender] */\n              0x20\n              mstore\n              0x40\n              dup2\n              keccak256\n                /* \"contract.sol\":927:965  contributions[msg.sender] += msg.value */\n              dup1\n              sload\n                /* \"contract.sol\":956:965  msg.value */\n              callvalue\n              swap3\n                /* \"contract.sol\":927:952  contributions[msg.sender] */\n              swap1\n                /* \"contract.sol\":927:965  contributions[msg.sender] += msg.value */\n              tag_72\n              swap1\n                /* \"contract.sol\":956:965  msg.value */\n              dup5\n              swap1\n                /* \"contract.sol\":927:965  contributions[msg.sender] += msg.value */\n              tag_73\n              jump\t// in\n            tag_72:\n              swap3\n              pop\n              pop\n              dup2\n              swap1\n              sstore\n              pop\n                /* \"contract.sol\":985:994  msg.value */\n              callvalue\n                /* \"contract.sol\":975:981  raised */\n              0x03\n              0x00\n                /* \"contract.sol\":975:994  raised += msg.value */\n              dup3\n              dup3\n              sload\n              tag_74\n              swap2\n              swap1\n              tag_73\n              jump\t// in\n            tag_74:\n              swap1\n              swap2\n              sstore\n              pop\n              pop\n                /* \"contract.sol\":1009:1052  ContributionReceived(msg.sender, msg.value) */\n              mload(0x40)\n                /* \"contract.sol\":1042:1051  msg.value */\n              callvalue\n                /* \"#utility.yul\":368:393   */\n              dup2\n              mstore\n                /* \"contract.sol\":1030:1040  msg.sender */\n              caller\n              swap1\n                /* \"contract.sol\":1009:1052  ContributionReceived(msg.sender, msg.value) */\n              0x1bb460ccaaf70fbacfec17a376f8acbd278c1405590ffcc8ebe4b88daf4f64ad\n              swap1\n                /* \"#utility.yul\":356:358   */\n              0x20\n                /* \"#utility.yul\":341:359   */\n              add\n                /* \"contract.sol\":1009:1052  ContributionReceived(msg.sender, msg.value) */\n              mload(0x40)\n              dup1\n              swap2\n              sub\n              swap1\n              log2\n                /* \"contract.sol\":768:1059  function contribute() public payable {... */\n              jump\t// out\n                /* \"contract.sol\":1065:1413  function withdraw() public {... */\n            tag_31:\n                /* \"contract.sol\":1124:1131  creator */\n              and(sub(shl(0xa0, 0x01), 0x01), sload(0x01))\n                /* \"contract.sol\":1110:1120  msg.sender */\n              caller\n                /* \"contract.sol\":1110:1131  msg.sender == creator */\n              eq\n                /* \"contract.sol\":1102:1147  require(msg.sender == creator, \"Not creator\") */\n              tag_77\n              jumpi\n              mload(0x40)\n              shl(0xe5, 0x461bcd)\n              dup2\n              mstore\n                /* \"#utility.yul\":3140:3142   */\n              0x20\n                /* \"contract.sol\":1102:1147  require(msg.sender == creator, \"Not creator\") */\n              0x04\n              dup3\n              add\n                /* \"#utility.yul\":3122:3143   */\n              mstore\n                /* \"#utility.yul\":3179:3181   */\n              0x0b\n                /* \"#utility.yul\":3159:3177   */\n              0x24\n              dup3\n              add\n                /* \"#utility.yul\":3152:3182   */\n              mstore\n              shl(0xa9, 0x2737ba1031b932b0ba37b9)\n                /* \"#utility.yul\":3198:3216   */\n              0x44\n              dup3\n              add\n                /* \"#utility.yul\":3191:3232   */\n              mstore\n                /* \"#utility.yul\":3249:3267   */\n              0x64\n              add\n                /* \"contract.sol\":1102:1147  require(msg.sender == creator, \"Not creator\") */\n              tag_67\n                /* \"#utility.yul\":2938:3273   */\n              jump\n                /* \"contract.sol\":1102:1147  require(msg.sender == creator, \"Not creator\") */\n            tag_77:\n                /* \"contract.sol\":1175:1179  goal */\n              sload(0x02)\n                /* \"contract.sol\":1165:1171  raised */\n              sload(0x03)\n                /* \"contract.sol\":1165:1179  raised >= goal */\n              lt\n              iszero\n                /* \"contract.sol\":1157:1196  require(raised >= goal, \"Goal not met\") */\n              tag_80\n              jumpi\n              mload(0x40)\n              shl(0xe5, 0x461bcd)\n              dup2\n              mstore\n                /* \"#utility.yul\":3480:3482   */\n              0x20\n                /* \"contract.sol\":1157:1196  require(raised >= goal, \"Goal not met\") */\n              0x04\n              dup3\n              add\n                /* \"#utility.yul\":3462:3483   */\n              mstore\n                /* \"#utility.yul\":3519:3521   */\n              0x0c\n                /* \"#utility.yul\":3499:3517   */\n              0x24\n              dup3\n              add\n                /* \"#utility.yul\":3492:3522   */\n              mstore\n              shl(0xa2, 0x11dbd85b081b9bdd081b595d)\n                /* \"#utility.yul\":3538:3556   */\n              0x44\n              dup3\n              add\n                /* \"#utility.yul\":3531:3573   */\n              mstore\n                /* \"#utility.yul\":3590:3608   */\n              0x64\n              add\n                /* \"contract.sol\":1157:1196  require(raised >= goal, \"Goal not met\") */\n              tag_67\n                /* \"#utility.yul\":3278:3614   */\n              jump\n                /* \"contract.sol\":1157:1196  require(raised >= goal, \"Goal not met\") */\n            tag_80:\n                /* \"contract.sol\":1215:1224  withdrawn */\n              and(0xff, sload(0x06))\n                /* \"contract.sol\":1214:1224  !withdrawn */\n              iszero\n                /* \"contract.sol\":1206:1246  require(!withdrawn, \"Already withdrawn\") */\n              tag_83\n              jumpi\n              mload(0x40)\n              shl(0xe5, 0x461bcd)\n              dup2\n              mstore\n                /* \"#utility.yul\":3821:3823   */\n              0x20\n                /* \"contract.sol\":1206:1246  require(!withdrawn, \"Already withdrawn\") */\n              0x04\n              dup3\n              add\n                /* \"#utility.yul\":3803:3824   */\n              mstore\n                /* \"#utility.yul\":3860:3862   */\n              0x11\n                /* \"#utility.yul\":3840:3858   */\n              0x24\n              dup3\n              add\n                /* \"#utility.yul\":3833:3863   */\n              mstore\n              shl(0x79, 0x20b63932b0b23c903bb4ba34323930bbb7)\n                /* \"#utility.yul\":3879:3897   */\n              0x44\n              dup3\n              add\n                /* \"#utility.yul\":3872:3919   */\n              mstore\n                /* \"#utility.yul\":3936:3954   */\n              0x64\n              add\n                /* \"contract.sol\":1206:1246  require(!withdrawn, \"Already withdrawn\") */\n              tag_67\n                /* \"#utility.yul\":3619:3960   */\n              jump\n                /* \"contract.sol\":1206:1246  require(!withdrawn, \"Already withdrawn\") */\n            tag_83:\n                /* \"contract.sol\":1256:1265  withdrawn */\n              0x06\n                /* \"contract.sol\":1256:1272  withdrawn = true */\n              dup1\n              sload\n              not(0xff)\n              and\n                /* \"contract.sol\":1268:1272  true */\n              0x01\n                /* \"contract.sol\":1256:1272  withdrawn = true */\n              swap1\n              dup2\n              or\n              swap1\n              swap2\n              sstore\n                /* \"contract.sol\":1335:1342  creator */\n              sload\n                /* \"contract.sol\":1327:1360  payable(creator).transfer(amount) */\n              mload(0x40)\n                /* \"contract.sol\":1296:1317  address(this).balance */\n              selfbalance\n              swap2\n              sub(shl(0xa0, 0x01), 0x01)\n                /* \"contract.sol\":1335:1342  creator */\n              and\n              swap1\n                /* \"contract.sol\":1327:1360  payable(creator).transfer(amount) */\n              dup3\n              iszero\n              0x08fc\n              mul\n              swap1\n                /* \"contract.sol\":1296:1317  address(this).balance */\n              dup4\n              swap1\n                /* \"contract.sol\":1256:1265  withdrawn */\n              0x00\n                /* \"contract.sol\":1327:1360  payable(creator).transfer(amount) */\n              dup2\n                /* \"contract.sol\":1256:1265  withdrawn */\n              dup2\n                /* \"contract.sol\":1327:1360  payable(creator).transfer(amount) */\n              dup2\n                /* \"contract.sol\":1296:1317  address(this).balance */\n              dup6\n                /* \"contract.sol\":1335:1342  creator */\n              dup9\n                /* \"contract.sol\":1327:1360  payable(creator).transfer(amount) */\n              dup9\n              call\n              swap4\n              pop\n              pop\n              pop\n              pop\n              iszero\n              dup1\n              iszero\n              tag_87\n              jumpi\n              returndatasize\n              0x00\n              dup1\n              returndatacopy\n              revert(0x00, returndatasize)\n            tag_87:\n              pop\n                /* \"contract.sol\":1390:1397  creator */\n              sload(0x01)\n                /* \"contract.sol\":1375:1406  FundsWithdrawn(creator, amount) */\n              mload(0x40)\n                /* \"#utility.yul\":368:393   */\n              dup3\n              dup2\n              mstore\n              sub(shl(0xa0, 0x01), 0x01)\n                /* \"contract.sol\":1390:1397  creator */\n              swap1\n              swap2\n              and\n              swap1\n                /* \"contract.sol\":1375:1406  FundsWithdrawn(creator, amount) */\n              0xeaff4b37086828766ad3268786972c0cd24259d4c87a80f9d3963a3c3d999b0d\n              swap1\n                /* \"#utility.yul\":356:358   */\n              0x20\n                /* \"#utility.yul\":341:359   */\n              add\n                /* \"contract.sol\":1375:1406  FundsWithdrawn(creator, amount) */\n            tag_88:\n              mload(0x40)\n              dup1\n              swap2\n              sub\n              swap1\n              log2\n                /* \"contract.sol\":1092:1413  {... */\n              pop\n                /* \"contract.sol\":1065:1413  function withdraw() public {... */\n              jump\t// out\n                /* \"contract.sol\":83:102  string public title */\n            tag_44:\n              0x00\n              dup1\n              sload\n              tag_89\n              swap1\n              tag_90\n              jump\t// in\n            tag_89:\n              dup1\n              0x1f\n              add\n              0x20\n              dup1\n              swap2\n              div\n              mul\n              0x20\n              add\n              mload(0x40)\n              swap1\n              dup2\n              add\n              0x40\n              mstore\n              dup1\n              swap3\n              swap2\n              swap1\n              dup2\n              dup2\n              mstore\n              0x20\n              add\n              dup3\n              dup1\n              sload\n              tag_91\n              swap1\n              tag_90\n              jump\t// in\n            tag_91:\n              dup1\n              iszero\n              tag_92\n              jumpi\n              dup1\n              0x1f\n              lt\n              tag_93\n              jumpi\n              0x0100\n              dup1\n              dup4\n              sload\n              div\n              mul\n              dup4\n              mstore\n              swap2\n              0x20\n              add\n              swap2\n              jump(tag_92)\n            tag_93:\n              dup3\n              add\n              swap2\n              swap1\n              0x00\n              mstore\n              keccak256(0x00, 0x20)\n              swap1\n            tag_94:\n              dup2\n              sload\n              dup2\n              mstore\n              swap1\n              0x01\n              add\n              swap1\n              0x20\n              add\n              dup1\n              dup4\n              gt\n              tag_94\n              jumpi\n              dup3\n              swap1\n              sub\n              0x1f\n              and\n              dup3\n              add\n              swap2\n            tag_92:\n              pop\n              pop\n              pop\n              pop\n              pop\n              dup2\n              jump\t// out\n                /* \"contract.sol\":1419:1824  function refund() public {... */\n            tag_49:\n                /* \"contract.sol\":1480:1488  deadline */\n              sload(0x04)\n                /* \"contract.sol\":1462:1477  block.timestamp */\n              timestamp\n                /* \"contract.sol\":1462:1488  block.timestamp > deadline */\n              gt\n                /* \"contract.sol\":1454:1514  require(block.timestamp > deadline, \"Campaign still active\") */\n              tag_96\n              jumpi\n              mload(0x40)\n              shl(0xe5, 0x461bcd)\n              dup2\n              mstore\n                /* \"#utility.yul\":4552:4554   */\n              0x20\n                /* \"contract.sol\":1454:1514  require(block.timestamp > deadline, \"Campaign still active\") */\n              0x04\n              dup3\n              add\n                /* \"#utility.yul\":4534:4555   */\n              mstore\n                /* \"#utility.yul\":4591:4593   */\n              0x15\n                /* \"#utility.yul\":4571:4589   */\n              0x24\n              dup3\n              add\n                /* \"#utility.yul\":4564:4594   */\n              mstore\n              shl(0x58, 0x43616d706169676e207374696c6c20616374697665)\n                /* \"#utility.yul\":4610:4628   */\n              0x44\n              dup3\n              add\n                /* \"#utility.yul\":4603:4654   */\n              mstore\n                /* \"#utility.yul\":4671:4689   */\n              0x64\n              add\n                /* \"contract.sol\":1454:1514  require(block.timestamp > deadline, \"Campaign still active\") */\n              tag_67\n                /* \"#utility.yul\":4350:4695   */\n              jump\n                /* \"contract.sol\":1454:1514  require(block.timestamp > deadline, \"Campaign still active\") */\n            tag_96:\n                /* \"contract.sol\":1541:1545  goal */\n              sload(0x02)\n                /* \"contract.sol\":1532:1538  raised */\n              sload(0x03)\n                /* \"contract.sol\":1532:1545  raised < goal */\n              lt\n                /* \"contract.sol\":1524:1570  require(raised < goal, \"Goal met, no refunds\") */\n              tag_99\n              jumpi\n              mload(0x40)\n              shl(0xe5, 0x461bcd)\n              dup2\n              mstore\n                /* \"#utility.yul\":4902:4904   */\n              0x20\n                /* \"contract.sol\":1524:1570  require(raised < goal, \"Goal met, no refunds\") */\n              0x04\n              dup3\n              add\n                /* \"#utility.yul\":4884:4905   */\n              mstore\n                /* \"#utility.yul\":4941:4943   */\n              0x14\n                /* \"#utility.yul\":4921:4939   */\n              0x24\n              dup3\n              add\n                /* \"#utility.yul\":4914:4944   */\n              mstore\n              shl(0x60, 0x476f616c206d65742c206e6f20726566756e6473)\n                /* \"#utility.yul\":4960:4978   */\n              0x44\n              dup3\n              add\n                /* \"#utility.yul\":4953:5003   */\n              mstore\n                /* \"#utility.yul\":5020:5038   */\n              0x64\n              add\n                /* \"contract.sol\":1524:1570  require(raised < goal, \"Goal met, no refunds\") */\n              tag_67\n                /* \"#utility.yul\":4700:5044   */\n              jump\n                /* \"contract.sol\":1524:1570  require(raised < goal, \"Goal met, no refunds\") */\n            tag_99:\n                /* \"contract.sol\":1613:1623  msg.sender */\n              caller\n                /* \"contract.sol\":1580:1596  uint contributed */\n              0x00\n                /* \"contract.sol\":1599:1624  contributions[msg.sender] */\n              swap1\n              dup2\n              mstore\n                /* \"contract.sol\":1599:1612  contributions */\n              0x05\n                /* \"contract.sol\":1599:1624  contributions[msg.sender] */\n              0x20\n              mstore\n              0x40\n              swap1\n              keccak256\n              sload\n                /* \"contract.sol\":1642:1657  contributed > 0 */\n              dup1\n                /* \"contract.sol\":1634:1679  require(contributed > 0, \"Nothing to refund\") */\n              tag_102\n              jumpi\n              mload(0x40)\n              shl(0xe5, 0x461bcd)\n              dup2\n              mstore\n                /* \"#utility.yul\":5251:5253   */\n              0x20\n                /* \"contract.sol\":1634:1679  require(contributed > 0, \"Nothing to refund\") */\n              0x04\n              dup3\n              add\n                /* \"#utility.yul\":5233:5254   */\n              mstore\n                /* \"#utility.yul\":5290:5292   */\n              0x11\n                /* \"#utility.yul\":5270:5288   */\n              0x24\n              dup3\n              add\n                /* \"#utility.yul\":5263:5293   */\n              mstore\n              shl(0x7a, 0x139bdd1a1a5b99c81d1bc81c99599d5b99)\n                /* \"#utility.yul\":5309:5327   */\n              0x44\n              dup3\n              add\n                /* \"#utility.yul\":5302:5349   */\n              mstore\n                /* \"#utility.yul\":5366:5384   */\n              0x64\n              add\n                /* \"contract.sol\":1634:1679  require(contributed > 0, \"Nothing to refund\") */\n              tag_67\n                /* \"#utility.yul\":5049:5390   */\n              jump\n                /* \"contract.sol\":1634:1679  require(contributed > 0, \"Nothing to refund\") */\n            tag_102:\n                /* \"contract.sol\":1703:1713  msg.sender */\n              caller\n                /* \"contract.sol\":1717:1718  0 */\n              0x00\n                /* \"contract.sol\":1689:1714  contributions[msg.sender] */\n              dup2\n              dup2\n              mstore\n                /* \"contract.sol\":1689:1702  contributions */\n              0x05\n                /* \"contract.sol\":1689:1714  contributions[msg.sender] */\n              0x20\n              mstore\n              0x40\n              dup1\n              dup3\n              keccak256\n                /* \"contract.sol\":1689:1718  contributions[msg.sender] = 0 */\n              dup3\n              swap1\n              sstore\n                /* \"contract.sol\":1728:1769  payable(msg.sender).transfer(contributed) */\n              mload\n              dup4\n              iszero\n              0x08fc\n              mul\n              swap2\n                /* \"contract.sol\":1757:1768  contributed */\n              dup5\n              swap2\n                /* \"contract.sol\":1728:1769  payable(msg.sender).transfer(contributed) */\n              swap1\n              dup2\n                /* \"contract.sol\":1717:1718  0 */\n              dup2\n                /* \"contract.sol\":1728:1769  payable(msg.sender).transfer(contributed) */\n              dup2\n                /* \"contract.sol\":1757:1768  contributed */\n              dup6\n                /* \"contract.sol\":1703:1713  msg.sender */\n              dup9\n                /* \"contract.sol\":1728:1769  payable(msg.sender).transfer(contributed) */\n              dup9\n              call\n              swap4\n              pop\n              pop\n              pop\n              pop\n              iszero\n              dup1\n              iszero\n              tag_106\n              jumpi\n              returndatasize\n              0x00\n              dup1\n              returndatacopy\n              revert(0x00, returndatasize)\n            tag_106:\n              pop\n                /* \"contract.sol\":1784:1817  Refunded(msg.sender, contributed) */\n              mload(0x40)\n                /* \"#utility.yul\":368:393   */\n              dup2\n              dup2\n              mstore\n                /* \"contract.sol\":1793:1803  msg.sender */\n              caller\n              swap1\n                /* \"contract.sol\":1784:1817  Refunded(msg.sender, contributed) */\n              0xd7dee2702d63ad89917b6a4da9981c90c4d24f8c2bdfd64c604ecae57d8d0651\n              swap1\n                /* \"#utility.yul\":356:358   */\n              0x20\n                /* \"#utility.yul\":341:359   */\n              add\n                /* \"contract.sol\":1784:1817  Refunded(msg.sender, contributed) */\n              tag_88\n                /* \"#utility.yul\":222:399   */\n              jump\n                /* \"contract.sol\":1830:2098  function getInfo() public view returns (... */\n            tag_52:\n                /* \"contract.sol\":1879:1899  string memory _title */\n              0x60\n                /* \"contract.sol\":1909:1925  address _creator */\n              0x00\n                /* \"contract.sol\":1935:1945  uint _goal */\n              dup1\n                /* \"contract.sol\":1955:1967  uint _raised */\n              0x00\n                /* \"contract.sol\":1977:1991  uint _deadline */\n              dup1\n                /* \"contract.sol\":2001:2016  bool _withdrawn */\n              0x00\n                /* \"contract.sol\":2041:2046  title */\n              dup1\n                /* \"contract.sol\":2048:2055  creator */\n              0x01\n              0x00\n              swap1\n              sload\n              swap1\n              0x0100\n              exp\n              swap1\n              div\n              sub(shl(0xa0, 0x01), 0x01)\n              and\n                /* \"contract.sol\":2057:2061  goal */\n              sload(0x02)\n                /* \"contract.sol\":2063:2069  raised */\n              sload(0x03)\n                /* \"contract.sol\":2071:2079  deadline */\n              sload(0x04)\n                /* \"contract.sol\":2081:2090  withdrawn */\n              0x06\n              0x00\n              swap1\n              sload\n              swap1\n              0x0100\n              exp\n              swap1\n              div\n              0xff\n              and\n                /* \"contract.sol\":2033:2091  return (title, creator, goal, raised, deadline, withdrawn) */\n              dup6\n              dup1\n              sload\n              tag_109\n              swap1\n              tag_90\n              jump\t// in\n            tag_109:\n              dup1\n              0x1f\n              add\n              0x20\n              dup1\n              swap2\n              div\n              mul\n              0x20\n              add\n              mload(0x40)\n              swap1\n              dup2\n              add\n              0x40\n              mstore\n              dup1\n              swap3\n              swap2\n              swap1\n              dup2\n              dup2\n              mstore\n              0x20\n              add\n              dup3\n              dup1\n              sload\n              tag_110\n              swap1\n              tag_90\n              jump\t// in\n            tag_110:\n              dup1\n              iszero\n              tag_111\n              jumpi\n              dup1\n              0x1f\n              lt\n              tag_112\n              jumpi\n              0x0100\n              dup1\n              dup4\n              sload\n              div\n              mul\n              dup4\n              mstore\n              swap2\n              0x20\n              add\n              swap2\n              jump(tag_111)\n            tag_112:\n              dup3\n              add\n              swap2\n              swap1\n              0x00\n              mstore\n              keccak256(0x00, 0x20)\n              swap1\n            tag_113:\n              dup2\n              sload\n              dup2\n              mstore\n              swap1\n              0x01\n              add\n              swap1\n              0x20\n              add\n              dup1\n              dup4\n              gt\n              tag_113\n              jumpi\n              dup3\n              swap1\n              sub\n              0x1f\n              and\n              dup3\n              add\n              swap2\n            tag_111:\n              pop\n              pop\n              pop\n              pop\n              pop\n              swap6\n              pop\n              swap6\n              pop\n              swap6\n              pop\n              swap6\n              pop\n              swap6\n              pop\n              swap6\n              pop\n              swap6\n              pop\n                /* \"contract.sol\":1830:2098  function getInfo() public view returns (... */\n              swap1\n              swap2\n              swap3\n              swap4\n              swap5\n              swap6\n              jump\t// out\n                /* \"#utility.yul\":404:690   */\n            tag_39:\n                /* \"#utility.yul\":463:469   */\n              0x00\n                /* \"#utility.yul\":516:518   */\n              0x20\n                /* \"#utility.yul\":504:513   */\n              dup3\n                /* \"#utility.yul\":495:502   */\n              dup5\n                /* \"#utility.yul\":491:514   */\n              sub\n                /* \"#utility.yul\":487:519   */\n              slt\n                /* \"#utility.yul\":484:536   */\n              iszero\n              tag_119\n              jumpi\n                /* \"#utility.yul\":532:533   */\n              0x00\n                /* \"#utility.yul\":529:530   */\n              dup1\n                /* \"#utility.yul\":522:534   */\n              revert\n                /* \"#utility.yul\":484:536   */\n            tag_119:\n                /* \"#utility.yul\":558:581   */\n              dup2\n              calldataload\n              sub(shl(0xa0, 0x01), 0x01)\n                /* \"#utility.yul\":610:641   */\n              dup2\n              and\n                /* \"#utility.yul\":600:642   */\n              dup2\n              eq\n                /* \"#utility.yul\":590:660   */\n              tag_120\n              jumpi\n                /* \"#utility.yul\":656:657   */\n              0x00\n                /* \"#utility.yul\":653:654   */\n              dup1\n                /* \"#utility.yul\":646:658   */\n              revert\n                /* \"#utility.yul\":590:660   */\n            tag_120:\n                /* \"#utility.yul\":679:684   */\n              swap4\n                /* \"#utility.yul\":404:690   */\n              swap3\n              pop\n              pop\n              pop\n              jump\t// out\n                /* \"#utility.yul\":695:984   */\n            tag_114:\n                /* \"#utility.yul\":737:740   */\n              0x00\n                /* \"#utility.yul\":775:780   */\n              dup2\n                /* \"#utility.yul\":769:781   */\n              mload\n                /* \"#utility.yul\":802:808   */\n              dup1\n                /* \"#utility.yul\":797:800   */\n              dup5\n                /* \"#utility.yul\":790:809   */\n              mstore\n                /* \"#utility.yul\":858:864   */\n              dup1\n                /* \"#utility.yul\":851:855   */\n              0x20\n                /* \"#utility.yul\":844:849   */\n              dup5\n                /* \"#utility.yul\":840:856   */\n              add\n                /* \"#utility.yul\":833:837   */\n              0x20\n                /* \"#utility.yul\":828:831   */\n              dup7\n                /* \"#utility.yul\":824:838   */\n              add\n                /* \"#utility.yul\":818:865   */\n              mcopy\n                /* \"#utility.yul\":910:911   */\n              0x00\n                /* \"#utility.yul\":903:907   */\n              0x20\n                /* \"#utility.yul\":894:900   */\n              dup3\n                /* \"#utility.yul\":889:892   */\n              dup7\n                /* \"#utility.yul\":885:901   */\n              add\n                /* \"#utility.yul\":881:908   */\n              add\n                /* \"#utility.yul\":874:912   */\n              mstore\n                /* \"#utility.yul\":973:977   */\n              0x20\n                /* \"#utility.yul\":966:968   */\n              0x1f\n                /* \"#utility.yul\":962:969   */\n              not\n                /* \"#utility.yul\":957:959   */\n              0x1f\n                /* \"#utility.yul\":949:955   */\n              dup4\n                /* \"#utility.yul\":945:960   */\n              add\n                /* \"#utility.yul\":941:970   */\n              and\n                /* \"#utility.yul\":936:939   */\n              dup6\n                /* \"#utility.yul\":932:971   */\n              add\n                /* \"#utility.yul\":928:978   */\n              add\n                /* \"#utility.yul\":921:978   */\n              swap2\n              pop\n              pop\n                /* \"#utility.yul\":695:984   */\n              swap3\n              swap2\n              pop\n              pop\n              jump\t// out\n                /* \"#utility.yul\":989:1209   */\n            tag_46:\n                /* \"#utility.yul\":1138:1140   */\n              0x20\n                /* \"#utility.yul\":1127:1136   */\n              dup2\n                /* \"#utility.yul\":1120:1141   */\n              mstore\n                /* \"#utility.yul\":1101:1105   */\n              0x00\n                /* \"#utility.yul\":1158:1203   */\n              tag_120\n                /* \"#utility.yul\":1199:1201   */\n              0x20\n                /* \"#utility.yul\":1188:1197   */\n              dup4\n                /* \"#utility.yul\":1184:1202   */\n              add\n                /* \"#utility.yul\":1176:1182   */\n              dup5\n                /* \"#utility.yul\":1158:1203   */\n              tag_114\n              jump\t// in\n                /* \"#utility.yul\":1214:1829   */\n            tag_54:\n                /* \"#utility.yul\":1497:1500   */\n              0xc0\n                /* \"#utility.yul\":1486:1495   */\n              dup2\n                /* \"#utility.yul\":1479:1501   */\n              mstore\n                /* \"#utility.yul\":1460:1464   */\n              0x00\n                /* \"#utility.yul\":1518:1564   */\n              tag_125\n                /* \"#utility.yul\":1559:1562   */\n              0xc0\n                /* \"#utility.yul\":1548:1557   */\n              dup4\n                /* \"#utility.yul\":1544:1563   */\n              add\n                /* \"#utility.yul\":1536:1542   */\n              dup10\n                /* \"#utility.yul\":1518:1564   */\n              tag_114\n              jump\t// in\n            tag_125:\n              sub(shl(0xa0, 0x01), 0x01)\n                /* \"#utility.yul\":1600:1632   */\n              swap8\n              swap1\n              swap8\n              and\n                /* \"#utility.yul\":1595:1597   */\n              0x20\n                /* \"#utility.yul\":1580:1598   */\n              dup4\n              add\n                /* \"#utility.yul\":1573:1633   */\n              mstore\n              pop\n                /* \"#utility.yul\":1664:1666   */\n              0x40\n                /* \"#utility.yul\":1649:1667   */\n              dup2\n              add\n                /* \"#utility.yul\":1642:1676   */\n              swap5\n              swap1\n              swap5\n              mstore\n                /* \"#utility.yul\":1707:1709   */\n              0x60\n                /* \"#utility.yul\":1692:1710   */\n              dup5\n              add\n                /* \"#utility.yul\":1685:1719   */\n              swap3\n              swap1\n              swap3\n              mstore\n                /* \"#utility.yul\":1750:1753   */\n              0x80\n                /* \"#utility.yul\":1735:1754   */\n              dup4\n              add\n                /* \"#utility.yul\":1728:1763   */\n              mstore\n                /* \"#utility.yul\":1807:1821   */\n              iszero\n                /* \"#utility.yul\":1800:1822   */\n              iszero\n                /* \"#utility.yul\":1620:1623   */\n              0xa0\n                /* \"#utility.yul\":1779:1798   */\n              swap1\n              swap2\n              add\n                /* \"#utility.yul\":1772:1823   */\n              mstore\n                /* \"#utility.yul\":1600:1632   */\n              swap2\n                /* \"#utility.yul\":1510:1564   */\n              swap1\n              pop\n                /* \"#utility.yul\":1214:1829   */\n              jump\t// out\n                /* \"#utility.yul\":2711:2933   */\n            tag_73:\n                /* \"#utility.yul\":2776:2785   */\n              dup1\n              dup3\n              add\n                /* \"#utility.yul\":2797:2807   */\n              dup1\n              dup3\n              gt\n                /* \"#utility.yul\":2794:2927   */\n              iszero\n              tag_130\n              jumpi\n                /* \"#utility.yul\":2849:2859   */\n              0x4e487b71\n                /* \"#utility.yul\":2844:2847   */\n              0xe0\n                /* \"#utility.yul\":2840:2860   */\n              shl\n                /* \"#utility.yul\":2837:2838   */\n              0x00\n                /* \"#utility.yul\":2830:2861   */\n              mstore\n                /* \"#utility.yul\":2884:2888   */\n              0x11\n                /* \"#utility.yul\":2881:2882   */\n              0x04\n                /* \"#utility.yul\":2874:2889   */\n              mstore\n                /* \"#utility.yul\":2912:2916   */\n              0x24\n                /* \"#utility.yul\":2909:2910   */\n              0x00\n                /* \"#utility.yul\":2902:2917   */\n              revert\n                /* \"#utility.yul\":2794:2927   */\n            tag_130:\n                /* \"#utility.yul\":2711:2933   */\n              swap3\n              swap2\n              pop\n              pop\n              jump\t// out\n                /* \"#utility.yul\":3965:4345   */\n            tag_90:\n                /* \"#utility.yul\":4044:4045   */\n              0x01\n                /* \"#utility.yul\":4040:4052   */\n              dup2\n              dup2\n              shr\n              swap1\n                /* \"#utility.yul\":4087:4099   */\n              dup3\n              and\n              dup1\n                /* \"#utility.yul\":4108:4169   */\n              tag_135\n              jumpi\n                /* \"#utility.yul\":4162:4166   */\n              0x7f\n                /* \"#utility.yul\":4154:4160   */\n              dup3\n                /* \"#utility.yul\":4150:4167   */\n              and\n                /* \"#utility.yul\":4140:4167   */\n              swap2\n              pop\n                /* \"#utility.yul\":4108:4169   */\n            tag_135:\n                /* \"#utility.yul\":4215:4217   */\n              0x20\n                /* \"#utility.yul\":4207:4213   */\n              dup3\n                /* \"#utility.yul\":4204:4218   */\n              lt\n                /* \"#utility.yul\":4184:4202   */\n              dup2\n                /* \"#utility.yul\":4181:4219   */\n              sub\n                /* \"#utility.yul\":4178:4339   */\n              tag_136\n              jumpi\n                /* \"#utility.yul\":4261:4271   */\n              0x4e487b71\n                /* \"#utility.yul\":4256:4259   */\n              0xe0\n                /* \"#utility.yul\":4252:4272   */\n              shl\n                /* \"#utility.yul\":4249:4250   */\n              0x00\n                /* \"#utility.yul\":4242:4273   */\n              mstore\n                /* \"#utility.yul\":4296:4300   */\n              0x22\n                /* \"#utility.yul\":4293:4294   */\n              0x04\n                /* \"#utility.yul\":4286:4301   */\n              mstore\n                /* \"#utility.yul\":4324:4328   */\n              0x24\n                /* \"#utility.yul\":4321:4322   */\n              0x00\n                /* \"#utility.yul\":4314:4329   */\n              revert\n                /* \"#utility.yul\":4178:4339   */\n            tag_136:\n              pop\n                /* \"#utility.yul\":3965:4345   */\n              swap2\n              swap1\n              pop\n              jump\t// out\n\n            auxdata: 0xa2646970667358221220e103313af0b1c7e5ee15eb450c6a9a45b24e7d7ff9daea8b94d9272a43ce2b1364736f6c634300081a0033\n        }\n    }\n\n    auxdata: 0xa26469706673582212206b05aa422045abb86b478a94b5e60e058370cba46f558cf990806c8fdc28717064736f6c634300081a0033\n}\n",
				"bytecode": {
					"linkReferences": {},
					"object": "6080604052348015600e575f80fd5b506111678061001c5f395ff3fe608060405234801561000f575f80fd5b5060043610610055575f3560e01c8063141961bc146100595780632d82333514610089578063431ec44b1461009357806344c89b65146100a65780639507d39a146100b6575b5f80fd5b61006c6100673660046103e9565b6100c9565b6040516001600160a01b0390911681526020015b60405180910390f35b6100916100f0565b005b6100916100a1366004610414565b61021f565b5f54604051908152602001610080565b61006c6100c43660046103e9565b6102a7565b5f81815481106100d7575f80fd5b5f918252602090912001546001600160a01b0316905081565b5f54156101365760405162461bcd60e51b815260206004820152601060248201526f105b1c9958591e4819195c1b1bde595960821b604482015260640160405180910390fd5b60015b6023811161021c575f61014b826102d4565b60405160200161015b91906104d4565b60408051601f1981840301815291905290505f61018083670de0b6b3a7640000610512565b90505f8282600a604051610193906103dc565b61019f9392919061055d565b604051809103905ff0801580156101b8573d5f803e3d5ffd5b505f80546001810182559080527f290decd9548b62a8d60345a988386fc84ba6bc95484008f6362f93160ef3e5630180546001600160a01b0319166001600160a01b039290921691909117905550829150610214905081610581565b915050610139565b50565b5f83838360405161022f906103dc565b61023b9392919061055d565b604051809103905ff080158015610254573d5f803e3d5ffd5b505f80546001810182559080527f290decd9548b62a8d60345a988386fc84ba6bc95484008f6362f93160ef3e5630180546001600160a01b0319166001600160a01b039290921691909117905550505050565b5f8082815481106102ba576102ba610599565b5f918252602090912001546001600160a01b031692915050565b6060815f036102fa5750506040805180820190915260018152600360fc1b602082015290565b815f5b8115610323578061030d81610581565b915061031c9050600a836105c1565b91506102fd565b5f8167ffffffffffffffff81111561033d5761033d610400565b6040519080825280601f01601f191660200182016040528015610367576020820181803683370190505b509050815b85156103d3578061037c816105d4565b915061038b9050600a876105e9565b6103969060306105fc565b60f81b8282815181106103ab576103ab610599565b60200101906001600160f81b03191690815f1a9053506103cc600a876105c1565b955061036c565b50949350505050565b610b228061061083390190565b5f602082840312156103f9575f80fd5b5035919050565b634e487b7160e01b5f52604160045260245ffd5b5f805f60608486031215610426575f80fd5b833567ffffffffffffffff81111561043c575f80fd5b8401601f8101861361044c575f80fd5b803567ffffffffffffffff81111561046657610466610400565b604051601f8201601f19908116603f0116810167ffffffffffffffff8111828210171561049557610495610400565b6040528181528282016020018810156104ac575f80fd5b816020840160208301375f602092820183015297908601359650604090950135949350505050565b6721b0b6b830b4b3b760c11b81525f82518060208501600885015e5f920160080191825250919050565b634e487b7160e01b5f52601160045260245ffd5b8082028115828204841417610529576105296104fe565b92915050565b5f81518084528060208401602086015e5f602082860101526020601f19601f83011685010191505092915050565b606081525f61056f606083018661052f565b60208301949094525060400152919050565b5f60018201610592576105926104fe565b5060010190565b634e487b7160e01b5f52603260045260245ffd5b634e487b7160e01b5f52601260045260245ffd5b5f826105cf576105cf6105ad565b500490565b5f816105e2576105e26104fe565b505f190190565b5f826105f7576105f76105ad565b500690565b80820180821115610529576105296104fe56fe608060405234801561000f575f80fd5b50604051610b22380380610b2283398101604081905261002e91610088565b5f61003984826101cb565b506002829055600180546001600160a01b0319163317905561005e8162015180610299565b61006890426102b6565b600455506102c9915050565b634e487b7160e01b5f52604160045260245ffd5b5f805f6060848603121561009a575f80fd5b83516001600160401b038111156100af575f80fd5b8401601f810186136100bf575f80fd5b80516001600160401b038111156100d8576100d8610074565b604051601f8201601f19908116603f011681016001600160401b038111828210171561010657610106610074565b60405281815282820160200188101561011d575f80fd5b8160208401602083015e5f6020928201830152908601516040909601519097959650949350505050565b600181811c9082168061015b57607f821691505b60208210810361017957634e487b7160e01b5f52602260045260245ffd5b50919050565b601f8211156101c657805f5260205f20601f840160051c810160208510156101a45750805b601f840160051c820191505b818110156101c3575f81556001016101b0565b50505b505050565b81516001600160401b038111156101e4576101e4610074565b6101f8816101f28454610147565b8461017f565b6020601f82116001811461022a575f83156102135750848201515b5f19600385901b1c1916600184901b1784556101c3565b5f84815260208120601f198516915b828110156102595787850151825560209485019460019092019101610239565b508482101561027657868401515f19600387901b60f8161c191681555b50505050600190811b01905550565b634e487b7160e01b5f52601160045260245ffd5b80820281158282048414176102b0576102b0610285565b92915050565b808201808211156102b0576102b0610285565b61084c806102d65f395ff3fe60806040526004361061009d575f3560e01c80634a79d50c116100625780634a79d50c14610163578063590e1ae3146101845780635a9b0b8914610198578063c80ec522146101be578063d7bb99ba146101e7578063f0ea4bfc146101ef575f80fd5b806302d05d3f146100b057806329dcb0cf146100ec5780633ccfd60b1461010f578063401938831461012357806342e94c9014610138575f80fd5b366100ac576100aa610204565b005b5f80fd5b3480156100bb575f80fd5b506001546100cf906001600160a01b031681565b6040516001600160a01b0390911681526020015b60405180910390f35b3480156100f7575f80fd5b5061010160045481565b6040519081526020016100e3565b34801561011a575f80fd5b506100aa6102fc565b34801561012e575f80fd5b5061010160025481565b348015610143575f80fd5b50610101610152366004610706565b60056020525f908152604090205481565b34801561016e575f80fd5b5061017761045a565b6040516100e39190610761565b34801561018f575f80fd5b506100aa6104e5565b3480156101a3575f80fd5b506101ac610633565b6040516100e396959493929190610773565b3480156101c9575f80fd5b506006546101d79060ff1681565b60405190151581526020016100e3565b6100aa610204565b3480156101fa575f80fd5b5061010160035481565b600454421061024b5760405162461bcd60e51b815260206004820152600e60248201526d10d85b5c185a59db88195b99195960921b60448201526064015b60405180910390fd5b5f341161028a5760405162461bcd60e51b815260206004820152600d60248201526c09aeae6e840e6cadcc8408aa89609b1b6044820152606401610242565b335f90815260056020526040812080543492906102a89084906107b9565b925050819055503460035f8282546102c091906107b9565b909155505060405134815233907f1bb460ccaaf70fbacfec17a376f8acbd278c1405590ffcc8ebe4b88daf4f64ad9060200160405180910390a2565b6001546001600160a01b031633146103445760405162461bcd60e51b815260206004820152600b60248201526a2737ba1031b932b0ba37b960a91b6044820152606401610242565b60025460035410156103875760405162461bcd60e51b815260206004820152600c60248201526b11dbd85b081b9bdd081b595d60a21b6044820152606401610242565b60065460ff16156103ce5760405162461bcd60e51b815260206004820152601160248201527020b63932b0b23c903bb4ba34323930bbb760791b6044820152606401610242565b6006805460ff191660019081179091555460405147916001600160a01b03169082156108fc029083905f818181858888f19350505050158015610413573d5f803e3d5ffd5b506001546040518281526001600160a01b03909116907feaff4b37086828766ad3268786972c0cd24259d4c87a80f9d3963a3c3d999b0d906020015b60405180910390a250565b5f8054610466906107de565b80601f0160208091040260200160405190810160405280929190818152602001828054610492906107de565b80156104dd5780601f106104b4576101008083540402835291602001916104dd565b820191905f5260205f20905b8154815290600101906020018083116104c057829003601f168201915b505050505081565b600454421161052e5760405162461bcd60e51b815260206004820152601560248201527443616d706169676e207374696c6c2061637469766560581b6044820152606401610242565b600254600354106105785760405162461bcd60e51b8152602060048201526014602482015273476f616c206d65742c206e6f20726566756e647360601b6044820152606401610242565b335f90815260056020526040902054806105c85760405162461bcd60e51b8152602060048201526011602482015270139bdd1a1a5b99c81d1bc81c99599d5b99607a1b6044820152606401610242565b335f818152600560205260408082208290555183156108fc0291849190818181858888f19350505050158015610600573d5f803e3d5ffd5b5060405181815233907fd7dee2702d63ad89917b6a4da9981c90c4d24f8c2bdfd64c604ecae57d8d06519060200161044f565b60605f805f805f8060015f9054906101000a90046001600160a01b031660025460035460045460065f9054906101000a900460ff16858054610674906107de565b80601f01602080910402602001604051908101604052809291908181526020018280546106a0906107de565b80156106eb5780601f106106c2576101008083540402835291602001916106eb565b820191905f5260205f20905b8154815290600101906020018083116106ce57829003601f168201915b50505050509550955095509550955095509550909192939495565b5f60208284031215610716575f80fd5b81356001600160a01b038116811461072c575f80fd5b9392505050565b5f81518084528060208401602086015e5f602082860101526020601f19601f83011685010191505092915050565b602081525f61072c6020830184610733565b60c081525f61078560c0830189610733565b6001600160a01b0397909716602083015250604081019490945260608401929092526080830152151560a090910152919050565b808201808211156107d857634e487b7160e01b5f52601160045260245ffd5b92915050565b600181811c908216806107f257607f821691505b60208210810361081057634e487b7160e01b5f52602260045260245ffd5b5091905056fea2646970667358221220e103313af0b1c7e5ee15eb450c6a9a45b24e7d7ff9daea8b94d9272a43ce2b1364736f6c634300081a0033a26469706673582212206b05aa422045abb86b478a94b5e60e058370cba46f558cf990806c8fdc28717064736f6c634300081a0033",
					"opcodes": "PUSH1 0x80 PUSH1 0x40 MSTORE CALLVALUE DUP1 ISZERO PUSH1 0xE JUMPI PUSH0 DUP1 REVERT JUMPDEST POP PUSH2 0x1167 DUP1 PUSH2 0x1C PUSH0 CODECOPY PUSH0 RETURN INVALID PUSH1 0x80 PUSH1 0x40 MSTORE CALLVALUE DUP1 ISZERO PUSH2 0xF JUMPI PUSH0 DUP1 REVERT JUMPDEST POP PUSH1 0x4 CALLDATASIZE LT PUSH2 0x55 JUMPI PUSH0 CALLDATALOAD PUSH1 0xE0 SHR DUP1 PUSH4 0x141961BC EQ PUSH2 0x59 JUMPI DUP1 PUSH4 0x2D823335 EQ PUSH2 0x89 JUMPI DUP1 PUSH4 0x431EC44B EQ PUSH2 0x93 JUMPI DUP1 PUSH4 0x44C89B65 EQ PUSH2 0xA6 JUMPI DUP1 PUSH4 0x9507D39A EQ PUSH2 0xB6 JUMPI JUMPDEST PUSH0 DUP1 REVERT JUMPDEST PUSH2 0x6C PUSH2 0x67 CALLDATASIZE PUSH1 0x4 PUSH2 0x3E9 JUMP JUMPDEST PUSH2 0xC9 JUMP JUMPDEST PUSH1 0x40 MLOAD PUSH1 0x1 PUSH1 0x1 PUSH1 0xA0 SHL SUB SWAP1 SWAP2 AND DUP2 MSTORE PUSH1 0x20 ADD JUMPDEST PUSH1 0x40 MLOAD DUP1 SWAP2 SUB SWAP1 RETURN JUMPDEST PUSH2 0x91 PUSH2 0xF0 JUMP JUMPDEST STOP JUMPDEST PUSH2 0x91 PUSH2 0xA1 CALLDATASIZE PUSH1 0x4 PUSH2 0x414 JUMP JUMPDEST PUSH2 0x21F JUMP JUMPDEST PUSH0 SLOAD PUSH1 0x40 MLOAD SWAP1 DUP2 MSTORE PUSH1 0x20 ADD PUSH2 0x80 JUMP JUMPDEST PUSH2 0x6C PUSH2 0xC4 CALLDATASIZE PUSH1 0x4 PUSH2 0x3E9 JUMP JUMPDEST PUSH2 0x2A7 JUMP JUMPDEST PUSH0 DUP2 DUP2 SLOAD DUP2 LT PUSH2 0xD7 JUMPI PUSH0 DUP1 REVERT JUMPDEST PUSH0 SWAP2 DUP3 MSTORE PUSH1 0x20 SWAP1 SWAP2 KECCAK256 ADD SLOAD PUSH1 0x1 PUSH1 0x1 PUSH1 0xA0 SHL SUB AND SWAP1 POP DUP2 JUMP JUMPDEST PUSH0 SLOAD ISZERO PUSH2 0x136 JUMPI PUSH1 0x40 MLOAD PUSH3 0x461BCD PUSH1 0xE5 SHL DUP2 MSTORE PUSH1 0x20 PUSH1 0x4 DUP3 ADD MSTORE PUSH1 0x10 PUSH1 0x24 DUP3 ADD MSTORE PUSH16 0x105B1C9958591E4819195C1B1BDE5959 PUSH1 0x82 SHL PUSH1 0x44 DUP3 ADD MSTORE PUSH1 0x64 ADD PUSH1 0x40 MLOAD DUP1 SWAP2 SUB SWAP1 REVERT JUMPDEST PUSH1 0x1 JUMPDEST PUSH1 0x23 DUP2 GT PUSH2 0x21C JUMPI PUSH0 PUSH2 0x14B DUP3 PUSH2 0x2D4 JUMP JUMPDEST PUSH1 0x40 MLOAD PUSH1 0x20 ADD PUSH2 0x15B SWAP2 SWAP1 PUSH2 0x4D4 JUMP JUMPDEST PUSH1 0x40 DUP1 MLOAD PUSH1 0x1F NOT DUP2 DUP5 SUB ADD DUP2 MSTORE SWAP2 SWAP1 MSTORE SWAP1 POP PUSH0 PUSH2 0x180 DUP4 PUSH8 0xDE0B6B3A7640000 PUSH2 0x512 JUMP JUMPDEST SWAP1 POP PUSH0 DUP3 DUP3 PUSH1 0xA PUSH1 0x40 MLOAD PUSH2 0x193 SWAP1 PUSH2 0x3DC JUMP JUMPDEST PUSH2 0x19F SWAP4 SWAP3 SWAP2 SWAP1 PUSH2 0x55D JUMP JUMPDEST PUSH1 0x40 MLOAD DUP1 SWAP2 SUB SWAP1 PUSH0 CREATE DUP1 ISZERO DUP1 ISZERO PUSH2 0x1B8 JUMPI RETURNDATASIZE PUSH0 DUP1 RETURNDATACOPY RETURNDATASIZE PUSH0 REVERT JUMPDEST POP PUSH0 DUP1 SLOAD PUSH1 0x1 DUP2 ADD DUP3 SSTORE SWAP1 DUP1 MSTORE PUSH32 0x290DECD9548B62A8D60345A988386FC84BA6BC95484008F6362F93160EF3E563 ADD DUP1 SLOAD PUSH1 0x1 PUSH1 0x1 PUSH1 0xA0 SHL SUB NOT AND PUSH1 0x1 PUSH1 0x1 PUSH1 0xA0 SHL SUB SWAP3 SWAP1 SWAP3 AND SWAP2 SWAP1 SWAP2 OR SWAP1 SSTORE POP DUP3 SWAP2 POP PUSH2 0x214 SWAP1 POP DUP2 PUSH2 0x581 JUMP JUMPDEST SWAP2 POP POP PUSH2 0x139 JUMP JUMPDEST POP JUMP JUMPDEST PUSH0 DUP4 DUP4 DUP4 PUSH1 0x40 MLOAD PUSH2 0x22F SWAP1 PUSH2 0x3DC JUMP JUMPDEST PUSH2 0x23B SWAP4 SWAP3 SWAP2 SWAP1 PUSH2 0x55D JUMP JUMPDEST PUSH1 0x40 MLOAD DUP1 SWAP2 SUB SWAP1 PUSH0 CREATE DUP1 ISZERO DUP1 ISZERO PUSH2 0x254 JUMPI RETURNDATASIZE PUSH0 DUP1 RETURNDATACOPY RETURNDATASIZE PUSH0 REVERT JUMPDEST POP PUSH0 DUP1 SLOAD PUSH1 0x1 DUP2 ADD DUP3 SSTORE SWAP1 DUP1 MSTORE PUSH32 0x290DECD9548B62A8D60345A988386FC84BA6BC95484008F6362F93160EF3E563 ADD DUP1 SLOAD PUSH1 0x1 PUSH1 0x1 PUSH1 0xA0 SHL SUB NOT AND PUSH1 0x1 PUSH1 0x1 PUSH1 0xA0 SHL SUB SWAP3 SWAP1 SWAP3 AND SWAP2 SWAP1 SWAP2 OR SWAP1 SSTORE POP POP POP POP JUMP JUMPDEST PUSH0 DUP1 DUP3 DUP2 SLOAD DUP2 LT PUSH2 0x2BA JUMPI PUSH2 0x2BA PUSH2 0x599 JUMP JUMPDEST PUSH0 SWAP2 DUP3 MSTORE PUSH1 0x20 SWAP1 SWAP2 KECCAK256 ADD SLOAD PUSH1 0x1 PUSH1 0x1 PUSH1 0xA0 SHL SUB AND SWAP3 SWAP2 POP POP JUMP JUMPDEST PUSH1 0x60 DUP2 PUSH0 SUB PUSH2 0x2FA JUMPI POP POP PUSH1 0x40 DUP1 MLOAD DUP1 DUP3 ADD SWAP1 SWAP2 MSTORE PUSH1 0x1 DUP2 MSTORE PUSH1 0x3 PUSH1 0xFC SHL PUSH1 0x20 DUP3 ADD MSTORE SWAP1 JUMP JUMPDEST DUP2 PUSH0 JUMPDEST DUP2 ISZERO PUSH2 0x323 JUMPI DUP1 PUSH2 0x30D DUP2 PUSH2 0x581 JUMP JUMPDEST SWAP2 POP PUSH2 0x31C SWAP1 POP PUSH1 0xA DUP4 PUSH2 0x5C1 JUMP JUMPDEST SWAP2 POP PUSH2 0x2FD JUMP JUMPDEST PUSH0 DUP2 PUSH8 0xFFFFFFFFFFFFFFFF DUP2 GT ISZERO PUSH2 0x33D JUMPI PUSH2 0x33D PUSH2 0x400 JUMP JUMPDEST PUSH1 0x40 MLOAD SWAP1 DUP1 DUP3 MSTORE DUP1 PUSH1 0x1F ADD PUSH1 0x1F NOT AND PUSH1 0x20 ADD DUP3 ADD PUSH1 0x40 MSTORE DUP1 ISZERO PUSH2 0x367 JUMPI PUSH1 0x20 DUP3 ADD DUP2 DUP1 CALLDATASIZE DUP4 CALLDATACOPY ADD SWAP1 POP JUMPDEST POP SWAP1 POP DUP2 JUMPDEST DUP6 ISZERO PUSH2 0x3D3 JUMPI DUP1 PUSH2 0x37C DUP2 PUSH2 0x5D4 JUMP JUMPDEST SWAP2 POP PUSH2 0x38B SWAP1 POP PUSH1 0xA DUP8 PUSH2 0x5E9 JUMP JUMPDEST PUSH2 0x396 SWAP1 PUSH1 0x30 PUSH2 0x5FC JUMP JUMPDEST PUSH1 0xF8 SHL DUP3 DUP3 DUP2 MLOAD DUP2 LT PUSH2 0x3AB JUMPI PUSH2 0x3AB PUSH2 0x599 JUMP JUMPDEST PUSH1 0x20 ADD ADD SWAP1 PUSH1 0x1 PUSH1 0x1 PUSH1 0xF8 SHL SUB NOT AND SWAP1 DUP2 PUSH0 BYTE SWAP1 MSTORE8 POP PUSH2 0x3CC PUSH1 0xA DUP8 PUSH2 0x5C1 JUMP JUMPDEST SWAP6 POP PUSH2 0x36C JUMP JUMPDEST POP SWAP5 SWAP4 POP POP POP POP JUMP JUMPDEST PUSH2 0xB22 DUP1 PUSH2 0x610 DUP4 CODECOPY ADD SWAP1 JUMP JUMPDEST PUSH0 PUSH1 0x20 DUP3 DUP5 SUB SLT ISZERO PUSH2 0x3F9 JUMPI PUSH0 DUP1 REVERT JUMPDEST POP CALLDATALOAD SWAP2 SWAP1 POP JUMP JUMPDEST PUSH4 0x4E487B71 PUSH1 0xE0 SHL PUSH0 MSTORE PUSH1 0x41 PUSH1 0x4 MSTORE PUSH1 0x24 PUSH0 REVERT JUMPDEST PUSH0 DUP1 PUSH0 PUSH1 0x60 DUP5 DUP7 SUB SLT ISZERO PUSH2 0x426 JUMPI PUSH0 DUP1 REVERT JUMPDEST DUP4 CALLDATALOAD PUSH8 0xFFFFFFFFFFFFFFFF DUP2 GT ISZERO PUSH2 0x43C JUMPI PUSH0 DUP1 REVERT JUMPDEST DUP5 ADD PUSH1 0x1F DUP2 ADD DUP7 SGT PUSH2 0x44C JUMPI PUSH0 DUP1 REVERT JUMPDEST DUP1 CALLDATALOAD PUSH8 0xFFFFFFFFFFFFFFFF DUP2 GT ISZERO PUSH2 0x466 JUMPI PUSH2 0x466 PUSH2 0x400 JUMP JUMPDEST PUSH1 0x40 MLOAD PUSH1 0x1F DUP3 ADD PUSH1 0x1F NOT SWAP1 DUP2 AND PUSH1 0x3F ADD AND DUP2 ADD PUSH8 0xFFFFFFFFFFFFFFFF DUP2 GT DUP3 DUP3 LT OR ISZERO PUSH2 0x495 JUMPI PUSH2 0x495 PUSH2 0x400 JUMP JUMPDEST PUSH1 0x40 MSTORE DUP2 DUP2 MSTORE DUP3 DUP3 ADD PUSH1 0x20 ADD DUP9 LT ISZERO PUSH2 0x4AC JUMPI PUSH0 DUP1 REVERT JUMPDEST DUP2 PUSH1 0x20 DUP5 ADD PUSH1 0x20 DUP4 ADD CALLDATACOPY PUSH0 PUSH1 0x20 SWAP3 DUP3 ADD DUP4 ADD MSTORE SWAP8 SWAP1 DUP7 ADD CALLDATALOAD SWAP7 POP PUSH1 0x40 SWAP1 SWAP6 ADD CALLDATALOAD SWAP5 SWAP4 POP POP POP POP JUMP JUMPDEST PUSH8 0x21B0B6B830B4B3B7 PUSH1 0xC1 SHL DUP2 MSTORE PUSH0 DUP3 MLOAD DUP1 PUSH1 0x20 DUP6 ADD PUSH1 0x8 DUP6 ADD MCOPY PUSH0 SWAP3 ADD PUSH1 0x8 ADD SWAP2 DUP3 MSTORE POP SWAP2 SWAP1 POP JUMP JUMPDEST PUSH4 0x4E487B71 PUSH1 0xE0 SHL PUSH0 MSTORE PUSH1 0x11 PUSH1 0x4 MSTORE PUSH1 0x24 PUSH0 REVERT JUMPDEST DUP1 DUP3 MUL DUP2 ISZERO DUP3 DUP3 DIV DUP5 EQ OR PUSH2 0x529 JUMPI PUSH2 0x529 PUSH2 0x4FE JUMP JUMPDEST SWAP3 SWAP2 POP POP JUMP JUMPDEST PUSH0 DUP2 MLOAD DUP1 DUP5 MSTORE DUP1 PUSH1 0x20 DUP5 ADD PUSH1 0x20 DUP7 ADD MCOPY PUSH0 PUSH1 0x20 DUP3 DUP7 ADD ADD MSTORE PUSH1 0x20 PUSH1 0x1F NOT PUSH1 0x1F DUP4 ADD AND DUP6 ADD ADD SWAP2 POP POP SWAP3 SWAP2 POP POP JUMP JUMPDEST PUSH1 0x60 DUP2 MSTORE PUSH0 PUSH2 0x56F PUSH1 0x60 DUP4 ADD DUP7 PUSH2 0x52F JUMP JUMPDEST PUSH1 0x20 DUP4 ADD SWAP5 SWAP1 SWAP5 MSTORE POP PUSH1 0x40 ADD MSTORE SWAP2 SWAP1 POP JUMP JUMPDEST PUSH0 PUSH1 0x1 DUP3 ADD PUSH2 0x592 JUMPI PUSH2 0x592 PUSH2 0x4FE JUMP JUMPDEST POP PUSH1 0x1 ADD SWAP1 JUMP JUMPDEST PUSH4 0x4E487B71 PUSH1 0xE0 SHL PUSH0 MSTORE PUSH1 0x32 PUSH1 0x4 MSTORE PUSH1 0x24 PUSH0 REVERT JUMPDEST PUSH4 0x4E487B71 PUSH1 0xE0 SHL PUSH0 MSTORE PUSH1 0x12 PUSH1 0x4 MSTORE PUSH1 0x24 PUSH0 REVERT JUMPDEST PUSH0 DUP3 PUSH2 0x5CF JUMPI PUSH2 0x5CF PUSH2 0x5AD JUMP JUMPDEST POP DIV SWAP1 JUMP JUMPDEST PUSH0 DUP2 PUSH2 0x5E2 JUMPI PUSH2 0x5E2 PUSH2 0x4FE JUMP JUMPDEST POP PUSH0 NOT ADD SWAP1 JUMP JUMPDEST PUSH0 DUP3 PUSH2 0x5F7 JUMPI PUSH2 0x5F7 PUSH2 0x5AD JUMP JUMPDEST POP MOD SWAP1 JUMP JUMPDEST DUP1 DUP3 ADD DUP1 DUP3 GT ISZERO PUSH2 0x529 JUMPI PUSH2 0x529 PUSH2 0x4FE JUMP INVALID PUSH1 0x80 PUSH1 0x40 MSTORE CALLVALUE DUP1 ISZERO PUSH2 0xF JUMPI PUSH0 DUP1 REVERT JUMPDEST POP PUSH1 0x40 MLOAD PUSH2 0xB22 CODESIZE SUB DUP1 PUSH2 0xB22 DUP4 CODECOPY DUP2 ADD PUSH1 0x40 DUP2 SWAP1 MSTORE PUSH2 0x2E SWAP2 PUSH2 0x88 JUMP JUMPDEST PUSH0 PUSH2 0x39 DUP5 DUP3 PUSH2 0x1CB JUMP JUMPDEST POP PUSH1 0x2 DUP3 SWAP1 SSTORE PUSH1 0x1 DUP1 SLOAD PUSH1 0x1 PUSH1 0x1 PUSH1 0xA0 SHL SUB NOT AND CALLER OR SWAP1 SSTORE PUSH2 0x5E DUP2 PUSH3 0x15180 PUSH2 0x299 JUMP JUMPDEST PUSH2 0x68 SWAP1 TIMESTAMP PUSH2 0x2B6 JUMP JUMPDEST PUSH1 0x4 SSTORE POP PUSH2 0x2C9 SWAP2 POP POP JUMP JUMPDEST PUSH4 0x4E487B71 PUSH1 0xE0 SHL PUSH0 MSTORE PUSH1 0x41 PUSH1 0x4 MSTORE PUSH1 0x24 PUSH0 REVERT JUMPDEST PUSH0 DUP1 PUSH0 PUSH1 0x60 DUP5 DUP7 SUB SLT ISZERO PUSH2 0x9A JUMPI PUSH0 DUP1 REVERT JUMPDEST DUP4 MLOAD PUSH1 0x1 PUSH1 0x1 PUSH1 0x40 SHL SUB DUP2 GT ISZERO PUSH2 0xAF JUMPI PUSH0 DUP1 REVERT JUMPDEST DUP5 ADD PUSH1 0x1F DUP2 ADD DUP7 SGT PUSH2 0xBF JUMPI PUSH0 DUP1 REVERT JUMPDEST DUP1 MLOAD PUSH1 0x1 PUSH1 0x1 PUSH1 0x40 SHL SUB DUP2 GT ISZERO PUSH2 0xD8 JUMPI PUSH2 0xD8 PUSH2 0x74 JUMP JUMPDEST PUSH1 0x40 MLOAD PUSH1 0x1F DUP3 ADD PUSH1 0x1F NOT SWAP1 DUP2 AND PUSH1 0x3F ADD AND DUP2 ADD PUSH1 0x1 PUSH1 0x1 PUSH1 0x40 SHL SUB DUP2 GT DUP3 DUP3 LT OR ISZERO PUSH2 0x106 JUMPI PUSH2 0x106 PUSH2 0x74 JUMP JUMPDEST PUSH1 0x40 MSTORE DUP2 DUP2 MSTORE DUP3 DUP3 ADD PUSH1 0x20 ADD DUP9 LT ISZERO PUSH2 0x11D JUMPI PUSH0 DUP1 REVERT JUMPDEST DUP2 PUSH1 0x20 DUP5 ADD PUSH1 0x20 DUP4 ADD MCOPY PUSH0 PUSH1 0x20 SWAP3 DUP3 ADD DUP4 ADD MSTORE SWAP1 DUP7 ADD MLOAD PUSH1 0x40 SWAP1 SWAP7 ADD MLOAD SWAP1 SWAP8 SWAP6 SWAP7 POP SWAP5 SWAP4 POP POP POP POP JUMP JUMPDEST PUSH1 0x1 DUP2 DUP2 SHR SWAP1 DUP3 AND DUP1 PUSH2 0x15B JUMPI PUSH1 0x7F DUP3 AND SWAP2 POP JUMPDEST PUSH1 0x20 DUP3 LT DUP2 SUB PUSH2 0x179 JUMPI PUSH4 0x4E487B71 PUSH1 0xE0 SHL PUSH0 MSTORE PUSH1 0x22 PUSH1 0x4 MSTORE PUSH1 0x24 PUSH0 REVERT JUMPDEST POP SWAP2 SWAP1 POP JUMP JUMPDEST PUSH1 0x1F DUP3 GT ISZERO PUSH2 0x1C6 JUMPI DUP1 PUSH0 MSTORE PUSH1 0x20 PUSH0 KECCAK256 PUSH1 0x1F DUP5 ADD PUSH1 0x5 SHR DUP2 ADD PUSH1 0x20 DUP6 LT ISZERO PUSH2 0x1A4 JUMPI POP DUP1 JUMPDEST PUSH1 0x1F DUP5 ADD PUSH1 0x5 SHR DUP3 ADD SWAP2 POP JUMPDEST DUP2 DUP2 LT ISZERO PUSH2 0x1C3 JUMPI PUSH0 DUP2 SSTORE PUSH1 0x1 ADD PUSH2 0x1B0 JUMP JUMPDEST POP POP JUMPDEST POP POP POP JUMP JUMPDEST DUP2 MLOAD PUSH1 0x1 PUSH1 0x1 PUSH1 0x40 SHL SUB DUP2 GT ISZERO PUSH2 0x1E4 JUMPI PUSH2 0x1E4 PUSH2 0x74 JUMP JUMPDEST PUSH2 0x1F8 DUP2 PUSH2 0x1F2 DUP5 SLOAD PUSH2 0x147 JUMP JUMPDEST DUP5 PUSH2 0x17F JUMP JUMPDEST PUSH1 0x20 PUSH1 0x1F DUP3 GT PUSH1 0x1 DUP2 EQ PUSH2 0x22A JUMPI PUSH0 DUP4 ISZERO PUSH2 0x213 JUMPI POP DUP5 DUP3 ADD MLOAD JUMPDEST PUSH0 NOT PUSH1 0x3 DUP6 SWAP1 SHL SHR NOT AND PUSH1 0x1 DUP5 SWAP1 SHL OR DUP5 SSTORE PUSH2 0x1C3 JUMP JUMPDEST PUSH0 DUP5 DUP2 MSTORE PUSH1 0x20 DUP2 KECCAK256 PUSH1 0x1F NOT DUP6 AND SWAP2 JUMPDEST DUP3 DUP2 LT ISZERO PUSH2 0x259 JUMPI DUP8 DUP6 ADD MLOAD DUP3 SSTORE PUSH1 0x20 SWAP5 DUP6 ADD SWAP5 PUSH1 0x1 SWAP1 SWAP3 ADD SWAP2 ADD PUSH2 0x239 JUMP JUMPDEST POP DUP5 DUP3 LT ISZERO PUSH2 0x276 JUMPI DUP7 DUP5 ADD MLOAD PUSH0 NOT PUSH1 0x3 DUP8 SWAP1 SHL PUSH1 0xF8 AND SHR NOT AND DUP2 SSTORE JUMPDEST POP POP POP POP PUSH1 0x1 SWAP1 DUP2 SHL ADD SWAP1 SSTORE POP JUMP JUMPDEST PUSH4 0x4E487B71 PUSH1 0xE0 SHL PUSH0 MSTORE PUSH1 0x11 PUSH1 0x4 MSTORE PUSH1 0x24 PUSH0 REVERT JUMPDEST DUP1 DUP3 MUL DUP2 ISZERO DUP3 DUP3 DIV DUP5 EQ OR PUSH2 0x2B0 JUMPI PUSH2 0x2B0 PUSH2 0x285 JUMP JUMPDEST SWAP3 SWAP2 POP POP JUMP JUMPDEST DUP1 DUP3 ADD DUP1 DUP3 GT ISZERO PUSH2 0x2B0 JUMPI PUSH2 0x2B0 PUSH2 0x285 JUMP JUMPDEST PUSH2 0x84C DUP1 PUSH2 0x2D6 PUSH0 CODECOPY PUSH0 RETURN INVALID PUSH1 0x80 PUSH1 0x40 MSTORE PUSH1 0x4 CALLDATASIZE LT PUSH2 0x9D JUMPI PUSH0 CALLDATALOAD PUSH1 0xE0 SHR DUP1 PUSH4 0x4A79D50C GT PUSH2 0x62 JUMPI DUP1 PUSH4 0x4A79D50C EQ PUSH2 0x163 JUMPI DUP1 PUSH4 0x590E1AE3 EQ PUSH2 0x184 JUMPI DUP1 PUSH4 0x5A9B0B89 EQ PUSH2 0x198 JUMPI DUP1 PUSH4 0xC80EC522 EQ PUSH2 0x1BE JUMPI DUP1 PUSH4 0xD7BB99BA EQ PUSH2 0x1E7 JUMPI DUP1 PUSH4 0xF0EA4BFC EQ PUSH2 0x1EF JUMPI PUSH0 DUP1 REVERT JUMPDEST DUP1 PUSH4 0x2D05D3F EQ PUSH2 0xB0 JUMPI DUP1 PUSH4 0x29DCB0CF EQ PUSH2 0xEC JUMPI DUP1 PUSH4 0x3CCFD60B EQ PUSH2 0x10F JUMPI DUP1 PUSH4 0x40193883 EQ PUSH2 0x123 JUMPI DUP1 PUSH4 0x42E94C90 EQ PUSH2 0x138 JUMPI PUSH0 DUP1 REVERT JUMPDEST CALLDATASIZE PUSH2 0xAC JUMPI PUSH2 0xAA PUSH2 0x204 JUMP JUMPDEST STOP JUMPDEST PUSH0 DUP1 REVERT JUMPDEST CALLVALUE DUP1 ISZERO PUSH2 0xBB JUMPI PUSH0 DUP1 REVERT JUMPDEST POP PUSH1 0x1 SLOAD PUSH2 0xCF SWAP1 PUSH1 0x1 PUSH1 0x1 PUSH1 0xA0 SHL SUB AND DUP2 JUMP JUMPDEST PUSH1 0x40 MLOAD PUSH1 0x1 PUSH1 0x1 PUSH1 0xA0 SHL SUB SWAP1 SWAP2 AND DUP2 MSTORE PUSH1 0x20 ADD JUMPDEST PUSH1 0x40 MLOAD DUP1 SWAP2 SUB SWAP1 RETURN JUMPDEST CALLVALUE DUP1 ISZERO PUSH2 0xF7 JUMPI PUSH0 DUP1 REVERT JUMPDEST POP PUSH2 0x101 PUSH1 0x4 SLOAD DUP2 JUMP JUMPDEST PUSH1 0x40 MLOAD SWAP1 DUP2 MSTORE PUSH1 0x20 ADD PUSH2 0xE3 JUMP JUMPDEST CALLVALUE DUP1 ISZERO PUSH2 0x11A JUMPI PUSH0 DUP1 REVERT JUMPDEST POP PUSH2 0xAA PUSH2 0x2FC JUMP JUMPDEST CALLVALUE DUP1 ISZERO PUSH2 0x12E JUMPI PUSH0 DUP1 REVERT JUMPDEST POP PUSH2 0x101 PUSH1 0x2 SLOAD DUP2 JUMP JUMPDEST CALLVALUE DUP1 ISZERO PUSH2 0x143 JUMPI PUSH0 DUP1 REVERT JUMPDEST POP PUSH2 0x101 PUSH2 0x152 CALLDATASIZE PUSH1 0x4 PUSH2 0x706 JUMP JUMPDEST PUSH1 0x5 PUSH1 0x20 MSTORE PUSH0 SWAP1 DUP2 MSTORE PUSH1 0x40 SWAP1 KECCAK256 SLOAD DUP2 JUMP JUMPDEST CALLVALUE DUP1 ISZERO PUSH2 0x16E JUMPI PUSH0 DUP1 REVERT JUMPDEST POP PUSH2 0x177 PUSH2 0x45A JUMP JUMPDEST PUSH1 0x40 MLOAD PUSH2 0xE3 SWAP2 SWAP1 PUSH2 0x761 JUMP JUMPDEST CALLVALUE DUP1 ISZERO PUSH2 0x18F JUMPI PUSH0 DUP1 REVERT JUMPDEST POP PUSH2 0xAA PUSH2 0x4E5 JUMP JUMPDEST CALLVALUE DUP1 ISZERO PUSH2 0x1A3 JUMPI PUSH0 DUP1 REVERT JUMPDEST POP PUSH2 0x1AC PUSH2 0x633 JUMP JUMPDEST PUSH1 0x40 MLOAD PUSH2 0xE3 SWAP7 SWAP6 SWAP5 SWAP4 SWAP3 SWAP2 SWAP1 PUSH2 0x773 JUMP JUMPDEST CALLVALUE DUP1 ISZERO PUSH2 0x1C9 JUMPI PUSH0 DUP1 REVERT JUMPDEST POP PUSH1 0x6 SLOAD PUSH2 0x1D7 SWAP1 PUSH1 0xFF AND DUP2 JUMP JUMPDEST PUSH1 0x40 MLOAD SWAP1 ISZERO ISZERO DUP2 MSTORE PUSH1 0x20 ADD PUSH2 0xE3 JUMP JUMPDEST PUSH2 0xAA PUSH2 0x204 JUMP JUMPDEST CALLVALUE DUP1 ISZERO PUSH2 0x1FA JUMPI PUSH0 DUP1 REVERT JUMPDEST POP PUSH2 0x101 PUSH1 0x3 SLOAD DUP2 JUMP JUMPDEST PUSH1 0x4 SLOAD TIMESTAMP LT PUSH2 0x24B JUMPI PUSH1 0x40 MLOAD PUSH3 0x461BCD PUSH1 0xE5 SHL DUP2 MSTORE PUSH1 0x20 PUSH1 0x4 DUP3 ADD MSTORE PUSH1 0xE PUSH1 0x24 DUP3 ADD MSTORE PUSH14 0x10D85B5C185A59DB88195B991959 PUSH1 0x92 SHL PUSH1 0x44 DUP3 ADD MSTORE PUSH1 0x64 ADD JUMPDEST PUSH1 0x40 MLOAD DUP1 SWAP2 SUB SWAP1 REVERT JUMPDEST PUSH0 CALLVALUE GT PUSH2 0x28A JUMPI PUSH1 0x40 MLOAD PUSH3 0x461BCD PUSH1 0xE5 SHL DUP2 MSTORE PUSH1 0x20 PUSH1 0x4 DUP3 ADD MSTORE PUSH1 0xD PUSH1 0x24 DUP3 ADD MSTORE PUSH13 0x9AEAE6E840E6CADCC8408AA89 PUSH1 0x9B SHL PUSH1 0x44 DUP3 ADD MSTORE PUSH1 0x64 ADD PUSH2 0x242 JUMP JUMPDEST CALLER PUSH0 SWAP1 DUP2 MSTORE PUSH1 0x5 PUSH1 0x20 MSTORE PUSH1 0x40 DUP2 KECCAK256 DUP1 SLOAD CALLVALUE SWAP3 SWAP1 PUSH2 0x2A8 SWAP1 DUP5 SWAP1 PUSH2 0x7B9 JUMP JUMPDEST SWAP3 POP POP DUP2 SWAP1 SSTORE POP CALLVALUE PUSH1 0x3 PUSH0 DUP3 DUP3 SLOAD PUSH2 0x2C0 SWAP2 SWAP1 PUSH2 0x7B9 JUMP JUMPDEST SWAP1 SWAP2 SSTORE POP POP PUSH1 0x40 MLOAD CALLVALUE DUP2 MSTORE CALLER SWAP1 PUSH32 0x1BB460CCAAF70FBACFEC17A376F8ACBD278C1405590FFCC8EBE4B88DAF4F64AD SWAP1 PUSH1 0x20 ADD PUSH1 0x40 MLOAD DUP1 SWAP2 SUB SWAP1 LOG2 JUMP JUMPDEST PUSH1 0x1 SLOAD PUSH1 0x1 PUSH1 0x1 PUSH1 0xA0 SHL SUB AND CALLER EQ PUSH2 0x344 JUMPI PUSH1 0x40 MLOAD PUSH3 0x461BCD PUSH1 0xE5 SHL DUP2 MSTORE PUSH1 0x20 PUSH1 0x4 DUP3 ADD MSTORE PUSH1 0xB PUSH1 0x24 DUP3 ADD MSTORE PUSH11 0x2737BA1031B932B0BA37B9 PUSH1 0xA9 SHL PUSH1 0x44 DUP3 ADD MSTORE PUSH1 0x64 ADD PUSH2 0x242 JUMP JUMPDEST PUSH1 0x2 SLOAD PUSH1 0x3 SLOAD LT ISZERO PUSH2 0x387 JUMPI PUSH1 0x40 MLOAD PUSH3 0x461BCD PUSH1 0xE5 SHL DUP2 MSTORE PUSH1 0x20 PUSH1 0x4 DUP3 ADD MSTORE PUSH1 0xC PUSH1 0x24 DUP3 ADD MSTORE PUSH12 0x11DBD85B081B9BDD081B595D PUSH1 0xA2 SHL PUSH1 0x44 DUP3 ADD MSTORE PUSH1 0x64 ADD PUSH2 0x242 JUMP JUMPDEST PUSH1 0x6 SLOAD PUSH1 0xFF AND ISZERO PUSH2 0x3CE JUMPI PUSH1 0x40 MLOAD PUSH3 0x461BCD PUSH1 0xE5 SHL DUP2 MSTORE PUSH1 0x20 PUSH1 0x4 DUP3 ADD MSTORE PUSH1 0x11 PUSH1 0x24 DUP3 ADD MSTORE PUSH17 0x20B63932B0B23C903BB4BA34323930BBB7 PUSH1 0x79 SHL PUSH1 0x44 DUP3 ADD MSTORE PUSH1 0x64 ADD PUSH2 0x242 JUMP JUMPDEST PUSH1 0x6 DUP1 SLOAD PUSH1 0xFF NOT AND PUSH1 0x1 SWAP1 DUP2 OR SWAP1 SWAP2 SSTORE SLOAD PUSH1 0x40 MLOAD SELFBALANCE SWAP2 PUSH1 0x1 PUSH1 0x1 PUSH1 0xA0 SHL SUB AND SWAP1 DUP3 ISZERO PUSH2 0x8FC MUL SWAP1 DUP4 SWAP1 PUSH0 DUP2 DUP2 DUP2 DUP6 DUP9 DUP9 CALL SWAP4 POP POP POP POP ISZERO DUP1 ISZERO PUSH2 0x413 JUMPI RETURNDATASIZE PUSH0 DUP1 RETURNDATACOPY RETURNDATASIZE PUSH0 REVERT JUMPDEST POP PUSH1 0x1 SLOAD PUSH1 0x40 MLOAD DUP3 DUP2 MSTORE PUSH1 0x1 PUSH1 0x1 PUSH1 0xA0 SHL SUB SWAP1 SWAP2 AND SWAP1 PUSH32 0xEAFF4B37086828766AD3268786972C0CD24259D4C87A80F9D3963A3C3D999B0D SWAP1 PUSH1 0x20 ADD JUMPDEST PUSH1 0x40 MLOAD DUP1 SWAP2 SUB SWAP1 LOG2 POP JUMP JUMPDEST PUSH0 DUP1 SLOAD PUSH2 0x466 SWAP1 PUSH2 0x7DE JUMP JUMPDEST DUP1 PUSH1 0x1F ADD PUSH1 0x20 DUP1 SWAP2 DIV MUL PUSH1 0x20 ADD PUSH1 0x40 MLOAD SWAP1 DUP2 ADD PUSH1 0x40 MSTORE DUP1 SWAP3 SWAP2 SWAP1 DUP2 DUP2 MSTORE PUSH1 0x20 ADD DUP3 DUP1 SLOAD PUSH2 0x492 SWAP1 PUSH2 0x7DE JUMP JUMPDEST DUP1 ISZERO PUSH2 0x4DD JUMPI DUP1 PUSH1 0x1F LT PUSH2 0x4B4 JUMPI PUSH2 0x100 DUP1 DUP4 SLOAD DIV MUL DUP4 MSTORE SWAP2 PUSH1 0x20 ADD SWAP2 PUSH2 0x4DD JUMP JUMPDEST DUP3 ADD SWAP2 SWAP1 PUSH0 MSTORE PUSH1 0x20 PUSH0 KECCAK256 SWAP1 JUMPDEST DUP2 SLOAD DUP2 MSTORE SWAP1 PUSH1 0x1 ADD SWAP1 PUSH1 0x20 ADD DUP1 DUP4 GT PUSH2 0x4C0 JUMPI DUP3 SWAP1 SUB PUSH1 0x1F AND DUP3 ADD SWAP2 JUMPDEST POP POP POP POP POP DUP2 JUMP JUMPDEST PUSH1 0x4 SLOAD TIMESTAMP GT PUSH2 0x52E JUMPI PUSH1 0x40 MLOAD PUSH3 0x461BCD PUSH1 0xE5 SHL DUP2 MSTORE PUSH1 0x20 PUSH1 0x4 DUP3 ADD MSTORE PUSH1 0x15 PUSH1 0x24 DUP3 ADD MSTORE PUSH21 0x43616D706169676E207374696C6C20616374697665 PUSH1 0x58 SHL PUSH1 0x44 DUP3 ADD MSTORE PUSH1 0x64 ADD PUSH2 0x242 JUMP JUMPDEST PUSH1 0x2 SLOAD PUSH1 0x3 SLOAD LT PUSH2 0x578 JUMPI PUSH1 0x40 MLOAD PUSH3 0x461BCD PUSH1 0xE5 SHL DUP2 MSTORE PUSH1 0x20 PUSH1 0x4 DUP3 ADD MSTORE PUSH1 0x14 PUSH1 0x24 DUP3 ADD MSTORE PUSH20 0x476F616C206D65742C206E6F20726566756E6473 PUSH1 0x60 SHL PUSH1 0x44 DUP3 ADD MSTORE PUSH1 0x64 ADD PUSH2 0x242 JUMP JUMPDEST CALLER PUSH0 SWAP1 DUP2 MSTORE PUSH1 0x5 PUSH1 0x20 MSTORE PUSH1 0x40 SWAP1 KECCAK256 SLOAD DUP1 PUSH2 0x5C8 JUMPI PUSH1 0x40 MLOAD PUSH3 0x461BCD PUSH1 0xE5 SHL DUP2 MSTORE PUSH1 0x20 PUSH1 0x4 DUP3 ADD MSTORE PUSH1 0x11 PUSH1 0x24 DUP3 ADD MSTORE PUSH17 0x139BDD1A1A5B99C81D1BC81C99599D5B99 PUSH1 0x7A SHL PUSH1 0x44 DUP3 ADD MSTORE PUSH1 0x64 ADD PUSH2 0x242 JUMP JUMPDEST CALLER PUSH0 DUP2 DUP2 MSTORE PUSH1 0x5 PUSH1 0x20 MSTORE PUSH1 0x40 DUP1 DUP3 KECCAK256 DUP3 SWAP1 SSTORE MLOAD DUP4 ISZERO PUSH2 0x8FC MUL SWAP2 DUP5 SWAP2 SWAP1 DUP2 DUP2 DUP2 DUP6 DUP9 DUP9 CALL SWAP4 POP POP POP POP ISZERO DUP1 ISZERO PUSH2 0x600 JUMPI RETURNDATASIZE PUSH0 DUP1 RETURNDATACOPY RETURNDATASIZE PUSH0 REVERT JUMPDEST POP PUSH1 0x40 MLOAD DUP2 DUP2 MSTORE CALLER SWAP1 PUSH32 0xD7DEE2702D63AD89917B6A4DA9981C90C4D24F8C2BDFD64C604ECAE57D8D0651 SWAP1 PUSH1 0x20 ADD PUSH2 0x44F JUMP JUMPDEST PUSH1 0x60 PUSH0 DUP1 PUSH0 DUP1 PUSH0 DUP1 PUSH1 0x1 PUSH0 SWAP1 SLOAD SWAP1 PUSH2 0x100 EXP SWAP1 DIV PUSH1 0x1 PUSH1 0x1 PUSH1 0xA0 SHL SUB AND PUSH1 0x2 SLOAD PUSH1 0x3 SLOAD PUSH1 0x4 SLOAD PUSH1 0x6 PUSH0 SWAP1 SLOAD SWAP1 PUSH2 0x100 EXP SWAP1 DIV PUSH1 0xFF AND DUP6 DUP1 SLOAD PUSH2 0x674 SWAP1 PUSH2 0x7DE JUMP JUMPDEST DUP1 PUSH1 0x1F ADD PUSH1 0x20 DUP1 SWAP2 DIV MUL PUSH1 0x20 ADD PUSH1 0x40 MLOAD SWAP1 DUP2 ADD PUSH1 0x40 MSTORE DUP1 SWAP3 SWAP2 SWAP1 DUP2 DUP2 MSTORE PUSH1 0x20 ADD DUP3 DUP1 SLOAD PUSH2 0x6A0 SWAP1 PUSH2 0x7DE JUMP JUMPDEST DUP1 ISZERO PUSH2 0x6EB JUMPI DUP1 PUSH1 0x1F LT PUSH2 0x6C2 JUMPI PUSH2 0x100 DUP1 DUP4 SLOAD DIV MUL DUP4 MSTORE SWAP2 PUSH1 0x20 ADD SWAP2 PUSH2 0x6EB JUMP JUMPDEST DUP3 ADD SWAP2 SWAP1 PUSH0 MSTORE PUSH1 0x20 PUSH0 KECCAK256 SWAP1 JUMPDEST DUP2 SLOAD DUP2 MSTORE SWAP1 PUSH1 0x1 ADD SWAP1 PUSH1 0x20 ADD DUP1 DUP4 GT PUSH2 0x6CE JUMPI DUP3 SWAP1 SUB PUSH1 0x1F AND DUP3 ADD SWAP2 JUMPDEST POP POP POP POP POP SWAP6 POP SWAP6 POP SWAP6 POP SWAP6 POP SWAP6 POP SWAP6 POP SWAP6 POP SWAP1 SWAP2 SWAP3 SWAP4 SWAP5 SWAP6 JUMP JUMPDEST PUSH0 PUSH1 0x20 DUP3 DUP5 SUB SLT ISZERO PUSH2 0x716 JUMPI PUSH0 DUP1 REVERT JUMPDEST DUP2 CALLDATALOAD PUSH1 0x1 PUSH1 0x1 PUSH1 0xA0 SHL SUB DUP2 AND DUP2 EQ PUSH2 0x72C JUMPI PUSH0 DUP1 REVERT JUMPDEST SWAP4 SWAP3 POP POP POP JUMP JUMPDEST PUSH0 DUP2 MLOAD DUP1 DUP5 MSTORE DUP1 PUSH1 0x20 DUP5 ADD PUSH1 0x20 DUP7 ADD MCOPY PUSH0 PUSH1 0x20 DUP3 DUP7 ADD ADD MSTORE PUSH1 0x20 PUSH1 0x1F NOT PUSH1 0x1F DUP4 ADD AND DUP6 ADD ADD SWAP2 POP POP SWAP3 SWAP2 POP POP JUMP JUMPDEST PUSH1 0x20 DUP2 MSTORE PUSH0 PUSH2 0x72C PUSH1 0x20 DUP4 ADD DUP5 PUSH2 0x733 JUMP JUMPDEST PUSH1 0xC0 DUP2 MSTORE PUSH0 PUSH2 0x785 PUSH1 0xC0 DUP4 ADD DUP10 PUSH2 0x733 JUMP JUMPDEST PUSH1 0x1 PUSH1 0x1 PUSH1 0xA0 SHL SUB SWAP8 SWAP1 SWAP8 AND PUSH1 0x20 DUP4 ADD MSTORE POP PUSH1 0x40 DUP2 ADD SWAP5 SWAP1 SWAP5 MSTORE PUSH1 0x60 DUP5 ADD SWAP3 SWAP1 SWAP3 MSTORE PUSH1 0x80 DUP4 ADD MSTORE ISZERO ISZERO PUSH1 0xA0 SWAP1 SWAP2 ADD MSTORE SWAP2 SWAP1 POP JUMP JUMPDEST DUP1 DUP3 ADD DUP1 DUP3 GT ISZERO PUSH2 0x7D8 JUMPI PUSH4 0x4E487B71 PUSH1 0xE0 SHL PUSH0 MSTORE PUSH1 0x11 PUSH1 0x4 MSTORE PUSH1 0x24 PUSH0 REVERT JUMPDEST SWAP3 SWAP2 POP POP JUMP JUMPDEST PUSH1 0x1 DUP2 DUP2 SHR SWAP1 DUP3 AND DUP1 PUSH2 0x7F2 JUMPI PUSH1 0x7F DUP3 AND SWAP2 POP JUMPDEST PUSH1 0x20 DUP3 LT DUP2 SUB PUSH2 0x810 JUMPI PUSH4 0x4E487B71 PUSH1 0xE0 SHL PUSH0 MSTORE PUSH1 0x22 PUSH1 0x4 MSTORE PUSH1 0x24 PUSH0 REVERT JUMPDEST POP SWAP2 SWAP1 POP JUMP INVALID LOG2 PUSH5 0x6970667358 0x22 SLT KECCAK256 0xE1 SUB BALANCE GASPRICE CREATE 0xB1 0xC7 0xE5 0xEE ISZERO 0xEB GASLIMIT 0xC PUSH11 0x9A45B24E7D7FF9DAEA8B94 0xD9 0x27 0x2A NUMBER 0xCE 0x2B SGT PUSH5 0x736F6C6343 STOP ADDMOD BYTE STOP CALLER LOG2 PUSH5 0x6970667358 0x22 SLT KECCAK256 PUSH12 0x5AA422045ABB86B478A94B5 0xE6 0xE SDIV DUP4 PUSH17 0xCBA46F558CF990806C8FDC28717064736F PUSH13 0x634300081A0033000000000000 "
				},
				"gasEstimates": {
					"creation": {
						"codeDepositCost": "891000",
						"executionCost": "927",
						"totalCost": "891927"
					},
					"external": {
						"campaigns(uint256)": "4577",
						"campaignsCount()": "2322",
						"deployAll()": "infinite",
						"deploySingle(string,uint256,uint256)": "infinite",
						"get(uint256)": "4670"
					},
					"internal": {
						"uint2str(uint256)": "infinite"
					}
				},
				"methodIdentifiers": {
					"campaigns(uint256)": "141961bc",
					"campaignsCount()": "44c89b65",
					"deployAll()": "2d823335",
					"deploySingle(string,uint256,uint256)": "431ec44b",
					"get(uint256)": "9507d39a"
				}
			},
			"storageLayout": {
				"storage": [
					{
						"astId": 249,
						"contract": "contract.sol:BatchDeployCrowdfund",
						"label": "campaigns",
						"offset": 0,
						"slot": "0",
						"type": "t_array(t_contract(Crowdfund)245)dyn_storage"
					}
				],
				"types": {
					"t_array(t_contract(Crowdfund)245)dyn_storage": {
						"base": "t_contract(Crowdfund)245",
						"encoding": "dynamic_array",
						"label": "contract Crowdfund[]",
						"numberOfBytes": "32"
					},
					"t_contract(Crowdfund)245": {
						"encoding": "inplace",
						"label": "contract Crowdfund",
						"numberOfBytes": "20"
					}
				}
			},
			"userdoc": {
				"kind": "user",
				"methods": {},
				"version": 1
			}
		}
	}
}