{
	"subservicebatch.sol": {
		"BatchDeploySubscriptions": {
			"abi": [
				{
					"inputs": [],
					"name": "deployAll",
					"outputs": [],
					"stateMutability": "nonpayable",
					"type": "function"
				},
				{
					"inputs": [
						{
							"internalType": "uint256",
							"name": "index",
							"type": "uint256"
						}
					],
					"name": "get",
					"outputs": [
						{
							"internalType": "address",
							"name": "",
							"type": "address"
						}
					],
					"stateMutability": "view",
					"type": "function"
				},
				{
					"inputs": [
						{
							"internalType": "uint256",
							"name": "",
							"type": "uint256"
						}
					],
					"name": "services",
					"outputs": [
						{
							"internalType": "contract Subscription",
							"name": "",
							"type": "address"
						}
					],
					"stateMutability": "view",
					"type": "function"
				}
			],
			"devdoc": {
				"kind": "dev",
				"methods": {},
				"version": 1
			},
			"evm": {
				"assembly": "    /* \"subservicebatch.sol\":181:618  contract BatchDeploySubscriptions {... */\n  mstore(0x40, 0x80)\n  callvalue\n  dup1\n  iszero\n  tag_1\n  jumpi\n  0x00\n  dup1\n  revert\ntag_1:\n  pop\n  dataSize(sub_0)\n  dup1\n  dataOffset(sub_0)\n  0x00\n  codecopy\n  0x00\n  return\nstop\n\nsub_0: assembly {\n        /* \"subservicebatch.sol\":181:618  contract BatchDeploySubscriptions {... */\n      mstore(0x40, 0x80)\n      callvalue\n      dup1\n      iszero\n      tag_1\n      jumpi\n      0x00\n      dup1\n      revert\n    tag_1:\n      pop\n      jumpi(tag_2, lt(calldatasize, 0x04))\n      shr(0xe0, calldataload(0x00))\n      dup1\n      0x2d823335\n      eq\n      tag_3\n      jumpi\n      dup1\n      0x9507d39a\n      eq\n      tag_4\n      jumpi\n      dup1\n      0xc22c4f43\n      eq\n      tag_5\n      jumpi\n    tag_2:\n      0x00\n      dup1\n      revert\n        /* \"subservicebatch.sol\":261:502  function deployAll() public {... */\n    tag_3:\n      tag_6\n      tag_7\n      jump\t// in\n    tag_6:\n      stop\n        /* \"subservicebatch.sol\":510:615  function get(uint index) public view returns (address) {... */\n    tag_4:\n      tag_8\n      tag_9\n      calldatasize\n      0x04\n      tag_10\n      jump\t// in\n    tag_9:\n      tag_11\n      jump\t// in\n    tag_8:\n      mload(0x40)\n      sub(shl(0xa0, 0x01), 0x01)\n        /* \"#utility.yul\":363:395   */\n      swap1\n      swap2\n      and\n        /* \"#utility.yul\":345:396   */\n      dup2\n      mstore\n        /* \"#utility.yul\":333:335   */\n      0x20\n        /* \"#utility.yul\":318:336   */\n      add\n        /* \"subservicebatch.sol\":510:615  function get(uint index) public view returns (address) {... */\n      mload(0x40)\n      dup1\n      swap2\n      sub\n      swap1\n      return\n        /* \"subservicebatch.sol\":222:252  Subscription[] public services */\n    tag_5:\n      tag_8\n      tag_15\n      calldatasize\n      0x04\n      tag_10\n      jump\t// in\n    tag_15:\n      tag_16\n      jump\t// in\n        /* \"subservicebatch.sol\":261:502  function deployAll() public {... */\n    tag_7:\n        /* \"subservicebatch.sol\":308:316  services */\n      0x00\n        /* \"subservicebatch.sol\":308:323  services.length */\n      sload\n        /* \"subservicebatch.sol\":308:328  services.length == 0 */\n      iszero\n        /* \"subservicebatch.sol\":300:349  require(services.length == 0, \"Already deployed\") */\n      tag_20\n      jumpi\n      mload(0x40)\n      shl(0xe5, 0x461bcd)\n      dup2\n      mstore\n        /* \"#utility.yul\":836:838   */\n      0x20\n        /* \"subservicebatch.sol\":300:349  require(services.length == 0, \"Already deployed\") */\n      0x04\n      dup3\n      add\n        /* \"#utility.yul\":818:839   */\n      mstore\n        /* \"#utility.yul\":875:877   */\n      0x10\n        /* \"#utility.yul\":855:873   */\n      0x24\n      dup3\n      add\n        /* \"#utility.yul\":848:878   */\n      mstore\n      shl(0x82, 0x105b1c9958591e4819195c1b1bde5959)\n        /* \"#utility.yul\":894:912   */\n      0x44\n      dup3\n      add\n        /* \"#utility.yul\":887:933   */\n      mstore\n        /* \"#utility.yul\":950:968   */\n      0x64\n      add\n        /* \"subservicebatch.sol\":300:349  require(services.length == 0, \"Already deployed\") */\n      mload(0x40)\n      dup1\n      swap2\n      sub\n      swap1\n      revert\n    tag_20:\n        /* \"subservicebatch.sol\":374:375  1 */\n      0x01\n        /* \"subservicebatch.sol\":360:495  for (uint i = 1; i <= 120; i++) {... */\n    tag_23:\n        /* \"subservicebatch.sol\":382:385  120 */\n      0x78\n        /* \"subservicebatch.sol\":377:378  i */\n      dup2\n        /* \"subservicebatch.sol\":377:385  i <= 120 */\n      gt\n        /* \"subservicebatch.sol\":360:495  for (uint i = 1; i <= 120; i++) {... */\n      tag_24\n      jumpi\n        /* \"subservicebatch.sol\":407:421  Subscription s */\n      0x00\n        /* \"subservicebatch.sol\":441:451  0.01 ether */\n      0x2386f26fc10000\n        /* \"subservicebatch.sol\":424:452  new Subscription(0.01 ether) */\n      mload(0x40)\n      tag_26\n      swap1\n      tag_27\n      jump\t// in\n    tag_26:\n        /* \"#utility.yul\":1149:1174   */\n      swap1\n      dup2\n      mstore\n        /* \"#utility.yul\":1137:1139   */\n      0x20\n        /* \"#utility.yul\":1122:1140   */\n      add\n        /* \"subservicebatch.sol\":424:452  new Subscription(0.01 ether) */\n      mload(0x40)\n      dup1\n      swap2\n      sub\n      swap1\n      0x00\n      create\n      dup1\n      iszero\n      dup1\n      iszero\n      tag_30\n      jumpi\n      returndatasize\n      0x00\n      dup1\n      returndatacopy\n      revert(0x00, returndatasize)\n    tag_30:\n      pop\n        /* \"subservicebatch.sol\":467:475  services */\n      0x00\n        /* \"subservicebatch.sol\":467:483  services.push(s) */\n      dup1\n      sload\n      0x01\n      dup2\n      add\n      dup3\n      sstore\n      swap1\n      dup1\n      mstore\n      0x290decd9548b62a8d60345a988386fc84ba6bc95484008f6362f93160ef3e563\n      add\n      dup1\n      sload\n      not(sub(shl(0xa0, 0x01), 0x01))\n      and\n      sub(shl(0xa0, 0x01), 0x01)\n      swap3\n      swap1\n      swap3\n      and\n      swap2\n      swap1\n      swap2\n      or\n      swap1\n      sstore\n      pop\n        /* \"subservicebatch.sol\":387:390  i++ */\n      dup1\n      tag_32\n      dup2\n      tag_33\n      jump\t// in\n    tag_32:\n      swap2\n      pop\n      pop\n        /* \"subservicebatch.sol\":360:495  for (uint i = 1; i <= 120; i++) {... */\n      jump(tag_23)\n    tag_24:\n      pop\n        /* \"subservicebatch.sol\":261:502  function deployAll() public {... */\n      jump\t// out\n        /* \"subservicebatch.sol\":510:615  function get(uint index) public view returns (address) {... */\n    tag_11:\n        /* \"subservicebatch.sol\":556:563  address */\n      0x00\n        /* \"subservicebatch.sol\":591:599  services */\n      dup1\n        /* \"subservicebatch.sol\":600:605  index */\n      dup3\n        /* \"subservicebatch.sol\":591:606  services[index] */\n      dup2\n      sload\n      dup2\n      lt\n      tag_36\n      jumpi\n      tag_36\n      tag_37\n      jump\t// in\n    tag_36:\n      0x00\n      swap2\n      dup3\n      mstore\n      0x20\n      swap1\n      swap2\n      keccak256\n      add\n      sload\n      sub(shl(0xa0, 0x01), 0x01)\n      and\n      swap3\n        /* \"subservicebatch.sol\":510:615  function get(uint index) public view returns (address) {... */\n      swap2\n      pop\n      pop\n      jump\t// out\n        /* \"subservicebatch.sol\":222:252  Subscription[] public services */\n    tag_16:\n      0x00\n      dup2\n      dup2\n      sload\n      dup2\n      lt\n      tag_39\n      jumpi\n      0x00\n      dup1\n      revert\n    tag_39:\n      0x00\n      swap2\n      dup3\n      mstore\n      0x20\n      swap1\n      swap2\n      keccak256\n      add\n      sload\n      sub(shl(0xa0, 0x01), 0x01)\n      and\n      swap1\n      pop\n      dup2\n      jump\t// out\n    tag_27:\n      dataSize(sub_0)\n      dup1\n      dataOffset(sub_0)\n      dup4\n      codecopy\n      add\n      swap1\n      jump\t// out\n        /* \"#utility.yul\":14:194   */\n    tag_10:\n        /* \"#utility.yul\":73:79   */\n      0x00\n        /* \"#utility.yul\":126:128   */\n      0x20\n        /* \"#utility.yul\":114:123   */\n      dup3\n        /* \"#utility.yul\":105:112   */\n      dup5\n        /* \"#utility.yul\":101:124   */\n      sub\n        /* \"#utility.yul\":97:129   */\n      slt\n        /* \"#utility.yul\":94:146   */\n      iszero\n      tag_43\n      jumpi\n        /* \"#utility.yul\":142:143   */\n      0x00\n        /* \"#utility.yul\":139:140   */\n      dup1\n        /* \"#utility.yul\":132:144   */\n      revert\n        /* \"#utility.yul\":94:146   */\n    tag_43:\n      pop\n        /* \"#utility.yul\":165:188   */\n      calldataload\n      swap2\n        /* \"#utility.yul\":14:194   */\n      swap1\n      pop\n      jump\t// out\n        /* \"#utility.yul\":1185:1417   */\n    tag_33:\n        /* \"#utility.yul\":1224:1227   */\n      0x00\n        /* \"#utility.yul\":1245:1262   */\n      0x01\n      dup3\n      add\n        /* \"#utility.yul\":1242:1382   */\n      tag_49\n      jumpi\n        /* \"#utility.yul\":1304:1314   */\n      0x4e487b71\n        /* \"#utility.yul\":1299:1302   */\n      0xe0\n        /* \"#utility.yul\":1295:1315   */\n      shl\n        /* \"#utility.yul\":1292:1293   */\n      0x00\n        /* \"#utility.yul\":1285:1316   */\n      mstore\n        /* \"#utility.yul\":1339:1343   */\n      0x11\n        /* \"#utility.yul\":1336:1337   */\n      0x04\n        /* \"#utility.yul\":1329:1344   */\n      mstore\n        /* \"#utility.yul\":1367:1371   */\n      0x24\n        /* \"#utility.yul\":1364:1365   */\n      0x00\n        /* \"#utility.yul\":1357:1372   */\n      revert\n        /* \"#utility.yul\":1242:1382   */\n    tag_49:\n      pop\n        /* \"#utility.yul\":1409:1410   */\n      0x01\n        /* \"#utility.yul\":1398:1411   */\n      add\n      swap1\n        /* \"#utility.yul\":1185:1417   */\n      jump\t// out\n        /* \"#utility.yul\":1422:1549   */\n    tag_37:\n        /* \"#utility.yul\":1483:1493   */\n      0x4e487b71\n        /* \"#utility.yul\":1478:1481   */\n      0xe0\n        /* \"#utility.yul\":1474:1494   */\n      shl\n        /* \"#utility.yul\":1471:1472   */\n      0x00\n        /* \"#utility.yul\":1464:1495   */\n      mstore\n        /* \"#utility.yul\":1514:1518   */\n      0x32\n        /* \"#utility.yul\":1511:1512   */\n      0x04\n        /* \"#utility.yul\":1504:1519   */\n      mstore\n        /* \"#utility.yul\":1538:1542   */\n      0x24\n        /* \"#utility.yul\":1535:1536   */\n      0x00\n        /* \"#utility.yul\":1528:1543   */\n      revert\n    stop\n\n    sub_0: assembly {\n            /* \"subservicebatch.sol\":61:177  contract Subscription {... */\n          mstore(0x40, 0x80)\n            /* \"subservicebatch.sol\":116:174  constructor(uint _price) {... */\n          callvalue\n          dup1\n          iszero\n          tag_1\n          jumpi\n          0x00\n          dup1\n          revert\n        tag_1:\n          pop\n          mload(0x40)\n          sub(codesize, bytecodeSize)\n          dup1\n          bytecodeSize\n          dup4\n          codecopy\n          dup2\n          add\n          0x40\n          dup2\n          swap1\n          mstore\n          tag_2\n          swap2\n          tag_3\n          jump\t// in\n        tag_2:\n            /* \"subservicebatch.sol\":152:157  price */\n          0x00\n            /* \"subservicebatch.sol\":152:166  price = _price */\n          sstore\n            /* \"subservicebatch.sol\":61:177  contract Subscription {... */\n          jump(tag_7)\n            /* \"#utility.yul\":14:198   */\n        tag_3:\n            /* \"#utility.yul\":84:90   */\n          0x00\n            /* \"#utility.yul\":137:139   */\n          0x20\n            /* \"#utility.yul\":125:134   */\n          dup3\n            /* \"#utility.yul\":116:123   */\n          dup5\n            /* \"#utility.yul\":112:135   */\n          sub\n            /* \"#utility.yul\":108:140   */\n          slt\n            /* \"#utility.yul\":105:157   */\n          iszero\n          tag_9\n          jumpi\n            /* \"#utility.yul\":153:154   */\n          0x00\n            /* \"#utility.yul\":150:151   */\n          dup1\n            /* \"#utility.yul\":143:155   */\n          revert\n            /* \"#utility.yul\":105:157   */\n        tag_9:\n          pop\n            /* \"#utility.yul\":176:192   */\n          mload\n          swap2\n            /* \"#utility.yul\":14:198   */\n          swap1\n          pop\n          jump\t// out\n        tag_7:\n            /* \"subservicebatch.sol\":61:177  contract Subscription {... */\n          dataSize(sub_0)\n          dup1\n          dataOffset(sub_0)\n          0x00\n          codecopy\n          0x00\n          return\n        stop\n\n        sub_0: assembly {\n                /* \"subservicebatch.sol\":61:177  contract Subscription {... */\n              mstore(0x40, 0x80)\n              callvalue\n              dup1\n              iszero\n              tag_1\n              jumpi\n              0x00\n              dup1\n              revert\n            tag_1:\n              pop\n              jumpi(tag_2, lt(calldatasize, 0x04))\n              shr(0xe0, calldataload(0x00))\n              dup1\n              0xa035b1fe\n              eq\n              tag_3\n              jumpi\n            tag_2:\n              0x00\n              dup1\n              revert\n                /* \"subservicebatch.sol\":90:107  uint public price */\n            tag_3:\n              tag_4\n              sload(0x00)\n              dup2\n              jump\n            tag_4:\n              mload(0x40)\n                /* \"#utility.yul\":160:185   */\n              swap1\n              dup2\n              mstore\n                /* \"#utility.yul\":148:150   */\n              0x20\n                /* \"#utility.yul\":133:151   */\n              add\n                /* \"subservicebatch.sol\":90:107  uint public price */\n              mload(0x40)\n              dup1\n              swap2\n              sub\n              swap1\n              return\n\n            auxdata: 0xa2646970667358221220cdad7a879042801941ab8bd59e6be4e5b5841808f543cab6423e66f44388e96b64736f6c634300081a0033\n        }\n    }\n\n    auxdata: 0xa264697066735822122016a5844387aec96f542146c33a0c83c29b91e7be0d1d597835b24d2a63e10def64736f6c634300081a0033\n}\n",
				"bytecode": {
					"linkReferences": {},
					"object": "6080604052348015600e575f80fd5b506103258061001c5f395ff3fe608060405234801561000f575f80fd5b506004361061003f575f3560e01c80632d823335146100435780639507d39a1461004d578063c22c4f431461007c575b5f80fd5b61004b61008f565b005b61006061005b3660046101d7565b610177565b6040516001600160a01b03909116815260200160405180910390f35b61006061008a3660046101d7565b6101a4565b5f54156100d55760405162461bcd60e51b815260206004820152601060248201526f105b1c9958591e4819195c1b1bde595960821b604482015260640160405180910390fd5b60015b60788111610174575f662386f26fc100006040516100f5906101cb565b908152602001604051809103905ff080158015610114573d5f803e3d5ffd5b505f80546001810182559080527f290decd9548b62a8d60345a988386fc84ba6bc95484008f6362f93160ef3e5630180546001600160a01b0319166001600160a01b0392909216919091179055508061016c816101ee565b9150506100d8565b50565b5f80828154811061018a5761018a610212565b5f918252602090912001546001600160a01b031692915050565b5f81815481106101b2575f80fd5b5f918252602090912001546001600160a01b0316905081565b60c98061022783390190565b5f602082840312156101e7575f80fd5b5035919050565b5f6001820161020b57634e487b7160e01b5f52601160045260245ffd5b5060010190565b634e487b7160e01b5f52603260045260245ffdfe6080604052348015600e575f80fd5b5060405160c938038060c9833981016040819052602991602f565b5f556045565b5f60208284031215603e575f80fd5b5051919050565b60798060505f395ff3fe6080604052348015600e575f80fd5b50600436106026575f3560e01c8063a035b1fe14602a575b5f80fd5b60315f5481565b60405190815260200160405180910390f3fea2646970667358221220cdad7a879042801941ab8bd59e6be4e5b5841808f543cab6423e66f44388e96b64736f6c634300081a0033a264697066735822122016a5844387aec96f542146c33a0c83c29b91e7be0d1d597835b24d2a63e10def64736f6c634300081a0033",
					"opcodes": "PUSH1 0x80 PUSH1 0x40 MSTORE CALLVALUE DUP1 ISZERO PUSH1 0xE JUMPI PUSH0 DUP1 REVERT JUMPDEST POP PUSH2 0x325 DUP1 PUSH2 0x1C PUSH0 CODECOPY PUSH0 RETURN INVALID PUSH1 0x80 PUSH1 0x40 MSTORE CALLVALUE DUP1 ISZERO PUSH2 0xF JUMPI PUSH0 DUP1 REVERT JUMPDEST POP PUSH1 0x4 CALLDATASIZE LT PUSH2 0x3F JUMPI PUSH0 CALLDATALOAD PUSH1 0xE0 SHR DUP1 PUSH4 0x2D823335 EQ PUSH2 0x43 JUMPI DUP1 PUSH4 0x9507D39A EQ PUSH2 0x4D JUMPI DUP1 PUSH4 0xC22C4F43 EQ PUSH2 0x7C JUMPI JUMPDEST PUSH0 DUP1 REVERT JUMPDEST PUSH2 0x4B PUSH2 0x8F JUMP JUMPDEST STOP JUMPDEST PUSH2 0x60 PUSH2 0x5B CALLDATASIZE PUSH1 0x4 PUSH2 0x1D7 JUMP JUMPDEST PUSH2 0x177 JUMP JUMPDEST PUSH1 0x40 MLOAD PUSH1 0x1 PUSH1 0x1 PUSH1 0xA0 SHL SUB SWAP1 SWAP2 AND DUP2 MSTORE PUSH1 0x20 ADD PUSH1 0x40 MLOAD DUP1 SWAP2 SUB SWAP1 RETURN JUMPDEST PUSH2 0x60 PUSH2 0x8A CALLDATASIZE PUSH1 0x4 PUSH2 0x1D7 JUMP JUMPDEST PUSH2 0x1A4 JUMP JUMPDEST PUSH0 SLOAD ISZERO PUSH2 0xD5 JUMPI PUSH1 0x40 MLOAD PUSH3 0x461BCD PUSH1 0xE5 SHL DUP2 MSTORE PUSH1 0x20 PUSH1 0x4 DUP3 ADD MSTORE PUSH1 0x10 PUSH1 0x24 DUP3 ADD MSTORE PUSH16 0x105B1C9958591E4819195C1B1BDE5959 PUSH1 0x82 SHL PUSH1 0x44 DUP3 ADD MSTORE PUSH1 0x64 ADD PUSH1 0x40 MLOAD DUP1 SWAP2 SUB SWAP1 REVERT JUMPDEST PUSH1 0x1 JUMPDEST PUSH1 0x78 DUP2 GT PUSH2 0x174 JUMPI PUSH0 PUSH7 0x2386F26FC10000 PUSH1 0x40 MLOAD PUSH2 0xF5 SWAP1 PUSH2 0x1CB JUMP JUMPDEST SWAP1 DUP2 MSTORE PUSH1 0x20 ADD PUSH1 0x40 MLOAD DUP1 SWAP2 SUB SWAP1 PUSH0 CREATE DUP1 ISZERO DUP1 ISZERO PUSH2 0x114 JUMPI RETURNDATASIZE PUSH0 DUP1 RETURNDATACOPY RETURNDATASIZE PUSH0 REVERT JUMPDEST POP PUSH0 DUP1 SLOAD PUSH1 0x1 DUP2 ADD DUP3 SSTORE SWAP1 DUP1 MSTORE PUSH32 0x290DECD9548B62A8D60345A988386FC84BA6BC95484008F6362F93160EF3E563 ADD DUP1 SLOAD PUSH1 0x1 PUSH1 0x1 PUSH1 0xA0 SHL SUB NOT AND PUSH1 0x1 PUSH1 0x1 PUSH1 0xA0 SHL SUB SWAP3 SWAP1 SWAP3 AND SWAP2 SWAP1 SWAP2 OR SWAP1 SSTORE POP DUP1 PUSH2 0x16C DUP2 PUSH2 0x1EE JUMP JUMPDEST SWAP2 POP POP PUSH2 0xD8 JUMP JUMPDEST POP JUMP JUMPDEST PUSH0 DUP1 DUP3 DUP2 SLOAD DUP2 LT PUSH2 0x18A JUMPI PUSH2 0x18A PUSH2 0x212 JUMP JUMPDEST PUSH0 SWAP2 DUP3 MSTORE PUSH1 0x20 SWAP1 SWAP2 KECCAK256 ADD SLOAD PUSH1 0x1 PUSH1 0x1 PUSH1 0xA0 SHL SUB AND SWAP3 SWAP2 POP POP JUMP JUMPDEST PUSH0 DUP2 DUP2 SLOAD DUP2 LT PUSH2 0x1B2 JUMPI PUSH0 DUP1 REVERT JUMPDEST PUSH0 SWAP2 DUP3 MSTORE PUSH1 0x20 SWAP1 SWAP2 KECCAK256 ADD SLOAD PUSH1 0x1 PUSH1 0x1 PUSH1 0xA0 SHL SUB AND SWAP1 POP DUP2 JUMP JUMPDEST PUSH1 0xC9 DUP1 PUSH2 0x227 DUP4 CODECOPY ADD SWAP1 JUMP JUMPDEST PUSH0 PUSH1 0x20 DUP3 DUP5 SUB SLT ISZERO PUSH2 0x1E7 JUMPI PUSH0 DUP1 REVERT JUMPDEST POP CALLDATALOAD SWAP2 SWAP1 POP JUMP JUMPDEST PUSH0 PUSH1 0x1 DUP3 ADD PUSH2 0x20B JUMPI PUSH4 0x4E487B71 PUSH1 0xE0 SHL PUSH0 MSTORE PUSH1 0x11 PUSH1 0x4 MSTORE PUSH1 0x24 PUSH0 REVERT JUMPDEST POP PUSH1 0x1 ADD SWAP1 JUMP JUMPDEST PUSH4 0x4E487B71 PUSH1 0xE0 SHL PUSH0 MSTORE PUSH1 0x32 PUSH1 0x4 MSTORE PUSH1 0x24 PUSH0 REVERT INVALID PUSH1 0x80 PUSH1 0x40 MSTORE CALLVALUE DUP1 ISZERO PUSH1 0xE JUMPI PUSH0 DUP1 REVERT JUMPDEST POP PUSH1 0x40 MLOAD PUSH1 0xC9 CODESIZE SUB DUP1 PUSH1 0xC9 DUP4 CODECOPY DUP2 ADD PUSH1 0x40 DUP2 SWAP1 MSTORE PUSH1 0x29 SWAP2 PUSH1 0x2F JUMP JUMPDEST PUSH0 SSTORE PUSH1 0x45 JUMP JUMPDEST PUSH0 PUSH1 0x20 DUP3 DUP5 SUB SLT ISZERO PUSH1 0x3E JUMPI PUSH0 DUP1 REVERT JUMPDEST POP MLOAD SWAP2 SWAP1 POP JUMP JUMPDEST PUSH1 0x79 DUP1 PUSH1 0x50 PUSH0 CODECOPY PUSH0 RETURN INVALID PUSH1 0x80 PUSH1 0x40 MSTORE CALLVALUE DUP1 ISZERO PUSH1 0xE JUMPI PUSH0 DUP1 REVERT JUMPDEST POP PUSH1 0x4 CALLDATASIZE LT PUSH1 0x26 JUMPI PUSH0 CALLDATALOAD PUSH1 0xE0 SHR DUP1 PUSH4 0xA035B1FE EQ PUSH1 0x2A JUMPI JUMPDEST PUSH0 DUP1 REVERT JUMPDEST PUSH1 0x31 PUSH0 SLOAD DUP2 JUMP JUMPDEST PUSH1 0x40 MLOAD SWAP1 DUP2 MSTORE PUSH1 0x20 ADD PUSH1 0x40 MLOAD DUP1 SWAP2 SUB SWAP1 RETURN INVALID LOG2 PUSH5 0x6970667358 0x22 SLT KECCAK256 0xCD 0xAD PUSH27 0x879042801941AB8BD59E6BE4E5B5841808F543CAB6423E66F44388 0xE9 PUSH12 0x64736F6C634300081A0033A2 PUSH5 0x6970667358 0x22 SLT KECCAK256 AND 0xA5 DUP5 NUMBER DUP8 0xAE 0xC9 PUSH16 0x542146C33A0C83C29B91E7BE0D1D5978 CALLDATALOAD 0xB2 0x4D 0x2A PUSH4 0xE10DEF64 PUSH20 0x6F6C634300081A00330000000000000000000000 "
				},
				"gasEstimates": {
					"creation": {
						"codeDepositCost": "161000",
						"executionCost": "206",
						"totalCost": "161206"
					},
					"external": {
						"deployAll()": "infinite",
						"get(uint256)": "4603",
						"services(uint256)": "4620"
					}
				},
				"methodIdentifiers": {
					"deployAll()": "2d823335",
					"get(uint256)": "9507d39a",
					"services(uint256)": "c22c4f43"
				}
			},
			"storageLayout": {
				"storage": [
					{
						"astId": 18,
						"contract": "subservicebatch.sol:BatchDeploySubscriptions",
						"label": "services",
						"offset": 0,
						"slot": "0",
						"type": "t_array(t_contract(Subscription)14)dyn_storage"
					}
				],
				"types": {
					"t_array(t_contract(Subscription)14)dyn_storage": {
						"base": "t_contract(Subscription)14",
						"encoding": "dynamic_array",
						"label": "contract Subscription[]",
						"numberOfBytes": "32"
					},
					"t_contract(Subscription)14": {
						"encoding": "inplace",
						"label": "contract Subscription",
						"numberOfBytes": "20"
					}
				}
			},
			"userdoc": {
				"kind": "user",
				"methods": {},
				"version": 1
			}
		}
	}
}