{
	"MessageBox.sol": {
		"MessageBox": {
			"abi": [
				{
					"inputs": [
						{
							"internalType": "string",
							"name": "_initialMessage",
							"type": "string"
						}
					],
					"stateMutability": "nonpayable",
					"type": "constructor"
				},
				{
					"inputs": [],
					"name": "message",
					"outputs": [
						{
							"internalType": "string",
							"name": "",
							"type": "string"
						}
					],
					"stateMutability": "view",
					"type": "function"
				},
				{
					"inputs": [],
					"name": "owner",
					"outputs": [
						{
							"internalType": "address",
							"name": "",
							"type": "address"
						}
					],
					"stateMutability": "view",
					"type": "function"
				},
				{
					"inputs": [
						{
							"internalType": "string",
							"name": "_newMessage",
							"type": "string"
						}
					],
					"name": "updateMessage",
					"outputs": [],
					"stateMutability": "nonpayable",
					"type": "function"
				}
			],
			"devdoc": {
				"kind": "dev",
				"methods": {},
				"version": 1
			},
			"evm": {
				"assembly": "    /* \"MessageBox.sol\":61:433  contract MessageBox {... */\n  mstore(0x40, 0x80)\n    /* \"MessageBox.sol\":145:261  constructor(string memory _initialMessage) {... */\n  callvalue\n  dup1\n  iszero\n  tag_1\n  jumpi\n  0x00\n  dup1\n  revert\ntag_1:\n  pop\n  mload(0x40)\n  sub(codesize, bytecodeSize)\n  dup1\n  bytecodeSize\n  dup4\n  codecopy\n  dup2\n  add\n  0x40\n  dup2\n  swap1\n  mstore\n  tag_2\n  swap2\n  tag_3\n  jump\t// in\ntag_2:\n    /* \"MessageBox.sol\":199:206  message */\n  0x00\n    /* \"MessageBox.sol\":199:224  message = _initialMessage */\n  tag_6\n    /* \"MessageBox.sol\":209:224  _initialMessage */\n  dup3\n    /* \"MessageBox.sol\":199:206  message */\n  dup3\n    /* \"MessageBox.sol\":199:224  message = _initialMessage */\n  tag_7\n  jump\t// in\ntag_6:\n  pop\n  pop\n    /* \"MessageBox.sol\":235:240  owner */\n  0x01\n    /* \"MessageBox.sol\":235:253  owner = msg.sender */\n  dup1\n  sload\n  not(sub(shl(0xa0, 0x01), 0x01))\n  and\n    /* \"MessageBox.sol\":243:253  msg.sender */\n  caller\n    /* \"MessageBox.sol\":235:253  owner = msg.sender */\n  or\n  swap1\n  sstore\n    /* \"MessageBox.sol\":61:433  contract MessageBox {... */\n  jump(tag_14)\n    /* \"#utility.yul\":14:141   */\ntag_9:\n    /* \"#utility.yul\":75:85   */\n  0x4e487b71\n    /* \"#utility.yul\":70:73   */\n  0xe0\n    /* \"#utility.yul\":66:86   */\n  shl\n    /* \"#utility.yul\":63:64   */\n  0x00\n    /* \"#utility.yul\":56:87   */\n  mstore\n    /* \"#utility.yul\":106:110   */\n  0x41\n    /* \"#utility.yul\":103:104   */\n  0x04\n    /* \"#utility.yul\":96:111   */\n  mstore\n    /* \"#utility.yul\":130:134   */\n  0x24\n    /* \"#utility.yul\":127:128   */\n  0x00\n    /* \"#utility.yul\":120:135   */\n  revert\n    /* \"#utility.yul\":146:1081   */\ntag_3:\n    /* \"#utility.yul\":226:232   */\n  0x00\n    /* \"#utility.yul\":279:281   */\n  0x20\n    /* \"#utility.yul\":267:276   */\n  dup3\n    /* \"#utility.yul\":258:265   */\n  dup5\n    /* \"#utility.yul\":254:277   */\n  sub\n    /* \"#utility.yul\":250:282   */\n  slt\n    /* \"#utility.yul\":247:299   */\n  iszero\n  tag_17\n  jumpi\n    /* \"#utility.yul\":295:296   */\n  0x00\n    /* \"#utility.yul\":292:293   */\n  dup1\n    /* \"#utility.yul\":285:297   */\n  revert\n    /* \"#utility.yul\":247:299   */\ntag_17:\n    /* \"#utility.yul\":322:338   */\n  dup2\n  mload\n  sub(shl(0x40, 0x01), 0x01)\n    /* \"#utility.yul\":350:380   */\n  dup2\n  gt\n    /* \"#utility.yul\":347:397   */\n  iszero\n  tag_18\n  jumpi\n    /* \"#utility.yul\":393:394   */\n  0x00\n    /* \"#utility.yul\":390:391   */\n  dup1\n    /* \"#utility.yul\":383:395   */\n  revert\n    /* \"#utility.yul\":347:397   */\ntag_18:\n    /* \"#utility.yul\":416:438   */\n  dup3\n  add\n    /* \"#utility.yul\":469:473   */\n  0x1f\n    /* \"#utility.yul\":461:474   */\n  dup2\n  add\n    /* \"#utility.yul\":457:484   */\n  dup5\n  sgt\n    /* \"#utility.yul\":447:502   */\n  tag_19\n  jumpi\n    /* \"#utility.yul\":498:499   */\n  0x00\n    /* \"#utility.yul\":495:496   */\n  dup1\n    /* \"#utility.yul\":488:500   */\n  revert\n    /* \"#utility.yul\":447:502   */\ntag_19:\n    /* \"#utility.yul\":525:534   */\n  dup1\n  mload\n  sub(shl(0x40, 0x01), 0x01)\n    /* \"#utility.yul\":546:576   */\n  dup2\n  gt\n    /* \"#utility.yul\":543:599   */\n  iszero\n  tag_21\n  jumpi\n    /* \"#utility.yul\":579:597   */\n  tag_21\n  tag_9\n  jump\t// in\ntag_21:\n    /* \"#utility.yul\":628:630   */\n  0x40\n    /* \"#utility.yul\":622:631   */\n  mload\n    /* \"#utility.yul\":720:722   */\n  0x1f\n    /* \"#utility.yul\":682:699   */\n  dup3\n  add\n  not(0x1f)\n    /* \"#utility.yul\":678:709   */\n  swap1\n  dup2\n  and\n    /* \"#utility.yul\":711:713   */\n  0x3f\n    /* \"#utility.yul\":674:714   */\n  add\n    /* \"#utility.yul\":670:724   */\n  and\n    /* \"#utility.yul\":658:725   */\n  dup2\n  add\n  sub(shl(0x40, 0x01), 0x01)\n    /* \"#utility.yul\":740:774   */\n  dup2\n  gt\n    /* \"#utility.yul\":776:798   */\n  dup3\n  dup3\n  lt\n    /* \"#utility.yul\":737:799   */\n  or\n    /* \"#utility.yul\":734:822   */\n  iszero\n  tag_23\n  jumpi\n    /* \"#utility.yul\":802:820   */\n  tag_23\n  tag_9\n  jump\t// in\ntag_23:\n    /* \"#utility.yul\":838:840   */\n  0x40\n    /* \"#utility.yul\":831:853   */\n  mstore\n    /* \"#utility.yul\":862:884   */\n  dup2\n  dup2\n  mstore\n    /* \"#utility.yul\":903:918   */\n  dup3\n  dup3\n  add\n    /* \"#utility.yul\":920:922   */\n  0x20\n    /* \"#utility.yul\":899:923   */\n  add\n    /* \"#utility.yul\":896:933   */\n  dup7\n  lt\n    /* \"#utility.yul\":893:950   */\n  iszero\n  tag_24\n  jumpi\n    /* \"#utility.yul\":946:947   */\n  0x00\n    /* \"#utility.yul\":943:944   */\n  dup1\n    /* \"#utility.yul\":936:948   */\n  revert\n    /* \"#utility.yul\":893:950   */\ntag_24:\n    /* \"#utility.yul\":995:1001   */\n  dup2\n    /* \"#utility.yul\":990:992   */\n  0x20\n    /* \"#utility.yul\":986:988   */\n  dup5\n    /* \"#utility.yul\":982:993   */\n  add\n    /* \"#utility.yul\":977:979   */\n  0x20\n    /* \"#utility.yul\":969:975   */\n  dup4\n    /* \"#utility.yul\":965:980   */\n  add\n    /* \"#utility.yul\":959:1002   */\n  mcopy\n    /* \"#utility.yul\":1048:1049   */\n  0x00\n    /* \"#utility.yul\":1022:1041   */\n  swap2\n  dup2\n  add\n    /* \"#utility.yul\":1043:1045   */\n  0x20\n    /* \"#utility.yul\":1018:1046   */\n  add\n    /* \"#utility.yul\":1011:1050   */\n  swap2\n  swap1\n  swap2\n  mstore\n    /* \"#utility.yul\":1026:1032   */\n  swap5\n    /* \"#utility.yul\":146:1081   */\n  swap4\n  pop\n  pop\n  pop\n  pop\n  jump\t// out\n    /* \"#utility.yul\":1086:1466   */\ntag_10:\n    /* \"#utility.yul\":1165:1166   */\n  0x01\n    /* \"#utility.yul\":1161:1173   */\n  dup2\n  dup2\n  shr\n  swap1\n    /* \"#utility.yul\":1208:1220   */\n  dup3\n  and\n  dup1\n    /* \"#utility.yul\":1229:1290   */\n  tag_26\n  jumpi\n    /* \"#utility.yul\":1283:1287   */\n  0x7f\n    /* \"#utility.yul\":1275:1281   */\n  dup3\n    /* \"#utility.yul\":1271:1288   */\n  and\n    /* \"#utility.yul\":1261:1288   */\n  swap2\n  pop\n    /* \"#utility.yul\":1229:1290   */\ntag_26:\n    /* \"#utility.yul\":1336:1338   */\n  0x20\n    /* \"#utility.yul\":1328:1334   */\n  dup3\n    /* \"#utility.yul\":1325:1339   */\n  lt\n    /* \"#utility.yul\":1305:1323   */\n  dup2\n    /* \"#utility.yul\":1302:1340   */\n  sub\n    /* \"#utility.yul\":1299:1460   */\n  tag_27\n  jumpi\n    /* \"#utility.yul\":1382:1392   */\n  0x4e487b71\n    /* \"#utility.yul\":1377:1380   */\n  0xe0\n    /* \"#utility.yul\":1373:1393   */\n  shl\n    /* \"#utility.yul\":1370:1371   */\n  0x00\n    /* \"#utility.yul\":1363:1394   */\n  mstore\n    /* \"#utility.yul\":1417:1421   */\n  0x22\n    /* \"#utility.yul\":1414:1415   */\n  0x04\n    /* \"#utility.yul\":1407:1422   */\n  mstore\n    /* \"#utility.yul\":1445:1449   */\n  0x24\n    /* \"#utility.yul\":1442:1443   */\n  0x00\n    /* \"#utility.yul\":1435:1450   */\n  revert\n    /* \"#utility.yul\":1299:1460   */\ntag_27:\n  pop\n    /* \"#utility.yul\":1086:1466   */\n  swap2\n  swap1\n  pop\n  jump\t// out\n    /* \"#utility.yul\":1597:2115   */\ntag_12:\n    /* \"#utility.yul\":1699:1701   */\n  0x1f\n    /* \"#utility.yul\":1694:1697   */\n  dup3\n    /* \"#utility.yul\":1691:1702   */\n  gt\n    /* \"#utility.yul\":1688:2109   */\n  iszero\n  tag_30\n  jumpi\n    /* \"#utility.yul\":1735:1740   */\n  dup1\n    /* \"#utility.yul\":1732:1733   */\n  0x00\n    /* \"#utility.yul\":1725:1741   */\n  mstore\n    /* \"#utility.yul\":1779:1783   */\n  0x20\n    /* \"#utility.yul\":1776:1777   */\n  0x00\n    /* \"#utility.yul\":1766:1784   */\n  keccak256\n    /* \"#utility.yul\":1849:1851   */\n  0x1f\n    /* \"#utility.yul\":1837:1847   */\n  dup5\n    /* \"#utility.yul\":1833:1852   */\n  add\n    /* \"#utility.yul\":1830:1831   */\n  0x05\n    /* \"#utility.yul\":1826:1853   */\n  shr\n    /* \"#utility.yul\":1820:1824   */\n  dup2\n    /* \"#utility.yul\":1816:1854   */\n  add\n    /* \"#utility.yul\":1885:1889   */\n  0x20\n    /* \"#utility.yul\":1873:1883   */\n  dup6\n    /* \"#utility.yul\":1870:1890   */\n  lt\n    /* \"#utility.yul\":1867:1914   */\n  iszero\n  tag_31\n  jumpi\n  pop\n    /* \"#utility.yul\":1908:1912   */\n  dup1\n    /* \"#utility.yul\":1867:1914   */\ntag_31:\n    /* \"#utility.yul\":1963:1965   */\n  0x1f\n    /* \"#utility.yul\":1958:1961   */\n  dup5\n    /* \"#utility.yul\":1954:1966   */\n  add\n    /* \"#utility.yul\":1951:1952   */\n  0x05\n    /* \"#utility.yul\":1947:1967   */\n  shr\n    /* \"#utility.yul\":1941:1945   */\n  dup3\n    /* \"#utility.yul\":1937:1968   */\n  add\n    /* \"#utility.yul\":1927:1968   */\n  swap2\n  pop\n    /* \"#utility.yul\":2018:2099   */\ntag_32:\n    /* \"#utility.yul\":2036:2038   */\n  dup2\n    /* \"#utility.yul\":2029:2034   */\n  dup2\n    /* \"#utility.yul\":2026:2039   */\n  lt\n    /* \"#utility.yul\":2018:2099   */\n  iszero\n  tag_34\n  jumpi\n    /* \"#utility.yul\":2095:2096   */\n  0x00\n    /* \"#utility.yul\":2081:2097   */\n  dup2\n  sstore\n    /* \"#utility.yul\":2062:2063   */\n  0x01\n    /* \"#utility.yul\":2051:2064   */\n  add\n    /* \"#utility.yul\":2018:2099   */\n  jump(tag_32)\ntag_34:\n    /* \"#utility.yul\":2022:2025   */\n  pop\n  pop\n    /* \"#utility.yul\":1688:2109   */\ntag_30:\n    /* \"#utility.yul\":1597:2115   */\n  pop\n  pop\n  pop\n  jump\t// out\n    /* \"#utility.yul\":2291:3590   */\ntag_7:\n    /* \"#utility.yul\":2411:2421   */\n  dup2\n  mload\n  sub(shl(0x40, 0x01), 0x01)\n    /* \"#utility.yul\":2433:2463   */\n  dup2\n  gt\n    /* \"#utility.yul\":2430:2486   */\n  iszero\n  tag_38\n  jumpi\n    /* \"#utility.yul\":2466:2484   */\n  tag_38\n  tag_9\n  jump\t// in\ntag_38:\n    /* \"#utility.yul\":2495:2592   */\n  tag_39\n    /* \"#utility.yul\":2585:2591   */\n  dup2\n    /* \"#utility.yul\":2545:2583   */\n  tag_40\n    /* \"#utility.yul\":2577:2581   */\n  dup5\n    /* \"#utility.yul\":2571:2582   */\n  sload\n    /* \"#utility.yul\":2545:2583   */\n  tag_10\n  jump\t// in\ntag_40:\n    /* \"#utility.yul\":2539:2543   */\n  dup5\n    /* \"#utility.yul\":2495:2592   */\n  tag_12\n  jump\t// in\ntag_39:\n    /* \"#utility.yul\":2641:2645   */\n  0x20\n    /* \"#utility.yul\":2672:2674   */\n  0x1f\n    /* \"#utility.yul\":2661:2675   */\n  dup3\n  gt\n    /* \"#utility.yul\":2689:2690   */\n  0x01\n    /* \"#utility.yul\":2684:3333   */\n  dup2\n  eq\n  tag_42\n  jumpi\n    /* \"#utility.yul\":3377:3378   */\n  0x00\n    /* \"#utility.yul\":3394:3400   */\n  dup4\n    /* \"#utility.yul\":3391:3480   */\n  iszero\n  tag_43\n  jumpi\n  pop\n    /* \"#utility.yul\":3446:3465   */\n  dup5\n  dup3\n  add\n    /* \"#utility.yul\":3440:3466   */\n  mload\n    /* \"#utility.yul\":3391:3480   */\ntag_43:\n  not(0x00)\n    /* \"#utility.yul\":2248:2249   */\n  0x03\n    /* \"#utility.yul\":2244:2255   */\n  dup6\n  swap1\n  shl\n    /* \"#utility.yul\":2240:2264   */\n  shr\n    /* \"#utility.yul\":2236:2265   */\n  not\n    /* \"#utility.yul\":2226:2266   */\n  and\n    /* \"#utility.yul\":2272:2273   */\n  0x01\n    /* \"#utility.yul\":2268:2279   */\n  dup5\n  swap1\n  shl\n    /* \"#utility.yul\":2223:2280   */\n  or\n    /* \"#utility.yul\":3493:3574   */\n  dup5\n  sstore\n    /* \"#utility.yul\":2654:3584   */\n  jump(tag_34)\n    /* \"#utility.yul\":2684:3333   */\ntag_42:\n    /* \"#utility.yul\":1544:1545   */\n  0x00\n    /* \"#utility.yul\":1537:1551   */\n  dup5\n  dup2\n  mstore\n    /* \"#utility.yul\":1581:1585   */\n  0x20\n    /* \"#utility.yul\":1568:1586   */\n  dup2\n  keccak256\n  not(0x1f)\n    /* \"#utility.yul\":2720:2740   */\n  dup6\n  and\n  swap2\n    /* \"#utility.yul\":2838:3060   */\ntag_46:\n    /* \"#utility.yul\":2852:2859   */\n  dup3\n    /* \"#utility.yul\":2849:2850   */\n  dup2\n    /* \"#utility.yul\":2846:2860   */\n  lt\n    /* \"#utility.yul\":2838:3060   */\n  iszero\n  tag_48\n  jumpi\n    /* \"#utility.yul\":2934:2953   */\n  dup8\n  dup6\n  add\n    /* \"#utility.yul\":2928:2954   */\n  mload\n    /* \"#utility.yul\":2913:2955   */\n  dup3\n  sstore\n    /* \"#utility.yul\":3041:3045   */\n  0x20\n    /* \"#utility.yul\":3026:3046   */\n  swap5\n  dup6\n  add\n  swap5\n    /* \"#utility.yul\":2994:2995   */\n  0x01\n    /* \"#utility.yul\":2982:2996   */\n  swap1\n  swap3\n  add\n  swap2\n    /* \"#utility.yul\":2868:2880   */\n  add\n    /* \"#utility.yul\":2838:3060   */\n  jump(tag_46)\ntag_48:\n    /* \"#utility.yul\":2842:2845   */\n  pop\n    /* \"#utility.yul\":3088:3094   */\n  dup5\n    /* \"#utility.yul\":3079:3086   */\n  dup3\n    /* \"#utility.yul\":3076:3095   */\n  lt\n    /* \"#utility.yul\":3073:3274   */\n  iszero\n  tag_49\n  jumpi\n    /* \"#utility.yul\":3149:3168   */\n  dup7\n  dup5\n  add\n    /* \"#utility.yul\":3143:3169   */\n  mload\n  not(0x00)\n    /* \"#utility.yul\":3232:3233   */\n  0x03\n    /* \"#utility.yul\":3228:3242   */\n  dup8\n  swap1\n  shl\n    /* \"#utility.yul\":3244:3247   */\n  0xf8\n    /* \"#utility.yul\":3224:3248   */\n  and\n    /* \"#utility.yul\":3220:3257   */\n  shr\n    /* \"#utility.yul\":3216:3258   */\n  not\n    /* \"#utility.yul\":3201:3259   */\n  and\n    /* \"#utility.yul\":3186:3260   */\n  dup2\n  sstore\n    /* \"#utility.yul\":3073:3274   */\ntag_49:\n  pop\n  pop\n  pop\n  pop\n    /* \"#utility.yul\":3320:3321   */\n  0x01\n    /* \"#utility.yul\":3304:3318   */\n  swap1\n  dup2\n  shl\n    /* \"#utility.yul\":3300:3322   */\n  add\n    /* \"#utility.yul\":3287:3323   */\n  swap1\n  sstore\n  pop\n    /* \"#utility.yul\":2291:3590   */\n  jump\t// out\ntag_14:\n    /* \"MessageBox.sol\":61:433  contract MessageBox {... */\n  dataSize(sub_0)\n  dup1\n  dataOffset(sub_0)\n  0x00\n  codecopy\n  0x00\n  return\nstop\n\nsub_0: assembly {\n        /* \"MessageBox.sol\":61:433  contract MessageBox {... */\n      mstore(0x40, 0x80)\n      callvalue\n      dup1\n      iszero\n      tag_1\n      jumpi\n      0x00\n      dup1\n      revert\n    tag_1:\n      pop\n      jumpi(tag_2, lt(calldatasize, 0x04))\n      shr(0xe0, calldataload(0x00))\n      dup1\n      0x1923be24\n      eq\n      tag_3\n      jumpi\n      dup1\n      0x8da5cb5b\n      eq\n      tag_4\n      jumpi\n      dup1\n      0xe21f37ce\n      eq\n      tag_5\n      jumpi\n    tag_2:\n      0x00\n      dup1\n      revert\n        /* \"MessageBox.sol\":269:430  function updateMessage(string memory _newMessage) public {... */\n    tag_3:\n      tag_6\n      tag_7\n      calldatasize\n      0x04\n      tag_8\n      jump\t// in\n    tag_7:\n      tag_9\n      jump\t// in\n    tag_6:\n      stop\n        /* \"MessageBox.sol\":116:136  address public owner */\n    tag_4:\n      sload(0x01)\n      tag_10\n      swap1\n      sub(shl(0xa0, 0x01), 0x01)\n      and\n      dup2\n      jump\n    tag_10:\n      mload(0x40)\n      sub(shl(0xa0, 0x01), 0x01)\n        /* \"#utility.yul\":1260:1292   */\n      swap1\n      swap2\n      and\n        /* \"#utility.yul\":1242:1293   */\n      dup2\n      mstore\n        /* \"#utility.yul\":1230:1232   */\n      0x20\n        /* \"#utility.yul\":1215:1233   */\n      add\n        /* \"MessageBox.sol\":116:136  address public owner */\n    tag_12:\n      mload(0x40)\n      dup1\n      swap2\n      sub\n      swap1\n      return\n        /* \"MessageBox.sol\":88:109  string public message */\n    tag_5:\n      tag_14\n      tag_15\n      jump\t// in\n    tag_14:\n      mload(0x40)\n      tag_12\n      swap2\n      swap1\n      tag_17\n      jump\t// in\n        /* \"MessageBox.sol\":269:430  function updateMessage(string memory _newMessage) public {... */\n    tag_9:\n        /* \"MessageBox.sol\":359:364  owner */\n      and(sub(shl(0xa0, 0x01), 0x01), sload(0x01))\n        /* \"MessageBox.sol\":345:355  msg.sender */\n      caller\n        /* \"MessageBox.sol\":345:364  msg.sender == owner */\n      eq\n        /* \"MessageBox.sol\":337:390  require(msg.sender == owner, \"Only owner can update\") */\n      tag_19\n      jumpi\n      mload(0x40)\n      shl(0xe5, 0x461bcd)\n      dup2\n      mstore\n        /* \"#utility.yul\":1929:1931   */\n      0x20\n        /* \"MessageBox.sol\":337:390  require(msg.sender == owner, \"Only owner can update\") */\n      0x04\n      dup3\n      add\n        /* \"#utility.yul\":1911:1932   */\n      mstore\n        /* \"#utility.yul\":1968:1970   */\n      0x15\n        /* \"#utility.yul\":1948:1966   */\n      0x24\n      dup3\n      add\n        /* \"#utility.yul\":1941:1971   */\n      mstore\n      shl(0x58, 0x4f6e6c79206f776e65722063616e20757064617465)\n        /* \"#utility.yul\":1987:2005   */\n      0x44\n      dup3\n      add\n        /* \"#utility.yul\":1980:2031   */\n      mstore\n        /* \"#utility.yul\":2048:2066   */\n      0x64\n      add\n        /* \"MessageBox.sol\":337:390  require(msg.sender == owner, \"Only owner can update\") */\n      mload(0x40)\n      dup1\n      swap2\n      sub\n      swap1\n      revert\n    tag_19:\n        /* \"MessageBox.sol\":401:408  message */\n      0x00\n        /* \"MessageBox.sol\":401:422  message = _newMessage */\n      tag_22\n        /* \"MessageBox.sol\":411:422  _newMessage */\n      dup3\n        /* \"MessageBox.sol\":401:408  message */\n      dup3\n        /* \"MessageBox.sol\":401:422  message = _newMessage */\n      tag_23\n      jump\t// in\n    tag_22:\n      pop\n        /* \"MessageBox.sol\":269:430  function updateMessage(string memory _newMessage) public {... */\n      pop\n      jump\t// out\n        /* \"MessageBox.sol\":88:109  string public message */\n    tag_15:\n      0x00\n      dup1\n      sload\n      tag_24\n      swap1\n      tag_25\n      jump\t// in\n    tag_24:\n      dup1\n      0x1f\n      add\n      0x20\n      dup1\n      swap2\n      div\n      mul\n      0x20\n      add\n      mload(0x40)\n      swap1\n      dup2\n      add\n      0x40\n      mstore\n      dup1\n      swap3\n      swap2\n      swap1\n      dup2\n      dup2\n      mstore\n      0x20\n      add\n      dup3\n      dup1\n      sload\n      tag_26\n      swap1\n      tag_25\n      jump\t// in\n    tag_26:\n      dup1\n      iszero\n      tag_27\n      jumpi\n      dup1\n      0x1f\n      lt\n      tag_28\n      jumpi\n      0x0100\n      dup1\n      dup4\n      sload\n      div\n      mul\n      dup4\n      mstore\n      swap2\n      0x20\n      add\n      swap2\n      jump(tag_27)\n    tag_28:\n      dup3\n      add\n      swap2\n      swap1\n      0x00\n      mstore\n      keccak256(0x00, 0x20)\n      swap1\n    tag_29:\n      dup2\n      sload\n      dup2\n      mstore\n      swap1\n      0x01\n      add\n      swap1\n      0x20\n      add\n      dup1\n      dup4\n      gt\n      tag_29\n      jumpi\n      dup3\n      swap1\n      sub\n      0x1f\n      and\n      dup3\n      add\n      swap2\n    tag_27:\n      pop\n      pop\n      pop\n      pop\n      pop\n      dup2\n      jump\t// out\n        /* \"#utility.yul\":14:141   */\n    tag_30:\n        /* \"#utility.yul\":75:85   */\n      0x4e487b71\n        /* \"#utility.yul\":70:73   */\n      0xe0\n        /* \"#utility.yul\":66:86   */\n      shl\n        /* \"#utility.yul\":63:64   */\n      0x00\n        /* \"#utility.yul\":56:87   */\n      mstore\n        /* \"#utility.yul\":106:110   */\n      0x41\n        /* \"#utility.yul\":103:104   */\n      0x04\n        /* \"#utility.yul\":96:111   */\n      mstore\n        /* \"#utility.yul\":130:134   */\n      0x24\n        /* \"#utility.yul\":127:128   */\n      0x00\n        /* \"#utility.yul\":120:135   */\n      revert\n        /* \"#utility.yul\":146:1091   */\n    tag_8:\n        /* \"#utility.yul\":215:221   */\n      0x00\n        /* \"#utility.yul\":268:270   */\n      0x20\n        /* \"#utility.yul\":256:265   */\n      dup3\n        /* \"#utility.yul\":247:254   */\n      dup5\n        /* \"#utility.yul\":243:266   */\n      sub\n        /* \"#utility.yul\":239:271   */\n      slt\n        /* \"#utility.yul\":236:288   */\n      iszero\n      tag_37\n      jumpi\n        /* \"#utility.yul\":284:285   */\n      0x00\n        /* \"#utility.yul\":281:282   */\n      dup1\n        /* \"#utility.yul\":274:286   */\n      revert\n        /* \"#utility.yul\":236:288   */\n    tag_37:\n        /* \"#utility.yul\":324:333   */\n      dup2\n        /* \"#utility.yul\":311:334   */\n      calldataload\n        /* \"#utility.yul\":357:375   */\n      0xffffffffffffffff\n        /* \"#utility.yul\":349:355   */\n      dup2\n        /* \"#utility.yul\":346:376   */\n      gt\n        /* \"#utility.yul\":343:393   */\n      iszero\n      tag_38\n      jumpi\n        /* \"#utility.yul\":389:390   */\n      0x00\n        /* \"#utility.yul\":386:387   */\n      dup1\n        /* \"#utility.yul\":379:391   */\n      revert\n        /* \"#utility.yul\":343:393   */\n    tag_38:\n        /* \"#utility.yul\":412:434   */\n      dup3\n      add\n        /* \"#utility.yul\":465:469   */\n      0x1f\n        /* \"#utility.yul\":457:470   */\n      dup2\n      add\n        /* \"#utility.yul\":453:480   */\n      dup5\n      sgt\n        /* \"#utility.yul\":443:498   */\n      tag_39\n      jumpi\n        /* \"#utility.yul\":494:495   */\n      0x00\n        /* \"#utility.yul\":491:492   */\n      dup1\n        /* \"#utility.yul\":484:496   */\n      revert\n        /* \"#utility.yul\":443:498   */\n    tag_39:\n        /* \"#utility.yul\":534:536   */\n      dup1\n        /* \"#utility.yul\":521:537   */\n      calldataload\n        /* \"#utility.yul\":560:578   */\n      0xffffffffffffffff\n        /* \"#utility.yul\":552:558   */\n      dup2\n        /* \"#utility.yul\":549:579   */\n      gt\n        /* \"#utility.yul\":546:602   */\n      iszero\n      tag_41\n      jumpi\n        /* \"#utility.yul\":582:600   */\n      tag_41\n      tag_30\n      jump\t// in\n    tag_41:\n        /* \"#utility.yul\":631:633   */\n      0x40\n        /* \"#utility.yul\":625:634   */\n      mload\n        /* \"#utility.yul\":723:725   */\n      0x1f\n        /* \"#utility.yul\":685:702   */\n      dup3\n      add\n      not(0x1f)\n        /* \"#utility.yul\":681:712   */\n      swap1\n      dup2\n      and\n        /* \"#utility.yul\":714:716   */\n      0x3f\n        /* \"#utility.yul\":677:717   */\n      add\n        /* \"#utility.yul\":673:727   */\n      and\n        /* \"#utility.yul\":661:728   */\n      dup2\n      add\n        /* \"#utility.yul\":758:776   */\n      0xffffffffffffffff\n        /* \"#utility.yul\":743:777   */\n      dup2\n      gt\n        /* \"#utility.yul\":779:801   */\n      dup3\n      dup3\n      lt\n        /* \"#utility.yul\":740:802   */\n      or\n        /* \"#utility.yul\":737:825   */\n      iszero\n      tag_43\n      jumpi\n        /* \"#utility.yul\":805:823   */\n      tag_43\n      tag_30\n      jump\t// in\n    tag_43:\n        /* \"#utility.yul\":841:843   */\n      0x40\n        /* \"#utility.yul\":834:856   */\n      mstore\n        /* \"#utility.yul\":865:887   */\n      dup2\n      dup2\n      mstore\n        /* \"#utility.yul\":906:921   */\n      dup3\n      dup3\n      add\n        /* \"#utility.yul\":923:925   */\n      0x20\n        /* \"#utility.yul\":902:926   */\n      add\n        /* \"#utility.yul\":899:936   */\n      dup7\n      lt\n        /* \"#utility.yul\":896:953   */\n      iszero\n      tag_44\n      jumpi\n        /* \"#utility.yul\":949:950   */\n      0x00\n        /* \"#utility.yul\":946:947   */\n      dup1\n        /* \"#utility.yul\":939:951   */\n      revert\n        /* \"#utility.yul\":896:953   */\n    tag_44:\n        /* \"#utility.yul\":1005:1011   */\n      dup2\n        /* \"#utility.yul\":1000:1002   */\n      0x20\n        /* \"#utility.yul\":996:998   */\n      dup5\n        /* \"#utility.yul\":992:1003   */\n      add\n        /* \"#utility.yul\":987:989   */\n      0x20\n        /* \"#utility.yul\":979:985   */\n      dup4\n        /* \"#utility.yul\":975:990   */\n      add\n        /* \"#utility.yul\":962:1012   */\n      calldatacopy\n        /* \"#utility.yul\":1058:1059   */\n      0x00\n        /* \"#utility.yul\":1032:1051   */\n      swap2\n      dup2\n      add\n        /* \"#utility.yul\":1053:1055   */\n      0x20\n        /* \"#utility.yul\":1028:1056   */\n      add\n        /* \"#utility.yul\":1021:1060   */\n      swap2\n      swap1\n      swap2\n      mstore\n        /* \"#utility.yul\":1036:1042   */\n      swap5\n        /* \"#utility.yul\":146:1091   */\n      swap4\n      pop\n      pop\n      pop\n      pop\n      jump\t// out\n        /* \"#utility.yul\":1304:1722   */\n    tag_17:\n        /* \"#utility.yul\":1453:1455   */\n      0x20\n        /* \"#utility.yul\":1442:1451   */\n      dup2\n        /* \"#utility.yul\":1435:1456   */\n      mstore\n        /* \"#utility.yul\":1416:1420   */\n      0x00\n        /* \"#utility.yul\":1485:1491   */\n      dup3\n        /* \"#utility.yul\":1479:1492   */\n      mload\n        /* \"#utility.yul\":1528:1534   */\n      dup1\n        /* \"#utility.yul\":1523:1525   */\n      0x20\n        /* \"#utility.yul\":1512:1521   */\n      dup5\n        /* \"#utility.yul\":1508:1526   */\n      add\n        /* \"#utility.yul\":1501:1535   */\n      mstore\n        /* \"#utility.yul\":1587:1593   */\n      dup1\n        /* \"#utility.yul\":1582:1584   */\n      0x20\n        /* \"#utility.yul\":1574:1580   */\n      dup6\n        /* \"#utility.yul\":1570:1585   */\n      add\n        /* \"#utility.yul\":1565:1567   */\n      0x40\n        /* \"#utility.yul\":1554:1563   */\n      dup6\n        /* \"#utility.yul\":1550:1568   */\n      add\n        /* \"#utility.yul\":1544:1594   */\n      mcopy\n        /* \"#utility.yul\":1643:1644   */\n      0x00\n        /* \"#utility.yul\":1638:1640   */\n      0x40\n        /* \"#utility.yul\":1629:1635   */\n      dup3\n        /* \"#utility.yul\":1618:1627   */\n      dup6\n        /* \"#utility.yul\":1614:1636   */\n      add\n        /* \"#utility.yul\":1610:1641   */\n      add\n        /* \"#utility.yul\":1603:1645   */\n      mstore\n        /* \"#utility.yul\":1713:1715   */\n      0x40\n        /* \"#utility.yul\":1706:1708   */\n      0x1f\n        /* \"#utility.yul\":1702:1709   */\n      not\n        /* \"#utility.yul\":1697:1699   */\n      0x1f\n        /* \"#utility.yul\":1689:1695   */\n      dup4\n        /* \"#utility.yul\":1685:1700   */\n      add\n        /* \"#utility.yul\":1681:1710   */\n      and\n        /* \"#utility.yul\":1670:1679   */\n      dup5\n        /* \"#utility.yul\":1666:1711   */\n      add\n        /* \"#utility.yul\":1662:1716   */\n      add\n        /* \"#utility.yul\":1654:1716   */\n      swap2\n      pop\n      pop\n        /* \"#utility.yul\":1304:1722   */\n      swap3\n      swap2\n      pop\n      pop\n      jump\t// out\n        /* \"#utility.yul\":2077:2457   */\n    tag_25:\n        /* \"#utility.yul\":2156:2157   */\n      0x01\n        /* \"#utility.yul\":2152:2164   */\n      dup2\n      dup2\n      shr\n      swap1\n        /* \"#utility.yul\":2199:2211   */\n      dup3\n      and\n      dup1\n        /* \"#utility.yul\":2220:2281   */\n      tag_49\n      jumpi\n        /* \"#utility.yul\":2274:2278   */\n      0x7f\n        /* \"#utility.yul\":2266:2272   */\n      dup3\n        /* \"#utility.yul\":2262:2279   */\n      and\n        /* \"#utility.yul\":2252:2279   */\n      swap2\n      pop\n        /* \"#utility.yul\":2220:2281   */\n    tag_49:\n        /* \"#utility.yul\":2327:2329   */\n      0x20\n        /* \"#utility.yul\":2319:2325   */\n      dup3\n        /* \"#utility.yul\":2316:2330   */\n      lt\n        /* \"#utility.yul\":2296:2314   */\n      dup2\n        /* \"#utility.yul\":2293:2331   */\n      sub\n        /* \"#utility.yul\":2290:2451   */\n      tag_50\n      jumpi\n        /* \"#utility.yul\":2373:2383   */\n      0x4e487b71\n        /* \"#utility.yul\":2368:2371   */\n      0xe0\n        /* \"#utility.yul\":2364:2384   */\n      shl\n        /* \"#utility.yul\":2361:2362   */\n      0x00\n        /* \"#utility.yul\":2354:2385   */\n      mstore\n        /* \"#utility.yul\":2408:2412   */\n      0x22\n        /* \"#utility.yul\":2405:2406   */\n      0x04\n        /* \"#utility.yul\":2398:2413   */\n      mstore\n        /* \"#utility.yul\":2436:2440   */\n      0x24\n        /* \"#utility.yul\":2433:2434   */\n      0x00\n        /* \"#utility.yul\":2426:2441   */\n      revert\n        /* \"#utility.yul\":2290:2451   */\n    tag_50:\n      pop\n        /* \"#utility.yul\":2077:2457   */\n      swap2\n      swap1\n      pop\n      jump\t// out\n        /* \"#utility.yul\":2588:3106   */\n    tag_32:\n        /* \"#utility.yul\":2690:2692   */\n      0x1f\n        /* \"#utility.yul\":2685:2688   */\n      dup3\n        /* \"#utility.yul\":2682:2693   */\n      gt\n        /* \"#utility.yul\":2679:3100   */\n      iszero\n      tag_53\n      jumpi\n        /* \"#utility.yul\":2726:2731   */\n      dup1\n        /* \"#utility.yul\":2723:2724   */\n      0x00\n        /* \"#utility.yul\":2716:2732   */\n      mstore\n        /* \"#utility.yul\":2770:2774   */\n      0x20\n        /* \"#utility.yul\":2767:2768   */\n      0x00\n        /* \"#utility.yul\":2757:2775   */\n      keccak256\n        /* \"#utility.yul\":2840:2842   */\n      0x1f\n        /* \"#utility.yul\":2828:2838   */\n      dup5\n        /* \"#utility.yul\":2824:2843   */\n      add\n        /* \"#utility.yul\":2821:2822   */\n      0x05\n        /* \"#utility.yul\":2817:2844   */\n      shr\n        /* \"#utility.yul\":2811:2815   */\n      dup2\n        /* \"#utility.yul\":2807:2845   */\n      add\n        /* \"#utility.yul\":2876:2880   */\n      0x20\n        /* \"#utility.yul\":2864:2874   */\n      dup6\n        /* \"#utility.yul\":2861:2881   */\n      lt\n        /* \"#utility.yul\":2858:2905   */\n      iszero\n      tag_54\n      jumpi\n      pop\n        /* \"#utility.yul\":2899:2903   */\n      dup1\n        /* \"#utility.yul\":2858:2905   */\n    tag_54:\n        /* \"#utility.yul\":2954:2956   */\n      0x1f\n        /* \"#utility.yul\":2949:2952   */\n      dup5\n        /* \"#utility.yul\":2945:2957   */\n      add\n        /* \"#utility.yul\":2942:2943   */\n      0x05\n        /* \"#utility.yul\":2938:2958   */\n      shr\n        /* \"#utility.yul\":2932:2936   */\n      dup3\n        /* \"#utility.yul\":2928:2959   */\n      add\n        /* \"#utility.yul\":2918:2959   */\n      swap2\n      pop\n        /* \"#utility.yul\":3009:3090   */\n    tag_55:\n        /* \"#utility.yul\":3027:3029   */\n      dup2\n        /* \"#utility.yul\":3020:3025   */\n      dup2\n        /* \"#utility.yul\":3017:3030   */\n      lt\n        /* \"#utility.yul\":3009:3090   */\n      iszero\n      tag_57\n      jumpi\n        /* \"#utility.yul\":3086:3087   */\n      0x00\n        /* \"#utility.yul\":3072:3088   */\n      dup2\n      sstore\n        /* \"#utility.yul\":3053:3054   */\n      0x01\n        /* \"#utility.yul\":3042:3055   */\n      add\n        /* \"#utility.yul\":3009:3090   */\n      jump(tag_55)\n    tag_57:\n        /* \"#utility.yul\":3013:3016   */\n      pop\n      pop\n        /* \"#utility.yul\":2679:3100   */\n    tag_53:\n        /* \"#utility.yul\":2588:3106   */\n      pop\n      pop\n      pop\n      jump\t// out\n        /* \"#utility.yul\":3282:4581   */\n    tag_23:\n        /* \"#utility.yul\":3408:3411   */\n      dup2\n        /* \"#utility.yul\":3402:3412   */\n      mload\n        /* \"#utility.yul\":3435:3453   */\n      0xffffffffffffffff\n        /* \"#utility.yul\":3427:3433   */\n      dup2\n        /* \"#utility.yul\":3424:3454   */\n      gt\n        /* \"#utility.yul\":3421:3477   */\n      iszero\n      tag_61\n      jumpi\n        /* \"#utility.yul\":3457:3475   */\n      tag_61\n      tag_30\n      jump\t// in\n    tag_61:\n        /* \"#utility.yul\":3486:3583   */\n      tag_62\n        /* \"#utility.yul\":3576:3582   */\n      dup2\n        /* \"#utility.yul\":3536:3574   */\n      tag_63\n        /* \"#utility.yul\":3568:3572   */\n      dup5\n        /* \"#utility.yul\":3562:3573   */\n      sload\n        /* \"#utility.yul\":3536:3574   */\n      tag_25\n      jump\t// in\n    tag_63:\n        /* \"#utility.yul\":3530:3534   */\n      dup5\n        /* \"#utility.yul\":3486:3583   */\n      tag_32\n      jump\t// in\n    tag_62:\n        /* \"#utility.yul\":3632:3636   */\n      0x20\n        /* \"#utility.yul\":3663:3665   */\n      0x1f\n        /* \"#utility.yul\":3652:3666   */\n      dup3\n      gt\n        /* \"#utility.yul\":3680:3681   */\n      0x01\n        /* \"#utility.yul\":3675:4324   */\n      dup2\n      eq\n      tag_65\n      jumpi\n        /* \"#utility.yul\":4368:4369   */\n      0x00\n        /* \"#utility.yul\":4385:4391   */\n      dup4\n        /* \"#utility.yul\":4382:4471   */\n      iszero\n      tag_66\n      jumpi\n      pop\n        /* \"#utility.yul\":4437:4456   */\n      dup5\n      dup3\n      add\n        /* \"#utility.yul\":4431:4457   */\n      mload\n        /* \"#utility.yul\":4382:4471   */\n    tag_66:\n      not(0x00)\n        /* \"#utility.yul\":3239:3240   */\n      0x03\n        /* \"#utility.yul\":3235:3246   */\n      dup6\n      swap1\n      shl\n        /* \"#utility.yul\":3231:3255   */\n      shr\n        /* \"#utility.yul\":3227:3256   */\n      not\n        /* \"#utility.yul\":3217:3257   */\n      and\n        /* \"#utility.yul\":3263:3264   */\n      0x01\n        /* \"#utility.yul\":3259:3270   */\n      dup5\n      swap1\n      shl\n        /* \"#utility.yul\":3214:3271   */\n      or\n        /* \"#utility.yul\":4484:4565   */\n      dup5\n      sstore\n        /* \"#utility.yul\":3645:4575   */\n      jump(tag_57)\n        /* \"#utility.yul\":3675:4324   */\n    tag_65:\n        /* \"#utility.yul\":2535:2536   */\n      0x00\n        /* \"#utility.yul\":2528:2542   */\n      dup5\n      dup2\n      mstore\n        /* \"#utility.yul\":2572:2576   */\n      0x20\n        /* \"#utility.yul\":2559:2577   */\n      dup2\n      keccak256\n      not(0x1f)\n        /* \"#utility.yul\":3711:3731   */\n      dup6\n      and\n      swap2\n        /* \"#utility.yul\":3829:4051   */\n    tag_69:\n        /* \"#utility.yul\":3843:3850   */\n      dup3\n        /* \"#utility.yul\":3840:3841   */\n      dup2\n        /* \"#utility.yul\":3837:3851   */\n      lt\n        /* \"#utility.yul\":3829:4051   */\n      iszero\n      tag_71\n      jumpi\n        /* \"#utility.yul\":3925:3944   */\n      dup8\n      dup6\n      add\n        /* \"#utility.yul\":3919:3945   */\n      mload\n        /* \"#utility.yul\":3904:3946   */\n      dup3\n      sstore\n        /* \"#utility.yul\":4032:4036   */\n      0x20\n        /* \"#utility.yul\":4017:4037   */\n      swap5\n      dup6\n      add\n      swap5\n        /* \"#utility.yul\":3985:3986   */\n      0x01\n        /* \"#utility.yul\":3973:3987   */\n      swap1\n      swap3\n      add\n      swap2\n        /* \"#utility.yul\":3859:3871   */\n      add\n        /* \"#utility.yul\":3829:4051   */\n      jump(tag_69)\n    tag_71:\n        /* \"#utility.yul\":3833:3836   */\n      pop\n        /* \"#utility.yul\":4079:4085   */\n      dup5\n        /* \"#utility.yul\":4070:4077   */\n      dup3\n        /* \"#utility.yul\":4067:4086   */\n      lt\n        /* \"#utility.yul\":4064:4265   */\n      iszero\n      tag_72\n      jumpi\n        /* \"#utility.yul\":4140:4159   */\n      dup7\n      dup5\n      add\n        /* \"#utility.yul\":4134:4160   */\n      mload\n      not(0x00)\n        /* \"#utility.yul\":4223:4224   */\n      0x03\n        /* \"#utility.yul\":4219:4233   */\n      dup8\n      swap1\n      shl\n        /* \"#utility.yul\":4235:4238   */\n      0xf8\n        /* \"#utility.yul\":4215:4239   */\n      and\n        /* \"#utility.yul\":4211:4248   */\n      shr\n        /* \"#utility.yul\":4207:4249   */\n      not\n        /* \"#utility.yul\":4192:4250   */\n      and\n        /* \"#utility.yul\":4177:4251   */\n      dup2\n      sstore\n        /* \"#utility.yul\":4064:4265   */\n    tag_72:\n      pop\n      pop\n      pop\n      pop\n        /* \"#utility.yul\":4311:4312   */\n      0x01\n        /* \"#utility.yul\":4295:4309   */\n      swap1\n      dup2\n      shl\n        /* \"#utility.yul\":4291:4313   */\n      add\n        /* \"#utility.yul\":4278:4314   */\n      swap1\n      sstore\n      pop\n        /* \"#utility.yul\":3282:4581   */\n      jump\t// out\n\n    auxdata: 0xa264697066735822122052f2df11e3c76387004cc05f4a9107c8c44e7fdf38094b1e2b807d1cf5692d1e64736f6c634300081a0033\n}\n",
				"bytecode": {
					"linkReferences": {},
					"object": "608060405234801561000f575f80fd5b5060405161065f38038061065f83398101604081905261002e91610066565b5f610039828261019a565b5050600180546001600160a01b03191633179055610254565b634e487b7160e01b5f52604160045260245ffd5b5f60208284031215610076575f80fd5b81516001600160401b0381111561008b575f80fd5b8201601f8101841361009b575f80fd5b80516001600160401b038111156100b4576100b4610052565b604051601f8201601f19908116603f011681016001600160401b03811182821017156100e2576100e2610052565b6040528181528282016020018610156100f9575f80fd5b8160208401602083015e5f91810160200191909152949350505050565b600181811c9082168061012a57607f821691505b60208210810361014857634e487b7160e01b5f52602260045260245ffd5b50919050565b601f82111561019557805f5260205f20601f840160051c810160208510156101735750805b601f840160051c820191505b81811015610192575f815560010161017f565b50505b505050565b81516001600160401b038111156101b3576101b3610052565b6101c7816101c18454610116565b8461014e565b6020601f8211600181146101f9575f83156101e25750848201515b5f19600385901b1c1916600184901b178455610192565b5f84815260208120601f198516915b828110156102285787850151825560209485019460019092019101610208565b508482101561024557868401515f19600387901b60f8161c191681555b50505050600190811b01905550565b6103fe806102615f395ff3fe608060405234801561000f575f80fd5b506004361061003f575f3560e01c80631923be24146100435780638da5cb5b14610058578063e21f37ce14610088575b5f80fd5b6100566100513660046101a1565b61009d565b005b60015461006b906001600160a01b031681565b6040516001600160a01b0390911681526020015b60405180910390f35b610090610102565b60405161007f9190610254565b6001546001600160a01b031633146100f35760405162461bcd60e51b81526020600482015260156024820152744f6e6c79206f776e65722063616e2075706461746560581b604482015260640160405180910390fd5b5f6100fe828261030d565b5050565b5f805461010e90610289565b80601f016020809104026020016040519081016040528092919081815260200182805461013a90610289565b80156101855780601f1061015c57610100808354040283529160200191610185565b820191905f5260205f20905b81548152906001019060200180831161016857829003601f168201915b505050505081565b634e487b7160e01b5f52604160045260245ffd5b5f602082840312156101b1575f80fd5b813567ffffffffffffffff8111156101c7575f80fd5b8201601f810184136101d7575f80fd5b803567ffffffffffffffff8111156101f1576101f161018d565b604051601f8201601f19908116603f0116810167ffffffffffffffff811182821017156102205761022061018d565b604052818152828201602001861015610237575f80fd5b816020840160208301375f91810160200191909152949350505050565b602081525f82518060208401528060208501604085015e5f604082850101526040601f19601f83011684010191505092915050565b600181811c9082168061029d57607f821691505b6020821081036102bb57634e487b7160e01b5f52602260045260245ffd5b50919050565b601f82111561030857805f5260205f20601f840160051c810160208510156102e65750805b601f840160051c820191505b81811015610305575f81556001016102f2565b50505b505050565b815167ffffffffffffffff8111156103275761032761018d565b61033b816103358454610289565b846102c1565b6020601f82116001811461036d575f83156103565750848201515b5f19600385901b1c1916600184901b178455610305565b5f84815260208120601f198516915b8281101561039c578785015182556020948501946001909201910161037c565b50848210156103b957868401515f19600387901b60f8161c191681555b50505050600190811b0190555056fea264697066735822122052f2df11e3c76387004cc05f4a9107c8c44e7fdf38094b1e2b807d1cf5692d1e64736f6c634300081a0033",
					"opcodes": "PUSH1 0x80 PUSH1 0x40 MSTORE CALLVALUE DUP1 ISZERO PUSH2 0xF JUMPI PUSH0 DUP1 REVERT JUMPDEST POP PUSH1 0x40 MLOAD PUSH2 0x65F CODESIZE SUB DUP1 PUSH2 0x65F DUP4 CODECOPY DUP2 ADD PUSH1 0x40 DUP2 SWAP1 MSTORE PUSH2 0x2E SWAP2 PUSH2 0x66 JUMP JUMPDEST PUSH0 PUSH2 0x39 DUP3 DUP3 PUSH2 0x19A JUMP JUMPDEST POP POP PUSH1 0x1 DUP1 SLOAD PUSH1 0x1 PUSH1 0x1 PUSH1 0xA0 SHL SUB NOT AND CALLER OR SWAP1 SSTORE PUSH2 0x254 JUMP JUMPDEST PUSH4 0x4E487B71 PUSH1 0xE0 SHL PUSH0 MSTORE PUSH1 0x41 PUSH1 0x4 MSTORE PUSH1 0x24 PUSH0 REVERT JUMPDEST PUSH0 PUSH1 0x20 DUP3 DUP5 SUB SLT ISZERO PUSH2 0x76 JUMPI PUSH0 DUP1 REVERT JUMPDEST DUP2 MLOAD PUSH1 0x1 PUSH1 0x1 PUSH1 0x40 SHL SUB DUP2 GT ISZERO PUSH2 0x8B JUMPI PUSH0 DUP1 REVERT JUMPDEST DUP3 ADD PUSH1 0x1F DUP2 ADD DUP5 SGT PUSH2 0x9B JUMPI PUSH0 DUP1 REVERT JUMPDEST DUP1 MLOAD PUSH1 0x1 PUSH1 0x1 PUSH1 0x40 SHL SUB DUP2 GT ISZERO PUSH2 0xB4 JUMPI PUSH2 0xB4 PUSH2 0x52 JUMP JUMPDEST PUSH1 0x40 MLOAD PUSH1 0x1F DUP3 ADD PUSH1 0x1F NOT SWAP1 DUP2 AND PUSH1 0x3F ADD AND DUP2 ADD PUSH1 0x1 PUSH1 0x1 PUSH1 0x40 SHL SUB DUP2 GT DUP3 DUP3 LT OR ISZERO PUSH2 0xE2 JUMPI PUSH2 0xE2 PUSH2 0x52 JUMP JUMPDEST PUSH1 0x40 MSTORE DUP2 DUP2 MSTORE DUP3 DUP3 ADD PUSH1 0x20 ADD DUP7 LT ISZERO PUSH2 0xF9 JUMPI PUSH0 DUP1 REVERT JUMPDEST DUP2 PUSH1 0x20 DUP5 ADD PUSH1 0x20 DUP4 ADD MCOPY PUSH0 SWAP2 DUP2 ADD PUSH1 0x20 ADD SWAP2 SWAP1 SWAP2 MSTORE SWAP5 SWAP4 POP POP POP POP JUMP JUMPDEST PUSH1 0x1 DUP2 DUP2 SHR SWAP1 DUP3 AND DUP1 PUSH2 0x12A JUMPI PUSH1 0x7F DUP3 AND SWAP2 POP JUMPDEST PUSH1 0x20 DUP3 LT DUP2 SUB PUSH2 0x148 JUMPI PUSH4 0x4E487B71 PUSH1 0xE0 SHL PUSH0 MSTORE PUSH1 0x22 PUSH1 0x4 MSTORE PUSH1 0x24 PUSH0 REVERT JUMPDEST POP SWAP2 SWAP1 POP JUMP JUMPDEST PUSH1 0x1F DUP3 GT ISZERO PUSH2 0x195 JUMPI DUP1 PUSH0 MSTORE PUSH1 0x20 PUSH0 KECCAK256 PUSH1 0x1F DUP5 ADD PUSH1 0x5 SHR DUP2 ADD PUSH1 0x20 DUP6 LT ISZERO PUSH2 0x173 JUMPI POP DUP1 JUMPDEST PUSH1 0x1F DUP5 ADD PUSH1 0x5 SHR DUP3 ADD SWAP2 POP JUMPDEST DUP2 DUP2 LT ISZERO PUSH2 0x192 JUMPI PUSH0 DUP2 SSTORE PUSH1 0x1 ADD PUSH2 0x17F JUMP JUMPDEST POP POP JUMPDEST POP POP POP JUMP JUMPDEST DUP2 MLOAD PUSH1 0x1 PUSH1 0x1 PUSH1 0x40 SHL SUB DUP2 GT ISZERO PUSH2 0x1B3 JUMPI PUSH2 0x1B3 PUSH2 0x52 JUMP JUMPDEST PUSH2 0x1C7 DUP2 PUSH2 0x1C1 DUP5 SLOAD PUSH2 0x116 JUMP JUMPDEST DUP5 PUSH2 0x14E JUMP JUMPDEST PUSH1 0x20 PUSH1 0x1F DUP3 GT PUSH1 0x1 DUP2 EQ PUSH2 0x1F9 JUMPI PUSH0 DUP4 ISZERO PUSH2 0x1E2 JUMPI POP DUP5 DUP3 ADD MLOAD JUMPDEST PUSH0 NOT PUSH1 0x3 DUP6 SWAP1 SHL SHR NOT AND PUSH1 0x1 DUP5 SWAP1 SHL OR DUP5 SSTORE PUSH2 0x192 JUMP JUMPDEST PUSH0 DUP5 DUP2 MSTORE PUSH1 0x20 DUP2 KECCAK256 PUSH1 0x1F NOT DUP6 AND SWAP2 JUMPDEST DUP3 DUP2 LT ISZERO PUSH2 0x228 JUMPI DUP8 DUP6 ADD MLOAD DUP3 SSTORE PUSH1 0x20 SWAP5 DUP6 ADD SWAP5 PUSH1 0x1 SWAP1 SWAP3 ADD SWAP2 ADD PUSH2 0x208 JUMP JUMPDEST POP DUP5 DUP3 LT ISZERO PUSH2 0x245 JUMPI DUP7 DUP5 ADD MLOAD PUSH0 NOT PUSH1 0x3 DUP8 SWAP1 SHL PUSH1 0xF8 AND SHR NOT AND DUP2 SSTORE JUMPDEST POP POP POP POP PUSH1 0x1 SWAP1 DUP2 SHL ADD SWAP1 SSTORE POP JUMP JUMPDEST PUSH2 0x3FE DUP1 PUSH2 0x261 PUSH0 CODECOPY PUSH0 RETURN INVALID PUSH1 0x80 PUSH1 0x40 MSTORE CALLVALUE DUP1 ISZERO PUSH2 0xF JUMPI PUSH0 DUP1 REVERT JUMPDEST POP PUSH1 0x4 CALLDATASIZE LT PUSH2 0x3F JUMPI PUSH0 CALLDATALOAD PUSH1 0xE0 SHR DUP1 PUSH4 0x1923BE24 EQ PUSH2 0x43 JUMPI DUP1 PUSH4 0x8DA5CB5B EQ PUSH2 0x58 JUMPI DUP1 PUSH4 0xE21F37CE EQ PUSH2 0x88 JUMPI JUMPDEST PUSH0 DUP1 REVERT JUMPDEST PUSH2 0x56 PUSH2 0x51 CALLDATASIZE PUSH1 0x4 PUSH2 0x1A1 JUMP JUMPDEST PUSH2 0x9D JUMP JUMPDEST STOP JUMPDEST PUSH1 0x1 SLOAD PUSH2 0x6B SWAP1 PUSH1 0x1 PUSH1 0x1 PUSH1 0xA0 SHL SUB AND DUP2 JUMP JUMPDEST PUSH1 0x40 MLOAD PUSH1 0x1 PUSH1 0x1 PUSH1 0xA0 SHL SUB SWAP1 SWAP2 AND DUP2 MSTORE PUSH1 0x20 ADD JUMPDEST PUSH1 0x40 MLOAD DUP1 SWAP2 SUB SWAP1 RETURN JUMPDEST PUSH2 0x90 PUSH2 0x102 JUMP JUMPDEST PUSH1 0x40 MLOAD PUSH2 0x7F SWAP2 SWAP1 PUSH2 0x254 JUMP JUMPDEST PUSH1 0x1 SLOAD PUSH1 0x1 PUSH1 0x1 PUSH1 0xA0 SHL SUB AND CALLER EQ PUSH2 0xF3 JUMPI PUSH1 0x40 MLOAD PUSH3 0x461BCD PUSH1 0xE5 SHL DUP2 MSTORE PUSH1 0x20 PUSH1 0x4 DUP3 ADD MSTORE PUSH1 0x15 PUSH1 0x24 DUP3 ADD MSTORE PUSH21 0x4F6E6C79206F776E65722063616E20757064617465 PUSH1 0x58 SHL PUSH1 0x44 DUP3 ADD MSTORE PUSH1 0x64 ADD PUSH1 0x40 MLOAD DUP1 SWAP2 SUB SWAP1 REVERT JUMPDEST PUSH0 PUSH2 0xFE DUP3 DUP3 PUSH2 0x30D JUMP JUMPDEST POP POP JUMP JUMPDEST PUSH0 DUP1 SLOAD PUSH2 0x10E SWAP1 PUSH2 0x289 JUMP JUMPDEST DUP1 PUSH1 0x1F ADD PUSH1 0x20 DUP1 SWAP2 DIV MUL PUSH1 0x20 ADD PUSH1 0x40 MLOAD SWAP1 DUP2 ADD PUSH1 0x40 MSTORE DUP1 SWAP3 SWAP2 SWAP1 DUP2 DUP2 MSTORE PUSH1 0x20 ADD DUP3 DUP1 SLOAD PUSH2 0x13A SWAP1 PUSH2 0x289 JUMP JUMPDEST DUP1 ISZERO PUSH2 0x185 JUMPI DUP1 PUSH1 0x1F LT PUSH2 0x15C JUMPI PUSH2 0x100 DUP1 DUP4 SLOAD DIV MUL DUP4 MSTORE SWAP2 PUSH1 0x20 ADD SWAP2 PUSH2 0x185 JUMP JUMPDEST DUP3 ADD SWAP2 SWAP1 PUSH0 MSTORE PUSH1 0x20 PUSH0 KECCAK256 SWAP1 JUMPDEST DUP2 SLOAD DUP2 MSTORE SWAP1 PUSH1 0x1 ADD SWAP1 PUSH1 0x20 ADD DUP1 DUP4 GT PUSH2 0x168 JUMPI DUP3 SWAP1 SUB PUSH1 0x1F AND DUP3 ADD SWAP2 JUMPDEST POP POP POP POP POP DUP2 JUMP JUMPDEST PUSH4 0x4E487B71 PUSH1 0xE0 SHL PUSH0 MSTORE PUSH1 0x41 PUSH1 0x4 MSTORE PUSH1 0x24 PUSH0 REVERT JUMPDEST PUSH0 PUSH1 0x20 DUP3 DUP5 SUB SLT ISZERO PUSH2 0x1B1 JUMPI PUSH0 DUP1 REVERT JUMPDEST DUP2 CALLDATALOAD PUSH8 0xFFFFFFFFFFFFFFFF DUP2 GT ISZERO PUSH2 0x1C7 JUMPI PUSH0 DUP1 REVERT JUMPDEST DUP3 ADD PUSH1 0x1F DUP2 ADD DUP5 SGT PUSH2 0x1D7 JUMPI PUSH0 DUP1 REVERT JUMPDEST DUP1 CALLDATALOAD PUSH8 0xFFFFFFFFFFFFFFFF DUP2 GT ISZERO PUSH2 0x1F1 JUMPI PUSH2 0x1F1 PUSH2 0x18D JUMP JUMPDEST PUSH1 0x40 MLOAD PUSH1 0x1F DUP3 ADD PUSH1 0x1F NOT SWAP1 DUP2 AND PUSH1 0x3F ADD AND DUP2 ADD PUSH8 0xFFFFFFFFFFFFFFFF DUP2 GT DUP3 DUP3 LT OR ISZERO PUSH2 0x220 JUMPI PUSH2 0x220 PUSH2 0x18D JUMP JUMPDEST PUSH1 0x40 MSTORE DUP2 DUP2 MSTORE DUP3 DUP3 ADD PUSH1 0x20 ADD DUP7 LT ISZERO PUSH2 0x237 JUMPI PUSH0 DUP1 REVERT JUMPDEST DUP2 PUSH1 0x20 DUP5 ADD PUSH1 0x20 DUP4 ADD CALLDATACOPY PUSH0 SWAP2 DUP2 ADD PUSH1 0x20 ADD SWAP2 SWAP1 SWAP2 MSTORE SWAP5 SWAP4 POP POP POP POP JUMP JUMPDEST PUSH1 0x20 DUP2 MSTORE PUSH0 DUP3 MLOAD DUP1 PUSH1 0x20 DUP5 ADD MSTORE DUP1 PUSH1 0x20 DUP6 ADD PUSH1 0x40 DUP6 ADD MCOPY PUSH0 PUSH1 0x40 DUP3 DUP6 ADD ADD MSTORE PUSH1 0x40 PUSH1 0x1F NOT PUSH1 0x1F DUP4 ADD AND DUP5 ADD ADD SWAP2 POP POP SWAP3 SWAP2 POP POP JUMP JUMPDEST PUSH1 0x1 DUP2 DUP2 SHR SWAP1 DUP3 AND DUP1 PUSH2 0x29D JUMPI PUSH1 0x7F DUP3 AND SWAP2 POP JUMPDEST PUSH1 0x20 DUP3 LT DUP2 SUB PUSH2 0x2BB JUMPI PUSH4 0x4E487B71 PUSH1 0xE0 SHL PUSH0 MSTORE PUSH1 0x22 PUSH1 0x4 MSTORE PUSH1 0x24 PUSH0 REVERT JUMPDEST POP SWAP2 SWAP1 POP JUMP JUMPDEST PUSH1 0x1F DUP3 GT ISZERO PUSH2 0x308 JUMPI DUP1 PUSH0 MSTORE PUSH1 0x20 PUSH0 KECCAK256 PUSH1 0x1F DUP5 ADD PUSH1 0x5 SHR DUP2 ADD PUSH1 0x20 DUP6 LT ISZERO PUSH2 0x2E6 JUMPI POP DUP1 JUMPDEST PUSH1 0x1F DUP5 ADD PUSH1 0x5 SHR DUP3 ADD SWAP2 POP JUMPDEST DUP2 DUP2 LT ISZERO PUSH2 0x305 JUMPI PUSH0 DUP2 SSTORE PUSH1 0x1 ADD PUSH2 0x2F2 JUMP JUMPDEST POP POP JUMPDEST POP POP POP JUMP JUMPDEST DUP2 MLOAD PUSH8 0xFFFFFFFFFFFFFFFF DUP2 GT ISZERO PUSH2 0x327 JUMPI PUSH2 0x327 PUSH2 0x18D JUMP JUMPDEST PUSH2 0x33B DUP2 PUSH2 0x335 DUP5 SLOAD PUSH2 0x289 JUMP JUMPDEST DUP5 PUSH2 0x2C1 JUMP JUMPDEST PUSH1 0x20 PUSH1 0x1F DUP3 GT PUSH1 0x1 DUP2 EQ PUSH2 0x36D JUMPI PUSH0 DUP4 ISZERO PUSH2 0x356 JUMPI POP DUP5 DUP3 ADD MLOAD JUMPDEST PUSH0 NOT PUSH1 0x3 DUP6 SWAP1 SHL SHR NOT AND PUSH1 0x1 DUP5 SWAP1 SHL OR DUP5 SSTORE PUSH2 0x305 JUMP JUMPDEST PUSH0 DUP5 DUP2 MSTORE PUSH1 0x20 DUP2 KECCAK256 PUSH1 0x1F NOT DUP6 AND SWAP2 JUMPDEST DUP3 DUP2 LT ISZERO PUSH2 0x39C JUMPI DUP8 DUP6 ADD MLOAD DUP3 SSTORE PUSH1 0x20 SWAP5 DUP6 ADD SWAP5 PUSH1 0x1 SWAP1 SWAP3 ADD SWAP2 ADD PUSH2 0x37C JUMP JUMPDEST POP DUP5 DUP3 LT ISZERO PUSH2 0x3B9 JUMPI DUP7 DUP5 ADD MLOAD PUSH0 NOT PUSH1 0x3 DUP8 SWAP1 SHL PUSH1 0xF8 AND SHR NOT AND DUP2 SSTORE JUMPDEST POP POP POP POP PUSH1 0x1 SWAP1 DUP2 SHL ADD SWAP1 SSTORE POP JUMP INVALID LOG2 PUSH5 0x6970667358 0x22 SLT KECCAK256 MSTORE CALLCODE 0xDF GT 0xE3 0xC7 PUSH4 0x87004CC0 PUSH0 BLOBBASEFEE SWAP2 SMOD 0xC8 0xC4 0x4E PUSH32 0xDF38094B1E2B807D1CF5692D1E64736F6C634300081A00330000000000000000 "
				},
				"gasEstimates": {
					"creation": {
						"codeDepositCost": "204400",
						"executionCost": "infinite",
						"totalCost": "infinite"
					},
					"external": {
						"message()": "infinite",
						"owner()": "2325",
						"updateMessage(string)": "infinite"
					}
				},
				"methodIdentifiers": {
					"message()": "e21f37ce",
					"owner()": "8da5cb5b",
					"updateMessage(string)": "1923be24"
				}
			},
			"storageLayout": {
				"storage": [
					{
						"astId": 283,
						"contract": "MessageBox.sol:MessageBox",
						"label": "message",
						"offset": 0,
						"slot": "0",
						"type": "t_string_storage"
					},
					{
						"astId": 285,
						"contract": "MessageBox.sol:MessageBox",
						"label": "owner",
						"offset": 0,
						"slot": "1",
						"type": "t_address"
					}
				],
				"types": {
					"t_address": {
						"encoding": "inplace",
						"label": "address",
						"numberOfBytes": "20"
					},
					"t_string_storage": {
						"encoding": "bytes",
						"label": "string",
						"numberOfBytes": "32"
					}
				}
			},
			"userdoc": {
				"kind": "user",
				"methods": {},
				"version": 1
			}
		}
	}
}