{
	"auctionbatch.sol": {
		"BatchDeployAuction": {
			"abi": [
				{
					"inputs": [
						{
							"internalType": "uint256",
							"name": "",
							"type": "uint256"
						}
					],
					"name": "auctions",
					"outputs": [
						{
							"internalType": "contract Auction",
							"name": "",
							"type": "address"
						}
					],
					"stateMutability": "view",
					"type": "function"
				},
				{
					"inputs": [],
					"name": "deployAll",
					"outputs": [],
					"stateMutability": "nonpayable",
					"type": "function"
				},
				{
					"inputs": [
						{
							"internalType": "uint256",
							"name": "index",
							"type": "uint256"
						}
					],
					"name": "get",
					"outputs": [
						{
							"internalType": "address",
							"name": "",
							"type": "address"
						}
					],
					"stateMutability": "view",
					"type": "function"
				}
			],
			"devdoc": {
				"kind": "dev",
				"methods": {},
				"version": 1
			},
			"evm": {
				"assembly": "    /* \"auctionbatch.sol\":254:1128  contract BatchDeployAuction {... */\n  mstore(0x40, 0x80)\n  callvalue\n  dup1\n  iszero\n  tag_1\n  jumpi\n  0x00\n  dup1\n  revert\ntag_1:\n  pop\n  dataSize(sub_0)\n  dup1\n  dataOffset(sub_0)\n  0x00\n  codecopy\n  0x00\n  return\nstop\n\nsub_0: assembly {\n        /* \"auctionbatch.sol\":254:1128  contract BatchDeployAuction {... */\n      mstore(0x40, 0x80)\n      callvalue\n      dup1\n      iszero\n      tag_1\n      jumpi\n      0x00\n      dup1\n      revert\n    tag_1:\n      pop\n      jumpi(tag_2, lt(calldatasize, 0x04))\n      shr(0xe0, calldataload(0x00))\n      dup1\n      0x2d823335\n      eq\n      tag_3\n      jumpi\n      dup1\n      0x571a26a0\n      eq\n      tag_4\n      jumpi\n      dup1\n      0x9507d39a\n      eq\n      tag_5\n      jumpi\n    tag_2:\n      0x00\n      dup1\n      revert\n        /* \"auctionbatch.sol\":323:637  function deployAll() public {... */\n    tag_3:\n      tag_6\n      tag_7\n      jump\t// in\n    tag_6:\n      stop\n        /* \"auctionbatch.sol\":289:314  Auction[] public auctions */\n    tag_4:\n      tag_8\n      tag_9\n      calldatasize\n      0x04\n      tag_10\n      jump\t// in\n    tag_9:\n      tag_11\n      jump\t// in\n    tag_8:\n      mload(0x40)\n      sub(shl(0xa0, 0x01), 0x01)\n        /* \"#utility.yul\":377:409   */\n      swap1\n      swap2\n      and\n        /* \"#utility.yul\":359:410   */\n      dup2\n      mstore\n        /* \"#utility.yul\":347:349   */\n      0x20\n        /* \"#utility.yul\":332:350   */\n      add\n        /* \"auctionbatch.sol\":289:314  Auction[] public auctions */\n      mload(0x40)\n      dup1\n      swap2\n      sub\n      swap1\n      return\n        /* \"auctionbatch.sol\":645:750  function get(uint index) public view returns (address) {... */\n    tag_5:\n      tag_8\n      tag_15\n      calldatasize\n      0x04\n      tag_10\n      jump\t// in\n    tag_15:\n      tag_16\n      jump\t// in\n        /* \"auctionbatch.sol\":323:637  function deployAll() public {... */\n    tag_7:\n        /* \"auctionbatch.sol\":370:378  auctions */\n      0x00\n        /* \"auctionbatch.sol\":370:385  auctions.length */\n      sload\n        /* \"auctionbatch.sol\":370:390  auctions.length == 0 */\n      iszero\n        /* \"auctionbatch.sol\":362:411  require(auctions.length == 0, \"Already deployed\") */\n      tag_20\n      jumpi\n      mload(0x40)\n      shl(0xe5, 0x461bcd)\n      dup2\n      mstore\n        /* \"#utility.yul\":831:833   */\n      0x20\n        /* \"auctionbatch.sol\":362:411  require(auctions.length == 0, \"Already deployed\") */\n      0x04\n      dup3\n      add\n        /* \"#utility.yul\":813:834   */\n      mstore\n        /* \"#utility.yul\":870:872   */\n      0x10\n        /* \"#utility.yul\":850:868   */\n      0x24\n      dup3\n      add\n        /* \"#utility.yul\":843:873   */\n      mstore\n      shl(0x82, 0x105b1c9958591e4819195c1b1bde5959)\n        /* \"#utility.yul\":889:907   */\n      0x44\n      dup3\n      add\n        /* \"#utility.yul\":882:928   */\n      mstore\n        /* \"#utility.yul\":945:963   */\n      0x64\n      add\n        /* \"auctionbatch.sol\":362:411  require(auctions.length == 0, \"Already deployed\") */\n      mload(0x40)\n      dup1\n      swap2\n      sub\n      swap1\n      revert\n    tag_20:\n        /* \"auctionbatch.sol\":436:437  1 */\n      0x01\n        /* \"auctionbatch.sol\":422:630  for (uint i = 1; i <= 30; i++) {... */\n    tag_23:\n        /* \"auctionbatch.sol\":444:446  30 */\n      0x1e\n        /* \"auctionbatch.sol\":439:440  i */\n      dup2\n        /* \"auctionbatch.sol\":439:446  i <= 30 */\n      gt\n        /* \"auctionbatch.sol\":422:630  for (uint i = 1; i <= 30; i++) {... */\n      tag_24\n      jumpi\n        /* \"auctionbatch.sol\":468:490  string memory itemName */\n      0x00\n        /* \"auctionbatch.sol\":526:537  uint2str(i) */\n      tag_26\n        /* \"auctionbatch.sol\":535:536  i */\n      dup3\n        /* \"auctionbatch.sol\":526:534  uint2str */\n      tag_27\n        /* \"auctionbatch.sol\":526:537  uint2str(i) */\n      jump\t// in\n    tag_26:\n        /* \"auctionbatch.sol\":500:538  abi.encodePacked(\"Item_\", uint2str(i)) */\n      add(0x20, mload(0x40))\n      tag_28\n      swap2\n      swap1\n      tag_29\n      jump\t// in\n    tag_28:\n      mload(0x40)\n      0x20\n      dup2\n      dup4\n      sub\n      sub\n      dup2\n      mstore\n      swap1\n      0x40\n      mstore\n        /* \"auctionbatch.sol\":468:539  string memory itemName = string(abi.encodePacked(\"Item_\", uint2str(i))) */\n      swap1\n      pop\n        /* \"auctionbatch.sol\":554:563  Auction a */\n      0x00\n        /* \"auctionbatch.sol\":578:586  itemName */\n      dup2\n        /* \"auctionbatch.sol\":566:587  new Auction(itemName) */\n      mload(0x40)\n      tag_30\n      swap1\n      tag_31\n      jump\t// in\n    tag_30:\n      tag_32\n      swap2\n      swap1\n      tag_33\n      jump\t// in\n    tag_32:\n      mload(0x40)\n      dup1\n      swap2\n      sub\n      swap1\n      0x00\n      create\n      dup1\n      iszero\n      dup1\n      iszero\n      tag_34\n      jumpi\n      returndatasize\n      0x00\n      dup1\n      returndatacopy\n      revert(0x00, returndatasize)\n    tag_34:\n      pop\n        /* \"auctionbatch.sol\":602:610  auctions */\n      0x00\n        /* \"auctionbatch.sol\":602:618  auctions.push(a) */\n      dup1\n      sload\n      0x01\n      dup2\n      add\n      dup3\n      sstore\n      swap1\n      dup1\n      mstore\n      0x290decd9548b62a8d60345a988386fc84ba6bc95484008f6362f93160ef3e563\n      add\n      dup1\n      sload\n      not(sub(shl(0xa0, 0x01), 0x01))\n      and\n      sub(shl(0xa0, 0x01), 0x01)\n      swap3\n      swap1\n      swap3\n      and\n      swap2\n      swap1\n      swap2\n      or\n      swap1\n      sstore\n      pop\n        /* \"auctionbatch.sol\":448:451  i++ */\n      dup2\n      swap1\n      pop\n      tag_36\n      dup2\n      tag_37\n      jump\t// in\n    tag_36:\n      swap2\n      pop\n      pop\n        /* \"auctionbatch.sol\":422:630  for (uint i = 1; i <= 30; i++) {... */\n      jump(tag_23)\n    tag_24:\n      pop\n        /* \"auctionbatch.sol\":323:637  function deployAll() public {... */\n      jump\t// out\n        /* \"auctionbatch.sol\":289:314  Auction[] public auctions */\n    tag_11:\n      0x00\n      dup2\n      dup2\n      sload\n      dup2\n      lt\n      tag_38\n      jumpi\n      0x00\n      dup1\n      revert\n    tag_38:\n      0x00\n      swap2\n      dup3\n      mstore\n      0x20\n      swap1\n      swap2\n      keccak256\n      add\n      sload\n      sub(shl(0xa0, 0x01), 0x01)\n      and\n      swap1\n      pop\n      dup2\n      jump\t// out\n        /* \"auctionbatch.sol\":645:750  function get(uint index) public view returns (address) {... */\n    tag_16:\n        /* \"auctionbatch.sol\":691:698  address */\n      0x00\n        /* \"auctionbatch.sol\":726:734  auctions */\n      dup1\n        /* \"auctionbatch.sol\":735:740  index */\n      dup3\n        /* \"auctionbatch.sol\":726:741  auctions[index] */\n      dup2\n      sload\n      dup2\n      lt\n      tag_42\n      jumpi\n      tag_42\n      tag_43\n      jump\t// in\n    tag_42:\n      0x00\n      swap2\n      dup3\n      mstore\n      0x20\n      swap1\n      swap2\n      keccak256\n      add\n      sload\n      sub(shl(0xa0, 0x01), 0x01)\n      and\n      swap3\n        /* \"auctionbatch.sol\":645:750  function get(uint index) public view returns (address) {... */\n      swap2\n      pop\n      pop\n      jump\t// out\n        /* \"auctionbatch.sol\":758:1125  function uint2str(uint _i) internal pure returns (string memory str) {... */\n    tag_27:\n        /* \"auctionbatch.sol\":808:825  string memory str */\n      0x60\n        /* \"auctionbatch.sol\":842:844  _i */\n      dup2\n        /* \"auctionbatch.sol\":848:849  0 */\n      0x00\n        /* \"auctionbatch.sol\":842:849  _i == 0 */\n      sub\n        /* \"auctionbatch.sol\":838:861  if (_i == 0) return \"0\" */\n      tag_46\n      jumpi\n      pop\n      pop\n        /* \"auctionbatch.sol\":851:861  return \"0\" */\n      0x40\n      dup1\n      mload\n      dup1\n      dup3\n      add\n      swap1\n      swap2\n      mstore\n      0x01\n      dup2\n      mstore\n      shl(0xfc, 0x03)\n      0x20\n      dup3\n      add\n      mstore\n      swap1\n        /* \"auctionbatch.sol\":758:1125  function uint2str(uint _i) internal pure returns (string memory str) {... */\n      jump\t// out\n        /* \"auctionbatch.sol\":838:861  if (_i == 0) return \"0\" */\n    tag_46:\n        /* \"auctionbatch.sol\":881:883  _i */\n      dup2\n        /* \"auctionbatch.sol\":872:878  uint j */\n      0x00\n        /* \"auctionbatch.sol\":904:938  while (j != 0) { len++; j /= 10; } */\n    tag_47:\n        /* \"auctionbatch.sol\":911:917  j != 0 */\n      dup2\n      iszero\n        /* \"auctionbatch.sol\":904:938  while (j != 0) { len++; j /= 10; } */\n      tag_48\n      jumpi\n        /* \"auctionbatch.sol\":921:926  len++ */\n      dup1\n      tag_49\n      dup2\n      tag_37\n      jump\t// in\n    tag_49:\n      swap2\n      pop\n        /* \"auctionbatch.sol\":928:935  j /= 10 */\n      tag_50\n      swap1\n      pop\n        /* \"auctionbatch.sol\":933:935  10 */\n      0x0a\n        /* \"auctionbatch.sol\":928:935  j /= 10 */\n      dup4\n      tag_51\n      jump\t// in\n    tag_50:\n      swap2\n      pop\n        /* \"auctionbatch.sol\":904:938  while (j != 0) { len++; j /= 10; } */\n      jump(tag_47)\n    tag_48:\n        /* \"auctionbatch.sol\":948:965  bytes memory bstr */\n      0x00\n        /* \"auctionbatch.sol\":978:981  len */\n      dup2\n        /* \"auctionbatch.sol\":968:982  new bytes(len) */\n      0xffffffffffffffff\n      dup2\n      gt\n      iszero\n      tag_53\n      jumpi\n      tag_53\n      tag_54\n      jump\t// in\n    tag_53:\n      mload(0x40)\n      swap1\n      dup1\n      dup3\n      mstore\n      dup1\n      0x1f\n      add\n      not(0x1f)\n      and\n      0x20\n      add\n      dup3\n      add\n      0x40\n      mstore\n      dup1\n      iszero\n      tag_55\n      jumpi\n      0x20\n      dup3\n      add\n      dup2\n      dup1\n      calldatasize\n      dup4\n      calldatacopy\n      add\n      swap1\n      pop\n    tag_55:\n      pop\n        /* \"auctionbatch.sol\":948:982  bytes memory bstr = new bytes(len) */\n      swap1\n      pop\n        /* \"auctionbatch.sol\":1002:1005  len */\n      dup2\n        /* \"auctionbatch.sol\":1016:1089  while (_i != 0) { k--; bstr[k] = bytes1(uint8(48 + _i % 10)); _i /= 10; } */\n    tag_56:\n        /* \"auctionbatch.sol\":1023:1030  _i != 0 */\n      dup6\n      iszero\n        /* \"auctionbatch.sol\":1016:1089  while (_i != 0) { k--; bstr[k] = bytes1(uint8(48 + _i % 10)); _i /= 10; } */\n      tag_57\n      jumpi\n        /* \"auctionbatch.sol\":1034:1037  k-- */\n      dup1\n      tag_58\n      dup2\n      tag_59\n      jump\t// in\n    tag_58:\n      swap2\n      pop\n        /* \"auctionbatch.sol\":1067:1074  _i % 10 */\n      tag_60\n      swap1\n      pop\n        /* \"auctionbatch.sol\":1072:1074  10 */\n      0x0a\n        /* \"auctionbatch.sol\":1067:1069  _i */\n      dup8\n        /* \"auctionbatch.sol\":1067:1074  _i % 10 */\n      tag_61\n      jump\t// in\n    tag_60:\n        /* \"auctionbatch.sol\":1062:1074  48 + _i % 10 */\n      tag_62\n      swap1\n        /* \"auctionbatch.sol\":1062:1064  48 */\n      0x30\n        /* \"auctionbatch.sol\":1062:1074  48 + _i % 10 */\n      tag_63\n      jump\t// in\n    tag_62:\n        /* \"auctionbatch.sol\":1049:1076  bytes1(uint8(48 + _i % 10)) */\n      0xf8\n      shl\n        /* \"auctionbatch.sol\":1039:1043  bstr */\n      dup3\n        /* \"auctionbatch.sol\":1044:1045  k */\n      dup3\n        /* \"auctionbatch.sol\":1039:1046  bstr[k] */\n      dup2\n      mload\n      dup2\n      lt\n      tag_65\n      jumpi\n      tag_65\n      tag_43\n      jump\t// in\n    tag_65:\n      0x20\n      add\n      add\n        /* \"auctionbatch.sol\":1039:1076  bstr[k] = bytes1(uint8(48 + _i % 10)) */\n      swap1\n      not(sub(shl(0xf8, 0x01), 0x01))\n      and\n      swap1\n      dup2\n      0x00\n      byte\n      swap1\n      mstore8\n      pop\n        /* \"auctionbatch.sol\":1078:1086  _i /= 10 */\n      tag_66\n        /* \"auctionbatch.sol\":1084:1086  10 */\n      0x0a\n        /* \"auctionbatch.sol\":1078:1086  _i /= 10 */\n      dup8\n      tag_51\n      jump\t// in\n    tag_66:\n      swap6\n      pop\n        /* \"auctionbatch.sol\":1016:1089  while (_i != 0) { k--; bstr[k] = bytes1(uint8(48 + _i % 10)); _i /= 10; } */\n      jump(tag_56)\n    tag_57:\n      pop\n        /* \"auctionbatch.sol\":1112:1116  bstr */\n      swap5\n        /* \"auctionbatch.sol\":758:1125  function uint2str(uint _i) internal pure returns (string memory str) {... */\n      swap4\n      pop\n      pop\n      pop\n      pop\n      jump\t// out\n    tag_31:\n      dataSize(sub_0)\n      dup1\n      dataOffset(sub_0)\n      dup4\n      codecopy\n      add\n      swap1\n      jump\t// out\n        /* \"#utility.yul\":14:194   */\n    tag_10:\n        /* \"#utility.yul\":73:79   */\n      0x00\n        /* \"#utility.yul\":126:128   */\n      0x20\n        /* \"#utility.yul\":114:123   */\n      dup3\n        /* \"#utility.yul\":105:112   */\n      dup5\n        /* \"#utility.yul\":101:124   */\n      sub\n        /* \"#utility.yul\":97:129   */\n      slt\n        /* \"#utility.yul\":94:146   */\n      iszero\n      tag_71\n      jumpi\n        /* \"#utility.yul\":142:143   */\n      0x00\n        /* \"#utility.yul\":139:140   */\n      dup1\n        /* \"#utility.yul\":132:144   */\n      revert\n        /* \"#utility.yul\":94:146   */\n    tag_71:\n      pop\n        /* \"#utility.yul\":165:188   */\n      calldataload\n      swap2\n        /* \"#utility.yul\":14:194   */\n      swap1\n      pop\n      jump\t// out\n        /* \"#utility.yul\":974:1423   */\n    tag_29:\n      shl(0xd8, 0x4974656d5f)\n        /* \"#utility.yul\":1231:1234   */\n      dup2\n        /* \"#utility.yul\":1224:1244   */\n      mstore\n        /* \"#utility.yul\":1206:1209   */\n      0x00\n        /* \"#utility.yul\":1273:1279   */\n      dup3\n        /* \"#utility.yul\":1267:1280   */\n      mload\n        /* \"#utility.yul\":1327:1333   */\n      dup1\n        /* \"#utility.yul\":1320:1324   */\n      0x20\n        /* \"#utility.yul\":1312:1318   */\n      dup6\n        /* \"#utility.yul\":1308:1325   */\n      add\n        /* \"#utility.yul\":1304:1305   */\n      0x05\n        /* \"#utility.yul\":1299:1302   */\n      dup6\n        /* \"#utility.yul\":1295:1306   */\n      add\n        /* \"#utility.yul\":1289:1334   */\n      mcopy\n        /* \"#utility.yul\":1397:1398   */\n      0x00\n        /* \"#utility.yul\":1357:1373   */\n      swap3\n      add\n        /* \"#utility.yul\":1375:1376   */\n      0x05\n        /* \"#utility.yul\":1353:1377   */\n      add\n        /* \"#utility.yul\":1386:1399   */\n      swap2\n      dup3\n      mstore\n      pop\n        /* \"#utility.yul\":1353:1377   */\n      swap2\n        /* \"#utility.yul\":974:1423   */\n      swap1\n      pop\n      jump\t// out\n        /* \"#utility.yul\":1428:1846   */\n    tag_33:\n        /* \"#utility.yul\":1577:1579   */\n      0x20\n        /* \"#utility.yul\":1566:1575   */\n      dup2\n        /* \"#utility.yul\":1559:1580   */\n      mstore\n        /* \"#utility.yul\":1540:1544   */\n      0x00\n        /* \"#utility.yul\":1609:1615   */\n      dup3\n        /* \"#utility.yul\":1603:1616   */\n      mload\n        /* \"#utility.yul\":1652:1658   */\n      dup1\n        /* \"#utility.yul\":1647:1649   */\n      0x20\n        /* \"#utility.yul\":1636:1645   */\n      dup5\n        /* \"#utility.yul\":1632:1650   */\n      add\n        /* \"#utility.yul\":1625:1659   */\n      mstore\n        /* \"#utility.yul\":1711:1717   */\n      dup1\n        /* \"#utility.yul\":1706:1708   */\n      0x20\n        /* \"#utility.yul\":1698:1704   */\n      dup6\n        /* \"#utility.yul\":1694:1709   */\n      add\n        /* \"#utility.yul\":1689:1691   */\n      0x40\n        /* \"#utility.yul\":1678:1687   */\n      dup6\n        /* \"#utility.yul\":1674:1692   */\n      add\n        /* \"#utility.yul\":1668:1718   */\n      mcopy\n        /* \"#utility.yul\":1767:1768   */\n      0x00\n        /* \"#utility.yul\":1762:1764   */\n      0x40\n        /* \"#utility.yul\":1753:1759   */\n      dup3\n        /* \"#utility.yul\":1742:1751   */\n      dup6\n        /* \"#utility.yul\":1738:1760   */\n      add\n        /* \"#utility.yul\":1734:1765   */\n      add\n        /* \"#utility.yul\":1727:1769   */\n      mstore\n        /* \"#utility.yul\":1837:1839   */\n      0x40\n        /* \"#utility.yul\":1830:1832   */\n      0x1f\n        /* \"#utility.yul\":1826:1833   */\n      not\n        /* \"#utility.yul\":1821:1823   */\n      0x1f\n        /* \"#utility.yul\":1813:1819   */\n      dup4\n        /* \"#utility.yul\":1809:1824   */\n      add\n        /* \"#utility.yul\":1805:1834   */\n      and\n        /* \"#utility.yul\":1794:1803   */\n      dup5\n        /* \"#utility.yul\":1790:1835   */\n      add\n        /* \"#utility.yul\":1786:1840   */\n      add\n        /* \"#utility.yul\":1778:1840   */\n      swap2\n      pop\n      pop\n        /* \"#utility.yul\":1428:1846   */\n      swap3\n      swap2\n      pop\n      pop\n      jump\t// out\n        /* \"#utility.yul\":1851:1978   */\n    tag_67:\n        /* \"#utility.yul\":1912:1922   */\n      0x4e487b71\n        /* \"#utility.yul\":1907:1910   */\n      0xe0\n        /* \"#utility.yul\":1903:1923   */\n      shl\n        /* \"#utility.yul\":1900:1901   */\n      0x00\n        /* \"#utility.yul\":1893:1924   */\n      mstore\n        /* \"#utility.yul\":1943:1947   */\n      0x11\n        /* \"#utility.yul\":1940:1941   */\n      0x04\n        /* \"#utility.yul\":1933:1948   */\n      mstore\n        /* \"#utility.yul\":1967:1971   */\n      0x24\n        /* \"#utility.yul\":1964:1965   */\n      0x00\n        /* \"#utility.yul\":1957:1972   */\n      revert\n        /* \"#utility.yul\":1983:2118   */\n    tag_37:\n        /* \"#utility.yul\":2022:2025   */\n      0x00\n        /* \"#utility.yul\":2043:2060   */\n      0x01\n      dup3\n      add\n        /* \"#utility.yul\":2040:2083   */\n      tag_80\n      jumpi\n        /* \"#utility.yul\":2063:2081   */\n      tag_80\n      tag_67\n      jump\t// in\n    tag_80:\n      pop\n        /* \"#utility.yul\":2110:2111   */\n      0x01\n        /* \"#utility.yul\":2099:2112   */\n      add\n      swap1\n        /* \"#utility.yul\":1983:2118   */\n      jump\t// out\n        /* \"#utility.yul\":2123:2250   */\n    tag_43:\n        /* \"#utility.yul\":2184:2194   */\n      0x4e487b71\n        /* \"#utility.yul\":2179:2182   */\n      0xe0\n        /* \"#utility.yul\":2175:2195   */\n      shl\n        /* \"#utility.yul\":2172:2173   */\n      0x00\n        /* \"#utility.yul\":2165:2196   */\n      mstore\n        /* \"#utility.yul\":2215:2219   */\n      0x32\n        /* \"#utility.yul\":2212:2213   */\n      0x04\n        /* \"#utility.yul\":2205:2220   */\n      mstore\n        /* \"#utility.yul\":2239:2243   */\n      0x24\n        /* \"#utility.yul\":2236:2237   */\n      0x00\n        /* \"#utility.yul\":2229:2244   */\n      revert\n        /* \"#utility.yul\":2255:2382   */\n    tag_68:\n        /* \"#utility.yul\":2316:2326   */\n      0x4e487b71\n        /* \"#utility.yul\":2311:2314   */\n      0xe0\n        /* \"#utility.yul\":2307:2327   */\n      shl\n        /* \"#utility.yul\":2304:2305   */\n      0x00\n        /* \"#utility.yul\":2297:2328   */\n      mstore\n        /* \"#utility.yul\":2347:2351   */\n      0x12\n        /* \"#utility.yul\":2344:2345   */\n      0x04\n        /* \"#utility.yul\":2337:2352   */\n      mstore\n        /* \"#utility.yul\":2371:2375   */\n      0x24\n        /* \"#utility.yul\":2368:2369   */\n      0x00\n        /* \"#utility.yul\":2361:2376   */\n      revert\n        /* \"#utility.yul\":2387:2507   */\n    tag_51:\n        /* \"#utility.yul\":2427:2428   */\n      0x00\n        /* \"#utility.yul\":2453:2454   */\n      dup3\n        /* \"#utility.yul\":2443:2478   */\n      tag_85\n      jumpi\n        /* \"#utility.yul\":2458:2476   */\n      tag_85\n      tag_68\n      jump\t// in\n    tag_85:\n      pop\n        /* \"#utility.yul\":2492:2501   */\n      div\n      swap1\n        /* \"#utility.yul\":2387:2507   */\n      jump\t// out\n        /* \"#utility.yul\":2512:2639   */\n    tag_54:\n        /* \"#utility.yul\":2573:2583   */\n      0x4e487b71\n        /* \"#utility.yul\":2568:2571   */\n      0xe0\n        /* \"#utility.yul\":2564:2584   */\n      shl\n        /* \"#utility.yul\":2561:2562   */\n      0x00\n        /* \"#utility.yul\":2554:2585   */\n      mstore\n        /* \"#utility.yul\":2604:2608   */\n      0x41\n        /* \"#utility.yul\":2601:2602   */\n      0x04\n        /* \"#utility.yul\":2594:2609   */\n      mstore\n        /* \"#utility.yul\":2628:2632   */\n      0x24\n        /* \"#utility.yul\":2625:2626   */\n      0x00\n        /* \"#utility.yul\":2618:2633   */\n      revert\n        /* \"#utility.yul\":2644:2780   */\n    tag_59:\n        /* \"#utility.yul\":2683:2686   */\n      0x00\n        /* \"#utility.yul\":2711:2716   */\n      dup2\n        /* \"#utility.yul\":2701:2740   */\n      tag_89\n      jumpi\n        /* \"#utility.yul\":2720:2738   */\n      tag_89\n      tag_67\n      jump\t// in\n    tag_89:\n      pop\n      not(0x00)\n        /* \"#utility.yul\":2756:2774   */\n      add\n      swap1\n        /* \"#utility.yul\":2644:2780   */\n      jump\t// out\n        /* \"#utility.yul\":2785:2897   */\n    tag_61:\n        /* \"#utility.yul\":2817:2818   */\n      0x00\n        /* \"#utility.yul\":2843:2844   */\n      dup3\n        /* \"#utility.yul\":2833:2868   */\n      tag_92\n      jumpi\n        /* \"#utility.yul\":2848:2866   */\n      tag_92\n      tag_68\n      jump\t// in\n    tag_92:\n      pop\n        /* \"#utility.yul\":2882:2891   */\n      mod\n      swap1\n        /* \"#utility.yul\":2785:2897   */\n      jump\t// out\n        /* \"#utility.yul\":2902:3027   */\n    tag_63:\n        /* \"#utility.yul\":2967:2976   */\n      dup1\n      dup3\n      add\n        /* \"#utility.yul\":2988:2998   */\n      dup1\n      dup3\n      gt\n        /* \"#utility.yul\":2985:3021   */\n      iszero\n      tag_95\n      jumpi\n        /* \"#utility.yul\":3001:3019   */\n      tag_95\n      tag_67\n      jump\t// in\n    tag_95:\n        /* \"#utility.yul\":2902:3027   */\n      swap3\n      swap2\n      pop\n      pop\n      jump\t// out\n    stop\n\n    sub_0: assembly {\n            /* \"auctionbatch.sol\":61:250  contract Auction {... */\n          mstore(0x40, 0x80)\n            /* \"auctionbatch.sol\":138:247  constructor(string memory _item) {... */\n          callvalue\n          dup1\n          iszero\n          tag_1\n          jumpi\n          0x00\n          dup1\n          revert\n        tag_1:\n          pop\n          mload(0x40)\n          sub(codesize, bytecodeSize)\n          dup1\n          bytecodeSize\n          dup4\n          codecopy\n          dup2\n          add\n          0x40\n          dup2\n          swap1\n          mstore\n          tag_2\n          swap2\n          tag_3\n          jump\t// in\n        tag_2:\n            /* \"auctionbatch.sol\":182:186  item */\n          0x00\n            /* \"auctionbatch.sol\":182:194  item = _item */\n          tag_6\n            /* \"auctionbatch.sol\":189:194  _item */\n          dup3\n            /* \"auctionbatch.sol\":182:186  item */\n          dup3\n            /* \"auctionbatch.sol\":182:194  item = _item */\n          tag_7\n          jump\t// in\n        tag_6:\n          pop\n            /* \"auctionbatch.sol\":215:239  block.timestamp + 3 days */\n          tag_8\n            /* \"auctionbatch.sol\":215:230  block.timestamp */\n          timestamp\n            /* \"auctionbatch.sol\":233:239  3 days */\n          0x03f480\n            /* \"auctionbatch.sol\":215:239  block.timestamp + 3 days */\n          tag_9\n          jump\t// in\n        tag_8:\n            /* \"auctionbatch.sol\":205:212  endTime */\n          0x01\n            /* \"auctionbatch.sol\":205:239  endTime = block.timestamp + 3 days */\n          sstore\n          pop\n            /* \"auctionbatch.sol\":61:250  contract Auction {... */\n          jump(tag_16)\n            /* \"#utility.yul\":14:141   */\n        tag_11:\n            /* \"#utility.yul\":75:85   */\n          0x4e487b71\n            /* \"#utility.yul\":70:73   */\n          0xe0\n            /* \"#utility.yul\":66:86   */\n          shl\n            /* \"#utility.yul\":63:64   */\n          0x00\n            /* \"#utility.yul\":56:87   */\n          mstore\n            /* \"#utility.yul\":106:110   */\n          0x41\n            /* \"#utility.yul\":103:104   */\n          0x04\n            /* \"#utility.yul\":96:111   */\n          mstore\n            /* \"#utility.yul\":130:134   */\n          0x24\n            /* \"#utility.yul\":127:128   */\n          0x00\n            /* \"#utility.yul\":120:135   */\n          revert\n            /* \"#utility.yul\":146:1081   */\n        tag_3:\n            /* \"#utility.yul\":226:232   */\n          0x00\n            /* \"#utility.yul\":279:281   */\n          0x20\n            /* \"#utility.yul\":267:276   */\n          dup3\n            /* \"#utility.yul\":258:265   */\n          dup5\n            /* \"#utility.yul\":254:277   */\n          sub\n            /* \"#utility.yul\":250:282   */\n          slt\n            /* \"#utility.yul\":247:299   */\n          iszero\n          tag_19\n          jumpi\n            /* \"#utility.yul\":295:296   */\n          0x00\n            /* \"#utility.yul\":292:293   */\n          dup1\n            /* \"#utility.yul\":285:297   */\n          revert\n            /* \"#utility.yul\":247:299   */\n        tag_19:\n            /* \"#utility.yul\":322:338   */\n          dup2\n          mload\n          sub(shl(0x40, 0x01), 0x01)\n            /* \"#utility.yul\":350:380   */\n          dup2\n          gt\n            /* \"#utility.yul\":347:397   */\n          iszero\n          tag_20\n          jumpi\n            /* \"#utility.yul\":393:394   */\n          0x00\n            /* \"#utility.yul\":390:391   */\n          dup1\n            /* \"#utility.yul\":383:395   */\n          revert\n            /* \"#utility.yul\":347:397   */\n        tag_20:\n            /* \"#utility.yul\":416:438   */\n          dup3\n          add\n            /* \"#utility.yul\":469:473   */\n          0x1f\n            /* \"#utility.yul\":461:474   */\n          dup2\n          add\n            /* \"#utility.yul\":457:484   */\n          dup5\n          sgt\n            /* \"#utility.yul\":447:502   */\n          tag_21\n          jumpi\n            /* \"#utility.yul\":498:499   */\n          0x00\n            /* \"#utility.yul\":495:496   */\n          dup1\n            /* \"#utility.yul\":488:500   */\n          revert\n            /* \"#utility.yul\":447:502   */\n        tag_21:\n            /* \"#utility.yul\":525:534   */\n          dup1\n          mload\n          sub(shl(0x40, 0x01), 0x01)\n            /* \"#utility.yul\":546:576   */\n          dup2\n          gt\n            /* \"#utility.yul\":543:599   */\n          iszero\n          tag_23\n          jumpi\n            /* \"#utility.yul\":579:597   */\n          tag_23\n          tag_11\n          jump\t// in\n        tag_23:\n            /* \"#utility.yul\":628:630   */\n          0x40\n            /* \"#utility.yul\":622:631   */\n          mload\n            /* \"#utility.yul\":720:722   */\n          0x1f\n            /* \"#utility.yul\":682:699   */\n          dup3\n          add\n          not(0x1f)\n            /* \"#utility.yul\":678:709   */\n          swap1\n          dup2\n          and\n            /* \"#utility.yul\":711:713   */\n          0x3f\n            /* \"#utility.yul\":674:714   */\n          add\n            /* \"#utility.yul\":670:724   */\n          and\n            /* \"#utility.yul\":658:725   */\n          dup2\n          add\n          sub(shl(0x40, 0x01), 0x01)\n            /* \"#utility.yul\":740:774   */\n          dup2\n          gt\n            /* \"#utility.yul\":776:798   */\n          dup3\n          dup3\n          lt\n            /* \"#utility.yul\":737:799   */\n          or\n            /* \"#utility.yul\":734:822   */\n          iszero\n          tag_25\n          jumpi\n            /* \"#utility.yul\":802:820   */\n          tag_25\n          tag_11\n          jump\t// in\n        tag_25:\n            /* \"#utility.yul\":838:840   */\n          0x40\n            /* \"#utility.yul\":831:853   */\n          mstore\n            /* \"#utility.yul\":862:884   */\n          dup2\n          dup2\n          mstore\n            /* \"#utility.yul\":903:918   */\n          dup3\n          dup3\n          add\n            /* \"#utility.yul\":920:922   */\n          0x20\n            /* \"#utility.yul\":899:923   */\n          add\n            /* \"#utility.yul\":896:933   */\n          dup7\n          lt\n            /* \"#utility.yul\":893:950   */\n          iszero\n          tag_26\n          jumpi\n            /* \"#utility.yul\":946:947   */\n          0x00\n            /* \"#utility.yul\":943:944   */\n          dup1\n            /* \"#utility.yul\":936:948   */\n          revert\n            /* \"#utility.yul\":893:950   */\n        tag_26:\n            /* \"#utility.yul\":995:1001   */\n          dup2\n            /* \"#utility.yul\":990:992   */\n          0x20\n            /* \"#utility.yul\":986:988   */\n          dup5\n            /* \"#utility.yul\":982:993   */\n          add\n            /* \"#utility.yul\":977:979   */\n          0x20\n            /* \"#utility.yul\":969:975   */\n          dup4\n            /* \"#utility.yul\":965:980   */\n          add\n            /* \"#utility.yul\":959:1002   */\n          mcopy\n            /* \"#utility.yul\":1048:1049   */\n          0x00\n            /* \"#utility.yul\":1022:1041   */\n          swap2\n          dup2\n          add\n            /* \"#utility.yul\":1043:1045   */\n          0x20\n            /* \"#utility.yul\":1018:1046   */\n          add\n            /* \"#utility.yul\":1011:1050   */\n          swap2\n          swap1\n          swap2\n          mstore\n            /* \"#utility.yul\":1026:1032   */\n          swap5\n            /* \"#utility.yul\":146:1081   */\n          swap4\n          pop\n          pop\n          pop\n          pop\n          jump\t// out\n            /* \"#utility.yul\":1086:1466   */\n        tag_12:\n            /* \"#utility.yul\":1165:1166   */\n          0x01\n            /* \"#utility.yul\":1161:1173   */\n          dup2\n          dup2\n          shr\n          swap1\n            /* \"#utility.yul\":1208:1220   */\n          dup3\n          and\n          dup1\n            /* \"#utility.yul\":1229:1290   */\n          tag_28\n          jumpi\n            /* \"#utility.yul\":1283:1287   */\n          0x7f\n            /* \"#utility.yul\":1275:1281   */\n          dup3\n            /* \"#utility.yul\":1271:1288   */\n          and\n            /* \"#utility.yul\":1261:1288   */\n          swap2\n          pop\n            /* \"#utility.yul\":1229:1290   */\n        tag_28:\n            /* \"#utility.yul\":1336:1338   */\n          0x20\n            /* \"#utility.yul\":1328:1334   */\n          dup3\n            /* \"#utility.yul\":1325:1339   */\n          lt\n            /* \"#utility.yul\":1305:1323   */\n          dup2\n            /* \"#utility.yul\":1302:1340   */\n          sub\n            /* \"#utility.yul\":1299:1460   */\n          tag_29\n          jumpi\n            /* \"#utility.yul\":1382:1392   */\n          0x4e487b71\n            /* \"#utility.yul\":1377:1380   */\n          0xe0\n            /* \"#utility.yul\":1373:1393   */\n          shl\n            /* \"#utility.yul\":1370:1371   */\n          0x00\n            /* \"#utility.yul\":1363:1394   */\n          mstore\n            /* \"#utility.yul\":1417:1421   */\n          0x22\n            /* \"#utility.yul\":1414:1415   */\n          0x04\n            /* \"#utility.yul\":1407:1422   */\n          mstore\n            /* \"#utility.yul\":1445:1449   */\n          0x24\n            /* \"#utility.yul\":1442:1443   */\n          0x00\n            /* \"#utility.yul\":1435:1450   */\n          revert\n            /* \"#utility.yul\":1299:1460   */\n        tag_29:\n          pop\n            /* \"#utility.yul\":1086:1466   */\n          swap2\n          swap1\n          pop\n          jump\t// out\n            /* \"#utility.yul\":1597:2115   */\n        tag_14:\n            /* \"#utility.yul\":1699:1701   */\n          0x1f\n            /* \"#utility.yul\":1694:1697   */\n          dup3\n            /* \"#utility.yul\":1691:1702   */\n          gt\n            /* \"#utility.yul\":1688:2109   */\n          iszero\n          tag_32\n          jumpi\n            /* \"#utility.yul\":1735:1740   */\n          dup1\n            /* \"#utility.yul\":1732:1733   */\n          0x00\n            /* \"#utility.yul\":1725:1741   */\n          mstore\n            /* \"#utility.yul\":1779:1783   */\n          0x20\n            /* \"#utility.yul\":1776:1777   */\n          0x00\n            /* \"#utility.yul\":1766:1784   */\n          keccak256\n            /* \"#utility.yul\":1849:1851   */\n          0x1f\n            /* \"#utility.yul\":1837:1847   */\n          dup5\n            /* \"#utility.yul\":1833:1852   */\n          add\n            /* \"#utility.yul\":1830:1831   */\n          0x05\n            /* \"#utility.yul\":1826:1853   */\n          shr\n            /* \"#utility.yul\":1820:1824   */\n          dup2\n            /* \"#utility.yul\":1816:1854   */\n          add\n            /* \"#utility.yul\":1885:1889   */\n          0x20\n            /* \"#utility.yul\":1873:1883   */\n          dup6\n            /* \"#utility.yul\":1870:1890   */\n          lt\n            /* \"#utility.yul\":1867:1914   */\n          iszero\n          tag_33\n          jumpi\n          pop\n            /* \"#utility.yul\":1908:1912   */\n          dup1\n            /* \"#utility.yul\":1867:1914   */\n        tag_33:\n            /* \"#utility.yul\":1963:1965   */\n          0x1f\n            /* \"#utility.yul\":1958:1961   */\n          dup5\n            /* \"#utility.yul\":1954:1966   */\n          add\n            /* \"#utility.yul\":1951:1952   */\n          0x05\n            /* \"#utility.yul\":1947:1967   */\n          shr\n            /* \"#utility.yul\":1941:1945   */\n          dup3\n            /* \"#utility.yul\":1937:1968   */\n          add\n            /* \"#utility.yul\":1927:1968   */\n          swap2\n          pop\n            /* \"#utility.yul\":2018:2099   */\n        tag_34:\n            /* \"#utility.yul\":2036:2038   */\n          dup2\n            /* \"#utility.yul\":2029:2034   */\n          dup2\n            /* \"#utility.yul\":2026:2039   */\n          lt\n            /* \"#utility.yul\":2018:2099   */\n          iszero\n          tag_36\n          jumpi\n            /* \"#utility.yul\":2095:2096   */\n          0x00\n            /* \"#utility.yul\":2081:2097   */\n          dup2\n          sstore\n            /* \"#utility.yul\":2062:2063   */\n          0x01\n            /* \"#utility.yul\":2051:2064   */\n          add\n            /* \"#utility.yul\":2018:2099   */\n          jump(tag_34)\n        tag_36:\n            /* \"#utility.yul\":2022:2025   */\n          pop\n          pop\n            /* \"#utility.yul\":1688:2109   */\n        tag_32:\n            /* \"#utility.yul\":1597:2115   */\n          pop\n          pop\n          pop\n          jump\t// out\n            /* \"#utility.yul\":2291:3590   */\n        tag_7:\n            /* \"#utility.yul\":2411:2421   */\n          dup2\n          mload\n          sub(shl(0x40, 0x01), 0x01)\n            /* \"#utility.yul\":2433:2463   */\n          dup2\n          gt\n            /* \"#utility.yul\":2430:2486   */\n          iszero\n          tag_40\n          jumpi\n            /* \"#utility.yul\":2466:2484   */\n          tag_40\n          tag_11\n          jump\t// in\n        tag_40:\n            /* \"#utility.yul\":2495:2592   */\n          tag_41\n            /* \"#utility.yul\":2585:2591   */\n          dup2\n            /* \"#utility.yul\":2545:2583   */\n          tag_42\n            /* \"#utility.yul\":2577:2581   */\n          dup5\n            /* \"#utility.yul\":2571:2582   */\n          sload\n            /* \"#utility.yul\":2545:2583   */\n          tag_12\n          jump\t// in\n        tag_42:\n            /* \"#utility.yul\":2539:2543   */\n          dup5\n            /* \"#utility.yul\":2495:2592   */\n          tag_14\n          jump\t// in\n        tag_41:\n            /* \"#utility.yul\":2641:2645   */\n          0x20\n            /* \"#utility.yul\":2672:2674   */\n          0x1f\n            /* \"#utility.yul\":2661:2675   */\n          dup3\n          gt\n            /* \"#utility.yul\":2689:2690   */\n          0x01\n            /* \"#utility.yul\":2684:3333   */\n          dup2\n          eq\n          tag_44\n          jumpi\n            /* \"#utility.yul\":3377:3378   */\n          0x00\n            /* \"#utility.yul\":3394:3400   */\n          dup4\n            /* \"#utility.yul\":3391:3480   */\n          iszero\n          tag_45\n          jumpi\n          pop\n            /* \"#utility.yul\":3446:3465   */\n          dup5\n          dup3\n          add\n            /* \"#utility.yul\":3440:3466   */\n          mload\n            /* \"#utility.yul\":3391:3480   */\n        tag_45:\n          not(0x00)\n            /* \"#utility.yul\":2248:2249   */\n          0x03\n            /* \"#utility.yul\":2244:2255   */\n          dup6\n          swap1\n          shl\n            /* \"#utility.yul\":2240:2264   */\n          shr\n            /* \"#utility.yul\":2236:2265   */\n          not\n            /* \"#utility.yul\":2226:2266   */\n          and\n            /* \"#utility.yul\":2272:2273   */\n          0x01\n            /* \"#utility.yul\":2268:2279   */\n          dup5\n          swap1\n          shl\n            /* \"#utility.yul\":2223:2280   */\n          or\n            /* \"#utility.yul\":3493:3574   */\n          dup5\n          sstore\n            /* \"#utility.yul\":2654:3584   */\n          jump(tag_36)\n            /* \"#utility.yul\":2684:3333   */\n        tag_44:\n            /* \"#utility.yul\":1544:1545   */\n          0x00\n            /* \"#utility.yul\":1537:1551   */\n          dup5\n          dup2\n          mstore\n            /* \"#utility.yul\":1581:1585   */\n          0x20\n            /* \"#utility.yul\":1568:1586   */\n          dup2\n          keccak256\n          not(0x1f)\n            /* \"#utility.yul\":2720:2740   */\n          dup6\n          and\n          swap2\n            /* \"#utility.yul\":2838:3060   */\n        tag_48:\n            /* \"#utility.yul\":2852:2859   */\n          dup3\n            /* \"#utility.yul\":2849:2850   */\n          dup2\n            /* \"#utility.yul\":2846:2860   */\n          lt\n            /* \"#utility.yul\":2838:3060   */\n          iszero\n          tag_50\n          jumpi\n            /* \"#utility.yul\":2934:2953   */\n          dup8\n          dup6\n          add\n            /* \"#utility.yul\":2928:2954   */\n          mload\n            /* \"#utility.yul\":2913:2955   */\n          dup3\n          sstore\n            /* \"#utility.yul\":3041:3045   */\n          0x20\n            /* \"#utility.yul\":3026:3046   */\n          swap5\n          dup6\n          add\n          swap5\n            /* \"#utility.yul\":2994:2995   */\n          0x01\n            /* \"#utility.yul\":2982:2996   */\n          swap1\n          swap3\n          add\n          swap2\n            /* \"#utility.yul\":2868:2880   */\n          add\n            /* \"#utility.yul\":2838:3060   */\n          jump(tag_48)\n        tag_50:\n            /* \"#utility.yul\":2842:2845   */\n          pop\n            /* \"#utility.yul\":3088:3094   */\n          dup5\n            /* \"#utility.yul\":3079:3086   */\n          dup3\n            /* \"#utility.yul\":3076:3095   */\n          lt\n            /* \"#utility.yul\":3073:3274   */\n          iszero\n          tag_51\n          jumpi\n            /* \"#utility.yul\":3149:3168   */\n          dup7\n          dup5\n          add\n            /* \"#utility.yul\":3143:3169   */\n          mload\n          not(0x00)\n            /* \"#utility.yul\":3232:3233   */\n          0x03\n            /* \"#utility.yul\":3228:3242   */\n          dup8\n          swap1\n          shl\n            /* \"#utility.yul\":3244:3247   */\n          0xf8\n            /* \"#utility.yul\":3224:3248   */\n          and\n            /* \"#utility.yul\":3220:3257   */\n          shr\n            /* \"#utility.yul\":3216:3258   */\n          not\n            /* \"#utility.yul\":3201:3259   */\n          and\n            /* \"#utility.yul\":3186:3260   */\n          dup2\n          sstore\n            /* \"#utility.yul\":3073:3274   */\n        tag_51:\n          pop\n          pop\n          pop\n          pop\n            /* \"#utility.yul\":3320:3321   */\n          0x01\n            /* \"#utility.yul\":3304:3318   */\n          swap1\n          dup2\n          shl\n            /* \"#utility.yul\":3300:3322   */\n          add\n            /* \"#utility.yul\":3287:3323   */\n          swap1\n          sstore\n          pop\n            /* \"#utility.yul\":2291:3590   */\n          jump\t// out\n            /* \"#utility.yul\":3595:3817   */\n        tag_9:\n            /* \"#utility.yul\":3660:3669   */\n          dup1\n          dup3\n          add\n            /* \"#utility.yul\":3681:3691   */\n          dup1\n          dup3\n          gt\n            /* \"#utility.yul\":3678:3811   */\n          iszero\n          tag_53\n          jumpi\n            /* \"#utility.yul\":3733:3743   */\n          0x4e487b71\n            /* \"#utility.yul\":3728:3731   */\n          0xe0\n            /* \"#utility.yul\":3724:3744   */\n          shl\n            /* \"#utility.yul\":3721:3722   */\n          0x00\n            /* \"#utility.yul\":3714:3745   */\n          mstore\n            /* \"#utility.yul\":3768:3772   */\n          0x11\n            /* \"#utility.yul\":3765:3766   */\n          0x04\n            /* \"#utility.yul\":3758:3773   */\n          mstore\n            /* \"#utility.yul\":3796:3800   */\n          0x24\n            /* \"#utility.yul\":3793:3794   */\n          0x00\n            /* \"#utility.yul\":3786:3801   */\n          revert\n            /* \"#utility.yul\":3678:3811   */\n        tag_53:\n            /* \"#utility.yul\":3595:3817   */\n          swap3\n          swap2\n          pop\n          pop\n          jump\t// out\n        tag_16:\n            /* \"auctionbatch.sol\":61:250  contract Auction {... */\n          dataSize(sub_0)\n          dup1\n          dataOffset(sub_0)\n          0x00\n          codecopy\n          0x00\n          return\n        stop\n\n        sub_0: assembly {\n                /* \"auctionbatch.sol\":61:250  contract Auction {... */\n              mstore(0x40, 0x80)\n              callvalue\n              dup1\n              iszero\n              tag_1\n              jumpi\n              0x00\n              dup1\n              revert\n            tag_1:\n              pop\n              jumpi(tag_2, lt(calldatasize, 0x04))\n              shr(0xe0, calldataload(0x00))\n              dup1\n              0x3197cbb6\n              eq\n              tag_3\n              jumpi\n              dup1\n              0xf2a4a82e\n              eq\n              tag_4\n              jumpi\n            tag_2:\n              0x00\n              dup1\n              revert\n                /* \"auctionbatch.sol\":110:129  uint public endTime */\n            tag_3:\n              tag_5\n              sload(0x01)\n              dup2\n              jump\n            tag_5:\n              mload(0x40)\n                /* \"#utility.yul\":160:185   */\n              swap1\n              dup2\n              mstore\n                /* \"#utility.yul\":148:150   */\n              0x20\n                /* \"#utility.yul\":133:151   */\n              add\n                /* \"auctionbatch.sol\":110:129  uint public endTime */\n            tag_7:\n              mload(0x40)\n              dup1\n              swap2\n              sub\n              swap1\n              return\n                /* \"auctionbatch.sol\":85:103  string public item */\n            tag_4:\n              tag_9\n              tag_10\n              jump\t// in\n            tag_9:\n              mload(0x40)\n              tag_7\n              swap2\n              swap1\n              tag_12\n              jump\t// in\n            tag_10:\n              0x00\n              dup1\n              sload\n              tag_13\n              swap1\n              tag_14\n              jump\t// in\n            tag_13:\n              dup1\n              0x1f\n              add\n              0x20\n              dup1\n              swap2\n              div\n              mul\n              0x20\n              add\n              mload(0x40)\n              swap1\n              dup2\n              add\n              0x40\n              mstore\n              dup1\n              swap3\n              swap2\n              swap1\n              dup2\n              dup2\n              mstore\n              0x20\n              add\n              dup3\n              dup1\n              sload\n              tag_15\n              swap1\n              tag_14\n              jump\t// in\n            tag_15:\n              dup1\n              iszero\n              tag_16\n              jumpi\n              dup1\n              0x1f\n              lt\n              tag_17\n              jumpi\n              0x0100\n              dup1\n              dup4\n              sload\n              div\n              mul\n              dup4\n              mstore\n              swap2\n              0x20\n              add\n              swap2\n              jump(tag_16)\n            tag_17:\n              dup3\n              add\n              swap2\n              swap1\n              0x00\n              mstore\n              keccak256(0x00, 0x20)\n              swap1\n            tag_18:\n              dup2\n              sload\n              dup2\n              mstore\n              swap1\n              0x01\n              add\n              swap1\n              0x20\n              add\n              dup1\n              dup4\n              gt\n              tag_18\n              jumpi\n              dup3\n              swap1\n              sub\n              0x1f\n              and\n              dup3\n              add\n              swap2\n            tag_16:\n              pop\n              pop\n              pop\n              pop\n              pop\n              dup2\n              jump\t// out\n                /* \"#utility.yul\":196:614   */\n            tag_12:\n                /* \"#utility.yul\":345:347   */\n              0x20\n                /* \"#utility.yul\":334:343   */\n              dup2\n                /* \"#utility.yul\":327:348   */\n              mstore\n                /* \"#utility.yul\":308:312   */\n              0x00\n                /* \"#utility.yul\":377:383   */\n              dup3\n                /* \"#utility.yul\":371:384   */\n              mload\n                /* \"#utility.yul\":420:426   */\n              dup1\n                /* \"#utility.yul\":415:417   */\n              0x20\n                /* \"#utility.yul\":404:413   */\n              dup5\n                /* \"#utility.yul\":400:418   */\n              add\n                /* \"#utility.yul\":393:427   */\n              mstore\n                /* \"#utility.yul\":479:485   */\n              dup1\n                /* \"#utility.yul\":474:476   */\n              0x20\n                /* \"#utility.yul\":466:472   */\n              dup6\n                /* \"#utility.yul\":462:477   */\n              add\n                /* \"#utility.yul\":457:459   */\n              0x40\n                /* \"#utility.yul\":446:455   */\n              dup6\n                /* \"#utility.yul\":442:460   */\n              add\n                /* \"#utility.yul\":436:486   */\n              mcopy\n                /* \"#utility.yul\":535:536   */\n              0x00\n                /* \"#utility.yul\":530:532   */\n              0x40\n                /* \"#utility.yul\":521:527   */\n              dup3\n                /* \"#utility.yul\":510:519   */\n              dup6\n                /* \"#utility.yul\":506:528   */\n              add\n                /* \"#utility.yul\":502:533   */\n              add\n                /* \"#utility.yul\":495:537   */\n              mstore\n                /* \"#utility.yul\":605:607   */\n              0x40\n                /* \"#utility.yul\":598:600   */\n              0x1f\n                /* \"#utility.yul\":594:601   */\n              not\n                /* \"#utility.yul\":589:591   */\n              0x1f\n                /* \"#utility.yul\":581:587   */\n              dup4\n                /* \"#utility.yul\":577:592   */\n              add\n                /* \"#utility.yul\":573:602   */\n              and\n                /* \"#utility.yul\":562:571   */\n              dup5\n                /* \"#utility.yul\":558:603   */\n              add\n                /* \"#utility.yul\":554:608   */\n              add\n                /* \"#utility.yul\":546:608   */\n              swap2\n              pop\n              pop\n                /* \"#utility.yul\":196:614   */\n              swap3\n              swap2\n              pop\n              pop\n              jump\t// out\n                /* \"#utility.yul\":619:999   */\n            tag_14:\n                /* \"#utility.yul\":698:699   */\n              0x01\n                /* \"#utility.yul\":694:706   */\n              dup2\n              dup2\n              shr\n              swap1\n                /* \"#utility.yul\":741:753   */\n              dup3\n              and\n              dup1\n                /* \"#utility.yul\":762:823   */\n              tag_23\n              jumpi\n                /* \"#utility.yul\":816:820   */\n              0x7f\n                /* \"#utility.yul\":808:814   */\n              dup3\n                /* \"#utility.yul\":804:821   */\n              and\n                /* \"#utility.yul\":794:821   */\n              swap2\n              pop\n                /* \"#utility.yul\":762:823   */\n            tag_23:\n                /* \"#utility.yul\":869:871   */\n              0x20\n                /* \"#utility.yul\":861:867   */\n              dup3\n                /* \"#utility.yul\":858:872   */\n              lt\n                /* \"#utility.yul\":838:856   */\n              dup2\n                /* \"#utility.yul\":835:873   */\n              sub\n                /* \"#utility.yul\":832:993   */\n              tag_24\n              jumpi\n                /* \"#utility.yul\":915:925   */\n              0x4e487b71\n                /* \"#utility.yul\":910:913   */\n              0xe0\n                /* \"#utility.yul\":906:926   */\n              shl\n                /* \"#utility.yul\":903:904   */\n              0x00\n                /* \"#utility.yul\":896:927   */\n              mstore\n                /* \"#utility.yul\":950:954   */\n              0x22\n                /* \"#utility.yul\":947:948   */\n              0x04\n                /* \"#utility.yul\":940:955   */\n              mstore\n                /* \"#utility.yul\":978:982   */\n              0x24\n                /* \"#utility.yul\":975:976   */\n              0x00\n                /* \"#utility.yul\":968:983   */\n              revert\n                /* \"#utility.yul\":832:993   */\n            tag_24:\n              pop\n                /* \"#utility.yul\":619:999   */\n              swap2\n              swap1\n              pop\n              jump\t// out\n\n            auxdata: 0xa26469706673582212205e7b1dcda5c24cc9ea4764986a9a735bb98df2a747784dabd5c8c9bc395831f464736f6c634300081a0033\n        }\n    }\n\n    auxdata: 0xa2646970667358221220674457227888dbefd01b5cbb8823ae3792787224fa3994910134ef7c3b6326a564736f6c634300081a0033\n}\n",
				"bytecode": {
					"linkReferences": {},
					"object": "6080604052348015600e575f80fd5b5061088a8061001c5f395ff3fe608060405234801561000f575f80fd5b506004361061003f575f3560e01c80632d82333514610043578063571a26a01461004d5780639507d39a1461007c575b5f80fd5b61004b61008f565b005b61006061005b36600461030a565b6101a1565b6040516001600160a01b03909116815260200160405180910390f35b61006061008a36600461030a565b6101c8565b5f54156100d55760405162461bcd60e51b815260206004820152601060248201526f105b1c9958591e4819195c1b1bde595960821b604482015260640160405180910390fd5b60015b601e811161019e575f6100ea826101f5565b6040516020016100fa9190610321565b60405160208183030381529060405290505f81604051610119906102fd565b6101239190610348565b604051809103905ff08015801561013c573d5f803e3d5ffd5b505f80546001810182559080527f290decd9548b62a8d60345a988386fc84ba6bc95484008f6362f93160ef3e5630180546001600160a01b0319166001600160a01b03929092169190911790555081905061019681610391565b9150506100d8565b50565b5f81815481106101af575f80fd5b5f918252602090912001546001600160a01b0316905081565b5f8082815481106101db576101db6103a9565b5f918252602090912001546001600160a01b031692915050565b6060815f0361021b5750506040805180820190915260018152600360fc1b602082015290565b815f5b8115610244578061022e81610391565b915061023d9050600a836103d1565b915061021e565b5f8167ffffffffffffffff81111561025e5761025e6103e4565b6040519080825280601f01601f191660200182016040528015610288576020820181803683370190505b509050815b85156102f4578061029d816103f8565b91506102ac9050600a8761040d565b6102b7906030610420565b60f81b8282815181106102cc576102cc6103a9565b60200101906001600160f81b03191690815f1a9053506102ed600a876103d1565b955061028d565b50949350505050565b61041b8061043a83390190565b5f6020828403121561031a575f80fd5b5035919050565b644974656d5f60d81b81525f82518060208501600585015e5f920160050191825250919050565b602081525f82518060208401528060208501604085015e5f604082850101526040601f19601f83011684010191505092915050565b634e487b7160e01b5f52601160045260245ffd5b5f600182016103a2576103a261037d565b5060010190565b634e487b7160e01b5f52603260045260245ffd5b634e487b7160e01b5f52601260045260245ffd5b5f826103df576103df6103bd565b500490565b634e487b7160e01b5f52604160045260245ffd5b5f816104065761040661037d565b505f190190565b5f8261041b5761041b6103bd565b500690565b808201808211156104335761043361037d565b9291505056fe608060405234801561000f575f80fd5b5060405161041b38038061041b83398101604081905261002e91610064565b5f6100398282610198565b50610047426203f480610252565b60015550610277565b634e487b7160e01b5f52604160045260245ffd5b5f60208284031215610074575f80fd5b81516001600160401b03811115610089575f80fd5b8201601f81018413610099575f80fd5b80516001600160401b038111156100b2576100b2610050565b604051601f8201601f19908116603f011681016001600160401b03811182821017156100e0576100e0610050565b6040528181528282016020018610156100f7575f80fd5b8160208401602083015e5f91810160200191909152949350505050565b600181811c9082168061012857607f821691505b60208210810361014657634e487b7160e01b5f52602260045260245ffd5b50919050565b601f82111561019357805f5260205f20601f840160051c810160208510156101715750805b601f840160051c820191505b81811015610190575f815560010161017d565b50505b505050565b81516001600160401b038111156101b1576101b1610050565b6101c5816101bf8454610114565b8461014c565b6020601f8211600181146101f7575f83156101e05750848201515b5f19600385901b1c1916600184901b178455610190565b5f84815260208120601f198516915b828110156102265787850151825560209485019460019092019101610206565b508482101561024357868401515f19600387901b60f8161c191681555b50505050600190811b01905550565b8082018082111561027157634e487b7160e01b5f52601160045260245ffd5b92915050565b610197806102845f395ff3fe608060405234801561000f575f80fd5b5060043610610034575f3560e01c80633197cbb614610038578063f2a4a82e14610054575b5f80fd5b61004160015481565b6040519081526020015b60405180910390f35b61005c610069565b60405161004b91906100f4565b5f805461007590610129565b80601f01602080910402602001604051908101604052809291908181526020018280546100a190610129565b80156100ec5780601f106100c3576101008083540402835291602001916100ec565b820191905f5260205f20905b8154815290600101906020018083116100cf57829003601f168201915b505050505081565b602081525f82518060208401528060208501604085015e5f604082850101526040601f19601f83011684010191505092915050565b600181811c9082168061013d57607f821691505b60208210810361015b57634e487b7160e01b5f52602260045260245ffd5b5091905056fea26469706673582212205e7b1dcda5c24cc9ea4764986a9a735bb98df2a747784dabd5c8c9bc395831f464736f6c634300081a0033a2646970667358221220674457227888dbefd01b5cbb8823ae3792787224fa3994910134ef7c3b6326a564736f6c634300081a0033",
					"opcodes": "PUSH1 0x80 PUSH1 0x40 MSTORE CALLVALUE DUP1 ISZERO PUSH1 0xE JUMPI PUSH0 DUP1 REVERT JUMPDEST POP PUSH2 0x88A DUP1 PUSH2 0x1C PUSH0 CODECOPY PUSH0 RETURN INVALID PUSH1 0x80 PUSH1 0x40 MSTORE CALLVALUE DUP1 ISZERO PUSH2 0xF JUMPI PUSH0 DUP1 REVERT JUMPDEST POP PUSH1 0x4 CALLDATASIZE LT PUSH2 0x3F JUMPI PUSH0 CALLDATALOAD PUSH1 0xE0 SHR DUP1 PUSH4 0x2D823335 EQ PUSH2 0x43 JUMPI DUP1 PUSH4 0x571A26A0 EQ PUSH2 0x4D JUMPI DUP1 PUSH4 0x9507D39A EQ PUSH2 0x7C JUMPI JUMPDEST PUSH0 DUP1 REVERT JUMPDEST PUSH2 0x4B PUSH2 0x8F JUMP JUMPDEST STOP JUMPDEST PUSH2 0x60 PUSH2 0x5B CALLDATASIZE PUSH1 0x4 PUSH2 0x30A JUMP JUMPDEST PUSH2 0x1A1 JUMP JUMPDEST PUSH1 0x40 MLOAD PUSH1 0x1 PUSH1 0x1 PUSH1 0xA0 SHL SUB SWAP1 SWAP2 AND DUP2 MSTORE PUSH1 0x20 ADD PUSH1 0x40 MLOAD DUP1 SWAP2 SUB SWAP1 RETURN JUMPDEST PUSH2 0x60 PUSH2 0x8A CALLDATASIZE PUSH1 0x4 PUSH2 0x30A JUMP JUMPDEST PUSH2 0x1C8 JUMP JUMPDEST PUSH0 SLOAD ISZERO PUSH2 0xD5 JUMPI PUSH1 0x40 MLOAD PUSH3 0x461BCD PUSH1 0xE5 SHL DUP2 MSTORE PUSH1 0x20 PUSH1 0x4 DUP3 ADD MSTORE PUSH1 0x10 PUSH1 0x24 DUP3 ADD MSTORE PUSH16 0x105B1C9958591E4819195C1B1BDE5959 PUSH1 0x82 SHL PUSH1 0x44 DUP3 ADD MSTORE PUSH1 0x64 ADD PUSH1 0x40 MLOAD DUP1 SWAP2 SUB SWAP1 REVERT JUMPDEST PUSH1 0x1 JUMPDEST PUSH1 0x1E DUP2 GT PUSH2 0x19E JUMPI PUSH0 PUSH2 0xEA DUP3 PUSH2 0x1F5 JUMP JUMPDEST PUSH1 0x40 MLOAD PUSH1 0x20 ADD PUSH2 0xFA SWAP2 SWAP1 PUSH2 0x321 JUMP JUMPDEST PUSH1 0x40 MLOAD PUSH1 0x20 DUP2 DUP4 SUB SUB DUP2 MSTORE SWAP1 PUSH1 0x40 MSTORE SWAP1 POP PUSH0 DUP2 PUSH1 0x40 MLOAD PUSH2 0x119 SWAP1 PUSH2 0x2FD JUMP JUMPDEST PUSH2 0x123 SWAP2 SWAP1 PUSH2 0x348 JUMP JUMPDEST PUSH1 0x40 MLOAD DUP1 SWAP2 SUB SWAP1 PUSH0 CREATE DUP1 ISZERO DUP1 ISZERO PUSH2 0x13C JUMPI RETURNDATASIZE PUSH0 DUP1 RETURNDATACOPY RETURNDATASIZE PUSH0 REVERT JUMPDEST POP PUSH0 DUP1 SLOAD PUSH1 0x1 DUP2 ADD DUP3 SSTORE SWAP1 DUP1 MSTORE PUSH32 0x290DECD9548B62A8D60345A988386FC84BA6BC95484008F6362F93160EF3E563 ADD DUP1 SLOAD PUSH1 0x1 PUSH1 0x1 PUSH1 0xA0 SHL SUB NOT AND PUSH1 0x1 PUSH1 0x1 PUSH1 0xA0 SHL SUB SWAP3 SWAP1 SWAP3 AND SWAP2 SWAP1 SWAP2 OR SWAP1 SSTORE POP DUP2 SWAP1 POP PUSH2 0x196 DUP2 PUSH2 0x391 JUMP JUMPDEST SWAP2 POP POP PUSH2 0xD8 JUMP JUMPDEST POP JUMP JUMPDEST PUSH0 DUP2 DUP2 SLOAD DUP2 LT PUSH2 0x1AF JUMPI PUSH0 DUP1 REVERT JUMPDEST PUSH0 SWAP2 DUP3 MSTORE PUSH1 0x20 SWAP1 SWAP2 KECCAK256 ADD SLOAD PUSH1 0x1 PUSH1 0x1 PUSH1 0xA0 SHL SUB AND SWAP1 POP DUP2 JUMP JUMPDEST PUSH0 DUP1 DUP3 DUP2 SLOAD DUP2 LT PUSH2 0x1DB JUMPI PUSH2 0x1DB PUSH2 0x3A9 JUMP JUMPDEST PUSH0 SWAP2 DUP3 MSTORE PUSH1 0x20 SWAP1 SWAP2 KECCAK256 ADD SLOAD PUSH1 0x1 PUSH1 0x1 PUSH1 0xA0 SHL SUB AND SWAP3 SWAP2 POP POP JUMP JUMPDEST PUSH1 0x60 DUP2 PUSH0 SUB PUSH2 0x21B JUMPI POP POP PUSH1 0x40 DUP1 MLOAD DUP1 DUP3 ADD SWAP1 SWAP2 MSTORE PUSH1 0x1 DUP2 MSTORE PUSH1 0x3 PUSH1 0xFC SHL PUSH1 0x20 DUP3 ADD MSTORE SWAP1 JUMP JUMPDEST DUP2 PUSH0 JUMPDEST DUP2 ISZERO PUSH2 0x244 JUMPI DUP1 PUSH2 0x22E DUP2 PUSH2 0x391 JUMP JUMPDEST SWAP2 POP PUSH2 0x23D SWAP1 POP PUSH1 0xA DUP4 PUSH2 0x3D1 JUMP JUMPDEST SWAP2 POP PUSH2 0x21E JUMP JUMPDEST PUSH0 DUP2 PUSH8 0xFFFFFFFFFFFFFFFF DUP2 GT ISZERO PUSH2 0x25E JUMPI PUSH2 0x25E PUSH2 0x3E4 JUMP JUMPDEST PUSH1 0x40 MLOAD SWAP1 DUP1 DUP3 MSTORE DUP1 PUSH1 0x1F ADD PUSH1 0x1F NOT AND PUSH1 0x20 ADD DUP3 ADD PUSH1 0x40 MSTORE DUP1 ISZERO PUSH2 0x288 JUMPI PUSH1 0x20 DUP3 ADD DUP2 DUP1 CALLDATASIZE DUP4 CALLDATACOPY ADD SWAP1 POP JUMPDEST POP SWAP1 POP DUP2 JUMPDEST DUP6 ISZERO PUSH2 0x2F4 JUMPI DUP1 PUSH2 0x29D DUP2 PUSH2 0x3F8 JUMP JUMPDEST SWAP2 POP PUSH2 0x2AC SWAP1 POP PUSH1 0xA DUP8 PUSH2 0x40D JUMP JUMPDEST PUSH2 0x2B7 SWAP1 PUSH1 0x30 PUSH2 0x420 JUMP JUMPDEST PUSH1 0xF8 SHL DUP3 DUP3 DUP2 MLOAD DUP2 LT PUSH2 0x2CC JUMPI PUSH2 0x2CC PUSH2 0x3A9 JUMP JUMPDEST PUSH1 0x20 ADD ADD SWAP1 PUSH1 0x1 PUSH1 0x1 PUSH1 0xF8 SHL SUB NOT AND SWAP1 DUP2 PUSH0 BYTE SWAP1 MSTORE8 POP PUSH2 0x2ED PUSH1 0xA DUP8 PUSH2 0x3D1 JUMP JUMPDEST SWAP6 POP PUSH2 0x28D JUMP JUMPDEST POP SWAP5 SWAP4 POP POP POP POP JUMP JUMPDEST PUSH2 0x41B DUP1 PUSH2 0x43A DUP4 CODECOPY ADD SWAP1 JUMP JUMPDEST PUSH0 PUSH1 0x20 DUP3 DUP5 SUB SLT ISZERO PUSH2 0x31A JUMPI PUSH0 DUP1 REVERT JUMPDEST POP CALLDATALOAD SWAP2 SWAP1 POP JUMP JUMPDEST PUSH5 0x4974656D5F PUSH1 0xD8 SHL DUP2 MSTORE PUSH0 DUP3 MLOAD DUP1 PUSH1 0x20 DUP6 ADD PUSH1 0x5 DUP6 ADD MCOPY PUSH0 SWAP3 ADD PUSH1 0x5 ADD SWAP2 DUP3 MSTORE POP SWAP2 SWAP1 POP JUMP JUMPDEST PUSH1 0x20 DUP2 MSTORE PUSH0 DUP3 MLOAD DUP1 PUSH1 0x20 DUP5 ADD MSTORE DUP1 PUSH1 0x20 DUP6 ADD PUSH1 0x40 DUP6 ADD MCOPY PUSH0 PUSH1 0x40 DUP3 DUP6 ADD ADD MSTORE PUSH1 0x40 PUSH1 0x1F NOT PUSH1 0x1F DUP4 ADD AND DUP5 ADD ADD SWAP2 POP POP SWAP3 SWAP2 POP POP JUMP JUMPDEST PUSH4 0x4E487B71 PUSH1 0xE0 SHL PUSH0 MSTORE PUSH1 0x11 PUSH1 0x4 MSTORE PUSH1 0x24 PUSH0 REVERT JUMPDEST PUSH0 PUSH1 0x1 DUP3 ADD PUSH2 0x3A2 JUMPI PUSH2 0x3A2 PUSH2 0x37D JUMP JUMPDEST POP PUSH1 0x1 ADD SWAP1 JUMP JUMPDEST PUSH4 0x4E487B71 PUSH1 0xE0 SHL PUSH0 MSTORE PUSH1 0x32 PUSH1 0x4 MSTORE PUSH1 0x24 PUSH0 REVERT JUMPDEST PUSH4 0x4E487B71 PUSH1 0xE0 SHL PUSH0 MSTORE PUSH1 0x12 PUSH1 0x4 MSTORE PUSH1 0x24 PUSH0 REVERT JUMPDEST PUSH0 DUP3 PUSH2 0x3DF JUMPI PUSH2 0x3DF PUSH2 0x3BD JUMP JUMPDEST POP DIV SWAP1 JUMP JUMPDEST PUSH4 0x4E487B71 PUSH1 0xE0 SHL PUSH0 MSTORE PUSH1 0x41 PUSH1 0x4 MSTORE PUSH1 0x24 PUSH0 REVERT JUMPDEST PUSH0 DUP2 PUSH2 0x406 JUMPI PUSH2 0x406 PUSH2 0x37D JUMP JUMPDEST POP PUSH0 NOT ADD SWAP1 JUMP JUMPDEST PUSH0 DUP3 PUSH2 0x41B JUMPI PUSH2 0x41B PUSH2 0x3BD JUMP JUMPDEST POP MOD SWAP1 JUMP JUMPDEST DUP1 DUP3 ADD DUP1 DUP3 GT ISZERO PUSH2 0x433 JUMPI PUSH2 0x433 PUSH2 0x37D JUMP JUMPDEST SWAP3 SWAP2 POP POP JUMP INVALID PUSH1 0x80 PUSH1 0x40 MSTORE CALLVALUE DUP1 ISZERO PUSH2 0xF JUMPI PUSH0 DUP1 REVERT JUMPDEST POP PUSH1 0x40 MLOAD PUSH2 0x41B CODESIZE SUB DUP1 PUSH2 0x41B DUP4 CODECOPY DUP2 ADD PUSH1 0x40 DUP2 SWAP1 MSTORE PUSH2 0x2E SWAP2 PUSH2 0x64 JUMP JUMPDEST PUSH0 PUSH2 0x39 DUP3 DUP3 PUSH2 0x198 JUMP JUMPDEST POP PUSH2 0x47 TIMESTAMP PUSH3 0x3F480 PUSH2 0x252 JUMP JUMPDEST PUSH1 0x1 SSTORE POP PUSH2 0x277 JUMP JUMPDEST PUSH4 0x4E487B71 PUSH1 0xE0 SHL PUSH0 MSTORE PUSH1 0x41 PUSH1 0x4 MSTORE PUSH1 0x24 PUSH0 REVERT JUMPDEST PUSH0 PUSH1 0x20 DUP3 DUP5 SUB SLT ISZERO PUSH2 0x74 JUMPI PUSH0 DUP1 REVERT JUMPDEST DUP2 MLOAD PUSH1 0x1 PUSH1 0x1 PUSH1 0x40 SHL SUB DUP2 GT ISZERO PUSH2 0x89 JUMPI PUSH0 DUP1 REVERT JUMPDEST DUP3 ADD PUSH1 0x1F DUP2 ADD DUP5 SGT PUSH2 0x99 JUMPI PUSH0 DUP1 REVERT JUMPDEST DUP1 MLOAD PUSH1 0x1 PUSH1 0x1 PUSH1 0x40 SHL SUB DUP2 GT ISZERO PUSH2 0xB2 JUMPI PUSH2 0xB2 PUSH2 0x50 JUMP JUMPDEST PUSH1 0x40 MLOAD PUSH1 0x1F DUP3 ADD PUSH1 0x1F NOT SWAP1 DUP2 AND PUSH1 0x3F ADD AND DUP2 ADD PUSH1 0x1 PUSH1 0x1 PUSH1 0x40 SHL SUB DUP2 GT DUP3 DUP3 LT OR ISZERO PUSH2 0xE0 JUMPI PUSH2 0xE0 PUSH2 0x50 JUMP JUMPDEST PUSH1 0x40 MSTORE DUP2 DUP2 MSTORE DUP3 DUP3 ADD PUSH1 0x20 ADD DUP7 LT ISZERO PUSH2 0xF7 JUMPI PUSH0 DUP1 REVERT JUMPDEST DUP2 PUSH1 0x20 DUP5 ADD PUSH1 0x20 DUP4 ADD MCOPY PUSH0 SWAP2 DUP2 ADD PUSH1 0x20 ADD SWAP2 SWAP1 SWAP2 MSTORE SWAP5 SWAP4 POP POP POP POP JUMP JUMPDEST PUSH1 0x1 DUP2 DUP2 SHR SWAP1 DUP3 AND DUP1 PUSH2 0x128 JUMPI PUSH1 0x7F DUP3 AND SWAP2 POP JUMPDEST PUSH1 0x20 DUP3 LT DUP2 SUB PUSH2 0x146 JUMPI PUSH4 0x4E487B71 PUSH1 0xE0 SHL PUSH0 MSTORE PUSH1 0x22 PUSH1 0x4 MSTORE PUSH1 0x24 PUSH0 REVERT JUMPDEST POP SWAP2 SWAP1 POP JUMP JUMPDEST PUSH1 0x1F DUP3 GT ISZERO PUSH2 0x193 JUMPI DUP1 PUSH0 MSTORE PUSH1 0x20 PUSH0 KECCAK256 PUSH1 0x1F DUP5 ADD PUSH1 0x5 SHR DUP2 ADD PUSH1 0x20 DUP6 LT ISZERO PUSH2 0x171 JUMPI POP DUP1 JUMPDEST PUSH1 0x1F DUP5 ADD PUSH1 0x5 SHR DUP3 ADD SWAP2 POP JUMPDEST DUP2 DUP2 LT ISZERO PUSH2 0x190 JUMPI PUSH0 DUP2 SSTORE PUSH1 0x1 ADD PUSH2 0x17D JUMP JUMPDEST POP POP JUMPDEST POP POP POP JUMP JUMPDEST DUP2 MLOAD PUSH1 0x1 PUSH1 0x1 PUSH1 0x40 SHL SUB DUP2 GT ISZERO PUSH2 0x1B1 JUMPI PUSH2 0x1B1 PUSH2 0x50 JUMP JUMPDEST PUSH2 0x1C5 DUP2 PUSH2 0x1BF DUP5 SLOAD PUSH2 0x114 JUMP JUMPDEST DUP5 PUSH2 0x14C JUMP JUMPDEST PUSH1 0x20 PUSH1 0x1F DUP3 GT PUSH1 0x1 DUP2 EQ PUSH2 0x1F7 JUMPI PUSH0 DUP4 ISZERO PUSH2 0x1E0 JUMPI POP DUP5 DUP3 ADD MLOAD JUMPDEST PUSH0 NOT PUSH1 0x3 DUP6 SWAP1 SHL SHR NOT AND PUSH1 0x1 DUP5 SWAP1 SHL OR DUP5 SSTORE PUSH2 0x190 JUMP JUMPDEST PUSH0 DUP5 DUP2 MSTORE PUSH1 0x20 DUP2 KECCAK256 PUSH1 0x1F NOT DUP6 AND SWAP2 JUMPDEST DUP3 DUP2 LT ISZERO PUSH2 0x226 JUMPI DUP8 DUP6 ADD MLOAD DUP3 SSTORE PUSH1 0x20 SWAP5 DUP6 ADD SWAP5 PUSH1 0x1 SWAP1 SWAP3 ADD SWAP2 ADD PUSH2 0x206 JUMP JUMPDEST POP DUP5 DUP3 LT ISZERO PUSH2 0x243 JUMPI DUP7 DUP5 ADD MLOAD PUSH0 NOT PUSH1 0x3 DUP8 SWAP1 SHL PUSH1 0xF8 AND SHR NOT AND DUP2 SSTORE JUMPDEST POP POP POP POP PUSH1 0x1 SWAP1 DUP2 SHL ADD SWAP1 SSTORE POP JUMP JUMPDEST DUP1 DUP3 ADD DUP1 DUP3 GT ISZERO PUSH2 0x271 JUMPI PUSH4 0x4E487B71 PUSH1 0xE0 SHL PUSH0 MSTORE PUSH1 0x11 PUSH1 0x4 MSTORE PUSH1 0x24 PUSH0 REVERT JUMPDEST SWAP3 SWAP2 POP POP JUMP JUMPDEST PUSH2 0x197 DUP1 PUSH2 0x284 PUSH0 CODECOPY PUSH0 RETURN INVALID PUSH1 0x80 PUSH1 0x40 MSTORE CALLVALUE DUP1 ISZERO PUSH2 0xF JUMPI PUSH0 DUP1 REVERT JUMPDEST POP PUSH1 0x4 CALLDATASIZE LT PUSH2 0x34 JUMPI PUSH0 CALLDATALOAD PUSH1 0xE0 SHR DUP1 PUSH4 0x3197CBB6 EQ PUSH2 0x38 JUMPI DUP1 PUSH4 0xF2A4A82E EQ PUSH2 0x54 JUMPI JUMPDEST PUSH0 DUP1 REVERT JUMPDEST PUSH2 0x41 PUSH1 0x1 SLOAD DUP2 JUMP JUMPDEST PUSH1 0x40 MLOAD SWAP1 DUP2 MSTORE PUSH1 0x20 ADD JUMPDEST PUSH1 0x40 MLOAD DUP1 SWAP2 SUB SWAP1 RETURN JUMPDEST PUSH2 0x5C PUSH2 0x69 JUMP JUMPDEST PUSH1 0x40 MLOAD PUSH2 0x4B SWAP2 SWAP1 PUSH2 0xF4 JUMP JUMPDEST PUSH0 DUP1 SLOAD PUSH2 0x75 SWAP1 PUSH2 0x129 JUMP JUMPDEST DUP1 PUSH1 0x1F ADD PUSH1 0x20 DUP1 SWAP2 DIV MUL PUSH1 0x20 ADD PUSH1 0x40 MLOAD SWAP1 DUP2 ADD PUSH1 0x40 MSTORE DUP1 SWAP3 SWAP2 SWAP1 DUP2 DUP2 MSTORE PUSH1 0x20 ADD DUP3 DUP1 SLOAD PUSH2 0xA1 SWAP1 PUSH2 0x129 JUMP JUMPDEST DUP1 ISZERO PUSH2 0xEC JUMPI DUP1 PUSH1 0x1F LT PUSH2 0xC3 JUMPI PUSH2 0x100 DUP1 DUP4 SLOAD DIV MUL DUP4 MSTORE SWAP2 PUSH1 0x20 ADD SWAP2 PUSH2 0xEC JUMP JUMPDEST DUP3 ADD SWAP2 SWAP1 PUSH0 MSTORE PUSH1 0x20 PUSH0 KECCAK256 SWAP1 JUMPDEST DUP2 SLOAD DUP2 MSTORE SWAP1 PUSH1 0x1 ADD SWAP1 PUSH1 0x20 ADD DUP1 DUP4 GT PUSH2 0xCF JUMPI DUP3 SWAP1 SUB PUSH1 0x1F AND DUP3 ADD SWAP2 JUMPDEST POP POP POP POP POP DUP2 JUMP JUMPDEST PUSH1 0x20 DUP2 MSTORE PUSH0 DUP3 MLOAD DUP1 PUSH1 0x20 DUP5 ADD MSTORE DUP1 PUSH1 0x20 DUP6 ADD PUSH1 0x40 DUP6 ADD MCOPY PUSH0 PUSH1 0x40 DUP3 DUP6 ADD ADD MSTORE PUSH1 0x40 PUSH1 0x1F NOT PUSH1 0x1F DUP4 ADD AND DUP5 ADD ADD SWAP2 POP POP SWAP3 SWAP2 POP POP JUMP JUMPDEST PUSH1 0x1 DUP2 DUP2 SHR SWAP1 DUP3 AND DUP1 PUSH2 0x13D JUMPI PUSH1 0x7F DUP3 AND SWAP2 POP JUMPDEST PUSH1 0x20 DUP3 LT DUP2 SUB PUSH2 0x15B JUMPI PUSH4 0x4E487B71 PUSH1 0xE0 SHL PUSH0 MSTORE PUSH1 0x22 PUSH1 0x4 MSTORE PUSH1 0x24 PUSH0 REVERT JUMPDEST POP SWAP2 SWAP1 POP JUMP INVALID LOG2 PUSH5 0x6970667358 0x22 SLT KECCAK256 MCOPY PUSH28 0x1DCDA5C24CC9EA4764986A9A735BB98DF2A747784DABD5C8C9BC3958 BALANCE DELEGATECALL PUSH5 0x736F6C6343 STOP ADDMOD BYTE STOP CALLER LOG2 PUSH5 0x6970667358 0x22 SLT KECCAK256 PUSH8 0x4457227888DBEFD0 SHL TLOAD 0xBB DUP9 0x23 0xAE CALLDATACOPY SWAP3 PUSH25 0x7224FA3994910134EF7C3B6326A564736F6C634300081A0033 "
				},
				"gasEstimates": {
					"creation": {
						"codeDepositCost": "437200",
						"executionCost": "472",
						"totalCost": "437672"
					},
					"external": {
						"auctions(uint256)": "4598",
						"deployAll()": "infinite",
						"get(uint256)": "4625"
					},
					"internal": {
						"uint2str(uint256)": "infinite"
					}
				},
				"methodIdentifiers": {
					"auctions(uint256)": "571a26a0",
					"deployAll()": "2d823335",
					"get(uint256)": "9507d39a"
				}
			},
			"storageLayout": {
				"storage": [
					{
						"astId": 27,
						"contract": "auctionbatch.sol:BatchDeployAuction",
						"label": "auctions",
						"offset": 0,
						"slot": "0",
						"type": "t_array(t_contract(Auction)23)dyn_storage"
					}
				],
				"types": {
					"t_array(t_contract(Auction)23)dyn_storage": {
						"base": "t_contract(Auction)23",
						"encoding": "dynamic_array",
						"label": "contract Auction[]",
						"numberOfBytes": "32"
					},
					"t_contract(Auction)23": {
						"encoding": "inplace",
						"label": "contract Auction",
						"numberOfBytes": "20"
					}
				}
			},
			"userdoc": {
				"kind": "user",
				"methods": {},
				"version": 1
			}
		}
	}
}