{
	"gussinggamebatch.sol": {
		"BatchDeployGames": {
			"abi": [
				{
					"inputs": [],
					"name": "deployAll",
					"outputs": [],
					"stateMutability": "nonpayable",
					"type": "function"
				},
				{
					"inputs": [
						{
							"internalType": "uint256",
							"name": "",
							"type": "uint256"
						}
					],
					"name": "games",
					"outputs": [
						{
							"internalType": "contract GuessGame",
							"name": "",
							"type": "address"
						}
					],
					"stateMutability": "view",
					"type": "function"
				},
				{
					"inputs": [
						{
							"internalType": "uint256",
							"name": "index",
							"type": "uint256"
						}
					],
					"name": "get",
					"outputs": [
						{
							"internalType": "address",
							"name": "",
							"type": "address"
						}
					],
					"stateMutability": "view",
					"type": "function"
				}
			],
			"devdoc": {
				"kind": "dev",
				"methods": {},
				"version": 1
			},
			"evm": {
				"assembly": "    /* \"gussinggamebatch.sol\":183:587  contract BatchDeployGames {... */\n  mstore(0x40, 0x80)\n  callvalue\n  dup1\n  iszero\n  tag_1\n  jumpi\n  0x00\n  dup1\n  revert\ntag_1:\n  pop\n  dataSize(sub_0)\n  dup1\n  dataOffset(sub_0)\n  0x00\n  codecopy\n  0x00\n  return\nstop\n\nsub_0: assembly {\n        /* \"gussinggamebatch.sol\":183:587  contract BatchDeployGames {... */\n      mstore(0x40, 0x80)\n      callvalue\n      dup1\n      iszero\n      tag_1\n      jumpi\n      0x00\n      dup1\n      revert\n    tag_1:\n      pop\n      jumpi(tag_2, lt(calldatasize, 0x04))\n      shr(0xe0, calldataload(0x00))\n      dup1\n      0x117a5b90\n      eq\n      tag_3\n      jumpi\n      dup1\n      0x2d823335\n      eq\n      tag_4\n      jumpi\n      dup1\n      0x9507d39a\n      eq\n      tag_5\n      jumpi\n    tag_2:\n      0x00\n      dup1\n      revert\n        /* \"gussinggamebatch.sol\":216:240  GuessGame[] public games */\n    tag_3:\n      tag_6\n      tag_7\n      calldatasize\n      0x04\n      tag_8\n      jump\t// in\n    tag_7:\n      tag_9\n      jump\t// in\n    tag_6:\n      mload(0x40)\n      sub(shl(0xa0, 0x01), 0x01)\n        /* \"#utility.yul\":379:411   */\n      swap1\n      swap2\n      and\n        /* \"#utility.yul\":361:412   */\n      dup2\n      mstore\n        /* \"#utility.yul\":349:351   */\n      0x20\n        /* \"#utility.yul\":334:352   */\n      add\n        /* \"gussinggamebatch.sol\":216:240  GuessGame[] public games */\n      mload(0x40)\n      dup1\n      swap2\n      sub\n      swap1\n      return\n        /* \"gussinggamebatch.sol\":249:474  function deployAll() public {... */\n    tag_4:\n      tag_12\n      tag_13\n      jump\t// in\n    tag_12:\n      stop\n        /* \"gussinggamebatch.sol\":482:584  function get(uint index) public view returns (address) {... */\n    tag_5:\n      tag_6\n      tag_15\n      calldatasize\n      0x04\n      tag_8\n      jump\t// in\n    tag_15:\n      tag_16\n      jump\t// in\n        /* \"gussinggamebatch.sol\":216:240  GuessGame[] public games */\n    tag_9:\n      0x00\n      dup2\n      dup2\n      sload\n      dup2\n      lt\n      tag_19\n      jumpi\n      0x00\n      dup1\n      revert\n    tag_19:\n      0x00\n      swap2\n      dup3\n      mstore\n      0x20\n      swap1\n      swap2\n      keccak256\n      add\n      sload\n      sub(shl(0xa0, 0x01), 0x01)\n      and\n      swap1\n      pop\n      dup2\n      jump\t// out\n        /* \"gussinggamebatch.sol\":249:474  function deployAll() public {... */\n    tag_13:\n        /* \"gussinggamebatch.sol\":296:301  games */\n      0x00\n        /* \"gussinggamebatch.sol\":296:308  games.length */\n      sload\n        /* \"gussinggamebatch.sol\":296:313  games.length == 0 */\n      iszero\n        /* \"gussinggamebatch.sol\":288:334  require(games.length == 0, \"Already deployed\") */\n      tag_22\n      jumpi\n      mload(0x40)\n      shl(0xe5, 0x461bcd)\n      dup2\n      mstore\n        /* \"#utility.yul\":833:835   */\n      0x20\n        /* \"gussinggamebatch.sol\":288:334  require(games.length == 0, \"Already deployed\") */\n      0x04\n      dup3\n      add\n        /* \"#utility.yul\":815:836   */\n      mstore\n        /* \"#utility.yul\":872:874   */\n      0x10\n        /* \"#utility.yul\":852:870   */\n      0x24\n      dup3\n      add\n        /* \"#utility.yul\":845:875   */\n      mstore\n      shl(0x82, 0x105b1c9958591e4819195c1b1bde5959)\n        /* \"#utility.yul\":891:909   */\n      0x44\n      dup3\n      add\n        /* \"#utility.yul\":884:930   */\n      mstore\n        /* \"#utility.yul\":947:965   */\n      0x64\n      add\n        /* \"gussinggamebatch.sol\":288:334  require(games.length == 0, \"Already deployed\") */\n      mload(0x40)\n      dup1\n      swap2\n      sub\n      swap1\n      revert\n    tag_22:\n        /* \"gussinggamebatch.sol\":359:360  1 */\n      0x01\n        /* \"gussinggamebatch.sol\":345:467  for (uint i = 1; i <= 30; i++) {... */\n    tag_25:\n        /* \"gussinggamebatch.sol\":367:369  30 */\n      0x1e\n        /* \"gussinggamebatch.sol\":362:363  i */\n      dup2\n        /* \"gussinggamebatch.sol\":362:369  i <= 30 */\n      gt\n        /* \"gussinggamebatch.sol\":345:467  for (uint i = 1; i <= 30; i++) {... */\n      tag_26\n      jumpi\n        /* \"gussinggamebatch.sol\":391:405  GuessGame game */\n      0x00\n        /* \"gussinggamebatch.sol\":422:423  i */\n      dup2\n        /* \"gussinggamebatch.sol\":408:424  new GuessGame(i) */\n      mload(0x40)\n      tag_28\n      swap1\n      tag_29\n      jump\t// in\n    tag_28:\n        /* \"#utility.yul\":1122:1147   */\n      swap1\n      dup2\n      mstore\n        /* \"#utility.yul\":1110:1112   */\n      0x20\n        /* \"#utility.yul\":1095:1113   */\n      add\n        /* \"gussinggamebatch.sol\":408:424  new GuessGame(i) */\n      mload(0x40)\n      dup1\n      swap2\n      sub\n      swap1\n      0x00\n      create\n      dup1\n      iszero\n      dup1\n      iszero\n      tag_32\n      jumpi\n      returndatasize\n      0x00\n      dup1\n      returndatacopy\n      revert(0x00, returndatasize)\n    tag_32:\n      pop\n        /* \"gussinggamebatch.sol\":439:444  games */\n      0x00\n        /* \"gussinggamebatch.sol\":439:455  games.push(game) */\n      dup1\n      sload\n      0x01\n      dup2\n      add\n      dup3\n      sstore\n      swap1\n      dup1\n      mstore\n      0x290decd9548b62a8d60345a988386fc84ba6bc95484008f6362f93160ef3e563\n      add\n      dup1\n      sload\n      not(sub(shl(0xa0, 0x01), 0x01))\n      and\n      sub(shl(0xa0, 0x01), 0x01)\n      swap3\n      swap1\n      swap3\n      and\n      swap2\n      swap1\n      swap2\n      or\n      swap1\n      sstore\n      pop\n        /* \"gussinggamebatch.sol\":371:374  i++ */\n      dup1\n      tag_34\n      dup2\n      tag_35\n      jump\t// in\n    tag_34:\n      swap2\n      pop\n      pop\n        /* \"gussinggamebatch.sol\":345:467  for (uint i = 1; i <= 30; i++) {... */\n      jump(tag_25)\n    tag_26:\n      pop\n        /* \"gussinggamebatch.sol\":249:474  function deployAll() public {... */\n      jump\t// out\n        /* \"gussinggamebatch.sol\":482:584  function get(uint index) public view returns (address) {... */\n    tag_16:\n        /* \"gussinggamebatch.sol\":528:535  address */\n      0x00\n        /* \"gussinggamebatch.sol\":563:568  games */\n      dup1\n        /* \"gussinggamebatch.sol\":569:574  index */\n      dup3\n        /* \"gussinggamebatch.sol\":563:575  games[index] */\n      dup2\n      sload\n      dup2\n      lt\n      tag_38\n      jumpi\n      tag_38\n      tag_39\n      jump\t// in\n    tag_38:\n      0x00\n      swap2\n      dup3\n      mstore\n      0x20\n      swap1\n      swap2\n      keccak256\n      add\n      sload\n      sub(shl(0xa0, 0x01), 0x01)\n      and\n      swap3\n        /* \"gussinggamebatch.sol\":482:584  function get(uint index) public view returns (address) {... */\n      swap2\n      pop\n      pop\n      jump\t// out\n    tag_29:\n      dataSize(sub_0)\n      dup1\n      dataOffset(sub_0)\n      dup4\n      codecopy\n      add\n      swap1\n      jump\t// out\n        /* \"#utility.yul\":14:194   */\n    tag_8:\n        /* \"#utility.yul\":73:79   */\n      0x00\n        /* \"#utility.yul\":126:128   */\n      0x20\n        /* \"#utility.yul\":114:123   */\n      dup3\n        /* \"#utility.yul\":105:112   */\n      dup5\n        /* \"#utility.yul\":101:124   */\n      sub\n        /* \"#utility.yul\":97:129   */\n      slt\n        /* \"#utility.yul\":94:146   */\n      iszero\n      tag_43\n      jumpi\n        /* \"#utility.yul\":142:143   */\n      0x00\n        /* \"#utility.yul\":139:140   */\n      dup1\n        /* \"#utility.yul\":132:144   */\n      revert\n        /* \"#utility.yul\":94:146   */\n    tag_43:\n      pop\n        /* \"#utility.yul\":165:188   */\n      calldataload\n      swap2\n        /* \"#utility.yul\":14:194   */\n      swap1\n      pop\n      jump\t// out\n        /* \"#utility.yul\":1158:1390   */\n    tag_35:\n        /* \"#utility.yul\":1197:1200   */\n      0x00\n        /* \"#utility.yul\":1218:1235   */\n      0x01\n      dup3\n      add\n        /* \"#utility.yul\":1215:1355   */\n      tag_49\n      jumpi\n        /* \"#utility.yul\":1277:1287   */\n      0x4e487b71\n        /* \"#utility.yul\":1272:1275   */\n      0xe0\n        /* \"#utility.yul\":1268:1288   */\n      shl\n        /* \"#utility.yul\":1265:1266   */\n      0x00\n        /* \"#utility.yul\":1258:1289   */\n      mstore\n        /* \"#utility.yul\":1312:1316   */\n      0x11\n        /* \"#utility.yul\":1309:1310   */\n      0x04\n        /* \"#utility.yul\":1302:1317   */\n      mstore\n        /* \"#utility.yul\":1340:1344   */\n      0x24\n        /* \"#utility.yul\":1337:1338   */\n      0x00\n        /* \"#utility.yul\":1330:1345   */\n      revert\n        /* \"#utility.yul\":1215:1355   */\n    tag_49:\n      pop\n        /* \"#utility.yul\":1382:1383   */\n      0x01\n        /* \"#utility.yul\":1371:1384   */\n      add\n      swap1\n        /* \"#utility.yul\":1158:1390   */\n      jump\t// out\n        /* \"#utility.yul\":1395:1522   */\n    tag_39:\n        /* \"#utility.yul\":1456:1466   */\n      0x4e487b71\n        /* \"#utility.yul\":1451:1454   */\n      0xe0\n        /* \"#utility.yul\":1447:1467   */\n      shl\n        /* \"#utility.yul\":1444:1445   */\n      0x00\n        /* \"#utility.yul\":1437:1468   */\n      mstore\n        /* \"#utility.yul\":1487:1491   */\n      0x32\n        /* \"#utility.yul\":1484:1485   */\n      0x04\n        /* \"#utility.yul\":1477:1492   */\n      mstore\n        /* \"#utility.yul\":1511:1515   */\n      0x24\n        /* \"#utility.yul\":1508:1509   */\n      0x00\n        /* \"#utility.yul\":1501:1516   */\n      revert\n    stop\n\n    sub_0: assembly {\n            /* \"gussinggamebatch.sol\":61:179  contract GuessGame {... */\n          mstore(0x40, 0x80)\n            /* \"gussinggamebatch.sol\":115:176  constructor(uint _secret) {... */\n          callvalue\n          dup1\n          iszero\n          tag_1\n          jumpi\n          0x00\n          dup1\n          revert\n        tag_1:\n          pop\n          mload(0x40)\n          sub(codesize, bytecodeSize)\n          dup1\n          bytecodeSize\n          dup4\n          codecopy\n          dup2\n          add\n          0x40\n          dup2\n          swap1\n          mstore\n          tag_2\n          swap2\n          tag_3\n          jump\t// in\n        tag_2:\n            /* \"gussinggamebatch.sol\":152:158  secret */\n          0x00\n            /* \"gussinggamebatch.sol\":152:168  secret = _secret */\n          sstore\n            /* \"gussinggamebatch.sol\":61:179  contract GuessGame {... */\n          jump(tag_7)\n            /* \"#utility.yul\":14:198   */\n        tag_3:\n            /* \"#utility.yul\":84:90   */\n          0x00\n            /* \"#utility.yul\":137:139   */\n          0x20\n            /* \"#utility.yul\":125:134   */\n          dup3\n            /* \"#utility.yul\":116:123   */\n          dup5\n            /* \"#utility.yul\":112:135   */\n          sub\n            /* \"#utility.yul\":108:140   */\n          slt\n            /* \"#utility.yul\":105:157   */\n          iszero\n          tag_9\n          jumpi\n            /* \"#utility.yul\":153:154   */\n          0x00\n            /* \"#utility.yul\":150:151   */\n          dup1\n            /* \"#utility.yul\":143:155   */\n          revert\n            /* \"#utility.yul\":105:157   */\n        tag_9:\n          pop\n            /* \"#utility.yul\":176:192   */\n          mload\n          swap2\n            /* \"#utility.yul\":14:198   */\n          swap1\n          pop\n          jump\t// out\n        tag_7:\n            /* \"gussinggamebatch.sol\":61:179  contract GuessGame {... */\n          dataSize(sub_0)\n          dup1\n          dataOffset(sub_0)\n          0x00\n          codecopy\n          0x00\n          return\n        stop\n\n        sub_0: assembly {\n                /* \"gussinggamebatch.sol\":61:179  contract GuessGame {... */\n              mstore(0x40, 0x80)\n              0x00\n              dup1\n              revert\n\n            auxdata: 0xa2646970667358221220c63da3e06e0b2fc392c5bb7559ad1fce822b1dee8b9eaa2661ea4813cd1f588d64736f6c634300081a0033\n        }\n    }\n\n    auxdata: 0xa2646970667358221220c644b608ef54b22b9547330e8ea38e2eb0aa99183325ea7e6e391d1bcb3a71a364736f6c634300081a0033\n}\n",
				"bytecode": {
					"linkReferences": {},
					"object": "6080604052348015600e575f80fd5b506102e38061001c5f395ff3fe608060405234801561000f575f80fd5b506004361061003f575f3560e01c8063117a5b90146100435780632d823335146100725780639507d39a1461007c575b5f80fd5b6100566100513660046101d0565b61008f565b6040516001600160a01b03909116815260200160405180910390f35b61007a6100b6565b005b61005661008a3660046101d0565b610197565b5f818154811061009d575f80fd5b5f918252602090912001546001600160a01b0316905081565b5f54156100fc5760405162461bcd60e51b815260206004820152601060248201526f105b1c9958591e4819195c1b1bde595960821b604482015260640160405180910390fd5b60015b601e8111610194575f81604051610115906101c4565b908152602001604051809103905ff080158015610134573d5f803e3d5ffd5b505f80546001810182559080527f290decd9548b62a8d60345a988386fc84ba6bc95484008f6362f93160ef3e5630180546001600160a01b0319166001600160a01b0392909216919091179055508061018c816101e7565b9150506100ff565b50565b5f8082815481106101aa576101aa61020b565b5f918252602090912001546001600160a01b031692915050565b608e8061022083390190565b5f602082840312156101e0575f80fd5b5035919050565b5f6001820161020457634e487b7160e01b5f52601160045260245ffd5b5060010190565b634e487b7160e01b5f52603260045260245ffdfe6080604052348015600e575f80fd5b50604051608e380380608e833981016040819052602991602f565b5f556045565b5f60208284031215603e575f80fd5b5051919050565b603e8060505f395ff3fe60806040525f80fdfea2646970667358221220c63da3e06e0b2fc392c5bb7559ad1fce822b1dee8b9eaa2661ea4813cd1f588d64736f6c634300081a0033a2646970667358221220c644b608ef54b22b9547330e8ea38e2eb0aa99183325ea7e6e391d1bcb3a71a364736f6c634300081a0033",
					"opcodes": "PUSH1 0x80 PUSH1 0x40 MSTORE CALLVALUE DUP1 ISZERO PUSH1 0xE JUMPI PUSH0 DUP1 REVERT JUMPDEST POP PUSH2 0x2E3 DUP1 PUSH2 0x1C PUSH0 CODECOPY PUSH0 RETURN INVALID PUSH1 0x80 PUSH1 0x40 MSTORE CALLVALUE DUP1 ISZERO PUSH2 0xF JUMPI PUSH0 DUP1 REVERT JUMPDEST POP PUSH1 0x4 CALLDATASIZE LT PUSH2 0x3F JUMPI PUSH0 CALLDATALOAD PUSH1 0xE0 SHR DUP1 PUSH4 0x117A5B90 EQ PUSH2 0x43 JUMPI DUP1 PUSH4 0x2D823335 EQ PUSH2 0x72 JUMPI DUP1 PUSH4 0x9507D39A EQ PUSH2 0x7C JUMPI JUMPDEST PUSH0 DUP1 REVERT JUMPDEST PUSH2 0x56 PUSH2 0x51 CALLDATASIZE PUSH1 0x4 PUSH2 0x1D0 JUMP JUMPDEST PUSH2 0x8F JUMP JUMPDEST PUSH1 0x40 MLOAD PUSH1 0x1 PUSH1 0x1 PUSH1 0xA0 SHL SUB SWAP1 SWAP2 AND DUP2 MSTORE PUSH1 0x20 ADD PUSH1 0x40 MLOAD DUP1 SWAP2 SUB SWAP1 RETURN JUMPDEST PUSH2 0x7A PUSH2 0xB6 JUMP JUMPDEST STOP JUMPDEST PUSH2 0x56 PUSH2 0x8A CALLDATASIZE PUSH1 0x4 PUSH2 0x1D0 JUMP JUMPDEST PUSH2 0x197 JUMP JUMPDEST PUSH0 DUP2 DUP2 SLOAD DUP2 LT PUSH2 0x9D JUMPI PUSH0 DUP1 REVERT JUMPDEST PUSH0 SWAP2 DUP3 MSTORE PUSH1 0x20 SWAP1 SWAP2 KECCAK256 ADD SLOAD PUSH1 0x1 PUSH1 0x1 PUSH1 0xA0 SHL SUB AND SWAP1 POP DUP2 JUMP JUMPDEST PUSH0 SLOAD ISZERO PUSH2 0xFC JUMPI PUSH1 0x40 MLOAD PUSH3 0x461BCD PUSH1 0xE5 SHL DUP2 MSTORE PUSH1 0x20 PUSH1 0x4 DUP3 ADD MSTORE PUSH1 0x10 PUSH1 0x24 DUP3 ADD MSTORE PUSH16 0x105B1C9958591E4819195C1B1BDE5959 PUSH1 0x82 SHL PUSH1 0x44 DUP3 ADD MSTORE PUSH1 0x64 ADD PUSH1 0x40 MLOAD DUP1 SWAP2 SUB SWAP1 REVERT JUMPDEST PUSH1 0x1 JUMPDEST PUSH1 0x1E DUP2 GT PUSH2 0x194 JUMPI PUSH0 DUP2 PUSH1 0x40 MLOAD PUSH2 0x115 SWAP1 PUSH2 0x1C4 JUMP JUMPDEST SWAP1 DUP2 MSTORE PUSH1 0x20 ADD PUSH1 0x40 MLOAD DUP1 SWAP2 SUB SWAP1 PUSH0 CREATE DUP1 ISZERO DUP1 ISZERO PUSH2 0x134 JUMPI RETURNDATASIZE PUSH0 DUP1 RETURNDATACOPY RETURNDATASIZE PUSH0 REVERT JUMPDEST POP PUSH0 DUP1 SLOAD PUSH1 0x1 DUP2 ADD DUP3 SSTORE SWAP1 DUP1 MSTORE PUSH32 0x290DECD9548B62A8D60345A988386FC84BA6BC95484008F6362F93160EF3E563 ADD DUP1 SLOAD PUSH1 0x1 PUSH1 0x1 PUSH1 0xA0 SHL SUB NOT AND PUSH1 0x1 PUSH1 0x1 PUSH1 0xA0 SHL SUB SWAP3 SWAP1 SWAP3 AND SWAP2 SWAP1 SWAP2 OR SWAP1 SSTORE POP DUP1 PUSH2 0x18C DUP2 PUSH2 0x1E7 JUMP JUMPDEST SWAP2 POP POP PUSH2 0xFF JUMP JUMPDEST POP JUMP JUMPDEST PUSH0 DUP1 DUP3 DUP2 SLOAD DUP2 LT PUSH2 0x1AA JUMPI PUSH2 0x1AA PUSH2 0x20B JUMP JUMPDEST PUSH0 SWAP2 DUP3 MSTORE PUSH1 0x20 SWAP1 SWAP2 KECCAK256 ADD SLOAD PUSH1 0x1 PUSH1 0x1 PUSH1 0xA0 SHL SUB AND SWAP3 SWAP2 POP POP JUMP JUMPDEST PUSH1 0x8E DUP1 PUSH2 0x220 DUP4 CODECOPY ADD SWAP1 JUMP JUMPDEST PUSH0 PUSH1 0x20 DUP3 DUP5 SUB SLT ISZERO PUSH2 0x1E0 JUMPI PUSH0 DUP1 REVERT JUMPDEST POP CALLDATALOAD SWAP2 SWAP1 POP JUMP JUMPDEST PUSH0 PUSH1 0x1 DUP3 ADD PUSH2 0x204 JUMPI PUSH4 0x4E487B71 PUSH1 0xE0 SHL PUSH0 MSTORE PUSH1 0x11 PUSH1 0x4 MSTORE PUSH1 0x24 PUSH0 REVERT JUMPDEST POP PUSH1 0x1 ADD SWAP1 JUMP JUMPDEST PUSH4 0x4E487B71 PUSH1 0xE0 SHL PUSH0 MSTORE PUSH1 0x32 PUSH1 0x4 MSTORE PUSH1 0x24 PUSH0 REVERT INVALID PUSH1 0x80 PUSH1 0x40 MSTORE CALLVALUE DUP1 ISZERO PUSH1 0xE JUMPI PUSH0 DUP1 REVERT JUMPDEST POP PUSH1 0x40 MLOAD PUSH1 0x8E CODESIZE SUB DUP1 PUSH1 0x8E DUP4 CODECOPY DUP2 ADD PUSH1 0x40 DUP2 SWAP1 MSTORE PUSH1 0x29 SWAP2 PUSH1 0x2F JUMP JUMPDEST PUSH0 SSTORE PUSH1 0x45 JUMP JUMPDEST PUSH0 PUSH1 0x20 DUP3 DUP5 SUB SLT ISZERO PUSH1 0x3E JUMPI PUSH0 DUP1 REVERT JUMPDEST POP MLOAD SWAP2 SWAP1 POP JUMP JUMPDEST PUSH1 0x3E DUP1 PUSH1 0x50 PUSH0 CODECOPY PUSH0 RETURN INVALID PUSH1 0x80 PUSH1 0x40 MSTORE PUSH0 DUP1 REVERT INVALID LOG2 PUSH5 0x6970667358 0x22 SLT KECCAK256 0xC6 RETURNDATASIZE LOG3 0xE0 PUSH15 0xB2FC392C5BB7559AD1FCE822B1DEE DUP12 SWAP15 0xAA 0x26 PUSH2 0xEA48 SGT 0xCD 0x1F PC DUP14 PUSH5 0x736F6C6343 STOP ADDMOD BYTE STOP CALLER LOG2 PUSH5 0x6970667358 0x22 SLT KECCAK256 0xC6 PREVRANDAO 0xB6 ADDMOD 0xEF SLOAD 0xB2 0x2B SWAP6 SELFBALANCE CALLER 0xE DUP15 LOG3 DUP15 0x2E 0xB0 0xAA SWAP10 XOR CALLER 0x25 0xEA PUSH31 0x6E391D1BCB3A71A364736F6C634300081A0033000000000000000000000000 "
				},
				"gasEstimates": {
					"creation": {
						"codeDepositCost": "147800",
						"executionCost": "194",
						"totalCost": "147994"
					},
					"external": {
						"deployAll()": "infinite",
						"games(uint256)": "4576",
						"get(uint256)": "4625"
					}
				},
				"methodIdentifiers": {
					"deployAll()": "2d823335",
					"games(uint256)": "117a5b90",
					"get(uint256)": "9507d39a"
				}
			},
			"storageLayout": {
				"storage": [
					{
						"astId": 18,
						"contract": "gussinggamebatch.sol:BatchDeployGames",
						"label": "games",
						"offset": 0,
						"slot": "0",
						"type": "t_array(t_contract(GuessGame)14)dyn_storage"
					}
				],
				"types": {
					"t_array(t_contract(GuessGame)14)dyn_storage": {
						"base": "t_contract(GuessGame)14",
						"encoding": "dynamic_array",
						"label": "contract GuessGame[]",
						"numberOfBytes": "32"
					},
					"t_contract(GuessGame)14": {
						"encoding": "inplace",
						"label": "contract GuessGame",
						"numberOfBytes": "20"
					}
				}
			},
			"userdoc": {
				"kind": "user",
				"methods": {},
				"version": 1
			}
		}
	}
}